
SAME70-LCD-EXT2.elf:     file format elf32-littlearm

Sections:
Idx Name          Size      VMA       LMA       File off  Algn
  0 .text         000275bc  00400000  00400000  00010000  2**6
                  CONTENTS, ALLOC, LOAD, READONLY, CODE
  1 .ARM.exidx    00000008  004275bc  004275bc  000375bc  2**2
                  CONTENTS, ALLOC, LOAD, READONLY, DATA
  2 .relocate     000009b8  20400000  004275c4  00040000  2**3
                  CONTENTS, ALLOC, LOAD, DATA
  3 .bss          000005e8  204009b8  00427f7c  000409b8  2**2
                  ALLOC
  4 .stack        00002000  20400fa0  00428564  000409b8  2**0
                  ALLOC
  5 .heap         00000200  20402fa0  0042a564  000409b8  2**0
                  ALLOC
  6 .ARM.attributes 0000002e  00000000  00000000  000409b8  2**0
                  CONTENTS, READONLY
  7 .comment      00000059  00000000  00000000  000409e6  2**0
                  CONTENTS, READONLY
  8 .debug_info   000204c5  00000000  00000000  00040a3f  2**0
                  CONTENTS, READONLY, DEBUGGING
  9 .debug_abbrev 000045bc  00000000  00000000  00060f04  2**0
                  CONTENTS, READONLY, DEBUGGING
 10 .debug_loc    000091f3  00000000  00000000  000654c0  2**0
                  CONTENTS, READONLY, DEBUGGING
 11 .debug_aranges 00000f58  00000000  00000000  0006e6b3  2**0
                  CONTENTS, READONLY, DEBUGGING
 12 .debug_ranges 00001090  00000000  00000000  0006f60b  2**0
                  CONTENTS, READONLY, DEBUGGING
 13 .debug_macro  000093b2  00000000  00000000  0007069b  2**0
                  CONTENTS, READONLY, DEBUGGING
 14 .debug_line   0001107d  00000000  00000000  00079a4d  2**0
                  CONTENTS, READONLY, DEBUGGING
 15 .debug_str    0009365e  00000000  00000000  0008aaca  2**0
                  CONTENTS, READONLY, DEBUGGING
 16 .debug_frame  000037a0  00000000  00000000  0011e128  2**2
                  CONTENTS, READONLY, DEBUGGING

Disassembly of section .text:

00400000 <exception_table>:
  400000:	a0 2f 40 20 01 19 40 00 ff 18 40 00 ff 18 40 00     ./@ ..@...@...@.
  400010:	ff 18 40 00 ff 18 40 00 ff 18 40 00 00 00 00 00     ..@...@...@.....
	...
  40002c:	dd 1b 40 00 ff 18 40 00 00 00 00 00 11 1c 40 00     ..@...@.......@.
  40003c:	61 1c 40 00 ff 18 40 00 ff 18 40 00 ff 18 40 00     a.@...@...@...@.
  40004c:	ff 18 40 00 ff 18 40 00 ff 18 40 00 ff 18 40 00     ..@...@...@...@.
  40005c:	ff 18 40 00 ff 18 40 00 00 00 00 00 cd 13 40 00     ..@...@.......@.
  40006c:	e1 13 40 00 f5 13 40 00 ff 18 40 00 ff 18 40 00     ..@...@...@...@.
  40007c:	ff 18 40 00 09 14 40 00 1d 14 40 00 ff 18 40 00     ..@...@...@...@.
  40008c:	ff 18 40 00 ff 18 40 00 ff 18 40 00 ff 18 40 00     ..@...@...@...@.
  40009c:	ff 18 40 00 21 20 40 00 ff 18 40 00 ff 18 40 00     ..@.! @...@...@.
  4000ac:	ff 18 40 00 ff 18 40 00 fd 0f 40 00 ff 18 40 00     ..@...@...@...@.
  4000bc:	ff 18 40 00 ff 18 40 00 ff 18 40 00 ff 18 40 00     ..@...@...@...@.
  4000cc:	ff 18 40 00 00 00 00 00 ff 18 40 00 00 00 00 00     ..@.......@.....
  4000dc:	ff 18 40 00 11 10 40 00 ff 18 40 00 ff 18 40 00     ..@...@...@...@.
  4000ec:	ff 18 40 00 ff 18 40 00 ff 18 40 00 ff 18 40 00     ..@...@...@...@.
  4000fc:	ff 18 40 00 ff 18 40 00 ff 18 40 00 ff 18 40 00     ..@...@...@...@.
  40010c:	ff 18 40 00 ff 18 40 00 00 00 00 00 00 00 00 00     ..@...@.........
  40011c:	00 00 00 00 ff 18 40 00 ff 18 40 00 ff 18 40 00     ......@...@...@.
  40012c:	ff 18 40 00 ff 18 40 00 00 00 00 00 ff 18 40 00     ..@...@.......@.
  40013c:	ff 18 40 00                                         ..@.

00400140 <__do_global_dtors_aux>:
  400140:	b510      	push	{r4, lr}
  400142:	4c05      	ldr	r4, [pc, #20]	; (400158 <__do_global_dtors_aux+0x18>)
  400144:	7823      	ldrb	r3, [r4, #0]
  400146:	b933      	cbnz	r3, 400156 <__do_global_dtors_aux+0x16>
  400148:	4b04      	ldr	r3, [pc, #16]	; (40015c <__do_global_dtors_aux+0x1c>)
  40014a:	b113      	cbz	r3, 400152 <__do_global_dtors_aux+0x12>
  40014c:	4804      	ldr	r0, [pc, #16]	; (400160 <__do_global_dtors_aux+0x20>)
  40014e:	f3af 8000 	nop.w
  400152:	2301      	movs	r3, #1
  400154:	7023      	strb	r3, [r4, #0]
  400156:	bd10      	pop	{r4, pc}
  400158:	204009b8 	.word	0x204009b8
  40015c:	00000000 	.word	0x00000000
  400160:	004275c4 	.word	0x004275c4

00400164 <frame_dummy>:
  400164:	4b0c      	ldr	r3, [pc, #48]	; (400198 <frame_dummy+0x34>)
  400166:	b143      	cbz	r3, 40017a <frame_dummy+0x16>
  400168:	480c      	ldr	r0, [pc, #48]	; (40019c <frame_dummy+0x38>)
  40016a:	490d      	ldr	r1, [pc, #52]	; (4001a0 <frame_dummy+0x3c>)
  40016c:	b510      	push	{r4, lr}
  40016e:	f3af 8000 	nop.w
  400172:	480c      	ldr	r0, [pc, #48]	; (4001a4 <frame_dummy+0x40>)
  400174:	6803      	ldr	r3, [r0, #0]
  400176:	b923      	cbnz	r3, 400182 <frame_dummy+0x1e>
  400178:	bd10      	pop	{r4, pc}
  40017a:	480a      	ldr	r0, [pc, #40]	; (4001a4 <frame_dummy+0x40>)
  40017c:	6803      	ldr	r3, [r0, #0]
  40017e:	b933      	cbnz	r3, 40018e <frame_dummy+0x2a>
  400180:	4770      	bx	lr
  400182:	4b09      	ldr	r3, [pc, #36]	; (4001a8 <frame_dummy+0x44>)
  400184:	2b00      	cmp	r3, #0
  400186:	d0f7      	beq.n	400178 <frame_dummy+0x14>
  400188:	e8bd 4010 	ldmia.w	sp!, {r4, lr}
  40018c:	4718      	bx	r3
  40018e:	4b06      	ldr	r3, [pc, #24]	; (4001a8 <frame_dummy+0x44>)
  400190:	2b00      	cmp	r3, #0
  400192:	d0f5      	beq.n	400180 <frame_dummy+0x1c>
  400194:	4718      	bx	r3
  400196:	bf00      	nop
  400198:	00000000 	.word	0x00000000
  40019c:	004275c4 	.word	0x004275c4
  4001a0:	204009bc 	.word	0x204009bc
  4001a4:	004275c4 	.word	0x004275c4
  4001a8:	00000000 	.word	0x00000000

004001ac <sysclk_init>:
	pmc_disable_udpck();
}
#endif // CONFIG_USBCLK_SOURCE

void sysclk_init(void)
{
  4001ac:	b510      	push	{r4, lr}
	struct pll_config pllcfg;

	/* Set flash wait state to max in case the below clock switching. */
	system_init_flash(CHIP_FREQ_CPU_MAX);
  4001ae:	4810      	ldr	r0, [pc, #64]	; (4001f0 <sysclk_init+0x44>)
  4001b0:	4b10      	ldr	r3, [pc, #64]	; (4001f4 <sysclk_init+0x48>)
  4001b2:	4798      	blx	r3
		pmc_switch_mainck_to_fastrc(CKGR_MOR_MOSCRCF_12_MHz);
		break;


	case OSC_MAINCK_XTAL:
		pmc_switch_mainck_to_xtal(PMC_OSC_XTAL,
  4001b4:	213e      	movs	r1, #62	; 0x3e
  4001b6:	2000      	movs	r0, #0
  4001b8:	4b0f      	ldr	r3, [pc, #60]	; (4001f8 <sysclk_init+0x4c>)
  4001ba:	4798      	blx	r3
	case OSC_MAINCK_4M_RC:
	case OSC_MAINCK_8M_RC:
	case OSC_MAINCK_12M_RC:
	case OSC_MAINCK_XTAL:
	case OSC_MAINCK_BYPASS:
		return pmc_osc_is_ready_mainck();
  4001bc:	4c0f      	ldr	r4, [pc, #60]	; (4001fc <sysclk_init+0x50>)
  4001be:	47a0      	blx	r4
 *
 * \param id A number identifying the oscillator to wait for.
 */
static inline void osc_wait_ready(uint8_t id)
{
	while (!osc_is_ready(id)) {
  4001c0:	2800      	cmp	r0, #0
  4001c2:	d0fc      	beq.n	4001be <sysclk_init+0x12>
static inline void pll_enable(const struct pll_config *p_cfg, uint32_t ul_pll_id)
{
	Assert(ul_pll_id < NR_PLLS);

	if (ul_pll_id == PLLA_ID) {
		pmc_disable_pllack(); // Always stop PLL first!
  4001c4:	4b0e      	ldr	r3, [pc, #56]	; (400200 <sysclk_init+0x54>)
  4001c6:	4798      	blx	r3
		PMC->CKGR_PLLAR = CKGR_PLLAR_ONE | p_cfg->ctrl;
  4001c8:	4a0e      	ldr	r2, [pc, #56]	; (400204 <sysclk_init+0x58>)
  4001ca:	4b0f      	ldr	r3, [pc, #60]	; (400208 <sysclk_init+0x5c>)
  4001cc:	629a      	str	r2, [r3, #40]	; 0x28
static inline uint32_t pll_is_locked(uint32_t ul_pll_id)
{
	Assert(ul_pll_id < NR_PLLS);

	if (ul_pll_id == PLLA_ID) {
	return pmc_is_locked_pllack();
  4001ce:	4c0f      	ldr	r4, [pc, #60]	; (40020c <sysclk_init+0x60>)
  4001d0:	47a0      	blx	r4
 */
static inline int pll_wait_for_lock(unsigned int pll_id)
{
	Assert(pll_id < NR_PLLS);

	while (!pll_is_locked(pll_id)) {
  4001d2:	2800      	cmp	r0, #0
  4001d4:	d0fc      	beq.n	4001d0 <sysclk_init+0x24>
	else if (CONFIG_SYSCLK_SOURCE == SYSCLK_SRC_PLLACK) {
		pll_enable_source(CONFIG_PLL0_SOURCE);
		pll_config_defaults(&pllcfg, 0);
		pll_enable(&pllcfg, 0);
		pll_wait_for_lock(0);
		pmc_mck_set_division(CONFIG_SYSCLK_DIV);
  4001d6:	2002      	movs	r0, #2
  4001d8:	4b0d      	ldr	r3, [pc, #52]	; (400210 <sysclk_init+0x64>)
  4001da:	4798      	blx	r3
		pmc_switch_mck_to_pllack(CONFIG_SYSCLK_PRES);
  4001dc:	2000      	movs	r0, #0
  4001de:	4b0d      	ldr	r3, [pc, #52]	; (400214 <sysclk_init+0x68>)
  4001e0:	4798      	blx	r3
		pll_wait_for_lock(1);
		pmc_mck_set_division(CONFIG_SYSCLK_DIV);
		pmc_switch_mck_to_upllck(CONFIG_SYSCLK_PRES);
	}
	/* Update the SystemFrequency variable */
	SystemCoreClockUpdate();
  4001e2:	4b0d      	ldr	r3, [pc, #52]	; (400218 <sysclk_init+0x6c>)
  4001e4:	4798      	blx	r3

	/* Set a flash wait state depending on the new cpu frequency */
	system_init_flash(sysclk_get_cpu_hz());
  4001e6:	4802      	ldr	r0, [pc, #8]	; (4001f0 <sysclk_init+0x44>)
  4001e8:	4b02      	ldr	r3, [pc, #8]	; (4001f4 <sysclk_init+0x48>)
  4001ea:	4798      	blx	r3
  4001ec:	bd10      	pop	{r4, pc}
  4001ee:	bf00      	nop
  4001f0:	11e1a300 	.word	0x11e1a300
  4001f4:	00401ad5 	.word	0x00401ad5
  4001f8:	004014cd 	.word	0x004014cd
  4001fc:	00401521 	.word	0x00401521
  400200:	00401531 	.word	0x00401531
  400204:	20183f01 	.word	0x20183f01
  400208:	400e0600 	.word	0x400e0600
  40020c:	00401541 	.word	0x00401541
  400210:	00401431 	.word	0x00401431
  400214:	00401469 	.word	0x00401469
  400218:	004019c9 	.word	0x004019c9

0040021c <spi_master_init>:
 *
 * \param p_spi  Base address of the SPI instance.
 *
 */
void spi_master_init(Spi *p_spi)
{
  40021c:	b510      	push	{r4, lr}
  40021e:	4604      	mov	r4, r0
#if SAMG55
	flexcom_enable(BOARD_FLEXCOM_SPI);
	flexcom_set_opmode(BOARD_FLEXCOM_SPI, FLEXCOM_SPI);
#else
	spi_enable_clock(p_spi);
  400220:	4b10      	ldr	r3, [pc, #64]	; (400264 <spi_master_init+0x48>)
  400222:	4798      	blx	r3
 *
 * \param p_spi Pointer to an SPI instance.
 */
static inline void spi_reset(Spi *p_spi)
{
	p_spi->SPI_CR = SPI_CR_SWRST;
  400224:	2380      	movs	r3, #128	; 0x80
  400226:	6023      	str	r3, [r4, #0]
 *
 * \param p_spi Pointer to an SPI instance.
 */
static inline void spi_set_master_mode(Spi *p_spi)
{
	p_spi->SPI_MR |= SPI_MR_MSTR;
  400228:	6863      	ldr	r3, [r4, #4]
  40022a:	f043 0301 	orr.w	r3, r3, #1
  40022e:	6063      	str	r3, [r4, #4]
 *
 * \param p_spi Pointer to an SPI instance.
 */
static inline void spi_disable_mode_fault_detect(Spi *p_spi)
{
	p_spi->SPI_MR |= SPI_MR_MODFDIS;
  400230:	6863      	ldr	r3, [r4, #4]
  400232:	f043 0310 	orr.w	r3, r3, #16
  400236:	6063      	str	r3, [r4, #4]
 *
 * \param p_spi Pointer to an SPI instance.
 */
static inline void spi_disable_loopback(Spi *p_spi)
{
	p_spi->SPI_MR &= (~SPI_MR_LLB);
  400238:	6863      	ldr	r3, [r4, #4]
  40023a:	f023 0380 	bic.w	r3, r3, #128	; 0x80
  40023e:	6063      	str	r3, [r4, #4]
#endif
	spi_reset(p_spi);
	spi_set_master_mode(p_spi);
	spi_disable_mode_fault_detect(p_spi);
	spi_disable_loopback(p_spi);
	spi_set_peripheral_chip_select_value(p_spi, DEFAULT_CHIP_ID);
  400240:	2100      	movs	r1, #0
  400242:	4620      	mov	r0, r4
  400244:	4b08      	ldr	r3, [pc, #32]	; (400268 <spi_master_init+0x4c>)
  400246:	4798      	blx	r3
	p_spi->SPI_MR &= (~SPI_MR_PS);
  400248:	6863      	ldr	r3, [r4, #4]
  40024a:	f023 0302 	bic.w	r3, r3, #2
  40024e:	6063      	str	r3, [r4, #4]
	p_spi->SPI_MR &= (~SPI_MR_PCSDEC);
  400250:	6863      	ldr	r3, [r4, #4]
  400252:	f023 0304 	bic.w	r3, r3, #4
  400256:	6063      	str	r3, [r4, #4]
	spi_set_fixed_peripheral_select(p_spi);
	spi_disable_peripheral_select_decode(p_spi);
	spi_set_delay_between_chip_select(p_spi, CONFIG_SPI_MASTER_DELAY_BCS);
  400258:	2100      	movs	r1, #0
  40025a:	4620      	mov	r0, r4
  40025c:	4b03      	ldr	r3, [pc, #12]	; (40026c <spi_master_init+0x50>)
  40025e:	4798      	blx	r3
  400260:	bd10      	pop	{r4, pc}
  400262:	bf00      	nop
  400264:	004015a5 	.word	0x004015a5
  400268:	004015d1 	.word	0x004015d1
  40026c:	004015e7 	.word	0x004015e7

00400270 <spi_master_setup_device>:
 * \param baud_rate Baud rate for communication with slave device in Hz.
 * \param sel_id    Board specific select id.
 */
void spi_master_setup_device(Spi *p_spi, struct spi_device *device,
		spi_flags_t flags, uint32_t baud_rate, board_spi_select_id_t sel_id)
{
  400270:	e92d 41f0 	stmdb	sp!, {r4, r5, r6, r7, r8, lr}
  400274:	4604      	mov	r4, r0
  400276:	460d      	mov	r5, r1
  400278:	4616      	mov	r6, r2
#if (SAM4L)
    int16_t baud_div = spi_calc_baudrate_div(baud_rate, sysclk_get_pba_hz());
#else
	int16_t baud_div = spi_calc_baudrate_div(baud_rate, sysclk_get_peripheral_hz());
  40027a:	4915      	ldr	r1, [pc, #84]	; (4002d0 <spi_master_setup_device+0x60>)
  40027c:	4618      	mov	r0, r3
  40027e:	4b15      	ldr	r3, [pc, #84]	; (4002d4 <spi_master_setup_device+0x64>)
  400280:	4798      	blx	r3
  400282:	4607      	mov	r7, r0
	/* avoid Cppcheck Warning */
	UNUSED(sel_id);
	if (-1 == baud_div) {
		Assert(0 == "Failed to find baudrate divider");
	}
	spi_set_transfer_delay(p_spi, device->id, CONFIG_SPI_MASTER_DELAY_BS,
  400284:	2301      	movs	r3, #1
  400286:	461a      	mov	r2, r3
  400288:	6829      	ldr	r1, [r5, #0]
  40028a:	4620      	mov	r0, r4
  40028c:	f8df 805c 	ldr.w	r8, [pc, #92]	; 4002ec <spi_master_setup_device+0x7c>
  400290:	47c0      	blx	r8
			CONFIG_SPI_MASTER_DELAY_BCT);
	spi_set_bits_per_transfer(p_spi, device->id,
  400292:	2200      	movs	r2, #0
  400294:	6829      	ldr	r1, [r5, #0]
  400296:	4620      	mov	r0, r4
  400298:	4b0f      	ldr	r3, [pc, #60]	; (4002d8 <spi_master_setup_device+0x68>)
  40029a:	4798      	blx	r3
			CONFIG_SPI_MASTER_BITS_PER_TRANSFER);
	spi_set_baudrate_div(p_spi, device->id, baud_div);
  40029c:	b2fa      	uxtb	r2, r7
  40029e:	6829      	ldr	r1, [r5, #0]
  4002a0:	4620      	mov	r0, r4
  4002a2:	4b0e      	ldr	r3, [pc, #56]	; (4002dc <spi_master_setup_device+0x6c>)
  4002a4:	4798      	blx	r3
	spi_configure_cs_behavior(p_spi, device->id, SPI_CS_KEEP_LOW);
  4002a6:	2208      	movs	r2, #8
  4002a8:	6829      	ldr	r1, [r5, #0]
  4002aa:	4620      	mov	r0, r4
  4002ac:	4b0c      	ldr	r3, [pc, #48]	; (4002e0 <spi_master_setup_device+0x70>)
  4002ae:	4798      	blx	r3
	spi_set_clock_polarity(p_spi, device->id, flags >> 1);
  4002b0:	0872      	lsrs	r2, r6, #1
  4002b2:	6829      	ldr	r1, [r5, #0]
  4002b4:	4620      	mov	r0, r4
  4002b6:	4b0b      	ldr	r3, [pc, #44]	; (4002e4 <spi_master_setup_device+0x74>)
  4002b8:	4798      	blx	r3
	spi_set_clock_phase(p_spi, device->id, ((flags & 0x1) ^ 0x1));
  4002ba:	f086 0201 	eor.w	r2, r6, #1
  4002be:	f002 0201 	and.w	r2, r2, #1
  4002c2:	6829      	ldr	r1, [r5, #0]
  4002c4:	4620      	mov	r0, r4
  4002c6:	4b08      	ldr	r3, [pc, #32]	; (4002e8 <spi_master_setup_device+0x78>)
  4002c8:	4798      	blx	r3
  4002ca:	e8bd 81f0 	ldmia.w	sp!, {r4, r5, r6, r7, r8, pc}
  4002ce:	bf00      	nop
  4002d0:	08f0d180 	.word	0x08f0d180
  4002d4:	004016c3 	.word	0x004016c3
  4002d8:	004016af 	.word	0x004016af
  4002dc:	004016d9 	.word	0x004016d9
  4002e0:	00401669 	.word	0x00401669
  4002e4:	0040162d 	.word	0x0040162d
  4002e8:	0040164b 	.word	0x0040164b
  4002ec:	00401701 	.word	0x00401701

004002f0 <spi_select_device>:
 * \param p_spi   Base address of the SPI instance.
 * \param device  SPI device.
 *
 */
void spi_select_device(Spi *p_spi, struct spi_device *device)
{
  4002f0:	b508      	push	{r3, lr}
	if (p_spi->SPI_MR & SPI_MR_PCSDEC) {
  4002f2:	6843      	ldr	r3, [r0, #4]
	if (spi_get_peripheral_select_decode_setting(p_spi)) {
  4002f4:	f013 0f04 	tst.w	r3, #4
  4002f8:	d006      	beq.n	400308 <spi_select_device+0x18>
		if (device->id < MAX_NUM_WITH_DECODER) {
  4002fa:	6809      	ldr	r1, [r1, #0]
  4002fc:	290f      	cmp	r1, #15
  4002fe:	d900      	bls.n	400302 <spi_select_device+0x12>
  400300:	bd08      	pop	{r3, pc}
			spi_set_peripheral_chip_select_value(p_spi, device->id);
  400302:	4b06      	ldr	r3, [pc, #24]	; (40031c <spi_select_device+0x2c>)
  400304:	4798      	blx	r3
  400306:	bd08      	pop	{r3, pc}
		}
	} else {
		if (device->id < MAX_NUM_WITHOUT_DECODER) {
  400308:	6809      	ldr	r1, [r1, #0]
  40030a:	2903      	cmp	r1, #3
  40030c:	d8f8      	bhi.n	400300 <spi_select_device+0x10>
			spi_set_peripheral_chip_select_value(p_spi, (~(1 << device->id)));
  40030e:	2301      	movs	r3, #1
  400310:	fa03 f101 	lsl.w	r1, r3, r1
  400314:	43c9      	mvns	r1, r1
  400316:	4b01      	ldr	r3, [pc, #4]	; (40031c <spi_select_device+0x2c>)
  400318:	4798      	blx	r3
		}
	}
}
  40031a:	e7f1      	b.n	400300 <spi_select_device+0x10>
  40031c:	004015d1 	.word	0x004015d1

00400320 <spi_write_packet>:
{
	uint32_t timeout = SPI_TIMEOUT;
	uint32_t i = 0;
	uint8_t val;

	while (len) {
  400320:	b11a      	cbz	r2, 40032a <spi_write_packet+0xa>
{
  400322:	b410      	push	{r4}
  400324:	460c      	mov	r4, r1
  400326:	4411      	add	r1, r2
  400328:	e006      	b.n	400338 <spi_write_packet+0x18>
		spi_write_single(p_spi, val);
		i++;
		len--;
	}

	return STATUS_OK;
  40032a:	2000      	movs	r0, #0
  40032c:	4770      	bx	lr
		val = data[i];
  40032e:	f814 3b01 	ldrb.w	r3, [r4], #1
 * \param data The data byte to be loaded
 *
 */
static inline void spi_put(Spi *p_spi, uint16_t data)
{
	p_spi->SPI_TDR = SPI_TDR_TD(data);
  400332:	60c3      	str	r3, [r0, #12]
	while (len) {
  400334:	42a1      	cmp	r1, r4
  400336:	d00c      	beq.n	400352 <spi_write_packet+0x32>
{
  400338:	f643 2399 	movw	r3, #15001	; 0x3a99
 * \retval 1 if transmissions are complete.
 * \retval 0 if transmissions are not complete.
 */
static inline uint32_t spi_is_tx_ready(Spi *p_spi)
{
	if (p_spi->SPI_SR & SPI_SR_TDRE) {
  40033c:	6902      	ldr	r2, [r0, #16]
		while (!spi_is_tx_ready(p_spi)) {
  40033e:	f012 0f02 	tst.w	r2, #2
  400342:	d1f4      	bne.n	40032e <spi_write_packet+0xe>
			if (!timeout--) {
  400344:	3b01      	subs	r3, #1
  400346:	d1f9      	bne.n	40033c <spi_write_packet+0x1c>
				return ERR_TIMEOUT;
  400348:	f06f 0002 	mvn.w	r0, #2
}
  40034c:	f85d 4b04 	ldr.w	r4, [sp], #4
  400350:	4770      	bx	lr
	return STATUS_OK;
  400352:	2000      	movs	r0, #0
  400354:	e7fa      	b.n	40034c <spi_write_packet+0x2c>

00400356 <spi_read_packet>:
{
	uint32_t timeout = SPI_TIMEOUT;
	uint8_t val;
	uint32_t i = 0;

	while (len) {
  400356:	b13a      	cbz	r2, 400368 <spi_read_packet+0x12>
{
  400358:	b470      	push	{r4, r5, r6}
  40035a:	4615      	mov	r5, r2
  40035c:	460c      	mov	r4, r1
  40035e:	440d      	add	r5, r1
	p_spi->SPI_TDR = SPI_TDR_TD(data);
  400360:	26ff      	movs	r6, #255	; 0xff
 *
 * \return 1 if the SPI Receiver is ready, otherwise 0.
 */
static inline uint32_t spi_is_rx_ready(Spi *p_spi)
{
	if ((p_spi->SPI_SR & (SPI_SR_RDRF | SPI_SR_TXEMPTY))
  400362:	f240 2101 	movw	r1, #513	; 0x201
  400366:	e012      	b.n	40038e <spi_read_packet+0x38>
		data[i] = val;
		i++;
		len--;
	}

	return STATUS_OK;
  400368:	2000      	movs	r0, #0
  40036a:	4770      	bx	lr
	p_spi->SPI_TDR = SPI_TDR_TD(data);
  40036c:	60c6      	str	r6, [r0, #12]
		while (!spi_is_rx_ready(p_spi)) {
  40036e:	f643 2399 	movw	r3, #15001	; 0x3a99
	if ((p_spi->SPI_SR & (SPI_SR_RDRF | SPI_SR_TXEMPTY))
  400372:	6902      	ldr	r2, [r0, #16]
  400374:	ea31 0202 	bics.w	r2, r1, r2
  400378:	d004      	beq.n	400384 <spi_read_packet+0x2e>
			if (!timeout--) {
  40037a:	3b01      	subs	r3, #1
  40037c:	d1f9      	bne.n	400372 <spi_read_packet+0x1c>
				return ERR_TIMEOUT;
  40037e:	f06f 0002 	mvn.w	r0, #2
  400382:	e00e      	b.n	4003a2 <spi_read_packet+0x4c>
	return (p_spi->SPI_RDR & SPI_RDR_RD_Msk);
  400384:	6883      	ldr	r3, [r0, #8]
 * \param data      Data to read.
 *
 */
static inline void spi_read_single(Spi *p_spi, uint8_t *data)
{
	*data = (uint8_t)spi_get(p_spi);
  400386:	f804 3b01 	strb.w	r3, [r4], #1
	while (len) {
  40038a:	42a5      	cmp	r5, r4
  40038c:	d00b      	beq.n	4003a6 <spi_read_packet+0x50>
{
  40038e:	f643 2399 	movw	r3, #15001	; 0x3a99
	if (p_spi->SPI_SR & SPI_SR_TDRE) {
  400392:	6902      	ldr	r2, [r0, #16]
		while (!spi_is_tx_ready(p_spi)) {
  400394:	f012 0f02 	tst.w	r2, #2
  400398:	d1e8      	bne.n	40036c <spi_read_packet+0x16>
			if (!timeout--) {
  40039a:	3b01      	subs	r3, #1
  40039c:	d1f9      	bne.n	400392 <spi_read_packet+0x3c>
				return ERR_TIMEOUT;
  40039e:	f06f 0002 	mvn.w	r0, #2
}
  4003a2:	bc70      	pop	{r4, r5, r6}
  4003a4:	4770      	bx	lr
	return STATUS_OK;
  4003a6:	2000      	movs	r0, #0
  4003a8:	e7fb      	b.n	4003a2 <spi_read_packet+0x4c>
	...

004003ac <_read>:
int __attribute__((weak))
_read (int file, char * ptr, int len); // Remove GCC compiler warning

int __attribute__((weak))
_read (int file, char * ptr, int len)
{
  4003ac:	e92d 41f0 	stmdb	sp!, {r4, r5, r6, r7, r8, lr}
	int nChars = 0;

	if (file != 0) {
  4003b0:	b980      	cbnz	r0, 4003d4 <_read+0x28>
  4003b2:	460c      	mov	r4, r1
  4003b4:	4690      	mov	r8, r2
		return -1;
	}

	for (; len > 0; --len) {
  4003b6:	2a00      	cmp	r2, #0
  4003b8:	dd0f      	ble.n	4003da <_read+0x2e>
  4003ba:	188f      	adds	r7, r1, r2
		ptr_get(stdio_base, ptr);
  4003bc:	4e08      	ldr	r6, [pc, #32]	; (4003e0 <_read+0x34>)
  4003be:	4d09      	ldr	r5, [pc, #36]	; (4003e4 <_read+0x38>)
  4003c0:	6830      	ldr	r0, [r6, #0]
  4003c2:	4621      	mov	r1, r4
  4003c4:	682b      	ldr	r3, [r5, #0]
  4003c6:	4798      	blx	r3
		ptr++;
  4003c8:	3401      	adds	r4, #1
	for (; len > 0; --len) {
  4003ca:	42bc      	cmp	r4, r7
  4003cc:	d1f8      	bne.n	4003c0 <_read+0x14>
		nChars++;
	}
	return nChars;
}
  4003ce:	4640      	mov	r0, r8
  4003d0:	e8bd 81f0 	ldmia.w	sp!, {r4, r5, r6, r7, r8, pc}
		return -1;
  4003d4:	f04f 38ff 	mov.w	r8, #4294967295
  4003d8:	e7f9      	b.n	4003ce <_read+0x22>
	for (; len > 0; --len) {
  4003da:	4680      	mov	r8, r0
  4003dc:	e7f7      	b.n	4003ce <_read+0x22>
  4003de:	bf00      	nop
  4003e0:	20400ee4 	.word	0x20400ee4
  4003e4:	20400edc 	.word	0x20400edc

004003e8 <_write>:
int __attribute__((weak))
_write (int file, const char *ptr, int len)
{
	int nChars = 0;

	if ((file != 1) && (file != 2) && (file!=3)) {
  4003e8:	3801      	subs	r0, #1
  4003ea:	2802      	cmp	r0, #2
  4003ec:	d815      	bhi.n	40041a <_write+0x32>
{
  4003ee:	e92d 41f0 	stmdb	sp!, {r4, r5, r6, r7, r8, lr}
  4003f2:	460e      	mov	r6, r1
  4003f4:	4614      	mov	r4, r2
		return -1;
	}

	for (; len != 0; --len) {
  4003f6:	b19a      	cbz	r2, 400420 <_write+0x38>
  4003f8:	460d      	mov	r5, r1
		if (ptr_put(stdio_base, *ptr++) < 0) {
  4003fa:	f8df 8038 	ldr.w	r8, [pc, #56]	; 400434 <_write+0x4c>
  4003fe:	4f0c      	ldr	r7, [pc, #48]	; (400430 <_write+0x48>)
  400400:	f8d8 0000 	ldr.w	r0, [r8]
  400404:	f815 1b01 	ldrb.w	r1, [r5], #1
  400408:	683b      	ldr	r3, [r7, #0]
  40040a:	4798      	blx	r3
  40040c:	2800      	cmp	r0, #0
  40040e:	db0a      	blt.n	400426 <_write+0x3e>
  400410:	1ba8      	subs	r0, r5, r6
	for (; len != 0; --len) {
  400412:	3c01      	subs	r4, #1
  400414:	d1f4      	bne.n	400400 <_write+0x18>
  400416:	e8bd 81f0 	ldmia.w	sp!, {r4, r5, r6, r7, r8, pc}
		return -1;
  40041a:	f04f 30ff 	mov.w	r0, #4294967295
  40041e:	4770      	bx	lr
	for (; len != 0; --len) {
  400420:	4610      	mov	r0, r2
  400422:	e8bd 81f0 	ldmia.w	sp!, {r4, r5, r6, r7, r8, pc}
			return -1;
  400426:	f04f 30ff 	mov.w	r0, #4294967295
		}
		++nChars;
	}
	return nChars;
}
  40042a:	e8bd 81f0 	ldmia.w	sp!, {r4, r5, r6, r7, r8, pc}
  40042e:	bf00      	nop
  400430:	20400ee0 	.word	0x20400ee0
  400434:	20400ee4 	.word	0x20400ee4

00400438 <board_init>:
	__ISB();
}
#endif

void board_init(void)
{
  400438:	e92d 41f0 	stmdb	sp!, {r4, r5, r6, r7, r8, lr}
#ifndef CONF_BOARD_KEEP_WATCHDOG_AT_INIT
	/* Disable the watchdog */
	WDT->WDT_MR = WDT_MR_WDDIS;
  40043c:	f44f 4200 	mov.w	r2, #32768	; 0x8000
  400440:	4b9e      	ldr	r3, [pc, #632]	; (4006bc <board_init+0x284>)
  400442:	605a      	str	r2, [r3, #4]
    This function acts as a special kind of Data Memory Barrier.
    It completes when all explicit memory accesses before this instruction complete.
 */
__attribute__( ( always_inline ) ) __STATIC_INLINE void __DSB(void)
{
  __ASM volatile ("dsb");
  400444:	f3bf 8f4f 	dsb	sy
  __ASM volatile ("isb");
  400448:	f3bf 8f6f 	isb	sy
__STATIC_INLINE void SCB_EnableICache(void)
{
  #if (__ICACHE_PRESENT == 1)
    __DSB();
    __ISB();
    SCB->ICIALLU = 0;                       // invalidate I-Cache
  40044c:	4b9c      	ldr	r3, [pc, #624]	; (4006c0 <board_init+0x288>)
  40044e:	2200      	movs	r2, #0
  400450:	f8c3 2250 	str.w	r2, [r3, #592]	; 0x250
    SCB->CCR |=  SCB_CCR_IC_Msk;            // enable I-Cache
  400454:	695a      	ldr	r2, [r3, #20]
  400456:	f442 3200 	orr.w	r2, r2, #131072	; 0x20000
  40045a:	615a      	str	r2, [r3, #20]
  __ASM volatile ("dsb");
  40045c:	f3bf 8f4f 	dsb	sy
  __ASM volatile ("isb");
  400460:	f3bf 8f6f 	isb	sy
{
  #if (__DCACHE_PRESENT == 1)
    uint32_t ccsidr, sshift, wshift, sw;
    uint32_t sets, ways;

    ccsidr  = SCB->CCSIDR;
  400464:	f8d3 7080 	ldr.w	r7, [r3, #128]	; 0x80
    sets    = CCSIDR_SETS(ccsidr);
  400468:	f3c7 364e 	ubfx	r6, r7, #13, #15
    sshift  = CCSIDR_LSSHIFT(ccsidr) + 4;
  40046c:	f007 0007 	and.w	r0, r7, #7
  400470:	3004      	adds	r0, #4
    ways    = CCSIDR_WAYS(ccsidr);
  400472:	f3c7 07c9 	ubfx	r7, r7, #3, #10
 */
__attribute__( ( always_inline ) ) __STATIC_INLINE uint8_t __CLZ(uint32_t value)
{
  uint32_t result;

  __ASM volatile ("clz %0, %1" : "=r" (result) : "r" (value) );
  400476:	fab7 fe87 	clz	lr, r7
    wshift  = __CLZ(ways) & 0x1f;
  40047a:	f00e 0e1f 	and.w	lr, lr, #31
  __ASM volatile ("dsb");
  40047e:	f3bf 8f4f 	dsb	sy
  400482:	f04f 34ff 	mov.w	r4, #4294967295
  400486:	fa04 fc00 	lsl.w	ip, r4, r0
  40048a:	fa06 f000 	lsl.w	r0, r6, r0
  40048e:	fa04 f40e 	lsl.w	r4, r4, lr
  400492:	fa07 fe0e 	lsl.w	lr, r7, lr

    do {                                    // invalidate D-Cache
         int32_t tmpways = ways;
         do {
              sw = ((tmpways << wshift) | (sets << sshift));
              SCB->DCISW = sw;
  400496:	461d      	mov	r5, r3
         int32_t tmpways = ways;
  400498:	463a      	mov	r2, r7
  40049a:	4673      	mov	r3, lr
              sw = ((tmpways << wshift) | (sets << sshift));
  40049c:	ea40 0103 	orr.w	r1, r0, r3
              SCB->DCISW = sw;
  4004a0:	f8c5 1260 	str.w	r1, [r5, #608]	; 0x260
            } while(tmpways--);
  4004a4:	3a01      	subs	r2, #1
  4004a6:	4423      	add	r3, r4
  4004a8:	f1b2 3fff 	cmp.w	r2, #4294967295
  4004ac:	d1f6      	bne.n	40049c <board_init+0x64>
        } while(sets--);
  4004ae:	3e01      	subs	r6, #1
  4004b0:	4460      	add	r0, ip
  4004b2:	f1b6 3fff 	cmp.w	r6, #4294967295
  4004b6:	d1ef      	bne.n	400498 <board_init+0x60>
  4004b8:	f3bf 8f4f 	dsb	sy
    __DSB();

    SCB->CCR |=  SCB_CCR_DC_Msk;            // enable D-Cache
  4004bc:	4b80      	ldr	r3, [pc, #512]	; (4006c0 <board_init+0x288>)
  4004be:	695a      	ldr	r2, [r3, #20]
  4004c0:	f442 3280 	orr.w	r2, r2, #65536	; 0x10000
  4004c4:	615a      	str	r2, [r3, #20]
  4004c6:	f3bf 8f4f 	dsb	sy
  __ASM volatile ("isb");
  4004ca:	f3bf 8f6f 	isb	sy
		*dst++ = *src++;
	}
#endif
#else
	/* TCM Configuration */
	EFC->EEFC_FCR = (EEFC_FCR_FKEY_PASSWD | EEFC_FCR_FCMD_CGPB 
  4004ce:	4a7d      	ldr	r2, [pc, #500]	; (4006c4 <board_init+0x28c>)
  4004d0:	497d      	ldr	r1, [pc, #500]	; (4006c8 <board_init+0x290>)
  4004d2:	6051      	str	r1, [r2, #4]
					| EEFC_FCR_FARG(8));
	EFC->EEFC_FCR = (EEFC_FCR_FKEY_PASSWD | EEFC_FCR_FCMD_CGPB 
  4004d4:	f5a1 7180 	sub.w	r1, r1, #256	; 0x100
  4004d8:	6051      	str	r1, [r2, #4]
  __ASM volatile ("dsb");
  4004da:	f3bf 8f4f 	dsb	sy
  __ASM volatile ("isb");
  4004de:	f3bf 8f6f 	isb	sy
	SCB->ITCMCR &= ~(uint32_t)(1UL);
  4004e2:	f8d3 2290 	ldr.w	r2, [r3, #656]	; 0x290
  4004e6:	f022 0201 	bic.w	r2, r2, #1
  4004ea:	f8c3 2290 	str.w	r2, [r3, #656]	; 0x290
	SCB->DTCMCR &= ~(uint32_t)SCB_DTCMCR_EN_Msk;
  4004ee:	f8d3 2294 	ldr.w	r2, [r3, #660]	; 0x294
  4004f2:	f022 0201 	bic.w	r2, r2, #1
  4004f6:	f8c3 2294 	str.w	r2, [r3, #660]	; 0x294
  __ASM volatile ("dsb");
  4004fa:	f3bf 8f4f 	dsb	sy
  __ASM volatile ("isb");
  4004fe:	f3bf 8f6f 	isb	sy
 *
 * \param ul_id Id (number) of the peripheral clock.
 */
static inline void sysclk_enable_peripheral_clock(uint32_t ul_id)
{
	pmc_enable_periph_clk(ul_id);
  400502:	200a      	movs	r0, #10
  400504:	4c71      	ldr	r4, [pc, #452]	; (4006cc <board_init+0x294>)
  400506:	47a0      	blx	r4
  400508:	200b      	movs	r0, #11
  40050a:	47a0      	blx	r4
  40050c:	200c      	movs	r0, #12
  40050e:	47a0      	blx	r4
  400510:	2010      	movs	r0, #16
  400512:	47a0      	blx	r4
  400514:	2011      	movs	r0, #17
  400516:	47a0      	blx	r4
		enum ioport_direction dir)
{
	Pio *base = arch_ioport_pin_to_base(pin);

	if (dir == IOPORT_DIR_OUTPUT) {
		base->PIO_OER = arch_ioport_pin_to_mask(pin);
  400518:	4e6d      	ldr	r6, [pc, #436]	; (4006d0 <board_init+0x298>)
  40051a:	f44f 7880 	mov.w	r8, #256	; 0x100
  40051e:	f8c6 8010 	str.w	r8, [r6, #16]
	} else if (dir == IOPORT_DIR_INPUT) {
		base->PIO_ODR = arch_ioport_pin_to_mask(pin);
	}

	base->PIO_OWER = arch_ioport_pin_to_mask(pin);
  400522:	f8c6 80a0 	str.w	r8, [r6, #160]	; 0xa0
		bool level)
{
	Pio *base = arch_ioport_pin_to_base(pin);

	if (level) {
		base->PIO_SODR = arch_ioport_pin_to_mask(pin);
  400526:	f8c6 8030 	str.w	r8, [r6, #48]	; 0x30
		base->PIO_ODR = arch_ioport_pin_to_mask(pin);
  40052a:	4c6a      	ldr	r4, [pc, #424]	; (4006d4 <board_init+0x29c>)
  40052c:	f44f 6500 	mov.w	r5, #2048	; 0x800
  400530:	6165      	str	r5, [r4, #20]
	base->PIO_OWER = arch_ioport_pin_to_mask(pin);
  400532:	f8c4 50a0 	str.w	r5, [r4, #160]	; 0xa0
		base->PIO_PUER = mask;
  400536:	6665      	str	r5, [r4, #100]	; 0x64
		base->PIO_PPDDR = mask;
  400538:	f8c4 5090 	str.w	r5, [r4, #144]	; 0x90
		base->PIO_MDDR = mask;
  40053c:	6565      	str	r5, [r4, #84]	; 0x54
		base->PIO_IFER = mask;
  40053e:	6225      	str	r5, [r4, #32]
		base->PIO_IFSCER = mask;
  400540:	f8c4 5084 	str.w	r5, [r4, #132]	; 0x84
		base->PIO_ABCDSR[0] &= ~mask;
  400544:	6f23      	ldr	r3, [r4, #112]	; 0x70
  400546:	f423 6300 	bic.w	r3, r3, #2048	; 0x800
  40054a:	6723      	str	r3, [r4, #112]	; 0x70
		base->PIO_ABCDSR[1] &= ~mask;
  40054c:	6f63      	ldr	r3, [r4, #116]	; 0x74
  40054e:	f423 6300 	bic.w	r3, r3, #2048	; 0x800
  400552:	6763      	str	r3, [r4, #116]	; 0x74
	case IOPORT_SENSE_FALLING:
		base->PIO_ESR = mask;
		base->PIO_FELLSR = mask;
		break;
	case IOPORT_SENSE_RISING:
		base->PIO_ESR = mask;
  400554:	f8c4 50c0 	str.w	r5, [r4, #192]	; 0xc0
		base->PIO_REHLSR = mask;
  400558:	f8c4 50d4 	str.w	r5, [r4, #212]	; 0xd4
		break;
	default:
		base->PIO_AIMDR = mask;
		return;
	}
	base->PIO_AIMER = mask;
  40055c:	f8c4 50b0 	str.w	r5, [r4, #176]	; 0xb0
		base->PIO_PUDR = mask;
  400560:	f44f 1300 	mov.w	r3, #2097152	; 0x200000
  400564:	6623      	str	r3, [r4, #96]	; 0x60
		base->PIO_PPDDR = mask;
  400566:	f8c4 3090 	str.w	r3, [r4, #144]	; 0x90
		base->PIO_MDDR = mask;
  40056a:	6563      	str	r3, [r4, #84]	; 0x54
		base->PIO_IFDR = mask;
  40056c:	6263      	str	r3, [r4, #36]	; 0x24
		base->PIO_IFSCDR = mask;
  40056e:	f8c4 3080 	str.w	r3, [r4, #128]	; 0x80
		base->PIO_ABCDSR[0] &= ~mask;
  400572:	6f22      	ldr	r2, [r4, #112]	; 0x70
  400574:	f422 1200 	bic.w	r2, r2, #2097152	; 0x200000
  400578:	6722      	str	r2, [r4, #112]	; 0x70
		base->PIO_ABCDSR[1] &= ~mask;
  40057a:	6f62      	ldr	r2, [r4, #116]	; 0x74
  40057c:	f422 1200 	bic.w	r2, r2, #2097152	; 0x200000
  400580:	6762      	str	r2, [r4, #116]	; 0x74
	arch_ioport_port_to_base(port)->PIO_PDR = mask;
  400582:	6063      	str	r3, [r4, #4]
			GPIO_PUSH_BUTTON_1_SENSE);

#ifdef CONF_BOARD_UART_CONSOLE
	/* Configure UART pins */
	ioport_set_pin_peripheral_mode(USART1_RXD_GPIO, USART1_RXD_FLAGS);
	MATRIX->CCFG_SYSIO |= CCFG_SYSIO_SYSIO4;
  400584:	4a54      	ldr	r2, [pc, #336]	; (4006d8 <board_init+0x2a0>)
  400586:	f8d2 3114 	ldr.w	r3, [r2, #276]	; 0x114
  40058a:	f043 0310 	orr.w	r3, r3, #16
  40058e:	f8c2 3114 	str.w	r3, [r2, #276]	; 0x114
		base->PIO_PUDR = mask;
  400592:	f502 22b2 	add.w	r2, r2, #364544	; 0x59000
  400596:	2310      	movs	r3, #16
  400598:	6613      	str	r3, [r2, #96]	; 0x60
		base->PIO_PPDDR = mask;
  40059a:	f8c2 3090 	str.w	r3, [r2, #144]	; 0x90
		base->PIO_MDDR = mask;
  40059e:	6553      	str	r3, [r2, #84]	; 0x54
		base->PIO_IFDR = mask;
  4005a0:	6253      	str	r3, [r2, #36]	; 0x24
		base->PIO_IFSCDR = mask;
  4005a2:	f8c2 3080 	str.w	r3, [r2, #128]	; 0x80
		base->PIO_ABCDSR[0] |= mask;
  4005a6:	6f11      	ldr	r1, [r2, #112]	; 0x70
  4005a8:	4319      	orrs	r1, r3
  4005aa:	6711      	str	r1, [r2, #112]	; 0x70
		base->PIO_ABCDSR[1] |= mask;
  4005ac:	6f51      	ldr	r1, [r2, #116]	; 0x74
  4005ae:	4319      	orrs	r1, r3
  4005b0:	6751      	str	r1, [r2, #116]	; 0x74
	arch_ioport_port_to_base(port)->PIO_PDR = mask;
  4005b2:	6053      	str	r3, [r2, #4]
		base->PIO_PUDR = mask;
  4005b4:	2208      	movs	r2, #8
  4005b6:	6622      	str	r2, [r4, #96]	; 0x60
		base->PIO_PPDDR = mask;
  4005b8:	f8c4 2090 	str.w	r2, [r4, #144]	; 0x90
		base->PIO_MDDR = mask;
  4005bc:	6562      	str	r2, [r4, #84]	; 0x54
		base->PIO_IFDR = mask;
  4005be:	6262      	str	r2, [r4, #36]	; 0x24
		base->PIO_IFSCDR = mask;
  4005c0:	f8c4 2080 	str.w	r2, [r4, #128]	; 0x80
		base->PIO_ABCDSR[0] &= ~mask;
  4005c4:	6f21      	ldr	r1, [r4, #112]	; 0x70
  4005c6:	f021 0108 	bic.w	r1, r1, #8
  4005ca:	6721      	str	r1, [r4, #112]	; 0x70
		base->PIO_ABCDSR[1] &= ~mask;
  4005cc:	6f61      	ldr	r1, [r4, #116]	; 0x74
  4005ce:	f021 0108 	bic.w	r1, r1, #8
  4005d2:	6761      	str	r1, [r4, #116]	; 0x74
	arch_ioport_port_to_base(port)->PIO_PDR = mask;
  4005d4:	6062      	str	r2, [r4, #4]
		base->PIO_PUDR = mask;
  4005d6:	6623      	str	r3, [r4, #96]	; 0x60
		base->PIO_PPDDR = mask;
  4005d8:	f8c4 3090 	str.w	r3, [r4, #144]	; 0x90
		base->PIO_MDDR = mask;
  4005dc:	6563      	str	r3, [r4, #84]	; 0x54
		base->PIO_IFDR = mask;
  4005de:	6263      	str	r3, [r4, #36]	; 0x24
		base->PIO_IFSCDR = mask;
  4005e0:	f8c4 3080 	str.w	r3, [r4, #128]	; 0x80
		base->PIO_ABCDSR[0] &= ~mask;
  4005e4:	6f22      	ldr	r2, [r4, #112]	; 0x70
  4005e6:	f022 0210 	bic.w	r2, r2, #16
  4005ea:	6722      	str	r2, [r4, #112]	; 0x70
		base->PIO_ABCDSR[1] &= ~mask;
  4005ec:	6f62      	ldr	r2, [r4, #116]	; 0x74
  4005ee:	f022 0210 	bic.w	r2, r2, #16
  4005f2:	6762      	str	r2, [r4, #116]	; 0x74
	arch_ioport_port_to_base(port)->PIO_PDR = mask;
  4005f4:	6063      	str	r3, [r4, #4]
	ioport_set_pin_mode(SD_MMC_0_CD_GPIO, SD_MMC_0_CD_FLAGS);
#endif

#ifdef CONF_BOARD_ILI9488
	/**LCD pin configure on EBI*/
	pio_configure(PIN_EBI_RESET_PIO, PIN_EBI_RESET_TYPE, PIN_EBI_RESET_MASK, PIN_EBI_RESET_ATTRI);
  4005f6:	2300      	movs	r3, #0
  4005f8:	f44f 5200 	mov.w	r2, #8192	; 0x2000
  4005fc:	f04f 5160 	mov.w	r1, #939524096	; 0x38000000
  400600:	4630      	mov	r0, r6
  400602:	4f36      	ldr	r7, [pc, #216]	; (4006dc <board_init+0x2a4>)
  400604:	47b8      	blx	r7
	pio_configure(PIN_EBI_CDS_PIO, PIN_EBI_CDS_TYPE, PIN_EBI_CDS_MASK, PIN_EBI_CDS_ATTRI);
  400606:	2300      	movs	r3, #0
  400608:	f04f 4280 	mov.w	r2, #1073741824	; 0x40000000
  40060c:	f04f 5160 	mov.w	r1, #939524096	; 0x38000000
  400610:	4630      	mov	r0, r6
  400612:	47b8      	blx	r7
	pio_configure(PIN_EBI_DATAL_PIO, PIN_EBI_DATAL_TYPE, PIN_EBI_DATAL_MASK, PIN_EBI_DATAL_ATTRI);
  400614:	2301      	movs	r3, #1
  400616:	22ff      	movs	r2, #255	; 0xff
  400618:	f04f 6100 	mov.w	r1, #134217728	; 0x8000000
  40061c:	4630      	mov	r0, r6
  40061e:	47b8      	blx	r7
	pio_configure(PIN_EBI_DATAH_0_PIO, PIN_EBI_DATAH_0_TYPE, PIN_EBI_DATAH_0_MASK, PIN_EBI_DATAH_0_ATTRI);
  400620:	2301      	movs	r3, #1
  400622:	223f      	movs	r2, #63	; 0x3f
  400624:	f04f 6100 	mov.w	r1, #134217728	; 0x8000000
  400628:	482d      	ldr	r0, [pc, #180]	; (4006e0 <board_init+0x2a8>)
  40062a:	47b8      	blx	r7
	pio_configure(PIN_EBI_DATAH_1_PIO, PIN_EBI_DATAH_1_TYPE, PIN_EBI_DATAH_1_MASK, PIN_EBI_DATAH_1_ATTRI);
  40062c:	2301      	movs	r3, #1
  40062e:	f44f 32c0 	mov.w	r2, #98304	; 0x18000
  400632:	f04f 6100 	mov.w	r1, #134217728	; 0x8000000
  400636:	4620      	mov	r0, r4
  400638:	47b8      	blx	r7
	pio_configure(PIN_EBI_NWE_PIO, PIN_EBI_NWE_TYPE, PIN_EBI_NWE_MASK, PIN_EBI_NWE_ATTRI);
  40063a:	2301      	movs	r3, #1
  40063c:	4642      	mov	r2, r8
  40063e:	f04f 6100 	mov.w	r1, #134217728	; 0x8000000
  400642:	4630      	mov	r0, r6
  400644:	47b8      	blx	r7
	pio_configure(PIN_EBI_NRD_PIO, PIN_EBI_NRD_TYPE, PIN_EBI_NRD_MASK, PIN_EBI_NRD_ATTRI);
  400646:	2301      	movs	r3, #1
  400648:	462a      	mov	r2, r5
  40064a:	f04f 6100 	mov.w	r1, #134217728	; 0x8000000
  40064e:	4630      	mov	r0, r6
  400650:	47b8      	blx	r7
	pio_configure(PIN_EBI_CS_PIO, PIN_EBI_CS_TYPE, PIN_EBI_CS_MASK, PIN_EBI_CS_ATTRI);
  400652:	2301      	movs	r3, #1
  400654:	f44f 2200 	mov.w	r2, #524288	; 0x80000
  400658:	f04f 6100 	mov.w	r1, #134217728	; 0x8000000
  40065c:	4821      	ldr	r0, [pc, #132]	; (4006e4 <board_init+0x2ac>)
  40065e:	47b8      	blx	r7
	pio_configure(PIN_EBI_BACKLIGHT_PIO, PIN_EBI_BACKLIGHT_TYPE, PIN_EBI_BACKLIGHT_MASK, PIN_EBI_BACKLIGHT_ATTRI);
  400660:	2300      	movs	r3, #0
  400662:	f44f 7200 	mov.w	r2, #512	; 0x200
  400666:	f04f 5180 	mov.w	r1, #268435456	; 0x10000000
  40066a:	4630      	mov	r0, r6
  40066c:	47b8      	blx	r7
	pio_set(PIN_EBI_BACKLIGHT_PIO, PIN_EBI_BACKLIGHT_MASK);
  40066e:	f44f 7100 	mov.w	r1, #512	; 0x200
  400672:	4630      	mov	r0, r6
  400674:	4b1c      	ldr	r3, [pc, #112]	; (4006e8 <board_init+0x2b0>)
  400676:	4798      	blx	r3
	MATRIX->CCFG_SMCNFCS = CCFG_SMCNFCS_SDRAMEN;
#endif

#ifdef CONF_BOARD_ILI9488
	/**LCD pin configure on SPI*/
	pio_configure_pin(LCD_SPI_MISO_PIO, LCD_SPI_MISO_FLAGS);
  400678:	f04f 5180 	mov.w	r1, #268435456	; 0x10000000
  40067c:	2074      	movs	r0, #116	; 0x74
  40067e:	4c1b      	ldr	r4, [pc, #108]	; (4006ec <board_init+0x2b4>)
  400680:	47a0      	blx	r4
	pio_configure_pin(LCD_SPI_MOSI_PIO, LCD_SPI_MOSI_FLAGS);
  400682:	f04f 5180 	mov.w	r1, #268435456	; 0x10000000
  400686:	2075      	movs	r0, #117	; 0x75
  400688:	47a0      	blx	r4
	pio_configure_pin(LCD_SPI_SPCK_PIO, LCD_SPI_SPCK_FLAGS);
  40068a:	f04f 5180 	mov.w	r1, #268435456	; 0x10000000
  40068e:	2076      	movs	r0, #118	; 0x76
  400690:	47a0      	blx	r4
	pio_configure_pin(LCD_SPI_NPCS_PIO, LCD_SPI_NPCS_FLAGS);
  400692:	f04f 5180 	mov.w	r1, #268435456	; 0x10000000
  400696:	207b      	movs	r0, #123	; 0x7b
  400698:	47a0      	blx	r4
	pio_configure_pin(LCD_SPI_RESET_PIO, LCD_SPI_RESET_FLAGS);
  40069a:	f04f 5160 	mov.w	r1, #939524096	; 0x38000000
  40069e:	2018      	movs	r0, #24
  4006a0:	47a0      	blx	r4
	pio_configure_pin(LCD_SPI_CDS_PIO, LCD_SPI_CDS_FLAGS);
  4006a2:	f04f 5160 	mov.w	r1, #939524096	; 0x38000000
  4006a6:	2006      	movs	r0, #6
  4006a8:	47a0      	blx	r4
	pio_configure_pin(LCD_SPI_BACKLIGHT_PIO, LCD_SPI_BACKLIGHT_FLAGS);
  4006aa:	f04f 5160 	mov.w	r1, #939524096	; 0x38000000
  4006ae:	2053      	movs	r0, #83	; 0x53
  4006b0:	47a0      	blx	r4
	pio_set_pin_high(LCD_SPI_BACKLIGHT_PIO);
  4006b2:	2053      	movs	r0, #83	; 0x53
  4006b4:	4b0e      	ldr	r3, [pc, #56]	; (4006f0 <board_init+0x2b8>)
  4006b6:	4798      	blx	r3
  4006b8:	e8bd 81f0 	ldmia.w	sp!, {r4, r5, r6, r7, r8, pc}
  4006bc:	400e1850 	.word	0x400e1850
  4006c0:	e000ed00 	.word	0xe000ed00
  4006c4:	400e0c00 	.word	0x400e0c00
  4006c8:	5a00080c 	.word	0x5a00080c
  4006cc:	00401551 	.word	0x00401551
  4006d0:	400e1200 	.word	0x400e1200
  4006d4:	400e0e00 	.word	0x400e0e00
  4006d8:	40088000 	.word	0x40088000
  4006dc:	0040117d 	.word	0x0040117d
  4006e0:	400e1600 	.word	0x400e1600
  4006e4:	400e1400 	.word	0x400e1400
  4006e8:	00401089 	.word	0x00401089
  4006ec:	0040124d 	.word	0x0040124d
  4006f0:	00401215 	.word	0x00401215

004006f4 <ili9488_check_box_coordinates>:
 * \param p_ul_x2 X coordinate of lower-right corner on LCD.
 * \param p_ul_y2 Y coordinate of lower-right corner on LCD.
 */
static void ili9488_check_box_coordinates(uint32_t *p_ul_x1, uint32_t *p_ul_y1,
		uint32_t *p_ul_x2, uint32_t *p_ul_y2)
{
  4006f4:	b430      	push	{r4, r5}
	uint32_t dw;

	if (*p_ul_x1 >= ILI9488_LCD_WIDTH) {
  4006f6:	6804      	ldr	r4, [r0, #0]
  4006f8:	f5b4 7fa0 	cmp.w	r4, #320	; 0x140
  4006fc:	d302      	bcc.n	400704 <ili9488_check_box_coordinates+0x10>
		*p_ul_x1 = ILI9488_LCD_WIDTH - 1;
  4006fe:	f240 143f 	movw	r4, #319	; 0x13f
  400702:	6004      	str	r4, [r0, #0]
	}

	if (*p_ul_x2 >= ILI9488_LCD_WIDTH) {
  400704:	6814      	ldr	r4, [r2, #0]
  400706:	f5b4 7fa0 	cmp.w	r4, #320	; 0x140
  40070a:	d302      	bcc.n	400712 <ili9488_check_box_coordinates+0x1e>
		*p_ul_x2 = ILI9488_LCD_WIDTH - 1;
  40070c:	f240 143f 	movw	r4, #319	; 0x13f
  400710:	6014      	str	r4, [r2, #0]
	}

	if (*p_ul_y1 >= ILI9488_LCD_HEIGHT) {
  400712:	680c      	ldr	r4, [r1, #0]
  400714:	f5b4 7ff0 	cmp.w	r4, #480	; 0x1e0
  400718:	d302      	bcc.n	400720 <ili9488_check_box_coordinates+0x2c>
		*p_ul_y1 = ILI9488_LCD_HEIGHT - 1;
  40071a:	f240 14df 	movw	r4, #479	; 0x1df
  40071e:	600c      	str	r4, [r1, #0]
	}

	if (*p_ul_y2 >= ILI9488_LCD_HEIGHT) {
  400720:	681c      	ldr	r4, [r3, #0]
  400722:	f5b4 7ff0 	cmp.w	r4, #480	; 0x1e0
  400726:	d302      	bcc.n	40072e <ili9488_check_box_coordinates+0x3a>
		*p_ul_y2 = ILI9488_LCD_HEIGHT - 1;
  400728:	f240 14df 	movw	r4, #479	; 0x1df
  40072c:	601c      	str	r4, [r3, #0]
	}

	if (*p_ul_x1 > *p_ul_x2) {
  40072e:	6804      	ldr	r4, [r0, #0]
  400730:	6815      	ldr	r5, [r2, #0]
  400732:	42ac      	cmp	r4, r5
  400734:	d901      	bls.n	40073a <ili9488_check_box_coordinates+0x46>
		dw = *p_ul_x1;
		*p_ul_x1 = *p_ul_x2;
  400736:	6005      	str	r5, [r0, #0]
		*p_ul_x2 = dw;
  400738:	6014      	str	r4, [r2, #0]
	}

	if (*p_ul_y1 > *p_ul_y2) {
  40073a:	680a      	ldr	r2, [r1, #0]
  40073c:	6818      	ldr	r0, [r3, #0]
  40073e:	4282      	cmp	r2, r0
  400740:	d901      	bls.n	400746 <ili9488_check_box_coordinates+0x52>
		dw = *p_ul_y1;
		*p_ul_y1 = *p_ul_y2;
  400742:	6008      	str	r0, [r1, #0]
		*p_ul_y2 = dw;
  400744:	601a      	str	r2, [r3, #0]
	}
}
  400746:	bc30      	pop	{r4, r5}
  400748:	4770      	bx	lr
	...

0040074c <ili9488_write_ram_prepare>:
{
  40074c:	b510      	push	{r4, lr}
  40074e:	b082      	sub	sp, #8
	pio_set_pin_low(LCD_SPI_CDS_PIO);
  400750:	2006      	movs	r0, #6
  400752:	4b0a      	ldr	r3, [pc, #40]	; (40077c <ili9488_write_ram_prepare+0x30>)
  400754:	4798      	blx	r3
	spi_write(BOARD_ILI9488_SPI, ILI9488_CMD_MEMORY_WRITE, BOARD_ILI9488_SPI_NPCS, 0);
  400756:	2300      	movs	r3, #0
  400758:	2203      	movs	r2, #3
  40075a:	212c      	movs	r1, #44	; 0x2c
  40075c:	4808      	ldr	r0, [pc, #32]	; (400780 <ili9488_write_ram_prepare+0x34>)
  40075e:	4c09      	ldr	r4, [pc, #36]	; (400784 <ili9488_write_ram_prepare+0x38>)
  400760:	47a0      	blx	r4
	for(i = 0; i < 0xFF; i++);
  400762:	2300      	movs	r3, #0
  400764:	9301      	str	r3, [sp, #4]
  400766:	9b01      	ldr	r3, [sp, #4]
  400768:	2bfe      	cmp	r3, #254	; 0xfe
  40076a:	d805      	bhi.n	400778 <ili9488_write_ram_prepare+0x2c>
  40076c:	9b01      	ldr	r3, [sp, #4]
  40076e:	3301      	adds	r3, #1
  400770:	9301      	str	r3, [sp, #4]
  400772:	9b01      	ldr	r3, [sp, #4]
  400774:	2bfe      	cmp	r3, #254	; 0xfe
  400776:	d9f9      	bls.n	40076c <ili9488_write_ram_prepare+0x20>
}
  400778:	b002      	add	sp, #8
  40077a:	bd10      	pop	{r4, pc}
  40077c:	00401231 	.word	0x00401231
  400780:	40008000 	.word	0x40008000
  400784:	004015f9 	.word	0x004015f9

00400788 <ili9488_write_register>:
{
  400788:	b570      	push	{r4, r5, r6, lr}
  40078a:	b082      	sub	sp, #8
  40078c:	4605      	mov	r5, r0
  40078e:	460e      	mov	r6, r1
  400790:	4614      	mov	r4, r2
	pio_set_pin_low(LCD_SPI_CDS_PIO);
  400792:	2006      	movs	r0, #6
  400794:	4b14      	ldr	r3, [pc, #80]	; (4007e8 <ili9488_write_register+0x60>)
  400796:	4798      	blx	r3
	spi_write(BOARD_ILI9488_SPI, uc_reg, BOARD_ILI9488_SPI_NPCS, 0);
  400798:	2300      	movs	r3, #0
  40079a:	2203      	movs	r2, #3
  40079c:	4629      	mov	r1, r5
  40079e:	4813      	ldr	r0, [pc, #76]	; (4007ec <ili9488_write_register+0x64>)
  4007a0:	4d13      	ldr	r5, [pc, #76]	; (4007f0 <ili9488_write_register+0x68>)
  4007a2:	47a8      	blx	r5
	for(i = 0; i < 0xFF; i++);
  4007a4:	2300      	movs	r3, #0
  4007a6:	9301      	str	r3, [sp, #4]
  4007a8:	9b01      	ldr	r3, [sp, #4]
  4007aa:	2bfe      	cmp	r3, #254	; 0xfe
  4007ac:	d805      	bhi.n	4007ba <ili9488_write_register+0x32>
  4007ae:	9b01      	ldr	r3, [sp, #4]
  4007b0:	3301      	adds	r3, #1
  4007b2:	9301      	str	r3, [sp, #4]
  4007b4:	9b01      	ldr	r3, [sp, #4]
  4007b6:	2bfe      	cmp	r3, #254	; 0xfe
  4007b8:	d9f9      	bls.n	4007ae <ili9488_write_register+0x26>
	if(size > 0) {
  4007ba:	b90c      	cbnz	r4, 4007c0 <ili9488_write_register+0x38>
}
  4007bc:	b002      	add	sp, #8
  4007be:	bd70      	pop	{r4, r5, r6, pc}
		pio_set_pin_high(LCD_SPI_CDS_PIO);
  4007c0:	2006      	movs	r0, #6
  4007c2:	4b0c      	ldr	r3, [pc, #48]	; (4007f4 <ili9488_write_register+0x6c>)
  4007c4:	4798      	blx	r3
		spi_write_packet(BOARD_ILI9488_SPI, us_data, size);
  4007c6:	4622      	mov	r2, r4
  4007c8:	4631      	mov	r1, r6
  4007ca:	4808      	ldr	r0, [pc, #32]	; (4007ec <ili9488_write_register+0x64>)
  4007cc:	4b0a      	ldr	r3, [pc, #40]	; (4007f8 <ili9488_write_register+0x70>)
  4007ce:	4798      	blx	r3
		for(i = 0; i < 0x5F; i++);
  4007d0:	2300      	movs	r3, #0
  4007d2:	9301      	str	r3, [sp, #4]
  4007d4:	9b01      	ldr	r3, [sp, #4]
  4007d6:	2b5e      	cmp	r3, #94	; 0x5e
  4007d8:	d8f0      	bhi.n	4007bc <ili9488_write_register+0x34>
  4007da:	9b01      	ldr	r3, [sp, #4]
  4007dc:	3301      	adds	r3, #1
  4007de:	9301      	str	r3, [sp, #4]
  4007e0:	9b01      	ldr	r3, [sp, #4]
  4007e2:	2b5e      	cmp	r3, #94	; 0x5e
  4007e4:	d9f9      	bls.n	4007da <ili9488_write_register+0x52>
  4007e6:	e7e9      	b.n	4007bc <ili9488_write_register+0x34>
  4007e8:	00401231 	.word	0x00401231
  4007ec:	40008000 	.word	0x40008000
  4007f0:	004015f9 	.word	0x004015f9
  4007f4:	00401215 	.word	0x00401215
  4007f8:	00400321 	.word	0x00400321

004007fc <ili9488_write_ram_buffer>:
{
  4007fc:	b530      	push	{r4, r5, lr}
  4007fe:	b083      	sub	sp, #12
  400800:	4604      	mov	r4, r0
  400802:	460d      	mov	r5, r1
	pio_set_pin_high(LCD_SPI_CDS_PIO);
  400804:	2006      	movs	r0, #6
  400806:	4b0a      	ldr	r3, [pc, #40]	; (400830 <ili9488_write_ram_buffer+0x34>)
  400808:	4798      	blx	r3
	spi_write_packet(BOARD_ILI9488_SPI, p_ul_buf, ul_size);
  40080a:	462a      	mov	r2, r5
  40080c:	4621      	mov	r1, r4
  40080e:	4809      	ldr	r0, [pc, #36]	; (400834 <ili9488_write_ram_buffer+0x38>)
  400810:	4b09      	ldr	r3, [pc, #36]	; (400838 <ili9488_write_ram_buffer+0x3c>)
  400812:	4798      	blx	r3
	for(i = 0; i < 0xFF; i++);
  400814:	2300      	movs	r3, #0
  400816:	9301      	str	r3, [sp, #4]
  400818:	9b01      	ldr	r3, [sp, #4]
  40081a:	2bfe      	cmp	r3, #254	; 0xfe
  40081c:	d805      	bhi.n	40082a <ili9488_write_ram_buffer+0x2e>
  40081e:	9b01      	ldr	r3, [sp, #4]
  400820:	3301      	adds	r3, #1
  400822:	9301      	str	r3, [sp, #4]
  400824:	9b01      	ldr	r3, [sp, #4]
  400826:	2bfe      	cmp	r3, #254	; 0xfe
  400828:	d9f9      	bls.n	40081e <ili9488_write_ram_buffer+0x22>
}
  40082a:	b003      	add	sp, #12
  40082c:	bd30      	pop	{r4, r5, pc}
  40082e:	bf00      	nop
  400830:	00401215 	.word	0x00401215
  400834:	40008000 	.word	0x40008000
  400838:	00400321 	.word	0x00400321

0040083c <ili9488_delay>:
	for(i = 0; i < ul_ms; i++) {
  40083c:	4601      	mov	r1, r0
  40083e:	b130      	cbz	r0, 40084e <ili9488_delay+0x12>
  400840:	4a03      	ldr	r2, [pc, #12]	; (400850 <ili9488_delay+0x14>)
{
  400842:	4b04      	ldr	r3, [pc, #16]	; (400854 <ili9488_delay+0x18>)
		for(i = 0; i < 100000; i++) {
  400844:	3b01      	subs	r3, #1
  400846:	d1fd      	bne.n	400844 <ili9488_delay+0x8>
	for(i = 0; i < ul_ms; i++) {
  400848:	4291      	cmp	r1, r2
  40084a:	d8fa      	bhi.n	400842 <ili9488_delay+0x6>
  40084c:	4770      	bx	lr
  40084e:	4770      	bx	lr
  400850:	000186a1 	.word	0x000186a1
  400854:	000186a0 	.word	0x000186a0

00400858 <ili9488_set_display_direction>:
 * \brief ILI9488 configure landscape.
 *
 * \Param LandscaprMode Landscape Mode.
 */
void ili9488_set_display_direction(enum ili9488_display_direction direction )
{
  400858:	b500      	push	{lr}
  40085a:	b083      	sub	sp, #12
	ili9488_color_t value;
	if(direction) {
  40085c:	b958      	cbnz	r0, 400876 <ili9488_set_display_direction+0x1e>
		value = 0xE8;
	} else {
		value = 0x48;
  40085e:	2348      	movs	r3, #72	; 0x48
  400860:	f88d 3007 	strb.w	r3, [sp, #7]
	}
	ili9488_write_register(ILI9488_CMD_MEMORY_ACCESS_CONTROL, &value, 1);
  400864:	2201      	movs	r2, #1
  400866:	f10d 0107 	add.w	r1, sp, #7
  40086a:	2036      	movs	r0, #54	; 0x36
  40086c:	4b04      	ldr	r3, [pc, #16]	; (400880 <ili9488_set_display_direction+0x28>)
  40086e:	4798      	blx	r3
}
  400870:	b003      	add	sp, #12
  400872:	f85d fb04 	ldr.w	pc, [sp], #4
		value = 0xE8;
  400876:	23e8      	movs	r3, #232	; 0xe8
  400878:	f88d 3007 	strb.w	r3, [sp, #7]
  40087c:	e7f2      	b.n	400864 <ili9488_set_display_direction+0xc>
  40087e:	bf00      	nop
  400880:	00400789 	.word	0x00400789

00400884 <ili9488_set_window>:
 * \Param y start position.
 * \Param width  Width of window.
 * \Param height Height of window.
 */
void ili9488_set_window(uint16_t x, uint16_t y, uint16_t width, uint16_t height )
{
  400884:	b510      	push	{r4, lr}
  400886:	b084      	sub	sp, #16
	uint32_t cnt = 0;
	ili9488_color_t buf[4];

	cnt = sizeof(buf)/sizeof(ili9488_color_t);

	col_start  =  x ;
  400888:	f8ad 000e 	strh.w	r0, [sp, #14]
	col_end    =  width + x - 1;
  40088c:	3a01      	subs	r2, #1
  40088e:	4402      	add	r2, r0
  400890:	f8ad 200c 	strh.w	r2, [sp, #12]

	row_start = y ;
  400894:	f8ad 100a 	strh.w	r1, [sp, #10]
	row_end   = height + y - 1;
  400898:	3b01      	subs	r3, #1
  40089a:	4419      	add	r1, r3
  40089c:	f8ad 1008 	strh.w	r1, [sp, #8]

	buf[0] = get_8b_to_16b(col_start);
  4008a0:	0a03      	lsrs	r3, r0, #8
  4008a2:	f88d 3004 	strb.w	r3, [sp, #4]
	buf[1] = get_0b_to_8b(col_start);
  4008a6:	f88d 0005 	strb.w	r0, [sp, #5]
	buf[2] = get_8b_to_16b(col_end);
  4008aa:	f3c2 2307 	ubfx	r3, r2, #8, #8
  4008ae:	f88d 3006 	strb.w	r3, [sp, #6]
	buf[3] = get_0b_to_8b(col_end);
  4008b2:	f88d 2007 	strb.w	r2, [sp, #7]
	ili9488_write_register(ILI9488_CMD_COLUMN_ADDRESS_SET, buf, cnt);
  4008b6:	2204      	movs	r2, #4
  4008b8:	eb0d 0102 	add.w	r1, sp, r2
  4008bc:	202a      	movs	r0, #42	; 0x2a
  4008be:	4c10      	ldr	r4, [pc, #64]	; (400900 <ili9488_set_window+0x7c>)
  4008c0:	47a0      	blx	r4
	ili9488_write_register(ILI9488_CMD_NOP, 0, 0);
  4008c2:	2200      	movs	r2, #0
  4008c4:	4611      	mov	r1, r2
  4008c6:	4610      	mov	r0, r2
  4008c8:	47a0      	blx	r4

	/* Set Horizontal Address End Position */
	buf[0] = get_8b_to_16b(row_start);
  4008ca:	f89d 300b 	ldrb.w	r3, [sp, #11]
  4008ce:	f88d 3004 	strb.w	r3, [sp, #4]
	buf[1] = get_0b_to_8b(row_start);
  4008d2:	f89d 300a 	ldrb.w	r3, [sp, #10]
  4008d6:	f88d 3005 	strb.w	r3, [sp, #5]
	buf[2] = get_8b_to_16b(row_end);
  4008da:	f89d 3009 	ldrb.w	r3, [sp, #9]
  4008de:	f88d 3006 	strb.w	r3, [sp, #6]
	buf[3] = get_0b_to_8b(row_end);
  4008e2:	f89d 3008 	ldrb.w	r3, [sp, #8]
  4008e6:	f88d 3007 	strb.w	r3, [sp, #7]
	ili9488_write_register(ILI9488_CMD_PAGE_ADDRESS_SET, buf, cnt);
  4008ea:	2204      	movs	r2, #4
  4008ec:	eb0d 0102 	add.w	r1, sp, r2
  4008f0:	202b      	movs	r0, #43	; 0x2b
  4008f2:	47a0      	blx	r4
	ili9488_write_register(ILI9488_CMD_NOP, 0, 0);
  4008f4:	2200      	movs	r2, #0
  4008f6:	4611      	mov	r1, r2
  4008f8:	4610      	mov	r0, r2
  4008fa:	47a0      	blx	r4
}
  4008fc:	b004      	add	sp, #16
  4008fe:	bd10      	pop	{r4, pc}
  400900:	00400789 	.word	0x00400789

00400904 <ili9488_display_on>:

/**
 * \brief Turn on the LCD.
 */
void ili9488_display_on(void)
{
  400904:	b508      	push	{r3, lr}
	ili9488_write_register(ILI9488_CMD_DISPLAY_ON, 0, 0);
  400906:	2200      	movs	r2, #0
  400908:	4611      	mov	r1, r2
  40090a:	2029      	movs	r0, #41	; 0x29
  40090c:	4b01      	ldr	r3, [pc, #4]	; (400914 <ili9488_display_on+0x10>)
  40090e:	4798      	blx	r3
  400910:	bd08      	pop	{r3, pc}
  400912:	bf00      	nop
  400914:	00400789 	.word	0x00400789

00400918 <ili9488_set_foreground_color>:
 * \brief Set foreground color.
 *
 * \param ul_color foreground color.
 */
void ili9488_set_foreground_color(uint32_t ul_color)
{
  400918:	b410      	push	{r4}
		g_ul_pixel_cache[i] = ul_color;
	}
#endif
#ifdef ILI9488_SPIMODE
	for (i = 0; i < LCD_DATA_CACHE_SIZE * LCD_DATA_COLOR_UNIT; ) {
		g_ul_pixel_cache[i++] = ul_color>>16;
  40091a:	f3c0 4407 	ubfx	r4, r0, #16, #8
		g_ul_pixel_cache[i++] = ul_color>>8;
  40091e:	f3c0 2107 	ubfx	r1, r0, #8, #8
  400922:	4b06      	ldr	r3, [pc, #24]	; (40093c <ili9488_set_foreground_color+0x24>)
  400924:	f503 7270 	add.w	r2, r3, #960	; 0x3c0
		g_ul_pixel_cache[i++] = ul_color>>16;
  400928:	701c      	strb	r4, [r3, #0]
		g_ul_pixel_cache[i++] = ul_color>>8;
  40092a:	7059      	strb	r1, [r3, #1]
		g_ul_pixel_cache[i++] = ul_color&0xFF;
  40092c:	7098      	strb	r0, [r3, #2]
  40092e:	3303      	adds	r3, #3
	for (i = 0; i < LCD_DATA_CACHE_SIZE * LCD_DATA_COLOR_UNIT; ) {
  400930:	4293      	cmp	r3, r2
  400932:	d1f9      	bne.n	400928 <ili9488_set_foreground_color+0x10>
	}
#endif
}
  400934:	f85d 4b04 	ldr.w	r4, [sp], #4
  400938:	4770      	bx	lr
  40093a:	bf00      	nop
  40093c:	204009d4 	.word	0x204009d4

00400940 <ili9488_set_cursor_position>:
 *
 * \param x X coordinate of upper-left corner on LCD.
 * \param y Y coordinate of upper-left corner on LCD.
 */
void ili9488_set_cursor_position(uint16_t x, uint16_t y)
{
  400940:	b510      	push	{r4, lr}
  400942:	b084      	sub	sp, #16
  400944:	f8ad 0006 	strh.w	r0, [sp, #6]
  400948:	f8ad 1004 	strh.w	r1, [sp, #4]
	uint32_t cnt = 0;

	ili9488_color_t buf[4];
	cnt = sizeof(buf)/sizeof(ili9488_color_t);

	buf[0] = get_8b_to_16b(x);
  40094c:	0a03      	lsrs	r3, r0, #8
  40094e:	f88d 300c 	strb.w	r3, [sp, #12]
	buf[1] = get_0b_to_8b(x);
  400952:	b2c0      	uxtb	r0, r0
  400954:	f88d 000d 	strb.w	r0, [sp, #13]
	buf[2] = get_8b_to_16b(x);
  400958:	f88d 300e 	strb.w	r3, [sp, #14]
	buf[3] = get_0b_to_8b(x);
  40095c:	f88d 000f 	strb.w	r0, [sp, #15]
	ili9488_write_register(ILI9488_CMD_COLUMN_ADDRESS_SET, buf, cnt);
  400960:	2204      	movs	r2, #4
  400962:	a903      	add	r1, sp, #12
  400964:	202a      	movs	r0, #42	; 0x2a
  400966:	4c0e      	ldr	r4, [pc, #56]	; (4009a0 <ili9488_set_cursor_position+0x60>)
  400968:	47a0      	blx	r4
	ili9488_write_register(ILI9488_CMD_NOP, 0, 0);
  40096a:	2200      	movs	r2, #0
  40096c:	4611      	mov	r1, r2
  40096e:	4610      	mov	r0, r2
  400970:	47a0      	blx	r4


	/* Set Horizontal Address End Position */
	buf[0] = get_8b_to_16b(y);
  400972:	f89d 2005 	ldrb.w	r2, [sp, #5]
  400976:	f88d 200c 	strb.w	r2, [sp, #12]
	buf[1] = get_0b_to_8b(y);
  40097a:	f89d 3004 	ldrb.w	r3, [sp, #4]
  40097e:	f88d 300d 	strb.w	r3, [sp, #13]
	buf[2] = get_8b_to_16b(y);
  400982:	f88d 200e 	strb.w	r2, [sp, #14]
	buf[3] = get_0b_to_8b(y);
  400986:	f88d 300f 	strb.w	r3, [sp, #15]
	ili9488_write_register(ILI9488_CMD_PAGE_ADDRESS_SET, buf, cnt);
  40098a:	2204      	movs	r2, #4
  40098c:	a903      	add	r1, sp, #12
  40098e:	202b      	movs	r0, #43	; 0x2b
  400990:	47a0      	blx	r4
	ili9488_write_register(ILI9488_CMD_NOP, 0, 0);
  400992:	2200      	movs	r2, #0
  400994:	4611      	mov	r1, r2
  400996:	4610      	mov	r0, r2
  400998:	47a0      	blx	r4
}
  40099a:	b004      	add	sp, #16
  40099c:	bd10      	pop	{r4, pc}
  40099e:	bf00      	nop
  4009a0:	00400789 	.word	0x00400789

004009a4 <ili9488_init>:
{
  4009a4:	e92d 43f0 	stmdb	sp!, {r4, r5, r6, r7, r8, r9, lr}
  4009a8:	b087      	sub	sp, #28
  4009aa:	4681      	mov	r9, r0
	struct spi_device ILI9488_SPI_DEVICE = {
  4009ac:	2703      	movs	r7, #3
  4009ae:	ae06      	add	r6, sp, #24
  4009b0:	f846 7d08 	str.w	r7, [r6, #-8]!
	spi_master_init(BOARD_ILI9488_SPI);
  4009b4:	4d5d      	ldr	r5, [pc, #372]	; (400b2c <ili9488_init+0x188>)
  4009b6:	4628      	mov	r0, r5
  4009b8:	4b5d      	ldr	r3, [pc, #372]	; (400b30 <ili9488_init+0x18c>)
  4009ba:	4798      	blx	r3
	spi_master_setup_device(BOARD_ILI9488_SPI, &ILI9488_SPI_DEVICE, SPI_MODE_3, ILI9488_SPI_BAUDRATE, 0);
  4009bc:	2400      	movs	r4, #0
  4009be:	9400      	str	r4, [sp, #0]
  4009c0:	4b5c      	ldr	r3, [pc, #368]	; (400b34 <ili9488_init+0x190>)
  4009c2:	463a      	mov	r2, r7
  4009c4:	4631      	mov	r1, r6
  4009c6:	4628      	mov	r0, r5
  4009c8:	f8df 8198 	ldr.w	r8, [pc, #408]	; 400b64 <ili9488_init+0x1c0>
  4009cc:	47c0      	blx	r8
	spi_configure_cs_behavior(BOARD_ILI9488_SPI, BOARD_ILI9488_SPI_NPCS, SPI_CS_RISE_NO_TX);
  4009ce:	4622      	mov	r2, r4
  4009d0:	4639      	mov	r1, r7
  4009d2:	4628      	mov	r0, r5
  4009d4:	4b58      	ldr	r3, [pc, #352]	; (400b38 <ili9488_init+0x194>)
  4009d6:	4798      	blx	r3
	spi_select_device(BOARD_ILI9488_SPI, &ILI9488_SPI_DEVICE);
  4009d8:	4631      	mov	r1, r6
  4009da:	4628      	mov	r0, r5
  4009dc:	4b57      	ldr	r3, [pc, #348]	; (400b3c <ili9488_init+0x198>)
  4009de:	4798      	blx	r3
	p_spi->SPI_CR = SPI_CR_SPIEN;
  4009e0:	2001      	movs	r0, #1
  4009e2:	6028      	str	r0, [r5, #0]
 * \param p_spi Pointer to an SPI instance.
 * \param ul_sources Interrupts to be enabled.
 */
static inline void spi_enable_interrupt(Spi *p_spi, uint32_t ul_sources)
{
	p_spi->SPI_IER = ul_sources;
  4009e4:	6168      	str	r0, [r5, #20]
	ili9488_write_register(ILI9488_CMD_SOFTWARE_RESET, 0x0000, 0);
  4009e6:	4622      	mov	r2, r4
  4009e8:	4621      	mov	r1, r4
  4009ea:	4e55      	ldr	r6, [pc, #340]	; (400b40 <ili9488_init+0x19c>)
  4009ec:	47b0      	blx	r6
	ili9488_delay(200);
  4009ee:	20c8      	movs	r0, #200	; 0xc8
  4009f0:	4d54      	ldr	r5, [pc, #336]	; (400b44 <ili9488_init+0x1a0>)
  4009f2:	47a8      	blx	r5
	ili9488_write_register(ILI9488_CMD_SLEEP_OUT, 0x0000, 0);
  4009f4:	4622      	mov	r2, r4
  4009f6:	4621      	mov	r1, r4
  4009f8:	2011      	movs	r0, #17
  4009fa:	47b0      	blx	r6
	ili9488_delay(200);
  4009fc:	20c8      	movs	r0, #200	; 0xc8
  4009fe:	47a8      	blx	r5
	reg = 0x81;
  400a00:	2381      	movs	r3, #129	; 0x81
  400a02:	f88d 300a 	strb.w	r3, [sp, #10]
	param = 0x0;
  400a06:	f88d 400b 	strb.w	r4, [sp, #11]
  400a0a:	2610      	movs	r6, #16
		ili9488_write_register(ILI9488_CMD_SPI_READ_SETTINGS, &reg, 1);
  400a0c:	f04f 0801 	mov.w	r8, #1
  400a10:	4f4b      	ldr	r7, [pc, #300]	; (400b40 <ili9488_init+0x19c>)
		for(j = 0; j < 0xFF; j++);
  400a12:	4625      	mov	r5, r4
		ili9488_write_register(ILI9488_CMD_SPI_READ_SETTINGS, &reg, 1);
  400a14:	4642      	mov	r2, r8
  400a16:	f10d 010a 	add.w	r1, sp, #10
  400a1a:	20fb      	movs	r0, #251	; 0xfb
  400a1c:	47b8      	blx	r7
		reg++;
  400a1e:	f89d 300a 	ldrb.w	r3, [sp, #10]
  400a22:	3301      	adds	r3, #1
  400a24:	f88d 300a 	strb.w	r3, [sp, #10]
		for(j = 0; j < 0xFF; j++);
  400a28:	9503      	str	r5, [sp, #12]
  400a2a:	9b03      	ldr	r3, [sp, #12]
  400a2c:	2bfe      	cmp	r3, #254	; 0xfe
  400a2e:	d805      	bhi.n	400a3c <ili9488_init+0x98>
  400a30:	9b03      	ldr	r3, [sp, #12]
  400a32:	3301      	adds	r3, #1
  400a34:	9303      	str	r3, [sp, #12]
  400a36:	9b03      	ldr	r3, [sp, #12]
  400a38:	2bfe      	cmp	r3, #254	; 0xfe
  400a3a:	d9f9      	bls.n	400a30 <ili9488_init+0x8c>
		ili9488_write_register(ILI9488_CMD_READ_ID4, 0, 0);
  400a3c:	462a      	mov	r2, r5
  400a3e:	4629      	mov	r1, r5
  400a40:	20d3      	movs	r0, #211	; 0xd3
  400a42:	47b8      	blx	r7
			pio_set_pin_high(LCD_SPI_CDS_PIO);
  400a44:	2006      	movs	r0, #6
  400a46:	4b40      	ldr	r3, [pc, #256]	; (400b48 <ili9488_init+0x1a4>)
  400a48:	4798      	blx	r3
			spi_read_packet(BOARD_ILI9488_SPI, &chipidBuf, 1);
  400a4a:	4642      	mov	r2, r8
  400a4c:	f10d 0109 	add.w	r1, sp, #9
  400a50:	4836      	ldr	r0, [pc, #216]	; (400b2c <ili9488_init+0x188>)
  400a52:	4b3e      	ldr	r3, [pc, #248]	; (400b4c <ili9488_init+0x1a8>)
  400a54:	4798      	blx	r3
			for(j = 0; j < 0xFF; j++);
  400a56:	9503      	str	r5, [sp, #12]
  400a58:	9b03      	ldr	r3, [sp, #12]
  400a5a:	2bfe      	cmp	r3, #254	; 0xfe
  400a5c:	d805      	bhi.n	400a6a <ili9488_init+0xc6>
  400a5e:	9b03      	ldr	r3, [sp, #12]
  400a60:	3301      	adds	r3, #1
  400a62:	9303      	str	r3, [sp, #12]
  400a64:	9b03      	ldr	r3, [sp, #12]
  400a66:	2bfe      	cmp	r3, #254	; 0xfe
  400a68:	d9f9      	bls.n	400a5e <ili9488_init+0xba>
		chipid |= (chipidBuf & 0xFF) << ((i - 1) << 3);
  400a6a:	f89d 3009 	ldrb.w	r3, [sp, #9]
  400a6e:	40b3      	lsls	r3, r6
  400a70:	431c      	orrs	r4, r3
		ili9488_write_register(ILI9488_CMD_SPI_READ_SETTINGS, &param, 1);
  400a72:	4642      	mov	r2, r8
  400a74:	f10d 010b 	add.w	r1, sp, #11
  400a78:	20fb      	movs	r0, #251	; 0xfb
  400a7a:	47b8      	blx	r7
		for(j = 0; j < 0xFFF; j++);
  400a7c:	9503      	str	r5, [sp, #12]
  400a7e:	9a03      	ldr	r2, [sp, #12]
  400a80:	f640 73fe 	movw	r3, #4094	; 0xffe
  400a84:	429a      	cmp	r2, r3
  400a86:	d806      	bhi.n	400a96 <ili9488_init+0xf2>
  400a88:	461a      	mov	r2, r3
  400a8a:	9b03      	ldr	r3, [sp, #12]
  400a8c:	3301      	adds	r3, #1
  400a8e:	9303      	str	r3, [sp, #12]
  400a90:	9b03      	ldr	r3, [sp, #12]
  400a92:	4293      	cmp	r3, r2
  400a94:	d9f9      	bls.n	400a8a <ili9488_init+0xe6>
  400a96:	3e08      	subs	r6, #8
	for (i = 3; i > 0; i--) {
  400a98:	f116 0f08 	cmn.w	r6, #8
  400a9c:	d1ba      	bne.n	400a14 <ili9488_init+0x70>
	if (chipid != ILI9488_DEVICE_CODE) {
  400a9e:	f249 4388 	movw	r3, #38024	; 0x9488
  400aa2:	429c      	cmp	r4, r3
  400aa4:	d003      	beq.n	400aae <ili9488_init+0x10a>
		return 1;
  400aa6:	2001      	movs	r0, #1
}
  400aa8:	b007      	add	sp, #28
  400aaa:	e8bd 83f0 	ldmia.w	sp!, {r4, r5, r6, r7, r8, r9, pc}
	param = 0x48;
  400aae:	ad06      	add	r5, sp, #24
  400ab0:	2348      	movs	r3, #72	; 0x48
  400ab2:	f805 3d01 	strb.w	r3, [r5, #-1]!
	ili9488_write_register(ILI9488_CMD_MEMORY_ACCESS_CONTROL, &param, 1);
  400ab6:	2201      	movs	r2, #1
  400ab8:	4629      	mov	r1, r5
  400aba:	2036      	movs	r0, #54	; 0x36
  400abc:	4e20      	ldr	r6, [pc, #128]	; (400b40 <ili9488_init+0x19c>)
  400abe:	47b0      	blx	r6
	ili9488_delay(100);
  400ac0:	2064      	movs	r0, #100	; 0x64
  400ac2:	4c20      	ldr	r4, [pc, #128]	; (400b44 <ili9488_init+0x1a0>)
  400ac4:	47a0      	blx	r4
	param = 0x04;
  400ac6:	2304      	movs	r3, #4
  400ac8:	f88d 3017 	strb.w	r3, [sp, #23]
	ili9488_write_register(ILI9488_CMD_CABC_CONTROL_9, &param, 1);
  400acc:	2201      	movs	r2, #1
  400ace:	4629      	mov	r1, r5
  400ad0:	20cf      	movs	r0, #207	; 0xcf
  400ad2:	47b0      	blx	r6
	ili9488_delay(100);
  400ad4:	2064      	movs	r0, #100	; 0x64
  400ad6:	47a0      	blx	r4
	param = 0x06;
  400ad8:	2306      	movs	r3, #6
  400ada:	f88d 3017 	strb.w	r3, [sp, #23]
	ili9488_write_register(ILI9488_CMD_COLMOD_PIXEL_FORMAT_SET, &param, 1);
  400ade:	2201      	movs	r2, #1
  400ae0:	4629      	mov	r1, r5
  400ae2:	203a      	movs	r0, #58	; 0x3a
  400ae4:	47b0      	blx	r6
	ili9488_delay(100);
  400ae6:	2064      	movs	r0, #100	; 0x64
  400ae8:	47a0      	blx	r4
	ili9488_write_register(ILI9488_CMD_NORMAL_DISP_MODE_ON, 0, 0);
  400aea:	2200      	movs	r2, #0
  400aec:	4611      	mov	r1, r2
  400aee:	2013      	movs	r0, #19
  400af0:	47b0      	blx	r6
	ili9488_delay(100);
  400af2:	2064      	movs	r0, #100	; 0x64
  400af4:	47a0      	blx	r4
	ili9488_display_on();
  400af6:	4b16      	ldr	r3, [pc, #88]	; (400b50 <ili9488_init+0x1ac>)
  400af8:	4798      	blx	r3
	ili9488_delay(100);
  400afa:	2064      	movs	r0, #100	; 0x64
  400afc:	47a0      	blx	r4
	ili9488_set_display_direction(LANDSCAPE);
  400afe:	2000      	movs	r0, #0
  400b00:	4b14      	ldr	r3, [pc, #80]	; (400b54 <ili9488_init+0x1b0>)
  400b02:	4798      	blx	r3
	ili9488_delay(100);
  400b04:	2064      	movs	r0, #100	; 0x64
  400b06:	47a0      	blx	r4
	ili9488_set_window(0, 0,p_opt->ul_width,p_opt->ul_height);
  400b08:	f8b9 3004 	ldrh.w	r3, [r9, #4]
  400b0c:	f8b9 2000 	ldrh.w	r2, [r9]
  400b10:	2100      	movs	r1, #0
  400b12:	4608      	mov	r0, r1
  400b14:	4c10      	ldr	r4, [pc, #64]	; (400b58 <ili9488_init+0x1b4>)
  400b16:	47a0      	blx	r4
	ili9488_set_foreground_color(p_opt->foreground_color);
  400b18:	f8d9 0008 	ldr.w	r0, [r9, #8]
  400b1c:	4b0f      	ldr	r3, [pc, #60]	; (400b5c <ili9488_init+0x1b8>)
  400b1e:	4798      	blx	r3
	ili9488_set_cursor_position(0, 0);
  400b20:	2100      	movs	r1, #0
  400b22:	4608      	mov	r0, r1
  400b24:	4b0e      	ldr	r3, [pc, #56]	; (400b60 <ili9488_init+0x1bc>)
  400b26:	4798      	blx	r3
	return 0;
  400b28:	2000      	movs	r0, #0
  400b2a:	e7bd      	b.n	400aa8 <ili9488_init+0x104>
  400b2c:	40008000 	.word	0x40008000
  400b30:	0040021d 	.word	0x0040021d
  400b34:	01312d00 	.word	0x01312d00
  400b38:	00401669 	.word	0x00401669
  400b3c:	004002f1 	.word	0x004002f1
  400b40:	00400789 	.word	0x00400789
  400b44:	0040083d 	.word	0x0040083d
  400b48:	00401215 	.word	0x00401215
  400b4c:	00400357 	.word	0x00400357
  400b50:	00400905 	.word	0x00400905
  400b54:	00400859 	.word	0x00400859
  400b58:	00400885 	.word	0x00400885
  400b5c:	00400919 	.word	0x00400919
  400b60:	00400941 	.word	0x00400941
  400b64:	00400271 	.word	0x00400271

00400b68 <ili9488_draw_pixel>:
 *
 * \return 0 if succeeds, otherwise fails.
 */
uint32_t ili9488_draw_pixel(uint32_t ul_x, uint32_t ul_y)
{
	if ((ul_x >= ILI9488_LCD_WIDTH) || (ul_y >= ILI9488_LCD_HEIGHT)) {
  400b68:	f5b0 7fa0 	cmp.w	r0, #320	; 0x140
  400b6c:	d20f      	bcs.n	400b8e <ili9488_draw_pixel+0x26>
  400b6e:	f5b1 7ff0 	cmp.w	r1, #480	; 0x1e0
  400b72:	d20c      	bcs.n	400b8e <ili9488_draw_pixel+0x26>
{
  400b74:	b508      	push	{r3, lr}
		return 1;
	}

	/* Set cursor */
	ili9488_set_cursor_position(ul_x, ul_y);
  400b76:	b289      	uxth	r1, r1
  400b78:	b280      	uxth	r0, r0
  400b7a:	4b06      	ldr	r3, [pc, #24]	; (400b94 <ili9488_draw_pixel+0x2c>)
  400b7c:	4798      	blx	r3

	/* Prepare to write in GRAM */
	ili9488_write_ram_prepare();
  400b7e:	4b06      	ldr	r3, [pc, #24]	; (400b98 <ili9488_draw_pixel+0x30>)
  400b80:	4798      	blx	r3
	ili9488_write_ram_buffer(g_ul_pixel_cache, LCD_DATA_COLOR_UNIT);
  400b82:	2103      	movs	r1, #3
  400b84:	4805      	ldr	r0, [pc, #20]	; (400b9c <ili9488_draw_pixel+0x34>)
  400b86:	4b06      	ldr	r3, [pc, #24]	; (400ba0 <ili9488_draw_pixel+0x38>)
  400b88:	4798      	blx	r3
	return 0;
  400b8a:	2000      	movs	r0, #0
  400b8c:	bd08      	pop	{r3, pc}
		return 1;
  400b8e:	2001      	movs	r0, #1
  400b90:	4770      	bx	lr
  400b92:	bf00      	nop
  400b94:	00400941 	.word	0x00400941
  400b98:	0040074d 	.word	0x0040074d
  400b9c:	204009d4 	.word	0x204009d4
  400ba0:	004007fd 	.word	0x004007fd

00400ba4 <ili9488_draw_filled_rectangle>:
 * \param ul_x2 X coordinate of lower-right corner on LCD.
 * \param ul_y2 Y coordinate of lower-right corner on LCD.
 */
void ili9488_draw_filled_rectangle(uint32_t ul_x1, uint32_t ul_y1,
		uint32_t ul_x2, uint32_t ul_y2)
{
  400ba4:	e92d 41f0 	stmdb	sp!, {r4, r5, r6, r7, r8, lr}
  400ba8:	b084      	sub	sp, #16
  400baa:	9003      	str	r0, [sp, #12]
  400bac:	9102      	str	r1, [sp, #8]
  400bae:	9201      	str	r2, [sp, #4]
  400bb0:	aa04      	add	r2, sp, #16
  400bb2:	f842 3d10 	str.w	r3, [r2, #-16]!
	uint32_t size, blocks;

	/* Swap coordinates if necessary */
	ili9488_check_box_coordinates(&ul_x1, &ul_y1, &ul_x2, &ul_y2);
  400bb6:	4613      	mov	r3, r2
  400bb8:	aa01      	add	r2, sp, #4
  400bba:	a902      	add	r1, sp, #8
  400bbc:	a803      	add	r0, sp, #12
  400bbe:	4c22      	ldr	r4, [pc, #136]	; (400c48 <ili9488_draw_filled_rectangle+0xa4>)
  400bc0:	47a0      	blx	r4

	/* Determine the refresh window area */
	ili9488_set_window(ul_x1, ul_y1, (ul_x2 - ul_x1) + 1, (ul_y2 - ul_y1) + 1);
  400bc2:	f8bd 000c 	ldrh.w	r0, [sp, #12]
  400bc6:	f8bd 1008 	ldrh.w	r1, [sp, #8]
  400bca:	9b00      	ldr	r3, [sp, #0]
  400bcc:	3301      	adds	r3, #1
  400bce:	1a5b      	subs	r3, r3, r1
  400bd0:	9a01      	ldr	r2, [sp, #4]
  400bd2:	3201      	adds	r2, #1
  400bd4:	1a12      	subs	r2, r2, r0
  400bd6:	b29b      	uxth	r3, r3
  400bd8:	b292      	uxth	r2, r2
  400bda:	4c1c      	ldr	r4, [pc, #112]	; (400c4c <ili9488_draw_filled_rectangle+0xa8>)
  400bdc:	47a0      	blx	r4

	/* Prepare to write in GRAM */
	ili9488_write_ram_prepare();
  400bde:	4b1c      	ldr	r3, [pc, #112]	; (400c50 <ili9488_draw_filled_rectangle+0xac>)
  400be0:	4798      	blx	r3

	size = (ul_x2 - ul_x1 + 1) * (ul_y2 - ul_y1 + 1);
  400be2:	9903      	ldr	r1, [sp, #12]
  400be4:	9d01      	ldr	r5, [sp, #4]
  400be6:	1a69      	subs	r1, r5, r1
  400be8:	9d00      	ldr	r5, [sp, #0]
  400bea:	3501      	adds	r5, #1
  400bec:	9b02      	ldr	r3, [sp, #8]
  400bee:	1aed      	subs	r5, r5, r3
  400bf0:	fb01 5505 	mla	r5, r1, r5, r5
	/* Send pixels blocks => one SPI IT / block */
	blocks = size / LCD_DATA_CACHE_SIZE;
  400bf4:	4b17      	ldr	r3, [pc, #92]	; (400c54 <ili9488_draw_filled_rectangle+0xb0>)
  400bf6:	fba3 2305 	umull	r2, r3, r3, r5
  400bfa:	0a1b      	lsrs	r3, r3, #8
	while (blocks--) {
  400bfc:	b163      	cbz	r3, 400c18 <ili9488_draw_filled_rectangle+0x74>
  400bfe:	1e5c      	subs	r4, r3, #1
		ili9488_write_ram_buffer(g_ul_pixel_cache, LCD_DATA_CACHE_SIZE * LCD_DATA_COLOR_UNIT);
  400c00:	f8df 8058 	ldr.w	r8, [pc, #88]	; 400c5c <ili9488_draw_filled_rectangle+0xb8>
  400c04:	f44f 7770 	mov.w	r7, #960	; 0x3c0
  400c08:	4e13      	ldr	r6, [pc, #76]	; (400c58 <ili9488_draw_filled_rectangle+0xb4>)
  400c0a:	4639      	mov	r1, r7
  400c0c:	4640      	mov	r0, r8
  400c0e:	47b0      	blx	r6
	while (blocks--) {
  400c10:	3c01      	subs	r4, #1
  400c12:	f1b4 3fff 	cmp.w	r4, #4294967295
  400c16:	d1f8      	bne.n	400c0a <ili9488_draw_filled_rectangle+0x66>
	}

	/* Send remaining pixels */
	ili9488_write_ram_buffer(g_ul_pixel_cache, (size % LCD_DATA_CACHE_SIZE) * LCD_DATA_COLOR_UNIT);
  400c18:	490e      	ldr	r1, [pc, #56]	; (400c54 <ili9488_draw_filled_rectangle+0xb0>)
  400c1a:	fba1 3105 	umull	r3, r1, r1, r5
  400c1e:	0a09      	lsrs	r1, r1, #8
  400c20:	eb01 0181 	add.w	r1, r1, r1, lsl #2
  400c24:	eba5 1181 	sub.w	r1, r5, r1, lsl #6
  400c28:	eb01 0141 	add.w	r1, r1, r1, lsl #1
  400c2c:	480b      	ldr	r0, [pc, #44]	; (400c5c <ili9488_draw_filled_rectangle+0xb8>)
  400c2e:	4b0a      	ldr	r3, [pc, #40]	; (400c58 <ili9488_draw_filled_rectangle+0xb4>)
  400c30:	4798      	blx	r3

	/* Reset the refresh window area */
	ili9488_set_window(0, 0, ILI9488_LCD_WIDTH, ILI9488_LCD_HEIGHT);
  400c32:	f44f 73f0 	mov.w	r3, #480	; 0x1e0
  400c36:	f44f 72a0 	mov.w	r2, #320	; 0x140
  400c3a:	2100      	movs	r1, #0
  400c3c:	4608      	mov	r0, r1
  400c3e:	4c03      	ldr	r4, [pc, #12]	; (400c4c <ili9488_draw_filled_rectangle+0xa8>)
  400c40:	47a0      	blx	r4

}
  400c42:	b004      	add	sp, #16
  400c44:	e8bd 81f0 	ldmia.w	sp!, {r4, r5, r6, r7, r8, pc}
  400c48:	004006f5 	.word	0x004006f5
  400c4c:	00400885 	.word	0x00400885
  400c50:	0040074d 	.word	0x0040074d
  400c54:	cccccccd 	.word	0xcccccccd
  400c58:	004007fd 	.word	0x004007fd
  400c5c:	204009d4 	.word	0x204009d4

00400c60 <ili9488_draw_string>:
 * \param ul_x X coordinate of string top-left corner.
 * \param ul_y Y coordinate of string top-left corner.
 * \param p_str String to display.
 */
void ili9488_draw_string(uint32_t ul_x, uint32_t ul_y, const uint8_t *p_str)
{
  400c60:	e92d 4ff0 	stmdb	sp!, {r4, r5, r6, r7, r8, r9, sl, fp, lr}
  400c64:	b085      	sub	sp, #20
  400c66:	9003      	str	r0, [sp, #12]
  400c68:	9202      	str	r2, [sp, #8]
	uint32_t xorg = ul_x;

	while (*p_str != 0) {
  400c6a:	7813      	ldrb	r3, [r2, #0]
  400c6c:	2b00      	cmp	r3, #0
  400c6e:	d048      	beq.n	400d02 <ili9488_draw_string+0xa2>
  400c70:	468b      	mov	fp, r1
  400c72:	9001      	str	r0, [sp, #4]
				ili9488_draw_pixel(ul_x + col, ul_y + row);
  400c74:	f8df 8094 	ldr.w	r8, [pc, #148]	; 400d0c <ili9488_draw_string+0xac>
  400c78:	e033      	b.n	400ce2 <ili9488_draw_string+0x82>
		/* If newline, jump to the next line (font height + 2) */
		if (*p_str == '\n') {
			ul_y += gfont.height + 2;
  400c7a:	f10b 0b10 	add.w	fp, fp, #16
			ul_x = xorg;
  400c7e:	9b03      	ldr	r3, [sp, #12]
  400c80:	9301      	str	r3, [sp, #4]
  400c82:	e029      	b.n	400cd8 <ili9488_draw_string+0x78>
  400c84:	3c01      	subs	r4, #1
		for (row = 0; row < 8; row++) {
  400c86:	f1b4 3fff 	cmp.w	r4, #4294967295
  400c8a:	d009      	beq.n	400ca0 <ili9488_draw_string+0x40>
			if ((p_uc_charset10x14[offset0] >> (7 - row)) & 0x1) {
  400c8c:	782b      	ldrb	r3, [r5, #0]
  400c8e:	4123      	asrs	r3, r4
  400c90:	f013 0f01 	tst.w	r3, #1
  400c94:	d0f6      	beq.n	400c84 <ili9488_draw_string+0x24>
				ili9488_draw_pixel(ul_x + col, ul_y + row);
  400c96:	ebaa 0104 	sub.w	r1, sl, r4
  400c9a:	4630      	mov	r0, r6
  400c9c:	47c0      	blx	r8
  400c9e:	e7f1      	b.n	400c84 <ili9488_draw_string+0x24>
		for (row = 0; row < 8; row++) {
  400ca0:	2407      	movs	r4, #7
				ili9488_draw_pixel(ul_x + col, ul_y + row + 8);
  400ca2:	f10b 090f 	add.w	r9, fp, #15
  400ca6:	e002      	b.n	400cae <ili9488_draw_string+0x4e>
  400ca8:	3c01      	subs	r4, #1
		for (row = 0; row < 6; row++) {
  400caa:	2c01      	cmp	r4, #1
  400cac:	d009      	beq.n	400cc2 <ili9488_draw_string+0x62>
			if ((p_uc_charset10x14[offset1] >> (7 - row)) & 0x1) {
  400cae:	787b      	ldrb	r3, [r7, #1]
  400cb0:	4123      	asrs	r3, r4
  400cb2:	f013 0f01 	tst.w	r3, #1
  400cb6:	d0f7      	beq.n	400ca8 <ili9488_draw_string+0x48>
				ili9488_draw_pixel(ul_x + col, ul_y + row + 8);
  400cb8:	eba9 0104 	sub.w	r1, r9, r4
  400cbc:	4630      	mov	r0, r6
  400cbe:	47c0      	blx	r8
  400cc0:	e7f2      	b.n	400ca8 <ili9488_draw_string+0x48>
  400cc2:	3502      	adds	r5, #2
  400cc4:	3601      	adds	r6, #1
	for (col = 0; col < 10; col++) {
  400cc6:	9b00      	ldr	r3, [sp, #0]
  400cc8:	42b3      	cmp	r3, r6
  400cca:	d002      	beq.n	400cd2 <ili9488_draw_string+0x72>
	offset = ((uint32_t)uc_c - 0x20) * 20;
  400ccc:	2407      	movs	r4, #7
  400cce:	462f      	mov	r7, r5
  400cd0:	e7dc      	b.n	400c8c <ili9488_draw_string+0x2c>
		} else {
			/* Draw the character and place cursor right after (font width + 2) */
			ili9488_draw_char(ul_x, ul_y, *p_str);
			ul_x += gfont.width + 2;
  400cd2:	9b01      	ldr	r3, [sp, #4]
  400cd4:	330c      	adds	r3, #12
  400cd6:	9301      	str	r3, [sp, #4]
	while (*p_str != 0) {
  400cd8:	9a02      	ldr	r2, [sp, #8]
  400cda:	f812 3f01 	ldrb.w	r3, [r2, #1]!
  400cde:	9202      	str	r2, [sp, #8]
  400ce0:	b17b      	cbz	r3, 400d02 <ili9488_draw_string+0xa2>
		if (*p_str == '\n') {
  400ce2:	2b0a      	cmp	r3, #10
  400ce4:	d0c9      	beq.n	400c7a <ili9488_draw_string+0x1a>
	offset = ((uint32_t)uc_c - 0x20) * 20;
  400ce6:	eb03 0383 	add.w	r3, r3, r3, lsl #2
  400cea:	4d07      	ldr	r5, [pc, #28]	; (400d08 <ili9488_draw_string+0xa8>)
  400cec:	eb05 0383 	add.w	r3, r5, r3, lsl #2
  400cf0:	f5a3 7520 	sub.w	r5, r3, #640	; 0x280
  400cf4:	9e01      	ldr	r6, [sp, #4]
  400cf6:	4633      	mov	r3, r6
  400cf8:	330a      	adds	r3, #10
  400cfa:	9300      	str	r3, [sp, #0]
				ili9488_draw_pixel(ul_x + col, ul_y + row);
  400cfc:	f10b 0a07 	add.w	sl, fp, #7
  400d00:	e7e4      	b.n	400ccc <ili9488_draw_string+0x6c>
		}
		p_str++;
	}
}
  400d02:	b005      	add	sp, #20
  400d04:	e8bd 8ff0 	ldmia.w	sp!, {r4, r5, r6, r7, r8, r9, sl, fp, pc}
  400d08:	004088b4 	.word	0x004088b4
  400d0c:	00400b69 	.word	0x00400b69

00400d10 <ili9488_draw_pixmap>:
 * \param ul_height height of the picture.
 * \param p_ul_pixmap pixmap of the image.
 */
void ili9488_draw_pixmap(uint32_t ul_x, uint32_t ul_y, uint32_t ul_width,
		uint32_t ul_height, const ili9488_color_t *p_ul_pixmap)
{
  400d10:	b510      	push	{r4, lr}
  400d12:	b084      	sub	sp, #16
	uint32_t size;
	uint32_t dwX1, dwY1, dwX2, dwY2;
	dwX1 = ul_x;
  400d14:	9003      	str	r0, [sp, #12]
	dwY1 = ul_y;
  400d16:	9102      	str	r1, [sp, #8]
	dwX2 = ul_x + ul_width - 1;
  400d18:	3a01      	subs	r2, #1
  400d1a:	4410      	add	r0, r2
  400d1c:	9001      	str	r0, [sp, #4]
	dwY2 = ul_y + ul_height - 1;
  400d1e:	3b01      	subs	r3, #1
  400d20:	4419      	add	r1, r3
  400d22:	ab04      	add	r3, sp, #16
  400d24:	f843 1d10 	str.w	r1, [r3, #-16]!

	/* Swap coordinates if necessary */
	ili9488_check_box_coordinates(&dwX1, &dwY1, &dwX2, &dwY2);
  400d28:	aa01      	add	r2, sp, #4
  400d2a:	a902      	add	r1, sp, #8
  400d2c:	a803      	add	r0, sp, #12
  400d2e:	4c13      	ldr	r4, [pc, #76]	; (400d7c <ili9488_draw_pixmap+0x6c>)
  400d30:	47a0      	blx	r4

	/* Determine the refresh window area */
	ili9488_set_window(dwX1, dwY1, (dwX2 - dwX1 + 1), (dwY2 - dwY1 + 1));
  400d32:	f8bd 000c 	ldrh.w	r0, [sp, #12]
  400d36:	f8bd 1008 	ldrh.w	r1, [sp, #8]
  400d3a:	9b00      	ldr	r3, [sp, #0]
  400d3c:	3301      	adds	r3, #1
  400d3e:	1a5b      	subs	r3, r3, r1
  400d40:	9a01      	ldr	r2, [sp, #4]
  400d42:	3201      	adds	r2, #1
  400d44:	1a12      	subs	r2, r2, r0
  400d46:	b29b      	uxth	r3, r3
  400d48:	b292      	uxth	r2, r2
  400d4a:	4c0d      	ldr	r4, [pc, #52]	; (400d80 <ili9488_draw_pixmap+0x70>)
  400d4c:	47a0      	blx	r4

	size = (dwX2 - dwX1) * (dwY2 - dwY1);
  400d4e:	9903      	ldr	r1, [sp, #12]
  400d50:	9a01      	ldr	r2, [sp, #4]
  400d52:	1a51      	subs	r1, r2, r1
  400d54:	9a02      	ldr	r2, [sp, #8]
  400d56:	9b00      	ldr	r3, [sp, #0]
  400d58:	1a9a      	subs	r2, r3, r2
  400d5a:	fb02 f201 	mul.w	r2, r2, r1

	ili9488_write_register(ILI9488_CMD_MEMORY_WRITE, p_ul_pixmap, size * LCD_DATA_COLOR_UNIT);
  400d5e:	eb02 0242 	add.w	r2, r2, r2, lsl #1
  400d62:	9906      	ldr	r1, [sp, #24]
  400d64:	202c      	movs	r0, #44	; 0x2c
  400d66:	4b07      	ldr	r3, [pc, #28]	; (400d84 <ili9488_draw_pixmap+0x74>)
  400d68:	4798      	blx	r3

	/* Reset the refresh window area */
	ili9488_set_window(0, 0, ILI9488_LCD_WIDTH, ILI9488_LCD_HEIGHT);
  400d6a:	f44f 73f0 	mov.w	r3, #480	; 0x1e0
  400d6e:	f44f 72a0 	mov.w	r2, #320	; 0x140
  400d72:	2100      	movs	r1, #0
  400d74:	4608      	mov	r0, r1
  400d76:	47a0      	blx	r4
}
  400d78:	b004      	add	sp, #16
  400d7a:	bd10      	pop	{r4, pc}
  400d7c:	004006f5 	.word	0x004006f5
  400d80:	00400885 	.word	0x00400885
  400d84:	00400789 	.word	0x00400789

00400d88 <afec_process_callback>:
 * \brief Call the callback function if the corresponding interrupt is asserted
 *
 * \param afec  Base address of the AFEC.
 */
static void afec_process_callback(Afec *const afec)
{
  400d88:	b570      	push	{r4, r5, r6, lr}
  400d8a:	b082      	sub	sp, #8
 *
 * \return The interrupt status value.
 */
static inline uint32_t afec_get_interrupt_status(Afec *const afec)
{
	return afec->AFEC_ISR;
  400d8c:	6b02      	ldr	r2, [r0, #48]	; 0x30
 *
 * \return The interrupt mask value.
 */
static inline uint32_t afec_get_interrupt_mask(Afec *const afec)
{
	return afec->AFEC_IMR;
  400d8e:	6ac3      	ldr	r3, [r0, #44]	; 0x2c
	volatile uint32_t status;
	uint32_t cnt, inst_num;

	status = afec_get_interrupt_status(afec) & afec_get_interrupt_mask(afec);
  400d90:	4013      	ands	r3, r2
  400d92:	9301      	str	r3, [sp, #4]
	inst_num = afec_find_inst_num(afec);

	for (cnt = 0; cnt < _AFEC_NUM_OF_INTERRUPT_SOURCE; cnt++) {
  400d94:	2400      	movs	r4, #0
	if (afec_callback_pointer[inst_num][source]) {
  400d96:	4e1c      	ldr	r6, [pc, #112]	; (400e08 <afec_process_callback+0x80>)
  400d98:	4d1c      	ldr	r5, [pc, #112]	; (400e0c <afec_process_callback+0x84>)
  400d9a:	42a8      	cmp	r0, r5
  400d9c:	bf14      	ite	ne
  400d9e:	2000      	movne	r0, #0
  400da0:	2001      	moveq	r0, #1
  400da2:	0105      	lsls	r5, r0, #4
  400da4:	e00b      	b.n	400dbe <afec_process_callback+0x36>
		#elif defined __SAM4E8E__  || defined __SAM4E16E__ || SAMV71 || SAMV70 || SAMS70 || SAME70
			if (status & (1 << cnt)) {
				afec_interrupt(inst_num, (enum afec_interrupt_source)cnt);
			}
		#endif
		} else if (cnt < AFEC_INTERRUPT_TEMP_CHANGE) {
  400da6:	2c0e      	cmp	r4, #14
  400da8:	d81e      	bhi.n	400de8 <afec_process_callback+0x60>
			if (status & (1 << (cnt + AFEC_INTERRUPT_GAP1))) {
  400daa:	9a01      	ldr	r2, [sp, #4]
  400dac:	f104 010c 	add.w	r1, r4, #12
  400db0:	2301      	movs	r3, #1
  400db2:	408b      	lsls	r3, r1
  400db4:	4213      	tst	r3, r2
  400db6:	d110      	bne.n	400dda <afec_process_callback+0x52>
	for (cnt = 0; cnt < _AFEC_NUM_OF_INTERRUPT_SOURCE; cnt++) {
  400db8:	3401      	adds	r4, #1
  400dba:	2c10      	cmp	r4, #16
  400dbc:	d022      	beq.n	400e04 <afec_process_callback+0x7c>
		if (cnt < AFEC_INTERRUPT_DATA_READY) {
  400dbe:	2c0b      	cmp	r4, #11
  400dc0:	d8f1      	bhi.n	400da6 <afec_process_callback+0x1e>
			if (status & (1 << cnt)) {
  400dc2:	9a01      	ldr	r2, [sp, #4]
  400dc4:	2301      	movs	r3, #1
  400dc6:	40a3      	lsls	r3, r4
  400dc8:	4213      	tst	r3, r2
  400dca:	d0f5      	beq.n	400db8 <afec_process_callback+0x30>
	if (afec_callback_pointer[inst_num][source]) {
  400dcc:	192b      	adds	r3, r5, r4
  400dce:	f856 3023 	ldr.w	r3, [r6, r3, lsl #2]
  400dd2:	2b00      	cmp	r3, #0
  400dd4:	d0f0      	beq.n	400db8 <afec_process_callback+0x30>
		afec_callback_pointer[inst_num][source]();
  400dd6:	4798      	blx	r3
  400dd8:	e7ee      	b.n	400db8 <afec_process_callback+0x30>
	if (afec_callback_pointer[inst_num][source]) {
  400dda:	192b      	adds	r3, r5, r4
  400ddc:	f856 3023 	ldr.w	r3, [r6, r3, lsl #2]
  400de0:	2b00      	cmp	r3, #0
  400de2:	d0e9      	beq.n	400db8 <afec_process_callback+0x30>
		afec_callback_pointer[inst_num][source]();
  400de4:	4798      	blx	r3
  400de6:	e7e7      	b.n	400db8 <afec_process_callback+0x30>
				afec_interrupt(inst_num, (enum afec_interrupt_source)cnt);
			}
		} else {
			if (status & (1 << (cnt + AFEC_INTERRUPT_GAP1 + AFEC_INTERRUPT_GAP2))) {
  400de8:	9a01      	ldr	r2, [sp, #4]
  400dea:	f104 010f 	add.w	r1, r4, #15
  400dee:	2301      	movs	r3, #1
  400df0:	408b      	lsls	r3, r1
  400df2:	4213      	tst	r3, r2
  400df4:	d0e0      	beq.n	400db8 <afec_process_callback+0x30>
	if (afec_callback_pointer[inst_num][source]) {
  400df6:	192b      	adds	r3, r5, r4
  400df8:	f856 3023 	ldr.w	r3, [r6, r3, lsl #2]
  400dfc:	2b00      	cmp	r3, #0
  400dfe:	d0db      	beq.n	400db8 <afec_process_callback+0x30>
		afec_callback_pointer[inst_num][source]();
  400e00:	4798      	blx	r3
  400e02:	e7d9      	b.n	400db8 <afec_process_callback+0x30>
				afec_interrupt(inst_num, (enum afec_interrupt_source)cnt);
			}
		}
	}
}
  400e04:	b002      	add	sp, #8
  400e06:	bd70      	pop	{r4, r5, r6, pc}
  400e08:	20400ee8 	.word	0x20400ee8
  400e0c:	40064000 	.word	0x40064000

00400e10 <afec_ch_set_config>:
{
  400e10:	b430      	push	{r4, r5}
	reg = afec->AFEC_DIFFR;
  400e12:	6e04      	ldr	r4, [r0, #96]	; 0x60
	reg &= ~(0x1u << channel);
  400e14:	2301      	movs	r3, #1
  400e16:	408b      	lsls	r3, r1
  400e18:	ea24 0403 	bic.w	r4, r4, r3
	reg |= (config->diff) ? (0x1u << channel) : 0;
  400e1c:	7815      	ldrb	r5, [r2, #0]
  400e1e:	2d00      	cmp	r5, #0
  400e20:	bf08      	it	eq
  400e22:	2300      	moveq	r3, #0
  400e24:	4323      	orrs	r3, r4
	afec->AFEC_DIFFR = reg;
  400e26:	6603      	str	r3, [r0, #96]	; 0x60
	reg = afec->AFEC_CGR;
  400e28:	6d44      	ldr	r4, [r0, #84]	; 0x54
	reg &= ~(0x03u << (2 * channel));
  400e2a:	004b      	lsls	r3, r1, #1
  400e2c:	2103      	movs	r1, #3
  400e2e:	4099      	lsls	r1, r3
  400e30:	ea24 0401 	bic.w	r4, r4, r1
	reg |= (config->gain) << (2 * channel);
  400e34:	7851      	ldrb	r1, [r2, #1]
  400e36:	4099      	lsls	r1, r3
  400e38:	4321      	orrs	r1, r4
	afec->AFEC_CGR = reg;
  400e3a:	6541      	str	r1, [r0, #84]	; 0x54
}
  400e3c:	bc30      	pop	{r4, r5}
  400e3e:	4770      	bx	lr

00400e40 <afec_temp_sensor_set_config>:
	reg = ((config->rctc) ? AFEC_TEMPMR_RTCT : 0) | (config->mode);
  400e40:	784b      	ldrb	r3, [r1, #1]
  400e42:	780a      	ldrb	r2, [r1, #0]
  400e44:	4313      	orrs	r3, r2
	afec->AFEC_TEMPMR = reg;
  400e46:	6703      	str	r3, [r0, #112]	; 0x70
			AFEC_TEMPCWR_THIGHTHRES(config->high_threshold);
  400e48:	888a      	ldrh	r2, [r1, #4]
	afec->AFEC_TEMPCWR = AFEC_TEMPCWR_TLOWTHRES(config->low_threshold) |
  400e4a:	884b      	ldrh	r3, [r1, #2]
  400e4c:	ea43 4302 	orr.w	r3, r3, r2, lsl #16
  400e50:	6743      	str	r3, [r0, #116]	; 0x74
  400e52:	4770      	bx	lr

00400e54 <afec_get_config_defaults>:
	cfg->resolution = AFEC_12_BITS;
  400e54:	2200      	movs	r2, #0
  400e56:	6002      	str	r2, [r0, #0]
	cfg->mck = sysclk_get_cpu_hz();
  400e58:	4b08      	ldr	r3, [pc, #32]	; (400e7c <afec_get_config_defaults+0x28>)
  400e5a:	6043      	str	r3, [r0, #4]
		cfg->afec_clock = 6000000UL;
  400e5c:	4b08      	ldr	r3, [pc, #32]	; (400e80 <afec_get_config_defaults+0x2c>)
  400e5e:	6083      	str	r3, [r0, #8]
		cfg->startup_time = AFEC_STARTUP_TIME_4;
  400e60:	f44f 2380 	mov.w	r3, #262144	; 0x40000
  400e64:	60c3      	str	r3, [r0, #12]
		cfg->tracktim = 2;
  400e66:	2302      	movs	r3, #2
  400e68:	7403      	strb	r3, [r0, #16]
		cfg->transfer = 1;
  400e6a:	2301      	movs	r3, #1
  400e6c:	7443      	strb	r3, [r0, #17]
		cfg->anach = true;
  400e6e:	7483      	strb	r3, [r0, #18]
		cfg->useq = false;
  400e70:	74c2      	strb	r2, [r0, #19]
		cfg->tag = true;
  400e72:	7503      	strb	r3, [r0, #20]
		cfg->stm = true;
  400e74:	7543      	strb	r3, [r0, #21]
		cfg->ibctl = 1;
  400e76:	7583      	strb	r3, [r0, #22]
  400e78:	4770      	bx	lr
  400e7a:	bf00      	nop
  400e7c:	11e1a300 	.word	0x11e1a300
  400e80:	005b8d80 	.word	0x005b8d80

00400e84 <afec_ch_get_config_defaults>:
	cfg->diff = false;
  400e84:	2300      	movs	r3, #0
  400e86:	7003      	strb	r3, [r0, #0]
   	cfg->gain = AFEC_GAINVALUE_1;
  400e88:	2301      	movs	r3, #1
  400e8a:	7043      	strb	r3, [r0, #1]
  400e8c:	4770      	bx	lr

00400e8e <afec_temp_sensor_get_config_defaults>:
	cfg->rctc = false;
  400e8e:	2300      	movs	r3, #0
  400e90:	7003      	strb	r3, [r0, #0]
	cfg->mode= AFEC_TEMP_CMP_MODE_2;
  400e92:	2320      	movs	r3, #32
  400e94:	7043      	strb	r3, [r0, #1]
	cfg->low_threshold= 0xFF;
  400e96:	23ff      	movs	r3, #255	; 0xff
  400e98:	8043      	strh	r3, [r0, #2]
	cfg->high_threshold= 0xFFF;
  400e9a:	f640 73ff 	movw	r3, #4095	; 0xfff
  400e9e:	8083      	strh	r3, [r0, #4]
  400ea0:	4770      	bx	lr
	...

00400ea4 <afec_init>:
	return afec->AFEC_ISR;
  400ea4:	6b02      	ldr	r2, [r0, #48]	; 0x30
	if ((afec_get_interrupt_status(afec) & AFEC_ISR_DRDY) == AFEC_ISR_DRDY) {
  400ea6:	f012 7280 	ands.w	r2, r2, #16777216	; 0x1000000
  400eaa:	d001      	beq.n	400eb0 <afec_init+0xc>
		return STATUS_ERR_BUSY;
  400eac:	2019      	movs	r0, #25
  400eae:	4770      	bx	lr
{
  400eb0:	b410      	push	{r4}
	afec->AFEC_CR = AFEC_CR_SWRST;
  400eb2:	2301      	movs	r3, #1
  400eb4:	6003      	str	r3, [r0, #0]
	reg = (config->useq ? AFEC_MR_USEQ_REG_ORDER : 0) |
  400eb6:	7ccb      	ldrb	r3, [r1, #19]
  400eb8:	2b00      	cmp	r3, #0
  400eba:	bf18      	it	ne
  400ebc:	f04f 4200 	movne.w	r2, #2147483648	; 0x80000000
			AFEC_MR_PRESCAL((config->mck / config->afec_clock )- 1) |
  400ec0:	684b      	ldr	r3, [r1, #4]
  400ec2:	688c      	ldr	r4, [r1, #8]
  400ec4:	fbb3 f3f4 	udiv	r3, r3, r4
  400ec8:	3b01      	subs	r3, #1
  400eca:	021b      	lsls	r3, r3, #8
  400ecc:	b29b      	uxth	r3, r3
	reg = (config->useq ? AFEC_MR_USEQ_REG_ORDER : 0) |
  400ece:	68cc      	ldr	r4, [r1, #12]
  400ed0:	f444 0400 	orr.w	r4, r4, #8388608	; 0x800000
  400ed4:	4323      	orrs	r3, r4
			AFEC_MR_TRACKTIM(config->tracktim) |
  400ed6:	7c0c      	ldrb	r4, [r1, #16]
  400ed8:	0624      	lsls	r4, r4, #24
  400eda:	f004 6470 	and.w	r4, r4, #251658240	; 0xf000000
	reg = (config->useq ? AFEC_MR_USEQ_REG_ORDER : 0) |
  400ede:	4323      	orrs	r3, r4
			AFEC_MR_TRANSFER(config->transfer) |
  400ee0:	7c4c      	ldrb	r4, [r1, #17]
  400ee2:	0724      	lsls	r4, r4, #28
  400ee4:	f004 5440 	and.w	r4, r4, #805306368	; 0x30000000
	reg = (config->useq ? AFEC_MR_USEQ_REG_ORDER : 0) |
  400ee8:	4323      	orrs	r3, r4
  400eea:	4313      	orrs	r3, r2
	afec->AFEC_MR = reg;
  400eec:	6043      	str	r3, [r0, #4]
	afec->AFEC_EMR = (config->tag ? AFEC_EMR_TAG : 0) |
  400eee:	7d0b      	ldrb	r3, [r1, #20]
  400ef0:	2b00      	cmp	r3, #0
  400ef2:	bf14      	ite	ne
  400ef4:	f04f 7380 	movne.w	r3, #16777216	; 0x1000000
  400ef8:	2300      	moveq	r3, #0
  400efa:	680a      	ldr	r2, [r1, #0]
  400efc:	4313      	orrs	r3, r2
			(config->stm ? AFEC_EMR_STM : 0);
  400efe:	7d4a      	ldrb	r2, [r1, #21]
  400f00:	2a00      	cmp	r2, #0
  400f02:	bf14      	ite	ne
  400f04:	f04f 7200 	movne.w	r2, #33554432	; 0x2000000
  400f08:	2200      	moveq	r2, #0
			(config->resolution) |
  400f0a:	4313      	orrs	r3, r2
	afec->AFEC_EMR = (config->tag ? AFEC_EMR_TAG : 0) |
  400f0c:	6083      	str	r3, [r0, #8]
	afec->AFEC_ACR = AFEC_ACR_IBCTL(config->ibctl) | AFEC_ACR_PGA0EN | AFEC_ACR_PGA1EN;
  400f0e:	7d8b      	ldrb	r3, [r1, #22]
  400f10:	021b      	lsls	r3, r3, #8
  400f12:	f403 7340 	and.w	r3, r3, #768	; 0x300
  400f16:	f043 030c 	orr.w	r3, r3, #12
  400f1a:	f8c0 3094 	str.w	r3, [r0, #148]	; 0x94
	if(afec == AFEC0) {
  400f1e:	4b0f      	ldr	r3, [pc, #60]	; (400f5c <afec_init+0xb8>)
  400f20:	4298      	cmp	r0, r3
  400f22:	d006      	beq.n	400f32 <afec_init+0x8e>
	if(afec == AFEC1) {
  400f24:	4b0e      	ldr	r3, [pc, #56]	; (400f60 <afec_init+0xbc>)
  400f26:	4298      	cmp	r0, r3
  400f28:	d00d      	beq.n	400f46 <afec_init+0xa2>
	return STATUS_OK;
  400f2a:	2000      	movs	r0, #0
}
  400f2c:	f85d 4b04 	ldr.w	r4, [sp], #4
  400f30:	4770      	bx	lr
  400f32:	4b0c      	ldr	r3, [pc, #48]	; (400f64 <afec_init+0xc0>)
  400f34:	f103 0140 	add.w	r1, r3, #64	; 0x40
			afec_callback_pointer[0][i] = 0;
  400f38:	2200      	movs	r2, #0
  400f3a:	f843 2f04 	str.w	r2, [r3, #4]!
		for (i = 0; i < _AFEC_NUM_OF_INTERRUPT_SOURCE; i++){
  400f3e:	428b      	cmp	r3, r1
  400f40:	d1fb      	bne.n	400f3a <afec_init+0x96>
	return STATUS_OK;
  400f42:	2000      	movs	r0, #0
  400f44:	e7f2      	b.n	400f2c <afec_init+0x88>
  400f46:	4b08      	ldr	r3, [pc, #32]	; (400f68 <afec_init+0xc4>)
  400f48:	f103 0140 	add.w	r1, r3, #64	; 0x40
			afec_callback_pointer[1][i] = 0;
  400f4c:	2200      	movs	r2, #0
  400f4e:	f843 2b04 	str.w	r2, [r3], #4
		for (i = 0; i < _AFEC_NUM_OF_INTERRUPT_SOURCE; i++){
  400f52:	428b      	cmp	r3, r1
  400f54:	d1fb      	bne.n	400f4e <afec_init+0xaa>
	return STATUS_OK;
  400f56:	2000      	movs	r0, #0
  400f58:	e7e8      	b.n	400f2c <afec_init+0x88>
  400f5a:	bf00      	nop
  400f5c:	4003c000 	.word	0x4003c000
  400f60:	40064000 	.word	0x40064000
  400f64:	20400ee4 	.word	0x20400ee4
  400f68:	20400f28 	.word	0x20400f28

00400f6c <afec_enable_interrupt>:
	if (interrupt_source == AFEC_INTERRUPT_ALL) {
  400f6c:	4b0c      	ldr	r3, [pc, #48]	; (400fa0 <afec_enable_interrupt+0x34>)
  400f6e:	4299      	cmp	r1, r3
  400f70:	d007      	beq.n	400f82 <afec_enable_interrupt+0x16>
	if (interrupt_source < AFEC_INTERRUPT_DATA_READY) {
  400f72:	290b      	cmp	r1, #11
  400f74:	d80b      	bhi.n	400f8e <afec_enable_interrupt+0x22>
		if (interrupt_source == AFEC_INTERRUPT_EOC_11) {
  400f76:	d006      	beq.n	400f86 <afec_enable_interrupt+0x1a>
			afec->AFEC_IER = 1 << interrupt_source;
  400f78:	2301      	movs	r3, #1
  400f7a:	fa03 f101 	lsl.w	r1, r3, r1
  400f7e:	6241      	str	r1, [r0, #36]	; 0x24
  400f80:	4770      	bx	lr
		afec->AFEC_IER = AFEC_INTERRUPT_ALL;
  400f82:	6243      	str	r3, [r0, #36]	; 0x24
		return;
  400f84:	4770      	bx	lr
			afec->AFEC_IER = 1 << AFEC_TEMP_INT_SOURCE_NUM;
  400f86:	f44f 6300 	mov.w	r3, #2048	; 0x800
  400f8a:	6243      	str	r3, [r0, #36]	; 0x24
  400f8c:	4770      	bx	lr
	} else if (interrupt_source < AFEC_INTERRUPT_TEMP_CHANGE) {
  400f8e:	290e      	cmp	r1, #14
		afec->AFEC_IER = 1 << (interrupt_source + AFEC_INTERRUPT_GAP1);
  400f90:	bf94      	ite	ls
  400f92:	310c      	addls	r1, #12
				+ AFEC_INTERRUPT_GAP2);
  400f94:	310f      	addhi	r1, #15
		afec->AFEC_IER = 1 << (interrupt_source + AFEC_INTERRUPT_GAP1
  400f96:	2301      	movs	r3, #1
  400f98:	fa03 f101 	lsl.w	r1, r3, r1
  400f9c:	6241      	str	r1, [r0, #36]	; 0x24
  400f9e:	4770      	bx	lr
  400fa0:	47000fff 	.word	0x47000fff

00400fa4 <afec_set_callback>:
{
  400fa4:	b538      	push	{r3, r4, r5, lr}
	if (afec == AFEC1) {
  400fa6:	4c11      	ldr	r4, [pc, #68]	; (400fec <afec_set_callback+0x48>)
  400fa8:	42a0      	cmp	r0, r4
	afec_callback_pointer[i][source] = callback;
  400faa:	bf0c      	ite	eq
  400fac:	2410      	moveq	r4, #16
  400fae:	2400      	movne	r4, #0
  400fb0:	440c      	add	r4, r1
  400fb2:	4d0f      	ldr	r5, [pc, #60]	; (400ff0 <afec_set_callback+0x4c>)
  400fb4:	f845 2024 	str.w	r2, [r5, r4, lsl #2]
	if (!i) {
  400fb8:	d10a      	bne.n	400fd0 <afec_set_callback+0x2c>
  NVIC->ICPR[((uint32_t)(IRQn) >> 5)] = (1 << ((uint32_t)(IRQn) & 0x1F)); /* Clear pending interrupt */
  400fba:	4a0e      	ldr	r2, [pc, #56]	; (400ff4 <afec_set_callback+0x50>)
  400fbc:	f44f 7480 	mov.w	r4, #256	; 0x100
  400fc0:	f8c2 4184 	str.w	r4, [r2, #388]	; 0x184
    NVIC->IP[(uint32_t)(IRQn)]            = ((priority << (8 - __NVIC_PRIO_BITS)) & 0xff); } /* set Priority for device specific Interrupts  */
  400fc4:	015b      	lsls	r3, r3, #5
  400fc6:	b2db      	uxtb	r3, r3
  400fc8:	f882 3328 	strb.w	r3, [r2, #808]	; 0x328
  NVIC->ISER[(uint32_t)((int32_t)IRQn) >> 5] = (uint32_t)(1 << ((uint32_t)((int32_t)IRQn) & (uint32_t)0x1F)); /* enable interrupt */
  400fcc:	6054      	str	r4, [r2, #4]
  400fce:	e009      	b.n	400fe4 <afec_set_callback+0x40>
  NVIC->ICPR[((uint32_t)(IRQn) >> 5)] = (1 << ((uint32_t)(IRQn) & 0x1F)); /* Clear pending interrupt */
  400fd0:	4a08      	ldr	r2, [pc, #32]	; (400ff4 <afec_set_callback+0x50>)
  400fd2:	f04f 5400 	mov.w	r4, #536870912	; 0x20000000
  400fd6:	f8c2 4180 	str.w	r4, [r2, #384]	; 0x180
    NVIC->IP[(uint32_t)(IRQn)]            = ((priority << (8 - __NVIC_PRIO_BITS)) & 0xff); } /* set Priority for device specific Interrupts  */
  400fda:	015b      	lsls	r3, r3, #5
  400fdc:	b2db      	uxtb	r3, r3
  400fde:	f882 331d 	strb.w	r3, [r2, #797]	; 0x31d
  NVIC->ISER[(uint32_t)((int32_t)IRQn) >> 5] = (uint32_t)(1 << ((uint32_t)((int32_t)IRQn) & (uint32_t)0x1F)); /* enable interrupt */
  400fe2:	6014      	str	r4, [r2, #0]
	afec_enable_interrupt(afec, source);
  400fe4:	4b04      	ldr	r3, [pc, #16]	; (400ff8 <afec_set_callback+0x54>)
  400fe6:	4798      	blx	r3
  400fe8:	bd38      	pop	{r3, r4, r5, pc}
  400fea:	bf00      	nop
  400fec:	40064000 	.word	0x40064000
  400ff0:	20400ee8 	.word	0x20400ee8
  400ff4:	e000e100 	.word	0xe000e100
  400ff8:	00400f6d 	.word	0x00400f6d

00400ffc <AFEC0_Handler>:

/**
 * \brief Interrupt handler for AFEC0.
 */
void AFEC0_Handler(void)
{
  400ffc:	b508      	push	{r3, lr}
	afec_process_callback(AFEC0);
  400ffe:	4802      	ldr	r0, [pc, #8]	; (401008 <AFEC0_Handler+0xc>)
  401000:	4b02      	ldr	r3, [pc, #8]	; (40100c <AFEC0_Handler+0x10>)
  401002:	4798      	blx	r3
  401004:	bd08      	pop	{r3, pc}
  401006:	bf00      	nop
  401008:	4003c000 	.word	0x4003c000
  40100c:	00400d89 	.word	0x00400d89

00401010 <AFEC1_Handler>:

/**
 * \brief Interrupt handler for AFEC1.
 */
void AFEC1_Handler(void)
{
  401010:	b508      	push	{r3, lr}
	afec_process_callback(AFEC1);
  401012:	4802      	ldr	r0, [pc, #8]	; (40101c <AFEC1_Handler+0xc>)
  401014:	4b02      	ldr	r3, [pc, #8]	; (401020 <AFEC1_Handler+0x10>)
  401016:	4798      	blx	r3
  401018:	bd08      	pop	{r3, pc}
  40101a:	bf00      	nop
  40101c:	40064000 	.word	0x40064000
  401020:	00400d89 	.word	0x00400d89

00401024 <afec_enable>:
 * \brief Enable AFEC Module.
 *
 * \param afec  Base address of the AFEC
 */
void afec_enable(Afec *const afec)
{
  401024:	b500      	push	{lr}
  401026:	b083      	sub	sp, #12
	Assert(afec);
	uint32_t pid;

	pid = afec_find_pid(afec);
	/* Enable peripheral clock. */
	pmc_enable_periph_clk(pid);
  401028:	4b13      	ldr	r3, [pc, #76]	; (401078 <afec_enable+0x54>)
  40102a:	4298      	cmp	r0, r3
  40102c:	bf0c      	ite	eq
  40102e:	2028      	moveq	r0, #40	; 0x28
  401030:	201d      	movne	r0, #29
  401032:	4b12      	ldr	r3, [pc, #72]	; (40107c <afec_enable+0x58>)
  401034:	4798      	blx	r3
static inline void sleepmgr_lock_mode(enum sleepmgr_mode mode)
{
#ifdef CONFIG_SLEEPMGR_ENABLE
	irqflags_t flags;

	if(sleepmgr_locks[mode] >= 0xff) {
  401036:	4b12      	ldr	r3, [pc, #72]	; (401080 <afec_enable+0x5c>)
  401038:	789b      	ldrb	r3, [r3, #2]
  40103a:	2bff      	cmp	r3, #255	; 0xff
  40103c:	d01a      	beq.n	401074 <afec_enable+0x50>
 */
__attribute__( ( always_inline ) ) __STATIC_INLINE uint32_t __get_PRIMASK(void)
{
  uint32_t result;

  __ASM volatile ("MRS %0, primask" : "=r" (result) );
  40103e:	f3ef 8310 	mrs	r3, PRIMASK
static volatile uint32_t cpu_irq_critical_section_counter;
static volatile bool     cpu_irq_prev_interrupt_state;

static inline irqflags_t cpu_irq_save(void)
{
	volatile irqflags_t flags = cpu_irq_is_enabled();
  401042:	fab3 f383 	clz	r3, r3
  401046:	095b      	lsrs	r3, r3, #5
  401048:	9301      	str	r3, [sp, #4]
  __ASM volatile ("cpsid i" : : : "memory");
  40104a:	b672      	cpsid	i
  __ASM volatile ("dmb");
  40104c:	f3bf 8f5f 	dmb	sy
	cpu_irq_disable();
  401050:	2200      	movs	r2, #0
  401052:	4b0c      	ldr	r3, [pc, #48]	; (401084 <afec_enable+0x60>)
  401054:	701a      	strb	r2, [r3, #0]
	return flags;
  401056:	9901      	ldr	r1, [sp, #4]
	}

	// Enter a critical section
	flags = cpu_irq_save();

	++sleepmgr_locks[mode];
  401058:	4a09      	ldr	r2, [pc, #36]	; (401080 <afec_enable+0x5c>)
  40105a:	7893      	ldrb	r3, [r2, #2]
  40105c:	3301      	adds	r3, #1
  40105e:	7093      	strb	r3, [r2, #2]
	return (flags);
}

static inline void cpu_irq_restore(irqflags_t flags)
{
	if (cpu_irq_is_enabled_flags(flags))
  401060:	b129      	cbz	r1, 40106e <afec_enable+0x4a>
		cpu_irq_enable();
  401062:	2201      	movs	r2, #1
  401064:	4b07      	ldr	r3, [pc, #28]	; (401084 <afec_enable+0x60>)
  401066:	701a      	strb	r2, [r3, #0]
  401068:	f3bf 8f5f 	dmb	sy
  __ASM volatile ("cpsie i" : : : "memory");
  40106c:	b662      	cpsie	i
	sleepmgr_lock_mode(SLEEPMGR_SLEEP_WFI);
}
  40106e:	b003      	add	sp, #12
  401070:	f85d fb04 	ldr.w	pc, [sp], #4
  401074:	e7fe      	b.n	401074 <afec_enable+0x50>
  401076:	bf00      	nop
  401078:	40064000 	.word	0x40064000
  40107c:	00401551 	.word	0x00401551
  401080:	20400ed4 	.word	0x20400ed4
  401084:	20400000 	.word	0x20400000

00401088 <pio_set>:
 * \param p_pio Pointer to a PIO instance.
 * \param ul_mask Bitmask of one or more pin(s) to configure.
 */
void pio_set(Pio *p_pio, const uint32_t ul_mask)
{
	p_pio->PIO_SODR = ul_mask;
  401088:	6301      	str	r1, [r0, #48]	; 0x30
  40108a:	4770      	bx	lr

0040108c <pio_set_peripheral>:
		const uint32_t ul_mask)
{
	uint32_t ul_sr;

	/* Disable interrupts on the pin(s) */
	p_pio->PIO_IDR = ul_mask;
  40108c:	6442      	str	r2, [r0, #68]	; 0x44

#if (SAM3S || SAM3N || SAM4S || SAM4E || SAM4N || SAM4C || SAMG || SAM4CP || SAM4CM || SAMV71 || SAMV70 || SAME70 || SAMS70)
	switch (ul_type) {
  40108e:	f1b1 5fc0 	cmp.w	r1, #402653184	; 0x18000000
  401092:	d03a      	beq.n	40110a <pio_set_peripheral+0x7e>
  401094:	d813      	bhi.n	4010be <pio_set_peripheral+0x32>
  401096:	f1b1 6f00 	cmp.w	r1, #134217728	; 0x8000000
  40109a:	d025      	beq.n	4010e8 <pio_set_peripheral+0x5c>
  40109c:	f1b1 5f80 	cmp.w	r1, #268435456	; 0x10000000
  4010a0:	d10a      	bne.n	4010b8 <pio_set_peripheral+0x2c>

		ul_sr = p_pio->PIO_ABCDSR[1];
		p_pio->PIO_ABCDSR[1] &= (~ul_mask & ul_sr);
		break;
	case PIO_PERIPH_B:
		ul_sr = p_pio->PIO_ABCDSR[0];
  4010a2:	6f03      	ldr	r3, [r0, #112]	; 0x70
		p_pio->PIO_ABCDSR[0] = (ul_mask | ul_sr);
  4010a4:	4313      	orrs	r3, r2
  4010a6:	6703      	str	r3, [r0, #112]	; 0x70

		ul_sr = p_pio->PIO_ABCDSR[1];
  4010a8:	6f43      	ldr	r3, [r0, #116]	; 0x74
		p_pio->PIO_ABCDSR[1] &= (~ul_mask & ul_sr);
  4010aa:	6f41      	ldr	r1, [r0, #116]	; 0x74
  4010ac:	400b      	ands	r3, r1
  4010ae:	ea23 0302 	bic.w	r3, r3, r2
  4010b2:	6743      	str	r3, [r0, #116]	; 0x74
#else
#error "Unsupported device"
#endif

	/* Remove the pins from under the control of PIO */
	p_pio->PIO_PDR = ul_mask;
  4010b4:	6042      	str	r2, [r0, #4]
  4010b6:	4770      	bx	lr
	switch (ul_type) {
  4010b8:	2900      	cmp	r1, #0
  4010ba:	d1fb      	bne.n	4010b4 <pio_set_peripheral+0x28>
  4010bc:	4770      	bx	lr
  4010be:	f1b1 5f20 	cmp.w	r1, #671088640	; 0x28000000
  4010c2:	d021      	beq.n	401108 <pio_set_peripheral+0x7c>
  4010c4:	d809      	bhi.n	4010da <pio_set_peripheral+0x4e>
  4010c6:	f1b1 5f00 	cmp.w	r1, #536870912	; 0x20000000
  4010ca:	d1f3      	bne.n	4010b4 <pio_set_peripheral+0x28>
		ul_sr = p_pio->PIO_ABCDSR[0];
  4010cc:	6f03      	ldr	r3, [r0, #112]	; 0x70
		p_pio->PIO_ABCDSR[0] = (ul_mask | ul_sr);
  4010ce:	4313      	orrs	r3, r2
  4010d0:	6703      	str	r3, [r0, #112]	; 0x70
		ul_sr = p_pio->PIO_ABCDSR[1];
  4010d2:	6f43      	ldr	r3, [r0, #116]	; 0x74
		p_pio->PIO_ABCDSR[1] = (ul_mask | ul_sr);
  4010d4:	4313      	orrs	r3, r2
  4010d6:	6743      	str	r3, [r0, #116]	; 0x74
		break;
  4010d8:	e7ec      	b.n	4010b4 <pio_set_peripheral+0x28>
	switch (ul_type) {
  4010da:	f1b1 5f40 	cmp.w	r1, #805306368	; 0x30000000
  4010de:	d013      	beq.n	401108 <pio_set_peripheral+0x7c>
  4010e0:	f1b1 5f60 	cmp.w	r1, #939524096	; 0x38000000
  4010e4:	d010      	beq.n	401108 <pio_set_peripheral+0x7c>
  4010e6:	e7e5      	b.n	4010b4 <pio_set_peripheral+0x28>
{
  4010e8:	b410      	push	{r4}
		ul_sr = p_pio->PIO_ABCDSR[0];
  4010ea:	6f01      	ldr	r1, [r0, #112]	; 0x70
		p_pio->PIO_ABCDSR[0] &= (~ul_mask & ul_sr);
  4010ec:	6f04      	ldr	r4, [r0, #112]	; 0x70
  4010ee:	43d3      	mvns	r3, r2
  4010f0:	4021      	ands	r1, r4
  4010f2:	461c      	mov	r4, r3
  4010f4:	4019      	ands	r1, r3
  4010f6:	6701      	str	r1, [r0, #112]	; 0x70
		ul_sr = p_pio->PIO_ABCDSR[1];
  4010f8:	6f43      	ldr	r3, [r0, #116]	; 0x74
		p_pio->PIO_ABCDSR[1] &= (~ul_mask & ul_sr);
  4010fa:	6f41      	ldr	r1, [r0, #116]	; 0x74
  4010fc:	400b      	ands	r3, r1
  4010fe:	4023      	ands	r3, r4
  401100:	6743      	str	r3, [r0, #116]	; 0x74
	p_pio->PIO_PDR = ul_mask;
  401102:	6042      	str	r2, [r0, #4]
}
  401104:	f85d 4b04 	ldr.w	r4, [sp], #4
  401108:	4770      	bx	lr
		ul_sr = p_pio->PIO_ABCDSR[0];
  40110a:	6f03      	ldr	r3, [r0, #112]	; 0x70
		p_pio->PIO_ABCDSR[0] &= (~ul_mask & ul_sr);
  40110c:	6f01      	ldr	r1, [r0, #112]	; 0x70
  40110e:	400b      	ands	r3, r1
  401110:	ea23 0302 	bic.w	r3, r3, r2
  401114:	6703      	str	r3, [r0, #112]	; 0x70
		ul_sr = p_pio->PIO_ABCDSR[1];
  401116:	6f43      	ldr	r3, [r0, #116]	; 0x74
		p_pio->PIO_ABCDSR[1] = (ul_mask | ul_sr);
  401118:	4313      	orrs	r3, r2
  40111a:	6743      	str	r3, [r0, #116]	; 0x74
		break;
  40111c:	e7ca      	b.n	4010b4 <pio_set_peripheral+0x28>

0040111e <pio_set_input>:
 * \param p_pio Pointer to a PIO instance.
 * \param ul_mask Interrupt sources bit map.
 */
void pio_disable_interrupt(Pio *p_pio, const uint32_t ul_mask)
{
	p_pio->PIO_IDR = ul_mask;
  40111e:	6441      	str	r1, [r0, #68]	; 0x44
	if (ul_pull_up_enable) {
  401120:	f012 0f01 	tst.w	r2, #1
  401124:	d10d      	bne.n	401142 <pio_set_input+0x24>
		p_pio->PIO_PUDR = ul_mask;
  401126:	6601      	str	r1, [r0, #96]	; 0x60
	if (ul_attribute & (PIO_DEGLITCH | PIO_DEBOUNCE)) {
  401128:	f012 0f0a 	tst.w	r2, #10
  40112c:	d00b      	beq.n	401146 <pio_set_input+0x28>
		p_pio->PIO_IFER = ul_mask;
  40112e:	6201      	str	r1, [r0, #32]
	if (ul_attribute & PIO_DEGLITCH) {
  401130:	f012 0f02 	tst.w	r2, #2
  401134:	d109      	bne.n	40114a <pio_set_input+0x2c>
		if (ul_attribute & PIO_DEBOUNCE) {
  401136:	f012 0f08 	tst.w	r2, #8
  40113a:	d008      	beq.n	40114e <pio_set_input+0x30>
			p_pio->PIO_IFSCER = ul_mask;
  40113c:	f8c0 1084 	str.w	r1, [r0, #132]	; 0x84
  401140:	e005      	b.n	40114e <pio_set_input+0x30>
		p_pio->PIO_PUER = ul_mask;
  401142:	6641      	str	r1, [r0, #100]	; 0x64
  401144:	e7f0      	b.n	401128 <pio_set_input+0xa>
		p_pio->PIO_IFDR = ul_mask;
  401146:	6241      	str	r1, [r0, #36]	; 0x24
  401148:	e7f2      	b.n	401130 <pio_set_input+0x12>
		p_pio->PIO_IFSCDR = ul_mask;
  40114a:	f8c0 1080 	str.w	r1, [r0, #128]	; 0x80
	p_pio->PIO_ODR = ul_mask;
  40114e:	6141      	str	r1, [r0, #20]
	p_pio->PIO_PER = ul_mask;
  401150:	6001      	str	r1, [r0, #0]
  401152:	4770      	bx	lr

00401154 <pio_set_output>:
{
  401154:	b410      	push	{r4}
  401156:	9c01      	ldr	r4, [sp, #4]
	p_pio->PIO_IDR = ul_mask;
  401158:	6441      	str	r1, [r0, #68]	; 0x44
	if (ul_pull_up_enable) {
  40115a:	b94c      	cbnz	r4, 401170 <pio_set_output+0x1c>
		p_pio->PIO_PUDR = ul_mask;
  40115c:	6601      	str	r1, [r0, #96]	; 0x60
	if (ul_multidrive_enable) {
  40115e:	b14b      	cbz	r3, 401174 <pio_set_output+0x20>
		p_pio->PIO_MDER = ul_mask;
  401160:	6501      	str	r1, [r0, #80]	; 0x50
	if (ul_default_level) {
  401162:	b94a      	cbnz	r2, 401178 <pio_set_output+0x24>
		p_pio->PIO_CODR = ul_mask;
  401164:	6341      	str	r1, [r0, #52]	; 0x34
	p_pio->PIO_OER = ul_mask;
  401166:	6101      	str	r1, [r0, #16]
	p_pio->PIO_PER = ul_mask;
  401168:	6001      	str	r1, [r0, #0]
}
  40116a:	f85d 4b04 	ldr.w	r4, [sp], #4
  40116e:	4770      	bx	lr
		p_pio->PIO_PUER = ul_mask;
  401170:	6641      	str	r1, [r0, #100]	; 0x64
  401172:	e7f4      	b.n	40115e <pio_set_output+0xa>
		p_pio->PIO_MDDR = ul_mask;
  401174:	6541      	str	r1, [r0, #84]	; 0x54
  401176:	e7f4      	b.n	401162 <pio_set_output+0xe>
		p_pio->PIO_SODR = ul_mask;
  401178:	6301      	str	r1, [r0, #48]	; 0x30
  40117a:	e7f4      	b.n	401166 <pio_set_output+0x12>

0040117c <pio_configure>:
{
  40117c:	b570      	push	{r4, r5, r6, lr}
  40117e:	b082      	sub	sp, #8
  401180:	4605      	mov	r5, r0
  401182:	4616      	mov	r6, r2
  401184:	461c      	mov	r4, r3
	switch (ul_type) {
  401186:	f1b1 5f00 	cmp.w	r1, #536870912	; 0x20000000
  40118a:	d014      	beq.n	4011b6 <pio_configure+0x3a>
  40118c:	d90a      	bls.n	4011a4 <pio_configure+0x28>
  40118e:	f1b1 5f40 	cmp.w	r1, #805306368	; 0x30000000
  401192:	d024      	beq.n	4011de <pio_configure+0x62>
  401194:	f1b1 5f60 	cmp.w	r1, #939524096	; 0x38000000
  401198:	d021      	beq.n	4011de <pio_configure+0x62>
  40119a:	f1b1 5f20 	cmp.w	r1, #671088640	; 0x28000000
  40119e:	d017      	beq.n	4011d0 <pio_configure+0x54>
		return 0;
  4011a0:	2000      	movs	r0, #0
  4011a2:	e01a      	b.n	4011da <pio_configure+0x5e>
	switch (ul_type) {
  4011a4:	f1b1 5f80 	cmp.w	r1, #268435456	; 0x10000000
  4011a8:	d005      	beq.n	4011b6 <pio_configure+0x3a>
  4011aa:	f1b1 5fc0 	cmp.w	r1, #402653184	; 0x18000000
  4011ae:	d002      	beq.n	4011b6 <pio_configure+0x3a>
  4011b0:	f1b1 6f00 	cmp.w	r1, #134217728	; 0x8000000
  4011b4:	d1f4      	bne.n	4011a0 <pio_configure+0x24>
		pio_set_peripheral(p_pio, ul_type, ul_mask);
  4011b6:	4632      	mov	r2, r6
  4011b8:	4628      	mov	r0, r5
  4011ba:	4b11      	ldr	r3, [pc, #68]	; (401200 <pio_configure+0x84>)
  4011bc:	4798      	blx	r3
	if (ul_pull_up_enable) {
  4011be:	f014 0f01 	tst.w	r4, #1
  4011c2:	d102      	bne.n	4011ca <pio_configure+0x4e>
		p_pio->PIO_PUDR = ul_mask;
  4011c4:	662e      	str	r6, [r5, #96]	; 0x60
	return 1;
  4011c6:	2001      	movs	r0, #1
  4011c8:	e007      	b.n	4011da <pio_configure+0x5e>
		p_pio->PIO_PUER = ul_mask;
  4011ca:	666e      	str	r6, [r5, #100]	; 0x64
	return 1;
  4011cc:	2001      	movs	r0, #1
  4011ce:	e004      	b.n	4011da <pio_configure+0x5e>
		pio_set_input(p_pio, ul_mask, ul_attribute);
  4011d0:	461a      	mov	r2, r3
  4011d2:	4631      	mov	r1, r6
  4011d4:	4b0b      	ldr	r3, [pc, #44]	; (401204 <pio_configure+0x88>)
  4011d6:	4798      	blx	r3
	return 1;
  4011d8:	2001      	movs	r0, #1
}
  4011da:	b002      	add	sp, #8
  4011dc:	bd70      	pop	{r4, r5, r6, pc}
		pio_set_output(p_pio, ul_mask, (ul_type == PIO_OUTPUT_1),
  4011de:	f004 0301 	and.w	r3, r4, #1
  4011e2:	9300      	str	r3, [sp, #0]
  4011e4:	f3c4 0380 	ubfx	r3, r4, #2, #1
  4011e8:	f1b1 5f60 	cmp.w	r1, #939524096	; 0x38000000
  4011ec:	bf14      	ite	ne
  4011ee:	2200      	movne	r2, #0
  4011f0:	2201      	moveq	r2, #1
  4011f2:	4631      	mov	r1, r6
  4011f4:	4628      	mov	r0, r5
  4011f6:	4c04      	ldr	r4, [pc, #16]	; (401208 <pio_configure+0x8c>)
  4011f8:	47a0      	blx	r4
	return 1;
  4011fa:	2001      	movs	r0, #1
		break;
  4011fc:	e7ed      	b.n	4011da <pio_configure+0x5e>
  4011fe:	bf00      	nop
  401200:	0040108d 	.word	0x0040108d
  401204:	0040111f 	.word	0x0040111f
  401208:	00401155 	.word	0x00401155

0040120c <pio_get_interrupt_status>:
 *
 * \return The interrupt status value.
 */
uint32_t pio_get_interrupt_status(const Pio *p_pio)
{
	return p_pio->PIO_ISR;
  40120c:	6cc0      	ldr	r0, [r0, #76]	; 0x4c
}
  40120e:	4770      	bx	lr

00401210 <pio_get_interrupt_mask>:
 *
 * \return The interrupt mask value.
 */
uint32_t pio_get_interrupt_mask(const Pio *p_pio)
{
	return p_pio->PIO_IMR;
  401210:	6c80      	ldr	r0, [r0, #72]	; 0x48
}
  401212:	4770      	bx	lr

00401214 <pio_set_pin_high>:
		p_pio = PIOC;
	} else {
		p_pio = (Pio *)((uint32_t)PIOA + (PIO_DELTA * (ul_pin >> 5)));
	}
#else
	p_pio = (Pio *)((uint32_t)PIOA + (PIO_DELTA * (ul_pin >> 5)));
  401214:	4b05      	ldr	r3, [pc, #20]	; (40122c <pio_set_pin_high+0x18>)
  401216:	eb03 1350 	add.w	r3, r3, r0, lsr #5
  40121a:	025b      	lsls	r3, r3, #9
	p_pio->PIO_SODR = 1 << (ul_pin & 0x1F);
  40121c:	f000 001f 	and.w	r0, r0, #31
  401220:	2201      	movs	r2, #1
  401222:	fa02 f000 	lsl.w	r0, r2, r0
  401226:	6318      	str	r0, [r3, #48]	; 0x30
  401228:	4770      	bx	lr
  40122a:	bf00      	nop
  40122c:	00200707 	.word	0x00200707

00401230 <pio_set_pin_low>:
	p_pio = (Pio *)((uint32_t)PIOA + (PIO_DELTA * (ul_pin >> 5)));
  401230:	4b05      	ldr	r3, [pc, #20]	; (401248 <pio_set_pin_low+0x18>)
  401232:	eb03 1350 	add.w	r3, r3, r0, lsr #5
  401236:	025b      	lsls	r3, r3, #9
	p_pio->PIO_CODR = 1 << (ul_pin & 0x1F);
  401238:	f000 001f 	and.w	r0, r0, #31
  40123c:	2201      	movs	r2, #1
  40123e:	fa02 f000 	lsl.w	r0, r2, r0
  401242:	6358      	str	r0, [r3, #52]	; 0x34
  401244:	4770      	bx	lr
  401246:	bf00      	nop
  401248:	00200707 	.word	0x00200707

0040124c <pio_configure_pin>:
{
  40124c:	b570      	push	{r4, r5, r6, lr}
  40124e:	b082      	sub	sp, #8
  401250:	460d      	mov	r5, r1
	p_pio = (Pio *)((uint32_t)PIOA + (PIO_DELTA * (ul_pin >> 5)));
  401252:	4c46      	ldr	r4, [pc, #280]	; (40136c <pio_configure_pin+0x120>)
  401254:	eb04 1450 	add.w	r4, r4, r0, lsr #5
  401258:	0264      	lsls	r4, r4, #9
	switch (ul_flags & PIO_TYPE_Msk) {
  40125a:	f001 43f0 	and.w	r3, r1, #2013265920	; 0x78000000
  40125e:	f1b3 5f00 	cmp.w	r3, #536870912	; 0x20000000
  401262:	d059      	beq.n	401318 <pio_configure_pin+0xcc>
  401264:	d80a      	bhi.n	40127c <pio_configure_pin+0x30>
  401266:	f1b3 5f80 	cmp.w	r3, #268435456	; 0x10000000
  40126a:	d02f      	beq.n	4012cc <pio_configure_pin+0x80>
  40126c:	f1b3 5fc0 	cmp.w	r3, #402653184	; 0x18000000
  401270:	d03f      	beq.n	4012f2 <pio_configure_pin+0xa6>
  401272:	f1b3 6f00 	cmp.w	r3, #134217728	; 0x8000000
  401276:	d016      	beq.n	4012a6 <pio_configure_pin+0x5a>
		return 0;
  401278:	2000      	movs	r0, #0
  40127a:	e012      	b.n	4012a2 <pio_configure_pin+0x56>
	switch (ul_flags & PIO_TYPE_Msk) {
  40127c:	f1b3 5f40 	cmp.w	r3, #805306368	; 0x30000000
  401280:	d05d      	beq.n	40133e <pio_configure_pin+0xf2>
  401282:	f1b3 5f60 	cmp.w	r3, #939524096	; 0x38000000
  401286:	d05a      	beq.n	40133e <pio_configure_pin+0xf2>
  401288:	f1b3 5f20 	cmp.w	r3, #671088640	; 0x28000000
  40128c:	d1f4      	bne.n	401278 <pio_configure_pin+0x2c>
		pio_set_input(p_pio, (1 << (ul_pin & 0x1F)), ul_flags);
  40128e:	f000 011f 	and.w	r1, r0, #31
  401292:	2601      	movs	r6, #1
  401294:	462a      	mov	r2, r5
  401296:	fa06 f101 	lsl.w	r1, r6, r1
  40129a:	4620      	mov	r0, r4
  40129c:	4b34      	ldr	r3, [pc, #208]	; (401370 <pio_configure_pin+0x124>)
  40129e:	4798      	blx	r3
	return 1;
  4012a0:	4630      	mov	r0, r6
}
  4012a2:	b002      	add	sp, #8
  4012a4:	bd70      	pop	{r4, r5, r6, pc}
		pio_set_peripheral(p_pio, PIO_PERIPH_A, (1 << (ul_pin & 0x1F)));
  4012a6:	f000 001f 	and.w	r0, r0, #31
  4012aa:	2601      	movs	r6, #1
  4012ac:	4086      	lsls	r6, r0
  4012ae:	4632      	mov	r2, r6
  4012b0:	f04f 6100 	mov.w	r1, #134217728	; 0x8000000
  4012b4:	4620      	mov	r0, r4
  4012b6:	4b2f      	ldr	r3, [pc, #188]	; (401374 <pio_configure_pin+0x128>)
  4012b8:	4798      	blx	r3
	if (ul_pull_up_enable) {
  4012ba:	f015 0f01 	tst.w	r5, #1
  4012be:	d102      	bne.n	4012c6 <pio_configure_pin+0x7a>
		p_pio->PIO_PUDR = ul_mask;
  4012c0:	6626      	str	r6, [r4, #96]	; 0x60
	return 1;
  4012c2:	2001      	movs	r0, #1
  4012c4:	e7ed      	b.n	4012a2 <pio_configure_pin+0x56>
		p_pio->PIO_PUER = ul_mask;
  4012c6:	6666      	str	r6, [r4, #100]	; 0x64
	return 1;
  4012c8:	2001      	movs	r0, #1
  4012ca:	e7ea      	b.n	4012a2 <pio_configure_pin+0x56>
		pio_set_peripheral(p_pio, PIO_PERIPH_B, (1 << (ul_pin & 0x1F)));
  4012cc:	f000 001f 	and.w	r0, r0, #31
  4012d0:	2601      	movs	r6, #1
  4012d2:	4086      	lsls	r6, r0
  4012d4:	4632      	mov	r2, r6
  4012d6:	f04f 5180 	mov.w	r1, #268435456	; 0x10000000
  4012da:	4620      	mov	r0, r4
  4012dc:	4b25      	ldr	r3, [pc, #148]	; (401374 <pio_configure_pin+0x128>)
  4012de:	4798      	blx	r3
	if (ul_pull_up_enable) {
  4012e0:	f015 0f01 	tst.w	r5, #1
  4012e4:	d102      	bne.n	4012ec <pio_configure_pin+0xa0>
		p_pio->PIO_PUDR = ul_mask;
  4012e6:	6626      	str	r6, [r4, #96]	; 0x60
	return 1;
  4012e8:	2001      	movs	r0, #1
  4012ea:	e7da      	b.n	4012a2 <pio_configure_pin+0x56>
		p_pio->PIO_PUER = ul_mask;
  4012ec:	6666      	str	r6, [r4, #100]	; 0x64
	return 1;
  4012ee:	2001      	movs	r0, #1
  4012f0:	e7d7      	b.n	4012a2 <pio_configure_pin+0x56>
		pio_set_peripheral(p_pio, PIO_PERIPH_C, (1 << (ul_pin & 0x1F)));
  4012f2:	f000 001f 	and.w	r0, r0, #31
  4012f6:	2601      	movs	r6, #1
  4012f8:	4086      	lsls	r6, r0
  4012fa:	4632      	mov	r2, r6
  4012fc:	f04f 51c0 	mov.w	r1, #402653184	; 0x18000000
  401300:	4620      	mov	r0, r4
  401302:	4b1c      	ldr	r3, [pc, #112]	; (401374 <pio_configure_pin+0x128>)
  401304:	4798      	blx	r3
	if (ul_pull_up_enable) {
  401306:	f015 0f01 	tst.w	r5, #1
  40130a:	d102      	bne.n	401312 <pio_configure_pin+0xc6>
		p_pio->PIO_PUDR = ul_mask;
  40130c:	6626      	str	r6, [r4, #96]	; 0x60
	return 1;
  40130e:	2001      	movs	r0, #1
  401310:	e7c7      	b.n	4012a2 <pio_configure_pin+0x56>
		p_pio->PIO_PUER = ul_mask;
  401312:	6666      	str	r6, [r4, #100]	; 0x64
	return 1;
  401314:	2001      	movs	r0, #1
  401316:	e7c4      	b.n	4012a2 <pio_configure_pin+0x56>
		pio_set_peripheral(p_pio, PIO_PERIPH_D, (1 << (ul_pin & 0x1F)));
  401318:	f000 001f 	and.w	r0, r0, #31
  40131c:	2601      	movs	r6, #1
  40131e:	4086      	lsls	r6, r0
  401320:	4632      	mov	r2, r6
  401322:	f04f 5100 	mov.w	r1, #536870912	; 0x20000000
  401326:	4620      	mov	r0, r4
  401328:	4b12      	ldr	r3, [pc, #72]	; (401374 <pio_configure_pin+0x128>)
  40132a:	4798      	blx	r3
	if (ul_pull_up_enable) {
  40132c:	f015 0f01 	tst.w	r5, #1
  401330:	d102      	bne.n	401338 <pio_configure_pin+0xec>
		p_pio->PIO_PUDR = ul_mask;
  401332:	6626      	str	r6, [r4, #96]	; 0x60
	return 1;
  401334:	2001      	movs	r0, #1
  401336:	e7b4      	b.n	4012a2 <pio_configure_pin+0x56>
		p_pio->PIO_PUER = ul_mask;
  401338:	6666      	str	r6, [r4, #100]	; 0x64
	return 1;
  40133a:	2001      	movs	r0, #1
  40133c:	e7b1      	b.n	4012a2 <pio_configure_pin+0x56>
				((ul_flags & PIO_TYPE_PIO_OUTPUT_1)
  40133e:	f005 5260 	and.w	r2, r5, #939524096	; 0x38000000
		pio_set_output(p_pio, (1 << (ul_pin & 0x1F)),
  401342:	f000 011f 	and.w	r1, r0, #31
  401346:	2601      	movs	r6, #1
  401348:	ea05 0306 	and.w	r3, r5, r6
  40134c:	9300      	str	r3, [sp, #0]
  40134e:	f3c5 0380 	ubfx	r3, r5, #2, #1
  401352:	f1b2 5f60 	cmp.w	r2, #939524096	; 0x38000000
  401356:	bf14      	ite	ne
  401358:	2200      	movne	r2, #0
  40135a:	2201      	moveq	r2, #1
  40135c:	fa06 f101 	lsl.w	r1, r6, r1
  401360:	4620      	mov	r0, r4
  401362:	4c05      	ldr	r4, [pc, #20]	; (401378 <pio_configure_pin+0x12c>)
  401364:	47a0      	blx	r4
	return 1;
  401366:	4630      	mov	r0, r6
		break;
  401368:	e79b      	b.n	4012a2 <pio_configure_pin+0x56>
  40136a:	bf00      	nop
  40136c:	00200707 	.word	0x00200707
  401370:	0040111f 	.word	0x0040111f
  401374:	0040108d 	.word	0x0040108d
  401378:	00401155 	.word	0x00401155

0040137c <pio_handler_process>:
 *
 * \param p_pio PIO controller base address.
 * \param ul_id PIO controller ID.
 */
void pio_handler_process(Pio *p_pio, uint32_t ul_id)
{
  40137c:	e92d 41f0 	stmdb	sp!, {r4, r5, r6, r7, r8, lr}
  401380:	4604      	mov	r4, r0
  401382:	4688      	mov	r8, r1
	uint32_t status;
	uint32_t i;

	/* Read PIO controller status */
	status = pio_get_interrupt_status(p_pio);
  401384:	4b0e      	ldr	r3, [pc, #56]	; (4013c0 <pio_handler_process+0x44>)
  401386:	4798      	blx	r3
  401388:	4605      	mov	r5, r0
	status &= pio_get_interrupt_mask(p_pio);
  40138a:	4620      	mov	r0, r4
  40138c:	4b0d      	ldr	r3, [pc, #52]	; (4013c4 <pio_handler_process+0x48>)
  40138e:	4798      	blx	r3

	/* Check pending events */
	if (status != 0) {
  401390:	4005      	ands	r5, r0
  401392:	d013      	beq.n	4013bc <pio_handler_process+0x40>
  401394:	4c0c      	ldr	r4, [pc, #48]	; (4013c8 <pio_handler_process+0x4c>)
  401396:	f104 0660 	add.w	r6, r4, #96	; 0x60
  40139a:	e003      	b.n	4013a4 <pio_handler_process+0x28>
							gs_interrupt_sources[i].mask);
					status &= ~(gs_interrupt_sources[i].mask);
				}
			}
			i++;
			if (i >= MAX_INTERRUPT_SOURCES) {
  40139c:	42b4      	cmp	r4, r6
  40139e:	d00d      	beq.n	4013bc <pio_handler_process+0x40>
  4013a0:	3410      	adds	r4, #16
		while (status != 0) {
  4013a2:	b15d      	cbz	r5, 4013bc <pio_handler_process+0x40>
			if (gs_interrupt_sources[i].id == ul_id) {
  4013a4:	6820      	ldr	r0, [r4, #0]
  4013a6:	4540      	cmp	r0, r8
  4013a8:	d1f8      	bne.n	40139c <pio_handler_process+0x20>
				if ((status & gs_interrupt_sources[i].mask) != 0) {
  4013aa:	6861      	ldr	r1, [r4, #4]
  4013ac:	4229      	tst	r1, r5
  4013ae:	d0f5      	beq.n	40139c <pio_handler_process+0x20>
					gs_interrupt_sources[i].handler(gs_interrupt_sources[i].id,
  4013b0:	68e3      	ldr	r3, [r4, #12]
  4013b2:	4798      	blx	r3
					status &= ~(gs_interrupt_sources[i].mask);
  4013b4:	6863      	ldr	r3, [r4, #4]
  4013b6:	ea25 0503 	bic.w	r5, r5, r3
  4013ba:	e7ef      	b.n	40139c <pio_handler_process+0x20>
  4013bc:	e8bd 81f0 	ldmia.w	sp!, {r4, r5, r6, r7, r8, pc}
  4013c0:	0040120d 	.word	0x0040120d
  4013c4:	00401211 	.word	0x00401211
  4013c8:	20400d94 	.word	0x20400d94

004013cc <PIOA_Handler>:
/**
 * \brief Parallel IO Controller A interrupt handler.
 * Redefined PIOA interrupt handler for NVIC interrupt table.
 */
void PIOA_Handler(void)
{
  4013cc:	b508      	push	{r3, lr}
	pio_handler_process(PIOA, ID_PIOA);
  4013ce:	210a      	movs	r1, #10
  4013d0:	4801      	ldr	r0, [pc, #4]	; (4013d8 <PIOA_Handler+0xc>)
  4013d2:	4b02      	ldr	r3, [pc, #8]	; (4013dc <PIOA_Handler+0x10>)
  4013d4:	4798      	blx	r3
  4013d6:	bd08      	pop	{r3, pc}
  4013d8:	400e0e00 	.word	0x400e0e00
  4013dc:	0040137d 	.word	0x0040137d

004013e0 <PIOB_Handler>:
/**
 * \brief Parallel IO Controller B interrupt handler
 * Redefined PIOB interrupt handler for NVIC interrupt table.
 */
void PIOB_Handler(void)
{
  4013e0:	b508      	push	{r3, lr}
    pio_handler_process(PIOB, ID_PIOB);
  4013e2:	210b      	movs	r1, #11
  4013e4:	4801      	ldr	r0, [pc, #4]	; (4013ec <PIOB_Handler+0xc>)
  4013e6:	4b02      	ldr	r3, [pc, #8]	; (4013f0 <PIOB_Handler+0x10>)
  4013e8:	4798      	blx	r3
  4013ea:	bd08      	pop	{r3, pc}
  4013ec:	400e1000 	.word	0x400e1000
  4013f0:	0040137d 	.word	0x0040137d

004013f4 <PIOC_Handler>:
/**
 * \brief Parallel IO Controller C interrupt handler.
 * Redefined PIOC interrupt handler for NVIC interrupt table.
 */
void PIOC_Handler(void)
{
  4013f4:	b508      	push	{r3, lr}
	pio_handler_process(PIOC, ID_PIOC);
  4013f6:	210c      	movs	r1, #12
  4013f8:	4801      	ldr	r0, [pc, #4]	; (401400 <PIOC_Handler+0xc>)
  4013fa:	4b02      	ldr	r3, [pc, #8]	; (401404 <PIOC_Handler+0x10>)
  4013fc:	4798      	blx	r3
  4013fe:	bd08      	pop	{r3, pc}
  401400:	400e1200 	.word	0x400e1200
  401404:	0040137d 	.word	0x0040137d

00401408 <PIOD_Handler>:
/**
 * \brief Parallel IO Controller D interrupt handler.
 * Redefined PIOD interrupt handler for NVIC interrupt table.
 */
void PIOD_Handler(void)
{
  401408:	b508      	push	{r3, lr}
	pio_handler_process(PIOD, ID_PIOD);
  40140a:	2110      	movs	r1, #16
  40140c:	4801      	ldr	r0, [pc, #4]	; (401414 <PIOD_Handler+0xc>)
  40140e:	4b02      	ldr	r3, [pc, #8]	; (401418 <PIOD_Handler+0x10>)
  401410:	4798      	blx	r3
  401412:	bd08      	pop	{r3, pc}
  401414:	400e1400 	.word	0x400e1400
  401418:	0040137d 	.word	0x0040137d

0040141c <PIOE_Handler>:
/**
 * \brief Parallel IO Controller E interrupt handler.
 * Redefined PIOE interrupt handler for NVIC interrupt table.
 */
void PIOE_Handler(void)
{
  40141c:	b508      	push	{r3, lr}
	pio_handler_process(PIOE, ID_PIOE);
  40141e:	2111      	movs	r1, #17
  401420:	4801      	ldr	r0, [pc, #4]	; (401428 <PIOE_Handler+0xc>)
  401422:	4b02      	ldr	r3, [pc, #8]	; (40142c <PIOE_Handler+0x10>)
  401424:	4798      	blx	r3
  401426:	bd08      	pop	{r3, pc}
  401428:	400e1600 	.word	0x400e1600
  40142c:	0040137d 	.word	0x0040137d

00401430 <pmc_mck_set_division>:
 *
 * \param ul_div Division value.
 */
void pmc_mck_set_division(uint32_t ul_div)
{
	switch (ul_div) {
  401430:	2803      	cmp	r0, #3
  401432:	d011      	beq.n	401458 <pmc_mck_set_division+0x28>
  401434:	2804      	cmp	r0, #4
  401436:	d012      	beq.n	40145e <pmc_mck_set_division+0x2e>
		case 1:
			ul_div = PMC_MCKR_MDIV_EQ_PCK;
  401438:	2802      	cmp	r0, #2
  40143a:	bf0c      	ite	eq
  40143c:	f44f 7180 	moveq.w	r1, #256	; 0x100
  401440:	2100      	movne	r1, #0
		default:
			ul_div = PMC_MCKR_MDIV_EQ_PCK;
			break;
	}
	PMC->PMC_MCKR =
			(PMC->PMC_MCKR & (~PMC_MCKR_MDIV_Msk)) | ul_div;
  401442:	4a08      	ldr	r2, [pc, #32]	; (401464 <pmc_mck_set_division+0x34>)
  401444:	6b13      	ldr	r3, [r2, #48]	; 0x30
  401446:	f423 7340 	bic.w	r3, r3, #768	; 0x300
  40144a:	430b      	orrs	r3, r1
	PMC->PMC_MCKR =
  40144c:	6313      	str	r3, [r2, #48]	; 0x30
	while (!(PMC->PMC_SR & PMC_SR_MCKRDY));
  40144e:	6e93      	ldr	r3, [r2, #104]	; 0x68
  401450:	f013 0f08 	tst.w	r3, #8
  401454:	d0fb      	beq.n	40144e <pmc_mck_set_division+0x1e>
}
  401456:	4770      	bx	lr
			ul_div = PMC_MCKR_MDIV_PCK_DIV3;
  401458:	f44f 7140 	mov.w	r1, #768	; 0x300
			break;
  40145c:	e7f1      	b.n	401442 <pmc_mck_set_division+0x12>
			ul_div = PMC_MCKR_MDIV_PCK_DIV4;
  40145e:	f44f 7100 	mov.w	r1, #512	; 0x200
			break;
  401462:	e7ee      	b.n	401442 <pmc_mck_set_division+0x12>
  401464:	400e0600 	.word	0x400e0600

00401468 <pmc_switch_mck_to_pllack>:
 */
uint32_t pmc_switch_mck_to_pllack(uint32_t ul_pres)
{
	uint32_t ul_timeout;

	PMC->PMC_MCKR = (PMC->PMC_MCKR & (~PMC_MCKR_PRES_Msk)) | ul_pres;
  401468:	4a17      	ldr	r2, [pc, #92]	; (4014c8 <pmc_switch_mck_to_pllack+0x60>)
  40146a:	6b13      	ldr	r3, [r2, #48]	; 0x30
  40146c:	f023 0370 	bic.w	r3, r3, #112	; 0x70
  401470:	4318      	orrs	r0, r3
  401472:	6310      	str	r0, [r2, #48]	; 0x30
	for (ul_timeout = PMC_TIMEOUT; !(PMC->PMC_SR & PMC_SR_MCKRDY);
  401474:	6e93      	ldr	r3, [r2, #104]	; 0x68
  401476:	f013 0f08 	tst.w	r3, #8
  40147a:	d10a      	bne.n	401492 <pmc_switch_mck_to_pllack+0x2a>
  40147c:	f44f 5380 	mov.w	r3, #4096	; 0x1000
  401480:	4911      	ldr	r1, [pc, #68]	; (4014c8 <pmc_switch_mck_to_pllack+0x60>)
  401482:	6e8a      	ldr	r2, [r1, #104]	; 0x68
  401484:	f012 0f08 	tst.w	r2, #8
  401488:	d103      	bne.n	401492 <pmc_switch_mck_to_pllack+0x2a>
			--ul_timeout) {
		if (ul_timeout == 0) {
  40148a:	3b01      	subs	r3, #1
  40148c:	d1f9      	bne.n	401482 <pmc_switch_mck_to_pllack+0x1a>
			return 1;
  40148e:	2001      	movs	r0, #1
  401490:	4770      	bx	lr
		}
	}

	PMC->PMC_MCKR = (PMC->PMC_MCKR & (~PMC_MCKR_CSS_Msk)) |
  401492:	4a0d      	ldr	r2, [pc, #52]	; (4014c8 <pmc_switch_mck_to_pllack+0x60>)
  401494:	6b13      	ldr	r3, [r2, #48]	; 0x30
  401496:	f023 0303 	bic.w	r3, r3, #3
  40149a:	f043 0302 	orr.w	r3, r3, #2
  40149e:	6313      	str	r3, [r2, #48]	; 0x30
			PMC_MCKR_CSS_PLLA_CLK;

	for (ul_timeout = PMC_TIMEOUT; !(PMC->PMC_SR & PMC_SR_MCKRDY);
  4014a0:	6e93      	ldr	r3, [r2, #104]	; 0x68
  4014a2:	f013 0f08 	tst.w	r3, #8
  4014a6:	d10a      	bne.n	4014be <pmc_switch_mck_to_pllack+0x56>
  4014a8:	f44f 5380 	mov.w	r3, #4096	; 0x1000
  4014ac:	4906      	ldr	r1, [pc, #24]	; (4014c8 <pmc_switch_mck_to_pllack+0x60>)
  4014ae:	6e8a      	ldr	r2, [r1, #104]	; 0x68
  4014b0:	f012 0f08 	tst.w	r2, #8
  4014b4:	d105      	bne.n	4014c2 <pmc_switch_mck_to_pllack+0x5a>
			--ul_timeout) {
		if (ul_timeout == 0) {
  4014b6:	3b01      	subs	r3, #1
  4014b8:	d1f9      	bne.n	4014ae <pmc_switch_mck_to_pllack+0x46>
			return 1;
  4014ba:	2001      	movs	r0, #1
		}
	}

	return 0;
}
  4014bc:	4770      	bx	lr
	return 0;
  4014be:	2000      	movs	r0, #0
  4014c0:	4770      	bx	lr
  4014c2:	2000      	movs	r0, #0
  4014c4:	4770      	bx	lr
  4014c6:	bf00      	nop
  4014c8:	400e0600 	.word	0x400e0600

004014cc <pmc_switch_mainck_to_xtal>:
 */
void pmc_switch_mainck_to_xtal(uint32_t ul_bypass,
		uint32_t ul_xtal_startup_time)
{
	/* Enable Main Xtal oscillator */
	if (ul_bypass) {
  4014cc:	b9a0      	cbnz	r0, 4014f8 <pmc_switch_mainck_to_xtal+0x2c>
		PMC->CKGR_MOR = (PMC->CKGR_MOR & ~CKGR_MOR_MOSCXTEN) |
				CKGR_MOR_KEY_PASSWD | CKGR_MOR_MOSCXTBY |
				CKGR_MOR_MOSCSEL;
	} else {
		PMC->CKGR_MOR = (PMC->CKGR_MOR & ~CKGR_MOR_MOSCXTBY) |
  4014ce:	480e      	ldr	r0, [pc, #56]	; (401508 <pmc_switch_mainck_to_xtal+0x3c>)
  4014d0:	6a03      	ldr	r3, [r0, #32]
				CKGR_MOR_KEY_PASSWD | CKGR_MOR_MOSCXTEN |
				CKGR_MOR_MOSCXTST(ul_xtal_startup_time);
  4014d2:	0209      	lsls	r1, r1, #8
  4014d4:	b289      	uxth	r1, r1
				CKGR_MOR_KEY_PASSWD | CKGR_MOR_MOSCXTEN |
  4014d6:	4a0d      	ldr	r2, [pc, #52]	; (40150c <pmc_switch_mainck_to_xtal+0x40>)
  4014d8:	401a      	ands	r2, r3
  4014da:	4b0d      	ldr	r3, [pc, #52]	; (401510 <pmc_switch_mainck_to_xtal+0x44>)
  4014dc:	4313      	orrs	r3, r2
  4014de:	4319      	orrs	r1, r3
		PMC->CKGR_MOR = (PMC->CKGR_MOR & ~CKGR_MOR_MOSCXTBY) |
  4014e0:	6201      	str	r1, [r0, #32]
		/* Wait the Xtal to stabilize */
		while (!(PMC->PMC_SR & PMC_SR_MOSCXTS));
  4014e2:	4602      	mov	r2, r0
  4014e4:	6e93      	ldr	r3, [r2, #104]	; 0x68
  4014e6:	f013 0f01 	tst.w	r3, #1
  4014ea:	d0fb      	beq.n	4014e4 <pmc_switch_mainck_to_xtal+0x18>

		PMC->CKGR_MOR |= CKGR_MOR_KEY_PASSWD | CKGR_MOR_MOSCSEL;
  4014ec:	4a06      	ldr	r2, [pc, #24]	; (401508 <pmc_switch_mainck_to_xtal+0x3c>)
  4014ee:	6a11      	ldr	r1, [r2, #32]
  4014f0:	4b08      	ldr	r3, [pc, #32]	; (401514 <pmc_switch_mainck_to_xtal+0x48>)
  4014f2:	430b      	orrs	r3, r1
  4014f4:	6213      	str	r3, [r2, #32]
  4014f6:	4770      	bx	lr
		PMC->CKGR_MOR = (PMC->CKGR_MOR & ~CKGR_MOR_MOSCXTEN) |
  4014f8:	4903      	ldr	r1, [pc, #12]	; (401508 <pmc_switch_mainck_to_xtal+0x3c>)
  4014fa:	6a0b      	ldr	r3, [r1, #32]
				CKGR_MOR_KEY_PASSWD | CKGR_MOR_MOSCXTBY |
  4014fc:	4a06      	ldr	r2, [pc, #24]	; (401518 <pmc_switch_mainck_to_xtal+0x4c>)
  4014fe:	401a      	ands	r2, r3
  401500:	4b06      	ldr	r3, [pc, #24]	; (40151c <pmc_switch_mainck_to_xtal+0x50>)
  401502:	4313      	orrs	r3, r2
		PMC->CKGR_MOR = (PMC->CKGR_MOR & ~CKGR_MOR_MOSCXTEN) |
  401504:	620b      	str	r3, [r1, #32]
  401506:	4770      	bx	lr
  401508:	400e0600 	.word	0x400e0600
  40150c:	ffc8fffc 	.word	0xffc8fffc
  401510:	00370001 	.word	0x00370001
  401514:	01370000 	.word	0x01370000
  401518:	fec8fffc 	.word	0xfec8fffc
  40151c:	01370002 	.word	0x01370002

00401520 <pmc_osc_is_ready_mainck>:
 * \retval 1 Xtal is ready.
 * \retval 0 Xtal is not ready.
 */
uint32_t pmc_osc_is_ready_mainck(void)
{
	return PMC->PMC_SR & PMC_SR_MOSCSELS;
  401520:	4b02      	ldr	r3, [pc, #8]	; (40152c <pmc_osc_is_ready_mainck+0xc>)
  401522:	6e98      	ldr	r0, [r3, #104]	; 0x68
}
  401524:	f400 3080 	and.w	r0, r0, #65536	; 0x10000
  401528:	4770      	bx	lr
  40152a:	bf00      	nop
  40152c:	400e0600 	.word	0x400e0600

00401530 <pmc_disable_pllack>:
void pmc_disable_pllack(void)
{
#if (SAM4C || SAM4CM || SAM4CP || SAMG)
	PMC->CKGR_PLLAR = CKGR_PLLAR_MULA(0);
#else
	PMC->CKGR_PLLAR = CKGR_PLLAR_ONE | CKGR_PLLAR_MULA(0);
  401530:	f04f 5200 	mov.w	r2, #536870912	; 0x20000000
  401534:	4b01      	ldr	r3, [pc, #4]	; (40153c <pmc_disable_pllack+0xc>)
  401536:	629a      	str	r2, [r3, #40]	; 0x28
  401538:	4770      	bx	lr
  40153a:	bf00      	nop
  40153c:	400e0600 	.word	0x400e0600

00401540 <pmc_is_locked_pllack>:
 * \retval 0 Not locked.
 * \retval 1 Locked.
 */
uint32_t pmc_is_locked_pllack(void)
{
	return (PMC->PMC_SR & PMC_SR_LOCKA);
  401540:	4b02      	ldr	r3, [pc, #8]	; (40154c <pmc_is_locked_pllack+0xc>)
  401542:	6e98      	ldr	r0, [r3, #104]	; 0x68
}
  401544:	f000 0002 	and.w	r0, r0, #2
  401548:	4770      	bx	lr
  40154a:	bf00      	nop
  40154c:	400e0600 	.word	0x400e0600

00401550 <pmc_enable_periph_clk>:
 * \retval 0 Success.
 * \retval 1 Invalid parameter.
 */
uint32_t pmc_enable_periph_clk(uint32_t ul_id)
{
	if (ul_id > MAX_PERIPH_ID) {
  401550:	283f      	cmp	r0, #63	; 0x3f
  401552:	d81e      	bhi.n	401592 <pmc_enable_periph_clk+0x42>
		return 1;
	}

	if (ul_id < 32) {
  401554:	281f      	cmp	r0, #31
  401556:	d80c      	bhi.n	401572 <pmc_enable_periph_clk+0x22>
		if ((PMC->PMC_PCSR0 & (1u << ul_id)) != (1u << ul_id)) {
  401558:	4b11      	ldr	r3, [pc, #68]	; (4015a0 <pmc_enable_periph_clk+0x50>)
  40155a:	699a      	ldr	r2, [r3, #24]
  40155c:	2301      	movs	r3, #1
  40155e:	4083      	lsls	r3, r0
  401560:	4393      	bics	r3, r2
  401562:	d018      	beq.n	401596 <pmc_enable_periph_clk+0x46>
			PMC->PMC_PCER0 = 1 << ul_id;
  401564:	2301      	movs	r3, #1
  401566:	fa03 f000 	lsl.w	r0, r3, r0
  40156a:	4b0d      	ldr	r3, [pc, #52]	; (4015a0 <pmc_enable_periph_clk+0x50>)
  40156c:	6118      	str	r0, [r3, #16]
			PMC->PMC_PCER1 = 1 << ul_id;
		}
#endif
	}

	return 0;
  40156e:	2000      	movs	r0, #0
  401570:	4770      	bx	lr
		ul_id -= 32;
  401572:	3820      	subs	r0, #32
		if ((PMC->PMC_PCSR1 & (1u << ul_id)) != (1u << ul_id)) {
  401574:	4b0a      	ldr	r3, [pc, #40]	; (4015a0 <pmc_enable_periph_clk+0x50>)
  401576:	f8d3 2108 	ldr.w	r2, [r3, #264]	; 0x108
  40157a:	2301      	movs	r3, #1
  40157c:	4083      	lsls	r3, r0
  40157e:	4393      	bics	r3, r2
  401580:	d00b      	beq.n	40159a <pmc_enable_periph_clk+0x4a>
			PMC->PMC_PCER1 = 1 << ul_id;
  401582:	2301      	movs	r3, #1
  401584:	fa03 f000 	lsl.w	r0, r3, r0
  401588:	4b05      	ldr	r3, [pc, #20]	; (4015a0 <pmc_enable_periph_clk+0x50>)
  40158a:	f8c3 0100 	str.w	r0, [r3, #256]	; 0x100
	return 0;
  40158e:	2000      	movs	r0, #0
  401590:	4770      	bx	lr
		return 1;
  401592:	2001      	movs	r0, #1
  401594:	4770      	bx	lr
	return 0;
  401596:	2000      	movs	r0, #0
  401598:	4770      	bx	lr
  40159a:	2000      	movs	r0, #0
}
  40159c:	4770      	bx	lr
  40159e:	bf00      	nop
  4015a0:	400e0600 	.word	0x400e0600

004015a4 <spi_enable_clock>:
 * \brief Enable SPI clock.
 *
 * \param p_spi Pointer to an SPI instance.
 */
void spi_enable_clock(Spi *p_spi)
{
  4015a4:	b508      	push	{r3, lr}
#if (SAM4S || SAM3S || SAM3N || SAM3U || SAM4E || SAM4N || SAMG51|| SAMG53|| SAMG54)
	UNUSED(p_spi);
	sysclk_enable_peripheral_clock(ID_SPI);
#elif (SAM3XA || SAM4C || SAM4CP || SAM4CM || SAMV71 || SAMV70 || SAME70 || SAMS70)
	if (p_spi == SPI0) {
  4015a6:	4b07      	ldr	r3, [pc, #28]	; (4015c4 <spi_enable_clock+0x20>)
  4015a8:	4298      	cmp	r0, r3
  4015aa:	d003      	beq.n	4015b4 <spi_enable_clock+0x10>
		sysclk_enable_peripheral_clock(ID_SPI0);
	}
	#ifdef SPI1
	else if (p_spi == SPI1) {
  4015ac:	4b06      	ldr	r3, [pc, #24]	; (4015c8 <spi_enable_clock+0x24>)
  4015ae:	4298      	cmp	r0, r3
  4015b0:	d004      	beq.n	4015bc <spi_enable_clock+0x18>
  4015b2:	bd08      	pop	{r3, pc}
  4015b4:	2015      	movs	r0, #21
  4015b6:	4b05      	ldr	r3, [pc, #20]	; (4015cc <spi_enable_clock+0x28>)
  4015b8:	4798      	blx	r3
  4015ba:	bd08      	pop	{r3, pc}
  4015bc:	202a      	movs	r0, #42	; 0x2a
  4015be:	4b03      	ldr	r3, [pc, #12]	; (4015cc <spi_enable_clock+0x28>)
  4015c0:	4798      	blx	r3
	}
	#endif
#elif SAM4L
	sysclk_enable_peripheral_clock(p_spi);
#endif
}
  4015c2:	e7f6      	b.n	4015b2 <spi_enable_clock+0xe>
  4015c4:	40008000 	.word	0x40008000
  4015c8:	40058000 	.word	0x40058000
  4015cc:	00401551 	.word	0x00401551

004015d0 <spi_set_peripheral_chip_select_value>:
 *                 \ref spi_enable_peripheral_select_decode,
 *                 \ref spi_disable_peripheral_select_decode.
 */
void spi_set_peripheral_chip_select_value(Spi *p_spi, uint32_t ul_value)
{
	p_spi->SPI_MR &= (~SPI_MR_PCS_Msk);
  4015d0:	6843      	ldr	r3, [r0, #4]
  4015d2:	f423 2370 	bic.w	r3, r3, #983040	; 0xf0000
  4015d6:	6043      	str	r3, [r0, #4]
	p_spi->SPI_MR |= SPI_MR_PCS(ul_value);
  4015d8:	6843      	ldr	r3, [r0, #4]
  4015da:	0409      	lsls	r1, r1, #16
  4015dc:	f401 2170 	and.w	r1, r1, #983040	; 0xf0000
  4015e0:	4319      	orrs	r1, r3
  4015e2:	6041      	str	r1, [r0, #4]
  4015e4:	4770      	bx	lr

004015e6 <spi_set_delay_between_chip_select>:
 * \param p_spi Pointer to an SPI instance.
 * \param ul_delay Delay between chip selects (in number of MCK clocks).
 */
void spi_set_delay_between_chip_select(Spi *p_spi, uint32_t ul_delay)
{
	p_spi->SPI_MR &= (~SPI_MR_DLYBCS_Msk);
  4015e6:	6843      	ldr	r3, [r0, #4]
  4015e8:	f023 437f 	bic.w	r3, r3, #4278190080	; 0xff000000
  4015ec:	6043      	str	r3, [r0, #4]
	p_spi->SPI_MR |= SPI_MR_DLYBCS(ul_delay);
  4015ee:	6843      	ldr	r3, [r0, #4]
  4015f0:	ea43 6101 	orr.w	r1, r3, r1, lsl #24
  4015f4:	6041      	str	r1, [r0, #4]
  4015f6:	4770      	bx	lr

004015f8 <spi_write>:
 * \retval SPI_OK on Success.
 * \retval SPI_ERROR_TIMEOUT on Time-out.
 */
spi_status_t spi_write(Spi *p_spi, uint16_t us_data,
		uint8_t uc_pcs, uint8_t uc_last)
{
  4015f8:	b430      	push	{r4, r5}
	uint32_t timeout = SPI_TIMEOUT;
	uint32_t value;

	while (!(p_spi->SPI_SR & SPI_SR_TDRE)) {
  4015fa:	f643 2499 	movw	r4, #15001	; 0x3a99
  4015fe:	6905      	ldr	r5, [r0, #16]
  401600:	f015 0f02 	tst.w	r5, #2
  401604:	d103      	bne.n	40160e <spi_write+0x16>
		if (!timeout--) {
  401606:	3c01      	subs	r4, #1
  401608:	d1f9      	bne.n	4015fe <spi_write+0x6>
			return SPI_ERROR_TIMEOUT;
  40160a:	2001      	movs	r0, #1
  40160c:	e00c      	b.n	401628 <spi_write+0x30>
	if (p_spi->SPI_MR & SPI_MR_PS) {
  40160e:	6844      	ldr	r4, [r0, #4]
		}
	}

	if (spi_get_peripheral_select_mode(p_spi)) {
  401610:	f014 0f02 	tst.w	r4, #2
  401614:	d006      	beq.n	401624 <spi_write+0x2c>
		value = SPI_TDR_TD(us_data) | SPI_TDR_PCS(uc_pcs);
  401616:	0412      	lsls	r2, r2, #16
  401618:	f402 2270 	and.w	r2, r2, #983040	; 0xf0000
  40161c:	4311      	orrs	r1, r2
		if (uc_last) {
  40161e:	b10b      	cbz	r3, 401624 <spi_write+0x2c>
			value |= SPI_TDR_LASTXFER;
  401620:	f041 7180 	orr.w	r1, r1, #16777216	; 0x1000000
		}
	} else {
		value = SPI_TDR_TD(us_data);
	}

	p_spi->SPI_TDR = value;
  401624:	60c1      	str	r1, [r0, #12]

	return SPI_OK;
  401626:	2000      	movs	r0, #0
}
  401628:	bc30      	pop	{r4, r5}
  40162a:	4770      	bx	lr

0040162c <spi_set_clock_polarity>:
 * \param ul_polarity Default clock state is logical one(high)/zero(low).
 */
void spi_set_clock_polarity(Spi *p_spi, uint32_t ul_pcs_ch,
		uint32_t ul_polarity)
{
	if (ul_polarity) {
  40162c:	b932      	cbnz	r2, 40163c <spi_set_clock_polarity+0x10>
  40162e:	eb00 0081 	add.w	r0, r0, r1, lsl #2
		p_spi->SPI_CSR[ul_pcs_ch] |= SPI_CSR_CPOL;
	} else {
		p_spi->SPI_CSR[ul_pcs_ch] &= (~SPI_CSR_CPOL);
  401632:	6b03      	ldr	r3, [r0, #48]	; 0x30
  401634:	f023 0301 	bic.w	r3, r3, #1
  401638:	6303      	str	r3, [r0, #48]	; 0x30
  40163a:	4770      	bx	lr
  40163c:	eb00 0081 	add.w	r0, r0, r1, lsl #2
		p_spi->SPI_CSR[ul_pcs_ch] |= SPI_CSR_CPOL;
  401640:	6b03      	ldr	r3, [r0, #48]	; 0x30
  401642:	f043 0301 	orr.w	r3, r3, #1
  401646:	6303      	str	r3, [r0, #48]	; 0x30
  401648:	4770      	bx	lr

0040164a <spi_set_clock_phase>:
 *  \param ul_pcs_ch Peripheral Chip Select channel (0~3).
 *  \param ul_phase Data capture on the rising/falling edge of clock.
 */
void spi_set_clock_phase(Spi *p_spi, uint32_t ul_pcs_ch, uint32_t ul_phase)
{
	if (ul_phase) {
  40164a:	b932      	cbnz	r2, 40165a <spi_set_clock_phase+0x10>
  40164c:	eb00 0081 	add.w	r0, r0, r1, lsl #2
		p_spi->SPI_CSR[ul_pcs_ch] |= SPI_CSR_NCPHA;
	} else {
		p_spi->SPI_CSR[ul_pcs_ch] &= (~SPI_CSR_NCPHA);
  401650:	6b03      	ldr	r3, [r0, #48]	; 0x30
  401652:	f023 0302 	bic.w	r3, r3, #2
  401656:	6303      	str	r3, [r0, #48]	; 0x30
  401658:	4770      	bx	lr
  40165a:	eb00 0081 	add.w	r0, r0, r1, lsl #2
		p_spi->SPI_CSR[ul_pcs_ch] |= SPI_CSR_NCPHA;
  40165e:	6b03      	ldr	r3, [r0, #48]	; 0x30
  401660:	f043 0302 	orr.w	r3, r3, #2
  401664:	6303      	str	r3, [r0, #48]	; 0x30
  401666:	4770      	bx	lr

00401668 <spi_configure_cs_behavior>:
 * \param ul_cs_behavior Behavior of the Chip Select after transfer.
 */
void spi_configure_cs_behavior(Spi *p_spi, uint32_t ul_pcs_ch,
		uint32_t ul_cs_behavior)
{
	if (ul_cs_behavior == SPI_CS_RISE_FORCED) {
  401668:	2a04      	cmp	r2, #4
  40166a:	d003      	beq.n	401674 <spi_configure_cs_behavior+0xc>
		p_spi->SPI_CSR[ul_pcs_ch] &= (~SPI_CSR_CSAAT);
		p_spi->SPI_CSR[ul_pcs_ch] |= SPI_CSR_CSNAAT;
	} else if (ul_cs_behavior == SPI_CS_RISE_NO_TX) {
  40166c:	b16a      	cbz	r2, 40168a <spi_configure_cs_behavior+0x22>
		p_spi->SPI_CSR[ul_pcs_ch] &= (~SPI_CSR_CSAAT);
		p_spi->SPI_CSR[ul_pcs_ch] &= (~SPI_CSR_CSNAAT);
	} else if (ul_cs_behavior == SPI_CS_KEEP_LOW) {
  40166e:	2a08      	cmp	r2, #8
  401670:	d016      	beq.n	4016a0 <spi_configure_cs_behavior+0x38>
  401672:	4770      	bx	lr
  401674:	eb00 0081 	add.w	r0, r0, r1, lsl #2
		p_spi->SPI_CSR[ul_pcs_ch] &= (~SPI_CSR_CSAAT);
  401678:	6b03      	ldr	r3, [r0, #48]	; 0x30
  40167a:	f023 0308 	bic.w	r3, r3, #8
  40167e:	6303      	str	r3, [r0, #48]	; 0x30
		p_spi->SPI_CSR[ul_pcs_ch] |= SPI_CSR_CSNAAT;
  401680:	6b03      	ldr	r3, [r0, #48]	; 0x30
  401682:	f043 0304 	orr.w	r3, r3, #4
  401686:	6303      	str	r3, [r0, #48]	; 0x30
  401688:	4770      	bx	lr
  40168a:	eb00 0081 	add.w	r0, r0, r1, lsl #2
		p_spi->SPI_CSR[ul_pcs_ch] &= (~SPI_CSR_CSAAT);
  40168e:	6b03      	ldr	r3, [r0, #48]	; 0x30
  401690:	f023 0308 	bic.w	r3, r3, #8
  401694:	6303      	str	r3, [r0, #48]	; 0x30
		p_spi->SPI_CSR[ul_pcs_ch] &= (~SPI_CSR_CSNAAT);
  401696:	6b03      	ldr	r3, [r0, #48]	; 0x30
  401698:	f023 0304 	bic.w	r3, r3, #4
  40169c:	6303      	str	r3, [r0, #48]	; 0x30
  40169e:	4770      	bx	lr
  4016a0:	eb00 0081 	add.w	r0, r0, r1, lsl #2
		p_spi->SPI_CSR[ul_pcs_ch] |= SPI_CSR_CSAAT;
  4016a4:	6b03      	ldr	r3, [r0, #48]	; 0x30
  4016a6:	f043 0308 	orr.w	r3, r3, #8
  4016aa:	6303      	str	r3, [r0, #48]	; 0x30
	}
}
  4016ac:	e7e1      	b.n	401672 <spi_configure_cs_behavior+0xa>

004016ae <spi_set_bits_per_transfer>:
 * \param ul_bits Number of bits (8~16), use the pattern defined
 *        in the device header file.
 */
void spi_set_bits_per_transfer(Spi *p_spi, uint32_t ul_pcs_ch,
		uint32_t ul_bits)
{
  4016ae:	eb00 0181 	add.w	r1, r0, r1, lsl #2
	p_spi->SPI_CSR[ul_pcs_ch] &= (~SPI_CSR_BITS_Msk);
  4016b2:	6b0b      	ldr	r3, [r1, #48]	; 0x30
  4016b4:	f023 03f0 	bic.w	r3, r3, #240	; 0xf0
  4016b8:	630b      	str	r3, [r1, #48]	; 0x30
	p_spi->SPI_CSR[ul_pcs_ch] |= ul_bits;
  4016ba:	6b0b      	ldr	r3, [r1, #48]	; 0x30
  4016bc:	431a      	orrs	r2, r3
  4016be:	630a      	str	r2, [r1, #48]	; 0x30
  4016c0:	4770      	bx	lr

004016c2 <spi_calc_baudrate_div>:
 *   \retval > 0  Success.
 *   \retval < 0  Error.
 */
int16_t spi_calc_baudrate_div(const uint32_t baudrate, uint32_t mck)
{
	int baud_div = div_ceil(mck, baudrate);
  4016c2:	1e43      	subs	r3, r0, #1
  4016c4:	4419      	add	r1, r3
  4016c6:	fbb1 f0f0 	udiv	r0, r1, r0

	/* The value of baud_div is from 1 to 255 in the SCBR field. */
	if (baud_div <= 0 || baud_div > 255) {
  4016ca:	1e43      	subs	r3, r0, #1
  4016cc:	2bfe      	cmp	r3, #254	; 0xfe
		return -1;
	}

	return baud_div;
  4016ce:	bf94      	ite	ls
  4016d0:	b200      	sxthls	r0, r0
		return -1;
  4016d2:	f04f 30ff 	movhi.w	r0, #4294967295
}
  4016d6:	4770      	bx	lr

004016d8 <spi_set_baudrate_div>:
 */
int16_t spi_set_baudrate_div(Spi *p_spi, uint32_t ul_pcs_ch,
		uint8_t uc_baudrate_divider)
{
    /* Programming the SCBR field to 0 is forbidden */
    if (!uc_baudrate_divider)
  4016d8:	b17a      	cbz	r2, 4016fa <spi_set_baudrate_div+0x22>
{
  4016da:	b410      	push	{r4}
  4016dc:	4614      	mov	r4, r2
  4016de:	eb00 0181 	add.w	r1, r0, r1, lsl #2
        return -1;

	p_spi->SPI_CSR[ul_pcs_ch] &= (~SPI_CSR_SCBR_Msk);
  4016e2:	6b0b      	ldr	r3, [r1, #48]	; 0x30
  4016e4:	f423 437f 	bic.w	r3, r3, #65280	; 0xff00
  4016e8:	630b      	str	r3, [r1, #48]	; 0x30
	p_spi->SPI_CSR[ul_pcs_ch] |= SPI_CSR_SCBR(uc_baudrate_divider);
  4016ea:	6b0a      	ldr	r2, [r1, #48]	; 0x30
  4016ec:	ea42 2204 	orr.w	r2, r2, r4, lsl #8
  4016f0:	630a      	str	r2, [r1, #48]	; 0x30
    return 0;
  4016f2:	2000      	movs	r0, #0
}
  4016f4:	f85d 4b04 	ldr.w	r4, [sp], #4
  4016f8:	4770      	bx	lr
        return -1;
  4016fa:	f04f 30ff 	mov.w	r0, #4294967295
  4016fe:	4770      	bx	lr

00401700 <spi_set_transfer_delay>:
 * \param uc_dlybs Delay before SPCK (in number of MCK clocks).
 * \param uc_dlybct Delay between consecutive transfers (in number of MCK clocks).
 */
void spi_set_transfer_delay(Spi *p_spi, uint32_t ul_pcs_ch,
		uint8_t uc_dlybs, uint8_t uc_dlybct)
{
  401700:	b410      	push	{r4}
  401702:	eb00 0181 	add.w	r1, r0, r1, lsl #2
	p_spi->SPI_CSR[ul_pcs_ch] &= ~(SPI_CSR_DLYBS_Msk | SPI_CSR_DLYBCT_Msk);
  401706:	6b08      	ldr	r0, [r1, #48]	; 0x30
  401708:	b280      	uxth	r0, r0
  40170a:	6308      	str	r0, [r1, #48]	; 0x30
	p_spi->SPI_CSR[ul_pcs_ch] |= SPI_CSR_DLYBS(uc_dlybs)
  40170c:	6b0c      	ldr	r4, [r1, #48]	; 0x30
  40170e:	ea44 6303 	orr.w	r3, r4, r3, lsl #24
  401712:	ea43 4302 	orr.w	r3, r3, r2, lsl #16
  401716:	630b      	str	r3, [r1, #48]	; 0x30
			| SPI_CSR_DLYBCT(uc_dlybct);
}
  401718:	f85d 4b04 	ldr.w	r4, [sp], #4
  40171c:	4770      	bx	lr

0040171e <tc_init>:
 */
void tc_init(
		Tc *p_tc,
		uint32_t ul_channel,
		uint32_t ul_mode)
{
  40171e:	b410      	push	{r4}

	/* Validate inputs. */
	Assert(p_tc);
	Assert(ul_channel <
			(sizeof(p_tc->TC_CHANNEL) / sizeof(p_tc->TC_CHANNEL[0])));
	tc_channel = p_tc->TC_CHANNEL + ul_channel;
  401720:	0189      	lsls	r1, r1, #6
  401722:	1843      	adds	r3, r0, r1

	/*  Disable TC clock. */
	tc_channel->TC_CCR = TC_CCR_CLKDIS;
  401724:	2402      	movs	r4, #2
  401726:	5044      	str	r4, [r0, r1]

	/*  Disable interrupts. */
	tc_channel->TC_IDR = 0xFFFFFFFF;
  401728:	f04f 31ff 	mov.w	r1, #4294967295
  40172c:	6299      	str	r1, [r3, #40]	; 0x28

	/*  Clear status register. */
	tc_channel->TC_SR;
  40172e:	6a19      	ldr	r1, [r3, #32]

	/*  Set mode. */
	tc_channel->TC_CMR = ul_mode;
  401730:	605a      	str	r2, [r3, #4]
}
  401732:	f85d 4b04 	ldr.w	r4, [sp], #4
  401736:	4770      	bx	lr

00401738 <tc_start>:
	/* Validate inputs. */
	Assert(p_tc);
	Assert(ul_channel <
			(sizeof(p_tc->TC_CHANNEL) / sizeof(p_tc->TC_CHANNEL[0])));

	p_tc->TC_CHANNEL[ul_channel].TC_CCR = TC_CCR_CLKEN | TC_CCR_SWTRG;
  401738:	0189      	lsls	r1, r1, #6
  40173a:	2305      	movs	r3, #5
  40173c:	5043      	str	r3, [r0, r1]
  40173e:	4770      	bx	lr

00401740 <tc_write_rc>:
	/* Validate inputs. */
	Assert(p_tc);
	Assert(ul_channel <
			(sizeof(p_tc->TC_CHANNEL) / sizeof(p_tc->TC_CHANNEL[0])));

	p_tc->TC_CHANNEL[ul_channel].TC_RC = ul_value;
  401740:	eb00 1181 	add.w	r1, r0, r1, lsl #6
  401744:	61ca      	str	r2, [r1, #28]
  401746:	4770      	bx	lr

00401748 <tc_enable_interrupt>:

	/* Validate inputs. */
	Assert(p_tc);
	Assert(ul_channel <
			(sizeof(p_tc->TC_CHANNEL) / sizeof(p_tc->TC_CHANNEL[0])));
	tc_channel = p_tc->TC_CHANNEL + ul_channel;
  401748:	eb00 1181 	add.w	r1, r0, r1, lsl #6
	tc_channel->TC_IER = ul_sources;
  40174c:	624a      	str	r2, [r1, #36]	; 0x24
  40174e:	4770      	bx	lr

00401750 <tc_get_status>:
	/* Validate inputs. */
	Assert(p_tc);
	Assert(ul_channel <
			(sizeof(p_tc->TC_CHANNEL) / sizeof(p_tc->TC_CHANNEL[0])));
			
	tc_channel = p_tc->TC_CHANNEL + ul_channel;
  401750:	eb00 1181 	add.w	r1, r0, r1, lsl #6
	return tc_channel->TC_SR;
  401754:	6a08      	ldr	r0, [r1, #32]
}
  401756:	4770      	bx	lr

00401758 <tc_find_mck_divisor>:
		uint32_t ul_freq,
		uint32_t ul_mck,
		uint32_t *p_uldiv,
		uint32_t *p_ultcclks,
		uint32_t ul_boardmck)
{
  401758:	b4f0      	push	{r4, r5, r6, r7}
  40175a:	b086      	sub	sp, #24
	const uint32_t divisors[5] = { 2, 8, 32, 128,
  40175c:	2402      	movs	r4, #2
  40175e:	9401      	str	r4, [sp, #4]
  401760:	2408      	movs	r4, #8
  401762:	9402      	str	r4, [sp, #8]
  401764:	2420      	movs	r4, #32
  401766:	9403      	str	r4, [sp, #12]
  401768:	2480      	movs	r4, #128	; 0x80
  40176a:	9404      	str	r4, [sp, #16]
			ul_boardmck / FREQ_SLOW_CLOCK_EXT };
  40176c:	9c0a      	ldr	r4, [sp, #40]	; 0x28
  40176e:	0be4      	lsrs	r4, r4, #15
	const uint32_t divisors[5] = { 2, 8, 32, 128,
  401770:	9405      	str	r4, [sp, #20]
	for (ul_index = 0;
			ul_index < (sizeof(divisors) / sizeof(divisors[0]));
			ul_index++) {
		ul_high = ul_mck / divisors[ul_index];
		ul_low  = ul_high / TC_DIV_FACTOR;
		if (ul_freq > ul_high) {
  401772:	ebb0 0f51 	cmp.w	r0, r1, lsr #1
  401776:	d814      	bhi.n	4017a2 <tc_find_mck_divisor+0x4a>
  401778:	0c4c      	lsrs	r4, r1, #17
			return 0;
		} else if (ul_freq >= ul_low) {
  40177a:	42a0      	cmp	r0, r4
  40177c:	d217      	bcs.n	4017ae <tc_find_mck_divisor+0x56>
  40177e:	2501      	movs	r5, #1
		ul_high = ul_mck / divisors[ul_index];
  401780:	af01      	add	r7, sp, #4
  401782:	f857 4025 	ldr.w	r4, [r7, r5, lsl #2]
  401786:	fbb1 f4f4 	udiv	r4, r1, r4
		ul_low  = ul_high / TC_DIV_FACTOR;
  40178a:	0c26      	lsrs	r6, r4, #16
		if (ul_freq > ul_high) {
  40178c:	4284      	cmp	r4, r0
  40178e:	d30a      	bcc.n	4017a6 <tc_find_mck_divisor+0x4e>
		} else if (ul_freq >= ul_low) {
  401790:	4286      	cmp	r6, r0
  401792:	d90d      	bls.n	4017b0 <tc_find_mck_divisor+0x58>
			ul_index++) {
  401794:	3501      	adds	r5, #1
	for (ul_index = 0;
  401796:	2d05      	cmp	r5, #5
  401798:	d1f3      	bne.n	401782 <tc_find_mck_divisor+0x2a>
			break;
		}
	}
	if (ul_index >= (sizeof(divisors) / sizeof(divisors[0]))) {
		return 0;
  40179a:	2000      	movs	r0, #0
	if (p_ultcclks) {
		*p_ultcclks = ul_index;
	}

	return 1;
}
  40179c:	b006      	add	sp, #24
  40179e:	bcf0      	pop	{r4, r5, r6, r7}
  4017a0:	4770      	bx	lr
			return 0;
  4017a2:	2000      	movs	r0, #0
  4017a4:	e7fa      	b.n	40179c <tc_find_mck_divisor+0x44>
  4017a6:	2000      	movs	r0, #0
  4017a8:	e7f8      	b.n	40179c <tc_find_mck_divisor+0x44>
	return 1;
  4017aa:	2001      	movs	r0, #1
  4017ac:	e7f6      	b.n	40179c <tc_find_mck_divisor+0x44>
	for (ul_index = 0;
  4017ae:	2500      	movs	r5, #0
	if (p_uldiv) {
  4017b0:	b12a      	cbz	r2, 4017be <tc_find_mck_divisor+0x66>
		*p_uldiv = divisors[ul_index];
  4017b2:	a906      	add	r1, sp, #24
  4017b4:	eb01 0185 	add.w	r1, r1, r5, lsl #2
  4017b8:	f851 1c14 	ldr.w	r1, [r1, #-20]
  4017bc:	6011      	str	r1, [r2, #0]
	if (p_ultcclks) {
  4017be:	2b00      	cmp	r3, #0
  4017c0:	d0f3      	beq.n	4017aa <tc_find_mck_divisor+0x52>
		*p_ultcclks = ul_index;
  4017c2:	601d      	str	r5, [r3, #0]
	return 1;
  4017c4:	2001      	movs	r0, #1
  4017c6:	e7e9      	b.n	40179c <tc_find_mck_divisor+0x44>

004017c8 <uart_write>:
 * \retval 1 I/O Failure, UART is not ready.
 */
uint32_t uart_write(Uart *p_uart, const uint8_t uc_data)
{
	/* Check if the transmitter is ready */
	if (!(p_uart->UART_SR & UART_SR_TXRDY))
  4017c8:	6943      	ldr	r3, [r0, #20]
  4017ca:	f013 0f02 	tst.w	r3, #2
  4017ce:	d002      	beq.n	4017d6 <uart_write+0xe>
		return 1;

	/* Send character */
	p_uart->UART_THR = uc_data;
  4017d0:	61c1      	str	r1, [r0, #28]
	return 0;
  4017d2:	2000      	movs	r0, #0
  4017d4:	4770      	bx	lr
		return 1;
  4017d6:	2001      	movs	r0, #1
}
  4017d8:	4770      	bx	lr

004017da <uart_read>:
 * \retval 1 I/O Failure, UART is not ready.
 */
uint32_t uart_read(Uart *p_uart, uint8_t *puc_data)
{
	/* Check if the receiver is ready */
	if ((p_uart->UART_SR & UART_SR_RXRDY) == 0)
  4017da:	6943      	ldr	r3, [r0, #20]
  4017dc:	f013 0f01 	tst.w	r3, #1
  4017e0:	d003      	beq.n	4017ea <uart_read+0x10>
		return 1;

	/* Read character */
	*puc_data = (uint8_t) p_uart->UART_RHR;
  4017e2:	6983      	ldr	r3, [r0, #24]
  4017e4:	700b      	strb	r3, [r1, #0]
	return 0;
  4017e6:	2000      	movs	r0, #0
  4017e8:	4770      	bx	lr
		return 1;
  4017ea:	2001      	movs	r0, #1
}
  4017ec:	4770      	bx	lr

004017ee <usart_set_async_baudrate>:
 * \retval 1 Baud rate set point is out of range for the given input clock
 * frequency.
 */
uint32_t usart_set_async_baudrate(Usart *p_usart,
		uint32_t baudrate, uint32_t ul_mck)
{
  4017ee:	b410      	push	{r4}
	uint32_t cd_fp;
	uint32_t cd;
	uint32_t fp;

	/* Calculate the receiver sampling divide of baudrate clock. */
	if (ul_mck >= HIGH_FRQ_SAMPLE_DIV * baudrate) {
  4017f0:	010b      	lsls	r3, r1, #4
  4017f2:	4293      	cmp	r3, r2
  4017f4:	d914      	bls.n	401820 <usart_set_async_baudrate+0x32>
	} else {
		over = LOW_FRQ_SAMPLE_DIV;
	}

	/* Calculate clock divider according to the fraction calculated formula. */
	cd_fp = (8 * ul_mck + (over * baudrate) / 2) / (over * baudrate);
  4017f6:	00c9      	lsls	r1, r1, #3
  4017f8:	084b      	lsrs	r3, r1, #1
  4017fa:	eb03 02c2 	add.w	r2, r3, r2, lsl #3
  4017fe:	fbb2 f2f1 	udiv	r2, r2, r1
	cd = cd_fp >> 3;
  401802:	08d3      	lsrs	r3, r2, #3
	fp = cd_fp & 0x07;
	if (cd < MIN_CD_VALUE || cd > MAX_CD_VALUE) {
  401804:	1e5c      	subs	r4, r3, #1
  401806:	f64f 71fe 	movw	r1, #65534	; 0xfffe
  40180a:	428c      	cmp	r4, r1
  40180c:	d901      	bls.n	401812 <usart_set_async_baudrate+0x24>
		return 1;
  40180e:	2001      	movs	r0, #1
  401810:	e017      	b.n	401842 <usart_set_async_baudrate+0x54>
	}

	/* Configure the OVER bit in MR register. */
	if (over == 8) {
		p_usart->US_MR |= US_MR_OVER;
  401812:	6841      	ldr	r1, [r0, #4]
  401814:	f441 2100 	orr.w	r1, r1, #524288	; 0x80000
  401818:	6041      	str	r1, [r0, #4]
  40181a:	e00c      	b.n	401836 <usart_set_async_baudrate+0x48>
		return 1;
  40181c:	2001      	movs	r0, #1
  40181e:	e010      	b.n	401842 <usart_set_async_baudrate+0x54>
	cd_fp = (8 * ul_mck + (over * baudrate) / 2) / (over * baudrate);
  401820:	0859      	lsrs	r1, r3, #1
  401822:	eb01 02c2 	add.w	r2, r1, r2, lsl #3
  401826:	fbb2 f2f3 	udiv	r2, r2, r3
	cd = cd_fp >> 3;
  40182a:	08d3      	lsrs	r3, r2, #3
	if (cd < MIN_CD_VALUE || cd > MAX_CD_VALUE) {
  40182c:	1e5c      	subs	r4, r3, #1
  40182e:	f64f 71fe 	movw	r1, #65534	; 0xfffe
  401832:	428c      	cmp	r4, r1
  401834:	d8f2      	bhi.n	40181c <usart_set_async_baudrate+0x2e>
	}

	/* Configure the baudrate generate register. */
	p_usart->US_BRGR = (cd << US_BRGR_CD_Pos) | (fp << US_BRGR_FP_Pos);
  401836:	0412      	lsls	r2, r2, #16
  401838:	f402 22e0 	and.w	r2, r2, #458752	; 0x70000
  40183c:	431a      	orrs	r2, r3
  40183e:	6202      	str	r2, [r0, #32]

	return 0;
  401840:	2000      	movs	r0, #0
}
  401842:	f85d 4b04 	ldr.w	r4, [sp], #4
  401846:	4770      	bx	lr

00401848 <usart_reset>:
 *
 * \param p_usart Pointer to a USART instance.
 */
void usart_disable_writeprotect(Usart *p_usart)
{
	p_usart->US_WPMR = US_WPMR_WPKEY_PASSWD;
  401848:	4b08      	ldr	r3, [pc, #32]	; (40186c <usart_reset+0x24>)
  40184a:	f8c0 30e4 	str.w	r3, [r0, #228]	; 0xe4
	p_usart->US_MR = 0;
  40184e:	2300      	movs	r3, #0
  401850:	6043      	str	r3, [r0, #4]
	p_usart->US_RTOR = 0;
  401852:	6243      	str	r3, [r0, #36]	; 0x24
	p_usart->US_TTGR = 0;
  401854:	6283      	str	r3, [r0, #40]	; 0x28
	p_usart->US_CR = US_CR_RSTTX | US_CR_TXDIS;
  401856:	2388      	movs	r3, #136	; 0x88
  401858:	6003      	str	r3, [r0, #0]
	p_usart->US_CR = US_CR_RSTRX | US_CR_RXDIS;
  40185a:	2324      	movs	r3, #36	; 0x24
  40185c:	6003      	str	r3, [r0, #0]
	p_usart->US_CR = US_CR_RSTSTA;
  40185e:	f44f 7380 	mov.w	r3, #256	; 0x100
  401862:	6003      	str	r3, [r0, #0]
	p_usart->US_CR = US_CR_RTSDIS;
  401864:	f44f 2300 	mov.w	r3, #524288	; 0x80000
  401868:	6003      	str	r3, [r0, #0]
  40186a:	4770      	bx	lr
  40186c:	55534100 	.word	0x55534100

00401870 <usart_init_rs232>:
{
  401870:	b570      	push	{r4, r5, r6, lr}
  401872:	4605      	mov	r5, r0
  401874:	460c      	mov	r4, r1
  401876:	4616      	mov	r6, r2
	usart_reset(p_usart);
  401878:	4b0f      	ldr	r3, [pc, #60]	; (4018b8 <usart_init_rs232+0x48>)
  40187a:	4798      	blx	r3
	ul_reg_val = 0;
  40187c:	2200      	movs	r2, #0
  40187e:	4b0f      	ldr	r3, [pc, #60]	; (4018bc <usart_init_rs232+0x4c>)
  401880:	601a      	str	r2, [r3, #0]
	if (!p_usart_opt || usart_set_async_baudrate(p_usart,
  401882:	b1a4      	cbz	r4, 4018ae <usart_init_rs232+0x3e>
  401884:	4632      	mov	r2, r6
  401886:	6821      	ldr	r1, [r4, #0]
  401888:	4628      	mov	r0, r5
  40188a:	4b0d      	ldr	r3, [pc, #52]	; (4018c0 <usart_init_rs232+0x50>)
  40188c:	4798      	blx	r3
  40188e:	4602      	mov	r2, r0
  401890:	b978      	cbnz	r0, 4018b2 <usart_init_rs232+0x42>
	ul_reg_val |= p_usart_opt->char_length | p_usart_opt->parity_type |
  401892:	6863      	ldr	r3, [r4, #4]
  401894:	68a1      	ldr	r1, [r4, #8]
  401896:	430b      	orrs	r3, r1
  401898:	6921      	ldr	r1, [r4, #16]
  40189a:	430b      	orrs	r3, r1
			p_usart_opt->channel_mode | p_usart_opt->stop_bits;
  40189c:	68e1      	ldr	r1, [r4, #12]
  40189e:	430b      	orrs	r3, r1
	ul_reg_val |= p_usart_opt->char_length | p_usart_opt->parity_type |
  4018a0:	4906      	ldr	r1, [pc, #24]	; (4018bc <usart_init_rs232+0x4c>)
  4018a2:	600b      	str	r3, [r1, #0]
	p_usart->US_MR |= ul_reg_val;
  4018a4:	6869      	ldr	r1, [r5, #4]
  4018a6:	430b      	orrs	r3, r1
  4018a8:	606b      	str	r3, [r5, #4]
}
  4018aa:	4610      	mov	r0, r2
  4018ac:	bd70      	pop	{r4, r5, r6, pc}
		return 1;
  4018ae:	2201      	movs	r2, #1
  4018b0:	e7fb      	b.n	4018aa <usart_init_rs232+0x3a>
  4018b2:	2201      	movs	r2, #1
  4018b4:	e7f9      	b.n	4018aa <usart_init_rs232+0x3a>
  4018b6:	bf00      	nop
  4018b8:	00401849 	.word	0x00401849
  4018bc:	20400e04 	.word	0x20400e04
  4018c0:	004017ef 	.word	0x004017ef

004018c4 <usart_enable_tx>:
	p_usart->US_CR = US_CR_TXEN;
  4018c4:	2340      	movs	r3, #64	; 0x40
  4018c6:	6003      	str	r3, [r0, #0]
  4018c8:	4770      	bx	lr

004018ca <usart_enable_rx>:
	p_usart->US_CR = US_CR_RXEN;
  4018ca:	2310      	movs	r3, #16
  4018cc:	6003      	str	r3, [r0, #0]
  4018ce:	4770      	bx	lr

004018d0 <usart_write>:
	if (!(p_usart->US_CSR & US_CSR_TXRDY)) {
  4018d0:	6943      	ldr	r3, [r0, #20]
  4018d2:	f013 0f02 	tst.w	r3, #2
  4018d6:	d004      	beq.n	4018e2 <usart_write+0x12>
	p_usart->US_THR = US_THR_TXCHR(c);
  4018d8:	f3c1 0108 	ubfx	r1, r1, #0, #9
  4018dc:	61c1      	str	r1, [r0, #28]
	return 0;
  4018de:	2000      	movs	r0, #0
  4018e0:	4770      	bx	lr
		return 1;
  4018e2:	2001      	movs	r0, #1
}
  4018e4:	4770      	bx	lr

004018e6 <usart_read>:
	if (!(p_usart->US_CSR & US_CSR_RXRDY)) {
  4018e6:	6943      	ldr	r3, [r0, #20]
  4018e8:	f013 0f01 	tst.w	r3, #1
  4018ec:	d005      	beq.n	4018fa <usart_read+0x14>
	*c = p_usart->US_RHR & US_RHR_RXCHR_Msk;
  4018ee:	6983      	ldr	r3, [r0, #24]
  4018f0:	f3c3 0308 	ubfx	r3, r3, #0, #9
  4018f4:	600b      	str	r3, [r1, #0]
	return 0;
  4018f6:	2000      	movs	r0, #0
  4018f8:	4770      	bx	lr
		return 1;
  4018fa:	2001      	movs	r0, #1
}
  4018fc:	4770      	bx	lr

004018fe <Dummy_Handler>:

/**
 * \brief Default interrupt handler for unused IRQs.
 */
void Dummy_Handler(void)
{
  4018fe:	e7fe      	b.n	4018fe <Dummy_Handler>

00401900 <Reset_Handler>:
{
  401900:	b500      	push	{lr}
  401902:	b083      	sub	sp, #12
        if (pSrc != pDest) {
  401904:	4b25      	ldr	r3, [pc, #148]	; (40199c <Reset_Handler+0x9c>)
  401906:	4a26      	ldr	r2, [pc, #152]	; (4019a0 <Reset_Handler+0xa0>)
  401908:	429a      	cmp	r2, r3
  40190a:	d010      	beq.n	40192e <Reset_Handler+0x2e>
                for (; pDest < &_erelocate;) {
  40190c:	4b25      	ldr	r3, [pc, #148]	; (4019a4 <Reset_Handler+0xa4>)
  40190e:	4a23      	ldr	r2, [pc, #140]	; (40199c <Reset_Handler+0x9c>)
  401910:	429a      	cmp	r2, r3
  401912:	d20c      	bcs.n	40192e <Reset_Handler+0x2e>
  401914:	3b01      	subs	r3, #1
  401916:	1a9b      	subs	r3, r3, r2
  401918:	f023 0303 	bic.w	r3, r3, #3
  40191c:	3304      	adds	r3, #4
  40191e:	4413      	add	r3, r2
  401920:	491f      	ldr	r1, [pc, #124]	; (4019a0 <Reset_Handler+0xa0>)
                        *pDest++ = *pSrc++;
  401922:	f851 0b04 	ldr.w	r0, [r1], #4
  401926:	f842 0b04 	str.w	r0, [r2], #4
                for (; pDest < &_erelocate;) {
  40192a:	429a      	cmp	r2, r3
  40192c:	d1f9      	bne.n	401922 <Reset_Handler+0x22>
        for (pDest = &_szero; pDest < &_ezero;) {
  40192e:	4b1e      	ldr	r3, [pc, #120]	; (4019a8 <Reset_Handler+0xa8>)
  401930:	4a1e      	ldr	r2, [pc, #120]	; (4019ac <Reset_Handler+0xac>)
  401932:	429a      	cmp	r2, r3
  401934:	d20a      	bcs.n	40194c <Reset_Handler+0x4c>
  401936:	3b01      	subs	r3, #1
  401938:	1a9b      	subs	r3, r3, r2
  40193a:	f023 0303 	bic.w	r3, r3, #3
  40193e:	3304      	adds	r3, #4
  401940:	4413      	add	r3, r2
                *pDest++ = 0;
  401942:	2100      	movs	r1, #0
  401944:	f842 1b04 	str.w	r1, [r2], #4
        for (pDest = &_szero; pDest < &_ezero;) {
  401948:	4293      	cmp	r3, r2
  40194a:	d1fb      	bne.n	401944 <Reset_Handler+0x44>
        SCB->VTOR = ((uint32_t) pSrc & SCB_VTOR_TBLOFF_Msk);
  40194c:	4a18      	ldr	r2, [pc, #96]	; (4019b0 <Reset_Handler+0xb0>)
  40194e:	4b19      	ldr	r3, [pc, #100]	; (4019b4 <Reset_Handler+0xb4>)
  401950:	f023 037f 	bic.w	r3, r3, #127	; 0x7f
  401954:	6093      	str	r3, [r2, #8]
  __ASM volatile ("MRS %0, primask" : "=r" (result) );
  401956:	f3ef 8310 	mrs	r3, PRIMASK
	volatile irqflags_t flags = cpu_irq_is_enabled();
  40195a:	fab3 f383 	clz	r3, r3
  40195e:	095b      	lsrs	r3, r3, #5
  401960:	9301      	str	r3, [sp, #4]
  __ASM volatile ("cpsid i" : : : "memory");
  401962:	b672      	cpsid	i
  401964:	f3bf 8f5f 	dmb	sy
	cpu_irq_disable();
  401968:	2200      	movs	r2, #0
  40196a:	4b13      	ldr	r3, [pc, #76]	; (4019b8 <Reset_Handler+0xb8>)
  40196c:	701a      	strb	r2, [r3, #0]
	return flags;
  40196e:	9901      	ldr	r1, [sp, #4]
 */
__always_inline static void fpu_enable(void)
{
	irqflags_t flags;
	flags = cpu_irq_save();
	REG_CPACR |=  (0xFu << 20);
  401970:	4a12      	ldr	r2, [pc, #72]	; (4019bc <Reset_Handler+0xbc>)
  401972:	6813      	ldr	r3, [r2, #0]
  401974:	f443 0370 	orr.w	r3, r3, #15728640	; 0xf00000
  401978:	6013      	str	r3, [r2, #0]
  __ASM volatile ("dsb");
  40197a:	f3bf 8f4f 	dsb	sy
  __ASM volatile ("isb");
  40197e:	f3bf 8f6f 	isb	sy
	if (cpu_irq_is_enabled_flags(flags))
  401982:	b129      	cbz	r1, 401990 <Reset_Handler+0x90>
		cpu_irq_enable();
  401984:	2201      	movs	r2, #1
  401986:	4b0c      	ldr	r3, [pc, #48]	; (4019b8 <Reset_Handler+0xb8>)
  401988:	701a      	strb	r2, [r3, #0]
  __ASM volatile ("dmb");
  40198a:	f3bf 8f5f 	dmb	sy
  __ASM volatile ("cpsie i" : : : "memory");
  40198e:	b662      	cpsie	i
        __libc_init_array();
  401990:	4b0b      	ldr	r3, [pc, #44]	; (4019c0 <Reset_Handler+0xc0>)
  401992:	4798      	blx	r3
        main();
  401994:	4b0b      	ldr	r3, [pc, #44]	; (4019c4 <Reset_Handler+0xc4>)
  401996:	4798      	blx	r3
  401998:	e7fe      	b.n	401998 <Reset_Handler+0x98>
  40199a:	bf00      	nop
  40199c:	20400000 	.word	0x20400000
  4019a0:	004275c4 	.word	0x004275c4
  4019a4:	204009b8 	.word	0x204009b8
  4019a8:	20400fa0 	.word	0x20400fa0
  4019ac:	204009b8 	.word	0x204009b8
  4019b0:	e000ed00 	.word	0xe000ed00
  4019b4:	00400000 	.word	0x00400000
  4019b8:	20400000 	.word	0x20400000
  4019bc:	e000ed88 	.word	0xe000ed88
  4019c0:	004023d9 	.word	0x004023d9
  4019c4:	0040215d 	.word	0x0040215d

004019c8 <SystemCoreClockUpdate>:
}

void SystemCoreClockUpdate( void )
{
  /* Determine clock frequency according to clock register values */
  switch (PMC->PMC_MCKR & (uint32_t) PMC_MCKR_CSS_Msk)
  4019c8:	4b3b      	ldr	r3, [pc, #236]	; (401ab8 <SystemCoreClockUpdate+0xf0>)
  4019ca:	6b1b      	ldr	r3, [r3, #48]	; 0x30
  4019cc:	f003 0303 	and.w	r3, r3, #3
  4019d0:	2b01      	cmp	r3, #1
  4019d2:	d01d      	beq.n	401a10 <SystemCoreClockUpdate+0x48>
  4019d4:	b183      	cbz	r3, 4019f8 <SystemCoreClockUpdate+0x30>
  4019d6:	2b02      	cmp	r3, #2
  4019d8:	d036      	beq.n	401a48 <SystemCoreClockUpdate+0x80>

    default:
    break;
  }

  if ( (PMC->PMC_MCKR & PMC_MCKR_PRES_Msk) == PMC_MCKR_PRES_CLK_3 )
  4019da:	4b37      	ldr	r3, [pc, #220]	; (401ab8 <SystemCoreClockUpdate+0xf0>)
  4019dc:	6b1b      	ldr	r3, [r3, #48]	; 0x30
  4019de:	f003 0370 	and.w	r3, r3, #112	; 0x70
  4019e2:	2b70      	cmp	r3, #112	; 0x70
  4019e4:	d05f      	beq.n	401aa6 <SystemCoreClockUpdate+0xde>
  {
    SystemCoreClock /= 3U;
  }
  else
  {
    SystemCoreClock >>= ((PMC->PMC_MCKR & PMC_MCKR_PRES_Msk) >> PMC_MCKR_PRES_Pos);
  4019e6:	4b34      	ldr	r3, [pc, #208]	; (401ab8 <SystemCoreClockUpdate+0xf0>)
  4019e8:	6b1a      	ldr	r2, [r3, #48]	; 0x30
  4019ea:	4934      	ldr	r1, [pc, #208]	; (401abc <SystemCoreClockUpdate+0xf4>)
  4019ec:	f3c2 1202 	ubfx	r2, r2, #4, #3
  4019f0:	680b      	ldr	r3, [r1, #0]
  4019f2:	40d3      	lsrs	r3, r2
  4019f4:	600b      	str	r3, [r1, #0]
  4019f6:	4770      	bx	lr
      if ( SUPC->SUPC_SR & SUPC_SR_OSCSEL )
  4019f8:	4b31      	ldr	r3, [pc, #196]	; (401ac0 <SystemCoreClockUpdate+0xf8>)
  4019fa:	695b      	ldr	r3, [r3, #20]
  4019fc:	f013 0f80 	tst.w	r3, #128	; 0x80
        SystemCoreClock = CHIP_FREQ_XTAL_32K;
  401a00:	bf14      	ite	ne
  401a02:	f44f 4200 	movne.w	r2, #32768	; 0x8000
        SystemCoreClock = CHIP_FREQ_SLCK_RC;
  401a06:	f44f 42fa 	moveq.w	r2, #32000	; 0x7d00
  401a0a:	4b2c      	ldr	r3, [pc, #176]	; (401abc <SystemCoreClockUpdate+0xf4>)
  401a0c:	601a      	str	r2, [r3, #0]
  401a0e:	e7e4      	b.n	4019da <SystemCoreClockUpdate+0x12>
      if ( PMC->CKGR_MOR & CKGR_MOR_MOSCSEL )
  401a10:	4b29      	ldr	r3, [pc, #164]	; (401ab8 <SystemCoreClockUpdate+0xf0>)
  401a12:	6a1b      	ldr	r3, [r3, #32]
  401a14:	f013 7f80 	tst.w	r3, #16777216	; 0x1000000
  401a18:	d003      	beq.n	401a22 <SystemCoreClockUpdate+0x5a>
        SystemCoreClock = CHIP_FREQ_XTAL_12M;
  401a1a:	4a2a      	ldr	r2, [pc, #168]	; (401ac4 <SystemCoreClockUpdate+0xfc>)
  401a1c:	4b27      	ldr	r3, [pc, #156]	; (401abc <SystemCoreClockUpdate+0xf4>)
  401a1e:	601a      	str	r2, [r3, #0]
  401a20:	e7db      	b.n	4019da <SystemCoreClockUpdate+0x12>
        SystemCoreClock = CHIP_FREQ_MAINCK_RC_4MHZ;
  401a22:	4a29      	ldr	r2, [pc, #164]	; (401ac8 <SystemCoreClockUpdate+0x100>)
  401a24:	4b25      	ldr	r3, [pc, #148]	; (401abc <SystemCoreClockUpdate+0xf4>)
  401a26:	601a      	str	r2, [r3, #0]
        switch ( PMC->CKGR_MOR & CKGR_MOR_MOSCRCF_Msk )
  401a28:	4b23      	ldr	r3, [pc, #140]	; (401ab8 <SystemCoreClockUpdate+0xf0>)
  401a2a:	6a1b      	ldr	r3, [r3, #32]
  401a2c:	f003 0370 	and.w	r3, r3, #112	; 0x70
  401a30:	2b10      	cmp	r3, #16
  401a32:	d005      	beq.n	401a40 <SystemCoreClockUpdate+0x78>
  401a34:	2b20      	cmp	r3, #32
  401a36:	d1d0      	bne.n	4019da <SystemCoreClockUpdate+0x12>
            SystemCoreClock *= 3U;
  401a38:	4a22      	ldr	r2, [pc, #136]	; (401ac4 <SystemCoreClockUpdate+0xfc>)
  401a3a:	4b20      	ldr	r3, [pc, #128]	; (401abc <SystemCoreClockUpdate+0xf4>)
  401a3c:	601a      	str	r2, [r3, #0]
          break;
  401a3e:	e7cc      	b.n	4019da <SystemCoreClockUpdate+0x12>
            SystemCoreClock *= 2U;
  401a40:	4a22      	ldr	r2, [pc, #136]	; (401acc <SystemCoreClockUpdate+0x104>)
  401a42:	4b1e      	ldr	r3, [pc, #120]	; (401abc <SystemCoreClockUpdate+0xf4>)
  401a44:	601a      	str	r2, [r3, #0]
          break;
  401a46:	e7c8      	b.n	4019da <SystemCoreClockUpdate+0x12>
      if ( PMC->CKGR_MOR & CKGR_MOR_MOSCSEL )
  401a48:	4b1b      	ldr	r3, [pc, #108]	; (401ab8 <SystemCoreClockUpdate+0xf0>)
  401a4a:	6a1b      	ldr	r3, [r3, #32]
  401a4c:	f013 7f80 	tst.w	r3, #16777216	; 0x1000000
  401a50:	d016      	beq.n	401a80 <SystemCoreClockUpdate+0xb8>
        SystemCoreClock = CHIP_FREQ_XTAL_12M ;
  401a52:	4a1c      	ldr	r2, [pc, #112]	; (401ac4 <SystemCoreClockUpdate+0xfc>)
  401a54:	4b19      	ldr	r3, [pc, #100]	; (401abc <SystemCoreClockUpdate+0xf4>)
  401a56:	601a      	str	r2, [r3, #0]
      if ( (uint32_t) (PMC->PMC_MCKR & (uint32_t) PMC_MCKR_CSS_Msk) == PMC_MCKR_CSS_PLLA_CLK )
  401a58:	4b17      	ldr	r3, [pc, #92]	; (401ab8 <SystemCoreClockUpdate+0xf0>)
  401a5a:	6b1b      	ldr	r3, [r3, #48]	; 0x30
  401a5c:	f003 0303 	and.w	r3, r3, #3
  401a60:	2b02      	cmp	r3, #2
  401a62:	d1ba      	bne.n	4019da <SystemCoreClockUpdate+0x12>
        SystemCoreClock *= ((((PMC->CKGR_PLLAR) & CKGR_PLLAR_MULA_Msk) >> CKGR_PLLAR_MULA_Pos) + 1U);
  401a64:	4a14      	ldr	r2, [pc, #80]	; (401ab8 <SystemCoreClockUpdate+0xf0>)
  401a66:	6a91      	ldr	r1, [r2, #40]	; 0x28
        SystemCoreClock /= ((((PMC->CKGR_PLLAR) & CKGR_PLLAR_DIVA_Msk) >> CKGR_PLLAR_DIVA_Pos));
  401a68:	6a92      	ldr	r2, [r2, #40]	; 0x28
  401a6a:	4814      	ldr	r0, [pc, #80]	; (401abc <SystemCoreClockUpdate+0xf4>)
        SystemCoreClock *= ((((PMC->CKGR_PLLAR) & CKGR_PLLAR_MULA_Msk) >> CKGR_PLLAR_MULA_Pos) + 1U);
  401a6c:	f3c1 410a 	ubfx	r1, r1, #16, #11
  401a70:	6803      	ldr	r3, [r0, #0]
  401a72:	fb01 3303 	mla	r3, r1, r3, r3
        SystemCoreClock /= ((((PMC->CKGR_PLLAR) & CKGR_PLLAR_DIVA_Msk) >> CKGR_PLLAR_DIVA_Pos));
  401a76:	b2d2      	uxtb	r2, r2
  401a78:	fbb3 f3f2 	udiv	r3, r3, r2
  401a7c:	6003      	str	r3, [r0, #0]
  401a7e:	e7ac      	b.n	4019da <SystemCoreClockUpdate+0x12>
        SystemCoreClock = CHIP_FREQ_MAINCK_RC_4MHZ;
  401a80:	4a11      	ldr	r2, [pc, #68]	; (401ac8 <SystemCoreClockUpdate+0x100>)
  401a82:	4b0e      	ldr	r3, [pc, #56]	; (401abc <SystemCoreClockUpdate+0xf4>)
  401a84:	601a      	str	r2, [r3, #0]
        switch ( PMC->CKGR_MOR & CKGR_MOR_MOSCRCF_Msk )
  401a86:	4b0c      	ldr	r3, [pc, #48]	; (401ab8 <SystemCoreClockUpdate+0xf0>)
  401a88:	6a1b      	ldr	r3, [r3, #32]
  401a8a:	f003 0370 	and.w	r3, r3, #112	; 0x70
  401a8e:	2b10      	cmp	r3, #16
  401a90:	d005      	beq.n	401a9e <SystemCoreClockUpdate+0xd6>
  401a92:	2b20      	cmp	r3, #32
  401a94:	d1e0      	bne.n	401a58 <SystemCoreClockUpdate+0x90>
            SystemCoreClock *= 3U;
  401a96:	4a0b      	ldr	r2, [pc, #44]	; (401ac4 <SystemCoreClockUpdate+0xfc>)
  401a98:	4b08      	ldr	r3, [pc, #32]	; (401abc <SystemCoreClockUpdate+0xf4>)
  401a9a:	601a      	str	r2, [r3, #0]
          break;
  401a9c:	e7dc      	b.n	401a58 <SystemCoreClockUpdate+0x90>
            SystemCoreClock *= 2U;
  401a9e:	4a0b      	ldr	r2, [pc, #44]	; (401acc <SystemCoreClockUpdate+0x104>)
  401aa0:	4b06      	ldr	r3, [pc, #24]	; (401abc <SystemCoreClockUpdate+0xf4>)
  401aa2:	601a      	str	r2, [r3, #0]
          break;
  401aa4:	e7d8      	b.n	401a58 <SystemCoreClockUpdate+0x90>
    SystemCoreClock /= 3U;
  401aa6:	4a05      	ldr	r2, [pc, #20]	; (401abc <SystemCoreClockUpdate+0xf4>)
  401aa8:	6813      	ldr	r3, [r2, #0]
  401aaa:	4909      	ldr	r1, [pc, #36]	; (401ad0 <SystemCoreClockUpdate+0x108>)
  401aac:	fba1 1303 	umull	r1, r3, r1, r3
  401ab0:	085b      	lsrs	r3, r3, #1
  401ab2:	6013      	str	r3, [r2, #0]
  401ab4:	4770      	bx	lr
  401ab6:	bf00      	nop
  401ab8:	400e0600 	.word	0x400e0600
  401abc:	20400004 	.word	0x20400004
  401ac0:	400e1810 	.word	0x400e1810
  401ac4:	00b71b00 	.word	0x00b71b00
  401ac8:	003d0900 	.word	0x003d0900
  401acc:	007a1200 	.word	0x007a1200
  401ad0:	aaaaaaab 	.word	0xaaaaaaab

00401ad4 <system_init_flash>:
 * Initialize flash.
 */
void system_init_flash( uint32_t ul_clk )
{
  /* Set FWS for embedded Flash access according to operating frequency */
  if ( ul_clk < CHIP_FREQ_FWS_0 )
  401ad4:	4b12      	ldr	r3, [pc, #72]	; (401b20 <system_init_flash+0x4c>)
  401ad6:	4298      	cmp	r0, r3
  401ad8:	d911      	bls.n	401afe <system_init_flash+0x2a>
  {
    EFC->EEFC_FMR = EEFC_FMR_FWS(0)|EEFC_FMR_CLOE;
  }
  else
  {
    if (ul_clk < CHIP_FREQ_FWS_1)
  401ada:	4b12      	ldr	r3, [pc, #72]	; (401b24 <system_init_flash+0x50>)
  401adc:	4298      	cmp	r0, r3
  401ade:	d913      	bls.n	401b08 <system_init_flash+0x34>
    {
      EFC->EEFC_FMR = EEFC_FMR_FWS(1)|EEFC_FMR_CLOE;
    }
    else
    {
      if (ul_clk < CHIP_FREQ_FWS_2)
  401ae0:	4b11      	ldr	r3, [pc, #68]	; (401b28 <system_init_flash+0x54>)
  401ae2:	4298      	cmp	r0, r3
  401ae4:	d914      	bls.n	401b10 <system_init_flash+0x3c>
      {
        EFC->EEFC_FMR = EEFC_FMR_FWS(2)|EEFC_FMR_CLOE;
      }
      else
      {
        if ( ul_clk < CHIP_FREQ_FWS_3 )
  401ae6:	4b11      	ldr	r3, [pc, #68]	; (401b2c <system_init_flash+0x58>)
  401ae8:	4298      	cmp	r0, r3
  401aea:	d915      	bls.n	401b18 <system_init_flash+0x44>
        {
          EFC->EEFC_FMR = EEFC_FMR_FWS(3)|EEFC_FMR_CLOE;
        }
        else
        {
          if ( ul_clk < CHIP_FREQ_FWS_4 )
  401aec:	4b10      	ldr	r3, [pc, #64]	; (401b30 <system_init_flash+0x5c>)
  401aee:	4298      	cmp	r0, r3
          {
            EFC->EEFC_FMR = EEFC_FMR_FWS(4)|EEFC_FMR_CLOE;
  401af0:	bf94      	ite	ls
  401af2:	f04f 2204 	movls.w	r2, #67109888	; 0x4000400
          }
          else
          {
            EFC->EEFC_FMR = EEFC_FMR_FWS(5)|EEFC_FMR_CLOE;
  401af6:	4a0f      	ldrhi	r2, [pc, #60]	; (401b34 <system_init_flash+0x60>)
  401af8:	4b0f      	ldr	r3, [pc, #60]	; (401b38 <system_init_flash+0x64>)
  401afa:	601a      	str	r2, [r3, #0]
  401afc:	4770      	bx	lr
    EFC->EEFC_FMR = EEFC_FMR_FWS(0)|EEFC_FMR_CLOE;
  401afe:	f04f 6280 	mov.w	r2, #67108864	; 0x4000000
  401b02:	4b0d      	ldr	r3, [pc, #52]	; (401b38 <system_init_flash+0x64>)
  401b04:	601a      	str	r2, [r3, #0]
  401b06:	4770      	bx	lr
      EFC->EEFC_FMR = EEFC_FMR_FWS(1)|EEFC_FMR_CLOE;
  401b08:	4a0c      	ldr	r2, [pc, #48]	; (401b3c <system_init_flash+0x68>)
  401b0a:	4b0b      	ldr	r3, [pc, #44]	; (401b38 <system_init_flash+0x64>)
  401b0c:	601a      	str	r2, [r3, #0]
  401b0e:	4770      	bx	lr
        EFC->EEFC_FMR = EEFC_FMR_FWS(2)|EEFC_FMR_CLOE;
  401b10:	4a0b      	ldr	r2, [pc, #44]	; (401b40 <system_init_flash+0x6c>)
  401b12:	4b09      	ldr	r3, [pc, #36]	; (401b38 <system_init_flash+0x64>)
  401b14:	601a      	str	r2, [r3, #0]
  401b16:	4770      	bx	lr
          EFC->EEFC_FMR = EEFC_FMR_FWS(3)|EEFC_FMR_CLOE;
  401b18:	4a0a      	ldr	r2, [pc, #40]	; (401b44 <system_init_flash+0x70>)
  401b1a:	4b07      	ldr	r3, [pc, #28]	; (401b38 <system_init_flash+0x64>)
  401b1c:	601a      	str	r2, [r3, #0]
  401b1e:	4770      	bx	lr
  401b20:	01312cff 	.word	0x01312cff
  401b24:	026259ff 	.word	0x026259ff
  401b28:	039386ff 	.word	0x039386ff
  401b2c:	04c4b3ff 	.word	0x04c4b3ff
  401b30:	05f5e0ff 	.word	0x05f5e0ff
  401b34:	04000500 	.word	0x04000500
  401b38:	400e0c00 	.word	0x400e0c00
  401b3c:	04000100 	.word	0x04000100
  401b40:	04000200 	.word	0x04000200
  401b44:	04000300 	.word	0x04000300

00401b48 <_sbrk>:
{
	static unsigned char *heap = NULL;
	unsigned char *prev_heap;
	int ramend = (int)&__ram_end__;

	if (heap == NULL) {
  401b48:	4b0a      	ldr	r3, [pc, #40]	; (401b74 <_sbrk+0x2c>)
  401b4a:	681b      	ldr	r3, [r3, #0]
  401b4c:	b153      	cbz	r3, 401b64 <_sbrk+0x1c>
		heap = (unsigned char *)&_end;
	}
	prev_heap = heap;
  401b4e:	4b09      	ldr	r3, [pc, #36]	; (401b74 <_sbrk+0x2c>)
  401b50:	681b      	ldr	r3, [r3, #0]

	if (((int)prev_heap + incr) > ramend) {
  401b52:	181a      	adds	r2, r3, r0
  401b54:	4908      	ldr	r1, [pc, #32]	; (401b78 <_sbrk+0x30>)
  401b56:	4291      	cmp	r1, r2
  401b58:	db08      	blt.n	401b6c <_sbrk+0x24>
		return (caddr_t) -1;	
	}

	heap += incr;
  401b5a:	4610      	mov	r0, r2
  401b5c:	4a05      	ldr	r2, [pc, #20]	; (401b74 <_sbrk+0x2c>)
  401b5e:	6010      	str	r0, [r2, #0]

	return (caddr_t) prev_heap;
  401b60:	4618      	mov	r0, r3
  401b62:	4770      	bx	lr
		heap = (unsigned char *)&_end;
  401b64:	4a05      	ldr	r2, [pc, #20]	; (401b7c <_sbrk+0x34>)
  401b66:	4b03      	ldr	r3, [pc, #12]	; (401b74 <_sbrk+0x2c>)
  401b68:	601a      	str	r2, [r3, #0]
  401b6a:	e7f0      	b.n	401b4e <_sbrk+0x6>
		return (caddr_t) -1;	
  401b6c:	f04f 30ff 	mov.w	r0, #4294967295
}
  401b70:	4770      	bx	lr
  401b72:	bf00      	nop
  401b74:	20400e08 	.word	0x20400e08
  401b78:	2045fffc 	.word	0x2045fffc
  401b7c:	204031a0 	.word	0x204031a0

00401b80 <_close>:
}

extern int _close(int file)
{
	return -1;
}
  401b80:	f04f 30ff 	mov.w	r0, #4294967295
  401b84:	4770      	bx	lr

00401b86 <_fstat>:

extern int _fstat(int file, struct stat *st)
{
	st->st_mode = S_IFCHR;
  401b86:	f44f 5300 	mov.w	r3, #8192	; 0x2000
  401b8a:	604b      	str	r3, [r1, #4]

	return 0;
}
  401b8c:	2000      	movs	r0, #0
  401b8e:	4770      	bx	lr

00401b90 <_isatty>:

extern int _isatty(int file)
{
	return 1;
}
  401b90:	2001      	movs	r0, #1
  401b92:	4770      	bx	lr

00401b94 <_lseek>:

extern int _lseek(int file, int ptr, int dir)
{
	return 0;
}
  401b94:	2000      	movs	r0, #0
  401b96:	4770      	bx	lr

00401b98 <vListInsertEnd>:

	/* Insert a new list item into pxList, but rather than sort the list,
	makes the new list item the last item to be removed by a call to
	pvListGetOwnerOfNextEntry.  This means it has to be the item pointed to by
	the pxIndex member. */
	pxIndex = pxList->pxIndex;
  401b98:	6843      	ldr	r3, [r0, #4]

	pxNewListItem->pxNext = pxIndex->pxNext;
  401b9a:	685a      	ldr	r2, [r3, #4]
  401b9c:	604a      	str	r2, [r1, #4]
	pxNewListItem->pxPrevious = pxList->pxIndex;
  401b9e:	6842      	ldr	r2, [r0, #4]
  401ba0:	608a      	str	r2, [r1, #8]
	pxIndex->pxNext->pxPrevious = ( volatile xListItem * ) pxNewListItem;
  401ba2:	685a      	ldr	r2, [r3, #4]
  401ba4:	6091      	str	r1, [r2, #8]
	pxIndex->pxNext = ( volatile xListItem * ) pxNewListItem;
  401ba6:	6059      	str	r1, [r3, #4]
	pxList->pxIndex = ( volatile xListItem * ) pxNewListItem;
  401ba8:	6041      	str	r1, [r0, #4]

	/* Remember which list the item is in. */
	pxNewListItem->pvContainer = ( void * ) pxList;
  401baa:	6108      	str	r0, [r1, #16]

	( pxList->uxNumberOfItems )++;
  401bac:	6803      	ldr	r3, [r0, #0]
  401bae:	3301      	adds	r3, #1
  401bb0:	6003      	str	r3, [r0, #0]
  401bb2:	4770      	bx	lr

00401bb4 <uxListRemove>:

unsigned portBASE_TYPE uxListRemove( xListItem *pxItemToRemove )
{
xList * pxList;

	pxItemToRemove->pxNext->pxPrevious = pxItemToRemove->pxPrevious;
  401bb4:	6843      	ldr	r3, [r0, #4]
  401bb6:	6882      	ldr	r2, [r0, #8]
  401bb8:	609a      	str	r2, [r3, #8]
	pxItemToRemove->pxPrevious->pxNext = pxItemToRemove->pxNext;
  401bba:	6883      	ldr	r3, [r0, #8]
  401bbc:	6842      	ldr	r2, [r0, #4]
  401bbe:	605a      	str	r2, [r3, #4]

	/* The list item knows which list it is in.  Obtain the list from the list
	item. */
	pxList = ( xList * ) pxItemToRemove->pvContainer;
  401bc0:	6903      	ldr	r3, [r0, #16]

	/* Make sure the index is left pointing to a valid item. */
	if( pxList->pxIndex == pxItemToRemove )
  401bc2:	685a      	ldr	r2, [r3, #4]
  401bc4:	4290      	cmp	r0, r2
  401bc6:	d006      	beq.n	401bd6 <uxListRemove+0x22>
	{
		pxList->pxIndex = pxItemToRemove->pxPrevious;
	}

	pxItemToRemove->pvContainer = NULL;
  401bc8:	2200      	movs	r2, #0
  401bca:	6102      	str	r2, [r0, #16]
	( pxList->uxNumberOfItems )--;
  401bcc:	681a      	ldr	r2, [r3, #0]
  401bce:	3a01      	subs	r2, #1
  401bd0:	601a      	str	r2, [r3, #0]

	return pxList->uxNumberOfItems;
  401bd2:	6818      	ldr	r0, [r3, #0]
}
  401bd4:	4770      	bx	lr
		pxList->pxIndex = pxItemToRemove->pxPrevious;
  401bd6:	6882      	ldr	r2, [r0, #8]
  401bd8:	605a      	str	r2, [r3, #4]
  401bda:	e7f5      	b.n	401bc8 <uxListRemove+0x14>

00401bdc <SVC_Handler>:
/*-----------------------------------------------------------*/

/*void vPortSVCHandler( void )*/ /* ATMEL */
__attribute__ ((naked)) void SVC_Handler( void )
{
	__asm volatile (
  401bdc:	4b05      	ldr	r3, [pc, #20]	; (401bf4 <pxCurrentTCBConst2>)
  401bde:	6819      	ldr	r1, [r3, #0]
  401be0:	6808      	ldr	r0, [r1, #0]
  401be2:	e8b0 4ff0 	ldmia.w	r0!, {r4, r5, r6, r7, r8, r9, sl, fp, lr}
  401be6:	f380 8809 	msr	PSP, r0
  401bea:	f04f 0000 	mov.w	r0, #0
  401bee:	f380 8811 	msr	BASEPRI, r0
  401bf2:	4770      	bx	lr

00401bf4 <pxCurrentTCBConst2>:
  401bf4:	20400e0c 	.word	0x20400e0c

00401bf8 <ulPortSetInterruptMask>:

/*-----------------------------------------------------------*/

__attribute__((naked)) unsigned long ulPortSetInterruptMask( void )
{
	__asm volatile \
  401bf8:	f3ef 8011 	mrs	r0, BASEPRI
  401bfc:	f04f 01a0 	mov.w	r1, #160	; 0xa0
  401c00:	f381 8811 	msr	BASEPRI, r1
  401c04:	4770      	bx	lr
	);

	/* This return will not be reached but is necessary to prevent compiler
	 * warnings. */
	return 0;
}
  401c06:	2000      	movs	r0, #0

00401c08 <vPortClearInterruptMask>:
/*-----------------------------------------------------------*/

__attribute__((naked)) void vPortClearInterruptMask(
		unsigned long ulNewMaskValue )
{
	__asm volatile \
  401c08:	f380 8811 	msr	BASEPRI, r0
  401c0c:	4770      	bx	lr
	...

00401c10 <PendSV_Handler>:
/*void xPortPendSVHandler( void )*/
__attribute__((naked)) void PendSV_Handler( void )   /* ATMEL */
{
	/* This is a naked function. */

	__asm volatile
  401c10:	f3ef 8009 	mrs	r0, PSP
  401c14:	4b11      	ldr	r3, [pc, #68]	; (401c5c <pxCurrentTCBConst>)
  401c16:	681a      	ldr	r2, [r3, #0]
  401c18:	f01e 0f10 	tst.w	lr, #16
  401c1c:	bf08      	it	eq
  401c1e:	ed20 8a10 	vstmdbeq	r0!, {s16-s31}
  401c22:	e920 4ff0 	stmdb	r0!, {r4, r5, r6, r7, r8, r9, sl, fp, lr}
  401c26:	6010      	str	r0, [r2, #0]
  401c28:	e92d 4008 	stmdb	sp!, {r3, lr}
  401c2c:	f04f 00a0 	mov.w	r0, #160	; 0xa0
  401c30:	f380 8811 	msr	BASEPRI, r0
  401c34:	f000 f8bc 	bl	401db0 <vTaskSwitchContext>
  401c38:	f04f 0000 	mov.w	r0, #0
  401c3c:	f380 8811 	msr	BASEPRI, r0
  401c40:	e8bd 4008 	ldmia.w	sp!, {r3, lr}
  401c44:	6819      	ldr	r1, [r3, #0]
  401c46:	6808      	ldr	r0, [r1, #0]
  401c48:	e8b0 4ff0 	ldmia.w	r0!, {r4, r5, r6, r7, r8, r9, sl, fp, lr}
  401c4c:	f01e 0f10 	tst.w	lr, #16
  401c50:	bf08      	it	eq
  401c52:	ecb0 8a10 	vldmiaeq	r0!, {s16-s31}
  401c56:	f380 8809 	msr	PSP, r0
  401c5a:	4770      	bx	lr

00401c5c <pxCurrentTCBConst>:
  401c5c:	20400e0c 	.word	0x20400e0c

00401c60 <SysTick_Handler>:
	);
}

/*-----------------------------------------------------------*/
void SysTick_Handler( void ) /* ATMEL */
{
  401c60:	b508      	push	{r3, lr}
	/* If using preemption, also force a context switch. */
	#if configUSE_PREEMPTION == 1
	portNVIC_INT_CTRL_REG = portNVIC_PENDSVSET_BIT;
  401c62:	f04f 5280 	mov.w	r2, #268435456	; 0x10000000
  401c66:	4b05      	ldr	r3, [pc, #20]	; (401c7c <SysTick_Handler+0x1c>)
  401c68:	601a      	str	r2, [r3, #0]
	#endif

	(void)portSET_INTERRUPT_MASK_FROM_ISR();
  401c6a:	4b05      	ldr	r3, [pc, #20]	; (401c80 <SysTick_Handler+0x20>)
  401c6c:	4798      	blx	r3
	{
		vTaskIncrementTick();
  401c6e:	4b05      	ldr	r3, [pc, #20]	; (401c84 <SysTick_Handler+0x24>)
  401c70:	4798      	blx	r3
	}
	portCLEAR_INTERRUPT_MASK_FROM_ISR( 0 );
  401c72:	2000      	movs	r0, #0
  401c74:	4b04      	ldr	r3, [pc, #16]	; (401c88 <SysTick_Handler+0x28>)
  401c76:	4798      	blx	r3
  401c78:	bd08      	pop	{r3, pc}
  401c7a:	bf00      	nop
  401c7c:	e000ed04 	.word	0xe000ed04
  401c80:	00401bf9 	.word	0x00401bf9
  401c84:	00401c8d 	.word	0x00401c8d
  401c88:	00401c09 	.word	0x00401c09

00401c8c <vTaskIncrementTick>:

	/* Called by the portable layer each time a tick interrupt occurs.
	Increments the tick then checks to see if the new tick value will cause any
	tasks to be unblocked. */
	traceTASK_INCREMENT_TICK( xTickCount );
	if( uxSchedulerSuspended == ( unsigned portBASE_TYPE ) pdFALSE )
  401c8c:	4b3c      	ldr	r3, [pc, #240]	; (401d80 <vTaskIncrementTick+0xf4>)
  401c8e:	681b      	ldr	r3, [r3, #0]
  401c90:	2b00      	cmp	r3, #0
  401c92:	d16e      	bne.n	401d72 <vTaskIncrementTick+0xe6>
{
  401c94:	e92d 41f0 	stmdb	sp!, {r4, r5, r6, r7, r8, lr}
	{
		++xTickCount;
  401c98:	4b3a      	ldr	r3, [pc, #232]	; (401d84 <vTaskIncrementTick+0xf8>)
  401c9a:	681a      	ldr	r2, [r3, #0]
  401c9c:	3201      	adds	r2, #1
  401c9e:	601a      	str	r2, [r3, #0]
		if( xTickCount == ( portTickType ) 0U )
  401ca0:	681b      	ldr	r3, [r3, #0]
  401ca2:	b9ab      	cbnz	r3, 401cd0 <vTaskIncrementTick+0x44>
			xList *pxTemp;

			/* Tick count has overflowed so we need to swap the delay lists.
			If there are any items in pxDelayedTaskList here then there is
			an error! */
			configASSERT( ( listLIST_IS_EMPTY( pxDelayedTaskList ) ) );
  401ca4:	4b38      	ldr	r3, [pc, #224]	; (401d88 <vTaskIncrementTick+0xfc>)
  401ca6:	681b      	ldr	r3, [r3, #0]
  401ca8:	681b      	ldr	r3, [r3, #0]
  401caa:	2b00      	cmp	r3, #0
  401cac:	d128      	bne.n	401d00 <vTaskIncrementTick+0x74>

			pxTemp = pxDelayedTaskList;
  401cae:	4b36      	ldr	r3, [pc, #216]	; (401d88 <vTaskIncrementTick+0xfc>)
  401cb0:	6819      	ldr	r1, [r3, #0]
			pxDelayedTaskList = pxOverflowDelayedTaskList;
  401cb2:	4a36      	ldr	r2, [pc, #216]	; (401d8c <vTaskIncrementTick+0x100>)
  401cb4:	6810      	ldr	r0, [r2, #0]
  401cb6:	6018      	str	r0, [r3, #0]
			pxOverflowDelayedTaskList = pxTemp;
  401cb8:	6011      	str	r1, [r2, #0]
			xNumOfOverflows++;
  401cba:	4935      	ldr	r1, [pc, #212]	; (401d90 <vTaskIncrementTick+0x104>)
  401cbc:	680a      	ldr	r2, [r1, #0]
  401cbe:	3201      	adds	r2, #1
  401cc0:	600a      	str	r2, [r1, #0]

			if( listLIST_IS_EMPTY( pxDelayedTaskList ) != pdFALSE )
  401cc2:	681b      	ldr	r3, [r3, #0]
  401cc4:	681b      	ldr	r3, [r3, #0]
  401cc6:	b9fb      	cbnz	r3, 401d08 <vTaskIncrementTick+0x7c>
				/* The new current delayed list is empty.  Set
				xNextTaskUnblockTime to the maximum possible value so it is
				extremely unlikely that the
				if( xTickCount >= xNextTaskUnblockTime ) test will pass until
				there is an item in the delayed list. */
				xNextTaskUnblockTime = portMAX_DELAY;
  401cc8:	f04f 32ff 	mov.w	r2, #4294967295
  401ccc:	4b31      	ldr	r3, [pc, #196]	; (401d94 <vTaskIncrementTick+0x108>)
  401cce:	601a      	str	r2, [r3, #0]
				xNextTaskUnblockTime = listGET_LIST_ITEM_VALUE( &( pxTCB->xGenericListItem ) );
			}
		}

		/* See if this tick has made a timeout expire. */
		prvCheckDelayedTasks();
  401cd0:	4b2c      	ldr	r3, [pc, #176]	; (401d84 <vTaskIncrementTick+0xf8>)
  401cd2:	681a      	ldr	r2, [r3, #0]
  401cd4:	4b2f      	ldr	r3, [pc, #188]	; (401d94 <vTaskIncrementTick+0x108>)
  401cd6:	681b      	ldr	r3, [r3, #0]
  401cd8:	429a      	cmp	r2, r3
  401cda:	d34f      	bcc.n	401d7c <vTaskIncrementTick+0xf0>
  401cdc:	4b2a      	ldr	r3, [pc, #168]	; (401d88 <vTaskIncrementTick+0xfc>)
  401cde:	681b      	ldr	r3, [r3, #0]
  401ce0:	681b      	ldr	r3, [r3, #0]
  401ce2:	b1cb      	cbz	r3, 401d18 <vTaskIncrementTick+0x8c>
  401ce4:	4b28      	ldr	r3, [pc, #160]	; (401d88 <vTaskIncrementTick+0xfc>)
  401ce6:	681b      	ldr	r3, [r3, #0]
  401ce8:	68db      	ldr	r3, [r3, #12]
  401cea:	68dc      	ldr	r4, [r3, #12]
  401cec:	6863      	ldr	r3, [r4, #4]
  401cee:	4a25      	ldr	r2, [pc, #148]	; (401d84 <vTaskIncrementTick+0xf8>)
  401cf0:	6812      	ldr	r2, [r2, #0]
  401cf2:	4293      	cmp	r3, r2
  401cf4:	d816      	bhi.n	401d24 <vTaskIncrementTick+0x98>
  401cf6:	4e28      	ldr	r6, [pc, #160]	; (401d98 <vTaskIncrementTick+0x10c>)
  401cf8:	4f28      	ldr	r7, [pc, #160]	; (401d9c <vTaskIncrementTick+0x110>)
  401cfa:	f8df 80b0 	ldr.w	r8, [pc, #176]	; 401dac <vTaskIncrementTick+0x120>
  401cfe:	e02a      	b.n	401d56 <vTaskIncrementTick+0xca>
			configASSERT( ( listLIST_IS_EMPTY( pxDelayedTaskList ) ) );
  401d00:	4b27      	ldr	r3, [pc, #156]	; (401da0 <vTaskIncrementTick+0x114>)
  401d02:	4798      	blx	r3
  401d04:	bf00      	nop
  401d06:	e7fd      	b.n	401d04 <vTaskIncrementTick+0x78>
				pxTCB = ( tskTCB * ) listGET_OWNER_OF_HEAD_ENTRY( pxDelayedTaskList );
  401d08:	4b1f      	ldr	r3, [pc, #124]	; (401d88 <vTaskIncrementTick+0xfc>)
  401d0a:	681b      	ldr	r3, [r3, #0]
  401d0c:	68db      	ldr	r3, [r3, #12]
  401d0e:	68db      	ldr	r3, [r3, #12]
				xNextTaskUnblockTime = listGET_LIST_ITEM_VALUE( &( pxTCB->xGenericListItem ) );
  401d10:	685a      	ldr	r2, [r3, #4]
  401d12:	4b20      	ldr	r3, [pc, #128]	; (401d94 <vTaskIncrementTick+0x108>)
  401d14:	601a      	str	r2, [r3, #0]
  401d16:	e7db      	b.n	401cd0 <vTaskIncrementTick+0x44>
		prvCheckDelayedTasks();
  401d18:	f04f 32ff 	mov.w	r2, #4294967295
  401d1c:	4b1d      	ldr	r3, [pc, #116]	; (401d94 <vTaskIncrementTick+0x108>)
  401d1e:	601a      	str	r2, [r3, #0]
  401d20:	e8bd 81f0 	ldmia.w	sp!, {r4, r5, r6, r7, r8, pc}
  401d24:	4a1b      	ldr	r2, [pc, #108]	; (401d94 <vTaskIncrementTick+0x108>)
  401d26:	6013      	str	r3, [r2, #0]
  401d28:	e8bd 81f0 	ldmia.w	sp!, {r4, r5, r6, r7, r8, pc}
  401d2c:	eb00 0080 	add.w	r0, r0, r0, lsl #2
  401d30:	4629      	mov	r1, r5
  401d32:	eb08 0080 	add.w	r0, r8, r0, lsl #2
  401d36:	4b1b      	ldr	r3, [pc, #108]	; (401da4 <vTaskIncrementTick+0x118>)
  401d38:	4798      	blx	r3
  401d3a:	4b13      	ldr	r3, [pc, #76]	; (401d88 <vTaskIncrementTick+0xfc>)
  401d3c:	681b      	ldr	r3, [r3, #0]
  401d3e:	681b      	ldr	r3, [r3, #0]
  401d40:	2b00      	cmp	r3, #0
  401d42:	d0e9      	beq.n	401d18 <vTaskIncrementTick+0x8c>
  401d44:	4b10      	ldr	r3, [pc, #64]	; (401d88 <vTaskIncrementTick+0xfc>)
  401d46:	681b      	ldr	r3, [r3, #0]
  401d48:	68db      	ldr	r3, [r3, #12]
  401d4a:	68dc      	ldr	r4, [r3, #12]
  401d4c:	6863      	ldr	r3, [r4, #4]
  401d4e:	4a0d      	ldr	r2, [pc, #52]	; (401d84 <vTaskIncrementTick+0xf8>)
  401d50:	6812      	ldr	r2, [r2, #0]
  401d52:	4293      	cmp	r3, r2
  401d54:	d8e6      	bhi.n	401d24 <vTaskIncrementTick+0x98>
  401d56:	1d25      	adds	r5, r4, #4
  401d58:	4628      	mov	r0, r5
  401d5a:	47b0      	blx	r6
  401d5c:	6aa3      	ldr	r3, [r4, #40]	; 0x28
  401d5e:	b113      	cbz	r3, 401d66 <vTaskIncrementTick+0xda>
  401d60:	f104 0018 	add.w	r0, r4, #24
  401d64:	47b0      	blx	r6
  401d66:	6ae0      	ldr	r0, [r4, #44]	; 0x2c
  401d68:	683b      	ldr	r3, [r7, #0]
  401d6a:	4298      	cmp	r0, r3
  401d6c:	d9de      	bls.n	401d2c <vTaskIncrementTick+0xa0>
  401d6e:	6038      	str	r0, [r7, #0]
  401d70:	e7dc      	b.n	401d2c <vTaskIncrementTick+0xa0>
	}
	else
	{
		++uxMissedTicks;
  401d72:	4a0d      	ldr	r2, [pc, #52]	; (401da8 <vTaskIncrementTick+0x11c>)
  401d74:	6813      	ldr	r3, [r2, #0]
  401d76:	3301      	adds	r3, #1
  401d78:	6013      	str	r3, [r2, #0]
		{
			vApplicationTickHook();
		}
	}
	#endif
}
  401d7a:	4770      	bx	lr
  401d7c:	e8bd 81f0 	ldmia.w	sp!, {r4, r5, r6, r7, r8, pc}
  401d80:	20400e80 	.word	0x20400e80
  401d84:	20400e90 	.word	0x20400e90
  401d88:	20400e10 	.word	0x20400e10
  401d8c:	20400e14 	.word	0x20400e14
  401d90:	20400e8c 	.word	0x20400e8c
  401d94:	20400008 	.word	0x20400008
  401d98:	00401bb5 	.word	0x00401bb5
  401d9c:	20400e84 	.word	0x20400e84
  401da0:	00401bf9 	.word	0x00401bf9
  401da4:	00401b99 	.word	0x00401b99
  401da8:	20400e7c 	.word	0x20400e7c
  401dac:	20400e18 	.word	0x20400e18

00401db0 <vTaskSwitchContext>:
#endif
/*-----------------------------------------------------------*/

void vTaskSwitchContext( void )
{
	if( uxSchedulerSuspended != ( unsigned portBASE_TYPE ) pdFALSE )
  401db0:	4b21      	ldr	r3, [pc, #132]	; (401e38 <vTaskSwitchContext+0x88>)
  401db2:	681b      	ldr	r3, [r3, #0]
  401db4:	b9eb      	cbnz	r3, 401df2 <vTaskSwitchContext+0x42>
{
  401db6:	b510      	push	{r4, lr}
		#endif

		taskFIRST_CHECK_FOR_STACK_OVERFLOW();
		taskSECOND_CHECK_FOR_STACK_OVERFLOW();

		taskSELECT_HIGHEST_PRIORITY_TASK();
  401db8:	4b20      	ldr	r3, [pc, #128]	; (401e3c <vTaskSwitchContext+0x8c>)
  401dba:	681b      	ldr	r3, [r3, #0]
  401dbc:	eb03 0383 	add.w	r3, r3, r3, lsl #2
  401dc0:	009b      	lsls	r3, r3, #2
  401dc2:	4a1f      	ldr	r2, [pc, #124]	; (401e40 <vTaskSwitchContext+0x90>)
  401dc4:	58d3      	ldr	r3, [r2, r3]
  401dc6:	b9c3      	cbnz	r3, 401dfa <vTaskSwitchContext+0x4a>
  401dc8:	4b1c      	ldr	r3, [pc, #112]	; (401e3c <vTaskSwitchContext+0x8c>)
  401dca:	681b      	ldr	r3, [r3, #0]
  401dcc:	b16b      	cbz	r3, 401dea <vTaskSwitchContext+0x3a>
  401dce:	4a1b      	ldr	r2, [pc, #108]	; (401e3c <vTaskSwitchContext+0x8c>)
  401dd0:	491b      	ldr	r1, [pc, #108]	; (401e40 <vTaskSwitchContext+0x90>)
  401dd2:	6813      	ldr	r3, [r2, #0]
  401dd4:	3b01      	subs	r3, #1
  401dd6:	6013      	str	r3, [r2, #0]
  401dd8:	6813      	ldr	r3, [r2, #0]
  401dda:	eb03 0383 	add.w	r3, r3, r3, lsl #2
  401dde:	f851 3023 	ldr.w	r3, [r1, r3, lsl #2]
  401de2:	b953      	cbnz	r3, 401dfa <vTaskSwitchContext+0x4a>
  401de4:	6813      	ldr	r3, [r2, #0]
  401de6:	2b00      	cmp	r3, #0
  401de8:	d1f3      	bne.n	401dd2 <vTaskSwitchContext+0x22>
  401dea:	4b16      	ldr	r3, [pc, #88]	; (401e44 <vTaskSwitchContext+0x94>)
  401dec:	4798      	blx	r3
  401dee:	bf00      	nop
  401df0:	e7fd      	b.n	401dee <vTaskSwitchContext+0x3e>
		xMissedYield = pdTRUE;
  401df2:	2201      	movs	r2, #1
  401df4:	4b14      	ldr	r3, [pc, #80]	; (401e48 <vTaskSwitchContext+0x98>)
  401df6:	601a      	str	r2, [r3, #0]
  401df8:	4770      	bx	lr
		taskSELECT_HIGHEST_PRIORITY_TASK();
  401dfa:	4b10      	ldr	r3, [pc, #64]	; (401e3c <vTaskSwitchContext+0x8c>)
  401dfc:	681b      	ldr	r3, [r3, #0]
  401dfe:	4a10      	ldr	r2, [pc, #64]	; (401e40 <vTaskSwitchContext+0x90>)
  401e00:	0099      	lsls	r1, r3, #2
  401e02:	18c8      	adds	r0, r1, r3
  401e04:	eb02 0080 	add.w	r0, r2, r0, lsl #2
  401e08:	6844      	ldr	r4, [r0, #4]
  401e0a:	6864      	ldr	r4, [r4, #4]
  401e0c:	6044      	str	r4, [r0, #4]
  401e0e:	4419      	add	r1, r3
  401e10:	4602      	mov	r2, r0
  401e12:	3208      	adds	r2, #8
  401e14:	4294      	cmp	r4, r2
  401e16:	d009      	beq.n	401e2c <vTaskSwitchContext+0x7c>
  401e18:	eb03 0383 	add.w	r3, r3, r3, lsl #2
  401e1c:	4a08      	ldr	r2, [pc, #32]	; (401e40 <vTaskSwitchContext+0x90>)
  401e1e:	eb02 0383 	add.w	r3, r2, r3, lsl #2
  401e22:	685b      	ldr	r3, [r3, #4]
  401e24:	68da      	ldr	r2, [r3, #12]
  401e26:	4b09      	ldr	r3, [pc, #36]	; (401e4c <vTaskSwitchContext+0x9c>)
  401e28:	601a      	str	r2, [r3, #0]
  401e2a:	bd10      	pop	{r4, pc}
  401e2c:	6860      	ldr	r0, [r4, #4]
  401e2e:	4a04      	ldr	r2, [pc, #16]	; (401e40 <vTaskSwitchContext+0x90>)
  401e30:	eb02 0281 	add.w	r2, r2, r1, lsl #2
  401e34:	6050      	str	r0, [r2, #4]
  401e36:	e7ef      	b.n	401e18 <vTaskSwitchContext+0x68>
  401e38:	20400e80 	.word	0x20400e80
  401e3c:	20400e84 	.word	0x20400e84
  401e40:	20400e18 	.word	0x20400e18
  401e44:	00401bf9 	.word	0x00401bf9
  401e48:	20400e88 	.word	0x20400e88
  401e4c:	20400e0c 	.word	0x20400e0c

00401e50 <AFEC_Temp_callback>:
	afec->AFEC_CSELR = afec_ch;
  401e50:	4b04      	ldr	r3, [pc, #16]	; (401e64 <AFEC_Temp_callback+0x14>)
  401e52:	220b      	movs	r2, #11
  401e54:	665a      	str	r2, [r3, #100]	; 0x64
	return afec->AFEC_CDR;
  401e56:	6e9a      	ldr	r2, [r3, #104]	; 0x68
/**
 * \brief AFEC interrupt callback function.
 */
static void AFEC_Temp_callback(void)
{
	g_ul_value = afec_channel_get_value(AFEC0, AFEC_CHANNEL_TEMP_SENSOR);
  401e58:	4b03      	ldr	r3, [pc, #12]	; (401e68 <AFEC_Temp_callback+0x18>)
  401e5a:	601a      	str	r2, [r3, #0]
	is_conversion_done = true;
  401e5c:	2201      	movs	r2, #1
  401e5e:	4b03      	ldr	r3, [pc, #12]	; (401e6c <AFEC_Temp_callback+0x1c>)
  401e60:	701a      	strb	r2, [r3, #0]
  401e62:	4770      	bx	lr
  401e64:	4003c000 	.word	0x4003c000
  401e68:	20400e98 	.word	0x20400e98
  401e6c:	20400e9c 	.word	0x20400e9c

00401e70 <usart_serial_getchar>:
 * \param p_usart   Base address of the USART instance.
 * \param data   Data to read
 *
 */
static inline void usart_serial_getchar(usart_if p_usart, uint8_t *data)
{
  401e70:	b5f0      	push	{r4, r5, r6, r7, lr}
  401e72:	b083      	sub	sp, #12
  401e74:	4605      	mov	r5, r0
  401e76:	460c      	mov	r4, r1
	uint32_t val = 0;
  401e78:	2300      	movs	r3, #0
  401e7a:	9301      	str	r3, [sp, #4]
	if (UART == (Uart*)p_usart) {
		while (uart_read((Uart*)p_usart, data));
	}
#else
# ifdef UART0
	if (UART0 == (Uart*)p_usart) {
  401e7c:	4b2a      	ldr	r3, [pc, #168]	; (401f28 <usart_serial_getchar+0xb8>)
  401e7e:	4298      	cmp	r0, r3
  401e80:	d013      	beq.n	401eaa <usart_serial_getchar+0x3a>
		while (uart_read((Uart*)p_usart, data));
	}
# endif
# ifdef UART1
	if (UART1 == (Uart*)p_usart) {
  401e82:	4b2a      	ldr	r3, [pc, #168]	; (401f2c <usart_serial_getchar+0xbc>)
  401e84:	4298      	cmp	r0, r3
  401e86:	d018      	beq.n	401eba <usart_serial_getchar+0x4a>
		while (uart_read((Uart*)p_usart, data));
	}
# endif
# ifdef UART2
	if (UART2 == (Uart*)p_usart) {
  401e88:	4b29      	ldr	r3, [pc, #164]	; (401f30 <usart_serial_getchar+0xc0>)
  401e8a:	4298      	cmp	r0, r3
  401e8c:	d01d      	beq.n	401eca <usart_serial_getchar+0x5a>
		while (uart_read((Uart*)p_usart, data));
	}
# endif
# ifdef UART3
	if (UART3 == (Uart*)p_usart) {
  401e8e:	4b29      	ldr	r3, [pc, #164]	; (401f34 <usart_serial_getchar+0xc4>)
  401e90:	429d      	cmp	r5, r3
  401e92:	d022      	beq.n	401eda <usart_serial_getchar+0x6a>
		while (usart_read(p_usart, &val));
		*data = (uint8_t)(val & 0xFF);
	}
#else
# ifdef USART0
	if (USART0 == p_usart) {
  401e94:	4b28      	ldr	r3, [pc, #160]	; (401f38 <usart_serial_getchar+0xc8>)
  401e96:	429d      	cmp	r5, r3
  401e98:	d027      	beq.n	401eea <usart_serial_getchar+0x7a>
		while (usart_read(p_usart, &val));
		*data = (uint8_t)(val & 0xFF);
	}
# endif
# ifdef USART1
	if (USART1 == p_usart) {
  401e9a:	4b28      	ldr	r3, [pc, #160]	; (401f3c <usart_serial_getchar+0xcc>)
  401e9c:	429d      	cmp	r5, r3
  401e9e:	d02e      	beq.n	401efe <usart_serial_getchar+0x8e>
		while (usart_read(p_usart, &val));
		*data = (uint8_t)(val & 0xFF);
	}
# endif
# ifdef USART2
	if (USART2 == p_usart) {
  401ea0:	4b27      	ldr	r3, [pc, #156]	; (401f40 <usart_serial_getchar+0xd0>)
  401ea2:	429d      	cmp	r5, r3
  401ea4:	d035      	beq.n	401f12 <usart_serial_getchar+0xa2>
		*data = (uint8_t)(val & 0xFF);
	}
# endif
#endif /* ifdef USART */

}
  401ea6:	b003      	add	sp, #12
  401ea8:	bdf0      	pop	{r4, r5, r6, r7, pc}
		while (uart_read((Uart*)p_usart, data));
  401eaa:	461f      	mov	r7, r3
  401eac:	4e25      	ldr	r6, [pc, #148]	; (401f44 <usart_serial_getchar+0xd4>)
  401eae:	4621      	mov	r1, r4
  401eb0:	4638      	mov	r0, r7
  401eb2:	47b0      	blx	r6
  401eb4:	2800      	cmp	r0, #0
  401eb6:	d1fa      	bne.n	401eae <usart_serial_getchar+0x3e>
  401eb8:	e7e9      	b.n	401e8e <usart_serial_getchar+0x1e>
		while (uart_read((Uart*)p_usart, data));
  401eba:	461f      	mov	r7, r3
  401ebc:	4e21      	ldr	r6, [pc, #132]	; (401f44 <usart_serial_getchar+0xd4>)
  401ebe:	4621      	mov	r1, r4
  401ec0:	4638      	mov	r0, r7
  401ec2:	47b0      	blx	r6
  401ec4:	2800      	cmp	r0, #0
  401ec6:	d1fa      	bne.n	401ebe <usart_serial_getchar+0x4e>
  401ec8:	e7e4      	b.n	401e94 <usart_serial_getchar+0x24>
		while (uart_read((Uart*)p_usart, data));
  401eca:	461f      	mov	r7, r3
  401ecc:	4e1d      	ldr	r6, [pc, #116]	; (401f44 <usart_serial_getchar+0xd4>)
  401ece:	4621      	mov	r1, r4
  401ed0:	4638      	mov	r0, r7
  401ed2:	47b0      	blx	r6
  401ed4:	2800      	cmp	r0, #0
  401ed6:	d1fa      	bne.n	401ece <usart_serial_getchar+0x5e>
  401ed8:	e7df      	b.n	401e9a <usart_serial_getchar+0x2a>
		while (uart_read((Uart*)p_usart, data));
  401eda:	461f      	mov	r7, r3
  401edc:	4e19      	ldr	r6, [pc, #100]	; (401f44 <usart_serial_getchar+0xd4>)
  401ede:	4621      	mov	r1, r4
  401ee0:	4638      	mov	r0, r7
  401ee2:	47b0      	blx	r6
  401ee4:	2800      	cmp	r0, #0
  401ee6:	d1fa      	bne.n	401ede <usart_serial_getchar+0x6e>
  401ee8:	e7da      	b.n	401ea0 <usart_serial_getchar+0x30>
		while (usart_read(p_usart, &val));
  401eea:	461e      	mov	r6, r3
  401eec:	4d16      	ldr	r5, [pc, #88]	; (401f48 <usart_serial_getchar+0xd8>)
  401eee:	a901      	add	r1, sp, #4
  401ef0:	4630      	mov	r0, r6
  401ef2:	47a8      	blx	r5
  401ef4:	2800      	cmp	r0, #0
  401ef6:	d1fa      	bne.n	401eee <usart_serial_getchar+0x7e>
		*data = (uint8_t)(val & 0xFF);
  401ef8:	9b01      	ldr	r3, [sp, #4]
  401efa:	7023      	strb	r3, [r4, #0]
  401efc:	e7d3      	b.n	401ea6 <usart_serial_getchar+0x36>
		while (usart_read(p_usart, &val));
  401efe:	461e      	mov	r6, r3
  401f00:	4d11      	ldr	r5, [pc, #68]	; (401f48 <usart_serial_getchar+0xd8>)
  401f02:	a901      	add	r1, sp, #4
  401f04:	4630      	mov	r0, r6
  401f06:	47a8      	blx	r5
  401f08:	2800      	cmp	r0, #0
  401f0a:	d1fa      	bne.n	401f02 <usart_serial_getchar+0x92>
		*data = (uint8_t)(val & 0xFF);
  401f0c:	9b01      	ldr	r3, [sp, #4]
  401f0e:	7023      	strb	r3, [r4, #0]
  401f10:	e7c9      	b.n	401ea6 <usart_serial_getchar+0x36>
		while (usart_read(p_usart, &val));
  401f12:	461e      	mov	r6, r3
  401f14:	4d0c      	ldr	r5, [pc, #48]	; (401f48 <usart_serial_getchar+0xd8>)
  401f16:	a901      	add	r1, sp, #4
  401f18:	4630      	mov	r0, r6
  401f1a:	47a8      	blx	r5
  401f1c:	2800      	cmp	r0, #0
  401f1e:	d1fa      	bne.n	401f16 <usart_serial_getchar+0xa6>
		*data = (uint8_t)(val & 0xFF);
  401f20:	9b01      	ldr	r3, [sp, #4]
  401f22:	7023      	strb	r3, [r4, #0]
}
  401f24:	e7bf      	b.n	401ea6 <usart_serial_getchar+0x36>
  401f26:	bf00      	nop
  401f28:	400e0800 	.word	0x400e0800
  401f2c:	400e0a00 	.word	0x400e0a00
  401f30:	400e1a00 	.word	0x400e1a00
  401f34:	400e1c00 	.word	0x400e1c00
  401f38:	40024000 	.word	0x40024000
  401f3c:	40028000 	.word	0x40028000
  401f40:	4002c000 	.word	0x4002c000
  401f44:	004017db 	.word	0x004017db
  401f48:	004018e7 	.word	0x004018e7

00401f4c <usart_serial_putchar>:
{
  401f4c:	b570      	push	{r4, r5, r6, lr}
  401f4e:	460c      	mov	r4, r1
	if (UART0 == (Uart*)p_usart) {
  401f50:	4b2a      	ldr	r3, [pc, #168]	; (401ffc <usart_serial_putchar+0xb0>)
  401f52:	4298      	cmp	r0, r3
  401f54:	d013      	beq.n	401f7e <usart_serial_putchar+0x32>
	if (UART1 == (Uart*)p_usart) {
  401f56:	4b2a      	ldr	r3, [pc, #168]	; (402000 <usart_serial_putchar+0xb4>)
  401f58:	4298      	cmp	r0, r3
  401f5a:	d019      	beq.n	401f90 <usart_serial_putchar+0x44>
	if (UART2 == (Uart*)p_usart) {
  401f5c:	4b29      	ldr	r3, [pc, #164]	; (402004 <usart_serial_putchar+0xb8>)
  401f5e:	4298      	cmp	r0, r3
  401f60:	d01f      	beq.n	401fa2 <usart_serial_putchar+0x56>
	if (UART3 == (Uart*)p_usart) {
  401f62:	4b29      	ldr	r3, [pc, #164]	; (402008 <usart_serial_putchar+0xbc>)
  401f64:	4298      	cmp	r0, r3
  401f66:	d025      	beq.n	401fb4 <usart_serial_putchar+0x68>
	if (USART0 == p_usart) {
  401f68:	4b28      	ldr	r3, [pc, #160]	; (40200c <usart_serial_putchar+0xc0>)
  401f6a:	4298      	cmp	r0, r3
  401f6c:	d02b      	beq.n	401fc6 <usart_serial_putchar+0x7a>
	if (USART1 == p_usart) {
  401f6e:	4b28      	ldr	r3, [pc, #160]	; (402010 <usart_serial_putchar+0xc4>)
  401f70:	4298      	cmp	r0, r3
  401f72:	d031      	beq.n	401fd8 <usart_serial_putchar+0x8c>
	if (USART2 == p_usart) {
  401f74:	4b27      	ldr	r3, [pc, #156]	; (402014 <usart_serial_putchar+0xc8>)
  401f76:	4298      	cmp	r0, r3
  401f78:	d037      	beq.n	401fea <usart_serial_putchar+0x9e>
	return 0;
  401f7a:	2000      	movs	r0, #0
}
  401f7c:	bd70      	pop	{r4, r5, r6, pc}
		while (uart_write((Uart*)p_usart, c)!=0);
  401f7e:	461e      	mov	r6, r3
  401f80:	4d25      	ldr	r5, [pc, #148]	; (402018 <usart_serial_putchar+0xcc>)
  401f82:	4621      	mov	r1, r4
  401f84:	4630      	mov	r0, r6
  401f86:	47a8      	blx	r5
  401f88:	2800      	cmp	r0, #0
  401f8a:	d1fa      	bne.n	401f82 <usart_serial_putchar+0x36>
		return 1;
  401f8c:	2001      	movs	r0, #1
  401f8e:	bd70      	pop	{r4, r5, r6, pc}
		while (uart_write((Uart*)p_usart, c)!=0);
  401f90:	461e      	mov	r6, r3
  401f92:	4d21      	ldr	r5, [pc, #132]	; (402018 <usart_serial_putchar+0xcc>)
  401f94:	4621      	mov	r1, r4
  401f96:	4630      	mov	r0, r6
  401f98:	47a8      	blx	r5
