
WIFI-simpleGet-EXT1.elf:     file format elf32-littlearm

Sections:
Idx Name          Size      VMA       LMA       File off  Algn
  0 .text         00009bf0  00400000  00400000  00010000  2**6
                  CONTENTS, ALLOC, LOAD, READONLY, CODE
  1 .ARM.exidx    00000008  00409bf0  00409bf0  00019bf0  2**2
                  CONTENTS, ALLOC, LOAD, READONLY, DATA
  2 .relocate     000009d0  20400000  00409bf8  00020000  2**3
                  CONTENTS, ALLOC, LOAD, CODE
  3 .bss          0000c0fc  204009d0  0040a5c8  000209d0  2**2
                  ALLOC
  4 .stack        00002004  2040cacc  004166c4  000209d0  2**0
                  ALLOC
  5 .heap         00000200  2040ead0  004186c8  000209d0  2**0
                  ALLOC
  6 .ARM.attributes 0000002e  00000000  00000000  000209d0  2**0
                  CONTENTS, READONLY
  7 .comment      00000059  00000000  00000000  000209fe  2**0
                  CONTENTS, READONLY
  8 .debug_info   00033141  00000000  00000000  00020a57  2**0
                  CONTENTS, READONLY, DEBUGGING
  9 .debug_abbrev 00006831  00000000  00000000  00053b98  2**0
                  CONTENTS, READONLY, DEBUGGING
 10 .debug_loc    0001229f  00000000  00000000  0005a3c9  2**0
                  CONTENTS, READONLY, DEBUGGING
 11 .debug_aranges 000014c0  00000000  00000000  0006c668  2**0
                  CONTENTS, READONLY, DEBUGGING
 12 .debug_ranges 00001800  00000000  00000000  0006db28  2**0
                  CONTENTS, READONLY, DEBUGGING
 13 .debug_macro  0000fa20  00000000  00000000  0006f328  2**0
                  CONTENTS, READONLY, DEBUGGING
 14 .debug_line   0001b649  00000000  00000000  0007ed48  2**0
                  CONTENTS, READONLY, DEBUGGING
 15 .debug_str    0009a237  00000000  00000000  0009a391  2**0
                  CONTENTS, READONLY, DEBUGGING
 16 .debug_frame  000043d0  00000000  00000000  001345c8  2**2
                  CONTENTS, READONLY, DEBUGGING

Disassembly of section .text:

00400000 <exception_table>:
  400000:	d0 ea 40 20 21 53 40 00 1f 53 40 00 1f 53 40 00     ..@ !S@..S@..S@.
  400010:	1f 53 40 00 1f 53 40 00 1f 53 40 00 00 00 00 00     .S@..S@..S@.....
	...
  40002c:	d5 02 40 00 1f 53 40 00 00 00 00 00 75 03 40 00     ..@..S@.....u.@.
  40003c:	dd 03 40 00 1f 53 40 00 1f 53 40 00 1f 53 40 00     ..@..S@..S@..S@.
  40004c:	1f 53 40 00 1f 53 40 00 1f 53 40 00 1f 53 40 00     .S@..S@..S@..S@.
  40005c:	1f 53 40 00 1f 53 40 00 00 00 00 00 39 4e 40 00     .S@..S@.....9N@.
  40006c:	4d 4e 40 00 61 4e 40 00 1f 53 40 00 1f 53 40 00     MN@.aN@..S@..S@.
  40007c:	1f 53 40 00 75 4e 40 00 89 4e 40 00 1f 53 40 00     .S@.uN@..N@..S@.
  40008c:	1f 53 40 00 1f 53 40 00 1f 53 40 00 1f 53 40 00     .S@..S@..S@..S@.
  40009c:	1f 53 40 00 1f 53 40 00 1f 53 40 00 1f 53 40 00     .S@..S@..S@..S@.
  4000ac:	1f 53 40 00 1f 53 40 00 1f 53 40 00 1f 53 40 00     .S@..S@..S@..S@.
  4000bc:	1f 53 40 00 1f 53 40 00 1f 53 40 00 1f 53 40 00     .S@..S@..S@..S@.
  4000cc:	1f 53 40 00 00 00 00 00 1f 53 40 00 00 00 00 00     .S@......S@.....
  4000dc:	1f 53 40 00 1f 53 40 00 1f 53 40 00 1f 53 40 00     .S@..S@..S@..S@.
  4000ec:	1f 53 40 00 1f 53 40 00 1f 53 40 00 1f 53 40 00     .S@..S@..S@..S@.
  4000fc:	1f 53 40 00 1f 53 40 00 1f 53 40 00 1f 53 40 00     .S@..S@..S@..S@.
  40010c:	1f 53 40 00 1f 53 40 00 00 00 00 00 00 00 00 00     .S@..S@.........
  40011c:	00 00 00 00 1f 53 40 00 1f 53 40 00 1f 53 40 00     .....S@..S@..S@.
  40012c:	1f 53 40 00 1f 53 40 00 00 00 00 00 1f 53 40 00     .S@..S@......S@.
  40013c:	1f 53 40 00                                         .S@.

00400140 <__do_global_dtors_aux>:
  400140:	b510      	push	{r4, lr}
  400142:	4c05      	ldr	r4, [pc, #20]	; (400158 <__do_global_dtors_aux+0x18>)
  400144:	7823      	ldrb	r3, [r4, #0]
  400146:	b933      	cbnz	r3, 400156 <__do_global_dtors_aux+0x16>
  400148:	4b04      	ldr	r3, [pc, #16]	; (40015c <__do_global_dtors_aux+0x1c>)
  40014a:	b113      	cbz	r3, 400152 <__do_global_dtors_aux+0x12>
  40014c:	4804      	ldr	r0, [pc, #16]	; (400160 <__do_global_dtors_aux+0x20>)
  40014e:	f3af 8000 	nop.w
  400152:	2301      	movs	r3, #1
  400154:	7023      	strb	r3, [r4, #0]
  400156:	bd10      	pop	{r4, pc}
  400158:	204009d0 	.word	0x204009d0
  40015c:	00000000 	.word	0x00000000
  400160:	00409bf8 	.word	0x00409bf8

00400164 <frame_dummy>:
  400164:	4b0c      	ldr	r3, [pc, #48]	; (400198 <frame_dummy+0x34>)
  400166:	b143      	cbz	r3, 40017a <frame_dummy+0x16>
  400168:	480c      	ldr	r0, [pc, #48]	; (40019c <frame_dummy+0x38>)
  40016a:	490d      	ldr	r1, [pc, #52]	; (4001a0 <frame_dummy+0x3c>)
  40016c:	b510      	push	{r4, lr}
  40016e:	f3af 8000 	nop.w
  400172:	480c      	ldr	r0, [pc, #48]	; (4001a4 <frame_dummy+0x40>)
  400174:	6803      	ldr	r3, [r0, #0]
  400176:	b923      	cbnz	r3, 400182 <frame_dummy+0x1e>
  400178:	bd10      	pop	{r4, pc}
  40017a:	480a      	ldr	r0, [pc, #40]	; (4001a4 <frame_dummy+0x40>)
  40017c:	6803      	ldr	r3, [r0, #0]
  40017e:	b933      	cbnz	r3, 40018e <frame_dummy+0x2a>
  400180:	4770      	bx	lr
  400182:	4b09      	ldr	r3, [pc, #36]	; (4001a8 <frame_dummy+0x44>)
  400184:	2b00      	cmp	r3, #0
  400186:	d0f7      	beq.n	400178 <frame_dummy+0x14>
  400188:	e8bd 4010 	ldmia.w	sp!, {r4, lr}
  40018c:	4718      	bx	r3
  40018e:	4b06      	ldr	r3, [pc, #24]	; (4001a8 <frame_dummy+0x44>)
  400190:	2b00      	cmp	r3, #0
  400192:	d0f5      	beq.n	400180 <frame_dummy+0x1c>
  400194:	4718      	bx	r3
  400196:	bf00      	nop
  400198:	00000000 	.word	0x00000000
  40019c:	00409bf8 	.word	0x00409bf8
  4001a0:	204009d4 	.word	0x204009d4
  4001a4:	00409bf8 	.word	0x00409bf8
  4001a8:	00000000 	.word	0x00000000

004001ac <vListInitialise>:
void vListInitialise( List_t * const pxList )
{
	/* The list structure contains a list item which is used to mark the
	end of the list.  To initialise the list the list end is inserted
	as the only list entry. */
	pxList->pxIndex = ( ListItem_t * ) &( pxList->xListEnd );			/*lint !e826 !e740 The mini list structure is used as the list end to save RAM.  This is checked and valid. */
  4001ac:	f100 0308 	add.w	r3, r0, #8
  4001b0:	6043      	str	r3, [r0, #4]

	/* The list end value is the highest possible value in the list to
	ensure it remains at the end of the list. */
	pxList->xListEnd.xItemValue = portMAX_DELAY;
  4001b2:	f04f 32ff 	mov.w	r2, #4294967295
  4001b6:	6082      	str	r2, [r0, #8]

	/* The list end next and previous pointers point to itself so we know
	when the list is empty. */
	pxList->xListEnd.pxNext = ( ListItem_t * ) &( pxList->xListEnd );	/*lint !e826 !e740 The mini list structure is used as the list end to save RAM.  This is checked and valid. */
  4001b8:	60c3      	str	r3, [r0, #12]
	pxList->xListEnd.pxPrevious = ( ListItem_t * ) &( pxList->xListEnd );/*lint !e826 !e740 The mini list structure is used as the list end to save RAM.  This is checked and valid. */
  4001ba:	6103      	str	r3, [r0, #16]

	pxList->uxNumberOfItems = ( UBaseType_t ) 0U;
  4001bc:	2300      	movs	r3, #0
  4001be:	6003      	str	r3, [r0, #0]
  4001c0:	4770      	bx	lr

004001c2 <vListInitialiseItem>:
/*-----------------------------------------------------------*/

void vListInitialiseItem( ListItem_t * const pxItem )
{
	/* Make sure the list item is not recorded as being on a list. */
	pxItem->pvContainer = NULL;
  4001c2:	2300      	movs	r3, #0
  4001c4:	6103      	str	r3, [r0, #16]
  4001c6:	4770      	bx	lr

004001c8 <vListInsertEnd>:
}
/*-----------------------------------------------------------*/

void vListInsertEnd( List_t * const pxList, ListItem_t * const pxNewListItem )
{
ListItem_t * const pxIndex = pxList->pxIndex;
  4001c8:	6843      	ldr	r3, [r0, #4]
	listTEST_LIST_ITEM_INTEGRITY( pxNewListItem );

	/* Insert a new list item into pxList, but rather than sort the list,
	makes the new list item the last item to be removed by a call to
	listGET_OWNER_OF_NEXT_ENTRY(). */
	pxNewListItem->pxNext = pxIndex;
  4001ca:	604b      	str	r3, [r1, #4]
	pxNewListItem->pxPrevious = pxIndex->pxPrevious;
  4001cc:	689a      	ldr	r2, [r3, #8]
  4001ce:	608a      	str	r2, [r1, #8]

	/* Only used during decision coverage testing. */
	mtCOVERAGE_TEST_DELAY();

	pxIndex->pxPrevious->pxNext = pxNewListItem;
  4001d0:	689a      	ldr	r2, [r3, #8]
  4001d2:	6051      	str	r1, [r2, #4]
	pxIndex->pxPrevious = pxNewListItem;
  4001d4:	6099      	str	r1, [r3, #8]

	/* Remember which list the item is in. */
	pxNewListItem->pvContainer = ( void * ) pxList;
  4001d6:	6108      	str	r0, [r1, #16]

	( pxList->uxNumberOfItems )++;
  4001d8:	6803      	ldr	r3, [r0, #0]
  4001da:	3301      	adds	r3, #1
  4001dc:	6003      	str	r3, [r0, #0]
  4001de:	4770      	bx	lr

004001e0 <vListInsert>:
}
/*-----------------------------------------------------------*/

void vListInsert( List_t * const pxList, ListItem_t * const pxNewListItem )
{
  4001e0:	b430      	push	{r4, r5}
ListItem_t *pxIterator;
const TickType_t xValueOfInsertion = pxNewListItem->xItemValue;
  4001e2:	680d      	ldr	r5, [r1, #0]
	new list item should be placed after it.  This ensures that TCB's which are
	stored in ready lists (all of which have the same xItemValue value) get a
	share of the CPU.  However, if the xItemValue is the same as the back marker
	the iteration loop below will not end.  Therefore the value is checked
	first, and the algorithm slightly modified if necessary. */
	if( xValueOfInsertion == portMAX_DELAY )
  4001e4:	f1b5 3fff 	cmp.w	r5, #4294967295
  4001e8:	d002      	beq.n	4001f0 <vListInsert+0x10>
			4) Using a queue or semaphore before it has been initialised or
			   before the scheduler has been started (are interrupts firing
			   before vTaskStartScheduler() has been called?).
		**********************************************************************/

		for( pxIterator = ( ListItem_t * ) &( pxList->xListEnd ); pxIterator->pxNext->xItemValue <= xValueOfInsertion; pxIterator = pxIterator->pxNext ) /*lint !e826 !e740 The mini list structure is used as the list end to save RAM.  This is checked and valid. */
  4001ea:	f100 0208 	add.w	r2, r0, #8
  4001ee:	e002      	b.n	4001f6 <vListInsert+0x16>
		pxIterator = pxList->xListEnd.pxPrevious;
  4001f0:	6902      	ldr	r2, [r0, #16]
  4001f2:	e004      	b.n	4001fe <vListInsert+0x1e>
		for( pxIterator = ( ListItem_t * ) &( pxList->xListEnd ); pxIterator->pxNext->xItemValue <= xValueOfInsertion; pxIterator = pxIterator->pxNext ) /*lint !e826 !e740 The mini list structure is used as the list end to save RAM.  This is checked and valid. */
  4001f4:	461a      	mov	r2, r3
  4001f6:	6853      	ldr	r3, [r2, #4]
  4001f8:	681c      	ldr	r4, [r3, #0]
  4001fa:	42a5      	cmp	r5, r4
  4001fc:	d2fa      	bcs.n	4001f4 <vListInsert+0x14>
			/* There is nothing to do here, just iterating to the wanted
			insertion position. */
		}
	}

	pxNewListItem->pxNext = pxIterator->pxNext;
  4001fe:	6853      	ldr	r3, [r2, #4]
  400200:	604b      	str	r3, [r1, #4]
	pxNewListItem->pxNext->pxPrevious = pxNewListItem;
  400202:	6099      	str	r1, [r3, #8]
	pxNewListItem->pxPrevious = pxIterator;
  400204:	608a      	str	r2, [r1, #8]
	pxIterator->pxNext = pxNewListItem;
  400206:	6051      	str	r1, [r2, #4]

	/* Remember which list the item is in.  This allows fast removal of the
	item later. */
	pxNewListItem->pvContainer = ( void * ) pxList;
  400208:	6108      	str	r0, [r1, #16]

	( pxList->uxNumberOfItems )++;
  40020a:	6803      	ldr	r3, [r0, #0]
  40020c:	3301      	adds	r3, #1
  40020e:	6003      	str	r3, [r0, #0]
}
  400210:	bc30      	pop	{r4, r5}
  400212:	4770      	bx	lr

00400214 <uxListRemove>:

UBaseType_t uxListRemove( ListItem_t * const pxItemToRemove )
{
/* The list item knows which list it is in.  Obtain the list from the list
item. */
List_t * const pxList = ( List_t * ) pxItemToRemove->pvContainer;
  400214:	6903      	ldr	r3, [r0, #16]

	pxItemToRemove->pxNext->pxPrevious = pxItemToRemove->pxPrevious;
  400216:	6842      	ldr	r2, [r0, #4]
  400218:	6881      	ldr	r1, [r0, #8]
  40021a:	6091      	str	r1, [r2, #8]
	pxItemToRemove->pxPrevious->pxNext = pxItemToRemove->pxNext;
  40021c:	6882      	ldr	r2, [r0, #8]
  40021e:	6841      	ldr	r1, [r0, #4]
  400220:	6051      	str	r1, [r2, #4]

	/* Only used during decision coverage testing. */
	mtCOVERAGE_TEST_DELAY();

	/* Make sure the index is left pointing to a valid item. */
	if( pxList->pxIndex == pxItemToRemove )
  400222:	685a      	ldr	r2, [r3, #4]
  400224:	4290      	cmp	r0, r2
  400226:	d005      	beq.n	400234 <uxListRemove+0x20>
	else
	{
		mtCOVERAGE_TEST_MARKER();
	}

	pxItemToRemove->pvContainer = NULL;
  400228:	2200      	movs	r2, #0
  40022a:	6102      	str	r2, [r0, #16]
	( pxList->uxNumberOfItems )--;
  40022c:	6818      	ldr	r0, [r3, #0]
  40022e:	3801      	subs	r0, #1
  400230:	6018      	str	r0, [r3, #0]

	return pxList->uxNumberOfItems;
}
  400232:	4770      	bx	lr
		pxList->pxIndex = pxItemToRemove->pxPrevious;
  400234:	6882      	ldr	r2, [r0, #8]
  400236:	605a      	str	r2, [r3, #4]
  400238:	e7f6      	b.n	400228 <uxListRemove+0x14>
	...

0040023c <prvTaskExitError>:
	its caller as there is nothing to return to.  If a task wants to exit it
	should instead call vTaskDelete( NULL ).

	Artificially force an assert() to be triggered if configASSERT() is
	defined, then stop here so application writers can catch the error. */
	configASSERT( uxCriticalNesting == ~0UL );
  40023c:	4b0d      	ldr	r3, [pc, #52]	; (400274 <prvTaskExitError+0x38>)
  40023e:	681b      	ldr	r3, [r3, #0]
  400240:	f1b3 3fff 	cmp.w	r3, #4294967295
  400244:	d00a      	beq.n	40025c <prvTaskExitError+0x20>

portFORCE_INLINE static void vPortRaiseBASEPRI( void )
{
uint32_t ulNewBASEPRI;

	__asm volatile
  400246:	f04f 0380 	mov.w	r3, #128	; 0x80
  40024a:	b672      	cpsid	i
  40024c:	f383 8811 	msr	BASEPRI, r3
  400250:	f3bf 8f6f 	isb	sy
  400254:	f3bf 8f4f 	dsb	sy
  400258:	b662      	cpsie	i
  40025a:	e7fe      	b.n	40025a <prvTaskExitError+0x1e>
  40025c:	f04f 0380 	mov.w	r3, #128	; 0x80
  400260:	b672      	cpsid	i
  400262:	f383 8811 	msr	BASEPRI, r3
  400266:	f3bf 8f6f 	isb	sy
  40026a:	f3bf 8f4f 	dsb	sy
  40026e:	b662      	cpsie	i
  400270:	e7fe      	b.n	400270 <prvTaskExitError+0x34>
  400272:	bf00      	nop
  400274:	2040000c 	.word	0x2040000c

00400278 <prvPortStartFirstTask>:
}
/*-----------------------------------------------------------*/

static void prvPortStartFirstTask( void )
{
	__asm volatile(
  400278:	4806      	ldr	r0, [pc, #24]	; (400294 <prvPortStartFirstTask+0x1c>)
  40027a:	6800      	ldr	r0, [r0, #0]
  40027c:	6800      	ldr	r0, [r0, #0]
  40027e:	f380 8808 	msr	MSP, r0
  400282:	b662      	cpsie	i
  400284:	b661      	cpsie	f
  400286:	f3bf 8f4f 	dsb	sy
  40028a:	f3bf 8f6f 	isb	sy
  40028e:	df00      	svc	0
  400290:	bf00      	nop
  400292:	0000      	.short	0x0000
  400294:	e000ed08 	.word	0xe000ed08

00400298 <vPortEnableVFP>:
/*-----------------------------------------------------------*/

/* This is a naked function. */
static void vPortEnableVFP( void )
{
	__asm volatile
  400298:	f8df 000c 	ldr.w	r0, [pc, #12]	; 4002a8 <vPortEnableVFP+0x10>
  40029c:	6801      	ldr	r1, [r0, #0]
  40029e:	f441 0170 	orr.w	r1, r1, #15728640	; 0xf00000
  4002a2:	6001      	str	r1, [r0, #0]
  4002a4:	4770      	bx	lr
  4002a6:	0000      	.short	0x0000
  4002a8:	e000ed88 	.word	0xe000ed88

004002ac <pxPortInitialiseStack>:
	*pxTopOfStack = portINITIAL_XPSR;	/* xPSR */
  4002ac:	f04f 7380 	mov.w	r3, #16777216	; 0x1000000
  4002b0:	f840 3c04 	str.w	r3, [r0, #-4]
	*pxTopOfStack = ( StackType_t ) pxCode;	/* PC */
  4002b4:	f840 1c08 	str.w	r1, [r0, #-8]
	*pxTopOfStack = ( StackType_t ) portTASK_RETURN_ADDRESS;	/* LR */
  4002b8:	4b05      	ldr	r3, [pc, #20]	; (4002d0 <pxPortInitialiseStack+0x24>)
  4002ba:	f840 3c0c 	str.w	r3, [r0, #-12]
	*pxTopOfStack = ( StackType_t ) pvParameters;	/* R0 */
  4002be:	f840 2c20 	str.w	r2, [r0, #-32]
	*pxTopOfStack = portINITIAL_EXEC_RETURN;
  4002c2:	f06f 0302 	mvn.w	r3, #2
  4002c6:	f840 3c24 	str.w	r3, [r0, #-36]
}
  4002ca:	3844      	subs	r0, #68	; 0x44
  4002cc:	4770      	bx	lr
  4002ce:	bf00      	nop
  4002d0:	0040023d 	.word	0x0040023d

004002d4 <SVC_Handler>:
	__asm volatile (
  4002d4:	4b06      	ldr	r3, [pc, #24]	; (4002f0 <pxCurrentTCBConst2>)
  4002d6:	6819      	ldr	r1, [r3, #0]
  4002d8:	6808      	ldr	r0, [r1, #0]
  4002da:	e8b0 4ff0 	ldmia.w	r0!, {r4, r5, r6, r7, r8, r9, sl, fp, lr}
  4002de:	f380 8809 	msr	PSP, r0
  4002e2:	f3bf 8f6f 	isb	sy
  4002e6:	f04f 0000 	mov.w	r0, #0
  4002ea:	f380 8811 	msr	BASEPRI, r0
  4002ee:	4770      	bx	lr

004002f0 <pxCurrentTCBConst2>:
  4002f0:	2040c1fc 	.word	0x2040c1fc
  4002f4:	4770      	bx	lr
  4002f6:	bf00      	nop

004002f8 <vPortEnterCritical>:
  4002f8:	f04f 0380 	mov.w	r3, #128	; 0x80
  4002fc:	b672      	cpsid	i
  4002fe:	f383 8811 	msr	BASEPRI, r3
  400302:	f3bf 8f6f 	isb	sy
  400306:	f3bf 8f4f 	dsb	sy
  40030a:	b662      	cpsie	i
	uxCriticalNesting++;
  40030c:	4a0b      	ldr	r2, [pc, #44]	; (40033c <vPortEnterCritical+0x44>)
  40030e:	6813      	ldr	r3, [r2, #0]
  400310:	3301      	adds	r3, #1
  400312:	6013      	str	r3, [r2, #0]
	if( uxCriticalNesting == 1 )
  400314:	2b01      	cmp	r3, #1
  400316:	d10f      	bne.n	400338 <vPortEnterCritical+0x40>
		configASSERT( ( portNVIC_INT_CTRL_REG & portVECTACTIVE_MASK ) == 0 );
  400318:	4b09      	ldr	r3, [pc, #36]	; (400340 <vPortEnterCritical+0x48>)
  40031a:	681b      	ldr	r3, [r3, #0]
  40031c:	f013 0fff 	tst.w	r3, #255	; 0xff
  400320:	d00a      	beq.n	400338 <vPortEnterCritical+0x40>
  400322:	f04f 0380 	mov.w	r3, #128	; 0x80
  400326:	b672      	cpsid	i
  400328:	f383 8811 	msr	BASEPRI, r3
  40032c:	f3bf 8f6f 	isb	sy
  400330:	f3bf 8f4f 	dsb	sy
  400334:	b662      	cpsie	i
  400336:	e7fe      	b.n	400336 <vPortEnterCritical+0x3e>
  400338:	4770      	bx	lr
  40033a:	bf00      	nop
  40033c:	2040000c 	.word	0x2040000c
  400340:	e000ed04 	.word	0xe000ed04

00400344 <vPortExitCritical>:
	configASSERT( uxCriticalNesting );
  400344:	4b0a      	ldr	r3, [pc, #40]	; (400370 <vPortExitCritical+0x2c>)
  400346:	681b      	ldr	r3, [r3, #0]
  400348:	b953      	cbnz	r3, 400360 <vPortExitCritical+0x1c>
  40034a:	f04f 0380 	mov.w	r3, #128	; 0x80
  40034e:	b672      	cpsid	i
  400350:	f383 8811 	msr	BASEPRI, r3
  400354:	f3bf 8f6f 	isb	sy
  400358:	f3bf 8f4f 	dsb	sy
  40035c:	b662      	cpsie	i
  40035e:	e7fe      	b.n	40035e <vPortExitCritical+0x1a>
	uxCriticalNesting--;
  400360:	3b01      	subs	r3, #1
  400362:	4a03      	ldr	r2, [pc, #12]	; (400370 <vPortExitCritical+0x2c>)
  400364:	6013      	str	r3, [r2, #0]
	if( uxCriticalNesting == 0 )
  400366:	b90b      	cbnz	r3, 40036c <vPortExitCritical+0x28>
}
/*-----------------------------------------------------------*/

portFORCE_INLINE static void vPortSetBASEPRI( uint32_t ulNewMaskValue )
{
	__asm volatile
  400368:	f383 8811 	msr	BASEPRI, r3
  40036c:	4770      	bx	lr
  40036e:	bf00      	nop
  400370:	2040000c 	.word	0x2040000c

00400374 <PendSV_Handler>:
	__asm volatile
  400374:	f3ef 8009 	mrs	r0, PSP
  400378:	f3bf 8f6f 	isb	sy
  40037c:	4b15      	ldr	r3, [pc, #84]	; (4003d4 <pxCurrentTCBConst>)
  40037e:	681a      	ldr	r2, [r3, #0]
  400380:	f01e 0f10 	tst.w	lr, #16
  400384:	bf08      	it	eq
  400386:	ed20 8a10 	vstmdbeq	r0!, {s16-s31}
  40038a:	e920 4ff0 	stmdb	r0!, {r4, r5, r6, r7, r8, r9, sl, fp, lr}
  40038e:	6010      	str	r0, [r2, #0]
  400390:	f84d 3d04 	str.w	r3, [sp, #-4]!
  400394:	f04f 0080 	mov.w	r0, #128	; 0x80
  400398:	b672      	cpsid	i
  40039a:	f380 8811 	msr	BASEPRI, r0
  40039e:	f3bf 8f4f 	dsb	sy
  4003a2:	f3bf 8f6f 	isb	sy
  4003a6:	b662      	cpsie	i
  4003a8:	f001 f862 	bl	401470 <vTaskSwitchContext>
  4003ac:	f04f 0000 	mov.w	r0, #0
  4003b0:	f380 8811 	msr	BASEPRI, r0
  4003b4:	bc08      	pop	{r3}
  4003b6:	6819      	ldr	r1, [r3, #0]
  4003b8:	6808      	ldr	r0, [r1, #0]
  4003ba:	e8b0 4ff0 	ldmia.w	r0!, {r4, r5, r6, r7, r8, r9, sl, fp, lr}
  4003be:	f01e 0f10 	tst.w	lr, #16
  4003c2:	bf08      	it	eq
  4003c4:	ecb0 8a10 	vldmiaeq	r0!, {s16-s31}
  4003c8:	f380 8809 	msr	PSP, r0
  4003cc:	f3bf 8f6f 	isb	sy
  4003d0:	4770      	bx	lr
  4003d2:	bf00      	nop

004003d4 <pxCurrentTCBConst>:
  4003d4:	2040c1fc 	.word	0x2040c1fc
  4003d8:	4770      	bx	lr
  4003da:	bf00      	nop

004003dc <SysTick_Handler>:
{
  4003dc:	b508      	push	{r3, lr}
	__asm volatile
  4003de:	f3ef 8311 	mrs	r3, BASEPRI
  4003e2:	f04f 0280 	mov.w	r2, #128	; 0x80
  4003e6:	b672      	cpsid	i
  4003e8:	f382 8811 	msr	BASEPRI, r2
  4003ec:	f3bf 8f6f 	isb	sy
  4003f0:	f3bf 8f4f 	dsb	sy
  4003f4:	b662      	cpsie	i
		if( xTaskIncrementTick() != pdFALSE )
  4003f6:	4b05      	ldr	r3, [pc, #20]	; (40040c <SysTick_Handler+0x30>)
  4003f8:	4798      	blx	r3
  4003fa:	b118      	cbz	r0, 400404 <SysTick_Handler+0x28>
			portNVIC_INT_CTRL_REG = portNVIC_PENDSVSET_BIT;
  4003fc:	f04f 5280 	mov.w	r2, #268435456	; 0x10000000
  400400:	4b03      	ldr	r3, [pc, #12]	; (400410 <SysTick_Handler+0x34>)
  400402:	601a      	str	r2, [r3, #0]
	__asm volatile
  400404:	2300      	movs	r3, #0
  400406:	f383 8811 	msr	BASEPRI, r3
  40040a:	bd08      	pop	{r3, pc}
  40040c:	0040116d 	.word	0x0040116d
  400410:	e000ed04 	.word	0xe000ed04

00400414 <vPortSetupTimerInterrupt>:
	portNVIC_SYSTICK_LOAD_REG = ( configSYSTICK_CLOCK_HZ / configTICK_RATE_HZ ) - 1UL;
  400414:	4a03      	ldr	r2, [pc, #12]	; (400424 <vPortSetupTimerInterrupt+0x10>)
  400416:	4b04      	ldr	r3, [pc, #16]	; (400428 <vPortSetupTimerInterrupt+0x14>)
  400418:	601a      	str	r2, [r3, #0]
	portNVIC_SYSTICK_CTRL_REG = ( portNVIC_SYSTICK_CLK_BIT | portNVIC_SYSTICK_INT_BIT | portNVIC_SYSTICK_ENABLE_BIT );
  40041a:	2207      	movs	r2, #7
  40041c:	3b04      	subs	r3, #4
  40041e:	601a      	str	r2, [r3, #0]
  400420:	4770      	bx	lr
  400422:	bf00      	nop
  400424:	000927bf 	.word	0x000927bf
  400428:	e000e014 	.word	0xe000e014

0040042c <xPortStartScheduler>:
{
  40042c:	b500      	push	{lr}
  40042e:	b083      	sub	sp, #12
		ulOriginalPriority = *pucFirstUserPriorityRegister;
  400430:	4b25      	ldr	r3, [pc, #148]	; (4004c8 <xPortStartScheduler+0x9c>)
  400432:	781a      	ldrb	r2, [r3, #0]
  400434:	b2d2      	uxtb	r2, r2
  400436:	9201      	str	r2, [sp, #4]
		*pucFirstUserPriorityRegister = portMAX_8_BIT_VALUE;
  400438:	22ff      	movs	r2, #255	; 0xff
  40043a:	701a      	strb	r2, [r3, #0]
		ucMaxPriorityValue = *pucFirstUserPriorityRegister;
  40043c:	781b      	ldrb	r3, [r3, #0]
  40043e:	b2db      	uxtb	r3, r3
  400440:	f88d 3003 	strb.w	r3, [sp, #3]
		ucMaxSysCallPriority = configMAX_SYSCALL_INTERRUPT_PRIORITY & ucMaxPriorityValue;
  400444:	f89d 3003 	ldrb.w	r3, [sp, #3]
  400448:	f003 0380 	and.w	r3, r3, #128	; 0x80
  40044c:	4a1f      	ldr	r2, [pc, #124]	; (4004cc <xPortStartScheduler+0xa0>)
  40044e:	7013      	strb	r3, [r2, #0]
		ulMaxPRIGROUPValue = portMAX_PRIGROUP_BITS;
  400450:	2207      	movs	r2, #7
  400452:	4b1f      	ldr	r3, [pc, #124]	; (4004d0 <xPortStartScheduler+0xa4>)
  400454:	601a      	str	r2, [r3, #0]
		while( ( ucMaxPriorityValue & portTOP_BIT_OF_BYTE ) == portTOP_BIT_OF_BYTE )
  400456:	f89d 3003 	ldrb.w	r3, [sp, #3]
  40045a:	f013 0f80 	tst.w	r3, #128	; 0x80
  40045e:	d010      	beq.n	400482 <xPortStartScheduler+0x56>
  400460:	2206      	movs	r2, #6
  400462:	e000      	b.n	400466 <xPortStartScheduler+0x3a>
  400464:	460a      	mov	r2, r1
			ucMaxPriorityValue <<= ( uint8_t ) 0x01;
  400466:	f89d 3003 	ldrb.w	r3, [sp, #3]
  40046a:	005b      	lsls	r3, r3, #1
  40046c:	b2db      	uxtb	r3, r3
  40046e:	f88d 3003 	strb.w	r3, [sp, #3]
		while( ( ucMaxPriorityValue & portTOP_BIT_OF_BYTE ) == portTOP_BIT_OF_BYTE )
  400472:	f89d 3003 	ldrb.w	r3, [sp, #3]
  400476:	1e51      	subs	r1, r2, #1
  400478:	f013 0f80 	tst.w	r3, #128	; 0x80
  40047c:	d1f2      	bne.n	400464 <xPortStartScheduler+0x38>
  40047e:	4b14      	ldr	r3, [pc, #80]	; (4004d0 <xPortStartScheduler+0xa4>)
  400480:	601a      	str	r2, [r3, #0]
		ulMaxPRIGROUPValue &= portPRIORITY_GROUP_MASK;
  400482:	4a13      	ldr	r2, [pc, #76]	; (4004d0 <xPortStartScheduler+0xa4>)
		ulMaxPRIGROUPValue <<= portPRIGROUP_SHIFT;
  400484:	6813      	ldr	r3, [r2, #0]
  400486:	021b      	lsls	r3, r3, #8
		ulMaxPRIGROUPValue &= portPRIORITY_GROUP_MASK;
  400488:	f403 63e0 	and.w	r3, r3, #1792	; 0x700
  40048c:	6013      	str	r3, [r2, #0]
		*pucFirstUserPriorityRegister = ulOriginalPriority;
  40048e:	9b01      	ldr	r3, [sp, #4]
  400490:	b2db      	uxtb	r3, r3
  400492:	4a0d      	ldr	r2, [pc, #52]	; (4004c8 <xPortStartScheduler+0x9c>)
  400494:	7013      	strb	r3, [r2, #0]
	portNVIC_SYSPRI2_REG |= portNVIC_PENDSV_PRI;
  400496:	4b0f      	ldr	r3, [pc, #60]	; (4004d4 <xPortStartScheduler+0xa8>)
  400498:	681a      	ldr	r2, [r3, #0]
  40049a:	f442 0260 	orr.w	r2, r2, #14680064	; 0xe00000
  40049e:	601a      	str	r2, [r3, #0]
	portNVIC_SYSPRI2_REG |= portNVIC_SYSTICK_PRI;
  4004a0:	681a      	ldr	r2, [r3, #0]
  4004a2:	f042 4260 	orr.w	r2, r2, #3758096384	; 0xe0000000
  4004a6:	601a      	str	r2, [r3, #0]
	vPortSetupTimerInterrupt();
  4004a8:	4b0b      	ldr	r3, [pc, #44]	; (4004d8 <xPortStartScheduler+0xac>)
  4004aa:	4798      	blx	r3
	uxCriticalNesting = 0;
  4004ac:	2200      	movs	r2, #0
  4004ae:	4b0b      	ldr	r3, [pc, #44]	; (4004dc <xPortStartScheduler+0xb0>)
  4004b0:	601a      	str	r2, [r3, #0]
	vPortEnableVFP();
  4004b2:	4b0b      	ldr	r3, [pc, #44]	; (4004e0 <xPortStartScheduler+0xb4>)
  4004b4:	4798      	blx	r3
	*( portFPCCR ) |= portASPEN_AND_LSPEN_BITS;
  4004b6:	4a0b      	ldr	r2, [pc, #44]	; (4004e4 <xPortStartScheduler+0xb8>)
  4004b8:	6813      	ldr	r3, [r2, #0]
  4004ba:	f043 4340 	orr.w	r3, r3, #3221225472	; 0xc0000000
  4004be:	6013      	str	r3, [r2, #0]
	prvPortStartFirstTask();
  4004c0:	4b09      	ldr	r3, [pc, #36]	; (4004e8 <xPortStartScheduler+0xbc>)
  4004c2:	4798      	blx	r3
	prvTaskExitError();
  4004c4:	4b09      	ldr	r3, [pc, #36]	; (4004ec <xPortStartScheduler+0xc0>)
  4004c6:	4798      	blx	r3
  4004c8:	e000e400 	.word	0xe000e400
  4004cc:	204009ec 	.word	0x204009ec
  4004d0:	204009f0 	.word	0x204009f0
  4004d4:	e000ed20 	.word	0xe000ed20
  4004d8:	00400415 	.word	0x00400415
  4004dc:	2040000c 	.word	0x2040000c
  4004e0:	00400299 	.word	0x00400299
  4004e4:	e000ef34 	.word	0xe000ef34
  4004e8:	00400279 	.word	0x00400279
  4004ec:	0040023d 	.word	0x0040023d

004004f0 <vPortValidateInterruptPriority>:
	{
	uint32_t ulCurrentInterrupt;
	uint8_t ucCurrentPriority;

		/* Obtain the number of the currently executing interrupt. */
		__asm volatile( "mrs %0, ipsr" : "=r"( ulCurrentInterrupt ) );
  4004f0:	f3ef 8305 	mrs	r3, IPSR

		/* Is the interrupt number a user defined interrupt? */
		if( ulCurrentInterrupt >= portFIRST_USER_INTERRUPT_NUMBER )
  4004f4:	2b0f      	cmp	r3, #15
  4004f6:	d911      	bls.n	40051c <vPortValidateInterruptPriority+0x2c>
		{
			/* Look up the interrupt's priority. */
			ucCurrentPriority = pcInterruptPriorityRegisters[ ulCurrentInterrupt ];
  4004f8:	4a12      	ldr	r2, [pc, #72]	; (400544 <vPortValidateInterruptPriority+0x54>)
  4004fa:	5c9b      	ldrb	r3, [r3, r2]
  4004fc:	b2db      	uxtb	r3, r3
			interrupt entry is as fast and simple as possible.

			The following links provide detailed information:
			http://www.freertos.org/RTOS-Cortex-M3-M4.html
			http://www.freertos.org/FAQHelp.html */
			configASSERT( ucCurrentPriority >= ucMaxSysCallPriority );
  4004fe:	4a12      	ldr	r2, [pc, #72]	; (400548 <vPortValidateInterruptPriority+0x58>)
  400500:	7812      	ldrb	r2, [r2, #0]
  400502:	429a      	cmp	r2, r3
  400504:	d90a      	bls.n	40051c <vPortValidateInterruptPriority+0x2c>
	__asm volatile
  400506:	f04f 0380 	mov.w	r3, #128	; 0x80
  40050a:	b672      	cpsid	i
  40050c:	f383 8811 	msr	BASEPRI, r3
  400510:	f3bf 8f6f 	isb	sy
  400514:	f3bf 8f4f 	dsb	sy
  400518:	b662      	cpsie	i
  40051a:	e7fe      	b.n	40051a <vPortValidateInterruptPriority+0x2a>
		configuration then the correct setting can be achieved on all Cortex-M
		devices by calling NVIC_SetPriorityGrouping( 0 ); before starting the
		scheduler.  Note however that some vendor specific peripheral libraries
		assume a non-zero priority group setting, in which cases using a value
		of zero will result in unpredicable behaviour. */
		configASSERT( ( portAIRCR_REG & portPRIORITY_GROUP_MASK ) <= ulMaxPRIGROUPValue );
  40051c:	4b0b      	ldr	r3, [pc, #44]	; (40054c <vPortValidateInterruptPriority+0x5c>)
  40051e:	681b      	ldr	r3, [r3, #0]
  400520:	f403 63e0 	and.w	r3, r3, #1792	; 0x700
  400524:	4a0a      	ldr	r2, [pc, #40]	; (400550 <vPortValidateInterruptPriority+0x60>)
  400526:	6812      	ldr	r2, [r2, #0]
  400528:	4293      	cmp	r3, r2
  40052a:	d90a      	bls.n	400542 <vPortValidateInterruptPriority+0x52>
  40052c:	f04f 0380 	mov.w	r3, #128	; 0x80
  400530:	b672      	cpsid	i
  400532:	f383 8811 	msr	BASEPRI, r3
  400536:	f3bf 8f6f 	isb	sy
  40053a:	f3bf 8f4f 	dsb	sy
  40053e:	b662      	cpsie	i
  400540:	e7fe      	b.n	400540 <vPortValidateInterruptPriority+0x50>
  400542:	4770      	bx	lr
  400544:	e000e3f0 	.word	0xe000e3f0
  400548:	204009ec 	.word	0x204009ec
  40054c:	e000ed0c 	.word	0xe000ed0c
  400550:	204009f0 	.word	0x204009f0

00400554 <pvPortMalloc>:
static size_t xNextFreeByte = ( size_t ) 0;

/*-----------------------------------------------------------*/

void *pvPortMalloc( size_t xWantedSize )
{
  400554:	b538      	push	{r3, r4, r5, lr}
  400556:	4604      	mov	r4, r0
void *pvReturn = NULL;
static uint8_t *pucAlignedHeap = NULL;

	/* Ensure that blocks are always aligned to the required number of bytes. */
	#if portBYTE_ALIGNMENT != 1
		if( xWantedSize & portBYTE_ALIGNMENT_MASK )
  400558:	f010 0f07 	tst.w	r0, #7
  40055c:	d002      	beq.n	400564 <pvPortMalloc+0x10>
		{
			/* Byte alignment required. */
			xWantedSize += ( portBYTE_ALIGNMENT - ( xWantedSize & portBYTE_ALIGNMENT_MASK ) );
  40055e:	f020 0407 	bic.w	r4, r0, #7
  400562:	3408      	adds	r4, #8
		}
	#endif

	vTaskSuspendAll();
  400564:	4b11      	ldr	r3, [pc, #68]	; (4005ac <pvPortMalloc+0x58>)
  400566:	4798      	blx	r3
	{
		if( pucAlignedHeap == NULL )
  400568:	4b11      	ldr	r3, [pc, #68]	; (4005b0 <pvPortMalloc+0x5c>)
  40056a:	681b      	ldr	r3, [r3, #0]
  40056c:	b193      	cbz	r3, 400594 <pvPortMalloc+0x40>
			/* Ensure the heap starts on a correctly aligned boundary. */
			pucAlignedHeap = ( uint8_t * ) ( ( ( portPOINTER_SIZE_TYPE ) &ucHeap[ portBYTE_ALIGNMENT ] ) & ( ~( ( portPOINTER_SIZE_TYPE ) portBYTE_ALIGNMENT_MASK ) ) );
		}

		/* Check there is enough room left for the allocation. */
		if( ( ( xNextFreeByte + xWantedSize ) < configADJUSTED_HEAP_SIZE ) &&
  40056e:	4b11      	ldr	r3, [pc, #68]	; (4005b4 <pvPortMalloc+0x60>)
  400570:	681b      	ldr	r3, [r3, #0]
  400572:	441c      	add	r4, r3
  400574:	42a3      	cmp	r3, r4
  400576:	d213      	bcs.n	4005a0 <pvPortMalloc+0x4c>
  400578:	f24b 72f7 	movw	r2, #47095	; 0xb7f7
  40057c:	4294      	cmp	r4, r2
  40057e:	d80f      	bhi.n	4005a0 <pvPortMalloc+0x4c>
			( ( xNextFreeByte + xWantedSize ) > xNextFreeByte )	)/* Check for overflow. */
		{
			/* Return the next free byte then increment the index past this
			block. */
			pvReturn = pucAlignedHeap + xNextFreeByte;
  400580:	4a0b      	ldr	r2, [pc, #44]	; (4005b0 <pvPortMalloc+0x5c>)
  400582:	6815      	ldr	r5, [r2, #0]
  400584:	441d      	add	r5, r3
			xNextFreeByte += xWantedSize;
  400586:	4b0b      	ldr	r3, [pc, #44]	; (4005b4 <pvPortMalloc+0x60>)
  400588:	601c      	str	r4, [r3, #0]
		}

		traceMALLOC( pvReturn, xWantedSize );
	}
	( void ) xTaskResumeAll();
  40058a:	4b0b      	ldr	r3, [pc, #44]	; (4005b8 <pvPortMalloc+0x64>)
  40058c:	4798      	blx	r3

	#if( configUSE_MALLOC_FAILED_HOOK == 1 )
	{
		if( pvReturn == NULL )
  40058e:	b14d      	cbz	r5, 4005a4 <pvPortMalloc+0x50>
		}
	}
	#endif

	return pvReturn;
}
  400590:	4628      	mov	r0, r5
  400592:	bd38      	pop	{r3, r4, r5, pc}
			pucAlignedHeap = ( uint8_t * ) ( ( ( portPOINTER_SIZE_TYPE ) &ucHeap[ portBYTE_ALIGNMENT ] ) & ( ~( ( portPOINTER_SIZE_TYPE ) portBYTE_ALIGNMENT_MASK ) ) );
  400594:	4b09      	ldr	r3, [pc, #36]	; (4005bc <pvPortMalloc+0x68>)
  400596:	f023 0307 	bic.w	r3, r3, #7
  40059a:	4a05      	ldr	r2, [pc, #20]	; (4005b0 <pvPortMalloc+0x5c>)
  40059c:	6013      	str	r3, [r2, #0]
  40059e:	e7e6      	b.n	40056e <pvPortMalloc+0x1a>
	( void ) xTaskResumeAll();
  4005a0:	4b05      	ldr	r3, [pc, #20]	; (4005b8 <pvPortMalloc+0x64>)
  4005a2:	4798      	blx	r3
			vApplicationMallocFailedHook();
  4005a4:	4b06      	ldr	r3, [pc, #24]	; (4005c0 <pvPortMalloc+0x6c>)
  4005a6:	4798      	blx	r3
  4005a8:	2500      	movs	r5, #0
	return pvReturn;
  4005aa:	e7f1      	b.n	400590 <pvPortMalloc+0x3c>
  4005ac:	00401151 	.word	0x00401151
  4005b0:	204009f4 	.word	0x204009f4
  4005b4:	2040c1f8 	.word	0x2040c1f8
  4005b8:	004012b9 	.word	0x004012b9
  4005bc:	20400a00 	.word	0x20400a00
  4005c0:	00405943 	.word	0x00405943

004005c4 <vPortFree>:
	heap_4.c for alternative implementations, and the memory management pages of
	http://www.FreeRTOS.org for more information. */
	( void ) pv;

	/* Force an assert as it is invalid to call this function. */
	configASSERT( pv == NULL );
  4005c4:	b150      	cbz	r0, 4005dc <vPortFree+0x18>
  4005c6:	f04f 0380 	mov.w	r3, #128	; 0x80
  4005ca:	b672      	cpsid	i
  4005cc:	f383 8811 	msr	BASEPRI, r3
  4005d0:	f3bf 8f6f 	isb	sy
  4005d4:	f3bf 8f4f 	dsb	sy
  4005d8:	b662      	cpsie	i
  4005da:	e7fe      	b.n	4005da <vPortFree+0x16>
  4005dc:	4770      	bx	lr
	...

004005e0 <prvCopyDataToQueue>:

#endif /* configUSE_TRACE_FACILITY */
/*-----------------------------------------------------------*/

static BaseType_t prvCopyDataToQueue( Queue_t * const pxQueue, const void *pvItemToQueue, const BaseType_t xPosition )
{
  4005e0:	b538      	push	{r3, r4, r5, lr}
  4005e2:	4604      	mov	r4, r0
  4005e4:	4615      	mov	r5, r2
BaseType_t xReturn = pdFALSE;

	if( pxQueue->uxItemSize == ( UBaseType_t ) 0 )
  4005e6:	6c02      	ldr	r2, [r0, #64]	; 0x40
  4005e8:	b95a      	cbnz	r2, 400602 <prvCopyDataToQueue+0x22>
	{
		#if ( configUSE_MUTEXES == 1 )
		{
			if( pxQueue->uxQueueType == queueQUEUE_IS_MUTEX )
  4005ea:	6803      	ldr	r3, [r0, #0]
  4005ec:	2b00      	cmp	r3, #0
  4005ee:	d12e      	bne.n	40064e <prvCopyDataToQueue+0x6e>
			{
				/* The mutex is no longer being held. */
				xReturn = xTaskPriorityDisinherit( ( void * ) pxQueue->pxMutexHolder );
  4005f0:	6840      	ldr	r0, [r0, #4]
  4005f2:	4b1b      	ldr	r3, [pc, #108]	; (400660 <prvCopyDataToQueue+0x80>)
  4005f4:	4798      	blx	r3
				pxQueue->pxMutexHolder = NULL;
  4005f6:	2300      	movs	r3, #0
  4005f8:	6063      	str	r3, [r4, #4]
		{
			mtCOVERAGE_TEST_MARKER();
		}
	}

	++( pxQueue->uxMessagesWaiting );
  4005fa:	6ba3      	ldr	r3, [r4, #56]	; 0x38
  4005fc:	3301      	adds	r3, #1
  4005fe:	63a3      	str	r3, [r4, #56]	; 0x38

	return xReturn;
}
  400600:	bd38      	pop	{r3, r4, r5, pc}
	else if( xPosition == queueSEND_TO_BACK )
  400602:	b96d      	cbnz	r5, 400620 <prvCopyDataToQueue+0x40>
		( void ) memcpy( ( void * ) pxQueue->pcWriteTo, pvItemToQueue, ( size_t ) pxQueue->uxItemSize ); /*lint !e961 !e418 MISRA exception as the casts are only redundant for some ports, plus previous logic ensures a null pointer can only be passed to memcpy() if the copy size is 0. */
  400604:	6880      	ldr	r0, [r0, #8]
  400606:	4b17      	ldr	r3, [pc, #92]	; (400664 <prvCopyDataToQueue+0x84>)
  400608:	4798      	blx	r3
		pxQueue->pcWriteTo += pxQueue->uxItemSize;
  40060a:	68a3      	ldr	r3, [r4, #8]
  40060c:	6c22      	ldr	r2, [r4, #64]	; 0x40
  40060e:	4413      	add	r3, r2
  400610:	60a3      	str	r3, [r4, #8]
		if( pxQueue->pcWriteTo >= pxQueue->pcTail ) /*lint !e946 MISRA exception justified as comparison of pointers is the cleanest solution. */
  400612:	6862      	ldr	r2, [r4, #4]
  400614:	4293      	cmp	r3, r2
  400616:	d31c      	bcc.n	400652 <prvCopyDataToQueue+0x72>
			pxQueue->pcWriteTo = pxQueue->pcHead;
  400618:	6823      	ldr	r3, [r4, #0]
  40061a:	60a3      	str	r3, [r4, #8]
BaseType_t xReturn = pdFALSE;
  40061c:	2000      	movs	r0, #0
  40061e:	e7ec      	b.n	4005fa <prvCopyDataToQueue+0x1a>
		( void ) memcpy( ( void * ) pxQueue->u.pcReadFrom, pvItemToQueue, ( size_t ) pxQueue->uxItemSize ); /*lint !e961 MISRA exception as the casts are only redundant for some ports. */
  400620:	68c0      	ldr	r0, [r0, #12]
  400622:	4b10      	ldr	r3, [pc, #64]	; (400664 <prvCopyDataToQueue+0x84>)
  400624:	4798      	blx	r3
		pxQueue->u.pcReadFrom -= pxQueue->uxItemSize;
  400626:	6c23      	ldr	r3, [r4, #64]	; 0x40
  400628:	425b      	negs	r3, r3
  40062a:	68e2      	ldr	r2, [r4, #12]
  40062c:	441a      	add	r2, r3
  40062e:	60e2      	str	r2, [r4, #12]
		if( pxQueue->u.pcReadFrom < pxQueue->pcHead ) /*lint !e946 MISRA exception justified as comparison of pointers is the cleanest solution. */
  400630:	6821      	ldr	r1, [r4, #0]
  400632:	428a      	cmp	r2, r1
  400634:	d202      	bcs.n	40063c <prvCopyDataToQueue+0x5c>
			pxQueue->u.pcReadFrom = ( pxQueue->pcTail - pxQueue->uxItemSize );
  400636:	6862      	ldr	r2, [r4, #4]
  400638:	4413      	add	r3, r2
  40063a:	60e3      	str	r3, [r4, #12]
		if( xPosition == queueOVERWRITE )
  40063c:	2d02      	cmp	r5, #2
  40063e:	d10a      	bne.n	400656 <prvCopyDataToQueue+0x76>
			if( pxQueue->uxMessagesWaiting > ( UBaseType_t ) 0 )
  400640:	6ba3      	ldr	r3, [r4, #56]	; 0x38
  400642:	b153      	cbz	r3, 40065a <prvCopyDataToQueue+0x7a>
				--( pxQueue->uxMessagesWaiting );
  400644:	6ba3      	ldr	r3, [r4, #56]	; 0x38
  400646:	3b01      	subs	r3, #1
  400648:	63a3      	str	r3, [r4, #56]	; 0x38
BaseType_t xReturn = pdFALSE;
  40064a:	2000      	movs	r0, #0
  40064c:	e7d5      	b.n	4005fa <prvCopyDataToQueue+0x1a>
  40064e:	2000      	movs	r0, #0
  400650:	e7d3      	b.n	4005fa <prvCopyDataToQueue+0x1a>
  400652:	2000      	movs	r0, #0
  400654:	e7d1      	b.n	4005fa <prvCopyDataToQueue+0x1a>
  400656:	2000      	movs	r0, #0
  400658:	e7cf      	b.n	4005fa <prvCopyDataToQueue+0x1a>
  40065a:	2000      	movs	r0, #0
  40065c:	e7cd      	b.n	4005fa <prvCopyDataToQueue+0x1a>
  40065e:	bf00      	nop
  400660:	00401871 	.word	0x00401871
  400664:	00405c79 	.word	0x00405c79

00400668 <prvNotifyQueueSetContainer>:
/*-----------------------------------------------------------*/

#if ( configUSE_QUEUE_SETS == 1 )

	static BaseType_t prvNotifyQueueSetContainer( const Queue_t * const pxQueue, const BaseType_t xCopyPosition )
	{
  400668:	b530      	push	{r4, r5, lr}
  40066a:	b083      	sub	sp, #12
  40066c:	9001      	str	r0, [sp, #4]
	Queue_t *pxQueueSetContainer = pxQueue->pxQueueSetContainer;
  40066e:	6d44      	ldr	r4, [r0, #84]	; 0x54
	BaseType_t xReturn = pdFALSE;

		/* This function must be called form a critical section. */

		configASSERT( pxQueueSetContainer );
  400670:	b174      	cbz	r4, 400690 <prvNotifyQueueSetContainer+0x28>
		configASSERT( pxQueueSetContainer->uxMessagesWaiting < pxQueueSetContainer->uxLength );
  400672:	6ba2      	ldr	r2, [r4, #56]	; 0x38
  400674:	6be3      	ldr	r3, [r4, #60]	; 0x3c
  400676:	429a      	cmp	r2, r3
  400678:	d315      	bcc.n	4006a6 <prvNotifyQueueSetContainer+0x3e>
  40067a:	f04f 0380 	mov.w	r3, #128	; 0x80
  40067e:	b672      	cpsid	i
  400680:	f383 8811 	msr	BASEPRI, r3
  400684:	f3bf 8f6f 	isb	sy
  400688:	f3bf 8f4f 	dsb	sy
  40068c:	b662      	cpsie	i
  40068e:	e7fe      	b.n	40068e <prvNotifyQueueSetContainer+0x26>
  400690:	f04f 0380 	mov.w	r3, #128	; 0x80
  400694:	b672      	cpsid	i
  400696:	f383 8811 	msr	BASEPRI, r3
  40069a:	f3bf 8f6f 	isb	sy
  40069e:	f3bf 8f4f 	dsb	sy
  4006a2:	b662      	cpsie	i
  4006a4:	e7fe      	b.n	4006a4 <prvNotifyQueueSetContainer+0x3c>

		if( pxQueueSetContainer->uxMessagesWaiting < pxQueueSetContainer->uxLength )
  4006a6:	6ba2      	ldr	r2, [r4, #56]	; 0x38
  4006a8:	4293      	cmp	r3, r2
  4006aa:	d803      	bhi.n	4006b4 <prvNotifyQueueSetContainer+0x4c>
	BaseType_t xReturn = pdFALSE;
  4006ac:	2500      	movs	r5, #0
		{
			mtCOVERAGE_TEST_MARKER();
		}

		return xReturn;
	}
  4006ae:	4628      	mov	r0, r5
  4006b0:	b003      	add	sp, #12
  4006b2:	bd30      	pop	{r4, r5, pc}
  4006b4:	460a      	mov	r2, r1
			xReturn = prvCopyDataToQueue( pxQueueSetContainer, &pxQueue, xCopyPosition );
  4006b6:	a901      	add	r1, sp, #4
  4006b8:	4620      	mov	r0, r4
  4006ba:	4b0b      	ldr	r3, [pc, #44]	; (4006e8 <prvNotifyQueueSetContainer+0x80>)
  4006bc:	4798      	blx	r3
  4006be:	4605      	mov	r5, r0
			if( pxQueueSetContainer->xTxLock == queueUNLOCKED )
  4006c0:	6ca3      	ldr	r3, [r4, #72]	; 0x48
  4006c2:	f1b3 3fff 	cmp.w	r3, #4294967295
  4006c6:	d10a      	bne.n	4006de <prvNotifyQueueSetContainer+0x76>
				if( listLIST_IS_EMPTY( &( pxQueueSetContainer->xTasksWaitingToReceive ) ) == pdFALSE )
  4006c8:	6a63      	ldr	r3, [r4, #36]	; 0x24
  4006ca:	2b00      	cmp	r3, #0
  4006cc:	d0ef      	beq.n	4006ae <prvNotifyQueueSetContainer+0x46>
					if( xTaskRemoveFromEventList( &( pxQueueSetContainer->xTasksWaitingToReceive ) ) != pdFALSE )
  4006ce:	f104 0024 	add.w	r0, r4, #36	; 0x24
  4006d2:	4b06      	ldr	r3, [pc, #24]	; (4006ec <prvNotifyQueueSetContainer+0x84>)
  4006d4:	4798      	blx	r3
  4006d6:	2800      	cmp	r0, #0
						xReturn = pdTRUE;
  4006d8:	bf18      	it	ne
  4006da:	2501      	movne	r5, #1
  4006dc:	e7e7      	b.n	4006ae <prvNotifyQueueSetContainer+0x46>
				( pxQueueSetContainer->xTxLock )++;
  4006de:	6ca3      	ldr	r3, [r4, #72]	; 0x48
  4006e0:	3301      	adds	r3, #1
  4006e2:	64a3      	str	r3, [r4, #72]	; 0x48
  4006e4:	e7e3      	b.n	4006ae <prvNotifyQueueSetContainer+0x46>
  4006e6:	bf00      	nop
  4006e8:	004005e1 	.word	0x004005e1
  4006ec:	00401645 	.word	0x00401645

004006f0 <prvCopyDataFromQueue>:
	if( pxQueue->uxItemSize != ( UBaseType_t ) 0 )
  4006f0:	6c02      	ldr	r2, [r0, #64]	; 0x40
  4006f2:	b172      	cbz	r2, 400712 <prvCopyDataFromQueue+0x22>
{
  4006f4:	b510      	push	{r4, lr}
  4006f6:	4603      	mov	r3, r0
		pxQueue->u.pcReadFrom += pxQueue->uxItemSize;
  4006f8:	68c4      	ldr	r4, [r0, #12]
  4006fa:	4414      	add	r4, r2
  4006fc:	60c4      	str	r4, [r0, #12]
		if( pxQueue->u.pcReadFrom >= pxQueue->pcTail ) /*lint !e946 MISRA exception justified as use of the relational operator is the cleanest solutions. */
  4006fe:	6840      	ldr	r0, [r0, #4]
  400700:	4284      	cmp	r4, r0
  400702:	d301      	bcc.n	400708 <prvCopyDataFromQueue+0x18>
			pxQueue->u.pcReadFrom = pxQueue->pcHead;
  400704:	6818      	ldr	r0, [r3, #0]
  400706:	60d8      	str	r0, [r3, #12]
  400708:	4608      	mov	r0, r1
		( void ) memcpy( ( void * ) pvBuffer, ( void * ) pxQueue->u.pcReadFrom, ( size_t ) pxQueue->uxItemSize ); /*lint !e961 !e418 MISRA exception as the casts are only redundant for some ports.  Also previous logic ensures a null pointer can only be passed to memcpy() when the count is 0. */
  40070a:	68d9      	ldr	r1, [r3, #12]
  40070c:	4b01      	ldr	r3, [pc, #4]	; (400714 <prvCopyDataFromQueue+0x24>)
  40070e:	4798      	blx	r3
  400710:	bd10      	pop	{r4, pc}
  400712:	4770      	bx	lr
  400714:	00405c79 	.word	0x00405c79

00400718 <prvUnlockQueue>:
{
  400718:	b5f8      	push	{r3, r4, r5, r6, r7, lr}
  40071a:	4604      	mov	r4, r0
	taskENTER_CRITICAL();
  40071c:	4b22      	ldr	r3, [pc, #136]	; (4007a8 <prvUnlockQueue+0x90>)
  40071e:	4798      	blx	r3
		while( pxQueue->xTxLock > queueLOCKED_UNMODIFIED )
  400720:	6ca3      	ldr	r3, [r4, #72]	; 0x48
  400722:	2b00      	cmp	r3, #0
  400724:	dd1b      	ble.n	40075e <prvUnlockQueue+0x46>
					if( prvNotifyQueueSetContainer( pxQueue, queueSEND_TO_BACK ) == pdTRUE )
  400726:	4d21      	ldr	r5, [pc, #132]	; (4007ac <prvUnlockQueue+0x94>)
						vTaskMissedYield();
  400728:	4f21      	ldr	r7, [pc, #132]	; (4007b0 <prvUnlockQueue+0x98>)
						if( xTaskRemoveFromEventList( &( pxQueue->xTasksWaitingToReceive ) ) != pdFALSE )
  40072a:	4e22      	ldr	r6, [pc, #136]	; (4007b4 <prvUnlockQueue+0x9c>)
  40072c:	e00b      	b.n	400746 <prvUnlockQueue+0x2e>
					if( listLIST_IS_EMPTY( &( pxQueue->xTasksWaitingToReceive ) ) == pdFALSE )
  40072e:	6a63      	ldr	r3, [r4, #36]	; 0x24
  400730:	b1ab      	cbz	r3, 40075e <prvUnlockQueue+0x46>
						if( xTaskRemoveFromEventList( &( pxQueue->xTasksWaitingToReceive ) ) != pdFALSE )
  400732:	f104 0024 	add.w	r0, r4, #36	; 0x24
  400736:	47b0      	blx	r6
  400738:	b978      	cbnz	r0, 40075a <prvUnlockQueue+0x42>
			--( pxQueue->xTxLock );
  40073a:	6ca3      	ldr	r3, [r4, #72]	; 0x48
  40073c:	3b01      	subs	r3, #1
  40073e:	64a3      	str	r3, [r4, #72]	; 0x48
		while( pxQueue->xTxLock > queueLOCKED_UNMODIFIED )
  400740:	6ca3      	ldr	r3, [r4, #72]	; 0x48
  400742:	2b00      	cmp	r3, #0
  400744:	dd0b      	ble.n	40075e <prvUnlockQueue+0x46>
				if( pxQueue->pxQueueSetContainer != NULL )
  400746:	6d63      	ldr	r3, [r4, #84]	; 0x54
  400748:	2b00      	cmp	r3, #0
  40074a:	d0f0      	beq.n	40072e <prvUnlockQueue+0x16>
					if( prvNotifyQueueSetContainer( pxQueue, queueSEND_TO_BACK ) == pdTRUE )
  40074c:	2100      	movs	r1, #0
  40074e:	4620      	mov	r0, r4
  400750:	47a8      	blx	r5
  400752:	2801      	cmp	r0, #1
  400754:	d1f1      	bne.n	40073a <prvUnlockQueue+0x22>
						vTaskMissedYield();
  400756:	47b8      	blx	r7
  400758:	e7ef      	b.n	40073a <prvUnlockQueue+0x22>
							vTaskMissedYield();
  40075a:	47b8      	blx	r7
  40075c:	e7ed      	b.n	40073a <prvUnlockQueue+0x22>
		pxQueue->xTxLock = queueUNLOCKED;
  40075e:	f04f 33ff 	mov.w	r3, #4294967295
  400762:	64a3      	str	r3, [r4, #72]	; 0x48
	taskEXIT_CRITICAL();
  400764:	4b14      	ldr	r3, [pc, #80]	; (4007b8 <prvUnlockQueue+0xa0>)
  400766:	4798      	blx	r3
	taskENTER_CRITICAL();
  400768:	4b0f      	ldr	r3, [pc, #60]	; (4007a8 <prvUnlockQueue+0x90>)
  40076a:	4798      	blx	r3
		while( pxQueue->xRxLock > queueLOCKED_UNMODIFIED )
  40076c:	6c63      	ldr	r3, [r4, #68]	; 0x44
  40076e:	2b00      	cmp	r3, #0
  400770:	dd14      	ble.n	40079c <prvUnlockQueue+0x84>
			if( listLIST_IS_EMPTY( &( pxQueue->xTasksWaitingToSend ) ) == pdFALSE )
  400772:	6923      	ldr	r3, [r4, #16]
  400774:	b193      	cbz	r3, 40079c <prvUnlockQueue+0x84>
				if( xTaskRemoveFromEventList( &( pxQueue->xTasksWaitingToSend ) ) != pdFALSE )
  400776:	f104 0610 	add.w	r6, r4, #16
  40077a:	4d0e      	ldr	r5, [pc, #56]	; (4007b4 <prvUnlockQueue+0x9c>)
					vTaskMissedYield();
  40077c:	4f0c      	ldr	r7, [pc, #48]	; (4007b0 <prvUnlockQueue+0x98>)
  40077e:	e007      	b.n	400790 <prvUnlockQueue+0x78>
				--( pxQueue->xRxLock );
  400780:	6c63      	ldr	r3, [r4, #68]	; 0x44
  400782:	3b01      	subs	r3, #1
  400784:	6463      	str	r3, [r4, #68]	; 0x44
		while( pxQueue->xRxLock > queueLOCKED_UNMODIFIED )
  400786:	6c63      	ldr	r3, [r4, #68]	; 0x44
  400788:	2b00      	cmp	r3, #0
  40078a:	dd07      	ble.n	40079c <prvUnlockQueue+0x84>
			if( listLIST_IS_EMPTY( &( pxQueue->xTasksWaitingToSend ) ) == pdFALSE )
  40078c:	6923      	ldr	r3, [r4, #16]
  40078e:	b12b      	cbz	r3, 40079c <prvUnlockQueue+0x84>
				if( xTaskRemoveFromEventList( &( pxQueue->xTasksWaitingToSend ) ) != pdFALSE )
  400790:	4630      	mov	r0, r6
  400792:	47a8      	blx	r5
  400794:	2800      	cmp	r0, #0
  400796:	d0f3      	beq.n	400780 <prvUnlockQueue+0x68>
					vTaskMissedYield();
  400798:	47b8      	blx	r7
  40079a:	e7f1      	b.n	400780 <prvUnlockQueue+0x68>
		pxQueue->xRxLock = queueUNLOCKED;
  40079c:	f04f 33ff 	mov.w	r3, #4294967295
  4007a0:	6463      	str	r3, [r4, #68]	; 0x44
	taskEXIT_CRITICAL();
  4007a2:	4b05      	ldr	r3, [pc, #20]	; (4007b8 <prvUnlockQueue+0xa0>)
  4007a4:	4798      	blx	r3
  4007a6:	bdf8      	pop	{r3, r4, r5, r6, r7, pc}
  4007a8:	004002f9 	.word	0x004002f9
  4007ac:	00400669 	.word	0x00400669
  4007b0:	004017a1 	.word	0x004017a1
  4007b4:	00401645 	.word	0x00401645
  4007b8:	00400345 	.word	0x00400345

004007bc <xQueueGenericReset>:
{
  4007bc:	b538      	push	{r3, r4, r5, lr}
	configASSERT( pxQueue );
  4007be:	b308      	cbz	r0, 400804 <xQueueGenericReset+0x48>
  4007c0:	4604      	mov	r4, r0
  4007c2:	460d      	mov	r5, r1
	taskENTER_CRITICAL();
  4007c4:	4b1d      	ldr	r3, [pc, #116]	; (40083c <xQueueGenericReset+0x80>)
  4007c6:	4798      	blx	r3
		pxQueue->pcTail = pxQueue->pcHead + ( pxQueue->uxLength * pxQueue->uxItemSize );
  4007c8:	6822      	ldr	r2, [r4, #0]
  4007ca:	6c21      	ldr	r1, [r4, #64]	; 0x40
  4007cc:	6be3      	ldr	r3, [r4, #60]	; 0x3c
  4007ce:	fb03 f301 	mul.w	r3, r3, r1
  4007d2:	18d0      	adds	r0, r2, r3
  4007d4:	6060      	str	r0, [r4, #4]
		pxQueue->uxMessagesWaiting = ( UBaseType_t ) 0U;
  4007d6:	2000      	movs	r0, #0
  4007d8:	63a0      	str	r0, [r4, #56]	; 0x38
		pxQueue->pcWriteTo = pxQueue->pcHead;
  4007da:	60a2      	str	r2, [r4, #8]
		pxQueue->u.pcReadFrom = pxQueue->pcHead + ( ( pxQueue->uxLength - ( UBaseType_t ) 1U ) * pxQueue->uxItemSize );
  4007dc:	1a5b      	subs	r3, r3, r1
  4007de:	4413      	add	r3, r2
  4007e0:	60e3      	str	r3, [r4, #12]
		pxQueue->xRxLock = queueUNLOCKED;
  4007e2:	f04f 33ff 	mov.w	r3, #4294967295
  4007e6:	6463      	str	r3, [r4, #68]	; 0x44
		pxQueue->xTxLock = queueUNLOCKED;
  4007e8:	64a3      	str	r3, [r4, #72]	; 0x48
		if( xNewQueue == pdFALSE )
  4007ea:	b9fd      	cbnz	r5, 40082c <xQueueGenericReset+0x70>
			if( listLIST_IS_EMPTY( &( pxQueue->xTasksWaitingToSend ) ) == pdFALSE )
  4007ec:	6923      	ldr	r3, [r4, #16]
  4007ee:	b12b      	cbz	r3, 4007fc <xQueueGenericReset+0x40>
				if( xTaskRemoveFromEventList( &( pxQueue->xTasksWaitingToSend ) ) == pdTRUE )
  4007f0:	f104 0010 	add.w	r0, r4, #16
  4007f4:	4b12      	ldr	r3, [pc, #72]	; (400840 <xQueueGenericReset+0x84>)
  4007f6:	4798      	blx	r3
  4007f8:	2801      	cmp	r0, #1
  4007fa:	d00e      	beq.n	40081a <xQueueGenericReset+0x5e>
	taskEXIT_CRITICAL();
  4007fc:	4b11      	ldr	r3, [pc, #68]	; (400844 <xQueueGenericReset+0x88>)
  4007fe:	4798      	blx	r3
}
  400800:	2001      	movs	r0, #1
  400802:	bd38      	pop	{r3, r4, r5, pc}
  400804:	f04f 0380 	mov.w	r3, #128	; 0x80
  400808:	b672      	cpsid	i
  40080a:	f383 8811 	msr	BASEPRI, r3
  40080e:	f3bf 8f6f 	isb	sy
  400812:	f3bf 8f4f 	dsb	sy
  400816:	b662      	cpsie	i
  400818:	e7fe      	b.n	400818 <xQueueGenericReset+0x5c>
					queueYIELD_IF_USING_PREEMPTION();
  40081a:	f04f 5280 	mov.w	r2, #268435456	; 0x10000000
  40081e:	4b0a      	ldr	r3, [pc, #40]	; (400848 <xQueueGenericReset+0x8c>)
  400820:	601a      	str	r2, [r3, #0]
  400822:	f3bf 8f4f 	dsb	sy
  400826:	f3bf 8f6f 	isb	sy
  40082a:	e7e7      	b.n	4007fc <xQueueGenericReset+0x40>
			vListInitialise( &( pxQueue->xTasksWaitingToSend ) );
  40082c:	f104 0010 	add.w	r0, r4, #16
  400830:	4d06      	ldr	r5, [pc, #24]	; (40084c <xQueueGenericReset+0x90>)
  400832:	47a8      	blx	r5
			vListInitialise( &( pxQueue->xTasksWaitingToReceive ) );
  400834:	f104 0024 	add.w	r0, r4, #36	; 0x24
  400838:	47a8      	blx	r5
  40083a:	e7df      	b.n	4007fc <xQueueGenericReset+0x40>
  40083c:	004002f9 	.word	0x004002f9
  400840:	00401645 	.word	0x00401645
  400844:	00400345 	.word	0x00400345
  400848:	e000ed04 	.word	0xe000ed04
  40084c:	004001ad 	.word	0x004001ad

00400850 <xQueueGenericCreate>:
{
  400850:	b5f8      	push	{r3, r4, r5, r6, r7, lr}
	configASSERT( uxQueueLength > ( UBaseType_t ) 0 );
  400852:	b950      	cbnz	r0, 40086a <xQueueGenericCreate+0x1a>
  400854:	f04f 0380 	mov.w	r3, #128	; 0x80
  400858:	b672      	cpsid	i
  40085a:	f383 8811 	msr	BASEPRI, r3
  40085e:	f3bf 8f6f 	isb	sy
  400862:	f3bf 8f4f 	dsb	sy
  400866:	b662      	cpsie	i
  400868:	e7fe      	b.n	400868 <xQueueGenericCreate+0x18>
  40086a:	4606      	mov	r6, r0
  40086c:	4617      	mov	r7, r2
  40086e:	460d      	mov	r5, r1
	if( uxItemSize == ( UBaseType_t ) 0 )
  400870:	b189      	cbz	r1, 400896 <xQueueGenericCreate+0x46>
		xQueueSizeInBytes = ( size_t ) ( uxQueueLength * uxItemSize ) + ( size_t ) 1; /*lint !e961 MISRA exception as the casts are only redundant for some ports. */
  400872:	fb01 f000 	mul.w	r0, r1, r0
	pxNewQueue = ( Queue_t * ) pvPortMalloc( sizeof( Queue_t ) + xQueueSizeInBytes );
  400876:	3059      	adds	r0, #89	; 0x59
  400878:	4b12      	ldr	r3, [pc, #72]	; (4008c4 <xQueueGenericCreate+0x74>)
  40087a:	4798      	blx	r3
	if( pxNewQueue != NULL )
  40087c:	4604      	mov	r4, r0
  40087e:	b9e8      	cbnz	r0, 4008bc <xQueueGenericCreate+0x6c>
  400880:	f04f 0380 	mov.w	r3, #128	; 0x80
  400884:	b672      	cpsid	i
  400886:	f383 8811 	msr	BASEPRI, r3
  40088a:	f3bf 8f6f 	isb	sy
  40088e:	f3bf 8f4f 	dsb	sy
  400892:	b662      	cpsie	i
  400894:	e7fe      	b.n	400894 <xQueueGenericCreate+0x44>
	pxNewQueue = ( Queue_t * ) pvPortMalloc( sizeof( Queue_t ) + xQueueSizeInBytes );
  400896:	2058      	movs	r0, #88	; 0x58
  400898:	4b0a      	ldr	r3, [pc, #40]	; (4008c4 <xQueueGenericCreate+0x74>)
  40089a:	4798      	blx	r3
	if( pxNewQueue != NULL )
  40089c:	4604      	mov	r4, r0
  40089e:	2800      	cmp	r0, #0
  4008a0:	d0ee      	beq.n	400880 <xQueueGenericCreate+0x30>
			pxNewQueue->pcHead = ( int8_t * ) pxNewQueue;
  4008a2:	6020      	str	r0, [r4, #0]
		pxNewQueue->uxLength = uxQueueLength;
  4008a4:	63e6      	str	r6, [r4, #60]	; 0x3c
		pxNewQueue->uxItemSize = uxItemSize;
  4008a6:	6425      	str	r5, [r4, #64]	; 0x40
		( void ) xQueueGenericReset( pxNewQueue, pdTRUE );
  4008a8:	2101      	movs	r1, #1
  4008aa:	4620      	mov	r0, r4
  4008ac:	4b06      	ldr	r3, [pc, #24]	; (4008c8 <xQueueGenericCreate+0x78>)
  4008ae:	4798      	blx	r3
			pxNewQueue->ucQueueType = ucQueueType;
  4008b0:	f884 7050 	strb.w	r7, [r4, #80]	; 0x50
			pxNewQueue->pxQueueSetContainer = NULL;
  4008b4:	2300      	movs	r3, #0
  4008b6:	6563      	str	r3, [r4, #84]	; 0x54
}
  4008b8:	4620      	mov	r0, r4
  4008ba:	bdf8      	pop	{r3, r4, r5, r6, r7, pc}
			pxNewQueue->pcHead = ( ( int8_t * ) pxNewQueue ) + sizeof( Queue_t );
  4008bc:	f100 0358 	add.w	r3, r0, #88	; 0x58
  4008c0:	6003      	str	r3, [r0, #0]
  4008c2:	e7ef      	b.n	4008a4 <xQueueGenericCreate+0x54>
  4008c4:	00400555 	.word	0x00400555
  4008c8:	004007bd 	.word	0x004007bd

004008cc <xQueueGenericSend>:
{
  4008cc:	e92d 4ff0 	stmdb	sp!, {r4, r5, r6, r7, r8, r9, sl, fp, lr}
  4008d0:	b085      	sub	sp, #20
  4008d2:	9201      	str	r2, [sp, #4]
	configASSERT( pxQueue );
  4008d4:	b1b8      	cbz	r0, 400906 <xQueueGenericSend+0x3a>
  4008d6:	4604      	mov	r4, r0
	configASSERT( !( ( pvItemToQueue == NULL ) && ( pxQueue->uxItemSize != ( UBaseType_t ) 0U ) ) );
  4008d8:	b301      	cbz	r1, 40091c <xQueueGenericSend+0x50>
	configASSERT( !( ( xCopyPosition == queueOVERWRITE ) && ( pxQueue->uxLength != 1 ) ) );
  4008da:	2b02      	cmp	r3, #2
  4008dc:	d02c      	beq.n	400938 <xQueueGenericSend+0x6c>
  4008de:	461d      	mov	r5, r3
  4008e0:	4688      	mov	r8, r1
		configASSERT( !( ( xTaskGetSchedulerState() == taskSCHEDULER_SUSPENDED ) && ( xTicksToWait != 0 ) ) );
  4008e2:	4b66      	ldr	r3, [pc, #408]	; (400a7c <xQueueGenericSend+0x1b0>)
  4008e4:	4798      	blx	r3
  4008e6:	2800      	cmp	r0, #0
  4008e8:	d134      	bne.n	400954 <xQueueGenericSend+0x88>
  4008ea:	9b01      	ldr	r3, [sp, #4]
  4008ec:	2b00      	cmp	r3, #0
  4008ee:	d038      	beq.n	400962 <xQueueGenericSend+0x96>
  4008f0:	f04f 0380 	mov.w	r3, #128	; 0x80
  4008f4:	b672      	cpsid	i
  4008f6:	f383 8811 	msr	BASEPRI, r3
  4008fa:	f3bf 8f6f 	isb	sy
  4008fe:	f3bf 8f4f 	dsb	sy
  400902:	b662      	cpsie	i
  400904:	e7fe      	b.n	400904 <xQueueGenericSend+0x38>
  400906:	f04f 0380 	mov.w	r3, #128	; 0x80
  40090a:	b672      	cpsid	i
  40090c:	f383 8811 	msr	BASEPRI, r3
  400910:	f3bf 8f6f 	isb	sy
  400914:	f3bf 8f4f 	dsb	sy
  400918:	b662      	cpsie	i
  40091a:	e7fe      	b.n	40091a <xQueueGenericSend+0x4e>
	configASSERT( !( ( pvItemToQueue == NULL ) && ( pxQueue->uxItemSize != ( UBaseType_t ) 0U ) ) );
  40091c:	6c02      	ldr	r2, [r0, #64]	; 0x40
  40091e:	2a00      	cmp	r2, #0
  400920:	d0db      	beq.n	4008da <xQueueGenericSend+0xe>
  400922:	f04f 0380 	mov.w	r3, #128	; 0x80
  400926:	b672      	cpsid	i
  400928:	f383 8811 	msr	BASEPRI, r3
  40092c:	f3bf 8f6f 	isb	sy
  400930:	f3bf 8f4f 	dsb	sy
  400934:	b662      	cpsie	i
  400936:	e7fe      	b.n	400936 <xQueueGenericSend+0x6a>
	configASSERT( !( ( xCopyPosition == queueOVERWRITE ) && ( pxQueue->uxLength != 1 ) ) );
  400938:	6be2      	ldr	r2, [r4, #60]	; 0x3c
  40093a:	2a01      	cmp	r2, #1
  40093c:	d0cf      	beq.n	4008de <xQueueGenericSend+0x12>
  40093e:	f04f 0380 	mov.w	r3, #128	; 0x80
  400942:	b672      	cpsid	i
  400944:	f383 8811 	msr	BASEPRI, r3
  400948:	f3bf 8f6f 	isb	sy
  40094c:	f3bf 8f4f 	dsb	sy
  400950:	b662      	cpsie	i
  400952:	e7fe      	b.n	400952 <xQueueGenericSend+0x86>
  400954:	2700      	movs	r7, #0
		taskENTER_CRITICAL();
  400956:	4e4a      	ldr	r6, [pc, #296]	; (400a80 <xQueueGenericSend+0x1b4>)
					vTaskSetTimeOutState( &xTimeOut );
  400958:	f8df a150 	ldr.w	sl, [pc, #336]	; 400aac <xQueueGenericSend+0x1e0>
					portYIELD_WITHIN_API();
  40095c:	f8df 912c 	ldr.w	r9, [pc, #300]	; 400a8c <xQueueGenericSend+0x1c0>
  400960:	e042      	b.n	4009e8 <xQueueGenericSend+0x11c>
  400962:	2700      	movs	r7, #0
  400964:	e7f7      	b.n	400956 <xQueueGenericSend+0x8a>
				xYieldRequired = prvCopyDataToQueue( pxQueue, pvItemToQueue, xCopyPosition );
  400966:	462a      	mov	r2, r5
  400968:	4641      	mov	r1, r8
  40096a:	4620      	mov	r0, r4
  40096c:	4b45      	ldr	r3, [pc, #276]	; (400a84 <xQueueGenericSend+0x1b8>)
  40096e:	4798      	blx	r3
					if( pxQueue->pxQueueSetContainer != NULL )
  400970:	6d63      	ldr	r3, [r4, #84]	; 0x54
  400972:	b19b      	cbz	r3, 40099c <xQueueGenericSend+0xd0>
						if( prvNotifyQueueSetContainer( pxQueue, xCopyPosition ) == pdTRUE )
  400974:	4629      	mov	r1, r5
  400976:	4620      	mov	r0, r4
  400978:	4b43      	ldr	r3, [pc, #268]	; (400a88 <xQueueGenericSend+0x1bc>)
  40097a:	4798      	blx	r3
  40097c:	2801      	cmp	r0, #1
  40097e:	d107      	bne.n	400990 <xQueueGenericSend+0xc4>
							queueYIELD_IF_USING_PREEMPTION();
  400980:	f04f 5280 	mov.w	r2, #268435456	; 0x10000000
  400984:	4b41      	ldr	r3, [pc, #260]	; (400a8c <xQueueGenericSend+0x1c0>)
  400986:	601a      	str	r2, [r3, #0]
  400988:	f3bf 8f4f 	dsb	sy
  40098c:	f3bf 8f6f 	isb	sy
				taskEXIT_CRITICAL();
  400990:	4b3f      	ldr	r3, [pc, #252]	; (400a90 <xQueueGenericSend+0x1c4>)
  400992:	4798      	blx	r3
				return pdPASS;
  400994:	2001      	movs	r0, #1
}
  400996:	b005      	add	sp, #20
  400998:	e8bd 8ff0 	ldmia.w	sp!, {r4, r5, r6, r7, r8, r9, sl, fp, pc}
						if( listLIST_IS_EMPTY( &( pxQueue->xTasksWaitingToReceive ) ) == pdFALSE )
  40099c:	6a63      	ldr	r3, [r4, #36]	; 0x24
  40099e:	b173      	cbz	r3, 4009be <xQueueGenericSend+0xf2>
							if( xTaskRemoveFromEventList( &( pxQueue->xTasksWaitingToReceive ) ) == pdTRUE )
  4009a0:	f104 0024 	add.w	r0, r4, #36	; 0x24
  4009a4:	4b3b      	ldr	r3, [pc, #236]	; (400a94 <xQueueGenericSend+0x1c8>)
  4009a6:	4798      	blx	r3
  4009a8:	2801      	cmp	r0, #1
  4009aa:	d1f1      	bne.n	400990 <xQueueGenericSend+0xc4>
								queueYIELD_IF_USING_PREEMPTION();
  4009ac:	f04f 5280 	mov.w	r2, #268435456	; 0x10000000
  4009b0:	4b36      	ldr	r3, [pc, #216]	; (400a8c <xQueueGenericSend+0x1c0>)
  4009b2:	601a      	str	r2, [r3, #0]
  4009b4:	f3bf 8f4f 	dsb	sy
  4009b8:	f3bf 8f6f 	isb	sy
  4009bc:	e7e8      	b.n	400990 <xQueueGenericSend+0xc4>
						else if( xYieldRequired != pdFALSE )
  4009be:	2800      	cmp	r0, #0
  4009c0:	d0e6      	beq.n	400990 <xQueueGenericSend+0xc4>
							queueYIELD_IF_USING_PREEMPTION();
  4009c2:	f04f 5280 	mov.w	r2, #268435456	; 0x10000000
  4009c6:	4b31      	ldr	r3, [pc, #196]	; (400a8c <xQueueGenericSend+0x1c0>)
  4009c8:	601a      	str	r2, [r3, #0]
  4009ca:	f3bf 8f4f 	dsb	sy
  4009ce:	f3bf 8f6f 	isb	sy
  4009d2:	e7dd      	b.n	400990 <xQueueGenericSend+0xc4>
					taskEXIT_CRITICAL();
  4009d4:	4b2e      	ldr	r3, [pc, #184]	; (400a90 <xQueueGenericSend+0x1c4>)
  4009d6:	4798      	blx	r3
					return errQUEUE_FULL;
  4009d8:	2000      	movs	r0, #0
  4009da:	e7dc      	b.n	400996 <xQueueGenericSend+0xca>
				prvUnlockQueue( pxQueue );
  4009dc:	4620      	mov	r0, r4
  4009de:	4b2e      	ldr	r3, [pc, #184]	; (400a98 <xQueueGenericSend+0x1cc>)
  4009e0:	4798      	blx	r3
				( void ) xTaskResumeAll();
  4009e2:	4b2e      	ldr	r3, [pc, #184]	; (400a9c <xQueueGenericSend+0x1d0>)
  4009e4:	4798      	blx	r3
  4009e6:	2701      	movs	r7, #1
		taskENTER_CRITICAL();
  4009e8:	47b0      	blx	r6
			if( ( pxQueue->uxMessagesWaiting < pxQueue->uxLength ) || ( xCopyPosition == queueOVERWRITE ) )
  4009ea:	6ba2      	ldr	r2, [r4, #56]	; 0x38
  4009ec:	6be3      	ldr	r3, [r4, #60]	; 0x3c
  4009ee:	429a      	cmp	r2, r3
  4009f0:	d3b9      	bcc.n	400966 <xQueueGenericSend+0x9a>
  4009f2:	2d02      	cmp	r5, #2
  4009f4:	d0b7      	beq.n	400966 <xQueueGenericSend+0x9a>
				if( xTicksToWait == ( TickType_t ) 0 )
  4009f6:	9b01      	ldr	r3, [sp, #4]
  4009f8:	2b00      	cmp	r3, #0
  4009fa:	d0eb      	beq.n	4009d4 <xQueueGenericSend+0x108>
				else if( xEntryTimeSet == pdFALSE )
  4009fc:	b90f      	cbnz	r7, 400a02 <xQueueGenericSend+0x136>
					vTaskSetTimeOutState( &xTimeOut );
  4009fe:	a802      	add	r0, sp, #8
  400a00:	47d0      	blx	sl
		taskEXIT_CRITICAL();
  400a02:	4b23      	ldr	r3, [pc, #140]	; (400a90 <xQueueGenericSend+0x1c4>)
  400a04:	4798      	blx	r3
		vTaskSuspendAll();
  400a06:	4b26      	ldr	r3, [pc, #152]	; (400aa0 <xQueueGenericSend+0x1d4>)
  400a08:	4798      	blx	r3
		prvLockQueue( pxQueue );
  400a0a:	47b0      	blx	r6
  400a0c:	6c63      	ldr	r3, [r4, #68]	; 0x44
  400a0e:	f1b3 3fff 	cmp.w	r3, #4294967295
  400a12:	d101      	bne.n	400a18 <xQueueGenericSend+0x14c>
  400a14:	2300      	movs	r3, #0
  400a16:	6463      	str	r3, [r4, #68]	; 0x44
  400a18:	6ca3      	ldr	r3, [r4, #72]	; 0x48
  400a1a:	f1b3 3fff 	cmp.w	r3, #4294967295
  400a1e:	d101      	bne.n	400a24 <xQueueGenericSend+0x158>
  400a20:	2300      	movs	r3, #0
  400a22:	64a3      	str	r3, [r4, #72]	; 0x48
  400a24:	4b1a      	ldr	r3, [pc, #104]	; (400a90 <xQueueGenericSend+0x1c4>)
  400a26:	4798      	blx	r3
		if( xTaskCheckForTimeOut( &xTimeOut, &xTicksToWait ) == pdFALSE )
  400a28:	a901      	add	r1, sp, #4
  400a2a:	a802      	add	r0, sp, #8
  400a2c:	4b1d      	ldr	r3, [pc, #116]	; (400aa4 <xQueueGenericSend+0x1d8>)
  400a2e:	4798      	blx	r3
  400a30:	b9e0      	cbnz	r0, 400a6c <xQueueGenericSend+0x1a0>
	taskENTER_CRITICAL();
  400a32:	47b0      	blx	r6
		if( pxQueue->uxMessagesWaiting == pxQueue->uxLength )
  400a34:	f8d4 b038 	ldr.w	fp, [r4, #56]	; 0x38
  400a38:	6be7      	ldr	r7, [r4, #60]	; 0x3c
	taskEXIT_CRITICAL();
  400a3a:	4b15      	ldr	r3, [pc, #84]	; (400a90 <xQueueGenericSend+0x1c4>)
  400a3c:	4798      	blx	r3
			if( prvIsQueueFull( pxQueue ) != pdFALSE )
  400a3e:	45bb      	cmp	fp, r7
  400a40:	d1cc      	bne.n	4009dc <xQueueGenericSend+0x110>
				vTaskPlaceOnEventList( &( pxQueue->xTasksWaitingToSend ), xTicksToWait );
  400a42:	9901      	ldr	r1, [sp, #4]
  400a44:	f104 0010 	add.w	r0, r4, #16
  400a48:	4b17      	ldr	r3, [pc, #92]	; (400aa8 <xQueueGenericSend+0x1dc>)
  400a4a:	4798      	blx	r3
				prvUnlockQueue( pxQueue );
  400a4c:	4620      	mov	r0, r4
  400a4e:	4b12      	ldr	r3, [pc, #72]	; (400a98 <xQueueGenericSend+0x1cc>)
  400a50:	4798      	blx	r3
				if( xTaskResumeAll() == pdFALSE )
  400a52:	4b12      	ldr	r3, [pc, #72]	; (400a9c <xQueueGenericSend+0x1d0>)
  400a54:	4798      	blx	r3
  400a56:	2800      	cmp	r0, #0
  400a58:	d1c5      	bne.n	4009e6 <xQueueGenericSend+0x11a>
					portYIELD_WITHIN_API();
  400a5a:	f04f 5380 	mov.w	r3, #268435456	; 0x10000000
  400a5e:	f8c9 3000 	str.w	r3, [r9]
  400a62:	f3bf 8f4f 	dsb	sy
  400a66:	f3bf 8f6f 	isb	sy
  400a6a:	e7bc      	b.n	4009e6 <xQueueGenericSend+0x11a>
			prvUnlockQueue( pxQueue );
  400a6c:	4620      	mov	r0, r4
  400a6e:	4b0a      	ldr	r3, [pc, #40]	; (400a98 <xQueueGenericSend+0x1cc>)
  400a70:	4798      	blx	r3
			( void ) xTaskResumeAll();
  400a72:	4b0a      	ldr	r3, [pc, #40]	; (400a9c <xQueueGenericSend+0x1d0>)
  400a74:	4798      	blx	r3
			return errQUEUE_FULL;
  400a76:	2000      	movs	r0, #0
  400a78:	e78d      	b.n	400996 <xQueueGenericSend+0xca>
  400a7a:	bf00      	nop
  400a7c:	004017ad 	.word	0x004017ad
  400a80:	004002f9 	.word	0x004002f9
  400a84:	004005e1 	.word	0x004005e1
  400a88:	00400669 	.word	0x00400669
  400a8c:	e000ed04 	.word	0xe000ed04
  400a90:	00400345 	.word	0x00400345
  400a94:	00401645 	.word	0x00401645
  400a98:	00400719 	.word	0x00400719
  400a9c:	004012b9 	.word	0x004012b9
  400aa0:	00401151 	.word	0x00401151
  400aa4:	0040170d 	.word	0x0040170d
  400aa8:	00401541 	.word	0x00401541
  400aac:	004016dd 	.word	0x004016dd

00400ab0 <xQueueGenericSendFromISR>:
	configASSERT( pxQueue );
  400ab0:	2800      	cmp	r0, #0
  400ab2:	d036      	beq.n	400b22 <xQueueGenericSendFromISR+0x72>
{
  400ab4:	e92d 41f0 	stmdb	sp!, {r4, r5, r6, r7, r8, lr}
  400ab8:	4604      	mov	r4, r0
	configASSERT( !( ( pvItemToQueue == NULL ) && ( pxQueue->uxItemSize != ( UBaseType_t ) 0U ) ) );
  400aba:	2900      	cmp	r1, #0
  400abc:	d03c      	beq.n	400b38 <xQueueGenericSendFromISR+0x88>
	configASSERT( !( ( xCopyPosition == queueOVERWRITE ) && ( pxQueue->uxLength != 1 ) ) );
  400abe:	2b02      	cmp	r3, #2
  400ac0:	d048      	beq.n	400b54 <xQueueGenericSendFromISR+0xa4>
  400ac2:	461e      	mov	r6, r3
  400ac4:	4615      	mov	r5, r2
  400ac6:	4688      	mov	r8, r1
	portASSERT_IF_INTERRUPT_PRIORITY_INVALID();
  400ac8:	4b35      	ldr	r3, [pc, #212]	; (400ba0 <xQueueGenericSendFromISR+0xf0>)
  400aca:	4798      	blx	r3
	__asm volatile
  400acc:	f3ef 8711 	mrs	r7, BASEPRI
  400ad0:	f04f 0380 	mov.w	r3, #128	; 0x80
  400ad4:	b672      	cpsid	i
  400ad6:	f383 8811 	msr	BASEPRI, r3
  400ada:	f3bf 8f6f 	isb	sy
  400ade:	f3bf 8f4f 	dsb	sy
  400ae2:	b662      	cpsie	i
		if( ( pxQueue->uxMessagesWaiting < pxQueue->uxLength ) || ( xCopyPosition == queueOVERWRITE ) )
  400ae4:	6ba2      	ldr	r2, [r4, #56]	; 0x38
  400ae6:	6be3      	ldr	r3, [r4, #60]	; 0x3c
  400ae8:	429a      	cmp	r2, r3
  400aea:	d301      	bcc.n	400af0 <xQueueGenericSendFromISR+0x40>
  400aec:	2e02      	cmp	r6, #2
  400aee:	d14f      	bne.n	400b90 <xQueueGenericSendFromISR+0xe0>
			( void ) prvCopyDataToQueue( pxQueue, pvItemToQueue, xCopyPosition );
  400af0:	4632      	mov	r2, r6
  400af2:	4641      	mov	r1, r8
  400af4:	4620      	mov	r0, r4
  400af6:	4b2b      	ldr	r3, [pc, #172]	; (400ba4 <xQueueGenericSendFromISR+0xf4>)
  400af8:	4798      	blx	r3
			if( pxQueue->xTxLock == queueUNLOCKED )
  400afa:	6ca3      	ldr	r3, [r4, #72]	; 0x48
  400afc:	f1b3 3fff 	cmp.w	r3, #4294967295
  400b00:	d141      	bne.n	400b86 <xQueueGenericSendFromISR+0xd6>
					if( pxQueue->pxQueueSetContainer != NULL )
  400b02:	6d63      	ldr	r3, [r4, #84]	; 0x54
  400b04:	2b00      	cmp	r3, #0
  400b06:	d033      	beq.n	400b70 <xQueueGenericSendFromISR+0xc0>
						if( prvNotifyQueueSetContainer( pxQueue, xCopyPosition ) == pdTRUE )
  400b08:	4631      	mov	r1, r6
  400b0a:	4620      	mov	r0, r4
  400b0c:	4b26      	ldr	r3, [pc, #152]	; (400ba8 <xQueueGenericSendFromISR+0xf8>)
  400b0e:	4798      	blx	r3
							if( pxHigherPriorityTaskWoken != NULL )
  400b10:	2d00      	cmp	r5, #0
  400b12:	d03f      	beq.n	400b94 <xQueueGenericSendFromISR+0xe4>
  400b14:	2801      	cmp	r0, #1
  400b16:	d13d      	bne.n	400b94 <xQueueGenericSendFromISR+0xe4>
								*pxHigherPriorityTaskWoken = pdTRUE;
  400b18:	6028      	str	r0, [r5, #0]
	__asm volatile
  400b1a:	f387 8811 	msr	BASEPRI, r7
}
  400b1e:	e8bd 81f0 	ldmia.w	sp!, {r4, r5, r6, r7, r8, pc}
	__asm volatile
  400b22:	f04f 0380 	mov.w	r3, #128	; 0x80
  400b26:	b672      	cpsid	i
  400b28:	f383 8811 	msr	BASEPRI, r3
  400b2c:	f3bf 8f6f 	isb	sy
  400b30:	f3bf 8f4f 	dsb	sy
  400b34:	b662      	cpsie	i
  400b36:	e7fe      	b.n	400b36 <xQueueGenericSendFromISR+0x86>
	configASSERT( !( ( pvItemToQueue == NULL ) && ( pxQueue->uxItemSize != ( UBaseType_t ) 0U ) ) );
  400b38:	6c00      	ldr	r0, [r0, #64]	; 0x40
  400b3a:	2800      	cmp	r0, #0
  400b3c:	d0bf      	beq.n	400abe <xQueueGenericSendFromISR+0xe>
  400b3e:	f04f 0380 	mov.w	r3, #128	; 0x80
  400b42:	b672      	cpsid	i
  400b44:	f383 8811 	msr	BASEPRI, r3
  400b48:	f3bf 8f6f 	isb	sy
  400b4c:	f3bf 8f4f 	dsb	sy
  400b50:	b662      	cpsie	i
  400b52:	e7fe      	b.n	400b52 <xQueueGenericSendFromISR+0xa2>
	configASSERT( !( ( xCopyPosition == queueOVERWRITE ) && ( pxQueue->uxLength != 1 ) ) );
  400b54:	6be0      	ldr	r0, [r4, #60]	; 0x3c
  400b56:	2801      	cmp	r0, #1
  400b58:	d0b3      	beq.n	400ac2 <xQueueGenericSendFromISR+0x12>
  400b5a:	f04f 0380 	mov.w	r3, #128	; 0x80
  400b5e:	b672      	cpsid	i
  400b60:	f383 8811 	msr	BASEPRI, r3
  400b64:	f3bf 8f6f 	isb	sy
  400b68:	f3bf 8f4f 	dsb	sy
  400b6c:	b662      	cpsie	i
  400b6e:	e7fe      	b.n	400b6e <xQueueGenericSendFromISR+0xbe>
						if( listLIST_IS_EMPTY( &( pxQueue->xTasksWaitingToReceive ) ) == pdFALSE )
  400b70:	6a63      	ldr	r3, [r4, #36]	; 0x24
  400b72:	b18b      	cbz	r3, 400b98 <xQueueGenericSendFromISR+0xe8>
							if( xTaskRemoveFromEventList( &( pxQueue->xTasksWaitingToReceive ) ) != pdFALSE )
  400b74:	f104 0024 	add.w	r0, r4, #36	; 0x24
  400b78:	4b0c      	ldr	r3, [pc, #48]	; (400bac <xQueueGenericSendFromISR+0xfc>)
  400b7a:	4798      	blx	r3
								if( pxHigherPriorityTaskWoken != NULL )
  400b7c:	b175      	cbz	r5, 400b9c <xQueueGenericSendFromISR+0xec>
  400b7e:	b168      	cbz	r0, 400b9c <xQueueGenericSendFromISR+0xec>
									*pxHigherPriorityTaskWoken = pdTRUE;
  400b80:	2001      	movs	r0, #1
  400b82:	6028      	str	r0, [r5, #0]
  400b84:	e7c9      	b.n	400b1a <xQueueGenericSendFromISR+0x6a>
				++( pxQueue->xTxLock );
  400b86:	6ca3      	ldr	r3, [r4, #72]	; 0x48
  400b88:	3301      	adds	r3, #1
  400b8a:	64a3      	str	r3, [r4, #72]	; 0x48
			xReturn = pdPASS;
  400b8c:	2001      	movs	r0, #1
  400b8e:	e7c4      	b.n	400b1a <xQueueGenericSendFromISR+0x6a>
			xReturn = errQUEUE_FULL;
  400b90:	2000      	movs	r0, #0
  400b92:	e7c2      	b.n	400b1a <xQueueGenericSendFromISR+0x6a>
			xReturn = pdPASS;
  400b94:	2001      	movs	r0, #1
  400b96:	e7c0      	b.n	400b1a <xQueueGenericSendFromISR+0x6a>
  400b98:	2001      	movs	r0, #1
  400b9a:	e7be      	b.n	400b1a <xQueueGenericSendFromISR+0x6a>
  400b9c:	2001      	movs	r0, #1
  400b9e:	e7bc      	b.n	400b1a <xQueueGenericSendFromISR+0x6a>
  400ba0:	004004f1 	.word	0x004004f1
  400ba4:	004005e1 	.word	0x004005e1
  400ba8:	00400669 	.word	0x00400669
  400bac:	00401645 	.word	0x00401645

00400bb0 <xQueueGenericReceive>:
{
  400bb0:	e92d 47f0 	stmdb	sp!, {r4, r5, r6, r7, r8, r9, sl, lr}
  400bb4:	b084      	sub	sp, #16
  400bb6:	9201      	str	r2, [sp, #4]
	configASSERT( pxQueue );
  400bb8:	b198      	cbz	r0, 400be2 <xQueueGenericReceive+0x32>
  400bba:	4604      	mov	r4, r0
	configASSERT( !( ( pvBuffer == NULL ) && ( pxQueue->uxItemSize != ( UBaseType_t ) 0U ) ) );
  400bbc:	b1e1      	cbz	r1, 400bf8 <xQueueGenericReceive+0x48>
  400bbe:	4698      	mov	r8, r3
  400bc0:	460f      	mov	r7, r1
		configASSERT( !( ( xTaskGetSchedulerState() == taskSCHEDULER_SUSPENDED ) && ( xTicksToWait != 0 ) ) );
  400bc2:	4b61      	ldr	r3, [pc, #388]	; (400d48 <xQueueGenericReceive+0x198>)
  400bc4:	4798      	blx	r3
  400bc6:	bb28      	cbnz	r0, 400c14 <xQueueGenericReceive+0x64>
  400bc8:	9b01      	ldr	r3, [sp, #4]
  400bca:	b353      	cbz	r3, 400c22 <xQueueGenericReceive+0x72>
  400bcc:	f04f 0380 	mov.w	r3, #128	; 0x80
  400bd0:	b672      	cpsid	i
  400bd2:	f383 8811 	msr	BASEPRI, r3
  400bd6:	f3bf 8f6f 	isb	sy
  400bda:	f3bf 8f4f 	dsb	sy
  400bde:	b662      	cpsie	i
  400be0:	e7fe      	b.n	400be0 <xQueueGenericReceive+0x30>
  400be2:	f04f 0380 	mov.w	r3, #128	; 0x80
  400be6:	b672      	cpsid	i
  400be8:	f383 8811 	msr	BASEPRI, r3
  400bec:	f3bf 8f6f 	isb	sy
  400bf0:	f3bf 8f4f 	dsb	sy
  400bf4:	b662      	cpsie	i
  400bf6:	e7fe      	b.n	400bf6 <xQueueGenericReceive+0x46>
	configASSERT( !( ( pvBuffer == NULL ) && ( pxQueue->uxItemSize != ( UBaseType_t ) 0U ) ) );
  400bf8:	6c02      	ldr	r2, [r0, #64]	; 0x40
  400bfa:	2a00      	cmp	r2, #0
  400bfc:	d0df      	beq.n	400bbe <xQueueGenericReceive+0xe>
  400bfe:	f04f 0380 	mov.w	r3, #128	; 0x80
  400c02:	b672      	cpsid	i
  400c04:	f383 8811 	msr	BASEPRI, r3
  400c08:	f3bf 8f6f 	isb	sy
  400c0c:	f3bf 8f4f 	dsb	sy
  400c10:	b662      	cpsie	i
  400c12:	e7fe      	b.n	400c12 <xQueueGenericReceive+0x62>
  400c14:	2600      	movs	r6, #0
		taskENTER_CRITICAL();
  400c16:	4d4d      	ldr	r5, [pc, #308]	; (400d4c <xQueueGenericReceive+0x19c>)
					vTaskSetTimeOutState( &xTimeOut );
  400c18:	f8df a160 	ldr.w	sl, [pc, #352]	; 400d7c <xQueueGenericReceive+0x1cc>
					portYIELD_WITHIN_API();
  400c1c:	f8df 913c 	ldr.w	r9, [pc, #316]	; 400d5c <xQueueGenericReceive+0x1ac>
  400c20:	e04b      	b.n	400cba <xQueueGenericReceive+0x10a>
  400c22:	2600      	movs	r6, #0
  400c24:	e7f7      	b.n	400c16 <xQueueGenericReceive+0x66>
				pcOriginalReadPosition = pxQueue->u.pcReadFrom;
  400c26:	68e5      	ldr	r5, [r4, #12]
				prvCopyDataFromQueue( pxQueue, pvBuffer );
  400c28:	4639      	mov	r1, r7
  400c2a:	4620      	mov	r0, r4
  400c2c:	4b48      	ldr	r3, [pc, #288]	; (400d50 <xQueueGenericReceive+0x1a0>)
  400c2e:	4798      	blx	r3
				if( xJustPeeking == pdFALSE )
  400c30:	f1b8 0f00 	cmp.w	r8, #0
  400c34:	d11d      	bne.n	400c72 <xQueueGenericReceive+0xc2>
					--( pxQueue->uxMessagesWaiting );
  400c36:	6ba3      	ldr	r3, [r4, #56]	; 0x38
  400c38:	3b01      	subs	r3, #1
  400c3a:	63a3      	str	r3, [r4, #56]	; 0x38
						if( pxQueue->uxQueueType == queueQUEUE_IS_MUTEX )
  400c3c:	6823      	ldr	r3, [r4, #0]
  400c3e:	b913      	cbnz	r3, 400c46 <xQueueGenericReceive+0x96>
							pxQueue->pxMutexHolder = ( int8_t * ) pvTaskIncrementMutexHeldCount(); /*lint !e961 Cast is not redundant as TaskHandle_t is a typedef. */
  400c40:	4b44      	ldr	r3, [pc, #272]	; (400d54 <xQueueGenericReceive+0x1a4>)
  400c42:	4798      	blx	r3
  400c44:	6060      	str	r0, [r4, #4]
					if( listLIST_IS_EMPTY( &( pxQueue->xTasksWaitingToSend ) ) == pdFALSE )
  400c46:	6923      	ldr	r3, [r4, #16]
  400c48:	b16b      	cbz	r3, 400c66 <xQueueGenericReceive+0xb6>
						if( xTaskRemoveFromEventList( &( pxQueue->xTasksWaitingToSend ) ) == pdTRUE )
  400c4a:	f104 0010 	add.w	r0, r4, #16
  400c4e:	4b42      	ldr	r3, [pc, #264]	; (400d58 <xQueueGenericReceive+0x1a8>)
  400c50:	4798      	blx	r3
  400c52:	2801      	cmp	r0, #1
  400c54:	d107      	bne.n	400c66 <xQueueGenericReceive+0xb6>
							queueYIELD_IF_USING_PREEMPTION();
  400c56:	f04f 5280 	mov.w	r2, #268435456	; 0x10000000
  400c5a:	4b40      	ldr	r3, [pc, #256]	; (400d5c <xQueueGenericReceive+0x1ac>)
  400c5c:	601a      	str	r2, [r3, #0]
  400c5e:	f3bf 8f4f 	dsb	sy
  400c62:	f3bf 8f6f 	isb	sy
				taskEXIT_CRITICAL();
  400c66:	4b3e      	ldr	r3, [pc, #248]	; (400d60 <xQueueGenericReceive+0x1b0>)
  400c68:	4798      	blx	r3
				return pdPASS;
  400c6a:	2001      	movs	r0, #1
}
  400c6c:	b004      	add	sp, #16
  400c6e:	e8bd 87f0 	ldmia.w	sp!, {r4, r5, r6, r7, r8, r9, sl, pc}
					pxQueue->u.pcReadFrom = pcOriginalReadPosition;
  400c72:	60e5      	str	r5, [r4, #12]
					if( listLIST_IS_EMPTY( &( pxQueue->xTasksWaitingToReceive ) ) == pdFALSE )
  400c74:	6a63      	ldr	r3, [r4, #36]	; 0x24
  400c76:	2b00      	cmp	r3, #0
  400c78:	d0f5      	beq.n	400c66 <xQueueGenericReceive+0xb6>
						if( xTaskRemoveFromEventList( &( pxQueue->xTasksWaitingToReceive ) ) != pdFALSE )
  400c7a:	f104 0024 	add.w	r0, r4, #36	; 0x24
  400c7e:	4b36      	ldr	r3, [pc, #216]	; (400d58 <xQueueGenericReceive+0x1a8>)
  400c80:	4798      	blx	r3
  400c82:	2800      	cmp	r0, #0
  400c84:	d0ef      	beq.n	400c66 <xQueueGenericReceive+0xb6>
							queueYIELD_IF_USING_PREEMPTION();
  400c86:	f04f 5280 	mov.w	r2, #268435456	; 0x10000000
  400c8a:	4b34      	ldr	r3, [pc, #208]	; (400d5c <xQueueGenericReceive+0x1ac>)
  400c8c:	601a      	str	r2, [r3, #0]
  400c8e:	f3bf 8f4f 	dsb	sy
  400c92:	f3bf 8f6f 	isb	sy
  400c96:	e7e6      	b.n	400c66 <xQueueGenericReceive+0xb6>
					taskEXIT_CRITICAL();
  400c98:	4b31      	ldr	r3, [pc, #196]	; (400d60 <xQueueGenericReceive+0x1b0>)
  400c9a:	4798      	blx	r3
					return errQUEUE_EMPTY;
  400c9c:	2000      	movs	r0, #0
  400c9e:	e7e5      	b.n	400c6c <xQueueGenericReceive+0xbc>
						taskENTER_CRITICAL();
  400ca0:	47a8      	blx	r5
							vTaskPriorityInherit( ( void * ) pxQueue->pxMutexHolder );
  400ca2:	6860      	ldr	r0, [r4, #4]
  400ca4:	4b2f      	ldr	r3, [pc, #188]	; (400d64 <xQueueGenericReceive+0x1b4>)
  400ca6:	4798      	blx	r3
						taskEXIT_CRITICAL();
  400ca8:	4b2d      	ldr	r3, [pc, #180]	; (400d60 <xQueueGenericReceive+0x1b0>)
  400caa:	4798      	blx	r3
  400cac:	e030      	b.n	400d10 <xQueueGenericReceive+0x160>
				prvUnlockQueue( pxQueue );
  400cae:	4620      	mov	r0, r4
  400cb0:	4b2d      	ldr	r3, [pc, #180]	; (400d68 <xQueueGenericReceive+0x1b8>)
  400cb2:	4798      	blx	r3
				( void ) xTaskResumeAll();
  400cb4:	4b2d      	ldr	r3, [pc, #180]	; (400d6c <xQueueGenericReceive+0x1bc>)
  400cb6:	4798      	blx	r3
  400cb8:	2601      	movs	r6, #1
		taskENTER_CRITICAL();
  400cba:	47a8      	blx	r5
			if( pxQueue->uxMessagesWaiting > ( UBaseType_t ) 0 )
  400cbc:	6ba3      	ldr	r3, [r4, #56]	; 0x38
  400cbe:	2b00      	cmp	r3, #0
  400cc0:	d1b1      	bne.n	400c26 <xQueueGenericReceive+0x76>
				if( xTicksToWait == ( TickType_t ) 0 )
  400cc2:	9b01      	ldr	r3, [sp, #4]
  400cc4:	2b00      	cmp	r3, #0
  400cc6:	d0e7      	beq.n	400c98 <xQueueGenericReceive+0xe8>
				else if( xEntryTimeSet == pdFALSE )
  400cc8:	b90e      	cbnz	r6, 400cce <xQueueGenericReceive+0x11e>
					vTaskSetTimeOutState( &xTimeOut );
  400cca:	a802      	add	r0, sp, #8
  400ccc:	47d0      	blx	sl
		taskEXIT_CRITICAL();
  400cce:	4b24      	ldr	r3, [pc, #144]	; (400d60 <xQueueGenericReceive+0x1b0>)
  400cd0:	4798      	blx	r3
		vTaskSuspendAll();
  400cd2:	4b27      	ldr	r3, [pc, #156]	; (400d70 <xQueueGenericReceive+0x1c0>)
  400cd4:	4798      	blx	r3
		prvLockQueue( pxQueue );
  400cd6:	47a8      	blx	r5
  400cd8:	6c63      	ldr	r3, [r4, #68]	; 0x44
  400cda:	f1b3 3fff 	cmp.w	r3, #4294967295
  400cde:	d101      	bne.n	400ce4 <xQueueGenericReceive+0x134>
  400ce0:	2300      	movs	r3, #0
  400ce2:	6463      	str	r3, [r4, #68]	; 0x44
  400ce4:	6ca3      	ldr	r3, [r4, #72]	; 0x48
  400ce6:	f1b3 3fff 	cmp.w	r3, #4294967295
  400cea:	d101      	bne.n	400cf0 <xQueueGenericReceive+0x140>
  400cec:	2300      	movs	r3, #0
  400cee:	64a3      	str	r3, [r4, #72]	; 0x48
  400cf0:	4b1b      	ldr	r3, [pc, #108]	; (400d60 <xQueueGenericReceive+0x1b0>)
  400cf2:	4798      	blx	r3
		if( xTaskCheckForTimeOut( &xTimeOut, &xTicksToWait ) == pdFALSE )
  400cf4:	a901      	add	r1, sp, #4
  400cf6:	a802      	add	r0, sp, #8
  400cf8:	4b1e      	ldr	r3, [pc, #120]	; (400d74 <xQueueGenericReceive+0x1c4>)
  400cfa:	4798      	blx	r3
  400cfc:	b9e8      	cbnz	r0, 400d3a <xQueueGenericReceive+0x18a>
	taskENTER_CRITICAL();
  400cfe:	47a8      	blx	r5
		if( pxQueue->uxMessagesWaiting == ( UBaseType_t )  0 )
  400d00:	6ba6      	ldr	r6, [r4, #56]	; 0x38
	taskEXIT_CRITICAL();
  400d02:	4b17      	ldr	r3, [pc, #92]	; (400d60 <xQueueGenericReceive+0x1b0>)
  400d04:	4798      	blx	r3
			if( prvIsQueueEmpty( pxQueue ) != pdFALSE )
  400d06:	2e00      	cmp	r6, #0
  400d08:	d1d1      	bne.n	400cae <xQueueGenericReceive+0xfe>
					if( pxQueue->uxQueueType == queueQUEUE_IS_MUTEX )
  400d0a:	6823      	ldr	r3, [r4, #0]
  400d0c:	2b00      	cmp	r3, #0
  400d0e:	d0c7      	beq.n	400ca0 <xQueueGenericReceive+0xf0>
				vTaskPlaceOnEventList( &( pxQueue->xTasksWaitingToReceive ), xTicksToWait );
  400d10:	9901      	ldr	r1, [sp, #4]
  400d12:	f104 0024 	add.w	r0, r4, #36	; 0x24
  400d16:	4b18      	ldr	r3, [pc, #96]	; (400d78 <xQueueGenericReceive+0x1c8>)
  400d18:	4798      	blx	r3
				prvUnlockQueue( pxQueue );
  400d1a:	4620      	mov	r0, r4
  400d1c:	4b12      	ldr	r3, [pc, #72]	; (400d68 <xQueueGenericReceive+0x1b8>)
  400d1e:	4798      	blx	r3
				if( xTaskResumeAll() == pdFALSE )
  400d20:	4b12      	ldr	r3, [pc, #72]	; (400d6c <xQueueGenericReceive+0x1bc>)
  400d22:	4798      	blx	r3
  400d24:	2800      	cmp	r0, #0
  400d26:	d1c7      	bne.n	400cb8 <xQueueGenericReceive+0x108>
					portYIELD_WITHIN_API();
  400d28:	f04f 5380 	mov.w	r3, #268435456	; 0x10000000
  400d2c:	f8c9 3000 	str.w	r3, [r9]
  400d30:	f3bf 8f4f 	dsb	sy
  400d34:	f3bf 8f6f 	isb	sy
  400d38:	e7be      	b.n	400cb8 <xQueueGenericReceive+0x108>
			prvUnlockQueue( pxQueue );
  400d3a:	4620      	mov	r0, r4
  400d3c:	4b0a      	ldr	r3, [pc, #40]	; (400d68 <xQueueGenericReceive+0x1b8>)
  400d3e:	4798      	blx	r3
			( void ) xTaskResumeAll();
  400d40:	4b0a      	ldr	r3, [pc, #40]	; (400d6c <xQueueGenericReceive+0x1bc>)
  400d42:	4798      	blx	r3
			return errQUEUE_EMPTY;
  400d44:	2000      	movs	r0, #0
  400d46:	e791      	b.n	400c6c <xQueueGenericReceive+0xbc>
  400d48:	004017ad 	.word	0x004017ad
  400d4c:	004002f9 	.word	0x004002f9
  400d50:	004006f1 	.word	0x004006f1
  400d54:	0040192d 	.word	0x0040192d
  400d58:	00401645 	.word	0x00401645
  400d5c:	e000ed04 	.word	0xe000ed04
  400d60:	00400345 	.word	0x00400345
  400d64:	004017cd 	.word	0x004017cd
  400d68:	00400719 	.word	0x00400719
  400d6c:	004012b9 	.word	0x004012b9
  400d70:	00401151 	.word	0x00401151
  400d74:	0040170d 	.word	0x0040170d
  400d78:	00401541 	.word	0x00401541
  400d7c:	004016dd 	.word	0x004016dd

00400d80 <vQueueAddToRegistry>:
	{
  400d80:	b410      	push	{r4}
			if( xQueueRegistry[ ux ].pcQueueName == NULL )
  400d82:	4b0b      	ldr	r3, [pc, #44]	; (400db0 <vQueueAddToRegistry+0x30>)
  400d84:	681b      	ldr	r3, [r3, #0]
  400d86:	b153      	cbz	r3, 400d9e <vQueueAddToRegistry+0x1e>
  400d88:	2301      	movs	r3, #1
  400d8a:	4c09      	ldr	r4, [pc, #36]	; (400db0 <vQueueAddToRegistry+0x30>)
  400d8c:	f854 2033 	ldr.w	r2, [r4, r3, lsl #3]
  400d90:	b132      	cbz	r2, 400da0 <vQueueAddToRegistry+0x20>
		for( ux = ( UBaseType_t ) 0U; ux < ( UBaseType_t ) configQUEUE_REGISTRY_SIZE; ux++ )
  400d92:	3301      	adds	r3, #1
  400d94:	2b08      	cmp	r3, #8
  400d96:	d1f9      	bne.n	400d8c <vQueueAddToRegistry+0xc>
	}
  400d98:	f85d 4b04 	ldr.w	r4, [sp], #4
  400d9c:	4770      	bx	lr
		for( ux = ( UBaseType_t ) 0U; ux < ( UBaseType_t ) configQUEUE_REGISTRY_SIZE; ux++ )
  400d9e:	2300      	movs	r3, #0
				xQueueRegistry[ ux ].pcQueueName = pcQueueName;
  400da0:	4a03      	ldr	r2, [pc, #12]	; (400db0 <vQueueAddToRegistry+0x30>)
  400da2:	f842 1033 	str.w	r1, [r2, r3, lsl #3]
				xQueueRegistry[ ux ].xHandle = xQueue;
  400da6:	eb02 03c3 	add.w	r3, r2, r3, lsl #3
  400daa:	6058      	str	r0, [r3, #4]
				break;
  400dac:	e7f4      	b.n	400d98 <vQueueAddToRegistry+0x18>
  400dae:	bf00      	nop
  400db0:	2040c998 	.word	0x2040c998

00400db4 <vQueueWaitForMessageRestricted>:
	{
  400db4:	b570      	push	{r4, r5, r6, lr}
  400db6:	4604      	mov	r4, r0
  400db8:	460d      	mov	r5, r1
  400dba:	4616      	mov	r6, r2
		prvLockQueue( pxQueue );
  400dbc:	4b0f      	ldr	r3, [pc, #60]	; (400dfc <vQueueWaitForMessageRestricted+0x48>)
  400dbe:	4798      	blx	r3
  400dc0:	6c63      	ldr	r3, [r4, #68]	; 0x44
  400dc2:	f1b3 3fff 	cmp.w	r3, #4294967295
  400dc6:	d00b      	beq.n	400de0 <vQueueWaitForMessageRestricted+0x2c>
  400dc8:	6ca3      	ldr	r3, [r4, #72]	; 0x48
  400dca:	f1b3 3fff 	cmp.w	r3, #4294967295
  400dce:	d00a      	beq.n	400de6 <vQueueWaitForMessageRestricted+0x32>
  400dd0:	4b0b      	ldr	r3, [pc, #44]	; (400e00 <vQueueWaitForMessageRestricted+0x4c>)
  400dd2:	4798      	blx	r3
		if( pxQueue->uxMessagesWaiting == ( UBaseType_t ) 0U )
  400dd4:	6ba3      	ldr	r3, [r4, #56]	; 0x38
  400dd6:	b14b      	cbz	r3, 400dec <vQueueWaitForMessageRestricted+0x38>
		prvUnlockQueue( pxQueue );
  400dd8:	4620      	mov	r0, r4
  400dda:	4b0a      	ldr	r3, [pc, #40]	; (400e04 <vQueueWaitForMessageRestricted+0x50>)
  400ddc:	4798      	blx	r3
  400dde:	bd70      	pop	{r4, r5, r6, pc}
		prvLockQueue( pxQueue );
  400de0:	2300      	movs	r3, #0
  400de2:	6463      	str	r3, [r4, #68]	; 0x44
  400de4:	e7f0      	b.n	400dc8 <vQueueWaitForMessageRestricted+0x14>
  400de6:	2300      	movs	r3, #0
  400de8:	64a3      	str	r3, [r4, #72]	; 0x48
  400dea:	e7f1      	b.n	400dd0 <vQueueWaitForMessageRestricted+0x1c>
			vTaskPlaceOnEventListRestricted( &( pxQueue->xTasksWaitingToReceive ), xTicksToWait, xWaitIndefinitely );
  400dec:	4632      	mov	r2, r6
  400dee:	4629      	mov	r1, r5
  400df0:	f104 0024 	add.w	r0, r4, #36	; 0x24
  400df4:	4b04      	ldr	r3, [pc, #16]	; (400e08 <vQueueWaitForMessageRestricted+0x54>)
  400df6:	4798      	blx	r3
  400df8:	e7ee      	b.n	400dd8 <vQueueWaitForMessageRestricted+0x24>
  400dfa:	bf00      	nop
  400dfc:	004002f9 	.word	0x004002f9
  400e00:	00400345 	.word	0x00400345
  400e04:	00400719 	.word	0x00400719
  400e08:	004015c5 	.word	0x004015c5

00400e0c <prvResetNextTaskUnblockTime>:

static void prvResetNextTaskUnblockTime( void )
{
TCB_t *pxTCB;

	if( listLIST_IS_EMPTY( pxDelayedTaskList ) != pdFALSE )
  400e0c:	4b08      	ldr	r3, [pc, #32]	; (400e30 <prvResetNextTaskUnblockTime+0x24>)
  400e0e:	681b      	ldr	r3, [r3, #0]
  400e10:	681b      	ldr	r3, [r3, #0]
  400e12:	b13b      	cbz	r3, 400e24 <prvResetNextTaskUnblockTime+0x18>
	{
		/* The new current delayed list is not empty, get the value of
		the item at the head of the delayed list.  This is the time at
		which the task at the head of the delayed list should be removed
		from the Blocked state. */
		( pxTCB ) = ( TCB_t * ) listGET_OWNER_OF_HEAD_ENTRY( pxDelayedTaskList );
  400e14:	4b06      	ldr	r3, [pc, #24]	; (400e30 <prvResetNextTaskUnblockTime+0x24>)
  400e16:	681b      	ldr	r3, [r3, #0]
  400e18:	68db      	ldr	r3, [r3, #12]
		xNextTaskUnblockTime = listGET_LIST_ITEM_VALUE( &( ( pxTCB )->xGenericListItem ) );
  400e1a:	68db      	ldr	r3, [r3, #12]
  400e1c:	685a      	ldr	r2, [r3, #4]
  400e1e:	4b05      	ldr	r3, [pc, #20]	; (400e34 <prvResetNextTaskUnblockTime+0x28>)
  400e20:	601a      	str	r2, [r3, #0]
  400e22:	4770      	bx	lr
		xNextTaskUnblockTime = portMAX_DELAY;
  400e24:	f04f 32ff 	mov.w	r2, #4294967295
  400e28:	4b02      	ldr	r3, [pc, #8]	; (400e34 <prvResetNextTaskUnblockTime+0x28>)
  400e2a:	601a      	str	r2, [r3, #0]
  400e2c:	4770      	bx	lr
  400e2e:	bf00      	nop
  400e30:	2040c200 	.word	0x2040c200
  400e34:	2040c2ac 	.word	0x2040c2ac

00400e38 <prvAddCurrentTaskToDelayedList>:
{
  400e38:	b510      	push	{r4, lr}
	listSET_LIST_ITEM_VALUE( &( pxCurrentTCB->xGenericListItem ), xTimeToWake );
  400e3a:	4b0f      	ldr	r3, [pc, #60]	; (400e78 <prvAddCurrentTaskToDelayedList+0x40>)
  400e3c:	681b      	ldr	r3, [r3, #0]
  400e3e:	6058      	str	r0, [r3, #4]
	if( xTimeToWake < xTickCount )
  400e40:	4b0e      	ldr	r3, [pc, #56]	; (400e7c <prvAddCurrentTaskToDelayedList+0x44>)
  400e42:	681b      	ldr	r3, [r3, #0]
  400e44:	4298      	cmp	r0, r3
  400e46:	d30e      	bcc.n	400e66 <prvAddCurrentTaskToDelayedList+0x2e>
  400e48:	4604      	mov	r4, r0
		vListInsert( pxDelayedTaskList, &( pxCurrentTCB->xGenericListItem ) );
  400e4a:	4b0d      	ldr	r3, [pc, #52]	; (400e80 <prvAddCurrentTaskToDelayedList+0x48>)
  400e4c:	6818      	ldr	r0, [r3, #0]
  400e4e:	4b0a      	ldr	r3, [pc, #40]	; (400e78 <prvAddCurrentTaskToDelayedList+0x40>)
  400e50:	6819      	ldr	r1, [r3, #0]
  400e52:	3104      	adds	r1, #4
  400e54:	4b0b      	ldr	r3, [pc, #44]	; (400e84 <prvAddCurrentTaskToDelayedList+0x4c>)
  400e56:	4798      	blx	r3
		if( xTimeToWake < xNextTaskUnblockTime )
  400e58:	4b0b      	ldr	r3, [pc, #44]	; (400e88 <prvAddCurrentTaskToDelayedList+0x50>)
  400e5a:	681b      	ldr	r3, [r3, #0]
  400e5c:	429c      	cmp	r4, r3
  400e5e:	d201      	bcs.n	400e64 <prvAddCurrentTaskToDelayedList+0x2c>
			xNextTaskUnblockTime = xTimeToWake;
  400e60:	4b09      	ldr	r3, [pc, #36]	; (400e88 <prvAddCurrentTaskToDelayedList+0x50>)
  400e62:	601c      	str	r4, [r3, #0]
  400e64:	bd10      	pop	{r4, pc}
		vListInsert( pxOverflowDelayedTaskList, &( pxCurrentTCB->xGenericListItem ) );
  400e66:	4b09      	ldr	r3, [pc, #36]	; (400e8c <prvAddCurrentTaskToDelayedList+0x54>)
  400e68:	6818      	ldr	r0, [r3, #0]
  400e6a:	4b03      	ldr	r3, [pc, #12]	; (400e78 <prvAddCurrentTaskToDelayedList+0x40>)
  400e6c:	6819      	ldr	r1, [r3, #0]
  400e6e:	3104      	adds	r1, #4
  400e70:	4b04      	ldr	r3, [pc, #16]	; (400e84 <prvAddCurrentTaskToDelayedList+0x4c>)
  400e72:	4798      	blx	r3
  400e74:	bd10      	pop	{r4, pc}
  400e76:	bf00      	nop
  400e78:	2040c1fc 	.word	0x2040c1fc
  400e7c:	2040c2f4 	.word	0x2040c2f4
  400e80:	2040c200 	.word	0x2040c200
  400e84:	004001e1 	.word	0x004001e1
  400e88:	2040c2ac 	.word	0x2040c2ac
  400e8c:	2040c204 	.word	0x2040c204

00400e90 <xTaskGenericCreate>:
{
  400e90:	e92d 4ff0 	stmdb	sp!, {r4, r5, r6, r7, r8, r9, sl, fp, lr}
  400e94:	b083      	sub	sp, #12
  400e96:	9d0c      	ldr	r5, [sp, #48]	; 0x30
  400e98:	f8dd a034 	ldr.w	sl, [sp, #52]	; 0x34
  400e9c:	9e0e      	ldr	r6, [sp, #56]	; 0x38
	configASSERT( pxTaskCode );
  400e9e:	b160      	cbz	r0, 400eba <xTaskGenericCreate+0x2a>
	configASSERT( ( ( uxPriority & ( UBaseType_t ) ( ~portPRIVILEGE_BIT ) ) < ( UBaseType_t ) configMAX_PRIORITIES ) );
  400ea0:	2d04      	cmp	r5, #4
  400ea2:	d915      	bls.n	400ed0 <xTaskGenericCreate+0x40>
  400ea4:	f04f 0380 	mov.w	r3, #128	; 0x80
  400ea8:	b672      	cpsid	i
  400eaa:	f383 8811 	msr	BASEPRI, r3
  400eae:	f3bf 8f6f 	isb	sy
  400eb2:	f3bf 8f4f 	dsb	sy
  400eb6:	b662      	cpsie	i
  400eb8:	e7fe      	b.n	400eb8 <xTaskGenericCreate+0x28>
  400eba:	f04f 0380 	mov.w	r3, #128	; 0x80
  400ebe:	b672      	cpsid	i
  400ec0:	f383 8811 	msr	BASEPRI, r3
  400ec4:	f3bf 8f6f 	isb	sy
  400ec8:	f3bf 8f4f 	dsb	sy
  400ecc:	b662      	cpsie	i
  400ece:	e7fe      	b.n	400ece <xTaskGenericCreate+0x3e>
  400ed0:	9001      	str	r0, [sp, #4]
  400ed2:	4698      	mov	r8, r3
  400ed4:	4691      	mov	r9, r2
  400ed6:	460f      	mov	r7, r1
		pxStack = ( StackType_t * ) pvPortMallocAligned( ( ( ( size_t ) usStackDepth ) * sizeof( StackType_t ) ), puxStackBuffer ); /*lint !e961 MISRA exception as the casts are only redundant for some ports. */
  400ed8:	b936      	cbnz	r6, 400ee8 <xTaskGenericCreate+0x58>
  400eda:	0090      	lsls	r0, r2, #2
  400edc:	4b62      	ldr	r3, [pc, #392]	; (401068 <xTaskGenericCreate+0x1d8>)
  400ede:	4798      	blx	r3
		if( pxStack != NULL )
  400ee0:	4606      	mov	r6, r0
  400ee2:	2800      	cmp	r0, #0
  400ee4:	f000 809e 	beq.w	401024 <xTaskGenericCreate+0x194>
			pxNewTCB = ( TCB_t * ) pvPortMalloc( sizeof( TCB_t ) );
  400ee8:	2058      	movs	r0, #88	; 0x58
  400eea:	4b5f      	ldr	r3, [pc, #380]	; (401068 <xTaskGenericCreate+0x1d8>)
  400eec:	4798      	blx	r3
			if( pxNewTCB != NULL )
  400eee:	4604      	mov	r4, r0
  400ef0:	2800      	cmp	r0, #0
  400ef2:	f000 8094 	beq.w	40101e <xTaskGenericCreate+0x18e>
				pxNewTCB->pxStack = pxStack;
  400ef6:	6306      	str	r6, [r0, #48]	; 0x30
			( void ) memset( pxNewTCB->pxStack, ( int ) tskSTACK_FILL_BYTE, ( size_t ) usStackDepth * sizeof( StackType_t ) );
  400ef8:	ea4f 0289 	mov.w	r2, r9, lsl #2
  400efc:	21a5      	movs	r1, #165	; 0xa5
  400efe:	4630      	mov	r0, r6
  400f00:	4b5a      	ldr	r3, [pc, #360]	; (40106c <xTaskGenericCreate+0x1dc>)
  400f02:	4798      	blx	r3
			pxTopOfStack = pxNewTCB->pxStack + ( usStackDepth - ( uint16_t ) 1 );
  400f04:	f06f 4640 	mvn.w	r6, #3221225472	; 0xc0000000
  400f08:	444e      	add	r6, r9
  400f0a:	6b23      	ldr	r3, [r4, #48]	; 0x30
  400f0c:	eb03 0386 	add.w	r3, r3, r6, lsl #2
			pxTopOfStack = ( StackType_t * ) ( ( ( portPOINTER_SIZE_TYPE ) pxTopOfStack ) & ( ~( ( portPOINTER_SIZE_TYPE ) portBYTE_ALIGNMENT_MASK ) ) ); /*lint !e923 MISRA exception.  Avoiding casts between pointers and integers is not practical.  Size differences accounted for using portPOINTER_SIZE_TYPE type. */
  400f10:	f023 0607 	bic.w	r6, r3, #7
		pxTCB->pcTaskName[ x ] = pcName[ x ];
  400f14:	783b      	ldrb	r3, [r7, #0]
  400f16:	f884 3034 	strb.w	r3, [r4, #52]	; 0x34
		if( pcName[ x ] == 0x00 )
  400f1a:	783b      	ldrb	r3, [r7, #0]
  400f1c:	2b00      	cmp	r3, #0
  400f1e:	f040 8084 	bne.w	40102a <xTaskGenericCreate+0x19a>
	pxTCB->pcTaskName[ configMAX_TASK_NAME_LEN - 1 ] = '\0';
  400f22:	2700      	movs	r7, #0
  400f24:	f884 703d 	strb.w	r7, [r4, #61]	; 0x3d
	pxTCB->uxPriority = uxPriority;
  400f28:	62e5      	str	r5, [r4, #44]	; 0x2c
		pxTCB->uxBasePriority = uxPriority;
  400f2a:	64a5      	str	r5, [r4, #72]	; 0x48
		pxTCB->uxMutexesHeld = 0;
  400f2c:	64e7      	str	r7, [r4, #76]	; 0x4c
	vListInitialiseItem( &( pxTCB->xGenericListItem ) );
  400f2e:	f104 0904 	add.w	r9, r4, #4
  400f32:	4648      	mov	r0, r9
  400f34:	f8df b184 	ldr.w	fp, [pc, #388]	; 4010bc <xTaskGenericCreate+0x22c>
  400f38:	47d8      	blx	fp
	vListInitialiseItem( &( pxTCB->xEventListItem ) );
  400f3a:	f104 0018 	add.w	r0, r4, #24
  400f3e:	47d8      	blx	fp
	listSET_LIST_ITEM_OWNER( &( pxTCB->xGenericListItem ), pxTCB );
  400f40:	6124      	str	r4, [r4, #16]
	listSET_LIST_ITEM_VALUE( &( pxTCB->xEventListItem ), ( TickType_t ) configMAX_PRIORITIES - ( TickType_t ) uxPriority ); /*lint !e961 MISRA exception as the casts are only redundant for some ports. */
  400f42:	f1c5 0305 	rsb	r3, r5, #5
  400f46:	61a3      	str	r3, [r4, #24]
	listSET_LIST_ITEM_OWNER( &( pxTCB->xEventListItem ), pxTCB );
  400f48:	6264      	str	r4, [r4, #36]	; 0x24
		pxTCB->ulNotifiedValue = 0;
  400f4a:	6527      	str	r7, [r4, #80]	; 0x50
		pxTCB->eNotifyState = eNotWaitingNotification;
  400f4c:	f884 7054 	strb.w	r7, [r4, #84]	; 0x54
			pxNewTCB->pxTopOfStack = pxPortInitialiseStack( pxTopOfStack, pxTaskCode, pvParameters );
  400f50:	4642      	mov	r2, r8
  400f52:	9901      	ldr	r1, [sp, #4]
  400f54:	4630      	mov	r0, r6
  400f56:	4b46      	ldr	r3, [pc, #280]	; (401070 <xTaskGenericCreate+0x1e0>)
  400f58:	4798      	blx	r3
  400f5a:	6020      	str	r0, [r4, #0]
		if( ( void * ) pxCreatedTask != NULL )
  400f5c:	f1ba 0f00 	cmp.w	sl, #0
  400f60:	d001      	beq.n	400f66 <xTaskGenericCreate+0xd6>
			*pxCreatedTask = ( TaskHandle_t ) pxNewTCB;
  400f62:	f8ca 4000 	str.w	r4, [sl]
		taskENTER_CRITICAL();
  400f66:	4b43      	ldr	r3, [pc, #268]	; (401074 <xTaskGenericCreate+0x1e4>)
  400f68:	4798      	blx	r3
			uxCurrentNumberOfTasks++;
  400f6a:	4a43      	ldr	r2, [pc, #268]	; (401078 <xTaskGenericCreate+0x1e8>)
  400f6c:	6813      	ldr	r3, [r2, #0]
  400f6e:	3301      	adds	r3, #1
  400f70:	6013      	str	r3, [r2, #0]
			if( pxCurrentTCB == NULL )
  400f72:	4b42      	ldr	r3, [pc, #264]	; (40107c <xTaskGenericCreate+0x1ec>)
  400f74:	681b      	ldr	r3, [r3, #0]
  400f76:	2b00      	cmp	r3, #0
  400f78:	d166      	bne.n	401048 <xTaskGenericCreate+0x1b8>
				pxCurrentTCB =  pxNewTCB;
  400f7a:	4b40      	ldr	r3, [pc, #256]	; (40107c <xTaskGenericCreate+0x1ec>)
  400f7c:	601c      	str	r4, [r3, #0]
				if( uxCurrentNumberOfTasks == ( UBaseType_t ) 1 )
  400f7e:	6813      	ldr	r3, [r2, #0]
  400f80:	2b01      	cmp	r3, #1
  400f82:	d121      	bne.n	400fc8 <xTaskGenericCreate+0x138>
		vListInitialise( &( pxReadyTasksLists[ uxPriority ] ) );
  400f84:	4f3e      	ldr	r7, [pc, #248]	; (401080 <xTaskGenericCreate+0x1f0>)
  400f86:	4638      	mov	r0, r7
  400f88:	4e3e      	ldr	r6, [pc, #248]	; (401084 <xTaskGenericCreate+0x1f4>)
  400f8a:	47b0      	blx	r6
  400f8c:	f107 0014 	add.w	r0, r7, #20
  400f90:	47b0      	blx	r6
  400f92:	f107 0028 	add.w	r0, r7, #40	; 0x28
  400f96:	47b0      	blx	r6
  400f98:	f107 003c 	add.w	r0, r7, #60	; 0x3c
  400f9c:	47b0      	blx	r6
  400f9e:	f107 0050 	add.w	r0, r7, #80	; 0x50
  400fa2:	47b0      	blx	r6
	vListInitialise( &xDelayedTaskList1 );
  400fa4:	f8df 8118 	ldr.w	r8, [pc, #280]	; 4010c0 <xTaskGenericCreate+0x230>
  400fa8:	4640      	mov	r0, r8
  400faa:	47b0      	blx	r6
	vListInitialise( &xDelayedTaskList2 );
  400fac:	4f36      	ldr	r7, [pc, #216]	; (401088 <xTaskGenericCreate+0x1f8>)
  400fae:	4638      	mov	r0, r7
  400fb0:	47b0      	blx	r6
	vListInitialise( &xPendingReadyList );
  400fb2:	4836      	ldr	r0, [pc, #216]	; (40108c <xTaskGenericCreate+0x1fc>)
  400fb4:	47b0      	blx	r6
		vListInitialise( &xTasksWaitingTermination );
  400fb6:	4836      	ldr	r0, [pc, #216]	; (401090 <xTaskGenericCreate+0x200>)
  400fb8:	47b0      	blx	r6
		vListInitialise( &xSuspendedTaskList );
  400fba:	4836      	ldr	r0, [pc, #216]	; (401094 <xTaskGenericCreate+0x204>)
  400fbc:	47b0      	blx	r6
	pxDelayedTaskList = &xDelayedTaskList1;
  400fbe:	4b36      	ldr	r3, [pc, #216]	; (401098 <xTaskGenericCreate+0x208>)
  400fc0:	f8c3 8000 	str.w	r8, [r3]
	pxOverflowDelayedTaskList = &xDelayedTaskList2;
  400fc4:	4b35      	ldr	r3, [pc, #212]	; (40109c <xTaskGenericCreate+0x20c>)
  400fc6:	601f      	str	r7, [r3, #0]
			uxTaskNumber++;
  400fc8:	4a35      	ldr	r2, [pc, #212]	; (4010a0 <xTaskGenericCreate+0x210>)
  400fca:	6813      	ldr	r3, [r2, #0]
  400fcc:	3301      	adds	r3, #1
  400fce:	6013      	str	r3, [r2, #0]
				pxNewTCB->uxTCBNumber = uxTaskNumber;
  400fd0:	6423      	str	r3, [r4, #64]	; 0x40
			prvAddTaskToReadyList( pxNewTCB );
  400fd2:	6ae0      	ldr	r0, [r4, #44]	; 0x2c
  400fd4:	4a33      	ldr	r2, [pc, #204]	; (4010a4 <xTaskGenericCreate+0x214>)
  400fd6:	6811      	ldr	r1, [r2, #0]
  400fd8:	2301      	movs	r3, #1
  400fda:	4083      	lsls	r3, r0
  400fdc:	430b      	orrs	r3, r1
  400fde:	6013      	str	r3, [r2, #0]
  400fe0:	eb00 0080 	add.w	r0, r0, r0, lsl #2
  400fe4:	4649      	mov	r1, r9
  400fe6:	4b26      	ldr	r3, [pc, #152]	; (401080 <xTaskGenericCreate+0x1f0>)
  400fe8:	eb03 0080 	add.w	r0, r3, r0, lsl #2
  400fec:	4b2e      	ldr	r3, [pc, #184]	; (4010a8 <xTaskGenericCreate+0x218>)
  400fee:	4798      	blx	r3
		taskEXIT_CRITICAL();
  400ff0:	4b2e      	ldr	r3, [pc, #184]	; (4010ac <xTaskGenericCreate+0x21c>)
  400ff2:	4798      	blx	r3
		if( xSchedulerRunning != pdFALSE )
  400ff4:	4b2e      	ldr	r3, [pc, #184]	; (4010b0 <xTaskGenericCreate+0x220>)
  400ff6:	681b      	ldr	r3, [r3, #0]
  400ff8:	2b00      	cmp	r3, #0
  400ffa:	d031      	beq.n	401060 <xTaskGenericCreate+0x1d0>
			if( pxCurrentTCB->uxPriority < uxPriority )
  400ffc:	4b1f      	ldr	r3, [pc, #124]	; (40107c <xTaskGenericCreate+0x1ec>)
  400ffe:	681b      	ldr	r3, [r3, #0]
  401000:	6adb      	ldr	r3, [r3, #44]	; 0x2c
  401002:	429d      	cmp	r5, r3
  401004:	d92e      	bls.n	401064 <xTaskGenericCreate+0x1d4>
				taskYIELD_IF_USING_PREEMPTION();
  401006:	f04f 5280 	mov.w	r2, #268435456	; 0x10000000
  40100a:	4b2a      	ldr	r3, [pc, #168]	; (4010b4 <xTaskGenericCreate+0x224>)
  40100c:	601a      	str	r2, [r3, #0]
  40100e:	f3bf 8f4f 	dsb	sy
  401012:	f3bf 8f6f 	isb	sy
			xReturn = pdPASS;
  401016:	2001      	movs	r0, #1
}
  401018:	b003      	add	sp, #12
  40101a:	e8bd 8ff0 	ldmia.w	sp!, {r4, r5, r6, r7, r8, r9, sl, fp, pc}
				vPortFree( pxStack );
  40101e:	4630      	mov	r0, r6
  401020:	4b25      	ldr	r3, [pc, #148]	; (4010b8 <xTaskGenericCreate+0x228>)
  401022:	4798      	blx	r3
		xReturn = errCOULD_NOT_ALLOCATE_REQUIRED_MEMORY;
  401024:	f04f 30ff 	mov.w	r0, #4294967295
  401028:	e7f6      	b.n	401018 <xTaskGenericCreate+0x188>
  40102a:	463b      	mov	r3, r7
  40102c:	f104 0234 	add.w	r2, r4, #52	; 0x34
  401030:	3709      	adds	r7, #9
		pxTCB->pcTaskName[ x ] = pcName[ x ];
  401032:	7859      	ldrb	r1, [r3, #1]
  401034:	f802 1f01 	strb.w	r1, [r2, #1]!
		if( pcName[ x ] == 0x00 )
  401038:	f813 1f01 	ldrb.w	r1, [r3, #1]!
  40103c:	2900      	cmp	r1, #0
  40103e:	f43f af70 	beq.w	400f22 <xTaskGenericCreate+0x92>
	for( x = ( UBaseType_t ) 0; x < ( UBaseType_t ) configMAX_TASK_NAME_LEN; x++ )
  401042:	42bb      	cmp	r3, r7
  401044:	d1f5      	bne.n	401032 <xTaskGenericCreate+0x1a2>
  401046:	e76c      	b.n	400f22 <xTaskGenericCreate+0x92>
				if( xSchedulerRunning == pdFALSE )
  401048:	4b19      	ldr	r3, [pc, #100]	; (4010b0 <xTaskGenericCreate+0x220>)
  40104a:	681b      	ldr	r3, [r3, #0]
  40104c:	2b00      	cmp	r3, #0
  40104e:	d1bb      	bne.n	400fc8 <xTaskGenericCreate+0x138>
					if( pxCurrentTCB->uxPriority <= uxPriority )
  401050:	4b0a      	ldr	r3, [pc, #40]	; (40107c <xTaskGenericCreate+0x1ec>)
  401052:	681b      	ldr	r3, [r3, #0]
  401054:	6adb      	ldr	r3, [r3, #44]	; 0x2c
  401056:	429d      	cmp	r5, r3
  401058:	d3b6      	bcc.n	400fc8 <xTaskGenericCreate+0x138>
						pxCurrentTCB = pxNewTCB;
  40105a:	4b08      	ldr	r3, [pc, #32]	; (40107c <xTaskGenericCreate+0x1ec>)
  40105c:	601c      	str	r4, [r3, #0]
  40105e:	e7b3      	b.n	400fc8 <xTaskGenericCreate+0x138>
			xReturn = pdPASS;
  401060:	2001      	movs	r0, #1
  401062:	e7d9      	b.n	401018 <xTaskGenericCreate+0x188>
  401064:	2001      	movs	r0, #1
	return xReturn;
  401066:	e7d7      	b.n	401018 <xTaskGenericCreate+0x188>
  401068:	00400555 	.word	0x00400555
  40106c:	00405dad 	.word	0x00405dad
  401070:	004002ad 	.word	0x004002ad
  401074:	004002f9 	.word	0x004002f9
  401078:	2040c26c 	.word	0x2040c26c
  40107c:	2040c1fc 	.word	0x2040c1fc
  401080:	2040c208 	.word	0x2040c208
  401084:	004001ad 	.word	0x004001ad
  401088:	2040c298 	.word	0x2040c298
  40108c:	2040c2b4 	.word	0x2040c2b4
  401090:	2040c2e0 	.word	0x2040c2e0
  401094:	2040c2cc 	.word	0x2040c2cc
  401098:	2040c200 	.word	0x2040c200
  40109c:	2040c204 	.word	0x2040c204
  4010a0:	2040c278 	.word	0x2040c278
  4010a4:	2040c280 	.word	0x2040c280
  4010a8:	004001c9 	.word	0x004001c9
  4010ac:	00400345 	.word	0x00400345
  4010b0:	2040c2c8 	.word	0x2040c2c8
  4010b4:	e000ed04 	.word	0xe000ed04
  4010b8:	004005c5 	.word	0x004005c5
  4010bc:	004001c3 	.word	0x004001c3
  4010c0:	2040c284 	.word	0x2040c284

004010c4 <vTaskStartScheduler>:
{
  4010c4:	b510      	push	{r4, lr}
  4010c6:	b084      	sub	sp, #16
		xReturn = xTaskCreate( prvIdleTask, "IDLE", tskIDLE_STACK_SIZE, ( void * ) NULL, ( tskIDLE_PRIORITY | portPRIVILEGE_BIT ), NULL );  /*lint !e961 MISRA exception, justified as it is not a redundant explicit cast to all supported compilers. */
  4010c8:	2300      	movs	r3, #0
  4010ca:	9303      	str	r3, [sp, #12]
  4010cc:	9302      	str	r3, [sp, #8]
  4010ce:	9301      	str	r3, [sp, #4]
  4010d0:	9300      	str	r3, [sp, #0]
  4010d2:	2282      	movs	r2, #130	; 0x82
  4010d4:	4916      	ldr	r1, [pc, #88]	; (401130 <vTaskStartScheduler+0x6c>)
  4010d6:	4817      	ldr	r0, [pc, #92]	; (401134 <vTaskStartScheduler+0x70>)
  4010d8:	4c17      	ldr	r4, [pc, #92]	; (401138 <vTaskStartScheduler+0x74>)
  4010da:	47a0      	blx	r4
		if( xReturn == pdPASS )
  4010dc:	2801      	cmp	r0, #1
  4010de:	d00b      	beq.n	4010f8 <vTaskStartScheduler+0x34>
		configASSERT( xReturn );
  4010e0:	bb20      	cbnz	r0, 40112c <vTaskStartScheduler+0x68>
  4010e2:	f04f 0380 	mov.w	r3, #128	; 0x80
  4010e6:	b672      	cpsid	i
  4010e8:	f383 8811 	msr	BASEPRI, r3
  4010ec:	f3bf 8f6f 	isb	sy
  4010f0:	f3bf 8f4f 	dsb	sy
  4010f4:	b662      	cpsie	i
  4010f6:	e7fe      	b.n	4010f6 <vTaskStartScheduler+0x32>
			xReturn = xTimerCreateTimerTask();
  4010f8:	4b10      	ldr	r3, [pc, #64]	; (40113c <vTaskStartScheduler+0x78>)
  4010fa:	4798      	blx	r3
	if( xReturn == pdPASS )
  4010fc:	2801      	cmp	r0, #1
  4010fe:	d1ef      	bne.n	4010e0 <vTaskStartScheduler+0x1c>
  401100:	f04f 0380 	mov.w	r3, #128	; 0x80
  401104:	b672      	cpsid	i
  401106:	f383 8811 	msr	BASEPRI, r3
  40110a:	f3bf 8f6f 	isb	sy
  40110e:	f3bf 8f4f 	dsb	sy
  401112:	b662      	cpsie	i
		xNextTaskUnblockTime = portMAX_DELAY;
  401114:	f04f 32ff 	mov.w	r2, #4294967295
  401118:	4b09      	ldr	r3, [pc, #36]	; (401140 <vTaskStartScheduler+0x7c>)
  40111a:	601a      	str	r2, [r3, #0]
		xSchedulerRunning = pdTRUE;
  40111c:	2201      	movs	r2, #1
  40111e:	4b09      	ldr	r3, [pc, #36]	; (401144 <vTaskStartScheduler+0x80>)
  401120:	601a      	str	r2, [r3, #0]
		xTickCount = ( TickType_t ) 0U;
  401122:	2200      	movs	r2, #0
  401124:	4b08      	ldr	r3, [pc, #32]	; (401148 <vTaskStartScheduler+0x84>)
  401126:	601a      	str	r2, [r3, #0]
		if( xPortStartScheduler() != pdFALSE )
  401128:	4b08      	ldr	r3, [pc, #32]	; (40114c <vTaskStartScheduler+0x88>)
  40112a:	4798      	blx	r3
}
  40112c:	b004      	add	sp, #16
  40112e:	bd10      	pop	{r4, pc}
  401130:	00408b84 	.word	0x00408b84
  401134:	004013d9 	.word	0x004013d9
  401138:	00400e91 	.word	0x00400e91
  40113c:	00401a19 	.word	0x00401a19
  401140:	2040c2ac 	.word	0x2040c2ac
  401144:	2040c2c8 	.word	0x2040c2c8
  401148:	2040c2f4 	.word	0x2040c2f4
  40114c:	0040042d 	.word	0x0040042d

00401150 <vTaskSuspendAll>:
	++uxSchedulerSuspended;
  401150:	4a02      	ldr	r2, [pc, #8]	; (40115c <vTaskSuspendAll+0xc>)
  401152:	6813      	ldr	r3, [r2, #0]
  401154:	3301      	adds	r3, #1
  401156:	6013      	str	r3, [r2, #0]
  401158:	4770      	bx	lr
  40115a:	bf00      	nop
  40115c:	2040c274 	.word	0x2040c274

00401160 <xTaskGetTickCount>:
		xTicks = xTickCount;
  401160:	4b01      	ldr	r3, [pc, #4]	; (401168 <xTaskGetTickCount+0x8>)
  401162:	6818      	ldr	r0, [r3, #0]
}
  401164:	4770      	bx	lr
  401166:	bf00      	nop
  401168:	2040c2f4 	.word	0x2040c2f4

0040116c <xTaskIncrementTick>:
{
  40116c:	e92d 47f0 	stmdb	sp!, {r4, r5, r6, r7, r8, r9, sl, lr}
	if( uxSchedulerSuspended == ( UBaseType_t ) pdFALSE )
  401170:	4b42      	ldr	r3, [pc, #264]	; (40127c <xTaskIncrementTick+0x110>)
  401172:	681b      	ldr	r3, [r3, #0]
  401174:	2b00      	cmp	r3, #0
  401176:	d178      	bne.n	40126a <xTaskIncrementTick+0xfe>
		++xTickCount;
  401178:	4b41      	ldr	r3, [pc, #260]	; (401280 <xTaskIncrementTick+0x114>)
  40117a:	681a      	ldr	r2, [r3, #0]
  40117c:	3201      	adds	r2, #1
  40117e:	601a      	str	r2, [r3, #0]
			const TickType_t xConstTickCount = xTickCount;
  401180:	681e      	ldr	r6, [r3, #0]
			if( xConstTickCount == ( TickType_t ) 0U )
  401182:	b9d6      	cbnz	r6, 4011ba <xTaskIncrementTick+0x4e>
				taskSWITCH_DELAYED_LISTS();
  401184:	4b3f      	ldr	r3, [pc, #252]	; (401284 <xTaskIncrementTick+0x118>)
  401186:	681b      	ldr	r3, [r3, #0]
  401188:	681b      	ldr	r3, [r3, #0]
  40118a:	b153      	cbz	r3, 4011a2 <xTaskIncrementTick+0x36>
  40118c:	f04f 0380 	mov.w	r3, #128	; 0x80
  401190:	b672      	cpsid	i
  401192:	f383 8811 	msr	BASEPRI, r3
  401196:	f3bf 8f6f 	isb	sy
  40119a:	f3bf 8f4f 	dsb	sy
  40119e:	b662      	cpsie	i
  4011a0:	e7fe      	b.n	4011a0 <xTaskIncrementTick+0x34>
  4011a2:	4a38      	ldr	r2, [pc, #224]	; (401284 <xTaskIncrementTick+0x118>)
  4011a4:	6811      	ldr	r1, [r2, #0]
  4011a6:	4b38      	ldr	r3, [pc, #224]	; (401288 <xTaskIncrementTick+0x11c>)
  4011a8:	6818      	ldr	r0, [r3, #0]
  4011aa:	6010      	str	r0, [r2, #0]
  4011ac:	6019      	str	r1, [r3, #0]
  4011ae:	4a37      	ldr	r2, [pc, #220]	; (40128c <xTaskIncrementTick+0x120>)
  4011b0:	6813      	ldr	r3, [r2, #0]
  4011b2:	3301      	adds	r3, #1
  4011b4:	6013      	str	r3, [r2, #0]
  4011b6:	4b36      	ldr	r3, [pc, #216]	; (401290 <xTaskIncrementTick+0x124>)
  4011b8:	4798      	blx	r3
			if( xConstTickCount >= xNextTaskUnblockTime )
  4011ba:	4b36      	ldr	r3, [pc, #216]	; (401294 <xTaskIncrementTick+0x128>)
  4011bc:	681b      	ldr	r3, [r3, #0]
  4011be:	429e      	cmp	r6, r3
  4011c0:	d218      	bcs.n	4011f4 <xTaskIncrementTick+0x88>
BaseType_t xSwitchRequired = pdFALSE;
  4011c2:	2400      	movs	r4, #0
			if( listCURRENT_LIST_LENGTH( &( pxReadyTasksLists[ pxCurrentTCB->uxPriority ] ) ) > ( UBaseType_t ) 1 )
  4011c4:	4b34      	ldr	r3, [pc, #208]	; (401298 <xTaskIncrementTick+0x12c>)
  4011c6:	681b      	ldr	r3, [r3, #0]
  4011c8:	6adb      	ldr	r3, [r3, #44]	; 0x2c
  4011ca:	eb03 0383 	add.w	r3, r3, r3, lsl #2
  4011ce:	4a33      	ldr	r2, [pc, #204]	; (40129c <xTaskIncrementTick+0x130>)
  4011d0:	f852 3023 	ldr.w	r3, [r2, r3, lsl #2]
				xSwitchRequired = pdTRUE;
  4011d4:	2b02      	cmp	r3, #2
  4011d6:	bf28      	it	cs
  4011d8:	2401      	movcs	r4, #1
			if( uxPendedTicks == ( UBaseType_t ) 0U )
  4011da:	4b31      	ldr	r3, [pc, #196]	; (4012a0 <xTaskIncrementTick+0x134>)
  4011dc:	681b      	ldr	r3, [r3, #0]
  4011de:	b90b      	cbnz	r3, 4011e4 <xTaskIncrementTick+0x78>
				vApplicationTickHook();
  4011e0:	4b30      	ldr	r3, [pc, #192]	; (4012a4 <xTaskIncrementTick+0x138>)
  4011e2:	4798      	blx	r3
		if( xYieldPending != pdFALSE )
  4011e4:	4b30      	ldr	r3, [pc, #192]	; (4012a8 <xTaskIncrementTick+0x13c>)
  4011e6:	681b      	ldr	r3, [r3, #0]
			xSwitchRequired = pdTRUE;
  4011e8:	2b00      	cmp	r3, #0
}
  4011ea:	bf0c      	ite	eq
  4011ec:	4620      	moveq	r0, r4
  4011ee:	2001      	movne	r0, #1
  4011f0:	e8bd 87f0 	ldmia.w	sp!, {r4, r5, r6, r7, r8, r9, sl, pc}
  4011f4:	2400      	movs	r4, #0
					if( listLIST_IS_EMPTY( pxDelayedTaskList ) != pdFALSE )
  4011f6:	f8df 908c 	ldr.w	r9, [pc, #140]	; 401284 <xTaskIncrementTick+0x118>
						( void ) uxListRemove( &( pxTCB->xGenericListItem ) );
  4011fa:	f8df 80b8 	ldr.w	r8, [pc, #184]	; 4012b4 <xTaskIncrementTick+0x148>
						prvAddTaskToReadyList( pxTCB );
  4011fe:	4f2b      	ldr	r7, [pc, #172]	; (4012ac <xTaskIncrementTick+0x140>)
  401200:	e01f      	b.n	401242 <xTaskIncrementTick+0xd6>
						xNextTaskUnblockTime = portMAX_DELAY;
  401202:	f04f 32ff 	mov.w	r2, #4294967295
  401206:	4b23      	ldr	r3, [pc, #140]	; (401294 <xTaskIncrementTick+0x128>)
  401208:	601a      	str	r2, [r3, #0]
						break;
  40120a:	e7db      	b.n	4011c4 <xTaskIncrementTick+0x58>
							xNextTaskUnblockTime = xItemValue;
  40120c:	4a21      	ldr	r2, [pc, #132]	; (401294 <xTaskIncrementTick+0x128>)
  40120e:	6013      	str	r3, [r2, #0]
							break;
  401210:	e7d8      	b.n	4011c4 <xTaskIncrementTick+0x58>
							( void ) uxListRemove( &( pxTCB->xEventListItem ) );
  401212:	f105 0018 	add.w	r0, r5, #24
  401216:	47c0      	blx	r8
						prvAddTaskToReadyList( pxTCB );
  401218:	6ae8      	ldr	r0, [r5, #44]	; 0x2c
  40121a:	683a      	ldr	r2, [r7, #0]
  40121c:	2301      	movs	r3, #1
  40121e:	4083      	lsls	r3, r0
  401220:	4313      	orrs	r3, r2
  401222:	603b      	str	r3, [r7, #0]
  401224:	eb00 0080 	add.w	r0, r0, r0, lsl #2
  401228:	4651      	mov	r1, sl
  40122a:	4b1c      	ldr	r3, [pc, #112]	; (40129c <xTaskIncrementTick+0x130>)
  40122c:	eb03 0080 	add.w	r0, r3, r0, lsl #2
  401230:	4b1f      	ldr	r3, [pc, #124]	; (4012b0 <xTaskIncrementTick+0x144>)
  401232:	4798      	blx	r3
							if( pxTCB->uxPriority >= pxCurrentTCB->uxPriority )
  401234:	4b18      	ldr	r3, [pc, #96]	; (401298 <xTaskIncrementTick+0x12c>)
  401236:	681b      	ldr	r3, [r3, #0]
  401238:	6aea      	ldr	r2, [r5, #44]	; 0x2c
  40123a:	6adb      	ldr	r3, [r3, #44]	; 0x2c
								xSwitchRequired = pdTRUE;
  40123c:	429a      	cmp	r2, r3
  40123e:	bf28      	it	cs
  401240:	2401      	movcs	r4, #1
					if( listLIST_IS_EMPTY( pxDelayedTaskList ) != pdFALSE )
  401242:	f8d9 3000 	ldr.w	r3, [r9]
  401246:	681b      	ldr	r3, [r3, #0]
  401248:	2b00      	cmp	r3, #0
  40124a:	d0da      	beq.n	401202 <xTaskIncrementTick+0x96>
						pxTCB = ( TCB_t * ) listGET_OWNER_OF_HEAD_ENTRY( pxDelayedTaskList );
  40124c:	f8d9 3000 	ldr.w	r3, [r9]
  401250:	68db      	ldr	r3, [r3, #12]
  401252:	68dd      	ldr	r5, [r3, #12]
						xItemValue = listGET_LIST_ITEM_VALUE( &( pxTCB->xGenericListItem ) );
  401254:	686b      	ldr	r3, [r5, #4]
						if( xConstTickCount < xItemValue )
  401256:	429e      	cmp	r6, r3
  401258:	d3d8      	bcc.n	40120c <xTaskIncrementTick+0xa0>
						( void ) uxListRemove( &( pxTCB->xGenericListItem ) );
  40125a:	f105 0a04 	add.w	sl, r5, #4
  40125e:	4650      	mov	r0, sl
  401260:	47c0      	blx	r8
						if( listLIST_ITEM_CONTAINER( &( pxTCB->xEventListItem ) ) != NULL )
  401262:	6aab      	ldr	r3, [r5, #40]	; 0x28
  401264:	2b00      	cmp	r3, #0
  401266:	d1d4      	bne.n	401212 <xTaskIncrementTick+0xa6>
  401268:	e7d6      	b.n	401218 <xTaskIncrementTick+0xac>
		++uxPendedTicks;
  40126a:	4a0d      	ldr	r2, [pc, #52]	; (4012a0 <xTaskIncrementTick+0x134>)
  40126c:	6813      	ldr	r3, [r2, #0]
  40126e:	3301      	adds	r3, #1
  401270:	6013      	str	r3, [r2, #0]
			vApplicationTickHook();
  401272:	4b0c      	ldr	r3, [pc, #48]	; (4012a4 <xTaskIncrementTick+0x138>)
  401274:	4798      	blx	r3
BaseType_t xSwitchRequired = pdFALSE;
  401276:	2400      	movs	r4, #0
  401278:	e7b4      	b.n	4011e4 <xTaskIncrementTick+0x78>
  40127a:	bf00      	nop
  40127c:	2040c274 	.word	0x2040c274
  401280:	2040c2f4 	.word	0x2040c2f4
  401284:	2040c200 	.word	0x2040c200
  401288:	2040c204 	.word	0x2040c204
  40128c:	2040c2b0 	.word	0x2040c2b0
  401290:	00400e0d 	.word	0x00400e0d
  401294:	2040c2ac 	.word	0x2040c2ac
  401298:	2040c1fc 	.word	0x2040c1fc
  40129c:	2040c208 	.word	0x2040c208
  4012a0:	2040c270 	.word	0x2040c270
  4012a4:	00405941 	.word	0x00405941
  4012a8:	2040c2f8 	.word	0x2040c2f8
  4012ac:	2040c280 	.word	0x2040c280
  4012b0:	004001c9 	.word	0x004001c9
  4012b4:	00400215 	.word	0x00400215

004012b8 <xTaskResumeAll>:
{
  4012b8:	e92d 43f8 	stmdb	sp!, {r3, r4, r5, r6, r7, r8, r9, lr}
	configASSERT( uxSchedulerSuspended );
  4012bc:	4b38      	ldr	r3, [pc, #224]	; (4013a0 <xTaskResumeAll+0xe8>)
  4012be:	681b      	ldr	r3, [r3, #0]
  4012c0:	b953      	cbnz	r3, 4012d8 <xTaskResumeAll+0x20>
  4012c2:	f04f 0380 	mov.w	r3, #128	; 0x80
  4012c6:	b672      	cpsid	i
  4012c8:	f383 8811 	msr	BASEPRI, r3
  4012cc:	f3bf 8f6f 	isb	sy
  4012d0:	f3bf 8f4f 	dsb	sy
  4012d4:	b662      	cpsie	i
  4012d6:	e7fe      	b.n	4012d6 <xTaskResumeAll+0x1e>
	taskENTER_CRITICAL();
  4012d8:	4b32      	ldr	r3, [pc, #200]	; (4013a4 <xTaskResumeAll+0xec>)
  4012da:	4798      	blx	r3
		--uxSchedulerSuspended;
  4012dc:	4b30      	ldr	r3, [pc, #192]	; (4013a0 <xTaskResumeAll+0xe8>)
  4012de:	681a      	ldr	r2, [r3, #0]
  4012e0:	3a01      	subs	r2, #1
  4012e2:	601a      	str	r2, [r3, #0]
		if( uxSchedulerSuspended == ( UBaseType_t ) pdFALSE )
  4012e4:	681b      	ldr	r3, [r3, #0]
  4012e6:	2b00      	cmp	r3, #0
  4012e8:	d155      	bne.n	401396 <xTaskResumeAll+0xde>
			if( uxCurrentNumberOfTasks > ( UBaseType_t ) 0U )
  4012ea:	4b2f      	ldr	r3, [pc, #188]	; (4013a8 <xTaskResumeAll+0xf0>)
  4012ec:	681b      	ldr	r3, [r3, #0]
  4012ee:	2b00      	cmp	r3, #0
  4012f0:	d132      	bne.n	401358 <xTaskResumeAll+0xa0>
BaseType_t xAlreadyYielded = pdFALSE;
  4012f2:	2400      	movs	r4, #0
	taskEXIT_CRITICAL();
  4012f4:	4b2d      	ldr	r3, [pc, #180]	; (4013ac <xTaskResumeAll+0xf4>)
  4012f6:	4798      	blx	r3
}
  4012f8:	4620      	mov	r0, r4
  4012fa:	e8bd 83f8 	ldmia.w	sp!, {r3, r4, r5, r6, r7, r8, r9, pc}
					pxTCB = ( TCB_t * ) listGET_OWNER_OF_HEAD_ENTRY( ( &xPendingReadyList ) );
  4012fe:	68fb      	ldr	r3, [r7, #12]
  401300:	68dc      	ldr	r4, [r3, #12]
					( void ) uxListRemove( &( pxTCB->xEventListItem ) );
  401302:	f104 0018 	add.w	r0, r4, #24
  401306:	47b0      	blx	r6
					( void ) uxListRemove( &( pxTCB->xGenericListItem ) );
  401308:	f104 0804 	add.w	r8, r4, #4
  40130c:	4640      	mov	r0, r8
  40130e:	47b0      	blx	r6
					prvAddTaskToReadyList( pxTCB );
  401310:	6ae0      	ldr	r0, [r4, #44]	; 0x2c
  401312:	682a      	ldr	r2, [r5, #0]
  401314:	2301      	movs	r3, #1
  401316:	4083      	lsls	r3, r0
  401318:	4313      	orrs	r3, r2
  40131a:	602b      	str	r3, [r5, #0]
  40131c:	eb00 0080 	add.w	r0, r0, r0, lsl #2
  401320:	4641      	mov	r1, r8
  401322:	eb09 0080 	add.w	r0, r9, r0, lsl #2
  401326:	4b22      	ldr	r3, [pc, #136]	; (4013b0 <xTaskResumeAll+0xf8>)
  401328:	4798      	blx	r3
					if( pxTCB->uxPriority >= pxCurrentTCB->uxPriority )
  40132a:	4b22      	ldr	r3, [pc, #136]	; (4013b4 <xTaskResumeAll+0xfc>)
  40132c:	681b      	ldr	r3, [r3, #0]
  40132e:	6ae2      	ldr	r2, [r4, #44]	; 0x2c
  401330:	6adb      	ldr	r3, [r3, #44]	; 0x2c
  401332:	429a      	cmp	r2, r3
  401334:	d20c      	bcs.n	401350 <xTaskResumeAll+0x98>
				while( listLIST_IS_EMPTY( &xPendingReadyList ) == pdFALSE )
  401336:	683b      	ldr	r3, [r7, #0]
  401338:	2b00      	cmp	r3, #0
  40133a:	d1e0      	bne.n	4012fe <xTaskResumeAll+0x46>
				if( uxPendedTicks > ( UBaseType_t ) 0U )
  40133c:	4b1e      	ldr	r3, [pc, #120]	; (4013b8 <xTaskResumeAll+0x100>)
  40133e:	681b      	ldr	r3, [r3, #0]
  401340:	b1db      	cbz	r3, 40137a <xTaskResumeAll+0xc2>
					while( uxPendedTicks > ( UBaseType_t ) 0U )
  401342:	4b1d      	ldr	r3, [pc, #116]	; (4013b8 <xTaskResumeAll+0x100>)
  401344:	681b      	ldr	r3, [r3, #0]
  401346:	b1c3      	cbz	r3, 40137a <xTaskResumeAll+0xc2>
						if( xTaskIncrementTick() != pdFALSE )
  401348:	4e1c      	ldr	r6, [pc, #112]	; (4013bc <xTaskResumeAll+0x104>)
							xYieldPending = pdTRUE;
  40134a:	4d1d      	ldr	r5, [pc, #116]	; (4013c0 <xTaskResumeAll+0x108>)
						--uxPendedTicks;
  40134c:	4c1a      	ldr	r4, [pc, #104]	; (4013b8 <xTaskResumeAll+0x100>)
  40134e:	e00e      	b.n	40136e <xTaskResumeAll+0xb6>
						xYieldPending = pdTRUE;
  401350:	2201      	movs	r2, #1
  401352:	4b1b      	ldr	r3, [pc, #108]	; (4013c0 <xTaskResumeAll+0x108>)
  401354:	601a      	str	r2, [r3, #0]
  401356:	e7ee      	b.n	401336 <xTaskResumeAll+0x7e>
				while( listLIST_IS_EMPTY( &xPendingReadyList ) == pdFALSE )
  401358:	4f1a      	ldr	r7, [pc, #104]	; (4013c4 <xTaskResumeAll+0x10c>)
					( void ) uxListRemove( &( pxTCB->xEventListItem ) );
  40135a:	4e1b      	ldr	r6, [pc, #108]	; (4013c8 <xTaskResumeAll+0x110>)
					prvAddTaskToReadyList( pxTCB );
  40135c:	4d1b      	ldr	r5, [pc, #108]	; (4013cc <xTaskResumeAll+0x114>)
  40135e:	f8df 9074 	ldr.w	r9, [pc, #116]	; 4013d4 <xTaskResumeAll+0x11c>
  401362:	e7e8      	b.n	401336 <xTaskResumeAll+0x7e>
						--uxPendedTicks;
  401364:	6823      	ldr	r3, [r4, #0]
  401366:	3b01      	subs	r3, #1
  401368:	6023      	str	r3, [r4, #0]
					while( uxPendedTicks > ( UBaseType_t ) 0U )
  40136a:	6823      	ldr	r3, [r4, #0]
  40136c:	b12b      	cbz	r3, 40137a <xTaskResumeAll+0xc2>
						if( xTaskIncrementTick() != pdFALSE )
  40136e:	47b0      	blx	r6
  401370:	2800      	cmp	r0, #0
  401372:	d0f7      	beq.n	401364 <xTaskResumeAll+0xac>
							xYieldPending = pdTRUE;
  401374:	2301      	movs	r3, #1
  401376:	602b      	str	r3, [r5, #0]
  401378:	e7f4      	b.n	401364 <xTaskResumeAll+0xac>
				if( xYieldPending == pdTRUE )
  40137a:	4b11      	ldr	r3, [pc, #68]	; (4013c0 <xTaskResumeAll+0x108>)
  40137c:	681b      	ldr	r3, [r3, #0]
  40137e:	2b01      	cmp	r3, #1
  401380:	d10b      	bne.n	40139a <xTaskResumeAll+0xe2>
					taskYIELD_IF_USING_PREEMPTION();
  401382:	f04f 5280 	mov.w	r2, #268435456	; 0x10000000
  401386:	4b12      	ldr	r3, [pc, #72]	; (4013d0 <xTaskResumeAll+0x118>)
  401388:	601a      	str	r2, [r3, #0]
  40138a:	f3bf 8f4f 	dsb	sy
  40138e:	f3bf 8f6f 	isb	sy
						xAlreadyYielded = pdTRUE;
  401392:	2401      	movs	r4, #1
  401394:	e7ae      	b.n	4012f4 <xTaskResumeAll+0x3c>
BaseType_t xAlreadyYielded = pdFALSE;
  401396:	2400      	movs	r4, #0
  401398:	e7ac      	b.n	4012f4 <xTaskResumeAll+0x3c>
  40139a:	2400      	movs	r4, #0
  40139c:	e7aa      	b.n	4012f4 <xTaskResumeAll+0x3c>
  40139e:	bf00      	nop
  4013a0:	2040c274 	.word	0x2040c274
  4013a4:	004002f9 	.word	0x004002f9
  4013a8:	2040c26c 	.word	0x2040c26c
  4013ac:	00400345 	.word	0x00400345
  4013b0:	004001c9 	.word	0x004001c9
  4013b4:	2040c1fc 	.word	0x2040c1fc
  4013b8:	2040c270 	.word	0x2040c270
  4013bc:	0040116d 	.word	0x0040116d
  4013c0:	2040c2f8 	.word	0x2040c2f8
  4013c4:	2040c2b4 	.word	0x2040c2b4
  4013c8:	00400215 	.word	0x00400215
  4013cc:	2040c280 	.word	0x2040c280
  4013d0:	e000ed04 	.word	0xe000ed04
  4013d4:	2040c208 	.word	0x2040c208

004013d8 <prvIdleTask>:
{
  4013d8:	b580      	push	{r7, lr}
			vTaskSuspendAll();
  4013da:	f8df 8088 	ldr.w	r8, [pc, #136]	; 401464 <prvIdleTask+0x8c>
				xListIsEmpty = listLIST_IS_EMPTY( &xTasksWaitingTermination );
  4013de:	4e19      	ldr	r6, [pc, #100]	; (401444 <prvIdleTask+0x6c>)
				taskYIELD();
  4013e0:	f8df 9084 	ldr.w	r9, [pc, #132]	; 401468 <prvIdleTask+0x90>
  4013e4:	e02a      	b.n	40143c <prvIdleTask+0x64>
			if( listCURRENT_LIST_LENGTH( &( pxReadyTasksLists[ tskIDLE_PRIORITY ] ) ) > ( UBaseType_t ) 1 )
  4013e6:	4b18      	ldr	r3, [pc, #96]	; (401448 <prvIdleTask+0x70>)
  4013e8:	681b      	ldr	r3, [r3, #0]
  4013ea:	2b01      	cmp	r3, #1
  4013ec:	d81e      	bhi.n	40142c <prvIdleTask+0x54>
		while( uxTasksDeleted > ( UBaseType_t ) 0U )
  4013ee:	682b      	ldr	r3, [r5, #0]
  4013f0:	2b00      	cmp	r3, #0
  4013f2:	d0f8      	beq.n	4013e6 <prvIdleTask+0xe>
			vTaskSuspendAll();
  4013f4:	47c0      	blx	r8
				xListIsEmpty = listLIST_IS_EMPTY( &xTasksWaitingTermination );
  4013f6:	6834      	ldr	r4, [r6, #0]
			( void ) xTaskResumeAll();
  4013f8:	47b8      	blx	r7
			if( xListIsEmpty == pdFALSE )
  4013fa:	2c00      	cmp	r4, #0
  4013fc:	d0f7      	beq.n	4013ee <prvIdleTask+0x16>
				taskENTER_CRITICAL();
  4013fe:	4b13      	ldr	r3, [pc, #76]	; (40144c <prvIdleTask+0x74>)
  401400:	4798      	blx	r3
					pxTCB = ( TCB_t * ) listGET_OWNER_OF_HEAD_ENTRY( ( &xTasksWaitingTermination ) );
  401402:	68f3      	ldr	r3, [r6, #12]
  401404:	68dc      	ldr	r4, [r3, #12]
					( void ) uxListRemove( &( pxTCB->xGenericListItem ) );
  401406:	1d20      	adds	r0, r4, #4
  401408:	4b11      	ldr	r3, [pc, #68]	; (401450 <prvIdleTask+0x78>)
  40140a:	4798      	blx	r3
					--uxCurrentNumberOfTasks;
  40140c:	4a11      	ldr	r2, [pc, #68]	; (401454 <prvIdleTask+0x7c>)
  40140e:	6813      	ldr	r3, [r2, #0]
  401410:	3b01      	subs	r3, #1
  401412:	6013      	str	r3, [r2, #0]
					--uxTasksDeleted;
  401414:	682b      	ldr	r3, [r5, #0]
  401416:	3b01      	subs	r3, #1
  401418:	602b      	str	r3, [r5, #0]
				taskEXIT_CRITICAL();
  40141a:	4b0f      	ldr	r3, [pc, #60]	; (401458 <prvIdleTask+0x80>)
  40141c:	4798      	blx	r3
			vPortFreeAligned( pxTCB->pxStack );
  40141e:	6b20      	ldr	r0, [r4, #48]	; 0x30
  401420:	f8df a048 	ldr.w	sl, [pc, #72]	; 40146c <prvIdleTask+0x94>
  401424:	47d0      	blx	sl
		vPortFree( pxTCB );
  401426:	4620      	mov	r0, r4
  401428:	47d0      	blx	sl
  40142a:	e7e0      	b.n	4013ee <prvIdleTask+0x16>
				taskYIELD();
  40142c:	f04f 5380 	mov.w	r3, #268435456	; 0x10000000
  401430:	f8c9 3000 	str.w	r3, [r9]
  401434:	f3bf 8f4f 	dsb	sy
  401438:	f3bf 8f6f 	isb	sy
		while( uxTasksDeleted > ( UBaseType_t ) 0U )
  40143c:	4d07      	ldr	r5, [pc, #28]	; (40145c <prvIdleTask+0x84>)
			( void ) xTaskResumeAll();
  40143e:	4f08      	ldr	r7, [pc, #32]	; (401460 <prvIdleTask+0x88>)
  401440:	e7d5      	b.n	4013ee <prvIdleTask+0x16>
  401442:	bf00      	nop
  401444:	2040c2e0 	.word	0x2040c2e0
  401448:	2040c208 	.word	0x2040c208
  40144c:	004002f9 	.word	0x004002f9
  401450:	00400215 	.word	0x00400215
  401454:	2040c26c 	.word	0x2040c26c
  401458:	00400345 	.word	0x00400345
  40145c:	2040c27c 	.word	0x2040c27c
  401460:	004012b9 	.word	0x004012b9
  401464:	00401151 	.word	0x00401151
  401468:	e000ed04 	.word	0xe000ed04
  40146c:	004005c5 	.word	0x004005c5

00401470 <vTaskSwitchContext>:
	if( uxSchedulerSuspended != ( UBaseType_t ) pdFALSE )
  401470:	4b2d      	ldr	r3, [pc, #180]	; (401528 <vTaskSwitchContext+0xb8>)
  401472:	681b      	ldr	r3, [r3, #0]
  401474:	2b00      	cmp	r3, #0
  401476:	d12c      	bne.n	4014d2 <vTaskSwitchContext+0x62>
{
  401478:	b510      	push	{r4, lr}
		xYieldPending = pdFALSE;
  40147a:	2200      	movs	r2, #0
  40147c:	4b2b      	ldr	r3, [pc, #172]	; (40152c <vTaskSwitchContext+0xbc>)
  40147e:	601a      	str	r2, [r3, #0]
		taskCHECK_FOR_STACK_OVERFLOW();
  401480:	4b2b      	ldr	r3, [pc, #172]	; (401530 <vTaskSwitchContext+0xc0>)
  401482:	681b      	ldr	r3, [r3, #0]
  401484:	6b1b      	ldr	r3, [r3, #48]	; 0x30
  401486:	681a      	ldr	r2, [r3, #0]
  401488:	f1b2 3fa5 	cmp.w	r2, #2779096485	; 0xa5a5a5a5
  40148c:	d103      	bne.n	401496 <vTaskSwitchContext+0x26>
  40148e:	685a      	ldr	r2, [r3, #4]
  401490:	f1b2 3fa5 	cmp.w	r2, #2779096485	; 0xa5a5a5a5
  401494:	d021      	beq.n	4014da <vTaskSwitchContext+0x6a>
  401496:	4b26      	ldr	r3, [pc, #152]	; (401530 <vTaskSwitchContext+0xc0>)
  401498:	6818      	ldr	r0, [r3, #0]
  40149a:	6819      	ldr	r1, [r3, #0]
  40149c:	3134      	adds	r1, #52	; 0x34
  40149e:	4b25      	ldr	r3, [pc, #148]	; (401534 <vTaskSwitchContext+0xc4>)
  4014a0:	4798      	blx	r3
		taskSELECT_HIGHEST_PRIORITY_TASK();
  4014a2:	4b25      	ldr	r3, [pc, #148]	; (401538 <vTaskSwitchContext+0xc8>)
  4014a4:	681b      	ldr	r3, [r3, #0]
		__asm volatile ( "clz %0, %1" : "=r" ( ucReturn ) : "r" ( ulBitmap ) );
  4014a6:	fab3 f383 	clz	r3, r3
  4014aa:	b2db      	uxtb	r3, r3
  4014ac:	f1c3 031f 	rsb	r3, r3, #31
  4014b0:	eb03 0183 	add.w	r1, r3, r3, lsl #2
  4014b4:	4a21      	ldr	r2, [pc, #132]	; (40153c <vTaskSwitchContext+0xcc>)
  4014b6:	f852 2021 	ldr.w	r2, [r2, r1, lsl #2]
  4014ba:	b9ba      	cbnz	r2, 4014ec <vTaskSwitchContext+0x7c>
	__asm volatile
  4014bc:	f04f 0380 	mov.w	r3, #128	; 0x80
  4014c0:	b672      	cpsid	i
  4014c2:	f383 8811 	msr	BASEPRI, r3
  4014c6:	f3bf 8f6f 	isb	sy
  4014ca:	f3bf 8f4f 	dsb	sy
  4014ce:	b662      	cpsie	i
  4014d0:	e7fe      	b.n	4014d0 <vTaskSwitchContext+0x60>
		xYieldPending = pdTRUE;
  4014d2:	2201      	movs	r2, #1
  4014d4:	4b15      	ldr	r3, [pc, #84]	; (40152c <vTaskSwitchContext+0xbc>)
  4014d6:	601a      	str	r2, [r3, #0]
  4014d8:	4770      	bx	lr
		taskCHECK_FOR_STACK_OVERFLOW();
  4014da:	689a      	ldr	r2, [r3, #8]
  4014dc:	f1b2 3fa5 	cmp.w	r2, #2779096485	; 0xa5a5a5a5
  4014e0:	d1d9      	bne.n	401496 <vTaskSwitchContext+0x26>
  4014e2:	68db      	ldr	r3, [r3, #12]
  4014e4:	f1b3 3fa5 	cmp.w	r3, #2779096485	; 0xa5a5a5a5
  4014e8:	d1d5      	bne.n	401496 <vTaskSwitchContext+0x26>
  4014ea:	e7da      	b.n	4014a2 <vTaskSwitchContext+0x32>
		taskSELECT_HIGHEST_PRIORITY_TASK();
  4014ec:	4a13      	ldr	r2, [pc, #76]	; (40153c <vTaskSwitchContext+0xcc>)
  4014ee:	0099      	lsls	r1, r3, #2
  4014f0:	18c8      	adds	r0, r1, r3
  4014f2:	eb02 0080 	add.w	r0, r2, r0, lsl #2
  4014f6:	6844      	ldr	r4, [r0, #4]
  4014f8:	6864      	ldr	r4, [r4, #4]
  4014fa:	6044      	str	r4, [r0, #4]
  4014fc:	4419      	add	r1, r3
  4014fe:	4602      	mov	r2, r0
  401500:	3208      	adds	r2, #8
  401502:	4294      	cmp	r4, r2
  401504:	d009      	beq.n	40151a <vTaskSwitchContext+0xaa>
  401506:	eb03 0383 	add.w	r3, r3, r3, lsl #2
  40150a:	4a0c      	ldr	r2, [pc, #48]	; (40153c <vTaskSwitchContext+0xcc>)
  40150c:	eb02 0383 	add.w	r3, r2, r3, lsl #2
  401510:	685b      	ldr	r3, [r3, #4]
  401512:	68da      	ldr	r2, [r3, #12]
  401514:	4b06      	ldr	r3, [pc, #24]	; (401530 <vTaskSwitchContext+0xc0>)
  401516:	601a      	str	r2, [r3, #0]
  401518:	bd10      	pop	{r4, pc}
  40151a:	6860      	ldr	r0, [r4, #4]
  40151c:	4a07      	ldr	r2, [pc, #28]	; (40153c <vTaskSwitchContext+0xcc>)
  40151e:	eb02 0281 	add.w	r2, r2, r1, lsl #2
  401522:	6050      	str	r0, [r2, #4]
  401524:	e7ef      	b.n	401506 <vTaskSwitchContext+0x96>
  401526:	bf00      	nop
  401528:	2040c274 	.word	0x2040c274
  40152c:	2040c2f8 	.word	0x2040c2f8
  401530:	2040c1fc 	.word	0x2040c1fc
  401534:	00405929 	.word	0x00405929
  401538:	2040c280 	.word	0x2040c280
  40153c:	2040c208 	.word	0x2040c208

00401540 <vTaskPlaceOnEventList>:
{
  401540:	b538      	push	{r3, r4, r5, lr}
	configASSERT( pxEventList );
  401542:	b1e0      	cbz	r0, 40157e <vTaskPlaceOnEventList+0x3e>
  401544:	460c      	mov	r4, r1
	vListInsert( pxEventList, &( pxCurrentTCB->xEventListItem ) );
  401546:	4d17      	ldr	r5, [pc, #92]	; (4015a4 <vTaskPlaceOnEventList+0x64>)
  401548:	6829      	ldr	r1, [r5, #0]
  40154a:	3118      	adds	r1, #24
  40154c:	4b16      	ldr	r3, [pc, #88]	; (4015a8 <vTaskPlaceOnEventList+0x68>)
  40154e:	4798      	blx	r3
	if( uxListRemove( &( pxCurrentTCB->xGenericListItem ) ) == ( UBaseType_t ) 0 )
  401550:	6828      	ldr	r0, [r5, #0]
  401552:	3004      	adds	r0, #4
  401554:	4b15      	ldr	r3, [pc, #84]	; (4015ac <vTaskPlaceOnEventList+0x6c>)
  401556:	4798      	blx	r3
  401558:	b940      	cbnz	r0, 40156c <vTaskPlaceOnEventList+0x2c>
		portRESET_READY_PRIORITY( pxCurrentTCB->uxPriority, uxTopReadyPriority );
  40155a:	682a      	ldr	r2, [r5, #0]
  40155c:	4914      	ldr	r1, [pc, #80]	; (4015b0 <vTaskPlaceOnEventList+0x70>)
  40155e:	680b      	ldr	r3, [r1, #0]
  401560:	6ad0      	ldr	r0, [r2, #44]	; 0x2c
  401562:	2201      	movs	r2, #1
  401564:	4082      	lsls	r2, r0
  401566:	ea23 0302 	bic.w	r3, r3, r2
  40156a:	600b      	str	r3, [r1, #0]
		if( xTicksToWait == portMAX_DELAY )
  40156c:	f1b4 3fff 	cmp.w	r4, #4294967295
  401570:	d010      	beq.n	401594 <vTaskPlaceOnEventList+0x54>
			xTimeToWake = xTickCount + xTicksToWait;
  401572:	4b10      	ldr	r3, [pc, #64]	; (4015b4 <vTaskPlaceOnEventList+0x74>)
  401574:	6818      	ldr	r0, [r3, #0]
			prvAddCurrentTaskToDelayedList( xTimeToWake );
  401576:	4420      	add	r0, r4
  401578:	4b0f      	ldr	r3, [pc, #60]	; (4015b8 <vTaskPlaceOnEventList+0x78>)
  40157a:	4798      	blx	r3
  40157c:	bd38      	pop	{r3, r4, r5, pc}
  40157e:	f04f 0380 	mov.w	r3, #128	; 0x80
  401582:	b672      	cpsid	i
  401584:	f383 8811 	msr	BASEPRI, r3
  401588:	f3bf 8f6f 	isb	sy
  40158c:	f3bf 8f4f 	dsb	sy
  401590:	b662      	cpsie	i
  401592:	e7fe      	b.n	401592 <vTaskPlaceOnEventList+0x52>
			vListInsertEnd( &xSuspendedTaskList, &( pxCurrentTCB->xGenericListItem ) );
  401594:	4b03      	ldr	r3, [pc, #12]	; (4015a4 <vTaskPlaceOnEventList+0x64>)
  401596:	6819      	ldr	r1, [r3, #0]
  401598:	3104      	adds	r1, #4
  40159a:	4808      	ldr	r0, [pc, #32]	; (4015bc <vTaskPlaceOnEventList+0x7c>)
  40159c:	4b08      	ldr	r3, [pc, #32]	; (4015c0 <vTaskPlaceOnEventList+0x80>)
  40159e:	4798      	blx	r3
  4015a0:	bd38      	pop	{r3, r4, r5, pc}
  4015a2:	bf00      	nop
  4015a4:	2040c1fc 	.word	0x2040c1fc
  4015a8:	004001e1 	.word	0x004001e1
  4015ac:	00400215 	.word	0x00400215
  4015b0:	2040c280 	.word	0x2040c280
  4015b4:	2040c2f4 	.word	0x2040c2f4
  4015b8:	00400e39 	.word	0x00400e39
  4015bc:	2040c2cc 	.word	0x2040c2cc
  4015c0:	004001c9 	.word	0x004001c9

004015c4 <vTaskPlaceOnEventListRestricted>:
		configASSERT( pxEventList );
  4015c4:	b1e8      	cbz	r0, 401602 <vTaskPlaceOnEventListRestricted+0x3e>
	{
  4015c6:	b570      	push	{r4, r5, r6, lr}
  4015c8:	4615      	mov	r5, r2
  4015ca:	460c      	mov	r4, r1
		vListInsertEnd( pxEventList, &( pxCurrentTCB->xEventListItem ) );
  4015cc:	4e16      	ldr	r6, [pc, #88]	; (401628 <vTaskPlaceOnEventListRestricted+0x64>)
  4015ce:	6831      	ldr	r1, [r6, #0]
  4015d0:	3118      	adds	r1, #24
  4015d2:	4b16      	ldr	r3, [pc, #88]	; (40162c <vTaskPlaceOnEventListRestricted+0x68>)
  4015d4:	4798      	blx	r3
		if( uxListRemove( &( pxCurrentTCB->xGenericListItem ) ) == ( UBaseType_t ) 0 )
  4015d6:	6830      	ldr	r0, [r6, #0]
  4015d8:	3004      	adds	r0, #4
  4015da:	4b15      	ldr	r3, [pc, #84]	; (401630 <vTaskPlaceOnEventListRestricted+0x6c>)
  4015dc:	4798      	blx	r3
  4015de:	b940      	cbnz	r0, 4015f2 <vTaskPlaceOnEventListRestricted+0x2e>
			portRESET_READY_PRIORITY( pxCurrentTCB->uxPriority, uxTopReadyPriority );
  4015e0:	6832      	ldr	r2, [r6, #0]
  4015e2:	4914      	ldr	r1, [pc, #80]	; (401634 <vTaskPlaceOnEventListRestricted+0x70>)
  4015e4:	680b      	ldr	r3, [r1, #0]
  4015e6:	6ad0      	ldr	r0, [r2, #44]	; 0x2c
  4015e8:	2201      	movs	r2, #1
  4015ea:	4082      	lsls	r2, r0
  4015ec:	ea23 0302 	bic.w	r3, r3, r2
  4015f0:	600b      	str	r3, [r1, #0]
			if( xWaitIndefinitely == pdTRUE )
  4015f2:	2d01      	cmp	r5, #1
  4015f4:	d010      	beq.n	401618 <vTaskPlaceOnEventListRestricted+0x54>
				xTimeToWake = xTickCount + xTicksToWait;
  4015f6:	4b10      	ldr	r3, [pc, #64]	; (401638 <vTaskPlaceOnEventListRestricted+0x74>)
  4015f8:	6818      	ldr	r0, [r3, #0]
				prvAddCurrentTaskToDelayedList( xTimeToWake );
  4015fa:	4420      	add	r0, r4
  4015fc:	4b0f      	ldr	r3, [pc, #60]	; (40163c <vTaskPlaceOnEventListRestricted+0x78>)
  4015fe:	4798      	blx	r3
  401600:	bd70      	pop	{r4, r5, r6, pc}
  401602:	f04f 0380 	mov.w	r3, #128	; 0x80
  401606:	b672      	cpsid	i
  401608:	f383 8811 	msr	BASEPRI, r3
  40160c:	f3bf 8f6f 	isb	sy
  401610:	f3bf 8f4f 	dsb	sy
  401614:	b662      	cpsie	i
  401616:	e7fe      	b.n	401616 <vTaskPlaceOnEventListRestricted+0x52>
				vListInsertEnd( &xSuspendedTaskList, &( pxCurrentTCB->xGenericListItem ) );
  401618:	4b03      	ldr	r3, [pc, #12]	; (401628 <vTaskPlaceOnEventListRestricted+0x64>)
  40161a:	6819      	ldr	r1, [r3, #0]
  40161c:	3104      	adds	r1, #4
  40161e:	4808      	ldr	r0, [pc, #32]	; (401640 <vTaskPlaceOnEventListRestricted+0x7c>)
  401620:	4b02      	ldr	r3, [pc, #8]	; (40162c <vTaskPlaceOnEventListRestricted+0x68>)
  401622:	4798      	blx	r3
  401624:	bd70      	pop	{r4, r5, r6, pc}
  401626:	bf00      	nop
  401628:	2040c1fc 	.word	0x2040c1fc
  40162c:	004001c9 	.word	0x004001c9
  401630:	00400215 	.word	0x00400215
  401634:	2040c280 	.word	0x2040c280
  401638:	2040c2f4 	.word	0x2040c2f4
  40163c:	00400e39 	.word	0x00400e39
  401640:	2040c2cc 	.word	0x2040c2cc

00401644 <xTaskRemoveFromEventList>:
{
  401644:	b538      	push	{r3, r4, r5, lr}
	pxUnblockedTCB = ( TCB_t * ) listGET_OWNER_OF_HEAD_ENTRY( pxEventList );
  401646:	68c3      	ldr	r3, [r0, #12]
  401648:	68dc      	ldr	r4, [r3, #12]
	configASSERT( pxUnblockedTCB );
  40164a:	b324      	cbz	r4, 401696 <xTaskRemoveFromEventList+0x52>
	( void ) uxListRemove( &( pxUnblockedTCB->xEventListItem ) );
  40164c:	f104 0518 	add.w	r5, r4, #24
  401650:	4628      	mov	r0, r5
  401652:	4b1a      	ldr	r3, [pc, #104]	; (4016bc <xTaskRemoveFromEventList+0x78>)
  401654:	4798      	blx	r3
	if( uxSchedulerSuspended == ( UBaseType_t ) pdFALSE )
  401656:	4b1a      	ldr	r3, [pc, #104]	; (4016c0 <xTaskRemoveFromEventList+0x7c>)
  401658:	681b      	ldr	r3, [r3, #0]
  40165a:	bb3b      	cbnz	r3, 4016ac <xTaskRemoveFromEventList+0x68>
		( void ) uxListRemove( &( pxUnblockedTCB->xGenericListItem ) );
  40165c:	1d25      	adds	r5, r4, #4
  40165e:	4628      	mov	r0, r5
  401660:	4b16      	ldr	r3, [pc, #88]	; (4016bc <xTaskRemoveFromEventList+0x78>)
  401662:	4798      	blx	r3
		prvAddTaskToReadyList( pxUnblockedTCB );
  401664:	6ae0      	ldr	r0, [r4, #44]	; 0x2c
  401666:	4a17      	ldr	r2, [pc, #92]	; (4016c4 <xTaskRemoveFromEventList+0x80>)
  401668:	6811      	ldr	r1, [r2, #0]
  40166a:	2301      	movs	r3, #1
  40166c:	4083      	lsls	r3, r0
  40166e:	430b      	orrs	r3, r1
  401670:	6013      	str	r3, [r2, #0]
  401672:	eb00 0080 	add.w	r0, r0, r0, lsl #2
  401676:	4629      	mov	r1, r5
  401678:	4b13      	ldr	r3, [pc, #76]	; (4016c8 <xTaskRemoveFromEventList+0x84>)
  40167a:	eb03 0080 	add.w	r0, r3, r0, lsl #2
  40167e:	4b13      	ldr	r3, [pc, #76]	; (4016cc <xTaskRemoveFromEventList+0x88>)
  401680:	4798      	blx	r3
	if( pxUnblockedTCB->uxPriority > pxCurrentTCB->uxPriority )
  401682:	4b13      	ldr	r3, [pc, #76]	; (4016d0 <xTaskRemoveFromEventList+0x8c>)
  401684:	681b      	ldr	r3, [r3, #0]
  401686:	6ae2      	ldr	r2, [r4, #44]	; 0x2c
  401688:	6adb      	ldr	r3, [r3, #44]	; 0x2c
  40168a:	429a      	cmp	r2, r3
  40168c:	d913      	bls.n	4016b6 <xTaskRemoveFromEventList+0x72>
		xYieldPending = pdTRUE;
  40168e:	2001      	movs	r0, #1
  401690:	4b10      	ldr	r3, [pc, #64]	; (4016d4 <xTaskRemoveFromEventList+0x90>)
  401692:	6018      	str	r0, [r3, #0]
  401694:	bd38      	pop	{r3, r4, r5, pc}
  401696:	f04f 0380 	mov.w	r3, #128	; 0x80
  40169a:	b672      	cpsid	i
  40169c:	f383 8811 	msr	BASEPRI, r3
  4016a0:	f3bf 8f6f 	isb	sy
  4016a4:	f3bf 8f4f 	dsb	sy
  4016a8:	b662      	cpsie	i
  4016aa:	e7fe      	b.n	4016aa <xTaskRemoveFromEventList+0x66>
		vListInsertEnd( &( xPendingReadyList ), &( pxUnblockedTCB->xEventListItem ) );
  4016ac:	4629      	mov	r1, r5
  4016ae:	480a      	ldr	r0, [pc, #40]	; (4016d8 <xTaskRemoveFromEventList+0x94>)
  4016b0:	4b06      	ldr	r3, [pc, #24]	; (4016cc <xTaskRemoveFromEventList+0x88>)
  4016b2:	4798      	blx	r3
  4016b4:	e7e5      	b.n	401682 <xTaskRemoveFromEventList+0x3e>
		xReturn = pdFALSE;
  4016b6:	2000      	movs	r0, #0
}
  4016b8:	bd38      	pop	{r3, r4, r5, pc}
  4016ba:	bf00      	nop
  4016bc:	00400215 	.word	0x00400215
  4016c0:	2040c274 	.word	0x2040c274
  4016c4:	2040c280 	.word	0x2040c280
  4016c8:	2040c208 	.word	0x2040c208
  4016cc:	004001c9 	.word	0x004001c9
  4016d0:	2040c1fc 	.word	0x2040c1fc
  4016d4:	2040c2f8 	.word	0x2040c2f8
  4016d8:	2040c2b4 	.word	0x2040c2b4

004016dc <vTaskSetTimeOutState>:
	configASSERT( pxTimeOut );
  4016dc:	b130      	cbz	r0, 4016ec <vTaskSetTimeOutState+0x10>
	pxTimeOut->xOverflowCount = xNumOfOverflows;
  4016de:	4a09      	ldr	r2, [pc, #36]	; (401704 <vTaskSetTimeOutState+0x28>)
  4016e0:	6812      	ldr	r2, [r2, #0]
  4016e2:	6002      	str	r2, [r0, #0]
	pxTimeOut->xTimeOnEntering = xTickCount;
  4016e4:	4a08      	ldr	r2, [pc, #32]	; (401708 <vTaskSetTimeOutState+0x2c>)
  4016e6:	6812      	ldr	r2, [r2, #0]
  4016e8:	6042      	str	r2, [r0, #4]
  4016ea:	4770      	bx	lr
  4016ec:	f04f 0380 	mov.w	r3, #128	; 0x80
  4016f0:	b672      	cpsid	i
  4016f2:	f383 8811 	msr	BASEPRI, r3
  4016f6:	f3bf 8f6f 	isb	sy
  4016fa:	f3bf 8f4f 	dsb	sy
  4016fe:	b662      	cpsie	i
  401700:	e7fe      	b.n	401700 <vTaskSetTimeOutState+0x24>
  401702:	bf00      	nop
  401704:	2040c2b0 	.word	0x2040c2b0
  401708:	2040c2f4 	.word	0x2040c2f4

0040170c <xTaskCheckForTimeOut>:
{
  40170c:	b538      	push	{r3, r4, r5, lr}
	configASSERT( pxTimeOut );
  40170e:	b1c0      	cbz	r0, 401742 <xTaskCheckForTimeOut+0x36>
  401710:	4604      	mov	r4, r0
	configASSERT( pxTicksToWait );
  401712:	b309      	cbz	r1, 401758 <xTaskCheckForTimeOut+0x4c>
  401714:	460d      	mov	r5, r1
	taskENTER_CRITICAL();
  401716:	4b1d      	ldr	r3, [pc, #116]	; (40178c <xTaskCheckForTimeOut+0x80>)
  401718:	4798      	blx	r3
		const TickType_t xConstTickCount = xTickCount;
  40171a:	4b1d      	ldr	r3, [pc, #116]	; (401790 <xTaskCheckForTimeOut+0x84>)
  40171c:	681a      	ldr	r2, [r3, #0]
			if( *pxTicksToWait == portMAX_DELAY )
  40171e:	682b      	ldr	r3, [r5, #0]
  401720:	f1b3 3fff 	cmp.w	r3, #4294967295
  401724:	d02e      	beq.n	401784 <xTaskCheckForTimeOut+0x78>
		if( ( xNumOfOverflows != pxTimeOut->xOverflowCount ) && ( xConstTickCount >= pxTimeOut->xTimeOnEntering ) ) /*lint !e525 Indentation preferred as is to make code within pre-processor directives clearer. */
  401726:	491b      	ldr	r1, [pc, #108]	; (401794 <xTaskCheckForTimeOut+0x88>)
  401728:	6809      	ldr	r1, [r1, #0]
  40172a:	6820      	ldr	r0, [r4, #0]
  40172c:	4288      	cmp	r0, r1
  40172e:	d002      	beq.n	401736 <xTaskCheckForTimeOut+0x2a>
  401730:	6861      	ldr	r1, [r4, #4]
  401732:	428a      	cmp	r2, r1
  401734:	d228      	bcs.n	401788 <xTaskCheckForTimeOut+0x7c>
		else if( ( xConstTickCount - pxTimeOut->xTimeOnEntering ) < *pxTicksToWait )
  401736:	6861      	ldr	r1, [r4, #4]
  401738:	1a50      	subs	r0, r2, r1
  40173a:	4283      	cmp	r3, r0
  40173c:	d817      	bhi.n	40176e <xTaskCheckForTimeOut+0x62>
			xReturn = pdTRUE;
  40173e:	2401      	movs	r4, #1
  401740:	e01c      	b.n	40177c <xTaskCheckForTimeOut+0x70>
  401742:	f04f 0380 	mov.w	r3, #128	; 0x80
  401746:	b672      	cpsid	i
  401748:	f383 8811 	msr	BASEPRI, r3
  40174c:	f3bf 8f6f 	isb	sy
  401750:	f3bf 8f4f 	dsb	sy
  401754:	b662      	cpsie	i
  401756:	e7fe      	b.n	401756 <xTaskCheckForTimeOut+0x4a>
  401758:	f04f 0380 	mov.w	r3, #128	; 0x80
  40175c:	b672      	cpsid	i
  40175e:	f383 8811 	msr	BASEPRI, r3
  401762:	f3bf 8f6f 	isb	sy
  401766:	f3bf 8f4f 	dsb	sy
  40176a:	b662      	cpsie	i
  40176c:	e7fe      	b.n	40176c <xTaskCheckForTimeOut+0x60>
			*pxTicksToWait -= ( xConstTickCount -  pxTimeOut->xTimeOnEntering );
  40176e:	1a9b      	subs	r3, r3, r2
  401770:	440b      	add	r3, r1
  401772:	602b      	str	r3, [r5, #0]
			vTaskSetTimeOutState( pxTimeOut );
  401774:	4620      	mov	r0, r4
  401776:	4b08      	ldr	r3, [pc, #32]	; (401798 <xTaskCheckForTimeOut+0x8c>)
  401778:	4798      	blx	r3
			xReturn = pdFALSE;
  40177a:	2400      	movs	r4, #0
	taskEXIT_CRITICAL();
  40177c:	4b07      	ldr	r3, [pc, #28]	; (40179c <xTaskCheckForTimeOut+0x90>)
  40177e:	4798      	blx	r3
}
  401780:	4620      	mov	r0, r4
  401782:	bd38      	pop	{r3, r4, r5, pc}
				xReturn = pdFALSE;
  401784:	2400      	movs	r4, #0
  401786:	e7f9      	b.n	40177c <xTaskCheckForTimeOut+0x70>
			xReturn = pdTRUE;
  401788:	2401      	movs	r4, #1
  40178a:	e7f7      	b.n	40177c <xTaskCheckForTimeOut+0x70>
  40178c:	004002f9 	.word	0x004002f9
  401790:	2040c2f4 	.word	0x2040c2f4
  401794:	2040c2b0 	.word	0x2040c2b0
  401798:	004016dd 	.word	0x004016dd
  40179c:	00400345 	.word	0x00400345

004017a0 <vTaskMissedYield>:
	xYieldPending = pdTRUE;
  4017a0:	2201      	movs	r2, #1
  4017a2:	4b01      	ldr	r3, [pc, #4]	; (4017a8 <vTaskMissedYield+0x8>)
  4017a4:	601a      	str	r2, [r3, #0]
  4017a6:	4770      	bx	lr
  4017a8:	2040c2f8 	.word	0x2040c2f8

004017ac <xTaskGetSchedulerState>:

	BaseType_t xTaskGetSchedulerState( void )
	{
	BaseType_t xReturn;

		if( xSchedulerRunning == pdFALSE )
  4017ac:	4b05      	ldr	r3, [pc, #20]	; (4017c4 <xTaskGetSchedulerState+0x18>)
  4017ae:	681b      	ldr	r3, [r3, #0]
  4017b0:	b133      	cbz	r3, 4017c0 <xTaskGetSchedulerState+0x14>
		{
			xReturn = taskSCHEDULER_NOT_STARTED;
		}
		else
		{
			if( uxSchedulerSuspended == ( UBaseType_t ) pdFALSE )
  4017b2:	4b05      	ldr	r3, [pc, #20]	; (4017c8 <xTaskGetSchedulerState+0x1c>)
  4017b4:	681b      	ldr	r3, [r3, #0]
			{
				xReturn = taskSCHEDULER_RUNNING;
			}
			else
			{
				xReturn = taskSCHEDULER_SUSPENDED;
  4017b6:	2b00      	cmp	r3, #0
  4017b8:	bf0c      	ite	eq
  4017ba:	2002      	moveq	r0, #2
  4017bc:	2000      	movne	r0, #0
  4017be:	4770      	bx	lr
			xReturn = taskSCHEDULER_NOT_STARTED;
  4017c0:	2001      	movs	r0, #1
			}
		}

		return xReturn;
	}
  4017c2:	4770      	bx	lr
  4017c4:	2040c2c8 	.word	0x2040c2c8
  4017c8:	2040c274 	.word	0x2040c274

004017cc <vTaskPriorityInherit>:
	{
	TCB_t * const pxTCB = ( TCB_t * ) pxMutexHolder;

		/* If the mutex was given back by an interrupt while the queue was
		locked then the mutex holder might now be NULL. */
		if( pxMutexHolder != NULL )
  4017cc:	2800      	cmp	r0, #0
  4017ce:	d044      	beq.n	40185a <vTaskPriorityInherit+0x8e>
	{
  4017d0:	b538      	push	{r3, r4, r5, lr}
  4017d2:	4604      	mov	r4, r0
		{
			/* If the holder of the mutex has a priority below the priority of
			the task attempting to obtain the mutex then it will temporarily
			inherit the priority of the task attempting to obtain the mutex. */
			if( pxTCB->uxPriority < pxCurrentTCB->uxPriority )
  4017d4:	6ac2      	ldr	r2, [r0, #44]	; 0x2c
  4017d6:	4921      	ldr	r1, [pc, #132]	; (40185c <vTaskPriorityInherit+0x90>)
  4017d8:	6809      	ldr	r1, [r1, #0]
  4017da:	6ac9      	ldr	r1, [r1, #44]	; 0x2c
  4017dc:	428a      	cmp	r2, r1
  4017de:	d214      	bcs.n	40180a <vTaskPriorityInherit+0x3e>
			{
				/* Adjust the mutex holder state to account for its new
				priority.  Only reset the event list item value if the value is
				not	being used for anything else. */
				if( ( listGET_LIST_ITEM_VALUE( &( pxTCB->xEventListItem ) ) & taskEVENT_LIST_ITEM_VALUE_IN_USE ) == 0UL )
  4017e0:	6981      	ldr	r1, [r0, #24]
  4017e2:	2900      	cmp	r1, #0
  4017e4:	db05      	blt.n	4017f2 <vTaskPriorityInherit+0x26>
				{
					listSET_LIST_ITEM_VALUE( &( pxTCB->xEventListItem ), ( TickType_t ) configMAX_PRIORITIES - ( TickType_t ) pxCurrentTCB->uxPriority ); /*lint !e961 MISRA exception as the casts are only redundant for some ports. */
  4017e6:	491d      	ldr	r1, [pc, #116]	; (40185c <vTaskPriorityInherit+0x90>)
  4017e8:	6809      	ldr	r1, [r1, #0]
  4017ea:	6ac9      	ldr	r1, [r1, #44]	; 0x2c
  4017ec:	f1c1 0105 	rsb	r1, r1, #5
  4017f0:	6181      	str	r1, [r0, #24]
					mtCOVERAGE_TEST_MARKER();
				}

				/* If the task being modified is in the ready state it will need
				to be moved into a new list. */
				if( listIS_CONTAINED_WITHIN( &( pxReadyTasksLists[ pxTCB->uxPriority ] ), &( pxTCB->xGenericListItem ) ) != pdFALSE )
  4017f2:	eb02 0282 	add.w	r2, r2, r2, lsl #2
  4017f6:	491a      	ldr	r1, [pc, #104]	; (401860 <vTaskPriorityInherit+0x94>)
  4017f8:	eb01 0282 	add.w	r2, r1, r2, lsl #2
  4017fc:	6961      	ldr	r1, [r4, #20]
  4017fe:	4291      	cmp	r1, r2
  401800:	d004      	beq.n	40180c <vTaskPriorityInherit+0x40>
					prvAddTaskToReadyList( pxTCB );
				}
				else
				{
					/* Just inherit the priority. */
					pxTCB->uxPriority = pxCurrentTCB->uxPriority;
  401802:	4a16      	ldr	r2, [pc, #88]	; (40185c <vTaskPriorityInherit+0x90>)
  401804:	6812      	ldr	r2, [r2, #0]
  401806:	6ad2      	ldr	r2, [r2, #44]	; 0x2c
  401808:	62e2      	str	r2, [r4, #44]	; 0x2c
  40180a:	bd38      	pop	{r3, r4, r5, pc}
					if( uxListRemove( &( pxTCB->xGenericListItem ) ) == ( UBaseType_t ) 0 )
  40180c:	1d25      	adds	r5, r4, #4
  40180e:	4628      	mov	r0, r5
  401810:	4b14      	ldr	r3, [pc, #80]	; (401864 <vTaskPriorityInherit+0x98>)
  401812:	4798      	blx	r3
  401814:	b970      	cbnz	r0, 401834 <vTaskPriorityInherit+0x68>
						taskRESET_READY_PRIORITY( pxTCB->uxPriority );
  401816:	6ae3      	ldr	r3, [r4, #44]	; 0x2c
  401818:	eb03 0183 	add.w	r1, r3, r3, lsl #2
  40181c:	4a10      	ldr	r2, [pc, #64]	; (401860 <vTaskPriorityInherit+0x94>)
  40181e:	f852 2021 	ldr.w	r2, [r2, r1, lsl #2]
  401822:	b93a      	cbnz	r2, 401834 <vTaskPriorityInherit+0x68>
  401824:	4810      	ldr	r0, [pc, #64]	; (401868 <vTaskPriorityInherit+0x9c>)
  401826:	6802      	ldr	r2, [r0, #0]
  401828:	2101      	movs	r1, #1
  40182a:	fa01 f303 	lsl.w	r3, r1, r3
  40182e:	ea22 0303 	bic.w	r3, r2, r3
  401832:	6003      	str	r3, [r0, #0]
					pxTCB->uxPriority = pxCurrentTCB->uxPriority;
  401834:	4b09      	ldr	r3, [pc, #36]	; (40185c <vTaskPriorityInherit+0x90>)
  401836:	681b      	ldr	r3, [r3, #0]
  401838:	6ad8      	ldr	r0, [r3, #44]	; 0x2c
  40183a:	62e0      	str	r0, [r4, #44]	; 0x2c
					prvAddTaskToReadyList( pxTCB );
  40183c:	4a0a      	ldr	r2, [pc, #40]	; (401868 <vTaskPriorityInherit+0x9c>)
  40183e:	6811      	ldr	r1, [r2, #0]
  401840:	2301      	movs	r3, #1
  401842:	4083      	lsls	r3, r0
  401844:	430b      	orrs	r3, r1
  401846:	6013      	str	r3, [r2, #0]
  401848:	eb00 0080 	add.w	r0, r0, r0, lsl #2
  40184c:	4629      	mov	r1, r5
  40184e:	4b04      	ldr	r3, [pc, #16]	; (401860 <vTaskPriorityInherit+0x94>)
  401850:	eb03 0080 	add.w	r0, r3, r0, lsl #2
  401854:	4b05      	ldr	r3, [pc, #20]	; (40186c <vTaskPriorityInherit+0xa0>)
  401856:	4798      	blx	r3
  401858:	bd38      	pop	{r3, r4, r5, pc}
  40185a:	4770      	bx	lr
  40185c:	2040c1fc 	.word	0x2040c1fc
  401860:	2040c208 	.word	0x2040c208
  401864:	00400215 	.word	0x00400215
  401868:	2040c280 	.word	0x2040c280
  40186c:	004001c9 	.word	0x004001c9

00401870 <xTaskPriorityDisinherit>:
	BaseType_t xTaskPriorityDisinherit( TaskHandle_t const pxMutexHolder )
	{
	TCB_t * const pxTCB = ( TCB_t * ) pxMutexHolder;
	BaseType_t xReturn = pdFALSE;

		if( pxMutexHolder != NULL )
  401870:	2800      	cmp	r0, #0
  401872:	d04d      	beq.n	401910 <xTaskPriorityDisinherit+0xa0>
	{
  401874:	b538      	push	{r3, r4, r5, lr}
  401876:	4604      	mov	r4, r0
		{
			/* A task can only have an inherited priority if it holds the mutex.
			If the mutex is held by a task then it cannot be given from an
			interrupt, and if a mutex is given by the holding task then it must
			be the running state task. */
			configASSERT( pxTCB == pxCurrentTCB );
  401878:	4a27      	ldr	r2, [pc, #156]	; (401918 <xTaskPriorityDisinherit+0xa8>)
  40187a:	6812      	ldr	r2, [r2, #0]
  40187c:	4290      	cmp	r0, r2
  40187e:	d00a      	beq.n	401896 <xTaskPriorityDisinherit+0x26>
  401880:	f04f 0380 	mov.w	r3, #128	; 0x80
  401884:	b672      	cpsid	i
  401886:	f383 8811 	msr	BASEPRI, r3
  40188a:	f3bf 8f6f 	isb	sy
  40188e:	f3bf 8f4f 	dsb	sy
  401892:	b662      	cpsie	i
  401894:	e7fe      	b.n	401894 <xTaskPriorityDisinherit+0x24>

			configASSERT( pxTCB->uxMutexesHeld );
  401896:	6cc2      	ldr	r2, [r0, #76]	; 0x4c
  401898:	b952      	cbnz	r2, 4018b0 <xTaskPriorityDisinherit+0x40>
  40189a:	f04f 0380 	mov.w	r3, #128	; 0x80
  40189e:	b672      	cpsid	i
  4018a0:	f383 8811 	msr	BASEPRI, r3
  4018a4:	f3bf 8f6f 	isb	sy
  4018a8:	f3bf 8f4f 	dsb	sy
  4018ac:	b662      	cpsie	i
  4018ae:	e7fe      	b.n	4018ae <xTaskPriorityDisinherit+0x3e>
			( pxTCB->uxMutexesHeld )--;
  4018b0:	3a01      	subs	r2, #1
  4018b2:	64c2      	str	r2, [r0, #76]	; 0x4c

			/* Has the holder of the mutex inherited the priority of another
			task? */
			if( pxTCB->uxPriority != pxTCB->uxBasePriority )
  4018b4:	6ac0      	ldr	r0, [r0, #44]	; 0x2c
  4018b6:	6ca1      	ldr	r1, [r4, #72]	; 0x48
			{
				/* Only disinherit if no other mutexes are held. */
				if( pxTCB->uxMutexesHeld == ( UBaseType_t ) 0 )
  4018b8:	4288      	cmp	r0, r1
  4018ba:	d02b      	beq.n	401914 <xTaskPriorityDisinherit+0xa4>
  4018bc:	bb52      	cbnz	r2, 401914 <xTaskPriorityDisinherit+0xa4>
					/* A task can only have an inherited priority if it holds
					the mutex.  If the mutex is held by a task then it cannot be
					given from an interrupt, and if a mutex is given by the
					holding	task then it must be the running state task.  Remove
					the	holding task from the ready	list. */
					if( uxListRemove( &( pxTCB->xGenericListItem ) ) == ( UBaseType_t ) 0 )
  4018be:	1d25      	adds	r5, r4, #4
  4018c0:	4628      	mov	r0, r5
  4018c2:	4b16      	ldr	r3, [pc, #88]	; (40191c <xTaskPriorityDisinherit+0xac>)
  4018c4:	4798      	blx	r3
  4018c6:	b968      	cbnz	r0, 4018e4 <xTaskPriorityDisinherit+0x74>
					{
						taskRESET_READY_PRIORITY( pxTCB->uxPriority );
  4018c8:	6ae1      	ldr	r1, [r4, #44]	; 0x2c
  4018ca:	eb01 0281 	add.w	r2, r1, r1, lsl #2
  4018ce:	4b14      	ldr	r3, [pc, #80]	; (401920 <xTaskPriorityDisinherit+0xb0>)
  4018d0:	f853 3022 	ldr.w	r3, [r3, r2, lsl #2]
  4018d4:	b933      	cbnz	r3, 4018e4 <xTaskPriorityDisinherit+0x74>
  4018d6:	4813      	ldr	r0, [pc, #76]	; (401924 <xTaskPriorityDisinherit+0xb4>)
  4018d8:	6803      	ldr	r3, [r0, #0]
  4018da:	2201      	movs	r2, #1
  4018dc:	408a      	lsls	r2, r1
  4018de:	ea23 0302 	bic.w	r3, r3, r2
  4018e2:	6003      	str	r3, [r0, #0]
					}

					/* Disinherit the priority before adding the task into the
					new	ready list. */
					traceTASK_PRIORITY_DISINHERIT( pxTCB, pxTCB->uxBasePriority );
					pxTCB->uxPriority = pxTCB->uxBasePriority;
  4018e4:	6ca0      	ldr	r0, [r4, #72]	; 0x48
  4018e6:	62e0      	str	r0, [r4, #44]	; 0x2c

					/* Reset the event list item value.  It cannot be in use for
					any other purpose if this task is running, and it must be
					running to give back the mutex. */
					listSET_LIST_ITEM_VALUE( &( pxTCB->xEventListItem ), ( TickType_t ) configMAX_PRIORITIES - ( TickType_t ) pxTCB->uxPriority ); /*lint !e961 MISRA exception as the casts are only redundant for some ports. */
  4018e8:	f1c0 0305 	rsb	r3, r0, #5
  4018ec:	61a3      	str	r3, [r4, #24]
					prvAddTaskToReadyList( pxTCB );
  4018ee:	4a0d      	ldr	r2, [pc, #52]	; (401924 <xTaskPriorityDisinherit+0xb4>)
  4018f0:	6811      	ldr	r1, [r2, #0]
  4018f2:	2401      	movs	r4, #1
  4018f4:	fa04 f300 	lsl.w	r3, r4, r0
  4018f8:	430b      	orrs	r3, r1
  4018fa:	6013      	str	r3, [r2, #0]
  4018fc:	eb00 0080 	add.w	r0, r0, r0, lsl #2
  401900:	4629      	mov	r1, r5
  401902:	4b07      	ldr	r3, [pc, #28]	; (401920 <xTaskPriorityDisinherit+0xb0>)
  401904:	eb03 0080 	add.w	r0, r3, r0, lsl #2
  401908:	4b07      	ldr	r3, [pc, #28]	; (401928 <xTaskPriorityDisinherit+0xb8>)
  40190a:	4798      	blx	r3
					in an order different to that in which they were taken.
					If a context switch did not occur when the first mutex was
					returned, even if a task was waiting on it, then a context
					switch should occur when the last mutex is returned whether
					a task is waiting on it or not. */
					xReturn = pdTRUE;
  40190c:	4620      	mov	r0, r4
  40190e:	bd38      	pop	{r3, r4, r5, pc}
	BaseType_t xReturn = pdFALSE;
  401910:	2000      	movs	r0, #0
  401912:	4770      	bx	lr
  401914:	2000      	movs	r0, #0
		{
			mtCOVERAGE_TEST_MARKER();
		}

		return xReturn;
	}
  401916:	bd38      	pop	{r3, r4, r5, pc}
  401918:	2040c1fc 	.word	0x2040c1fc
  40191c:	00400215 	.word	0x00400215
  401920:	2040c208 	.word	0x2040c208
  401924:	2040c280 	.word	0x2040c280
  401928:	004001c9 	.word	0x004001c9

0040192c <pvTaskIncrementMutexHeldCount>:

	void *pvTaskIncrementMutexHeldCount( void )
	{
		/* If xSemaphoreCreateMutex() is called before any tasks have been created
		then pxCurrentTCB will be NULL. */
		if( pxCurrentTCB != NULL )
  40192c:	4b05      	ldr	r3, [pc, #20]	; (401944 <pvTaskIncrementMutexHeldCount+0x18>)
  40192e:	681b      	ldr	r3, [r3, #0]
  401930:	b123      	cbz	r3, 40193c <pvTaskIncrementMutexHeldCount+0x10>
		{
			( pxCurrentTCB->uxMutexesHeld )++;
  401932:	4b04      	ldr	r3, [pc, #16]	; (401944 <pvTaskIncrementMutexHeldCount+0x18>)
  401934:	681a      	ldr	r2, [r3, #0]
  401936:	6cd3      	ldr	r3, [r2, #76]	; 0x4c
  401938:	3301      	adds	r3, #1
  40193a:	64d3      	str	r3, [r2, #76]	; 0x4c
		}

		return pxCurrentTCB;
  40193c:	4b01      	ldr	r3, [pc, #4]	; (401944 <pvTaskIncrementMutexHeldCount+0x18>)
  40193e:	6818      	ldr	r0, [r3, #0]
	}
  401940:	4770      	bx	lr
  401942:	bf00      	nop
  401944:	2040c1fc 	.word	0x2040c1fc

00401948 <prvInsertTimerInActiveList>:
	return xTimeNow;
}
/*-----------------------------------------------------------*/

static BaseType_t prvInsertTimerInActiveList( Timer_t * const pxTimer, const TickType_t xNextExpiryTime, const TickType_t xTimeNow, const TickType_t xCommandTime )
{
  401948:	b508      	push	{r3, lr}
BaseType_t xProcessTimerNow = pdFALSE;

	listSET_LIST_ITEM_VALUE( &( pxTimer->xTimerListItem ), xNextExpiryTime );
  40194a:	6041      	str	r1, [r0, #4]
	listSET_LIST_ITEM_OWNER( &( pxTimer->xTimerListItem ), pxTimer );
  40194c:	6100      	str	r0, [r0, #16]

	if( xNextExpiryTime <= xTimeNow )
  40194e:	4291      	cmp	r1, r2
  401950:	d80c      	bhi.n	40196c <prvInsertTimerInActiveList+0x24>
	{
		/* Has the expiry time elapsed between the command to start/reset a
		timer was issued, and the time the command was processed? */
		if( ( xTimeNow - xCommandTime ) >= pxTimer->xTimerPeriodInTicks )
  401952:	1ad2      	subs	r2, r2, r3
  401954:	6983      	ldr	r3, [r0, #24]
  401956:	429a      	cmp	r2, r3
  401958:	d301      	bcc.n	40195e <prvInsertTimerInActiveList+0x16>
		{
			/* The time between a command being issued and the command being
			processed actually exceeds the timers period.  */
			xProcessTimerNow = pdTRUE;
  40195a:	2001      	movs	r0, #1
  40195c:	bd08      	pop	{r3, pc}
		}
		else
		{
			vListInsert( pxOverflowTimerList, &( pxTimer->xTimerListItem ) );
  40195e:	1d01      	adds	r1, r0, #4
  401960:	4b09      	ldr	r3, [pc, #36]	; (401988 <prvInsertTimerInActiveList+0x40>)
  401962:	6818      	ldr	r0, [r3, #0]
  401964:	4b09      	ldr	r3, [pc, #36]	; (40198c <prvInsertTimerInActiveList+0x44>)
  401966:	4798      	blx	r3
BaseType_t xProcessTimerNow = pdFALSE;
  401968:	2000      	movs	r0, #0
  40196a:	bd08      	pop	{r3, pc}
		}
	}
	else
	{
		if( ( xTimeNow < xCommandTime ) && ( xNextExpiryTime >= xCommandTime ) )
  40196c:	429a      	cmp	r2, r3
  40196e:	d203      	bcs.n	401978 <prvInsertTimerInActiveList+0x30>
  401970:	4299      	cmp	r1, r3
  401972:	d301      	bcc.n	401978 <prvInsertTimerInActiveList+0x30>
		{
			/* If, since the command was issued, the tick count has overflowed
			but the expiry time has not, then the timer must have already passed
			its expiry time and should be processed immediately. */
			xProcessTimerNow = pdTRUE;
  401974:	2001      	movs	r0, #1
			vListInsert( pxCurrentTimerList, &( pxTimer->xTimerListItem ) );
		}
	}

	return xProcessTimerNow;
}
  401976:	bd08      	pop	{r3, pc}
			vListInsert( pxCurrentTimerList, &( pxTimer->xTimerListItem ) );
  401978:	1d01      	adds	r1, r0, #4
  40197a:	4b05      	ldr	r3, [pc, #20]	; (401990 <prvInsertTimerInActiveList+0x48>)
  40197c:	6818      	ldr	r0, [r3, #0]
  40197e:	4b03      	ldr	r3, [pc, #12]	; (40198c <prvInsertTimerInActiveList+0x44>)
  401980:	4798      	blx	r3
BaseType_t xProcessTimerNow = pdFALSE;
  401982:	2000      	movs	r0, #0
  401984:	bd08      	pop	{r3, pc}
  401986:	bf00      	nop
  401988:	2040c300 	.word	0x2040c300
  40198c:	004001e1 	.word	0x004001e1
  401990:	2040c2fc 	.word	0x2040c2fc

00401994 <prvCheckForValidListAndQueue>:
	pxOverflowTimerList = pxTemp;
}
/*-----------------------------------------------------------*/

static void prvCheckForValidListAndQueue( void )
{
  401994:	b570      	push	{r4, r5, r6, lr}
	/* Check that the list from which active timers are referenced, and the
	queue used to communicate with the timer service, have been
	initialised. */
	taskENTER_CRITICAL();
  401996:	4b15      	ldr	r3, [pc, #84]	; (4019ec <prvCheckForValidListAndQueue+0x58>)
  401998:	4798      	blx	r3
	{
		if( xTimerQueue == NULL )
  40199a:	4b15      	ldr	r3, [pc, #84]	; (4019f0 <prvCheckForValidListAndQueue+0x5c>)
  40199c:	681b      	ldr	r3, [r3, #0]
  40199e:	b113      	cbz	r3, 4019a6 <prvCheckForValidListAndQueue+0x12>
		else
		{
			mtCOVERAGE_TEST_MARKER();
		}
	}
	taskEXIT_CRITICAL();
  4019a0:	4b14      	ldr	r3, [pc, #80]	; (4019f4 <prvCheckForValidListAndQueue+0x60>)
  4019a2:	4798      	blx	r3
  4019a4:	bd70      	pop	{r4, r5, r6, pc}
			vListInitialise( &xActiveTimerList1 );
  4019a6:	4d14      	ldr	r5, [pc, #80]	; (4019f8 <prvCheckForValidListAndQueue+0x64>)
  4019a8:	4628      	mov	r0, r5
  4019aa:	4e14      	ldr	r6, [pc, #80]	; (4019fc <prvCheckForValidListAndQueue+0x68>)
  4019ac:	47b0      	blx	r6
			vListInitialise( &xActiveTimerList2 );
  4019ae:	4c14      	ldr	r4, [pc, #80]	; (401a00 <prvCheckForValidListAndQueue+0x6c>)
  4019b0:	4620      	mov	r0, r4
  4019b2:	47b0      	blx	r6
			pxCurrentTimerList = &xActiveTimerList1;
  4019b4:	4b13      	ldr	r3, [pc, #76]	; (401a04 <prvCheckForValidListAndQueue+0x70>)
  4019b6:	601d      	str	r5, [r3, #0]
			pxOverflowTimerList = &xActiveTimerList2;
  4019b8:	4b13      	ldr	r3, [pc, #76]	; (401a08 <prvCheckForValidListAndQueue+0x74>)
  4019ba:	601c      	str	r4, [r3, #0]
			xTimerQueue = xQueueCreate( ( UBaseType_t ) configTIMER_QUEUE_LENGTH, sizeof( DaemonTaskMessage_t ) );
  4019bc:	2200      	movs	r2, #0
  4019be:	2110      	movs	r1, #16
  4019c0:	2005      	movs	r0, #5
  4019c2:	4b12      	ldr	r3, [pc, #72]	; (401a0c <prvCheckForValidListAndQueue+0x78>)
  4019c4:	4798      	blx	r3
  4019c6:	4b0a      	ldr	r3, [pc, #40]	; (4019f0 <prvCheckForValidListAndQueue+0x5c>)
  4019c8:	6018      	str	r0, [r3, #0]
			configASSERT( xTimerQueue );
  4019ca:	b118      	cbz	r0, 4019d4 <prvCheckForValidListAndQueue+0x40>
					vQueueAddToRegistry( xTimerQueue, "TmrQ" );
  4019cc:	4910      	ldr	r1, [pc, #64]	; (401a10 <prvCheckForValidListAndQueue+0x7c>)
  4019ce:	4b11      	ldr	r3, [pc, #68]	; (401a14 <prvCheckForValidListAndQueue+0x80>)
  4019d0:	4798      	blx	r3
  4019d2:	e7e5      	b.n	4019a0 <prvCheckForValidListAndQueue+0xc>
  4019d4:	f04f 0380 	mov.w	r3, #128	; 0x80
  4019d8:	b672      	cpsid	i
  4019da:	f383 8811 	msr	BASEPRI, r3
  4019de:	f3bf 8f6f 	isb	sy
  4019e2:	f3bf 8f4f 	dsb	sy
  4019e6:	b662      	cpsie	i
  4019e8:	e7fe      	b.n	4019e8 <prvCheckForValidListAndQueue+0x54>
  4019ea:	bf00      	nop
  4019ec:	004002f9 	.word	0x004002f9
  4019f0:	2040c330 	.word	0x2040c330
  4019f4:	00400345 	.word	0x00400345
  4019f8:	2040c304 	.word	0x2040c304
  4019fc:	004001ad 	.word	0x004001ad
  401a00:	2040c318 	.word	0x2040c318
  401a04:	2040c2fc 	.word	0x2040c2fc
  401a08:	2040c300 	.word	0x2040c300
  401a0c:	00400851 	.word	0x00400851
  401a10:	00408b8c 	.word	0x00408b8c
  401a14:	00400d81 	.word	0x00400d81

00401a18 <xTimerCreateTimerTask>:
{
  401a18:	b510      	push	{r4, lr}
  401a1a:	b084      	sub	sp, #16
	prvCheckForValidListAndQueue();
  401a1c:	4b0f      	ldr	r3, [pc, #60]	; (401a5c <xTimerCreateTimerTask+0x44>)
  401a1e:	4798      	blx	r3
	if( xTimerQueue != NULL )
  401a20:	4b0f      	ldr	r3, [pc, #60]	; (401a60 <xTimerCreateTimerTask+0x48>)
  401a22:	681b      	ldr	r3, [r3, #0]
  401a24:	b173      	cbz	r3, 401a44 <xTimerCreateTimerTask+0x2c>
			xReturn = xTaskCreate( prvTimerTask, "Tmr Svc", ( uint16_t ) configTIMER_TASK_STACK_DEPTH, NULL, ( ( UBaseType_t ) configTIMER_TASK_PRIORITY ) | portPRIVILEGE_BIT, NULL);
  401a26:	2300      	movs	r3, #0
  401a28:	9303      	str	r3, [sp, #12]
  401a2a:	9302      	str	r3, [sp, #8]
  401a2c:	9301      	str	r3, [sp, #4]
  401a2e:	2204      	movs	r2, #4
  401a30:	9200      	str	r2, [sp, #0]
  401a32:	f44f 7282 	mov.w	r2, #260	; 0x104
  401a36:	490b      	ldr	r1, [pc, #44]	; (401a64 <xTimerCreateTimerTask+0x4c>)
  401a38:	480b      	ldr	r0, [pc, #44]	; (401a68 <xTimerCreateTimerTask+0x50>)
  401a3a:	4c0c      	ldr	r4, [pc, #48]	; (401a6c <xTimerCreateTimerTask+0x54>)
  401a3c:	47a0      	blx	r4
	configASSERT( xReturn );
  401a3e:	b108      	cbz	r0, 401a44 <xTimerCreateTimerTask+0x2c>
}
  401a40:	b004      	add	sp, #16
  401a42:	bd10      	pop	{r4, pc}
  401a44:	f04f 0380 	mov.w	r3, #128	; 0x80
  401a48:	b672      	cpsid	i
  401a4a:	f383 8811 	msr	BASEPRI, r3
  401a4e:	f3bf 8f6f 	isb	sy
  401a52:	f3bf 8f4f 	dsb	sy
  401a56:	b662      	cpsie	i
  401a58:	e7fe      	b.n	401a58 <xTimerCreateTimerTask+0x40>
  401a5a:	bf00      	nop
  401a5c:	00401995 	.word	0x00401995
  401a60:	2040c330 	.word	0x2040c330
  401a64:	00408b94 	.word	0x00408b94
  401a68:	00401b99 	.word	0x00401b99
  401a6c:	00400e91 	.word	0x00400e91

00401a70 <xTimerGenericCommand>:
	configASSERT( xTimer );
  401a70:	b1d8      	cbz	r0, 401aaa <xTimerGenericCommand+0x3a>
{
  401a72:	b530      	push	{r4, r5, lr}
  401a74:	b085      	sub	sp, #20
  401a76:	4615      	mov	r5, r2
  401a78:	4604      	mov	r4, r0
	if( xTimerQueue != NULL )
  401a7a:	4a15      	ldr	r2, [pc, #84]	; (401ad0 <xTimerGenericCommand+0x60>)
  401a7c:	6810      	ldr	r0, [r2, #0]
  401a7e:	b320      	cbz	r0, 401aca <xTimerGenericCommand+0x5a>
  401a80:	461a      	mov	r2, r3
		xMessage.xMessageID = xCommandID;
  401a82:	9100      	str	r1, [sp, #0]
		xMessage.u.xTimerParameters.xMessageValue = xOptionalValue;
  401a84:	9501      	str	r5, [sp, #4]
		xMessage.u.xTimerParameters.pxTimer = ( Timer_t * ) xTimer;
  401a86:	9402      	str	r4, [sp, #8]
		if( xCommandID < tmrFIRST_FROM_ISR_COMMAND )
  401a88:	2905      	cmp	r1, #5
  401a8a:	dc19      	bgt.n	401ac0 <xTimerGenericCommand+0x50>
			if( xTaskGetSchedulerState() == taskSCHEDULER_RUNNING )
  401a8c:	4b11      	ldr	r3, [pc, #68]	; (401ad4 <xTimerGenericCommand+0x64>)
  401a8e:	4798      	blx	r3
  401a90:	2802      	cmp	r0, #2
				xReturn = xQueueSendToBack( xTimerQueue, &xMessage, xTicksToWait );
  401a92:	f04f 0300 	mov.w	r3, #0
  401a96:	bf0c      	ite	eq
  401a98:	9a08      	ldreq	r2, [sp, #32]
				xReturn = xQueueSendToBack( xTimerQueue, &xMessage, tmrNO_DELAY );
  401a9a:	461a      	movne	r2, r3
  401a9c:	4669      	mov	r1, sp
  401a9e:	480c      	ldr	r0, [pc, #48]	; (401ad0 <xTimerGenericCommand+0x60>)
  401aa0:	6800      	ldr	r0, [r0, #0]
  401aa2:	4c0d      	ldr	r4, [pc, #52]	; (401ad8 <xTimerGenericCommand+0x68>)
  401aa4:	47a0      	blx	r4
}
  401aa6:	b005      	add	sp, #20
  401aa8:	bd30      	pop	{r4, r5, pc}
  401aaa:	f04f 0380 	mov.w	r3, #128	; 0x80
  401aae:	b672      	cpsid	i
  401ab0:	f383 8811 	msr	BASEPRI, r3
  401ab4:	f3bf 8f6f 	isb	sy
  401ab8:	f3bf 8f4f 	dsb	sy
  401abc:	b662      	cpsie	i
  401abe:	e7fe      	b.n	401abe <xTimerGenericCommand+0x4e>
			xReturn = xQueueSendToBackFromISR( xTimerQueue, &xMessage, pxHigherPriorityTaskWoken );
  401ac0:	2300      	movs	r3, #0
  401ac2:	4669      	mov	r1, sp
  401ac4:	4c05      	ldr	r4, [pc, #20]	; (401adc <xTimerGenericCommand+0x6c>)
  401ac6:	47a0      	blx	r4
  401ac8:	e7ed      	b.n	401aa6 <xTimerGenericCommand+0x36>
BaseType_t xReturn = pdFAIL;
  401aca:	2000      	movs	r0, #0
	return xReturn;
  401acc:	e7eb      	b.n	401aa6 <xTimerGenericCommand+0x36>
  401ace:	bf00      	nop
  401ad0:	2040c330 	.word	0x2040c330
  401ad4:	004017ad 	.word	0x004017ad
  401ad8:	004008cd 	.word	0x004008cd
  401adc:	00400ab1 	.word	0x00400ab1

00401ae0 <prvSampleTimeNow>:
{
  401ae0:	e92d 47f0 	stmdb	sp!, {r4, r5, r6, r7, r8, r9, sl, lr}
  401ae4:	b082      	sub	sp, #8
  401ae6:	4680      	mov	r8, r0
	xTimeNow = xTaskGetTickCount();
  401ae8:	4b24      	ldr	r3, [pc, #144]	; (401b7c <prvSampleTimeNow+0x9c>)
  401aea:	4798      	blx	r3
  401aec:	4607      	mov	r7, r0
	if( xTimeNow < xLastTime )
  401aee:	4b24      	ldr	r3, [pc, #144]	; (401b80 <prvSampleTimeNow+0xa0>)
  401af0:	681b      	ldr	r3, [r3, #0]
  401af2:	4298      	cmp	r0, r3
  401af4:	d31b      	bcc.n	401b2e <prvSampleTimeNow+0x4e>
		*pxTimerListsWereSwitched = pdFALSE;
  401af6:	2300      	movs	r3, #0
  401af8:	f8c8 3000 	str.w	r3, [r8]
	xLastTime = xTimeNow;
  401afc:	4b20      	ldr	r3, [pc, #128]	; (401b80 <prvSampleTimeNow+0xa0>)
  401afe:	601f      	str	r7, [r3, #0]
}
  401b00:	4638      	mov	r0, r7
  401b02:	b002      	add	sp, #8
  401b04:	e8bd 87f0 	ldmia.w	sp!, {r4, r5, r6, r7, r8, r9, sl, pc}
				xResult = xTimerGenericCommand( pxTimer, tmrCOMMAND_START_DONT_TRACE, xNextExpireTime, NULL, tmrNO_DELAY );
  401b08:	2100      	movs	r1, #0
  401b0a:	9100      	str	r1, [sp, #0]
  401b0c:	460b      	mov	r3, r1
  401b0e:	4652      	mov	r2, sl
  401b10:	4620      	mov	r0, r4
  401b12:	4c1c      	ldr	r4, [pc, #112]	; (401b84 <prvSampleTimeNow+0xa4>)
  401b14:	47a0      	blx	r4
				configASSERT( xResult );
  401b16:	b960      	cbnz	r0, 401b32 <prvSampleTimeNow+0x52>
  401b18:	f04f 0380 	mov.w	r3, #128	; 0x80
  401b1c:	b672      	cpsid	i
  401b1e:	f383 8811 	msr	BASEPRI, r3
  401b22:	f3bf 8f6f 	isb	sy
  401b26:	f3bf 8f4f 	dsb	sy
  401b2a:	b662      	cpsie	i
  401b2c:	e7fe      	b.n	401b2c <prvSampleTimeNow+0x4c>
	while( listLIST_IS_EMPTY( pxCurrentTimerList ) == pdFALSE )
  401b2e:	4d16      	ldr	r5, [pc, #88]	; (401b88 <prvSampleTimeNow+0xa8>)
		( void ) uxListRemove( &( pxTimer->xTimerListItem ) );
  401b30:	4e16      	ldr	r6, [pc, #88]	; (401b8c <prvSampleTimeNow+0xac>)
	while( listLIST_IS_EMPTY( pxCurrentTimerList ) == pdFALSE )
  401b32:	682b      	ldr	r3, [r5, #0]
  401b34:	681a      	ldr	r2, [r3, #0]
  401b36:	b1c2      	cbz	r2, 401b6a <prvSampleTimeNow+0x8a>
		xNextExpireTime = listGET_ITEM_VALUE_OF_HEAD_ENTRY( pxCurrentTimerList );
  401b38:	68db      	ldr	r3, [r3, #12]
  401b3a:	f8d3 a000 	ldr.w	sl, [r3]
		pxTimer = ( Timer_t * ) listGET_OWNER_OF_HEAD_ENTRY( pxCurrentTimerList );
  401b3e:	68dc      	ldr	r4, [r3, #12]
		( void ) uxListRemove( &( pxTimer->xTimerListItem ) );
  401b40:	f104 0904 	add.w	r9, r4, #4
  401b44:	4648      	mov	r0, r9
  401b46:	47b0      	blx	r6
		pxTimer->pxCallbackFunction( ( TimerHandle_t ) pxTimer );
  401b48:	6a63      	ldr	r3, [r4, #36]	; 0x24
  401b4a:	4620      	mov	r0, r4
  401b4c:	4798      	blx	r3
		if( pxTimer->uxAutoReload == ( UBaseType_t ) pdTRUE )
  401b4e:	69e3      	ldr	r3, [r4, #28]
  401b50:	2b01      	cmp	r3, #1
  401b52:	d1ee      	bne.n	401b32 <prvSampleTimeNow+0x52>
			xReloadTime = ( xNextExpireTime + pxTimer->xTimerPeriodInTicks );
  401b54:	69a3      	ldr	r3, [r4, #24]
  401b56:	4453      	add	r3, sl
			if( xReloadTime > xNextExpireTime )
  401b58:	459a      	cmp	sl, r3
  401b5a:	d2d5      	bcs.n	401b08 <prvSampleTimeNow+0x28>
				listSET_LIST_ITEM_VALUE( &( pxTimer->xTimerListItem ), xReloadTime );
  401b5c:	6063      	str	r3, [r4, #4]
				listSET_LIST_ITEM_OWNER( &( pxTimer->xTimerListItem ), pxTimer );
  401b5e:	6124      	str	r4, [r4, #16]
				vListInsert( pxCurrentTimerList, &( pxTimer->xTimerListItem ) );
  401b60:	4649      	mov	r1, r9
  401b62:	6828      	ldr	r0, [r5, #0]
  401b64:	4b0a      	ldr	r3, [pc, #40]	; (401b90 <prvSampleTimeNow+0xb0>)
  401b66:	4798      	blx	r3
  401b68:	e7e3      	b.n	401b32 <prvSampleTimeNow+0x52>
	pxCurrentTimerList = pxOverflowTimerList;
  401b6a:	4a0a      	ldr	r2, [pc, #40]	; (401b94 <prvSampleTimeNow+0xb4>)
  401b6c:	6810      	ldr	r0, [r2, #0]
  401b6e:	4906      	ldr	r1, [pc, #24]	; (401b88 <prvSampleTimeNow+0xa8>)
  401b70:	6008      	str	r0, [r1, #0]
	pxOverflowTimerList = pxTemp;
  401b72:	6013      	str	r3, [r2, #0]
		*pxTimerListsWereSwitched = pdTRUE;
  401b74:	2301      	movs	r3, #1
  401b76:	f8c8 3000 	str.w	r3, [r8]
  401b7a:	e7bf      	b.n	401afc <prvSampleTimeNow+0x1c>
  401b7c:	00401161 	.word	0x00401161
  401b80:	2040c32c 	.word	0x2040c32c
  401b84:	00401a71 	.word	0x00401a71
  401b88:	2040c2fc 	.word	0x2040c2fc
  401b8c:	00400215 	.word	0x00400215
  401b90:	004001e1 	.word	0x004001e1
  401b94:	2040c300 	.word	0x2040c300

00401b98 <prvTimerTask>:
{
  401b98:	e92d 47f0 	stmdb	sp!, {r4, r5, r6, r7, r8, r9, sl, lr}
  401b9c:	b088      	sub	sp, #32
	*pxListWasEmpty = listLIST_IS_EMPTY( pxCurrentTimerList );
  401b9e:	4e75      	ldr	r6, [pc, #468]	; (401d74 <prvTimerTask+0x1dc>)
	vTaskSuspendAll();
  401ba0:	4f75      	ldr	r7, [pc, #468]	; (401d78 <prvTimerTask+0x1e0>)
					portYIELD_WITHIN_API();
  401ba2:	f8df 91fc 	ldr.w	r9, [pc, #508]	; 401da0 <prvTimerTask+0x208>
	( void ) uxListRemove( &( pxTimer->xTimerListItem ) );
  401ba6:	f8df 81fc 	ldr.w	r8, [pc, #508]	; 401da4 <prvTimerTask+0x20c>
	*pxListWasEmpty = listLIST_IS_EMPTY( pxCurrentTimerList );
  401baa:	6833      	ldr	r3, [r6, #0]
	if( *pxListWasEmpty == pdFALSE )
  401bac:	681a      	ldr	r2, [r3, #0]
  401bae:	2a00      	cmp	r2, #0
  401bb0:	f000 80ce 	beq.w	401d50 <prvTimerTask+0x1b8>
		xNextExpireTime = listGET_ITEM_VALUE_OF_HEAD_ENTRY( pxCurrentTimerList );
  401bb4:	68db      	ldr	r3, [r3, #12]
  401bb6:	681c      	ldr	r4, [r3, #0]
	vTaskSuspendAll();
  401bb8:	47b8      	blx	r7
		xTimeNow = prvSampleTimeNow( &xTimerListsWereSwitched );
  401bba:	a804      	add	r0, sp, #16
  401bbc:	4b6f      	ldr	r3, [pc, #444]	; (401d7c <prvTimerTask+0x1e4>)
  401bbe:	4798      	blx	r3
  401bc0:	4605      	mov	r5, r0
		if( xTimerListsWereSwitched == pdFALSE )
  401bc2:	9b04      	ldr	r3, [sp, #16]
  401bc4:	2b00      	cmp	r3, #0
  401bc6:	d144      	bne.n	401c52 <prvTimerTask+0xba>
			if( ( xListWasEmpty == pdFALSE ) && ( xNextExpireTime <= xTimeNow ) )
  401bc8:	42a0      	cmp	r0, r4
  401bca:	d212      	bcs.n	401bf2 <prvTimerTask+0x5a>
  401bcc:	2200      	movs	r2, #0
				vQueueWaitForMessageRestricted( xTimerQueue, ( xNextExpireTime - xTimeNow ), xListWasEmpty );
  401bce:	1b61      	subs	r1, r4, r5
  401bd0:	4b6b      	ldr	r3, [pc, #428]	; (401d80 <prvTimerTask+0x1e8>)
  401bd2:	6818      	ldr	r0, [r3, #0]
  401bd4:	4b6b      	ldr	r3, [pc, #428]	; (401d84 <prvTimerTask+0x1ec>)
  401bd6:	4798      	blx	r3
				if( xTaskResumeAll() == pdFALSE )
  401bd8:	4b6b      	ldr	r3, [pc, #428]	; (401d88 <prvTimerTask+0x1f0>)
  401bda:	4798      	blx	r3
  401bdc:	2800      	cmp	r0, #0
  401bde:	d13a      	bne.n	401c56 <prvTimerTask+0xbe>
					portYIELD_WITHIN_API();
  401be0:	f04f 5380 	mov.w	r3, #268435456	; 0x10000000
  401be4:	f8c9 3000 	str.w	r3, [r9]
  401be8:	f3bf 8f4f 	dsb	sy
  401bec:	f3bf 8f6f 	isb	sy
  401bf0:	e031      	b.n	401c56 <prvTimerTask+0xbe>
				( void ) xTaskResumeAll();
  401bf2:	4b65      	ldr	r3, [pc, #404]	; (401d88 <prvTimerTask+0x1f0>)
  401bf4:	4798      	blx	r3
Timer_t * const pxTimer = ( Timer_t * ) listGET_OWNER_OF_HEAD_ENTRY( pxCurrentTimerList );
  401bf6:	6833      	ldr	r3, [r6, #0]
  401bf8:	68db      	ldr	r3, [r3, #12]
  401bfa:	f8d3 a00c 	ldr.w	sl, [r3, #12]
	( void ) uxListRemove( &( pxTimer->xTimerListItem ) );
  401bfe:	f10a 0004 	add.w	r0, sl, #4
  401c02:	47c0      	blx	r8
	if( pxTimer->uxAutoReload == ( UBaseType_t ) pdTRUE )
  401c04:	f8da 301c 	ldr.w	r3, [sl, #28]
  401c08:	2b01      	cmp	r3, #1
  401c0a:	d004      	beq.n	401c16 <prvTimerTask+0x7e>
	pxTimer->pxCallbackFunction( ( TimerHandle_t ) pxTimer );
  401c0c:	f8da 3024 	ldr.w	r3, [sl, #36]	; 0x24
  401c10:	4650      	mov	r0, sl
  401c12:	4798      	blx	r3
  401c14:	e01f      	b.n	401c56 <prvTimerTask+0xbe>
		if( prvInsertTimerInActiveList( pxTimer, ( xNextExpireTime + pxTimer->xTimerPeriodInTicks ), xTimeNow, xNextExpireTime ) == pdTRUE )
  401c16:	f8da 1018 	ldr.w	r1, [sl, #24]
  401c1a:	4623      	mov	r3, r4
  401c1c:	462a      	mov	r2, r5
  401c1e:	4421      	add	r1, r4
  401c20:	4650      	mov	r0, sl
  401c22:	4d5a      	ldr	r5, [pc, #360]	; (401d8c <prvTimerTask+0x1f4>)
  401c24:	47a8      	blx	r5
  401c26:	2801      	cmp	r0, #1
  401c28:	d1f0      	bne.n	401c0c <prvTimerTask+0x74>
			xResult = xTimerGenericCommand( pxTimer, tmrCOMMAND_START_DONT_TRACE, xNextExpireTime, NULL, tmrNO_DELAY );
  401c2a:	2100      	movs	r1, #0
  401c2c:	9100      	str	r1, [sp, #0]
  401c2e:	460b      	mov	r3, r1
  401c30:	4622      	mov	r2, r4
  401c32:	4650      	mov	r0, sl
  401c34:	4c56      	ldr	r4, [pc, #344]	; (401d90 <prvTimerTask+0x1f8>)
  401c36:	47a0      	blx	r4
			configASSERT( xResult );
  401c38:	2800      	cmp	r0, #0
  401c3a:	d1e7      	bne.n	401c0c <prvTimerTask+0x74>
  401c3c:	f04f 0380 	mov.w	r3, #128	; 0x80
  401c40:	b672      	cpsid	i
  401c42:	f383 8811 	msr	BASEPRI, r3
  401c46:	f3bf 8f6f 	isb	sy
  401c4a:	f3bf 8f4f 	dsb	sy
  401c4e:	b662      	cpsie	i
  401c50:	e7fe      	b.n	401c50 <prvTimerTask+0xb8>
			( void ) xTaskResumeAll();
  401c52:	4b4d      	ldr	r3, [pc, #308]	; (401d88 <prvTimerTask+0x1f0>)
  401c54:	4798      	blx	r3
	while( xQueueReceive( xTimerQueue, &xMessage, tmrNO_DELAY ) != pdFAIL ) /*lint !e603 xMessage does not have to be initialised as it is passed out, not in, and it is not used unless xQueueReceive() returns pdTRUE. */
  401c56:	4d4a      	ldr	r5, [pc, #296]	; (401d80 <prvTimerTask+0x1e8>)
  401c58:	4c4e      	ldr	r4, [pc, #312]	; (401d94 <prvTimerTask+0x1fc>)
  401c5a:	e006      	b.n	401c6a <prvTimerTask+0xd2>
				pxCallback->pxCallbackFunction( pxCallback->pvParameter1, pxCallback->ulParameter2 );
  401c5c:	9907      	ldr	r1, [sp, #28]
  401c5e:	9806      	ldr	r0, [sp, #24]
  401c60:	9b05      	ldr	r3, [sp, #20]
  401c62:	4798      	blx	r3
		if( xMessage.xMessageID >= ( BaseType_t ) 0 )
  401c64:	9b04      	ldr	r3, [sp, #16]
  401c66:	2b00      	cmp	r3, #0
  401c68:	da09      	bge.n	401c7e <prvTimerTask+0xe6>
	while( xQueueReceive( xTimerQueue, &xMessage, tmrNO_DELAY ) != pdFAIL ) /*lint !e603 xMessage does not have to be initialised as it is passed out, not in, and it is not used unless xQueueReceive() returns pdTRUE. */
  401c6a:	2300      	movs	r3, #0
  401c6c:	461a      	mov	r2, r3
  401c6e:	a904      	add	r1, sp, #16
  401c70:	6828      	ldr	r0, [r5, #0]
  401c72:	47a0      	blx	r4
  401c74:	2800      	cmp	r0, #0
  401c76:	d098      	beq.n	401baa <prvTimerTask+0x12>
			if( xMessage.xMessageID < ( BaseType_t ) 0 )
  401c78:	9b04      	ldr	r3, [sp, #16]
  401c7a:	2b00      	cmp	r3, #0
  401c7c:	dbee      	blt.n	401c5c <prvTimerTask+0xc4>
			pxTimer = xMessage.u.xTimerParameters.pxTimer;
  401c7e:	f8dd a018 	ldr.w	sl, [sp, #24]
			if( listIS_CONTAINED_WITHIN( NULL, &( pxTimer->xTimerListItem ) ) == pdFALSE )
  401c82:	f8da 3014 	ldr.w	r3, [sl, #20]
  401c86:	b113      	cbz	r3, 401c8e <prvTimerTask+0xf6>
				( void ) uxListRemove( &( pxTimer->xTimerListItem ) );
  401c88:	f10a 0004 	add.w	r0, sl, #4
  401c8c:	47c0      	blx	r8
			xTimeNow = prvSampleTimeNow( &xTimerListsWereSwitched );
  401c8e:	a803      	add	r0, sp, #12
  401c90:	4b3a      	ldr	r3, [pc, #232]	; (401d7c <prvTimerTask+0x1e4>)
  401c92:	4798      	blx	r3
			switch( xMessage.xMessageID )
  401c94:	9b04      	ldr	r3, [sp, #16]
  401c96:	2b09      	cmp	r3, #9
  401c98:	d8e7      	bhi.n	401c6a <prvTimerTask+0xd2>
  401c9a:	a201      	add	r2, pc, #4	; (adr r2, 401ca0 <prvTimerTask+0x108>)
  401c9c:	f852 f023 	ldr.w	pc, [r2, r3, lsl #2]
  401ca0:	00401cc9 	.word	0x00401cc9
  401ca4:	00401cc9 	.word	0x00401cc9
  401ca8:	00401cc9 	.word	0x00401cc9
  401cac:	00401c6b 	.word	0x00401c6b
  401cb0:	00401d1d 	.word	0x00401d1d
  401cb4:	00401d49 	.word	0x00401d49
  401cb8:	00401cc9 	.word	0x00401cc9
  401cbc:	00401cc9 	.word	0x00401cc9
  401cc0:	00401c6b 	.word	0x00401c6b
  401cc4:	00401d1d 	.word	0x00401d1d
					if( prvInsertTimerInActiveList( pxTimer,  xMessage.u.xTimerParameters.xMessageValue + pxTimer->xTimerPeriodInTicks, xTimeNow, xMessage.u.xTimerParameters.xMessageValue ) == pdTRUE )
  401cc8:	9c05      	ldr	r4, [sp, #20]
  401cca:	f8da 1018 	ldr.w	r1, [sl, #24]
  401cce:	4623      	mov	r3, r4
  401cd0:	4602      	mov	r2, r0
  401cd2:	4421      	add	r1, r4
  401cd4:	4650      	mov	r0, sl
  401cd6:	4c2d      	ldr	r4, [pc, #180]	; (401d8c <prvTimerTask+0x1f4>)
  401cd8:	47a0      	blx	r4
  401cda:	2801      	cmp	r0, #1
  401cdc:	d1bc      	bne.n	401c58 <prvTimerTask+0xc0>
						pxTimer->pxCallbackFunction( ( TimerHandle_t ) pxTimer );
  401cde:	f8da 3024 	ldr.w	r3, [sl, #36]	; 0x24
  401ce2:	4650      	mov	r0, sl
  401ce4:	4798      	blx	r3
						if( pxTimer->uxAutoReload == ( UBaseType_t ) pdTRUE )
  401ce6:	f8da 301c 	ldr.w	r3, [sl, #28]
  401cea:	2b01      	cmp	r3, #1
  401cec:	d1b4      	bne.n	401c58 <prvTimerTask+0xc0>
							xResult = xTimerGenericCommand( pxTimer, tmrCOMMAND_START_DONT_TRACE, xMessage.u.xTimerParameters.xMessageValue + pxTimer->xTimerPeriodInTicks, NULL, tmrNO_DELAY );
  401cee:	f8da 2018 	ldr.w	r2, [sl, #24]
  401cf2:	2100      	movs	r1, #0
  401cf4:	9100      	str	r1, [sp, #0]
  401cf6:	460b      	mov	r3, r1
  401cf8:	9805      	ldr	r0, [sp, #20]
  401cfa:	4402      	add	r2, r0
  401cfc:	4650      	mov	r0, sl
  401cfe:	4c24      	ldr	r4, [pc, #144]	; (401d90 <prvTimerTask+0x1f8>)
  401d00:	47a0      	blx	r4
							configASSERT( xResult );
  401d02:	2800      	cmp	r0, #0
  401d04:	d1a8      	bne.n	401c58 <prvTimerTask+0xc0>
  401d06:	f04f 0380 	mov.w	r3, #128	; 0x80
  401d0a:	b672      	cpsid	i
  401d0c:	f383 8811 	msr	BASEPRI, r3
  401d10:	f3bf 8f6f 	isb	sy
  401d14:	f3bf 8f4f 	dsb	sy
  401d18:	b662      	cpsie	i
  401d1a:	e7fe      	b.n	401d1a <prvTimerTask+0x182>
					pxTimer->xTimerPeriodInTicks = xMessage.u.xTimerParameters.xMessageValue;
  401d1c:	9905      	ldr	r1, [sp, #20]
  401d1e:	f8ca 1018 	str.w	r1, [sl, #24]
					configASSERT( ( pxTimer->xTimerPeriodInTicks > 0 ) );
  401d22:	b131      	cbz	r1, 401d32 <prvTimerTask+0x19a>
					( void ) prvInsertTimerInActiveList( pxTimer, ( xTimeNow + pxTimer->xTimerPeriodInTicks ), xTimeNow, xTimeNow );
  401d24:	4603      	mov	r3, r0
  401d26:	4602      	mov	r2, r0
  401d28:	4401      	add	r1, r0
  401d2a:	4650      	mov	r0, sl
  401d2c:	4c17      	ldr	r4, [pc, #92]	; (401d8c <prvTimerTask+0x1f4>)
  401d2e:	47a0      	blx	r4
  401d30:	e792      	b.n	401c58 <prvTimerTask+0xc0>
  401d32:	f04f 0380 	mov.w	r3, #128	; 0x80
  401d36:	b672      	cpsid	i
  401d38:	f383 8811 	msr	BASEPRI, r3
  401d3c:	f3bf 8f6f 	isb	sy
  401d40:	f3bf 8f4f 	dsb	sy
  401d44:	b662      	cpsie	i
  401d46:	e7fe      	b.n	401d46 <prvTimerTask+0x1ae>
					vPortFree( pxTimer );
  401d48:	4650      	mov	r0, sl
  401d4a:	4b13      	ldr	r3, [pc, #76]	; (401d98 <prvTimerTask+0x200>)
  401d4c:	4798      	blx	r3
  401d4e:	e783      	b.n	401c58 <prvTimerTask+0xc0>
	vTaskSuspendAll();
  401d50:	47b8      	blx	r7
		xTimeNow = prvSampleTimeNow( &xTimerListsWereSwitched );
  401d52:	a804      	add	r0, sp, #16
  401d54:	4b09      	ldr	r3, [pc, #36]	; (401d7c <prvTimerTask+0x1e4>)
  401d56:	4798      	blx	r3
  401d58:	4605      	mov	r5, r0
		if( xTimerListsWereSwitched == pdFALSE )
  401d5a:	9b04      	ldr	r3, [sp, #16]
  401d5c:	2b00      	cmp	r3, #0
  401d5e:	f47f af78 	bne.w	401c52 <prvTimerTask+0xba>
					xListWasEmpty = listLIST_IS_EMPTY( pxOverflowTimerList );
  401d62:	4b0e      	ldr	r3, [pc, #56]	; (401d9c <prvTimerTask+0x204>)
  401d64:	681b      	ldr	r3, [r3, #0]
  401d66:	681a      	ldr	r2, [r3, #0]
  401d68:	fab2 f282 	clz	r2, r2
  401d6c:	0952      	lsrs	r2, r2, #5
  401d6e:	2400      	movs	r4, #0
  401d70:	e72d      	b.n	401bce <prvTimerTask+0x36>
  401d72:	bf00      	nop
  401d74:	2040c2fc 	.word	0x2040c2fc
  401d78:	00401151 	.word	0x00401151
  401d7c:	00401ae1 	.word	0x00401ae1
  401d80:	2040c330 	.word	0x2040c330
  401d84:	00400db5 	.word	0x00400db5
  401d88:	004012b9 	.word	0x004012b9
  401d8c:	00401949 	.word	0x00401949
  401d90:	00401a71 	.word	0x00401a71
  401d94:	00400bb1 	.word	0x00400bb1
  401d98:	004005c5 	.word	0x004005c5
  401d9c:	2040c300 	.word	0x2040c300
  401da0:	e000ed04 	.word	0xe000ed04
  401da4:	00400215 	.word	0x00400215

00401da8 <chip_isr>:

static tpfNmBspIsr gpfIsr;

static void chip_isr(uint32_t id, uint32_t mask)
{
	if ((id == CONF_WINC_SPI_INT_PIO_ID) && (mask == CONF_WINC_SPI_INT_MASK)) {
  401da8:	2810      	cmp	r0, #16
  401daa:	d108      	bne.n	401dbe <chip_isr+0x16>
  401dac:	f1b1 5f80 	cmp.w	r1, #268435456	; 0x10000000
  401db0:	d105      	bne.n	401dbe <chip_isr+0x16>
{
  401db2:	b508      	push	{r3, lr}
		if (gpfIsr) {
  401db4:	4b02      	ldr	r3, [pc, #8]	; (401dc0 <chip_isr+0x18>)
  401db6:	681b      	ldr	r3, [r3, #0]
  401db8:	b103      	cbz	r3, 401dbc <chip_isr+0x14>
			gpfIsr();
  401dba:	4798      	blx	r3
  401dbc:	bd08      	pop	{r3, pc}
  401dbe:	4770      	bx	lr
  401dc0:	2040c334 	.word	0x2040c334

00401dc4 <nm_bsp_sleep>:
*	@param[IN]	u32TimeMsec
*				Time in milliseconds
*/
void nm_bsp_sleep(uint32 u32TimeMsec)
{
	while(u32TimeMsec--) {
  401dc4:	b150      	cbz	r0, 401ddc <nm_bsp_sleep+0x18>
{
  401dc6:	b570      	push	{r4, r5, r6, lr}
  401dc8:	1e44      	subs	r4, r0, #1
		delay_ms(4);
  401dca:	4e05      	ldr	r6, [pc, #20]	; (401de0 <nm_bsp_sleep+0x1c>)
  401dcc:	4d05      	ldr	r5, [pc, #20]	; (401de4 <nm_bsp_sleep+0x20>)
  401dce:	4630      	mov	r0, r6
  401dd0:	47a8      	blx	r5
	while(u32TimeMsec--) {
  401dd2:	3c01      	subs	r4, #1
  401dd4:	f1b4 3fff 	cmp.w	r4, #4294967295
  401dd8:	d1f9      	bne.n	401dce <nm_bsp_sleep+0xa>
  401dda:	bd70      	pop	{r4, r5, r6, pc}
  401ddc:	4770      	bx	lr
  401dde:	bf00      	nop
  401de0:	00031635 	.word	0x00031635
  401de4:	20400001 	.word	0x20400001

00401de8 <nm_bsp_reset>:
{
  401de8:	e92d 41f0 	stmdb	sp!, {r4, r5, r6, r7, r8, lr}
	Pio *base = arch_ioport_pin_to_base(pin);

	if (level) {
		base->PIO_SODR = arch_ioport_pin_to_mask(pin);
	} else {
		base->PIO_CODR = arch_ioport_pin_to_mask(pin);
  401dec:	4f09      	ldr	r7, [pc, #36]	; (401e14 <nm_bsp_reset+0x2c>)
  401dee:	f44f 3800 	mov.w	r8, #131072	; 0x20000
  401df2:	f8c7 8034 	str.w	r8, [r7, #52]	; 0x34
  401df6:	4d08      	ldr	r5, [pc, #32]	; (401e18 <nm_bsp_reset+0x30>)
  401df8:	2608      	movs	r6, #8
  401dfa:	636e      	str	r6, [r5, #52]	; 0x34
	nm_bsp_sleep(100);
  401dfc:	2064      	movs	r0, #100	; 0x64
  401dfe:	4c07      	ldr	r4, [pc, #28]	; (401e1c <nm_bsp_reset+0x34>)
  401e00:	47a0      	blx	r4
		base->PIO_SODR = arch_ioport_pin_to_mask(pin);
  401e02:	f8c7 8030 	str.w	r8, [r7, #48]	; 0x30
	nm_bsp_sleep(100);
  401e06:	2064      	movs	r0, #100	; 0x64
  401e08:	47a0      	blx	r4
  401e0a:	632e      	str	r6, [r5, #48]	; 0x30
	nm_bsp_sleep(100);
  401e0c:	2064      	movs	r0, #100	; 0x64
  401e0e:	47a0      	blx	r4
  401e10:	e8bd 81f0 	ldmia.w	sp!, {r4, r5, r6, r7, r8, pc}
  401e14:	400e1200 	.word	0x400e1200
  401e18:	400e1000 	.word	0x400e1000
  401e1c:	00401dc5 	.word	0x00401dc5

00401e20 <nm_bsp_init>:
{
  401e20:	b510      	push	{r4, lr}
	gpfIsr = NULL;
  401e22:	2200      	movs	r2, #0
  401e24:	4b14      	ldr	r3, [pc, #80]	; (401e78 <nm_bsp_init+0x58>)
  401e26:	601a      	str	r2, [r3, #0]
 *
 * \param ul_id Id (number) of the peripheral clock.
 */
static inline void sysclk_enable_peripheral_clock(uint32_t ul_id)
{
	pmc_enable_periph_clk(ul_id);
  401e28:	200a      	movs	r0, #10
  401e2a:	4c14      	ldr	r4, [pc, #80]	; (401e7c <nm_bsp_init+0x5c>)
  401e2c:	47a0      	blx	r4
  401e2e:	200b      	movs	r0, #11
  401e30:	47a0      	blx	r4
  401e32:	200c      	movs	r0, #12
  401e34:	47a0      	blx	r4
  401e36:	2010      	movs	r0, #16
  401e38:	47a0      	blx	r4
  401e3a:	2011      	movs	r0, #17
  401e3c:	47a0      	blx	r4
		base->PIO_OER = arch_ioport_pin_to_mask(pin);
  401e3e:	4b10      	ldr	r3, [pc, #64]	; (401e80 <nm_bsp_init+0x60>)
  401e40:	2208      	movs	r2, #8
  401e42:	611a      	str	r2, [r3, #16]
	base->PIO_OWER = arch_ioport_pin_to_mask(pin);
  401e44:	f8c3 20a0 	str.w	r2, [r3, #160]	; 0xa0
		base->PIO_SODR = arch_ioport_pin_to_mask(pin);
  401e48:	631a      	str	r2, [r3, #48]	; 0x30
		base->PIO_OER = arch_ioport_pin_to_mask(pin);
  401e4a:	4a0e      	ldr	r2, [pc, #56]	; (401e84 <nm_bsp_init+0x64>)
  401e4c:	f44f 3100 	mov.w	r1, #131072	; 0x20000
  401e50:	6111      	str	r1, [r2, #16]
	base->PIO_OWER = arch_ioport_pin_to_mask(pin);
  401e52:	f8c2 10a0 	str.w	r1, [r2, #160]	; 0xa0
		base->PIO_SODR = arch_ioport_pin_to_mask(pin);
  401e56:	6311      	str	r1, [r2, #48]	; 0x30
		base->PIO_OER = arch_ioport_pin_to_mask(pin);
  401e58:	2204      	movs	r2, #4
  401e5a:	611a      	str	r2, [r3, #16]
	base->PIO_OWER = arch_ioport_pin_to_mask(pin);
  401e5c:	f8c3 20a0 	str.w	r2, [r3, #160]	; 0xa0
		base->PIO_SODR = arch_ioport_pin_to_mask(pin);
  401e60:	631a      	str	r2, [r3, #48]	; 0x30
    if (!(SysTick->CTRL & SysTick_CTRL_ENABLE_Msk && SysTick->CTRL & SysTick_CTRL_TICKINT_Msk)) {
  401e62:	4b09      	ldr	r3, [pc, #36]	; (401e88 <nm_bsp_init+0x68>)
  401e64:	681b      	ldr	r3, [r3, #0]
  401e66:	f013 0f01 	tst.w	r3, #1
  401e6a:	d001      	beq.n	401e70 <nm_bsp_init+0x50>
  401e6c:	4b06      	ldr	r3, [pc, #24]	; (401e88 <nm_bsp_init+0x68>)
  401e6e:	681b      	ldr	r3, [r3, #0]
	nm_bsp_reset();
  401e70:	4b06      	ldr	r3, [pc, #24]	; (401e8c <nm_bsp_init+0x6c>)
  401e72:	4798      	blx	r3
}
  401e74:	2000      	movs	r0, #0
  401e76:	bd10      	pop	{r4, pc}
  401e78:	2040c334 	.word	0x2040c334
  401e7c:	00405041 	.word	0x00405041
  401e80:	400e1000 	.word	0x400e1000
  401e84:	400e1200 	.word	0x400e1200
  401e88:	e000e010 	.word	0xe000e010
  401e8c:	00401de9 	.word	0x00401de9

00401e90 <nm_bsp_register_isr>:
*	@brief	Register interrupt service routine
*	@param[IN]	pfIsr
*				Pointer to ISR handler
*/
void nm_bsp_register_isr(tpfNmBspIsr pfIsr)
{
  401e90:	b530      	push	{r4, r5, lr}
  401e92:	b083      	sub	sp, #12
	gpfIsr = pfIsr;
  401e94:	4b14      	ldr	r3, [pc, #80]	; (401ee8 <nm_bsp_register_isr+0x58>)
  401e96:	6018      	str	r0, [r3, #0]

	/* Configure PGIO pin for interrupt from SPI slave, used when slave has data to send. */
	pmc_enable_periph_clk(CONF_WINC_SPI_INT_PIO_ID);
  401e98:	2010      	movs	r0, #16
  401e9a:	4b14      	ldr	r3, [pc, #80]	; (401eec <nm_bsp_register_isr+0x5c>)
  401e9c:	4798      	blx	r3
	pio_configure_pin(CONF_WINC_SPI_INT_PIN, PIO_TYPE_PIO_INPUT);
  401e9e:	f04f 5120 	mov.w	r1, #671088640	; 0x28000000
  401ea2:	207c      	movs	r0, #124	; 0x7c
  401ea4:	4b12      	ldr	r3, [pc, #72]	; (401ef0 <nm_bsp_register_isr+0x60>)
  401ea6:	4798      	blx	r3
	pio_pull_up(CONF_WINC_SPI_INT_PIO, CONF_WINC_SPI_INT_MASK, PIO_PULLUP);
  401ea8:	4c12      	ldr	r4, [pc, #72]	; (401ef4 <nm_bsp_register_isr+0x64>)
  401eaa:	2201      	movs	r2, #1
  401eac:	f04f 5180 	mov.w	r1, #268435456	; 0x10000000
  401eb0:	4620      	mov	r0, r4
  401eb2:	4b11      	ldr	r3, [pc, #68]	; (401ef8 <nm_bsp_register_isr+0x68>)
  401eb4:	4798      	blx	r3
	/*Interrupt on falling edge*/
	pio_handler_set(CONF_WINC_SPI_INT_PIO, CONF_WINC_SPI_INT_PIO_ID,
  401eb6:	4b11      	ldr	r3, [pc, #68]	; (401efc <nm_bsp_register_isr+0x6c>)
  401eb8:	9300      	str	r3, [sp, #0]
  401eba:	2351      	movs	r3, #81	; 0x51
  401ebc:	f04f 5280 	mov.w	r2, #268435456	; 0x10000000
  401ec0:	2110      	movs	r1, #16
  401ec2:	4620      	mov	r0, r4
  401ec4:	4d0e      	ldr	r5, [pc, #56]	; (401f00 <nm_bsp_register_isr+0x70>)
  401ec6:	47a8      	blx	r5
	CONF_WINC_SPI_INT_MASK, PIO_PULLUP | PIO_IT_FALL_EDGE, chip_isr);
	pio_enable_interrupt(CONF_WINC_SPI_INT_PIO, CONF_WINC_SPI_INT_MASK);
  401ec8:	f04f 5180 	mov.w	r1, #268435456	; 0x10000000
  401ecc:	4620      	mov	r0, r4
  401ece:	4b0d      	ldr	r3, [pc, #52]	; (401f04 <nm_bsp_register_isr+0x74>)
  401ed0:	4798      	blx	r3
    \param [in]      IRQn  External interrupt number. Value cannot be negative.
 */
__STATIC_INLINE void NVIC_EnableIRQ(IRQn_Type IRQn)
{
/*  NVIC->ISER[((uint32_t)(IRQn) >> 5)] = (1 << ((uint32_t)(IRQn) & 0x1F));  enable interrupt */
  NVIC->ISER[(uint32_t)((int32_t)IRQn) >> 5] = (uint32_t)(1 << ((uint32_t)((int32_t)IRQn) & (uint32_t)0x1F)); /* enable interrupt */
  401ed2:	f44f 3280 	mov.w	r2, #65536	; 0x10000
  401ed6:	4b0c      	ldr	r3, [pc, #48]	; (401f08 <nm_bsp_register_isr+0x78>)
  401ed8:	601a      	str	r2, [r3, #0]
	NVIC_EnableIRQ((IRQn_Type) CONF_WINC_SPI_INT_PIO_ID);
	pio_handler_set_priority(CONF_WINC_SPI_INT_PIO, (IRQn_Type)CONF_WINC_SPI_INT_PIO_ID,
  401eda:	2200      	movs	r2, #0
  401edc:	2110      	movs	r1, #16
  401ede:	4620      	mov	r0, r4
  401ee0:	4b0a      	ldr	r3, [pc, #40]	; (401f0c <nm_bsp_register_isr+0x7c>)
  401ee2:	4798      	blx	r3
			CONF_WINC_SPI_INT_PRIORITY);
}
  401ee4:	b003      	add	sp, #12
  401ee6:	bd30      	pop	{r4, r5, pc}
  401ee8:	2040c334 	.word	0x2040c334
  401eec:	00405041 	.word	0x00405041
  401ef0:	00404c49 	.word	0x00404c49
  401ef4:	400e1400 	.word	0x400e1400
  401ef8:	00404b0d 	.word	0x00404b0d
  401efc:	00401da9 	.word	0x00401da9
  401f00:	00404dc9 	.word	0x00404dc9
  401f04:	00404c39 	.word	0x00404c39
  401f08:	e000e100 	.word	0xe000e100
  401f0c:	00404e9d 	.word	0x00404e9d

00401f10 <nm_bsp_interrupt_ctrl>:
*	@brief	Enable/Disable interrupts
*	@param[IN]	u8Enable
*				'0' disable interrupts. '1' enable interrupts
*/
void nm_bsp_interrupt_ctrl(uint8 u8Enable)
{
  401f10:	b508      	push	{r3, lr}
	if (u8Enable) {
  401f12:	b928      	cbnz	r0, 401f20 <nm_bsp_interrupt_ctrl+0x10>
		pio_enable_interrupt(CONF_WINC_SPI_INT_PIO, CONF_WINC_SPI_INT_MASK);
	}
	else {
		pio_disable_interrupt(CONF_WINC_SPI_INT_PIO, CONF_WINC_SPI_INT_MASK);
  401f14:	f04f 5180 	mov.w	r1, #268435456	; 0x10000000
  401f18:	4804      	ldr	r0, [pc, #16]	; (401f2c <nm_bsp_interrupt_ctrl+0x1c>)
  401f1a:	4b05      	ldr	r3, [pc, #20]	; (401f30 <nm_bsp_interrupt_ctrl+0x20>)
  401f1c:	4798      	blx	r3
  401f1e:	bd08      	pop	{r3, pc}
		pio_enable_interrupt(CONF_WINC_SPI_INT_PIO, CONF_WINC_SPI_INT_MASK);
  401f20:	f04f 5180 	mov.w	r1, #268435456	; 0x10000000
  401f24:	4801      	ldr	r0, [pc, #4]	; (401f2c <nm_bsp_interrupt_ctrl+0x1c>)
  401f26:	4b03      	ldr	r3, [pc, #12]	; (401f34 <nm_bsp_interrupt_ctrl+0x24>)
  401f28:	4798      	blx	r3
  401f2a:	bd08      	pop	{r3, pc}
  401f2c:	400e1400 	.word	0x400e1400
  401f30:	00404c3d 	.word	0x00404c3d
  401f34:	00404c39 	.word	0x00404c39

00401f38 <nm_bus_init>:
 *	@fn		nm_bus_init
 *	@brief	Initialize the bus wrapper
 *	@return	M2M_SUCCESS in case of success and M2M_ERR_BUS_FAIL in case of failure
 */
sint8 nm_bus_init(void *pvinit)
{
  401f38:	b5f8      	push	{r3, r4, r5, r6, r7, lr}
		base->PIO_PUDR = mask;
  401f3a:	4c39      	ldr	r4, [pc, #228]	; (402020 <nm_bus_init+0xe8>)
  401f3c:	f44f 1180 	mov.w	r1, #1048576	; 0x100000
  401f40:	6621      	str	r1, [r4, #96]	; 0x60
		base->PIO_PPDDR = mask;
  401f42:	f8c4 1090 	str.w	r1, [r4, #144]	; 0x90
		base->PIO_MDDR = mask;
  401f46:	6561      	str	r1, [r4, #84]	; 0x54
		base->PIO_IFDR = mask;
  401f48:	6261      	str	r1, [r4, #36]	; 0x24
		base->PIO_IFSCDR = mask;
  401f4a:	f8c4 1080 	str.w	r1, [r4, #128]	; 0x80
		base->PIO_ABCDSR[0] |= mask;
  401f4e:	6f23      	ldr	r3, [r4, #112]	; 0x70
  401f50:	430b      	orrs	r3, r1
  401f52:	6723      	str	r3, [r4, #112]	; 0x70
		base->PIO_ABCDSR[1] &= ~mask;
  401f54:	6f63      	ldr	r3, [r4, #116]	; 0x74
  401f56:	f423 1380 	bic.w	r3, r3, #1048576	; 0x100000
  401f5a:	6763      	str	r3, [r4, #116]	; 0x74
		base->PIO_PUDR = mask;
  401f5c:	f44f 1200 	mov.w	r2, #2097152	; 0x200000
  401f60:	6622      	str	r2, [r4, #96]	; 0x60
		base->PIO_PPDDR = mask;
  401f62:	f8c4 2090 	str.w	r2, [r4, #144]	; 0x90
		base->PIO_MDDR = mask;
  401f66:	6562      	str	r2, [r4, #84]	; 0x54
		base->PIO_IFDR = mask;
  401f68:	6262      	str	r2, [r4, #36]	; 0x24
		base->PIO_IFSCDR = mask;
  401f6a:	f8c4 2080 	str.w	r2, [r4, #128]	; 0x80
		base->PIO_ABCDSR[0] |= mask;
  401f6e:	6f23      	ldr	r3, [r4, #112]	; 0x70
  401f70:	4313      	orrs	r3, r2
  401f72:	6723      	str	r3, [r4, #112]	; 0x70
		base->PIO_ABCDSR[1] &= ~mask;
  401f74:	6f63      	ldr	r3, [r4, #116]	; 0x74
  401f76:	f423 1300 	bic.w	r3, r3, #2097152	; 0x200000
  401f7a:	6763      	str	r3, [r4, #116]	; 0x74
		base->PIO_PUDR = mask;
  401f7c:	f44f 0380 	mov.w	r3, #4194304	; 0x400000
  401f80:	6623      	str	r3, [r4, #96]	; 0x60
		base->PIO_PPDDR = mask;
  401f82:	f8c4 3090 	str.w	r3, [r4, #144]	; 0x90
		base->PIO_MDDR = mask;
  401f86:	6563      	str	r3, [r4, #84]	; 0x54
		base->PIO_IFDR = mask;
  401f88:	6263      	str	r3, [r4, #36]	; 0x24
		base->PIO_IFSCDR = mask;
  401f8a:	f8c4 3080 	str.w	r3, [r4, #128]	; 0x80
		base->PIO_ABCDSR[0] |= mask;
  401f8e:	6f20      	ldr	r0, [r4, #112]	; 0x70
  401f90:	4318      	orrs	r0, r3
  401f92:	6720      	str	r0, [r4, #112]	; 0x70
		base->PIO_ABCDSR[1] &= ~mask;
  401f94:	6f60      	ldr	r0, [r4, #116]	; 0x74
  401f96:	f420 0080 	bic.w	r0, r0, #4194304	; 0x400000
  401f9a:	6760      	str	r0, [r4, #116]	; 0x74
	arch_ioport_port_to_base(port)->PIO_PDR = mask;
  401f9c:	6061      	str	r1, [r4, #4]
  401f9e:	6062      	str	r2, [r4, #4]
  401fa0:	6063      	str	r3, [r4, #4]
  401fa2:	f04f 7600 	mov.w	r6, #33554432	; 0x2000000
  401fa6:	6066      	str	r6, [r4, #4]
	ioport_disable_pin(CONF_WINC_SPI_MOSI_GPIO);
	ioport_disable_pin(CONF_WINC_SPI_CLK_GPIO);
	ioport_disable_pin(CONF_WINC_SPI_CS_GPIO);
	
	/* disable CS control by peripheral */
	PIOD->PIO_PER = (1<<25);
  401fa8:	6026      	str	r6, [r4, #0]
	PIOD->PIO_OER = (1<<25);
  401faa:	6126      	str	r6, [r4, #16]
	SPI_DEASSERT_CS();
  401fac:	6326      	str	r6, [r4, #48]	; 0x30

	spi_enable_clock(CONF_WINC_SPI);
  401fae:	4d1d      	ldr	r5, [pc, #116]	; (402024 <nm_bus_init+0xec>)
  401fb0:	4628      	mov	r0, r5
  401fb2:	4b1d      	ldr	r3, [pc, #116]	; (402028 <nm_bus_init+0xf0>)
  401fb4:	4798      	blx	r3
 *
 * \param p_spi Pointer to an SPI instance.
 */
static inline void spi_disable(Spi *p_spi)
{
	p_spi->SPI_CR = SPI_CR_SPIDIS;
  401fb6:	2302      	movs	r3, #2
  401fb8:	602b      	str	r3, [r5, #0]
	p_spi->SPI_CR = SPI_CR_SWRST;
  401fba:	2380      	movs	r3, #128	; 0x80
  401fbc:	602b      	str	r3, [r5, #0]
 *
 * \param p_spi Pointer to an SPI instance.
 */
static inline void spi_set_master_mode(Spi *p_spi)
{
	p_spi->SPI_MR |= SPI_MR_MSTR;
  401fbe:	686b      	ldr	r3, [r5, #4]
  401fc0:	f043 0301 	orr.w	r3, r3, #1
  401fc4:	606b      	str	r3, [r5, #4]
 *
 * \param p_spi Pointer to an SPI instance.
 */
static inline void spi_disable_mode_fault_detect(Spi *p_spi)
{
	p_spi->SPI_MR |= SPI_MR_MODFDIS;
  401fc6:	686b      	ldr	r3, [r5, #4]
  401fc8:	f043 0310 	orr.w	r3, r3, #16
  401fcc:	606b      	str	r3, [r5, #4]
	spi_disable(CONF_WINC_SPI);
	spi_reset(CONF_WINC_SPI);
	spi_set_master_mode(CONF_WINC_SPI);
	spi_disable_mode_fault_detect(CONF_WINC_SPI);
	spi_set_peripheral_chip_select_value(CONF_WINC_SPI, CONF_WINC_SPI_NPCS);
  401fce:	2101      	movs	r1, #1
  401fd0:	4628      	mov	r0, r5
  401fd2:	4b16      	ldr	r3, [pc, #88]	; (40202c <nm_bus_init+0xf4>)
  401fd4:	4798      	blx	r3
	spi_set_clock_polarity(CONF_WINC_SPI,
  401fd6:	2200      	movs	r2, #0
  401fd8:	2101      	movs	r1, #1
  401fda:	4628      	mov	r0, r5
  401fdc:	4b14      	ldr	r3, [pc, #80]	; (402030 <nm_bus_init+0xf8>)
  401fde:	4798      	blx	r3
			CONF_WINC_SPI_NPCS, CONF_WINC_SPI_POL);
	spi_set_clock_phase(CONF_WINC_SPI, CONF_WINC_SPI_NPCS, CONF_WINC_SPI_PHA);
  401fe0:	2201      	movs	r2, #1
  401fe2:	4611      	mov	r1, r2
  401fe4:	4628      	mov	r0, r5
  401fe6:	4b13      	ldr	r3, [pc, #76]	; (402034 <nm_bus_init+0xfc>)
  401fe8:	4798      	blx	r3
	spi_set_bits_per_transfer(CONF_WINC_SPI, CONF_WINC_SPI_NPCS, SPI_CSR_BITS_8_BIT);
  401fea:	2200      	movs	r2, #0
  401fec:	2101      	movs	r1, #1
  401fee:	4628      	mov	r0, r5
  401ff0:	4b11      	ldr	r3, [pc, #68]	; (402038 <nm_bus_init+0x100>)
  401ff2:	4798      	blx	r3
	spi_set_baudrate_div(CONF_WINC_SPI, CONF_WINC_SPI_NPCS,
			spi_calc_baudrate_div(CONF_WINC_SPI_CLOCK, sysclk_get_cpu_hz()));
  401ff4:	4911      	ldr	r1, [pc, #68]	; (40203c <nm_bus_init+0x104>)
  401ff6:	4812      	ldr	r0, [pc, #72]	; (402040 <nm_bus_init+0x108>)
  401ff8:	4b12      	ldr	r3, [pc, #72]	; (402044 <nm_bus_init+0x10c>)
  401ffa:	4798      	blx	r3
	spi_set_baudrate_div(CONF_WINC_SPI, CONF_WINC_SPI_NPCS,
  401ffc:	b2c2      	uxtb	r2, r0
  401ffe:	2101      	movs	r1, #1
  402000:	4628      	mov	r0, r5
  402002:	4b11      	ldr	r3, [pc, #68]	; (402048 <nm_bus_init+0x110>)
  402004:	4798      	blx	r3
	spi_set_transfer_delay(CONF_WINC_SPI, CONF_WINC_SPI_NPCS, CONF_WINC_SPI_DLYBS,
