
TC-RTC.elf:     file format elf32-littlearm

Sections:
Idx Name          Size      VMA       LMA       File off  Algn
  0 .text         00002228  00400000  00400000  00010000  2**2
                  CONTENTS, ALLOC, LOAD, READONLY, CODE
  1 .relocate     0000043c  20400000  00402228  00020000  2**3
                  CONTENTS, ALLOC, LOAD, DATA
  2 .bss          000000b8  2040043c  00402664  0002043c  2**2
                  ALLOC
  3 .stack        00002004  204004f4  0040271c  0002043c  2**0
                  ALLOC
  4 .heap         00000200  204024f8  00404720  0002043c  2**0
                  ALLOC
  5 .ARM.attributes 0000002e  00000000  00000000  0002043c  2**0
                  CONTENTS, READONLY
  6 .comment      00000059  00000000  00000000  0002046a  2**0
                  CONTENTS, READONLY
  7 .debug_info   0000d34b  00000000  00000000  000204c3  2**0
                  CONTENTS, READONLY, DEBUGGING
  8 .debug_abbrev 0000189d  00000000  00000000  0002d80e  2**0
                  CONTENTS, READONLY, DEBUGGING
  9 .debug_loc    00004be4  00000000  00000000  0002f0ab  2**0
                  CONTENTS, READONLY, DEBUGGING
 10 .debug_aranges 00000828  00000000  00000000  00033c8f  2**0
                  CONTENTS, READONLY, DEBUGGING
 11 .debug_ranges 00000788  00000000  00000000  000344b7  2**0
                  CONTENTS, READONLY, DEBUGGING
 12 .debug_macro  0001c71e  00000000  00000000  00034c3f  2**0
                  CONTENTS, READONLY, DEBUGGING
 13 .debug_line   00007b8d  00000000  00000000  0005135d  2**0
                  CONTENTS, READONLY, DEBUGGING
 14 .debug_str    00089786  00000000  00000000  00058eea  2**0
                  CONTENTS, READONLY, DEBUGGING
 15 .debug_frame  00002488  00000000  00000000  000e2670  2**2
                  CONTENTS, READONLY, DEBUGGING

Disassembly of section .text:

00400000 <exception_table>:
  400000:	f8 24 40 20 41 14 40 00 f1 14 40 00 f1 14 40 00     .$@ A.@...@...@.
  400010:	f1 14 40 00 f1 14 40 00 f1 14 40 00 00 00 00 00     ..@...@...@.....
	...
  40002c:	f1 14 40 00 f1 14 40 00 00 00 00 00 f1 14 40 00     ..@...@.......@.
  40003c:	f1 14 40 00 f1 14 40 00 f1 14 40 00 61 1a 40 00     ..@...@...@.a.@.
  40004c:	f1 14 40 00 f1 14 40 00 f1 14 40 00 f1 14 40 00     ..@...@...@...@.
  40005c:	f1 14 40 00 f1 14 40 00 00 00 00 00 c1 08 40 00     ..@...@.......@.
  40006c:	d9 08 40 00 f1 08 40 00 f1 14 40 00 f1 14 40 00     ..@...@...@...@.
  40007c:	f1 14 40 00 09 09 40 00 21 09 40 00 f1 14 40 00     ..@...@.!.@...@.
  40008c:	f1 14 40 00 f1 14 40 00 f1 14 40 00 f1 14 40 00     ..@...@...@...@.
  40009c:	95 19 40 00 51 19 40 00 d9 19 40 00 1d 1a 40 00     ..@.Q.@...@...@.
  4000ac:	f1 14 40 00 f1 14 40 00 f1 14 40 00 f1 14 40 00     ..@...@...@...@.
  4000bc:	f1 14 40 00 f1 14 40 00 f1 14 40 00 f1 14 40 00     ..@...@...@...@.
  4000cc:	f1 14 40 00 00 00 00 00 f1 14 40 00 00 00 00 00     ..@.......@.....
  4000dc:	f1 14 40 00 f1 14 40 00 f1 14 40 00 f1 14 40 00     ..@...@...@...@.
  4000ec:	f1 14 40 00 f1 14 40 00 f1 14 40 00 f1 14 40 00     ..@...@...@...@.
  4000fc:	f1 14 40 00 f1 14 40 00 f1 14 40 00 f1 14 40 00     ..@...@...@...@.
  40010c:	f1 14 40 00 f1 14 40 00 00 00 00 00 00 00 00 00     ..@...@.........
  40011c:	00 00 00 00 f1 14 40 00 f1 14 40 00 f1 14 40 00     ......@...@...@.
  40012c:	f1 14 40 00 f1 14 40 00 00 00 00 00 f1 14 40 00     ..@...@.......@.
  40013c:	f1 14 40 00                                         ..@.

00400140 <__do_global_dtors_aux>:
  400140:	b510      	push	{r4, lr}
  400142:	4c05      	ldr	r4, [pc, #20]	; (400158 <__do_global_dtors_aux+0x18>)
  400144:	7823      	ldrb	r3, [r4, #0]
  400146:	b933      	cbnz	r3, 400156 <__do_global_dtors_aux+0x16>
  400148:	4b04      	ldr	r3, [pc, #16]	; (40015c <__do_global_dtors_aux+0x1c>)
  40014a:	b113      	cbz	r3, 400152 <__do_global_dtors_aux+0x12>
  40014c:	4804      	ldr	r0, [pc, #16]	; (400160 <__do_global_dtors_aux+0x20>)
  40014e:	f3af 8000 	nop.w
  400152:	2301      	movs	r3, #1
  400154:	7023      	strb	r3, [r4, #0]
  400156:	bd10      	pop	{r4, pc}
  400158:	2040043c 	.word	0x2040043c
  40015c:	00000000 	.word	0x00000000
  400160:	00402228 	.word	0x00402228

00400164 <frame_dummy>:
  400164:	4b0c      	ldr	r3, [pc, #48]	; (400198 <frame_dummy+0x34>)
  400166:	b143      	cbz	r3, 40017a <frame_dummy+0x16>
  400168:	480c      	ldr	r0, [pc, #48]	; (40019c <frame_dummy+0x38>)
  40016a:	490d      	ldr	r1, [pc, #52]	; (4001a0 <frame_dummy+0x3c>)
  40016c:	b510      	push	{r4, lr}
  40016e:	f3af 8000 	nop.w
  400172:	480c      	ldr	r0, [pc, #48]	; (4001a4 <frame_dummy+0x40>)
  400174:	6803      	ldr	r3, [r0, #0]
  400176:	b923      	cbnz	r3, 400182 <frame_dummy+0x1e>
  400178:	bd10      	pop	{r4, pc}
  40017a:	480a      	ldr	r0, [pc, #40]	; (4001a4 <frame_dummy+0x40>)
  40017c:	6803      	ldr	r3, [r0, #0]
  40017e:	b933      	cbnz	r3, 40018e <frame_dummy+0x2a>
  400180:	4770      	bx	lr
  400182:	4b09      	ldr	r3, [pc, #36]	; (4001a8 <frame_dummy+0x44>)
  400184:	2b00      	cmp	r3, #0
  400186:	d0f7      	beq.n	400178 <frame_dummy+0x14>
  400188:	e8bd 4010 	ldmia.w	sp!, {r4, lr}
  40018c:	4718      	bx	r3
  40018e:	4b06      	ldr	r3, [pc, #24]	; (4001a8 <frame_dummy+0x44>)
  400190:	2b00      	cmp	r3, #0
  400192:	d0f5      	beq.n	400180 <frame_dummy+0x1c>
  400194:	4718      	bx	r3
  400196:	bf00      	nop
  400198:	00000000 	.word	0x00000000
  40019c:	00402228 	.word	0x00402228
  4001a0:	20400440 	.word	0x20400440
  4001a4:	00402228 	.word	0x00402228
  4001a8:	00000000 	.word	0x00000000

004001ac <osc_enable>:
#define OSC_MAINCK_XTAL_HZ      BOARD_FREQ_MAINCK_XTAL    //!< External crystal oscillator.
#define OSC_MAINCK_BYPASS_HZ    BOARD_FREQ_MAINCK_BYPASS  //!< External bypass oscillator.
//@}

static inline void osc_enable(uint32_t ul_id)
{
  4001ac:	b580      	push	{r7, lr}
  4001ae:	b082      	sub	sp, #8
  4001b0:	af00      	add	r7, sp, #0
  4001b2:	6078      	str	r0, [r7, #4]
	switch (ul_id) {
  4001b4:	687b      	ldr	r3, [r7, #4]
  4001b6:	2b07      	cmp	r3, #7
  4001b8:	d831      	bhi.n	40021e <osc_enable+0x72>
  4001ba:	a201      	add	r2, pc, #4	; (adr r2, 4001c0 <osc_enable+0x14>)
  4001bc:	f852 f023 	ldr.w	pc, [r2, r3, lsl #2]
  4001c0:	0040021d 	.word	0x0040021d
  4001c4:	004001e1 	.word	0x004001e1
  4001c8:	004001e9 	.word	0x004001e9
  4001cc:	004001f1 	.word	0x004001f1
  4001d0:	004001f9 	.word	0x004001f9
  4001d4:	00400201 	.word	0x00400201
  4001d8:	00400209 	.word	0x00400209
  4001dc:	00400213 	.word	0x00400213
	case OSC_SLCK_32K_RC:
		break;

	case OSC_SLCK_32K_XTAL:
		pmc_switch_sclk_to_32kxtal(PMC_OSC_XTAL);
  4001e0:	2000      	movs	r0, #0
  4001e2:	4b11      	ldr	r3, [pc, #68]	; (400228 <osc_enable+0x7c>)
  4001e4:	4798      	blx	r3
		break;
  4001e6:	e01a      	b.n	40021e <osc_enable+0x72>

	case OSC_SLCK_32K_BYPASS:
		pmc_switch_sclk_to_32kxtal(PMC_OSC_BYPASS);
  4001e8:	2001      	movs	r0, #1
  4001ea:	4b0f      	ldr	r3, [pc, #60]	; (400228 <osc_enable+0x7c>)
  4001ec:	4798      	blx	r3
		break;
  4001ee:	e016      	b.n	40021e <osc_enable+0x72>


	case OSC_MAINCK_4M_RC:
		pmc_switch_mainck_to_fastrc(CKGR_MOR_MOSCRCF_4_MHz);
  4001f0:	2000      	movs	r0, #0
  4001f2:	4b0e      	ldr	r3, [pc, #56]	; (40022c <osc_enable+0x80>)
  4001f4:	4798      	blx	r3
		break;
  4001f6:	e012      	b.n	40021e <osc_enable+0x72>

	case OSC_MAINCK_8M_RC:
		pmc_switch_mainck_to_fastrc(CKGR_MOR_MOSCRCF_8_MHz);
  4001f8:	2010      	movs	r0, #16
  4001fa:	4b0c      	ldr	r3, [pc, #48]	; (40022c <osc_enable+0x80>)
  4001fc:	4798      	blx	r3
		break;
  4001fe:	e00e      	b.n	40021e <osc_enable+0x72>

	case OSC_MAINCK_12M_RC:
		pmc_switch_mainck_to_fastrc(CKGR_MOR_MOSCRCF_12_MHz);
  400200:	2020      	movs	r0, #32
  400202:	4b0a      	ldr	r3, [pc, #40]	; (40022c <osc_enable+0x80>)
  400204:	4798      	blx	r3
		break;
  400206:	e00a      	b.n	40021e <osc_enable+0x72>


	case OSC_MAINCK_XTAL:
		pmc_switch_mainck_to_xtal(PMC_OSC_XTAL,
  400208:	213e      	movs	r1, #62	; 0x3e
  40020a:	2000      	movs	r0, #0
  40020c:	4b08      	ldr	r3, [pc, #32]	; (400230 <osc_enable+0x84>)
  40020e:	4798      	blx	r3
			pmc_us_to_moscxtst(BOARD_OSC_STARTUP_US,
				OSC_SLCK_32K_RC_HZ));
		break;
  400210:	e005      	b.n	40021e <osc_enable+0x72>

	case OSC_MAINCK_BYPASS:
		pmc_switch_mainck_to_xtal(PMC_OSC_BYPASS,
  400212:	213e      	movs	r1, #62	; 0x3e
  400214:	2001      	movs	r0, #1
  400216:	4b06      	ldr	r3, [pc, #24]	; (400230 <osc_enable+0x84>)
  400218:	4798      	blx	r3
			pmc_us_to_moscxtst(BOARD_OSC_STARTUP_US,
				OSC_SLCK_32K_RC_HZ));
		break;
  40021a:	e000      	b.n	40021e <osc_enable+0x72>
		break;
  40021c:	bf00      	nop
	}
}
  40021e:	bf00      	nop
  400220:	3708      	adds	r7, #8
  400222:	46bd      	mov	sp, r7
  400224:	bd80      	pop	{r7, pc}
  400226:	bf00      	nop
  400228:	00400a39 	.word	0x00400a39
  40022c:	00400aa5 	.word	0x00400aa5
  400230:	00400b15 	.word	0x00400b15

00400234 <osc_is_ready>:
		break;
	}
}

static inline bool osc_is_ready(uint32_t ul_id)
{
  400234:	b580      	push	{r7, lr}
  400236:	b082      	sub	sp, #8
  400238:	af00      	add	r7, sp, #0
  40023a:	6078      	str	r0, [r7, #4]
	switch (ul_id) {
  40023c:	687b      	ldr	r3, [r7, #4]
  40023e:	2b07      	cmp	r3, #7
  400240:	d826      	bhi.n	400290 <osc_is_ready+0x5c>
  400242:	a201      	add	r2, pc, #4	; (adr r2, 400248 <osc_is_ready+0x14>)
  400244:	f852 f023 	ldr.w	pc, [r2, r3, lsl #2]
  400248:	00400269 	.word	0x00400269
  40024c:	0040026d 	.word	0x0040026d
  400250:	0040026d 	.word	0x0040026d
  400254:	0040027f 	.word	0x0040027f
  400258:	0040027f 	.word	0x0040027f
  40025c:	0040027f 	.word	0x0040027f
  400260:	0040027f 	.word	0x0040027f
  400264:	0040027f 	.word	0x0040027f
	case OSC_SLCK_32K_RC:
		return 1;
  400268:	2301      	movs	r3, #1
  40026a:	e012      	b.n	400292 <osc_is_ready+0x5e>

	case OSC_SLCK_32K_XTAL:
	case OSC_SLCK_32K_BYPASS:
		return pmc_osc_is_ready_32kxtal();
  40026c:	4b0b      	ldr	r3, [pc, #44]	; (40029c <osc_is_ready+0x68>)
  40026e:	4798      	blx	r3
  400270:	4603      	mov	r3, r0
  400272:	2b00      	cmp	r3, #0
  400274:	bf14      	ite	ne
  400276:	2301      	movne	r3, #1
  400278:	2300      	moveq	r3, #0
  40027a:	b2db      	uxtb	r3, r3
  40027c:	e009      	b.n	400292 <osc_is_ready+0x5e>
	case OSC_MAINCK_4M_RC:
	case OSC_MAINCK_8M_RC:
	case OSC_MAINCK_12M_RC:
	case OSC_MAINCK_XTAL:
	case OSC_MAINCK_BYPASS:
		return pmc_osc_is_ready_mainck();
  40027e:	4b08      	ldr	r3, [pc, #32]	; (4002a0 <osc_is_ready+0x6c>)
  400280:	4798      	blx	r3
  400282:	4603      	mov	r3, r0
  400284:	2b00      	cmp	r3, #0
  400286:	bf14      	ite	ne
  400288:	2301      	movne	r3, #1
  40028a:	2300      	moveq	r3, #0
  40028c:	b2db      	uxtb	r3, r3
  40028e:	e000      	b.n	400292 <osc_is_ready+0x5e>
	}

	return 0;
  400290:	2300      	movs	r3, #0
}
  400292:	4618      	mov	r0, r3
  400294:	3708      	adds	r7, #8
  400296:	46bd      	mov	sp, r7
  400298:	bd80      	pop	{r7, pc}
  40029a:	bf00      	nop
  40029c:	00400a71 	.word	0x00400a71
  4002a0:	00400b8d 	.word	0x00400b8d

004002a4 <osc_get_rate>:

static inline uint32_t osc_get_rate(uint32_t ul_id)
{
  4002a4:	b480      	push	{r7}
  4002a6:	b083      	sub	sp, #12
  4002a8:	af00      	add	r7, sp, #0
  4002aa:	6078      	str	r0, [r7, #4]
	switch (ul_id) {
  4002ac:	687b      	ldr	r3, [r7, #4]
  4002ae:	2b07      	cmp	r3, #7
  4002b0:	d825      	bhi.n	4002fe <osc_get_rate+0x5a>
  4002b2:	a201      	add	r2, pc, #4	; (adr r2, 4002b8 <osc_get_rate+0x14>)
  4002b4:	f852 f023 	ldr.w	pc, [r2, r3, lsl #2]
  4002b8:	004002d9 	.word	0x004002d9
  4002bc:	004002df 	.word	0x004002df
  4002c0:	004002e5 	.word	0x004002e5
  4002c4:	004002eb 	.word	0x004002eb
  4002c8:	004002ef 	.word	0x004002ef
  4002cc:	004002f3 	.word	0x004002f3
  4002d0:	004002f7 	.word	0x004002f7
  4002d4:	004002fb 	.word	0x004002fb
	case OSC_SLCK_32K_RC:
		return OSC_SLCK_32K_RC_HZ;
  4002d8:	f44f 43fa 	mov.w	r3, #32000	; 0x7d00
  4002dc:	e010      	b.n	400300 <osc_get_rate+0x5c>

	case OSC_SLCK_32K_XTAL:
		return BOARD_FREQ_SLCK_XTAL;
  4002de:	f44f 4300 	mov.w	r3, #32768	; 0x8000
  4002e2:	e00d      	b.n	400300 <osc_get_rate+0x5c>

	case OSC_SLCK_32K_BYPASS:
		return BOARD_FREQ_SLCK_BYPASS;
  4002e4:	f44f 4300 	mov.w	r3, #32768	; 0x8000
  4002e8:	e00a      	b.n	400300 <osc_get_rate+0x5c>

	case OSC_MAINCK_4M_RC:
		return OSC_MAINCK_4M_RC_HZ;
  4002ea:	4b08      	ldr	r3, [pc, #32]	; (40030c <osc_get_rate+0x68>)
  4002ec:	e008      	b.n	400300 <osc_get_rate+0x5c>

	case OSC_MAINCK_8M_RC:
		return OSC_MAINCK_8M_RC_HZ;
  4002ee:	4b08      	ldr	r3, [pc, #32]	; (400310 <osc_get_rate+0x6c>)
  4002f0:	e006      	b.n	400300 <osc_get_rate+0x5c>

	case OSC_MAINCK_12M_RC:
		return OSC_MAINCK_12M_RC_HZ;
  4002f2:	4b08      	ldr	r3, [pc, #32]	; (400314 <osc_get_rate+0x70>)
  4002f4:	e004      	b.n	400300 <osc_get_rate+0x5c>

	case OSC_MAINCK_XTAL:
		return BOARD_FREQ_MAINCK_XTAL;
  4002f6:	4b07      	ldr	r3, [pc, #28]	; (400314 <osc_get_rate+0x70>)
  4002f8:	e002      	b.n	400300 <osc_get_rate+0x5c>

	case OSC_MAINCK_BYPASS:
		return BOARD_FREQ_MAINCK_BYPASS;
  4002fa:	4b06      	ldr	r3, [pc, #24]	; (400314 <osc_get_rate+0x70>)
  4002fc:	e000      	b.n	400300 <osc_get_rate+0x5c>
	}

	return 0;
  4002fe:	2300      	movs	r3, #0
}
  400300:	4618      	mov	r0, r3
  400302:	370c      	adds	r7, #12
  400304:	46bd      	mov	sp, r7
  400306:	f85d 7b04 	ldr.w	r7, [sp], #4
  40030a:	4770      	bx	lr
  40030c:	003d0900 	.word	0x003d0900
  400310:	007a1200 	.word	0x007a1200
  400314:	00b71b00 	.word	0x00b71b00

00400318 <osc_wait_ready>:
 * to become stable and ready to use as a clock source.
 *
 * \param id A number identifying the oscillator to wait for.
 */
static inline void osc_wait_ready(uint8_t id)
{
  400318:	b580      	push	{r7, lr}
  40031a:	b082      	sub	sp, #8
  40031c:	af00      	add	r7, sp, #0
  40031e:	4603      	mov	r3, r0
  400320:	71fb      	strb	r3, [r7, #7]
	while (!osc_is_ready(id)) {
  400322:	bf00      	nop
  400324:	79fb      	ldrb	r3, [r7, #7]
  400326:	4618      	mov	r0, r3
  400328:	4b05      	ldr	r3, [pc, #20]	; (400340 <osc_wait_ready+0x28>)
  40032a:	4798      	blx	r3
  40032c:	4603      	mov	r3, r0
  40032e:	f083 0301 	eor.w	r3, r3, #1
  400332:	b2db      	uxtb	r3, r3
  400334:	2b00      	cmp	r3, #0
  400336:	d1f5      	bne.n	400324 <osc_wait_ready+0xc>
		/* Do nothing */
	}
}
  400338:	bf00      	nop
  40033a:	3708      	adds	r7, #8
  40033c:	46bd      	mov	sp, r7
  40033e:	bd80      	pop	{r7, pc}
  400340:	00400235 	.word	0x00400235

00400344 <pll_config_init>:
 * hardware mul+1 is hidden in this implementation. Use mul as mul effective
 * value.
 */
static inline void pll_config_init(struct pll_config *p_cfg,
		enum pll_source e_src, uint32_t ul_div, uint32_t ul_mul)
{
  400344:	b580      	push	{r7, lr}
  400346:	b086      	sub	sp, #24
  400348:	af00      	add	r7, sp, #0
  40034a:	60f8      	str	r0, [r7, #12]
  40034c:	607a      	str	r2, [r7, #4]
  40034e:	603b      	str	r3, [r7, #0]
  400350:	460b      	mov	r3, r1
  400352:	72fb      	strb	r3, [r7, #11]
	uint32_t vco_hz;

	Assert(e_src < PLL_NR_SOURCES);

	if (ul_div == 0 && ul_mul == 0) { /* Must only be true for UTMI PLL */
  400354:	687b      	ldr	r3, [r7, #4]
  400356:	2b00      	cmp	r3, #0
  400358:	d107      	bne.n	40036a <pll_config_init+0x26>
  40035a:	683b      	ldr	r3, [r7, #0]
  40035c:	2b00      	cmp	r3, #0
  40035e:	d104      	bne.n	40036a <pll_config_init+0x26>
		p_cfg->ctrl = CKGR_UCKR_UPLLCOUNT(PLL_COUNT);
  400360:	68fb      	ldr	r3, [r7, #12]
  400362:	f44f 0270 	mov.w	r2, #15728640	; 0xf00000
  400366:	601a      	str	r2, [r3, #0]
  400368:	e019      	b.n	40039e <pll_config_init+0x5a>
	} else { /* PLLA */
	/* Calculate internal VCO frequency */
	vco_hz = osc_get_rate(e_src) / ul_div;
  40036a:	7afb      	ldrb	r3, [r7, #11]
  40036c:	4618      	mov	r0, r3
  40036e:	4b0e      	ldr	r3, [pc, #56]	; (4003a8 <pll_config_init+0x64>)
  400370:	4798      	blx	r3
  400372:	4602      	mov	r2, r0
  400374:	687b      	ldr	r3, [r7, #4]
  400376:	fbb2 f3f3 	udiv	r3, r2, r3
  40037a:	617b      	str	r3, [r7, #20]
	Assert(vco_hz >= PLL_INPUT_MIN_HZ);
	Assert(vco_hz <= PLL_INPUT_MAX_HZ);

	vco_hz *= ul_mul;
  40037c:	697b      	ldr	r3, [r7, #20]
  40037e:	683a      	ldr	r2, [r7, #0]
  400380:	fb02 f303 	mul.w	r3, r2, r3
  400384:	617b      	str	r3, [r7, #20]
	Assert(vco_hz >= PLL_OUTPUT_MIN_HZ);
	Assert(vco_hz <= PLL_OUTPUT_MAX_HZ);

	/* PMC hardware will automatically make it mul+1 */
		p_cfg->ctrl = CKGR_PLLAR_MULA(ul_mul - 1) | CKGR_PLLAR_DIVA(ul_div)  \
  400386:	683b      	ldr	r3, [r7, #0]
  400388:	3b01      	subs	r3, #1
  40038a:	041a      	lsls	r2, r3, #16
  40038c:	4b07      	ldr	r3, [pc, #28]	; (4003ac <pll_config_init+0x68>)
  40038e:	4013      	ands	r3, r2
  400390:	687a      	ldr	r2, [r7, #4]
  400392:	b2d2      	uxtb	r2, r2
  400394:	4313      	orrs	r3, r2
		| CKGR_PLLAR_PLLACOUNT(PLL_COUNT);
  400396:	f443 527c 	orr.w	r2, r3, #16128	; 0x3f00
		p_cfg->ctrl = CKGR_PLLAR_MULA(ul_mul - 1) | CKGR_PLLAR_DIVA(ul_div)  \
  40039a:	68fb      	ldr	r3, [r7, #12]
  40039c:	601a      	str	r2, [r3, #0]
	}
}
  40039e:	bf00      	nop
  4003a0:	3718      	adds	r7, #24
  4003a2:	46bd      	mov	sp, r7
  4003a4:	bd80      	pop	{r7, pc}
  4003a6:	bf00      	nop
  4003a8:	004002a5 	.word	0x004002a5
  4003ac:	07ff0000 	.word	0x07ff0000

004003b0 <pll_enable>:
		PMC->CKGR_UCKR = p_cfg->ctrl;
	}
}

static inline void pll_enable(const struct pll_config *p_cfg, uint32_t ul_pll_id)
{
  4003b0:	b580      	push	{r7, lr}
  4003b2:	b082      	sub	sp, #8
  4003b4:	af00      	add	r7, sp, #0
  4003b6:	6078      	str	r0, [r7, #4]
  4003b8:	6039      	str	r1, [r7, #0]
	Assert(ul_pll_id < NR_PLLS);

	if (ul_pll_id == PLLA_ID) {
  4003ba:	683b      	ldr	r3, [r7, #0]
  4003bc:	2b00      	cmp	r3, #0
  4003be:	d108      	bne.n	4003d2 <pll_enable+0x22>
		pmc_disable_pllack(); // Always stop PLL first!
  4003c0:	4b09      	ldr	r3, [pc, #36]	; (4003e8 <pll_enable+0x38>)
  4003c2:	4798      	blx	r3
		PMC->CKGR_PLLAR = CKGR_PLLAR_ONE | p_cfg->ctrl;
  4003c4:	4a09      	ldr	r2, [pc, #36]	; (4003ec <pll_enable+0x3c>)
  4003c6:	687b      	ldr	r3, [r7, #4]
  4003c8:	681b      	ldr	r3, [r3, #0]
  4003ca:	f043 5300 	orr.w	r3, r3, #536870912	; 0x20000000
  4003ce:	6293      	str	r3, [r2, #40]	; 0x28
	} else {
		PMC->CKGR_UCKR = p_cfg->ctrl | CKGR_UCKR_UPLLEN;
	}
}
  4003d0:	e005      	b.n	4003de <pll_enable+0x2e>
		PMC->CKGR_UCKR = p_cfg->ctrl | CKGR_UCKR_UPLLEN;
  4003d2:	4a06      	ldr	r2, [pc, #24]	; (4003ec <pll_enable+0x3c>)
  4003d4:	687b      	ldr	r3, [r7, #4]
  4003d6:	681b      	ldr	r3, [r3, #0]
  4003d8:	f443 3380 	orr.w	r3, r3, #65536	; 0x10000
  4003dc:	61d3      	str	r3, [r2, #28]
}
  4003de:	bf00      	nop
  4003e0:	3708      	adds	r7, #8
  4003e2:	46bd      	mov	sp, r7
  4003e4:	bd80      	pop	{r7, pc}
  4003e6:	bf00      	nop
  4003e8:	00400ba9 	.word	0x00400ba9
  4003ec:	400e0600 	.word	0x400e0600

004003f0 <pll_is_locked>:
		PMC->CKGR_UCKR &= ~CKGR_UCKR_UPLLEN;
	}
}

static inline uint32_t pll_is_locked(uint32_t ul_pll_id)
{
  4003f0:	b580      	push	{r7, lr}
  4003f2:	b082      	sub	sp, #8
  4003f4:	af00      	add	r7, sp, #0
  4003f6:	6078      	str	r0, [r7, #4]
	Assert(ul_pll_id < NR_PLLS);

	if (ul_pll_id == PLLA_ID) {
  4003f8:	687b      	ldr	r3, [r7, #4]
  4003fa:	2b00      	cmp	r3, #0
  4003fc:	d103      	bne.n	400406 <pll_is_locked+0x16>
	return pmc_is_locked_pllack();
  4003fe:	4b05      	ldr	r3, [pc, #20]	; (400414 <pll_is_locked+0x24>)
  400400:	4798      	blx	r3
  400402:	4603      	mov	r3, r0
  400404:	e002      	b.n	40040c <pll_is_locked+0x1c>
	} else {
		return pmc_is_locked_upll();
  400406:	4b04      	ldr	r3, [pc, #16]	; (400418 <pll_is_locked+0x28>)
  400408:	4798      	blx	r3
  40040a:	4603      	mov	r3, r0
	}
}
  40040c:	4618      	mov	r0, r3
  40040e:	3708      	adds	r7, #8
  400410:	46bd      	mov	sp, r7
  400412:	bd80      	pop	{r7, pc}
  400414:	00400bc5 	.word	0x00400bc5
  400418:	00400be1 	.word	0x00400be1

0040041c <pll_enable_source>:

static inline void pll_enable_source(enum pll_source e_src)
{
  40041c:	b580      	push	{r7, lr}
  40041e:	b082      	sub	sp, #8
  400420:	af00      	add	r7, sp, #0
  400422:	4603      	mov	r3, r0
  400424:	71fb      	strb	r3, [r7, #7]
	switch (e_src) {
  400426:	79fb      	ldrb	r3, [r7, #7]
  400428:	3b03      	subs	r3, #3
  40042a:	2b04      	cmp	r3, #4
  40042c:	d808      	bhi.n	400440 <pll_enable_source+0x24>
	case PLL_SRC_MAINCK_4M_RC:
	case PLL_SRC_MAINCK_8M_RC:
	case PLL_SRC_MAINCK_12M_RC:
	case PLL_SRC_MAINCK_XTAL:
	case PLL_SRC_MAINCK_BYPASS:
		osc_enable(e_src);
  40042e:	79fb      	ldrb	r3, [r7, #7]
  400430:	4618      	mov	r0, r3
  400432:	4b06      	ldr	r3, [pc, #24]	; (40044c <pll_enable_source+0x30>)
  400434:	4798      	blx	r3
		osc_wait_ready(e_src);
  400436:	79fb      	ldrb	r3, [r7, #7]
  400438:	4618      	mov	r0, r3
  40043a:	4b05      	ldr	r3, [pc, #20]	; (400450 <pll_enable_source+0x34>)
  40043c:	4798      	blx	r3
		break;
  40043e:	e000      	b.n	400442 <pll_enable_source+0x26>

	default:
		Assert(false);
		break;
  400440:	bf00      	nop
	}
}
  400442:	bf00      	nop
  400444:	3708      	adds	r7, #8
  400446:	46bd      	mov	sp, r7
  400448:	bd80      	pop	{r7, pc}
  40044a:	bf00      	nop
  40044c:	004001ad 	.word	0x004001ad
  400450:	00400319 	.word	0x00400319

00400454 <pll_wait_for_lock>:
 *
 * \retval STATUS_OK The PLL is now locked.
 * \retval ERR_TIMEOUT Timed out waiting for PLL to become locked.
 */
static inline int pll_wait_for_lock(unsigned int pll_id)
{
  400454:	b580      	push	{r7, lr}
  400456:	b082      	sub	sp, #8
  400458:	af00      	add	r7, sp, #0
  40045a:	6078      	str	r0, [r7, #4]
	Assert(pll_id < NR_PLLS);

	while (!pll_is_locked(pll_id)) {
  40045c:	bf00      	nop
  40045e:	6878      	ldr	r0, [r7, #4]
  400460:	4b04      	ldr	r3, [pc, #16]	; (400474 <pll_wait_for_lock+0x20>)
  400462:	4798      	blx	r3
  400464:	4603      	mov	r3, r0
  400466:	2b00      	cmp	r3, #0
  400468:	d0f9      	beq.n	40045e <pll_wait_for_lock+0xa>
		/* Do nothing */
	}

	return 0;
  40046a:	2300      	movs	r3, #0
}
  40046c:	4618      	mov	r0, r3
  40046e:	3708      	adds	r7, #8
  400470:	46bd      	mov	sp, r7
  400472:	bd80      	pop	{r7, pc}
  400474:	004003f1 	.word	0x004003f1

00400478 <sysclk_get_main_hz>:
 */
#if (defined CONFIG_SYSCLK_DEFAULT_RETURNS_SLOW_OSC)
extern uint32_t sysclk_initialized;
#endif
static inline uint32_t sysclk_get_main_hz(void)
{
  400478:	b580      	push	{r7, lr}
  40047a:	af00      	add	r7, sp, #0
	} else if (CONFIG_SYSCLK_SOURCE == SYSCLK_SRC_MAINCK_BYPASS) {
		return OSC_MAINCK_BYPASS_HZ;
	}
#ifdef CONFIG_PLL0_SOURCE
	else if (CONFIG_SYSCLK_SOURCE == SYSCLK_SRC_PLLACK) {
		return pll_get_default_rate(0);
  40047c:	2006      	movs	r0, #6
  40047e:	4b05      	ldr	r3, [pc, #20]	; (400494 <sysclk_get_main_hz+0x1c>)
  400480:	4798      	blx	r3
  400482:	4602      	mov	r2, r0
  400484:	4613      	mov	r3, r2
  400486:	009b      	lsls	r3, r3, #2
  400488:	4413      	add	r3, r2
  40048a:	009a      	lsls	r2, r3, #2
  40048c:	4413      	add	r3, r2
#endif
	else {
		/* unhandled_case(CONFIG_SYSCLK_SOURCE); */
		return 0;
	}
}
  40048e:	4618      	mov	r0, r3
  400490:	bd80      	pop	{r7, pc}
  400492:	bf00      	nop
  400494:	004002a5 	.word	0x004002a5

00400498 <sysclk_get_cpu_hz>:
 * clocks.
 *
 * \return Frequency of the CPU clock, in Hz.
 */
static inline uint32_t sysclk_get_cpu_hz(void)
{
  400498:	b580      	push	{r7, lr}
  40049a:	af00      	add	r7, sp, #0
	/* CONFIG_SYSCLK_PRES is the register value for setting the expected */
	/* prescaler, not an immediate value. */
	return sysclk_get_main_hz() /
  40049c:	4b02      	ldr	r3, [pc, #8]	; (4004a8 <sysclk_get_cpu_hz+0x10>)
  40049e:	4798      	blx	r3
  4004a0:	4603      	mov	r3, r0
		((CONFIG_SYSCLK_PRES == SYSCLK_PRES_3) ? 3 :
			(1 << (CONFIG_SYSCLK_PRES >> PMC_MCKR_PRES_Pos)));
}
  4004a2:	4618      	mov	r0, r3
  4004a4:	bd80      	pop	{r7, pc}
  4004a6:	bf00      	nop
  4004a8:	00400479 	.word	0x00400479

004004ac <sysclk_init>:
	pmc_disable_udpck();
}
#endif // CONFIG_USBCLK_SOURCE

void sysclk_init(void)
{
  4004ac:	b590      	push	{r4, r7, lr}
  4004ae:	b083      	sub	sp, #12
  4004b0:	af00      	add	r7, sp, #0
	struct pll_config pllcfg;

	/* Set flash wait state to max in case the below clock switching. */
	system_init_flash(CHIP_FREQ_CPU_MAX);
  4004b2:	4813      	ldr	r0, [pc, #76]	; (400500 <sysclk_init+0x54>)
  4004b4:	4b13      	ldr	r3, [pc, #76]	; (400504 <sysclk_init+0x58>)
  4004b6:	4798      	blx	r3
		pmc_switch_mck_to_mainck(CONFIG_SYSCLK_PRES);
	}

#ifdef CONFIG_PLL0_SOURCE
	else if (CONFIG_SYSCLK_SOURCE == SYSCLK_SRC_PLLACK) {
		pll_enable_source(CONFIG_PLL0_SOURCE);
  4004b8:	2006      	movs	r0, #6
  4004ba:	4b13      	ldr	r3, [pc, #76]	; (400508 <sysclk_init+0x5c>)
  4004bc:	4798      	blx	r3
		pll_config_defaults(&pllcfg, 0);
  4004be:	1d38      	adds	r0, r7, #4
  4004c0:	2319      	movs	r3, #25
  4004c2:	2201      	movs	r2, #1
  4004c4:	2106      	movs	r1, #6
  4004c6:	4c11      	ldr	r4, [pc, #68]	; (40050c <sysclk_init+0x60>)
  4004c8:	47a0      	blx	r4
		pll_enable(&pllcfg, 0);
  4004ca:	1d3b      	adds	r3, r7, #4
  4004cc:	2100      	movs	r1, #0
  4004ce:	4618      	mov	r0, r3
  4004d0:	4b0f      	ldr	r3, [pc, #60]	; (400510 <sysclk_init+0x64>)
  4004d2:	4798      	blx	r3
		pll_wait_for_lock(0);
  4004d4:	2000      	movs	r0, #0
  4004d6:	4b0f      	ldr	r3, [pc, #60]	; (400514 <sysclk_init+0x68>)
  4004d8:	4798      	blx	r3
		pmc_mck_set_division(CONFIG_SYSCLK_DIV);
  4004da:	2002      	movs	r0, #2
  4004dc:	4b0e      	ldr	r3, [pc, #56]	; (400518 <sysclk_init+0x6c>)
  4004de:	4798      	blx	r3
		pmc_switch_mck_to_pllack(CONFIG_SYSCLK_PRES);
  4004e0:	2000      	movs	r0, #0
  4004e2:	4b0e      	ldr	r3, [pc, #56]	; (40051c <sysclk_init+0x70>)
  4004e4:	4798      	blx	r3
		pll_wait_for_lock(1);
		pmc_mck_set_division(CONFIG_SYSCLK_DIV);
		pmc_switch_mck_to_upllck(CONFIG_SYSCLK_PRES);
	}
	/* Update the SystemFrequency variable */
	SystemCoreClockUpdate();
  4004e6:	4b0e      	ldr	r3, [pc, #56]	; (400520 <sysclk_init+0x74>)
  4004e8:	4798      	blx	r3

	/* Set a flash wait state depending on the new cpu frequency */
	system_init_flash(sysclk_get_cpu_hz());
  4004ea:	4b0e      	ldr	r3, [pc, #56]	; (400524 <sysclk_init+0x78>)
  4004ec:	4798      	blx	r3
  4004ee:	4603      	mov	r3, r0
  4004f0:	4618      	mov	r0, r3
  4004f2:	4b04      	ldr	r3, [pc, #16]	; (400504 <sysclk_init+0x58>)
  4004f4:	4798      	blx	r3

#if (defined CONFIG_SYSCLK_DEFAULT_RETURNS_SLOW_OSC)
	/* Signal that the internal frequencies are setup */
	sysclk_initialized = 1;
#endif
}
  4004f6:	bf00      	nop
  4004f8:	370c      	adds	r7, #12
  4004fa:	46bd      	mov	sp, r7
  4004fc:	bd90      	pop	{r4, r7, pc}
  4004fe:	bf00      	nop
  400500:	11e1a300 	.word	0x11e1a300
  400504:	00401661 	.word	0x00401661
  400508:	0040041d 	.word	0x0040041d
  40050c:	00400345 	.word	0x00400345
  400510:	004003b1 	.word	0x004003b1
  400514:	00400455 	.word	0x00400455
  400518:	00400939 	.word	0x00400939
  40051c:	004009b5 	.word	0x004009b5
  400520:	004014f9 	.word	0x004014f9
  400524:	00400499 	.word	0x00400499

00400528 <pio_pull_up>:
 * \param ul_pull_up_enable Indicates if the pin(s) internal pull-up shall be
 * configured.
 */
void pio_pull_up(Pio *p_pio, const uint32_t ul_mask,
		const uint32_t ul_pull_up_enable)
{
  400528:	b480      	push	{r7}
  40052a:	b085      	sub	sp, #20
  40052c:	af00      	add	r7, sp, #0
  40052e:	60f8      	str	r0, [r7, #12]
  400530:	60b9      	str	r1, [r7, #8]
  400532:	607a      	str	r2, [r7, #4]
	/* Enable the pull-up(s) if necessary */
	if (ul_pull_up_enable) {
  400534:	687b      	ldr	r3, [r7, #4]
  400536:	2b00      	cmp	r3, #0
  400538:	d003      	beq.n	400542 <pio_pull_up+0x1a>
		p_pio->PIO_PUER = ul_mask;
  40053a:	68fb      	ldr	r3, [r7, #12]
  40053c:	68ba      	ldr	r2, [r7, #8]
  40053e:	665a      	str	r2, [r3, #100]	; 0x64
	} else {
		p_pio->PIO_PUDR = ul_mask;
	}
}
  400540:	e002      	b.n	400548 <pio_pull_up+0x20>
		p_pio->PIO_PUDR = ul_mask;
  400542:	68fb      	ldr	r3, [r7, #12]
  400544:	68ba      	ldr	r2, [r7, #8]
  400546:	661a      	str	r2, [r3, #96]	; 0x60
}
  400548:	bf00      	nop
  40054a:	3714      	adds	r7, #20
  40054c:	46bd      	mov	sp, r7
  40054e:	f85d 7b04 	ldr.w	r7, [sp], #4
  400552:	4770      	bx	lr

00400554 <pio_set>:
 *
 * \param p_pio Pointer to a PIO instance.
 * \param ul_mask Bitmask of one or more pin(s) to configure.
 */
void pio_set(Pio *p_pio, const uint32_t ul_mask)
{
  400554:	b480      	push	{r7}
  400556:	b083      	sub	sp, #12
  400558:	af00      	add	r7, sp, #0
  40055a:	6078      	str	r0, [r7, #4]
  40055c:	6039      	str	r1, [r7, #0]
	p_pio->PIO_SODR = ul_mask;
  40055e:	687b      	ldr	r3, [r7, #4]
  400560:	683a      	ldr	r2, [r7, #0]
  400562:	631a      	str	r2, [r3, #48]	; 0x30
}
  400564:	bf00      	nop
  400566:	370c      	adds	r7, #12
  400568:	46bd      	mov	sp, r7
  40056a:	f85d 7b04 	ldr.w	r7, [sp], #4
  40056e:	4770      	bx	lr

00400570 <pio_clear>:
 *
 * \param p_pio Pointer to a PIO instance.
 * \param ul_mask Bitmask of one or more pin(s) to configure.
 */
void pio_clear(Pio *p_pio, const uint32_t ul_mask)
{
  400570:	b480      	push	{r7}
  400572:	b083      	sub	sp, #12
  400574:	af00      	add	r7, sp, #0
  400576:	6078      	str	r0, [r7, #4]
  400578:	6039      	str	r1, [r7, #0]
	p_pio->PIO_CODR = ul_mask;
  40057a:	687b      	ldr	r3, [r7, #4]
  40057c:	683a      	ldr	r2, [r7, #0]
  40057e:	635a      	str	r2, [r3, #52]	; 0x34
}
  400580:	bf00      	nop
  400582:	370c      	adds	r7, #12
  400584:	46bd      	mov	sp, r7
  400586:	f85d 7b04 	ldr.w	r7, [sp], #4
  40058a:	4770      	bx	lr

0040058c <pio_set_input>:
 * \param ul_mask Bitmask indicating which pin(s) to configure as input(s).
 * \param ul_attribute PIO attribute(s).
 */
void pio_set_input(Pio *p_pio, const uint32_t ul_mask,
		const uint32_t ul_attribute)
{
  40058c:	b580      	push	{r7, lr}
  40058e:	b084      	sub	sp, #16
  400590:	af00      	add	r7, sp, #0
  400592:	60f8      	str	r0, [r7, #12]
  400594:	60b9      	str	r1, [r7, #8]
  400596:	607a      	str	r2, [r7, #4]
	pio_disable_interrupt(p_pio, ul_mask);
  400598:	68b9      	ldr	r1, [r7, #8]
  40059a:	68f8      	ldr	r0, [r7, #12]
  40059c:	4b19      	ldr	r3, [pc, #100]	; (400604 <pio_set_input+0x78>)
  40059e:	4798      	blx	r3
	pio_pull_up(p_pio, ul_mask, ul_attribute & PIO_PULLUP);
  4005a0:	687b      	ldr	r3, [r7, #4]
  4005a2:	f003 0301 	and.w	r3, r3, #1
  4005a6:	461a      	mov	r2, r3
  4005a8:	68b9      	ldr	r1, [r7, #8]
  4005aa:	68f8      	ldr	r0, [r7, #12]
  4005ac:	4b16      	ldr	r3, [pc, #88]	; (400608 <pio_set_input+0x7c>)
  4005ae:	4798      	blx	r3

	/* Enable Input Filter if necessary */
	if (ul_attribute & (PIO_DEGLITCH | PIO_DEBOUNCE)) {
  4005b0:	687b      	ldr	r3, [r7, #4]
  4005b2:	f003 030a 	and.w	r3, r3, #10
  4005b6:	2b00      	cmp	r3, #0
  4005b8:	d003      	beq.n	4005c2 <pio_set_input+0x36>
		p_pio->PIO_IFER = ul_mask;
  4005ba:	68fb      	ldr	r3, [r7, #12]
  4005bc:	68ba      	ldr	r2, [r7, #8]
  4005be:	621a      	str	r2, [r3, #32]
  4005c0:	e002      	b.n	4005c8 <pio_set_input+0x3c>
	} else {
		p_pio->PIO_IFDR = ul_mask;
  4005c2:	68fb      	ldr	r3, [r7, #12]
  4005c4:	68ba      	ldr	r2, [r7, #8]
  4005c6:	625a      	str	r2, [r3, #36]	; 0x24
	}

#if (SAM3S || SAM3N || SAM4S || SAM4E || SAM4N || SAM4C || SAMG || SAM4CP || SAM4CM || SAMV71 || SAMV70 || SAME70 || SAMS70)
	/* Enable de-glitch or de-bounce if necessary */
	if (ul_attribute & PIO_DEGLITCH) {
  4005c8:	687b      	ldr	r3, [r7, #4]
  4005ca:	f003 0302 	and.w	r3, r3, #2
  4005ce:	2b00      	cmp	r3, #0
  4005d0:	d004      	beq.n	4005dc <pio_set_input+0x50>
		p_pio->PIO_IFSCDR = ul_mask;
  4005d2:	68fb      	ldr	r3, [r7, #12]
  4005d4:	68ba      	ldr	r2, [r7, #8]
  4005d6:	f8c3 2080 	str.w	r2, [r3, #128]	; 0x80
  4005da:	e008      	b.n	4005ee <pio_set_input+0x62>
	} else {
		if (ul_attribute & PIO_DEBOUNCE) {
  4005dc:	687b      	ldr	r3, [r7, #4]
  4005de:	f003 0308 	and.w	r3, r3, #8
  4005e2:	2b00      	cmp	r3, #0
  4005e4:	d003      	beq.n	4005ee <pio_set_input+0x62>
			p_pio->PIO_IFSCER = ul_mask;
  4005e6:	68fb      	ldr	r3, [r7, #12]
  4005e8:	68ba      	ldr	r2, [r7, #8]
  4005ea:	f8c3 2084 	str.w	r2, [r3, #132]	; 0x84
#else
#error "Unsupported device"
#endif

	/* Configure pin as input */
	p_pio->PIO_ODR = ul_mask;
  4005ee:	68fb      	ldr	r3, [r7, #12]
  4005f0:	68ba      	ldr	r2, [r7, #8]
  4005f2:	615a      	str	r2, [r3, #20]
	p_pio->PIO_PER = ul_mask;
  4005f4:	68fb      	ldr	r3, [r7, #12]
  4005f6:	68ba      	ldr	r2, [r7, #8]
  4005f8:	601a      	str	r2, [r3, #0]
}
  4005fa:	bf00      	nop
  4005fc:	3710      	adds	r7, #16
  4005fe:	46bd      	mov	sp, r7
  400600:	bd80      	pop	{r7, pc}
  400602:	bf00      	nop
  400604:	00400721 	.word	0x00400721
  400608:	00400529 	.word	0x00400529

0040060c <pio_set_output>:
 */
void pio_set_output(Pio *p_pio, const uint32_t ul_mask,
		const uint32_t ul_default_level,
		const uint32_t ul_multidrive_enable,
		const uint32_t ul_pull_up_enable)
{
  40060c:	b580      	push	{r7, lr}
  40060e:	b084      	sub	sp, #16
  400610:	af00      	add	r7, sp, #0
  400612:	60f8      	str	r0, [r7, #12]
  400614:	60b9      	str	r1, [r7, #8]
  400616:	607a      	str	r2, [r7, #4]
  400618:	603b      	str	r3, [r7, #0]
	pio_disable_interrupt(p_pio, ul_mask);
  40061a:	68b9      	ldr	r1, [r7, #8]
  40061c:	68f8      	ldr	r0, [r7, #12]
  40061e:	4b12      	ldr	r3, [pc, #72]	; (400668 <pio_set_output+0x5c>)
  400620:	4798      	blx	r3
	pio_pull_up(p_pio, ul_mask, ul_pull_up_enable);
  400622:	69ba      	ldr	r2, [r7, #24]
  400624:	68b9      	ldr	r1, [r7, #8]
  400626:	68f8      	ldr	r0, [r7, #12]
  400628:	4b10      	ldr	r3, [pc, #64]	; (40066c <pio_set_output+0x60>)
  40062a:	4798      	blx	r3

	/* Enable multi-drive if necessary */
	if (ul_multidrive_enable) {
  40062c:	683b      	ldr	r3, [r7, #0]
  40062e:	2b00      	cmp	r3, #0
  400630:	d003      	beq.n	40063a <pio_set_output+0x2e>
		p_pio->PIO_MDER = ul_mask;
  400632:	68fb      	ldr	r3, [r7, #12]
  400634:	68ba      	ldr	r2, [r7, #8]
  400636:	651a      	str	r2, [r3, #80]	; 0x50
  400638:	e002      	b.n	400640 <pio_set_output+0x34>
	} else {
		p_pio->PIO_MDDR = ul_mask;
  40063a:	68fb      	ldr	r3, [r7, #12]
  40063c:	68ba      	ldr	r2, [r7, #8]
  40063e:	655a      	str	r2, [r3, #84]	; 0x54
	}

	/* Set default value */
	if (ul_default_level) {
  400640:	687b      	ldr	r3, [r7, #4]
  400642:	2b00      	cmp	r3, #0
  400644:	d003      	beq.n	40064e <pio_set_output+0x42>
		p_pio->PIO_SODR = ul_mask;
  400646:	68fb      	ldr	r3, [r7, #12]
  400648:	68ba      	ldr	r2, [r7, #8]
  40064a:	631a      	str	r2, [r3, #48]	; 0x30
  40064c:	e002      	b.n	400654 <pio_set_output+0x48>
	} else {
		p_pio->PIO_CODR = ul_mask;
  40064e:	68fb      	ldr	r3, [r7, #12]
  400650:	68ba      	ldr	r2, [r7, #8]
  400652:	635a      	str	r2, [r3, #52]	; 0x34
	}

	/* Configure pin(s) as output(s) */
	p_pio->PIO_OER = ul_mask;
  400654:	68fb      	ldr	r3, [r7, #12]
  400656:	68ba      	ldr	r2, [r7, #8]
  400658:	611a      	str	r2, [r3, #16]
	p_pio->PIO_PER = ul_mask;
  40065a:	68fb      	ldr	r3, [r7, #12]
  40065c:	68ba      	ldr	r2, [r7, #8]
  40065e:	601a      	str	r2, [r3, #0]
}
  400660:	bf00      	nop
  400662:	3710      	adds	r7, #16
  400664:	46bd      	mov	sp, r7
  400666:	bd80      	pop	{r7, pc}
  400668:	00400721 	.word	0x00400721
  40066c:	00400529 	.word	0x00400529

00400670 <pio_get_output_data_status>:
 * \retval 1 At least one PIO is configured to output a high level.
 * \retval 0 All PIOs are configured to output a low level.
 */
uint32_t pio_get_output_data_status(const Pio *p_pio,
		const uint32_t ul_mask)
{
  400670:	b480      	push	{r7}
  400672:	b083      	sub	sp, #12
  400674:	af00      	add	r7, sp, #0
  400676:	6078      	str	r0, [r7, #4]
  400678:	6039      	str	r1, [r7, #0]
	if ((p_pio->PIO_ODSR & ul_mask) == 0) {
  40067a:	687b      	ldr	r3, [r7, #4]
  40067c:	6b9a      	ldr	r2, [r3, #56]	; 0x38
  40067e:	683b      	ldr	r3, [r7, #0]
  400680:	4013      	ands	r3, r2
  400682:	2b00      	cmp	r3, #0
  400684:	d101      	bne.n	40068a <pio_get_output_data_status+0x1a>
		return 0;
  400686:	2300      	movs	r3, #0
  400688:	e000      	b.n	40068c <pio_get_output_data_status+0x1c>
	} else {
		return 1;
  40068a:	2301      	movs	r3, #1
	}
}
  40068c:	4618      	mov	r0, r3
  40068e:	370c      	adds	r7, #12
  400690:	46bd      	mov	sp, r7
  400692:	f85d 7b04 	ldr.w	r7, [sp], #4
  400696:	4770      	bx	lr

00400698 <pio_configure_interrupt>:
 * \param ul_mask Interrupt source bit map.
 * \param ul_attr Interrupt source attributes.
 */
void pio_configure_interrupt(Pio *p_pio, const uint32_t ul_mask,
		const uint32_t ul_attr)
{
  400698:	b480      	push	{r7}
  40069a:	b085      	sub	sp, #20
  40069c:	af00      	add	r7, sp, #0
  40069e:	60f8      	str	r0, [r7, #12]
  4006a0:	60b9      	str	r1, [r7, #8]
  4006a2:	607a      	str	r2, [r7, #4]
	/* Configure additional interrupt mode registers. */
	if (ul_attr & PIO_IT_AIME) {
  4006a4:	687b      	ldr	r3, [r7, #4]
  4006a6:	f003 0310 	and.w	r3, r3, #16
  4006aa:	2b00      	cmp	r3, #0
  4006ac:	d020      	beq.n	4006f0 <pio_configure_interrupt+0x58>
		/* Enable additional interrupt mode. */
		p_pio->PIO_AIMER = ul_mask;
  4006ae:	68fb      	ldr	r3, [r7, #12]
  4006b0:	68ba      	ldr	r2, [r7, #8]
  4006b2:	f8c3 20b0 	str.w	r2, [r3, #176]	; 0xb0

		/* If bit field of the selected pin is 1, set as
		   Rising Edge/High level detection event. */
		if (ul_attr & PIO_IT_RE_OR_HL) {
  4006b6:	687b      	ldr	r3, [r7, #4]
  4006b8:	f003 0320 	and.w	r3, r3, #32
  4006bc:	2b00      	cmp	r3, #0
  4006be:	d004      	beq.n	4006ca <pio_configure_interrupt+0x32>
			/* Rising Edge or High Level */
			p_pio->PIO_REHLSR = ul_mask;
  4006c0:	68fb      	ldr	r3, [r7, #12]
  4006c2:	68ba      	ldr	r2, [r7, #8]
  4006c4:	f8c3 20d4 	str.w	r2, [r3, #212]	; 0xd4
  4006c8:	e003      	b.n	4006d2 <pio_configure_interrupt+0x3a>
		} else {
			/* Falling Edge or Low Level */
			p_pio->PIO_FELLSR = ul_mask;
  4006ca:	68fb      	ldr	r3, [r7, #12]
  4006cc:	68ba      	ldr	r2, [r7, #8]
  4006ce:	f8c3 20d0 	str.w	r2, [r3, #208]	; 0xd0
		}

		/* If bit field of the selected pin is 1, set as
		   edge detection source. */
		if (ul_attr & PIO_IT_EDGE) {
  4006d2:	687b      	ldr	r3, [r7, #4]
  4006d4:	f003 0340 	and.w	r3, r3, #64	; 0x40
  4006d8:	2b00      	cmp	r3, #0
  4006da:	d004      	beq.n	4006e6 <pio_configure_interrupt+0x4e>
			/* Edge select */
			p_pio->PIO_ESR = ul_mask;
  4006dc:	68fb      	ldr	r3, [r7, #12]
  4006de:	68ba      	ldr	r2, [r7, #8]
  4006e0:	f8c3 20c0 	str.w	r2, [r3, #192]	; 0xc0
		}
	} else {
		/* Disable additional interrupt mode. */
		p_pio->PIO_AIMDR = ul_mask;
	}
}
  4006e4:	e008      	b.n	4006f8 <pio_configure_interrupt+0x60>
			p_pio->PIO_LSR = ul_mask;
  4006e6:	68fb      	ldr	r3, [r7, #12]
  4006e8:	68ba      	ldr	r2, [r7, #8]
  4006ea:	f8c3 20c4 	str.w	r2, [r3, #196]	; 0xc4
}
  4006ee:	e003      	b.n	4006f8 <pio_configure_interrupt+0x60>
		p_pio->PIO_AIMDR = ul_mask;
  4006f0:	68fb      	ldr	r3, [r7, #12]
  4006f2:	68ba      	ldr	r2, [r7, #8]
  4006f4:	f8c3 20b4 	str.w	r2, [r3, #180]	; 0xb4
}
  4006f8:	bf00      	nop
  4006fa:	3714      	adds	r7, #20
  4006fc:	46bd      	mov	sp, r7
  4006fe:	f85d 7b04 	ldr.w	r7, [sp], #4
  400702:	4770      	bx	lr

00400704 <pio_enable_interrupt>:
 *
 * \param p_pio Pointer to a PIO instance.
 * \param ul_mask Interrupt sources bit map.
 */
void pio_enable_interrupt(Pio *p_pio, const uint32_t ul_mask)
{
  400704:	b480      	push	{r7}
  400706:	b083      	sub	sp, #12
  400708:	af00      	add	r7, sp, #0
  40070a:	6078      	str	r0, [r7, #4]
  40070c:	6039      	str	r1, [r7, #0]
	p_pio->PIO_IER = ul_mask;
  40070e:	687b      	ldr	r3, [r7, #4]
  400710:	683a      	ldr	r2, [r7, #0]
  400712:	641a      	str	r2, [r3, #64]	; 0x40
}
  400714:	bf00      	nop
  400716:	370c      	adds	r7, #12
  400718:	46bd      	mov	sp, r7
  40071a:	f85d 7b04 	ldr.w	r7, [sp], #4
  40071e:	4770      	bx	lr

00400720 <pio_disable_interrupt>:
 *
 * \param p_pio Pointer to a PIO instance.
 * \param ul_mask Interrupt sources bit map.
 */
void pio_disable_interrupt(Pio *p_pio, const uint32_t ul_mask)
{
  400720:	b480      	push	{r7}
  400722:	b083      	sub	sp, #12
  400724:	af00      	add	r7, sp, #0
  400726:	6078      	str	r0, [r7, #4]
  400728:	6039      	str	r1, [r7, #0]
	p_pio->PIO_IDR = ul_mask;
  40072a:	687b      	ldr	r3, [r7, #4]
  40072c:	683a      	ldr	r2, [r7, #0]
  40072e:	645a      	str	r2, [r3, #68]	; 0x44
}
  400730:	bf00      	nop
  400732:	370c      	adds	r7, #12
  400734:	46bd      	mov	sp, r7
  400736:	f85d 7b04 	ldr.w	r7, [sp], #4
  40073a:	4770      	bx	lr

0040073c <pio_get_interrupt_status>:
 * \param p_pio Pointer to a PIO instance.
 *
 * \return The interrupt status value.
 */
uint32_t pio_get_interrupt_status(const Pio *p_pio)
{
  40073c:	b480      	push	{r7}
  40073e:	b083      	sub	sp, #12
  400740:	af00      	add	r7, sp, #0
  400742:	6078      	str	r0, [r7, #4]
	return p_pio->PIO_ISR;
  400744:	687b      	ldr	r3, [r7, #4]
  400746:	6cdb      	ldr	r3, [r3, #76]	; 0x4c
}
  400748:	4618      	mov	r0, r3
  40074a:	370c      	adds	r7, #12
  40074c:	46bd      	mov	sp, r7
  40074e:	f85d 7b04 	ldr.w	r7, [sp], #4
  400752:	4770      	bx	lr

00400754 <pio_get_interrupt_mask>:
 * \param p_pio Pointer to a PIO instance.
 *
 * \return The interrupt mask value.
 */
uint32_t pio_get_interrupt_mask(const Pio *p_pio)
{
  400754:	b480      	push	{r7}
  400756:	b083      	sub	sp, #12
  400758:	af00      	add	r7, sp, #0
  40075a:	6078      	str	r0, [r7, #4]
	return p_pio->PIO_IMR;
  40075c:	687b      	ldr	r3, [r7, #4]
  40075e:	6c9b      	ldr	r3, [r3, #72]	; 0x48
}
  400760:	4618      	mov	r0, r3
  400762:	370c      	adds	r7, #12
  400764:	46bd      	mov	sp, r7
  400766:	f85d 7b04 	ldr.w	r7, [sp], #4
  40076a:	4770      	bx	lr

0040076c <pio_handler_process>:
 *
 * \param p_pio PIO controller base address.
 * \param ul_id PIO controller ID.
 */
void pio_handler_process(Pio *p_pio, uint32_t ul_id)
{
  40076c:	b580      	push	{r7, lr}
  40076e:	b084      	sub	sp, #16
  400770:	af00      	add	r7, sp, #0
  400772:	6078      	str	r0, [r7, #4]
  400774:	6039      	str	r1, [r7, #0]
	uint32_t status;
	uint32_t i;

	/* Read PIO controller status */
	status = pio_get_interrupt_status(p_pio);
  400776:	6878      	ldr	r0, [r7, #4]
  400778:	4b26      	ldr	r3, [pc, #152]	; (400814 <pio_handler_process+0xa8>)
  40077a:	4798      	blx	r3
  40077c:	60f8      	str	r0, [r7, #12]
	status &= pio_get_interrupt_mask(p_pio);
  40077e:	6878      	ldr	r0, [r7, #4]
  400780:	4b25      	ldr	r3, [pc, #148]	; (400818 <pio_handler_process+0xac>)
  400782:	4798      	blx	r3
  400784:	4602      	mov	r2, r0
  400786:	68fb      	ldr	r3, [r7, #12]
  400788:	4013      	ands	r3, r2
  40078a:	60fb      	str	r3, [r7, #12]

	/* Check pending events */
	if (status != 0) {
  40078c:	68fb      	ldr	r3, [r7, #12]
  40078e:	2b00      	cmp	r3, #0
  400790:	d03c      	beq.n	40080c <pio_handler_process+0xa0>
		/* Find triggering source */
		i = 0;
  400792:	2300      	movs	r3, #0
  400794:	60bb      	str	r3, [r7, #8]
		while (status != 0) {
  400796:	e034      	b.n	400802 <pio_handler_process+0x96>
			/* Source is configured on the same controller */
			if (gs_interrupt_sources[i].id == ul_id) {
  400798:	4a20      	ldr	r2, [pc, #128]	; (40081c <pio_handler_process+0xb0>)
  40079a:	68bb      	ldr	r3, [r7, #8]
  40079c:	011b      	lsls	r3, r3, #4
  40079e:	4413      	add	r3, r2
  4007a0:	681a      	ldr	r2, [r3, #0]
  4007a2:	683b      	ldr	r3, [r7, #0]
  4007a4:	429a      	cmp	r2, r3
  4007a6:	d126      	bne.n	4007f6 <pio_handler_process+0x8a>
				/* Source has PIOs whose statuses have changed */
				if ((status & gs_interrupt_sources[i].mask) != 0) {
  4007a8:	4a1c      	ldr	r2, [pc, #112]	; (40081c <pio_handler_process+0xb0>)
  4007aa:	68bb      	ldr	r3, [r7, #8]
  4007ac:	011b      	lsls	r3, r3, #4
  4007ae:	4413      	add	r3, r2
  4007b0:	3304      	adds	r3, #4
  4007b2:	681a      	ldr	r2, [r3, #0]
  4007b4:	68fb      	ldr	r3, [r7, #12]
  4007b6:	4013      	ands	r3, r2
  4007b8:	2b00      	cmp	r3, #0
  4007ba:	d01c      	beq.n	4007f6 <pio_handler_process+0x8a>
					gs_interrupt_sources[i].handler(gs_interrupt_sources[i].id,
  4007bc:	4a17      	ldr	r2, [pc, #92]	; (40081c <pio_handler_process+0xb0>)
  4007be:	68bb      	ldr	r3, [r7, #8]
  4007c0:	011b      	lsls	r3, r3, #4
  4007c2:	4413      	add	r3, r2
  4007c4:	330c      	adds	r3, #12
  4007c6:	681b      	ldr	r3, [r3, #0]
  4007c8:	4914      	ldr	r1, [pc, #80]	; (40081c <pio_handler_process+0xb0>)
  4007ca:	68ba      	ldr	r2, [r7, #8]
  4007cc:	0112      	lsls	r2, r2, #4
  4007ce:	440a      	add	r2, r1
  4007d0:	6810      	ldr	r0, [r2, #0]
  4007d2:	4912      	ldr	r1, [pc, #72]	; (40081c <pio_handler_process+0xb0>)
  4007d4:	68ba      	ldr	r2, [r7, #8]
  4007d6:	0112      	lsls	r2, r2, #4
  4007d8:	440a      	add	r2, r1
  4007da:	3204      	adds	r2, #4
  4007dc:	6812      	ldr	r2, [r2, #0]
  4007de:	4611      	mov	r1, r2
  4007e0:	4798      	blx	r3
							gs_interrupt_sources[i].mask);
					status &= ~(gs_interrupt_sources[i].mask);
  4007e2:	4a0e      	ldr	r2, [pc, #56]	; (40081c <pio_handler_process+0xb0>)
  4007e4:	68bb      	ldr	r3, [r7, #8]
  4007e6:	011b      	lsls	r3, r3, #4
  4007e8:	4413      	add	r3, r2
  4007ea:	3304      	adds	r3, #4
  4007ec:	681b      	ldr	r3, [r3, #0]
  4007ee:	43db      	mvns	r3, r3
  4007f0:	68fa      	ldr	r2, [r7, #12]
  4007f2:	4013      	ands	r3, r2
  4007f4:	60fb      	str	r3, [r7, #12]
				}
			}
			i++;
  4007f6:	68bb      	ldr	r3, [r7, #8]
  4007f8:	3301      	adds	r3, #1
  4007fa:	60bb      	str	r3, [r7, #8]
			if (i >= MAX_INTERRUPT_SOURCES) {
  4007fc:	68bb      	ldr	r3, [r7, #8]
  4007fe:	2b06      	cmp	r3, #6
  400800:	d803      	bhi.n	40080a <pio_handler_process+0x9e>
		while (status != 0) {
  400802:	68fb      	ldr	r3, [r7, #12]
  400804:	2b00      	cmp	r3, #0
  400806:	d1c7      	bne.n	400798 <pio_handler_process+0x2c>
		if (pio_capture_handler) {
			pio_capture_handler(p_pio);
		}
	}
#endif
}
  400808:	e000      	b.n	40080c <pio_handler_process+0xa0>
				break;
  40080a:	bf00      	nop
}
  40080c:	bf00      	nop
  40080e:	3710      	adds	r7, #16
  400810:	46bd      	mov	sp, r7
  400812:	bd80      	pop	{r7, pc}
  400814:	0040073d 	.word	0x0040073d
  400818:	00400755 	.word	0x00400755
  40081c:	20400458 	.word	0x20400458

00400820 <pio_handler_set>:
 *
 * \return 0 if successful, 1 if the maximum number of sources has been defined.
 */
uint32_t pio_handler_set(Pio *p_pio, uint32_t ul_id, uint32_t ul_mask,
		uint32_t ul_attr, void (*p_handler) (uint32_t, uint32_t))
{
  400820:	b580      	push	{r7, lr}
  400822:	b086      	sub	sp, #24
  400824:	af00      	add	r7, sp, #0
  400826:	60f8      	str	r0, [r7, #12]
  400828:	60b9      	str	r1, [r7, #8]
  40082a:	607a      	str	r2, [r7, #4]
  40082c:	603b      	str	r3, [r7, #0]
    uint8_t i;
	struct s_interrupt_source *pSource;

	if (gs_ul_nb_sources >= MAX_INTERRUPT_SOURCES)
  40082e:	4b21      	ldr	r3, [pc, #132]	; (4008b4 <pio_handler_set+0x94>)
  400830:	681b      	ldr	r3, [r3, #0]
  400832:	2b06      	cmp	r3, #6
  400834:	d901      	bls.n	40083a <pio_handler_set+0x1a>
		return 1;
  400836:	2301      	movs	r3, #1
  400838:	e038      	b.n	4008ac <pio_handler_set+0x8c>

    /* Check interrupt for this pin, if already defined, redefine it. */
	for (i = 0; i <= gs_ul_nb_sources; i++) {
  40083a:	2300      	movs	r3, #0
  40083c:	75fb      	strb	r3, [r7, #23]
  40083e:	e011      	b.n	400864 <pio_handler_set+0x44>
		pSource = &(gs_interrupt_sources[i]);
  400840:	7dfb      	ldrb	r3, [r7, #23]
  400842:	011b      	lsls	r3, r3, #4
  400844:	4a1c      	ldr	r2, [pc, #112]	; (4008b8 <pio_handler_set+0x98>)
  400846:	4413      	add	r3, r2
  400848:	613b      	str	r3, [r7, #16]
		if (pSource->id == ul_id && pSource->mask == ul_mask) {
  40084a:	693b      	ldr	r3, [r7, #16]
  40084c:	681a      	ldr	r2, [r3, #0]
  40084e:	68bb      	ldr	r3, [r7, #8]
  400850:	429a      	cmp	r2, r3
  400852:	d104      	bne.n	40085e <pio_handler_set+0x3e>
  400854:	693b      	ldr	r3, [r7, #16]
  400856:	685a      	ldr	r2, [r3, #4]
  400858:	687b      	ldr	r3, [r7, #4]
  40085a:	429a      	cmp	r2, r3
  40085c:	d008      	beq.n	400870 <pio_handler_set+0x50>
	for (i = 0; i <= gs_ul_nb_sources; i++) {
  40085e:	7dfb      	ldrb	r3, [r7, #23]
  400860:	3301      	adds	r3, #1
  400862:	75fb      	strb	r3, [r7, #23]
  400864:	7dfa      	ldrb	r2, [r7, #23]
  400866:	4b13      	ldr	r3, [pc, #76]	; (4008b4 <pio_handler_set+0x94>)
  400868:	681b      	ldr	r3, [r3, #0]
  40086a:	429a      	cmp	r2, r3
  40086c:	d9e8      	bls.n	400840 <pio_handler_set+0x20>
  40086e:	e000      	b.n	400872 <pio_handler_set+0x52>
			break;
  400870:	bf00      	nop
		}
	}

	/* Define new source */
	pSource->id = ul_id;
  400872:	693b      	ldr	r3, [r7, #16]
  400874:	68ba      	ldr	r2, [r7, #8]
  400876:	601a      	str	r2, [r3, #0]
	pSource->mask = ul_mask;
  400878:	693b      	ldr	r3, [r7, #16]
  40087a:	687a      	ldr	r2, [r7, #4]
  40087c:	605a      	str	r2, [r3, #4]
	pSource->attr = ul_attr;
  40087e:	693b      	ldr	r3, [r7, #16]
  400880:	683a      	ldr	r2, [r7, #0]
  400882:	609a      	str	r2, [r3, #8]
	pSource->handler = p_handler;
  400884:	693b      	ldr	r3, [r7, #16]
  400886:	6a3a      	ldr	r2, [r7, #32]
  400888:	60da      	str	r2, [r3, #12]
	if (i == gs_ul_nb_sources + 1) {
  40088a:	7dfa      	ldrb	r2, [r7, #23]
  40088c:	4b09      	ldr	r3, [pc, #36]	; (4008b4 <pio_handler_set+0x94>)
  40088e:	681b      	ldr	r3, [r3, #0]
  400890:	3301      	adds	r3, #1
  400892:	429a      	cmp	r2, r3
  400894:	d104      	bne.n	4008a0 <pio_handler_set+0x80>
		gs_ul_nb_sources++;
  400896:	4b07      	ldr	r3, [pc, #28]	; (4008b4 <pio_handler_set+0x94>)
  400898:	681b      	ldr	r3, [r3, #0]
  40089a:	3301      	adds	r3, #1
  40089c:	4a05      	ldr	r2, [pc, #20]	; (4008b4 <pio_handler_set+0x94>)
  40089e:	6013      	str	r3, [r2, #0]
	}

	/* Configure interrupt mode */
	pio_configure_interrupt(p_pio, ul_mask, ul_attr);
  4008a0:	683a      	ldr	r2, [r7, #0]
  4008a2:	6879      	ldr	r1, [r7, #4]
  4008a4:	68f8      	ldr	r0, [r7, #12]
  4008a6:	4b05      	ldr	r3, [pc, #20]	; (4008bc <pio_handler_set+0x9c>)
  4008a8:	4798      	blx	r3

	return 0;
  4008aa:	2300      	movs	r3, #0
}
  4008ac:	4618      	mov	r0, r3
  4008ae:	3718      	adds	r7, #24
  4008b0:	46bd      	mov	sp, r7
  4008b2:	bd80      	pop	{r7, pc}
  4008b4:	204004c8 	.word	0x204004c8
  4008b8:	20400458 	.word	0x20400458
  4008bc:	00400699 	.word	0x00400699

004008c0 <PIOA_Handler>:
/**
 * \brief Parallel IO Controller A interrupt handler.
 * Redefined PIOA interrupt handler for NVIC interrupt table.
 */
void PIOA_Handler(void)
{
  4008c0:	b580      	push	{r7, lr}
  4008c2:	af00      	add	r7, sp, #0
	pio_handler_process(PIOA, ID_PIOA);
  4008c4:	210a      	movs	r1, #10
  4008c6:	4802      	ldr	r0, [pc, #8]	; (4008d0 <PIOA_Handler+0x10>)
  4008c8:	4b02      	ldr	r3, [pc, #8]	; (4008d4 <PIOA_Handler+0x14>)
  4008ca:	4798      	blx	r3
}
  4008cc:	bf00      	nop
  4008ce:	bd80      	pop	{r7, pc}
  4008d0:	400e0e00 	.word	0x400e0e00
  4008d4:	0040076d 	.word	0x0040076d

004008d8 <PIOB_Handler>:
/**
 * \brief Parallel IO Controller B interrupt handler
 * Redefined PIOB interrupt handler for NVIC interrupt table.
 */
void PIOB_Handler(void)
{
  4008d8:	b580      	push	{r7, lr}
  4008da:	af00      	add	r7, sp, #0
    pio_handler_process(PIOB, ID_PIOB);
  4008dc:	210b      	movs	r1, #11
  4008de:	4802      	ldr	r0, [pc, #8]	; (4008e8 <PIOB_Handler+0x10>)
  4008e0:	4b02      	ldr	r3, [pc, #8]	; (4008ec <PIOB_Handler+0x14>)
  4008e2:	4798      	blx	r3
}
  4008e4:	bf00      	nop
  4008e6:	bd80      	pop	{r7, pc}
  4008e8:	400e1000 	.word	0x400e1000
  4008ec:	0040076d 	.word	0x0040076d

004008f0 <PIOC_Handler>:
/**
 * \brief Parallel IO Controller C interrupt handler.
 * Redefined PIOC interrupt handler for NVIC interrupt table.
 */
void PIOC_Handler(void)
{
  4008f0:	b580      	push	{r7, lr}
  4008f2:	af00      	add	r7, sp, #0
	pio_handler_process(PIOC, ID_PIOC);
  4008f4:	210c      	movs	r1, #12
  4008f6:	4802      	ldr	r0, [pc, #8]	; (400900 <PIOC_Handler+0x10>)
  4008f8:	4b02      	ldr	r3, [pc, #8]	; (400904 <PIOC_Handler+0x14>)
  4008fa:	4798      	blx	r3
}
  4008fc:	bf00      	nop
  4008fe:	bd80      	pop	{r7, pc}
  400900:	400e1200 	.word	0x400e1200
  400904:	0040076d 	.word	0x0040076d

00400908 <PIOD_Handler>:
/**
 * \brief Parallel IO Controller D interrupt handler.
 * Redefined PIOD interrupt handler for NVIC interrupt table.
 */
void PIOD_Handler(void)
{
  400908:	b580      	push	{r7, lr}
  40090a:	af00      	add	r7, sp, #0
	pio_handler_process(PIOD, ID_PIOD);
  40090c:	2110      	movs	r1, #16
  40090e:	4802      	ldr	r0, [pc, #8]	; (400918 <PIOD_Handler+0x10>)
  400910:	4b02      	ldr	r3, [pc, #8]	; (40091c <PIOD_Handler+0x14>)
  400912:	4798      	blx	r3
}
  400914:	bf00      	nop
  400916:	bd80      	pop	{r7, pc}
  400918:	400e1400 	.word	0x400e1400
  40091c:	0040076d 	.word	0x0040076d

00400920 <PIOE_Handler>:
/**
 * \brief Parallel IO Controller E interrupt handler.
 * Redefined PIOE interrupt handler for NVIC interrupt table.
 */
void PIOE_Handler(void)
{
  400920:	b580      	push	{r7, lr}
  400922:	af00      	add	r7, sp, #0
	pio_handler_process(PIOE, ID_PIOE);
  400924:	2111      	movs	r1, #17
  400926:	4802      	ldr	r0, [pc, #8]	; (400930 <PIOE_Handler+0x10>)
  400928:	4b02      	ldr	r3, [pc, #8]	; (400934 <PIOE_Handler+0x14>)
  40092a:	4798      	blx	r3
}
  40092c:	bf00      	nop
  40092e:	bd80      	pop	{r7, pc}
  400930:	400e1600 	.word	0x400e1600
  400934:	0040076d 	.word	0x0040076d

00400938 <pmc_mck_set_division>:
 * \brief Set the division of the MCK.
 *
 * \param ul_div Division value.
 */
void pmc_mck_set_division(uint32_t ul_div)
{
  400938:	b480      	push	{r7}
  40093a:	b083      	sub	sp, #12
  40093c:	af00      	add	r7, sp, #0
  40093e:	6078      	str	r0, [r7, #4]
	switch (ul_div) {
  400940:	687b      	ldr	r3, [r7, #4]
  400942:	3b01      	subs	r3, #1
  400944:	2b03      	cmp	r3, #3
  400946:	d81a      	bhi.n	40097e <pmc_mck_set_division+0x46>
  400948:	a201      	add	r2, pc, #4	; (adr r2, 400950 <pmc_mck_set_division+0x18>)
  40094a:	f852 f023 	ldr.w	pc, [r2, r3, lsl #2]
  40094e:	bf00      	nop
  400950:	00400961 	.word	0x00400961
  400954:	00400967 	.word	0x00400967
  400958:	0040096f 	.word	0x0040096f
  40095c:	00400977 	.word	0x00400977
		case 1:
			ul_div = PMC_MCKR_MDIV_EQ_PCK;
  400960:	2300      	movs	r3, #0
  400962:	607b      	str	r3, [r7, #4]
			break;
  400964:	e00e      	b.n	400984 <pmc_mck_set_division+0x4c>
		case 2:
			ul_div = PMC_MCKR_MDIV_PCK_DIV2;
  400966:	f44f 7380 	mov.w	r3, #256	; 0x100
  40096a:	607b      	str	r3, [r7, #4]
			break;
  40096c:	e00a      	b.n	400984 <pmc_mck_set_division+0x4c>
		case 3:
			ul_div = PMC_MCKR_MDIV_PCK_DIV3;
  40096e:	f44f 7340 	mov.w	r3, #768	; 0x300
  400972:	607b      	str	r3, [r7, #4]
			break;
  400974:	e006      	b.n	400984 <pmc_mck_set_division+0x4c>
		case 4:
			ul_div = PMC_MCKR_MDIV_PCK_DIV4;
  400976:	f44f 7300 	mov.w	r3, #512	; 0x200
  40097a:	607b      	str	r3, [r7, #4]
			break;
  40097c:	e002      	b.n	400984 <pmc_mck_set_division+0x4c>
		default:
			ul_div = PMC_MCKR_MDIV_EQ_PCK;
  40097e:	2300      	movs	r3, #0
  400980:	607b      	str	r3, [r7, #4]
			break;
  400982:	bf00      	nop
	}
	PMC->PMC_MCKR =
  400984:	490a      	ldr	r1, [pc, #40]	; (4009b0 <pmc_mck_set_division+0x78>)
			(PMC->PMC_MCKR & (~PMC_MCKR_MDIV_Msk)) | ul_div;
  400986:	4b0a      	ldr	r3, [pc, #40]	; (4009b0 <pmc_mck_set_division+0x78>)
  400988:	6b1b      	ldr	r3, [r3, #48]	; 0x30
  40098a:	f423 7240 	bic.w	r2, r3, #768	; 0x300
  40098e:	687b      	ldr	r3, [r7, #4]
  400990:	4313      	orrs	r3, r2
	PMC->PMC_MCKR =
  400992:	630b      	str	r3, [r1, #48]	; 0x30
	while (!(PMC->PMC_SR & PMC_SR_MCKRDY));
  400994:	bf00      	nop
  400996:	4b06      	ldr	r3, [pc, #24]	; (4009b0 <pmc_mck_set_division+0x78>)
  400998:	6e9b      	ldr	r3, [r3, #104]	; 0x68
  40099a:	f003 0308 	and.w	r3, r3, #8
  40099e:	2b00      	cmp	r3, #0
  4009a0:	d0f9      	beq.n	400996 <pmc_mck_set_division+0x5e>
}
  4009a2:	bf00      	nop
  4009a4:	370c      	adds	r7, #12
  4009a6:	46bd      	mov	sp, r7
  4009a8:	f85d 7b04 	ldr.w	r7, [sp], #4
  4009ac:	4770      	bx	lr
  4009ae:	bf00      	nop
  4009b0:	400e0600 	.word	0x400e0600

004009b4 <pmc_switch_mck_to_pllack>:
 *
 * \retval 0 Success.
 * \retval 1 Timeout error.
 */
uint32_t pmc_switch_mck_to_pllack(uint32_t ul_pres)
{
  4009b4:	b480      	push	{r7}
  4009b6:	b085      	sub	sp, #20
  4009b8:	af00      	add	r7, sp, #0
  4009ba:	6078      	str	r0, [r7, #4]
	uint32_t ul_timeout;

	PMC->PMC_MCKR = (PMC->PMC_MCKR & (~PMC_MCKR_PRES_Msk)) | ul_pres;
  4009bc:	491d      	ldr	r1, [pc, #116]	; (400a34 <pmc_switch_mck_to_pllack+0x80>)
  4009be:	4b1d      	ldr	r3, [pc, #116]	; (400a34 <pmc_switch_mck_to_pllack+0x80>)
  4009c0:	6b1b      	ldr	r3, [r3, #48]	; 0x30
  4009c2:	f023 0270 	bic.w	r2, r3, #112	; 0x70
  4009c6:	687b      	ldr	r3, [r7, #4]
  4009c8:	4313      	orrs	r3, r2
  4009ca:	630b      	str	r3, [r1, #48]	; 0x30
	for (ul_timeout = PMC_TIMEOUT; !(PMC->PMC_SR & PMC_SR_MCKRDY);
  4009cc:	f44f 5380 	mov.w	r3, #4096	; 0x1000
  4009d0:	60fb      	str	r3, [r7, #12]
  4009d2:	e007      	b.n	4009e4 <pmc_switch_mck_to_pllack+0x30>
			--ul_timeout) {
		if (ul_timeout == 0) {
  4009d4:	68fb      	ldr	r3, [r7, #12]
  4009d6:	2b00      	cmp	r3, #0
  4009d8:	d101      	bne.n	4009de <pmc_switch_mck_to_pllack+0x2a>
			return 1;
  4009da:	2301      	movs	r3, #1
  4009dc:	e023      	b.n	400a26 <pmc_switch_mck_to_pllack+0x72>
			--ul_timeout) {
  4009de:	68fb      	ldr	r3, [r7, #12]
  4009e0:	3b01      	subs	r3, #1
  4009e2:	60fb      	str	r3, [r7, #12]
	for (ul_timeout = PMC_TIMEOUT; !(PMC->PMC_SR & PMC_SR_MCKRDY);
  4009e4:	4b13      	ldr	r3, [pc, #76]	; (400a34 <pmc_switch_mck_to_pllack+0x80>)
  4009e6:	6e9b      	ldr	r3, [r3, #104]	; 0x68
  4009e8:	f003 0308 	and.w	r3, r3, #8
  4009ec:	2b00      	cmp	r3, #0
  4009ee:	d0f1      	beq.n	4009d4 <pmc_switch_mck_to_pllack+0x20>
		}
	}

	PMC->PMC_MCKR = (PMC->PMC_MCKR & (~PMC_MCKR_CSS_Msk)) |
  4009f0:	4a10      	ldr	r2, [pc, #64]	; (400a34 <pmc_switch_mck_to_pllack+0x80>)
  4009f2:	4b10      	ldr	r3, [pc, #64]	; (400a34 <pmc_switch_mck_to_pllack+0x80>)
  4009f4:	6b1b      	ldr	r3, [r3, #48]	; 0x30
  4009f6:	f023 0303 	bic.w	r3, r3, #3
  4009fa:	f043 0302 	orr.w	r3, r3, #2
  4009fe:	6313      	str	r3, [r2, #48]	; 0x30
			PMC_MCKR_CSS_PLLA_CLK;

	for (ul_timeout = PMC_TIMEOUT; !(PMC->PMC_SR & PMC_SR_MCKRDY);
  400a00:	f44f 5380 	mov.w	r3, #4096	; 0x1000
  400a04:	60fb      	str	r3, [r7, #12]
  400a06:	e007      	b.n	400a18 <pmc_switch_mck_to_pllack+0x64>
			--ul_timeout) {
		if (ul_timeout == 0) {
  400a08:	68fb      	ldr	r3, [r7, #12]
  400a0a:	2b00      	cmp	r3, #0
  400a0c:	d101      	bne.n	400a12 <pmc_switch_mck_to_pllack+0x5e>
			return 1;
  400a0e:	2301      	movs	r3, #1
  400a10:	e009      	b.n	400a26 <pmc_switch_mck_to_pllack+0x72>
			--ul_timeout) {
  400a12:	68fb      	ldr	r3, [r7, #12]
  400a14:	3b01      	subs	r3, #1
  400a16:	60fb      	str	r3, [r7, #12]
	for (ul_timeout = PMC_TIMEOUT; !(PMC->PMC_SR & PMC_SR_MCKRDY);
  400a18:	4b06      	ldr	r3, [pc, #24]	; (400a34 <pmc_switch_mck_to_pllack+0x80>)
  400a1a:	6e9b      	ldr	r3, [r3, #104]	; 0x68
  400a1c:	f003 0308 	and.w	r3, r3, #8
  400a20:	2b00      	cmp	r3, #0
  400a22:	d0f1      	beq.n	400a08 <pmc_switch_mck_to_pllack+0x54>
		}
	}

	return 0;
  400a24:	2300      	movs	r3, #0
}
  400a26:	4618      	mov	r0, r3
  400a28:	3714      	adds	r7, #20
  400a2a:	46bd      	mov	sp, r7
  400a2c:	f85d 7b04 	ldr.w	r7, [sp], #4
  400a30:	4770      	bx	lr
  400a32:	bf00      	nop
  400a34:	400e0600 	.word	0x400e0600

00400a38 <pmc_switch_sclk_to_32kxtal>:
 *       VDDIO power supply.
 *
 * \param ul_bypass 0 for Xtal, 1 for bypass.
 */
void pmc_switch_sclk_to_32kxtal(uint32_t ul_bypass)
{
  400a38:	b480      	push	{r7}
  400a3a:	b083      	sub	sp, #12
  400a3c:	af00      	add	r7, sp, #0
  400a3e:	6078      	str	r0, [r7, #4]
	/* Set Bypass mode if required */
	if (ul_bypass == 1) {
  400a40:	687b      	ldr	r3, [r7, #4]
  400a42:	2b01      	cmp	r3, #1
  400a44:	d105      	bne.n	400a52 <pmc_switch_sclk_to_32kxtal+0x1a>
		SUPC->SUPC_MR |= SUPC_MR_KEY_PASSWD |
  400a46:	4907      	ldr	r1, [pc, #28]	; (400a64 <pmc_switch_sclk_to_32kxtal+0x2c>)
  400a48:	4b06      	ldr	r3, [pc, #24]	; (400a64 <pmc_switch_sclk_to_32kxtal+0x2c>)
  400a4a:	689a      	ldr	r2, [r3, #8]
  400a4c:	4b06      	ldr	r3, [pc, #24]	; (400a68 <pmc_switch_sclk_to_32kxtal+0x30>)
  400a4e:	4313      	orrs	r3, r2
  400a50:	608b      	str	r3, [r1, #8]
			SUPC_MR_OSCBYPASS;
	}

	SUPC->SUPC_CR = SUPC_CR_KEY_PASSWD | SUPC_CR_XTALSEL;
  400a52:	4b04      	ldr	r3, [pc, #16]	; (400a64 <pmc_switch_sclk_to_32kxtal+0x2c>)
  400a54:	4a05      	ldr	r2, [pc, #20]	; (400a6c <pmc_switch_sclk_to_32kxtal+0x34>)
  400a56:	601a      	str	r2, [r3, #0]
}
  400a58:	bf00      	nop
  400a5a:	370c      	adds	r7, #12
  400a5c:	46bd      	mov	sp, r7
  400a5e:	f85d 7b04 	ldr.w	r7, [sp], #4
  400a62:	4770      	bx	lr
  400a64:	400e1810 	.word	0x400e1810
  400a68:	a5100000 	.word	0xa5100000
  400a6c:	a5000008 	.word	0xa5000008

00400a70 <pmc_osc_is_ready_32kxtal>:
 *
 * \retval 1 External 32k Xtal is ready.
 * \retval 0 External 32k Xtal is not ready.
 */
uint32_t pmc_osc_is_ready_32kxtal(void)
{
  400a70:	b480      	push	{r7}
  400a72:	af00      	add	r7, sp, #0
	return ((SUPC->SUPC_SR & SUPC_SR_OSCSEL)
  400a74:	4b09      	ldr	r3, [pc, #36]	; (400a9c <pmc_osc_is_ready_32kxtal+0x2c>)
  400a76:	695b      	ldr	r3, [r3, #20]
  400a78:	f003 0380 	and.w	r3, r3, #128	; 0x80
			&& (PMC->PMC_SR & PMC_SR_OSCSELS));
  400a7c:	2b00      	cmp	r3, #0
  400a7e:	d007      	beq.n	400a90 <pmc_osc_is_ready_32kxtal+0x20>
  400a80:	4b07      	ldr	r3, [pc, #28]	; (400aa0 <pmc_osc_is_ready_32kxtal+0x30>)
  400a82:	6e9b      	ldr	r3, [r3, #104]	; 0x68
  400a84:	f003 0380 	and.w	r3, r3, #128	; 0x80
  400a88:	2b00      	cmp	r3, #0
  400a8a:	d001      	beq.n	400a90 <pmc_osc_is_ready_32kxtal+0x20>
  400a8c:	2301      	movs	r3, #1
  400a8e:	e000      	b.n	400a92 <pmc_osc_is_ready_32kxtal+0x22>
  400a90:	2300      	movs	r3, #0
}
  400a92:	4618      	mov	r0, r3
  400a94:	46bd      	mov	sp, r7
  400a96:	f85d 7b04 	ldr.w	r7, [sp], #4
  400a9a:	4770      	bx	lr
  400a9c:	400e1810 	.word	0x400e1810
  400aa0:	400e0600 	.word	0x400e0600

00400aa4 <pmc_switch_mainck_to_fastrc>:
 * \retval 0 Success.
 * \retval 1 Timeout error.
 * \retval 2 Invalid frequency.
 */
void pmc_switch_mainck_to_fastrc(uint32_t ul_moscrcf)
{
  400aa4:	b480      	push	{r7}
  400aa6:	b083      	sub	sp, #12
  400aa8:	af00      	add	r7, sp, #0
  400aaa:	6078      	str	r0, [r7, #4]
	/* Enable Fast RC oscillator but DO NOT switch to RC now */
	PMC->CKGR_MOR |= (CKGR_MOR_KEY_PASSWD | CKGR_MOR_MOSCRCEN);
  400aac:	4915      	ldr	r1, [pc, #84]	; (400b04 <pmc_switch_mainck_to_fastrc+0x60>)
  400aae:	4b15      	ldr	r3, [pc, #84]	; (400b04 <pmc_switch_mainck_to_fastrc+0x60>)
  400ab0:	6a1a      	ldr	r2, [r3, #32]
  400ab2:	4b15      	ldr	r3, [pc, #84]	; (400b08 <pmc_switch_mainck_to_fastrc+0x64>)
  400ab4:	4313      	orrs	r3, r2
  400ab6:	620b      	str	r3, [r1, #32]

	/* Wait the Fast RC to stabilize */
	while (!(PMC->PMC_SR & PMC_SR_MOSCRCS));
  400ab8:	bf00      	nop
  400aba:	4b12      	ldr	r3, [pc, #72]	; (400b04 <pmc_switch_mainck_to_fastrc+0x60>)
  400abc:	6e9b      	ldr	r3, [r3, #104]	; 0x68
  400abe:	f403 3300 	and.w	r3, r3, #131072	; 0x20000
  400ac2:	2b00      	cmp	r3, #0
  400ac4:	d0f9      	beq.n	400aba <pmc_switch_mainck_to_fastrc+0x16>

	/* Change Fast RC oscillator frequency */
	PMC->CKGR_MOR = (PMC->CKGR_MOR & ~CKGR_MOR_MOSCRCF_Msk) |
  400ac6:	490f      	ldr	r1, [pc, #60]	; (400b04 <pmc_switch_mainck_to_fastrc+0x60>)
  400ac8:	4b0e      	ldr	r3, [pc, #56]	; (400b04 <pmc_switch_mainck_to_fastrc+0x60>)
  400aca:	6a1a      	ldr	r2, [r3, #32]
  400acc:	4b0f      	ldr	r3, [pc, #60]	; (400b0c <pmc_switch_mainck_to_fastrc+0x68>)
  400ace:	4013      	ands	r3, r2
			CKGR_MOR_KEY_PASSWD | ul_moscrcf;
  400ad0:	687a      	ldr	r2, [r7, #4]
  400ad2:	4313      	orrs	r3, r2
  400ad4:	f443 135c 	orr.w	r3, r3, #3604480	; 0x370000
	PMC->CKGR_MOR = (PMC->CKGR_MOR & ~CKGR_MOR_MOSCRCF_Msk) |
  400ad8:	620b      	str	r3, [r1, #32]

	/* Wait the Fast RC to stabilize */
	while (!(PMC->PMC_SR & PMC_SR_MOSCRCS));
  400ada:	bf00      	nop
  400adc:	4b09      	ldr	r3, [pc, #36]	; (400b04 <pmc_switch_mainck_to_fastrc+0x60>)
  400ade:	6e9b      	ldr	r3, [r3, #104]	; 0x68
  400ae0:	f403 3300 	and.w	r3, r3, #131072	; 0x20000
  400ae4:	2b00      	cmp	r3, #0
  400ae6:	d0f9      	beq.n	400adc <pmc_switch_mainck_to_fastrc+0x38>

	/* Switch to Fast RC */
	PMC->CKGR_MOR = (PMC->CKGR_MOR & ~CKGR_MOR_MOSCSEL) |
  400ae8:	4906      	ldr	r1, [pc, #24]	; (400b04 <pmc_switch_mainck_to_fastrc+0x60>)
  400aea:	4b06      	ldr	r3, [pc, #24]	; (400b04 <pmc_switch_mainck_to_fastrc+0x60>)
  400aec:	6a1a      	ldr	r2, [r3, #32]
  400aee:	4b08      	ldr	r3, [pc, #32]	; (400b10 <pmc_switch_mainck_to_fastrc+0x6c>)
  400af0:	4013      	ands	r3, r2
  400af2:	f443 135c 	orr.w	r3, r3, #3604480	; 0x370000
  400af6:	620b      	str	r3, [r1, #32]
			CKGR_MOR_KEY_PASSWD;
}
  400af8:	bf00      	nop
  400afa:	370c      	adds	r7, #12
  400afc:	46bd      	mov	sp, r7
  400afe:	f85d 7b04 	ldr.w	r7, [sp], #4
  400b02:	4770      	bx	lr
  400b04:	400e0600 	.word	0x400e0600
  400b08:	00370008 	.word	0x00370008
  400b0c:	ffc8ff8f 	.word	0xffc8ff8f
  400b10:	fec8ffff 	.word	0xfec8ffff

00400b14 <pmc_switch_mainck_to_xtal>:
 * \retval 0 Success.
 * \retval 1 Timeout error.
 */
void pmc_switch_mainck_to_xtal(uint32_t ul_bypass,
		uint32_t ul_xtal_startup_time)
{
  400b14:	b480      	push	{r7}
  400b16:	b083      	sub	sp, #12
  400b18:	af00      	add	r7, sp, #0
  400b1a:	6078      	str	r0, [r7, #4]
  400b1c:	6039      	str	r1, [r7, #0]
	/* Enable Main Xtal oscillator */
	if (ul_bypass) {
  400b1e:	687b      	ldr	r3, [r7, #4]
  400b20:	2b00      	cmp	r3, #0
  400b22:	d008      	beq.n	400b36 <pmc_switch_mainck_to_xtal+0x22>
		PMC->CKGR_MOR = (PMC->CKGR_MOR & ~CKGR_MOR_MOSCXTEN) |
  400b24:	4913      	ldr	r1, [pc, #76]	; (400b74 <pmc_switch_mainck_to_xtal+0x60>)
  400b26:	4b13      	ldr	r3, [pc, #76]	; (400b74 <pmc_switch_mainck_to_xtal+0x60>)
  400b28:	6a1b      	ldr	r3, [r3, #32]
				CKGR_MOR_KEY_PASSWD | CKGR_MOR_MOSCXTBY |
  400b2a:	4a13      	ldr	r2, [pc, #76]	; (400b78 <pmc_switch_mainck_to_xtal+0x64>)
  400b2c:	401a      	ands	r2, r3
  400b2e:	4b13      	ldr	r3, [pc, #76]	; (400b7c <pmc_switch_mainck_to_xtal+0x68>)
  400b30:	4313      	orrs	r3, r2
		PMC->CKGR_MOR = (PMC->CKGR_MOR & ~CKGR_MOR_MOSCXTEN) |
  400b32:	620b      	str	r3, [r1, #32]
		/* Wait the Xtal to stabilize */
		while (!(PMC->PMC_SR & PMC_SR_MOSCXTS));

		PMC->CKGR_MOR |= CKGR_MOR_KEY_PASSWD | CKGR_MOR_MOSCSEL;
	}
}
  400b34:	e018      	b.n	400b68 <pmc_switch_mainck_to_xtal+0x54>
		PMC->CKGR_MOR = (PMC->CKGR_MOR & ~CKGR_MOR_MOSCXTBY) |
  400b36:	490f      	ldr	r1, [pc, #60]	; (400b74 <pmc_switch_mainck_to_xtal+0x60>)
  400b38:	4b0e      	ldr	r3, [pc, #56]	; (400b74 <pmc_switch_mainck_to_xtal+0x60>)
  400b3a:	6a1a      	ldr	r2, [r3, #32]
				CKGR_MOR_KEY_PASSWD | CKGR_MOR_MOSCXTEN |
  400b3c:	4b10      	ldr	r3, [pc, #64]	; (400b80 <pmc_switch_mainck_to_xtal+0x6c>)
  400b3e:	4013      	ands	r3, r2
				CKGR_MOR_MOSCXTST(ul_xtal_startup_time);
  400b40:	683a      	ldr	r2, [r7, #0]
  400b42:	0212      	lsls	r2, r2, #8
  400b44:	b292      	uxth	r2, r2
				CKGR_MOR_KEY_PASSWD | CKGR_MOR_MOSCXTEN |
  400b46:	431a      	orrs	r2, r3
  400b48:	4b0e      	ldr	r3, [pc, #56]	; (400b84 <pmc_switch_mainck_to_xtal+0x70>)
  400b4a:	4313      	orrs	r3, r2
		PMC->CKGR_MOR = (PMC->CKGR_MOR & ~CKGR_MOR_MOSCXTBY) |
  400b4c:	620b      	str	r3, [r1, #32]
		while (!(PMC->PMC_SR & PMC_SR_MOSCXTS));
  400b4e:	bf00      	nop
  400b50:	4b08      	ldr	r3, [pc, #32]	; (400b74 <pmc_switch_mainck_to_xtal+0x60>)
  400b52:	6e9b      	ldr	r3, [r3, #104]	; 0x68
  400b54:	f003 0301 	and.w	r3, r3, #1
  400b58:	2b00      	cmp	r3, #0
  400b5a:	d0f9      	beq.n	400b50 <pmc_switch_mainck_to_xtal+0x3c>
		PMC->CKGR_MOR |= CKGR_MOR_KEY_PASSWD | CKGR_MOR_MOSCSEL;
  400b5c:	4905      	ldr	r1, [pc, #20]	; (400b74 <pmc_switch_mainck_to_xtal+0x60>)
  400b5e:	4b05      	ldr	r3, [pc, #20]	; (400b74 <pmc_switch_mainck_to_xtal+0x60>)
  400b60:	6a1a      	ldr	r2, [r3, #32]
  400b62:	4b09      	ldr	r3, [pc, #36]	; (400b88 <pmc_switch_mainck_to_xtal+0x74>)
  400b64:	4313      	orrs	r3, r2
  400b66:	620b      	str	r3, [r1, #32]
}
  400b68:	bf00      	nop
  400b6a:	370c      	adds	r7, #12
  400b6c:	46bd      	mov	sp, r7
  400b6e:	f85d 7b04 	ldr.w	r7, [sp], #4
  400b72:	4770      	bx	lr
  400b74:	400e0600 	.word	0x400e0600
  400b78:	fec8fffc 	.word	0xfec8fffc
  400b7c:	01370002 	.word	0x01370002
  400b80:	ffc8fffc 	.word	0xffc8fffc
  400b84:	00370001 	.word	0x00370001
  400b88:	01370000 	.word	0x01370000

00400b8c <pmc_osc_is_ready_mainck>:
 *
 * \retval 1 Xtal is ready.
 * \retval 0 Xtal is not ready.
 */
uint32_t pmc_osc_is_ready_mainck(void)
{
  400b8c:	b480      	push	{r7}
  400b8e:	af00      	add	r7, sp, #0
	return PMC->PMC_SR & PMC_SR_MOSCSELS;
  400b90:	4b04      	ldr	r3, [pc, #16]	; (400ba4 <pmc_osc_is_ready_mainck+0x18>)
  400b92:	6e9b      	ldr	r3, [r3, #104]	; 0x68
  400b94:	f403 3380 	and.w	r3, r3, #65536	; 0x10000
}
  400b98:	4618      	mov	r0, r3
  400b9a:	46bd      	mov	sp, r7
  400b9c:	f85d 7b04 	ldr.w	r7, [sp], #4
  400ba0:	4770      	bx	lr
  400ba2:	bf00      	nop
  400ba4:	400e0600 	.word	0x400e0600

00400ba8 <pmc_disable_pllack>:

/**
 * \brief Disable PLLA clock.
 */
void pmc_disable_pllack(void)
{
  400ba8:	b480      	push	{r7}
  400baa:	af00      	add	r7, sp, #0
#if (SAM4C || SAM4CM || SAM4CP || SAMG)
	PMC->CKGR_PLLAR = CKGR_PLLAR_MULA(0);
#else
	PMC->CKGR_PLLAR = CKGR_PLLAR_ONE | CKGR_PLLAR_MULA(0);
  400bac:	4b04      	ldr	r3, [pc, #16]	; (400bc0 <pmc_disable_pllack+0x18>)
  400bae:	f04f 5200 	mov.w	r2, #536870912	; 0x20000000
  400bb2:	629a      	str	r2, [r3, #40]	; 0x28
#endif
}
  400bb4:	bf00      	nop
  400bb6:	46bd      	mov	sp, r7
  400bb8:	f85d 7b04 	ldr.w	r7, [sp], #4
  400bbc:	4770      	bx	lr
  400bbe:	bf00      	nop
  400bc0:	400e0600 	.word	0x400e0600

00400bc4 <pmc_is_locked_pllack>:
 *
 * \retval 0 Not locked.
 * \retval 1 Locked.
 */
uint32_t pmc_is_locked_pllack(void)
{
  400bc4:	b480      	push	{r7}
  400bc6:	af00      	add	r7, sp, #0
	return (PMC->PMC_SR & PMC_SR_LOCKA);
  400bc8:	4b04      	ldr	r3, [pc, #16]	; (400bdc <pmc_is_locked_pllack+0x18>)
  400bca:	6e9b      	ldr	r3, [r3, #104]	; 0x68
  400bcc:	f003 0302 	and.w	r3, r3, #2
}
  400bd0:	4618      	mov	r0, r3
  400bd2:	46bd      	mov	sp, r7
  400bd4:	f85d 7b04 	ldr.w	r7, [sp], #4
  400bd8:	4770      	bx	lr
  400bda:	bf00      	nop
  400bdc:	400e0600 	.word	0x400e0600

00400be0 <pmc_is_locked_upll>:
 *
 * \retval 0 Not locked.
 * \retval 1 Locked.
 */
uint32_t pmc_is_locked_upll(void)
{
  400be0:	b480      	push	{r7}
  400be2:	af00      	add	r7, sp, #0
	return (PMC->PMC_SR & PMC_SR_LOCKU);
  400be4:	4b04      	ldr	r3, [pc, #16]	; (400bf8 <pmc_is_locked_upll+0x18>)
  400be6:	6e9b      	ldr	r3, [r3, #104]	; 0x68
  400be8:	f003 0340 	and.w	r3, r3, #64	; 0x40
}
  400bec:	4618      	mov	r0, r3
  400bee:	46bd      	mov	sp, r7
  400bf0:	f85d 7b04 	ldr.w	r7, [sp], #4
  400bf4:	4770      	bx	lr
  400bf6:	bf00      	nop
  400bf8:	400e0600 	.word	0x400e0600

00400bfc <pmc_enable_periph_clk>:
 *
 * \retval 0 Success.
 * \retval 1 Invalid parameter.
 */
uint32_t pmc_enable_periph_clk(uint32_t ul_id)
{
  400bfc:	b480      	push	{r7}
  400bfe:	b083      	sub	sp, #12
  400c00:	af00      	add	r7, sp, #0
  400c02:	6078      	str	r0, [r7, #4]
	if (ul_id > MAX_PERIPH_ID) {
  400c04:	687b      	ldr	r3, [r7, #4]
  400c06:	2b3f      	cmp	r3, #63	; 0x3f
  400c08:	d901      	bls.n	400c0e <pmc_enable_periph_clk+0x12>
		return 1;
  400c0a:	2301      	movs	r3, #1
  400c0c:	e02f      	b.n	400c6e <pmc_enable_periph_clk+0x72>
	}

	if (ul_id < 32) {
  400c0e:	687b      	ldr	r3, [r7, #4]
  400c10:	2b1f      	cmp	r3, #31
  400c12:	d813      	bhi.n	400c3c <pmc_enable_periph_clk+0x40>
		if ((PMC->PMC_PCSR0 & (1u << ul_id)) != (1u << ul_id)) {
  400c14:	4b19      	ldr	r3, [pc, #100]	; (400c7c <pmc_enable_periph_clk+0x80>)
  400c16:	699a      	ldr	r2, [r3, #24]
  400c18:	2101      	movs	r1, #1
  400c1a:	687b      	ldr	r3, [r7, #4]
  400c1c:	fa01 f303 	lsl.w	r3, r1, r3
  400c20:	401a      	ands	r2, r3
  400c22:	2101      	movs	r1, #1
  400c24:	687b      	ldr	r3, [r7, #4]
  400c26:	fa01 f303 	lsl.w	r3, r1, r3
  400c2a:	429a      	cmp	r2, r3
  400c2c:	d01e      	beq.n	400c6c <pmc_enable_periph_clk+0x70>
			PMC->PMC_PCER0 = 1 << ul_id;
  400c2e:	4a13      	ldr	r2, [pc, #76]	; (400c7c <pmc_enable_periph_clk+0x80>)
  400c30:	2101      	movs	r1, #1
  400c32:	687b      	ldr	r3, [r7, #4]
  400c34:	fa01 f303 	lsl.w	r3, r1, r3
  400c38:	6113      	str	r3, [r2, #16]
  400c3a:	e017      	b.n	400c6c <pmc_enable_periph_clk+0x70>
		}
#if (SAM3S || SAM3XA || SAM4S || SAM4E || SAM4C || SAM4CM || SAM4CP || SAMG55 || SAMV71 || SAMV70 || SAME70 || SAMS70)
	} else {
		ul_id -= 32;
  400c3c:	687b      	ldr	r3, [r7, #4]
  400c3e:	3b20      	subs	r3, #32
  400c40:	607b      	str	r3, [r7, #4]
		if ((PMC->PMC_PCSR1 & (1u << ul_id)) != (1u << ul_id)) {
  400c42:	4b0e      	ldr	r3, [pc, #56]	; (400c7c <pmc_enable_periph_clk+0x80>)
  400c44:	f8d3 2108 	ldr.w	r2, [r3, #264]	; 0x108
  400c48:	2101      	movs	r1, #1
  400c4a:	687b      	ldr	r3, [r7, #4]
  400c4c:	fa01 f303 	lsl.w	r3, r1, r3
  400c50:	401a      	ands	r2, r3
  400c52:	2101      	movs	r1, #1
  400c54:	687b      	ldr	r3, [r7, #4]
  400c56:	fa01 f303 	lsl.w	r3, r1, r3
  400c5a:	429a      	cmp	r2, r3
  400c5c:	d006      	beq.n	400c6c <pmc_enable_periph_clk+0x70>
			PMC->PMC_PCER1 = 1 << ul_id;
  400c5e:	4a07      	ldr	r2, [pc, #28]	; (400c7c <pmc_enable_periph_clk+0x80>)
  400c60:	2101      	movs	r1, #1
  400c62:	687b      	ldr	r3, [r7, #4]
  400c64:	fa01 f303 	lsl.w	r3, r1, r3
  400c68:	f8c2 3100 	str.w	r3, [r2, #256]	; 0x100
		}
#endif
	}

	return 0;
  400c6c:	2300      	movs	r3, #0
}
  400c6e:	4618      	mov	r0, r3
  400c70:	370c      	adds	r7, #12
  400c72:	46bd      	mov	sp, r7
  400c74:	f85d 7b04 	ldr.w	r7, [sp], #4
  400c78:	4770      	bx	lr
  400c7a:	bf00      	nop
  400c7c:	400e0600 	.word	0x400e0600

00400c80 <pmc_disable_periph_clk>:
 *
 * \retval 0 Success.
 * \retval 1 Invalid parameter.
 */
uint32_t pmc_disable_periph_clk(uint32_t ul_id)
{
  400c80:	b480      	push	{r7}
  400c82:	b083      	sub	sp, #12
  400c84:	af00      	add	r7, sp, #0
  400c86:	6078      	str	r0, [r7, #4]
	if (ul_id > MAX_PERIPH_ID) {
  400c88:	687b      	ldr	r3, [r7, #4]
  400c8a:	2b3f      	cmp	r3, #63	; 0x3f
  400c8c:	d901      	bls.n	400c92 <pmc_disable_periph_clk+0x12>
		return 1;
  400c8e:	2301      	movs	r3, #1
  400c90:	e02f      	b.n	400cf2 <pmc_disable_periph_clk+0x72>
	}

	if (ul_id < 32) {
  400c92:	687b      	ldr	r3, [r7, #4]
  400c94:	2b1f      	cmp	r3, #31
  400c96:	d813      	bhi.n	400cc0 <pmc_disable_periph_clk+0x40>
		if ((PMC->PMC_PCSR0 & (1u << ul_id)) == (1u << ul_id)) {
  400c98:	4b19      	ldr	r3, [pc, #100]	; (400d00 <pmc_disable_periph_clk+0x80>)
  400c9a:	699a      	ldr	r2, [r3, #24]
  400c9c:	2101      	movs	r1, #1
  400c9e:	687b      	ldr	r3, [r7, #4]
  400ca0:	fa01 f303 	lsl.w	r3, r1, r3
  400ca4:	401a      	ands	r2, r3
  400ca6:	2101      	movs	r1, #1
  400ca8:	687b      	ldr	r3, [r7, #4]
  400caa:	fa01 f303 	lsl.w	r3, r1, r3
  400cae:	429a      	cmp	r2, r3
  400cb0:	d11e      	bne.n	400cf0 <pmc_disable_periph_clk+0x70>
			PMC->PMC_PCDR0 = 1 << ul_id;
  400cb2:	4a13      	ldr	r2, [pc, #76]	; (400d00 <pmc_disable_periph_clk+0x80>)
  400cb4:	2101      	movs	r1, #1
  400cb6:	687b      	ldr	r3, [r7, #4]
  400cb8:	fa01 f303 	lsl.w	r3, r1, r3
  400cbc:	6153      	str	r3, [r2, #20]
  400cbe:	e017      	b.n	400cf0 <pmc_disable_periph_clk+0x70>
		}
#if (SAM3S || SAM3XA || SAM4S || SAM4E || SAM4C || SAM4CM || SAM4CP || SAMG55 || SAMV71 \
		|| SAMV70 || SAME70 || SAMS70)
	} else {
		ul_id -= 32;
  400cc0:	687b      	ldr	r3, [r7, #4]
  400cc2:	3b20      	subs	r3, #32
  400cc4:	607b      	str	r3, [r7, #4]
		if ((PMC->PMC_PCSR1 & (1u << ul_id)) == (1u << ul_id)) {
  400cc6:	4b0e      	ldr	r3, [pc, #56]	; (400d00 <pmc_disable_periph_clk+0x80>)
  400cc8:	f8d3 2108 	ldr.w	r2, [r3, #264]	; 0x108
  400ccc:	2101      	movs	r1, #1
  400cce:	687b      	ldr	r3, [r7, #4]
  400cd0:	fa01 f303 	lsl.w	r3, r1, r3
  400cd4:	401a      	ands	r2, r3
  400cd6:	2101      	movs	r1, #1
  400cd8:	687b      	ldr	r3, [r7, #4]
  400cda:	fa01 f303 	lsl.w	r3, r1, r3
  400cde:	429a      	cmp	r2, r3
  400ce0:	d106      	bne.n	400cf0 <pmc_disable_periph_clk+0x70>
			PMC->PMC_PCDR1 = 1 << ul_id;
  400ce2:	4a07      	ldr	r2, [pc, #28]	; (400d00 <pmc_disable_periph_clk+0x80>)
  400ce4:	2101      	movs	r1, #1
  400ce6:	687b      	ldr	r3, [r7, #4]
  400ce8:	fa01 f303 	lsl.w	r3, r1, r3
  400cec:	f8c2 3104 	str.w	r3, [r2, #260]	; 0x104
		}
#endif
	}
	return 0;
  400cf0:	2300      	movs	r3, #0
}
  400cf2:	4618      	mov	r0, r3
  400cf4:	370c      	adds	r7, #12
  400cf6:	46bd      	mov	sp, r7
  400cf8:	f85d 7b04 	ldr.w	r7, [sp], #4
  400cfc:	4770      	bx	lr
  400cfe:	bf00      	nop
  400d00:	400e0600 	.word	0x400e0600

00400d04 <rtc_set_hour_mode>:
 *
 * \param p_rtc Pointer to an RTC instance.
 * \param ul_mode 1 for 12-hour mode, 0 for 24-hour mode.
 */
void rtc_set_hour_mode(Rtc *p_rtc, uint32_t ul_mode)
{
  400d04:	b480      	push	{r7}
  400d06:	b083      	sub	sp, #12
  400d08:	af00      	add	r7, sp, #0
  400d0a:	6078      	str	r0, [r7, #4]
  400d0c:	6039      	str	r1, [r7, #0]
	if (ul_mode) {
  400d0e:	683b      	ldr	r3, [r7, #0]
  400d10:	2b00      	cmp	r3, #0
  400d12:	d006      	beq.n	400d22 <rtc_set_hour_mode+0x1e>
		p_rtc->RTC_MR |= RTC_MR_HRMOD;
  400d14:	687b      	ldr	r3, [r7, #4]
  400d16:	685b      	ldr	r3, [r3, #4]
  400d18:	f043 0201 	orr.w	r2, r3, #1
  400d1c:	687b      	ldr	r3, [r7, #4]
  400d1e:	605a      	str	r2, [r3, #4]
	} else {
		p_rtc->RTC_MR &= (~RTC_MR_HRMOD);
	}
}
  400d20:	e005      	b.n	400d2e <rtc_set_hour_mode+0x2a>
		p_rtc->RTC_MR &= (~RTC_MR_HRMOD);
  400d22:	687b      	ldr	r3, [r7, #4]
  400d24:	685b      	ldr	r3, [r3, #4]
  400d26:	f023 0201 	bic.w	r2, r3, #1
  400d2a:	687b      	ldr	r3, [r7, #4]
  400d2c:	605a      	str	r2, [r3, #4]
}
  400d2e:	bf00      	nop
  400d30:	370c      	adds	r7, #12
  400d32:	46bd      	mov	sp, r7
  400d34:	f85d 7b04 	ldr.w	r7, [sp], #4
  400d38:	4770      	bx	lr

00400d3a <rtc_enable_interrupt>:
 *
 * \param p_rtc Pointer to an RTC instance.
 * \param ul_sources Interrupts to be enabled.
 */
void rtc_enable_interrupt(Rtc *p_rtc, uint32_t ul_sources)
{
  400d3a:	b480      	push	{r7}
  400d3c:	b083      	sub	sp, #12
  400d3e:	af00      	add	r7, sp, #0
  400d40:	6078      	str	r0, [r7, #4]
  400d42:	6039      	str	r1, [r7, #0]
	p_rtc->RTC_IER = ul_sources;
  400d44:	687b      	ldr	r3, [r7, #4]
  400d46:	683a      	ldr	r2, [r7, #0]
  400d48:	621a      	str	r2, [r3, #32]
}
  400d4a:	bf00      	nop
  400d4c:	370c      	adds	r7, #12
  400d4e:	46bd      	mov	sp, r7
  400d50:	f85d 7b04 	ldr.w	r7, [sp], #4
  400d54:	4770      	bx	lr

00400d56 <rtc_get_time>:
 * \param pul_minute Current minute.
 * \param pul_second Current second.
 */
void rtc_get_time(Rtc *p_rtc, uint32_t *pul_hour, uint32_t *pul_minute,
		uint32_t *pul_second)
{
  400d56:	b480      	push	{r7}
  400d58:	b087      	sub	sp, #28
  400d5a:	af00      	add	r7, sp, #0
  400d5c:	60f8      	str	r0, [r7, #12]
  400d5e:	60b9      	str	r1, [r7, #8]
  400d60:	607a      	str	r2, [r7, #4]
  400d62:	603b      	str	r3, [r7, #0]
	uint32_t ul_time;
	uint32_t ul_temp;

	/* Get the current RTC time (multiple reads are necessary to insure a stable value). */
	ul_time = p_rtc->RTC_TIMR;
  400d64:	68fb      	ldr	r3, [r7, #12]
  400d66:	689b      	ldr	r3, [r3, #8]
  400d68:	617b      	str	r3, [r7, #20]
	while (ul_time != p_rtc->RTC_TIMR) {
  400d6a:	e002      	b.n	400d72 <rtc_get_time+0x1c>
		ul_time = p_rtc->RTC_TIMR;
  400d6c:	68fb      	ldr	r3, [r7, #12]
  400d6e:	689b      	ldr	r3, [r3, #8]
  400d70:	617b      	str	r3, [r7, #20]
	while (ul_time != p_rtc->RTC_TIMR) {
  400d72:	68fb      	ldr	r3, [r7, #12]
  400d74:	689a      	ldr	r2, [r3, #8]
  400d76:	697b      	ldr	r3, [r7, #20]
  400d78:	429a      	cmp	r2, r3
  400d7a:	d1f7      	bne.n	400d6c <rtc_get_time+0x16>
	}

	/* Hour */
	if (pul_hour) {
  400d7c:	68bb      	ldr	r3, [r7, #8]
  400d7e:	2b00      	cmp	r3, #0
  400d80:	d01c      	beq.n	400dbc <rtc_get_time+0x66>
		ul_temp = (ul_time & RTC_TIMR_HOUR_Msk) >> RTC_TIMR_HOUR_Pos;
  400d82:	697b      	ldr	r3, [r7, #20]
  400d84:	0c1b      	lsrs	r3, r3, #16
  400d86:	f003 033f 	and.w	r3, r3, #63	; 0x3f
  400d8a:	613b      	str	r3, [r7, #16]
		*pul_hour = (ul_temp >> BCD_SHIFT) * BCD_FACTOR + (ul_temp & BCD_MASK);
  400d8c:	693b      	ldr	r3, [r7, #16]
  400d8e:	091a      	lsrs	r2, r3, #4
  400d90:	4613      	mov	r3, r2
  400d92:	009b      	lsls	r3, r3, #2
  400d94:	4413      	add	r3, r2
  400d96:	005b      	lsls	r3, r3, #1
  400d98:	461a      	mov	r2, r3
  400d9a:	693b      	ldr	r3, [r7, #16]
  400d9c:	f003 030f 	and.w	r3, r3, #15
  400da0:	441a      	add	r2, r3
  400da2:	68bb      	ldr	r3, [r7, #8]
  400da4:	601a      	str	r2, [r3, #0]

		if ((ul_time & RTC_TIMR_AMPM) == RTC_TIMR_AMPM) {
  400da6:	697b      	ldr	r3, [r7, #20]
  400da8:	f403 0380 	and.w	r3, r3, #4194304	; 0x400000
  400dac:	2b00      	cmp	r3, #0
  400dae:	d005      	beq.n	400dbc <rtc_get_time+0x66>
			*pul_hour += 12;
  400db0:	68bb      	ldr	r3, [r7, #8]
  400db2:	681b      	ldr	r3, [r3, #0]
  400db4:	f103 020c 	add.w	r2, r3, #12
  400db8:	68bb      	ldr	r3, [r7, #8]
  400dba:	601a      	str	r2, [r3, #0]
		}
	}

	/* Minute */
	if (pul_minute) {
  400dbc:	687b      	ldr	r3, [r7, #4]
  400dbe:	2b00      	cmp	r3, #0
  400dc0:	d011      	beq.n	400de6 <rtc_get_time+0x90>
		ul_temp = (ul_time & RTC_TIMR_MIN_Msk) >> RTC_TIMR_MIN_Pos;
  400dc2:	697b      	ldr	r3, [r7, #20]
  400dc4:	0a1b      	lsrs	r3, r3, #8
  400dc6:	f003 037f 	and.w	r3, r3, #127	; 0x7f
  400dca:	613b      	str	r3, [r7, #16]
		*pul_minute = (ul_temp >> BCD_SHIFT) * BCD_FACTOR +  (ul_temp & BCD_MASK);
  400dcc:	693b      	ldr	r3, [r7, #16]
  400dce:	091a      	lsrs	r2, r3, #4
  400dd0:	4613      	mov	r3, r2
  400dd2:	009b      	lsls	r3, r3, #2
  400dd4:	4413      	add	r3, r2
  400dd6:	005b      	lsls	r3, r3, #1
  400dd8:	461a      	mov	r2, r3
  400dda:	693b      	ldr	r3, [r7, #16]
  400ddc:	f003 030f 	and.w	r3, r3, #15
  400de0:	441a      	add	r2, r3
  400de2:	687b      	ldr	r3, [r7, #4]
  400de4:	601a      	str	r2, [r3, #0]
	}

	/* Second */
	if (pul_second) {
  400de6:	683b      	ldr	r3, [r7, #0]
  400de8:	2b00      	cmp	r3, #0
  400dea:	d010      	beq.n	400e0e <rtc_get_time+0xb8>
		ul_temp = (ul_time & RTC_TIMR_SEC_Msk) >> RTC_TIMR_SEC_Pos;
  400dec:	697b      	ldr	r3, [r7, #20]
  400dee:	f003 037f 	and.w	r3, r3, #127	; 0x7f
  400df2:	613b      	str	r3, [r7, #16]
		*pul_second = (ul_temp >> BCD_SHIFT) * BCD_FACTOR + (ul_temp & BCD_MASK);
  400df4:	693b      	ldr	r3, [r7, #16]
  400df6:	091a      	lsrs	r2, r3, #4
  400df8:	4613      	mov	r3, r2
  400dfa:	009b      	lsls	r3, r3, #2
  400dfc:	4413      	add	r3, r2
  400dfe:	005b      	lsls	r3, r3, #1
  400e00:	461a      	mov	r2, r3
  400e02:	693b      	ldr	r3, [r7, #16]
  400e04:	f003 030f 	and.w	r3, r3, #15
  400e08:	441a      	add	r2, r3
  400e0a:	683b      	ldr	r3, [r7, #0]
  400e0c:	601a      	str	r2, [r3, #0]
	}
}
  400e0e:	bf00      	nop
  400e10:	371c      	adds	r7, #28
  400e12:	46bd      	mov	sp, r7
  400e14:	f85d 7b04 	ldr.w	r7, [sp], #4
  400e18:	4770      	bx	lr
	...

00400e1c <rtc_set_time>:
 *
 * \return 0 for OK, else invalid setting.
 */
uint32_t rtc_set_time(Rtc *p_rtc, uint32_t ul_hour, uint32_t ul_minute,
		uint32_t ul_second)
{
  400e1c:	b480      	push	{r7}
  400e1e:	b087      	sub	sp, #28
  400e20:	af00      	add	r7, sp, #0
  400e22:	60f8      	str	r0, [r7, #12]
  400e24:	60b9      	str	r1, [r7, #8]
  400e26:	607a      	str	r2, [r7, #4]
  400e28:	603b      	str	r3, [r7, #0]
	uint32_t ul_time = 0;
  400e2a:	2300      	movs	r3, #0
  400e2c:	617b      	str	r3, [r7, #20]

	/* If 12-hour mode, set AMPM bit */
	if ((p_rtc->RTC_MR & RTC_MR_HRMOD) == RTC_MR_HRMOD) {
  400e2e:	68fb      	ldr	r3, [r7, #12]
  400e30:	685b      	ldr	r3, [r3, #4]
  400e32:	f003 0301 	and.w	r3, r3, #1
  400e36:	2b01      	cmp	r3, #1
  400e38:	d109      	bne.n	400e4e <rtc_set_time+0x32>
		if (ul_hour > 12) {
  400e3a:	68bb      	ldr	r3, [r7, #8]
  400e3c:	2b0c      	cmp	r3, #12
  400e3e:	d906      	bls.n	400e4e <rtc_set_time+0x32>
			ul_hour -= 12;
  400e40:	68bb      	ldr	r3, [r7, #8]
  400e42:	3b0c      	subs	r3, #12
  400e44:	60bb      	str	r3, [r7, #8]
			ul_time |= RTC_TIMR_AMPM;
  400e46:	697b      	ldr	r3, [r7, #20]
  400e48:	f443 0380 	orr.w	r3, r3, #4194304	; 0x400000
  400e4c:	617b      	str	r3, [r7, #20]
		}
	}

	/* Hour */
	ul_time |= ((ul_hour / BCD_FACTOR) << (RTC_TIMR_HOUR_Pos + BCD_SHIFT)) |
  400e4e:	68bb      	ldr	r3, [r7, #8]
  400e50:	4a33      	ldr	r2, [pc, #204]	; (400f20 <rtc_set_time+0x104>)
  400e52:	fba2 2303 	umull	r2, r3, r2, r3
  400e56:	08db      	lsrs	r3, r3, #3
  400e58:	0518      	lsls	r0, r3, #20
			((ul_hour % BCD_FACTOR) << RTC_TIMR_HOUR_Pos);
  400e5a:	68b9      	ldr	r1, [r7, #8]
  400e5c:	4b30      	ldr	r3, [pc, #192]	; (400f20 <rtc_set_time+0x104>)
  400e5e:	fba3 2301 	umull	r2, r3, r3, r1
  400e62:	08da      	lsrs	r2, r3, #3
  400e64:	4613      	mov	r3, r2
  400e66:	009b      	lsls	r3, r3, #2
  400e68:	4413      	add	r3, r2
  400e6a:	005b      	lsls	r3, r3, #1
  400e6c:	1aca      	subs	r2, r1, r3
  400e6e:	0413      	lsls	r3, r2, #16
	ul_time |= ((ul_hour / BCD_FACTOR) << (RTC_TIMR_HOUR_Pos + BCD_SHIFT)) |
  400e70:	4303      	orrs	r3, r0
  400e72:	697a      	ldr	r2, [r7, #20]
  400e74:	4313      	orrs	r3, r2
  400e76:	617b      	str	r3, [r7, #20]

	/* Minute */
	ul_time |= ((ul_minute / BCD_FACTOR) << (RTC_TIMR_MIN_Pos + BCD_SHIFT)) |
  400e78:	687b      	ldr	r3, [r7, #4]
  400e7a:	4a29      	ldr	r2, [pc, #164]	; (400f20 <rtc_set_time+0x104>)
  400e7c:	fba2 2303 	umull	r2, r3, r2, r3
  400e80:	08db      	lsrs	r3, r3, #3
  400e82:	0318      	lsls	r0, r3, #12
			((ul_minute % BCD_FACTOR) << RTC_TIMR_MIN_Pos);
  400e84:	6879      	ldr	r1, [r7, #4]
  400e86:	4b26      	ldr	r3, [pc, #152]	; (400f20 <rtc_set_time+0x104>)
  400e88:	fba3 2301 	umull	r2, r3, r3, r1
  400e8c:	08da      	lsrs	r2, r3, #3
  400e8e:	4613      	mov	r3, r2
  400e90:	009b      	lsls	r3, r3, #2
  400e92:	4413      	add	r3, r2
  400e94:	005b      	lsls	r3, r3, #1
  400e96:	1aca      	subs	r2, r1, r3
  400e98:	0213      	lsls	r3, r2, #8
	ul_time |= ((ul_minute / BCD_FACTOR) << (RTC_TIMR_MIN_Pos + BCD_SHIFT)) |
  400e9a:	4303      	orrs	r3, r0
  400e9c:	697a      	ldr	r2, [r7, #20]
  400e9e:	4313      	orrs	r3, r2
  400ea0:	617b      	str	r3, [r7, #20]

	/* Second */
	ul_time |= ((ul_second / BCD_FACTOR) << (RTC_TIMR_SEC_Pos + BCD_SHIFT)) |
  400ea2:	683b      	ldr	r3, [r7, #0]
  400ea4:	4a1e      	ldr	r2, [pc, #120]	; (400f20 <rtc_set_time+0x104>)
  400ea6:	fba2 2303 	umull	r2, r3, r2, r3
  400eaa:	08db      	lsrs	r3, r3, #3
  400eac:	0118      	lsls	r0, r3, #4
			((ul_second % BCD_FACTOR) << RTC_TIMR_SEC_Pos);
  400eae:	6839      	ldr	r1, [r7, #0]
  400eb0:	4b1b      	ldr	r3, [pc, #108]	; (400f20 <rtc_set_time+0x104>)
  400eb2:	fba3 2301 	umull	r2, r3, r3, r1
  400eb6:	08da      	lsrs	r2, r3, #3
  400eb8:	4613      	mov	r3, r2
  400eba:	009b      	lsls	r3, r3, #2
  400ebc:	4413      	add	r3, r2
  400ebe:	005b      	lsls	r3, r3, #1
  400ec0:	1aca      	subs	r2, r1, r3
	ul_time |= ((ul_second / BCD_FACTOR) << (RTC_TIMR_SEC_Pos + BCD_SHIFT)) |
  400ec2:	ea40 0302 	orr.w	r3, r0, r2
  400ec6:	697a      	ldr	r2, [r7, #20]
  400ec8:	4313      	orrs	r3, r2
  400eca:	617b      	str	r3, [r7, #20]

	/* Update time register. Check the spec for the flow. */
	p_rtc->RTC_CR |= RTC_CR_UPDTIM;
  400ecc:	68fb      	ldr	r3, [r7, #12]
  400ece:	681b      	ldr	r3, [r3, #0]
  400ed0:	f043 0201 	orr.w	r2, r3, #1
  400ed4:	68fb      	ldr	r3, [r7, #12]
  400ed6:	601a      	str	r2, [r3, #0]
	while ((p_rtc->RTC_SR & RTC_SR_ACKUPD) != RTC_SR_ACKUPD);
  400ed8:	bf00      	nop
  400eda:	68fb      	ldr	r3, [r7, #12]
  400edc:	699b      	ldr	r3, [r3, #24]
  400ede:	f003 0301 	and.w	r3, r3, #1
  400ee2:	2b01      	cmp	r3, #1
  400ee4:	d1f9      	bne.n	400eda <rtc_set_time+0xbe>
	p_rtc->RTC_SCCR = RTC_SCCR_ACKCLR;
  400ee6:	68fb      	ldr	r3, [r7, #12]
  400ee8:	2201      	movs	r2, #1
  400eea:	61da      	str	r2, [r3, #28]
	p_rtc->RTC_TIMR = ul_time;
  400eec:	68fb      	ldr	r3, [r7, #12]
  400eee:	697a      	ldr	r2, [r7, #20]
  400ef0:	609a      	str	r2, [r3, #8]
	p_rtc->RTC_CR &= (~RTC_CR_UPDTIM);
  400ef2:	68fb      	ldr	r3, [r7, #12]
  400ef4:	681b      	ldr	r3, [r3, #0]
  400ef6:	f023 0201 	bic.w	r2, r3, #1
  400efa:	68fb      	ldr	r3, [r7, #12]
  400efc:	601a      	str	r2, [r3, #0]
	p_rtc->RTC_SCCR |= RTC_SCCR_SECCLR;
  400efe:	68fb      	ldr	r3, [r7, #12]
  400f00:	69db      	ldr	r3, [r3, #28]
  400f02:	f043 0204 	orr.w	r2, r3, #4
  400f06:	68fb      	ldr	r3, [r7, #12]
  400f08:	61da      	str	r2, [r3, #28]

	return (p_rtc->RTC_VER & RTC_VER_NVTIM);
  400f0a:	68fb      	ldr	r3, [r7, #12]
  400f0c:	6adb      	ldr	r3, [r3, #44]	; 0x2c
  400f0e:	f003 0301 	and.w	r3, r3, #1
}
  400f12:	4618      	mov	r0, r3
  400f14:	371c      	adds	r7, #28
  400f16:	46bd      	mov	sp, r7
  400f18:	f85d 7b04 	ldr.w	r7, [sp], #4
  400f1c:	4770      	bx	lr
  400f1e:	bf00      	nop
  400f20:	cccccccd 	.word	0xcccccccd

00400f24 <rtc_set_time_alarm>:
 */
uint32_t rtc_set_time_alarm(Rtc *p_rtc,
		uint32_t ul_hour_flag, uint32_t ul_hour,
		uint32_t ul_minute_flag, uint32_t ul_minute,
		uint32_t ul_second_flag, uint32_t ul_second)
{
  400f24:	b480      	push	{r7}
  400f26:	b087      	sub	sp, #28
  400f28:	af00      	add	r7, sp, #0
  400f2a:	60f8      	str	r0, [r7, #12]
  400f2c:	60b9      	str	r1, [r7, #8]
  400f2e:	607a      	str	r2, [r7, #4]
  400f30:	603b      	str	r3, [r7, #0]
	uint32_t ul_alarm = 0;
  400f32:	2300      	movs	r3, #0
  400f34:	617b      	str	r3, [r7, #20]

	/* Hour alarm setting */
	if (ul_hour_flag) {
  400f36:	68bb      	ldr	r3, [r7, #8]
  400f38:	2b00      	cmp	r3, #0
  400f3a:	d024      	beq.n	400f86 <rtc_set_time_alarm+0x62>
		/* If 12-hour mode, set AMPM bit */
		if ((p_rtc->RTC_MR & RTC_MR_HRMOD) == RTC_MR_HRMOD) {
  400f3c:	68fb      	ldr	r3, [r7, #12]
  400f3e:	685b      	ldr	r3, [r3, #4]
  400f40:	f003 0301 	and.w	r3, r3, #1
  400f44:	2b01      	cmp	r3, #1
  400f46:	d109      	bne.n	400f5c <rtc_set_time_alarm+0x38>
			if (ul_hour > 12) {
  400f48:	687b      	ldr	r3, [r7, #4]
  400f4a:	2b0c      	cmp	r3, #12
  400f4c:	d906      	bls.n	400f5c <rtc_set_time_alarm+0x38>
				ul_hour -= 12;
  400f4e:	687b      	ldr	r3, [r7, #4]
  400f50:	3b0c      	subs	r3, #12
  400f52:	607b      	str	r3, [r7, #4]
				ul_alarm |= RTC_TIMR_AMPM;
  400f54:	697b      	ldr	r3, [r7, #20]
  400f56:	f443 0380 	orr.w	r3, r3, #4194304	; 0x400000
  400f5a:	617b      	str	r3, [r7, #20]
			}
		}

		ul_alarm |= ((ul_hour / BCD_FACTOR) << (RTC_TIMR_HOUR_Pos + BCD_SHIFT)) |
  400f5c:	687b      	ldr	r3, [r7, #4]
  400f5e:	4a2e      	ldr	r2, [pc, #184]	; (401018 <rtc_set_time_alarm+0xf4>)
  400f60:	fba2 2303 	umull	r2, r3, r2, r3
  400f64:	08db      	lsrs	r3, r3, #3
  400f66:	0518      	lsls	r0, r3, #20
				((ul_hour % BCD_FACTOR) << RTC_TIMR_HOUR_Pos);
  400f68:	6879      	ldr	r1, [r7, #4]
  400f6a:	4b2b      	ldr	r3, [pc, #172]	; (401018 <rtc_set_time_alarm+0xf4>)
  400f6c:	fba3 2301 	umull	r2, r3, r3, r1
  400f70:	08da      	lsrs	r2, r3, #3
  400f72:	4613      	mov	r3, r2
  400f74:	009b      	lsls	r3, r3, #2
  400f76:	4413      	add	r3, r2
  400f78:	005b      	lsls	r3, r3, #1
  400f7a:	1aca      	subs	r2, r1, r3
  400f7c:	0413      	lsls	r3, r2, #16
		ul_alarm |= ((ul_hour / BCD_FACTOR) << (RTC_TIMR_HOUR_Pos + BCD_SHIFT)) |
  400f7e:	4303      	orrs	r3, r0
  400f80:	697a      	ldr	r2, [r7, #20]
  400f82:	4313      	orrs	r3, r2
  400f84:	617b      	str	r3, [r7, #20]
	}

	/* Minute alarm setting */
	if (ul_minute_flag) {
  400f86:	683b      	ldr	r3, [r7, #0]
  400f88:	2b00      	cmp	r3, #0
  400f8a:	d014      	beq.n	400fb6 <rtc_set_time_alarm+0x92>
		ul_alarm |= ((ul_minute / BCD_FACTOR) << (RTC_TIMR_MIN_Pos + BCD_SHIFT)) |
  400f8c:	6a3b      	ldr	r3, [r7, #32]
  400f8e:	4a22      	ldr	r2, [pc, #136]	; (401018 <rtc_set_time_alarm+0xf4>)
  400f90:	fba2 2303 	umull	r2, r3, r2, r3
  400f94:	08db      	lsrs	r3, r3, #3
  400f96:	0318      	lsls	r0, r3, #12
				((ul_minute % BCD_FACTOR) << RTC_TIMR_MIN_Pos);
  400f98:	6a39      	ldr	r1, [r7, #32]
  400f9a:	4b1f      	ldr	r3, [pc, #124]	; (401018 <rtc_set_time_alarm+0xf4>)
  400f9c:	fba3 2301 	umull	r2, r3, r3, r1
  400fa0:	08da      	lsrs	r2, r3, #3
  400fa2:	4613      	mov	r3, r2
  400fa4:	009b      	lsls	r3, r3, #2
  400fa6:	4413      	add	r3, r2
  400fa8:	005b      	lsls	r3, r3, #1
  400faa:	1aca      	subs	r2, r1, r3
  400fac:	0213      	lsls	r3, r2, #8
		ul_alarm |= ((ul_minute / BCD_FACTOR) << (RTC_TIMR_MIN_Pos + BCD_SHIFT)) |
  400fae:	4303      	orrs	r3, r0
  400fb0:	697a      	ldr	r2, [r7, #20]
  400fb2:	4313      	orrs	r3, r2
  400fb4:	617b      	str	r3, [r7, #20]
	}

	/* Second alarm setting */
	if (ul_second_flag) {
  400fb6:	6a7b      	ldr	r3, [r7, #36]	; 0x24
  400fb8:	2b00      	cmp	r3, #0
  400fba:	d014      	beq.n	400fe6 <rtc_set_time_alarm+0xc2>
		ul_alarm |= ((ul_second / BCD_FACTOR) << (RTC_TIMR_SEC_Pos + BCD_SHIFT)) |
  400fbc:	6abb      	ldr	r3, [r7, #40]	; 0x28
  400fbe:	4a16      	ldr	r2, [pc, #88]	; (401018 <rtc_set_time_alarm+0xf4>)
  400fc0:	fba2 2303 	umull	r2, r3, r2, r3
  400fc4:	08db      	lsrs	r3, r3, #3
  400fc6:	0118      	lsls	r0, r3, #4
				((ul_second % BCD_FACTOR) << RTC_TIMR_SEC_Pos);
  400fc8:	6ab9      	ldr	r1, [r7, #40]	; 0x28
  400fca:	4b13      	ldr	r3, [pc, #76]	; (401018 <rtc_set_time_alarm+0xf4>)
  400fcc:	fba3 2301 	umull	r2, r3, r3, r1
  400fd0:	08da      	lsrs	r2, r3, #3
  400fd2:	4613      	mov	r3, r2
  400fd4:	009b      	lsls	r3, r3, #2
  400fd6:	4413      	add	r3, r2
  400fd8:	005b      	lsls	r3, r3, #1
  400fda:	1aca      	subs	r2, r1, r3
		ul_alarm |= ((ul_second / BCD_FACTOR) << (RTC_TIMR_SEC_Pos + BCD_SHIFT)) |
  400fdc:	ea40 0302 	orr.w	r3, r0, r2
  400fe0:	697a      	ldr	r2, [r7, #20]
  400fe2:	4313      	orrs	r3, r2
  400fe4:	617b      	str	r3, [r7, #20]
	}

	p_rtc->RTC_TIMALR &= ~(RTC_TIMALR_SECEN | RTC_TIMALR_MINEN | RTC_TIMALR_HOUREN);
  400fe6:	68fb      	ldr	r3, [r7, #12]
  400fe8:	691a      	ldr	r2, [r3, #16]
  400fea:	4b0c      	ldr	r3, [pc, #48]	; (40101c <rtc_set_time_alarm+0xf8>)
  400fec:	4013      	ands	r3, r2
  400fee:	68fa      	ldr	r2, [r7, #12]
  400ff0:	6113      	str	r3, [r2, #16]
	p_rtc->RTC_TIMALR = ul_alarm;
  400ff2:	68fb      	ldr	r3, [r7, #12]
  400ff4:	697a      	ldr	r2, [r7, #20]
  400ff6:	611a      	str	r2, [r3, #16]
	p_rtc->RTC_TIMALR |= (RTC_TIMALR_SECEN | RTC_TIMALR_MINEN | RTC_TIMALR_HOUREN);
  400ff8:	68fb      	ldr	r3, [r7, #12]
  400ffa:	691a      	ldr	r2, [r3, #16]
  400ffc:	4b08      	ldr	r3, [pc, #32]	; (401020 <rtc_set_time_alarm+0xfc>)
  400ffe:	4313      	orrs	r3, r2
  401000:	68fa      	ldr	r2, [r7, #12]
  401002:	6113      	str	r3, [r2, #16]

	return (p_rtc->RTC_VER & RTC_VER_NVTIMALR);
  401004:	68fb      	ldr	r3, [r7, #12]
  401006:	6adb      	ldr	r3, [r3, #44]	; 0x2c
  401008:	f003 0304 	and.w	r3, r3, #4
}
  40100c:	4618      	mov	r0, r3
  40100e:	371c      	adds	r7, #28
  401010:	46bd      	mov	sp, r7
  401012:	f85d 7b04 	ldr.w	r7, [sp], #4
  401016:	4770      	bx	lr
  401018:	cccccccd 	.word	0xcccccccd
  40101c:	ff7f7f7f 	.word	0xff7f7f7f
  401020:	00808080 	.word	0x00808080

00401024 <rtc_set_date>:
 *
 * \return 0 for OK, else invalid setting.
 */
uint32_t rtc_set_date(Rtc *p_rtc, uint32_t ul_year, uint32_t ul_month,
		uint32_t ul_day, uint32_t ul_week)
{
  401024:	b480      	push	{r7}
  401026:	b087      	sub	sp, #28
  401028:	af00      	add	r7, sp, #0
  40102a:	60f8      	str	r0, [r7, #12]
  40102c:	60b9      	str	r1, [r7, #8]
  40102e:	607a      	str	r2, [r7, #4]
  401030:	603b      	str	r3, [r7, #0]
	uint32_t ul_date = 0;
  401032:	2300      	movs	r3, #0
  401034:	617b      	str	r3, [r7, #20]

	/* Cent */
	ul_date |= ((ul_year / BCD_FACTOR / BCD_FACTOR / BCD_FACTOR) <<
  401036:	68bb      	ldr	r3, [r7, #8]
  401038:	4a46      	ldr	r2, [pc, #280]	; (401154 <rtc_set_date+0x130>)
  40103a:	fba2 2303 	umull	r2, r3, r2, r3
  40103e:	099b      	lsrs	r3, r3, #6
  401040:	0118      	lsls	r0, r3, #4
			(RTC_CALR_CENT_Pos + BCD_SHIFT) |
			((ul_year / BCD_FACTOR / BCD_FACTOR) % BCD_FACTOR) <<  RTC_CALR_CENT_Pos);
  401042:	68bb      	ldr	r3, [r7, #8]
  401044:	4a44      	ldr	r2, [pc, #272]	; (401158 <rtc_set_date+0x134>)
  401046:	fba2 2303 	umull	r2, r3, r2, r3
  40104a:	0959      	lsrs	r1, r3, #5
  40104c:	4b43      	ldr	r3, [pc, #268]	; (40115c <rtc_set_date+0x138>)
  40104e:	fba3 2301 	umull	r2, r3, r3, r1
  401052:	08da      	lsrs	r2, r3, #3
  401054:	4613      	mov	r3, r2
  401056:	009b      	lsls	r3, r3, #2
  401058:	4413      	add	r3, r2
  40105a:	005b      	lsls	r3, r3, #1
  40105c:	1aca      	subs	r2, r1, r3
			(RTC_CALR_CENT_Pos + BCD_SHIFT) |
  40105e:	ea40 0302 	orr.w	r3, r0, r2
	ul_date |= ((ul_year / BCD_FACTOR / BCD_FACTOR / BCD_FACTOR) <<
  401062:	697a      	ldr	r2, [r7, #20]
  401064:	4313      	orrs	r3, r2
  401066:	617b      	str	r3, [r7, #20]

	/* Year */
	ul_date |= (((ul_year / BCD_FACTOR) % BCD_FACTOR) <<
  401068:	68bb      	ldr	r3, [r7, #8]
  40106a:	4a3c      	ldr	r2, [pc, #240]	; (40115c <rtc_set_date+0x138>)
  40106c:	fba2 2303 	umull	r2, r3, r2, r3
  401070:	08d9      	lsrs	r1, r3, #3
  401072:	4b3a      	ldr	r3, [pc, #232]	; (40115c <rtc_set_date+0x138>)
  401074:	fba3 2301 	umull	r2, r3, r3, r1
  401078:	08da      	lsrs	r2, r3, #3
  40107a:	4613      	mov	r3, r2
  40107c:	009b      	lsls	r3, r3, #2
  40107e:	4413      	add	r3, r2
  401080:	005b      	lsls	r3, r3, #1
  401082:	1aca      	subs	r2, r1, r3
  401084:	0310      	lsls	r0, r2, #12
			(RTC_CALR_YEAR_Pos + BCD_SHIFT)) |
			((ul_year % BCD_FACTOR) << RTC_CALR_YEAR_Pos);
  401086:	68b9      	ldr	r1, [r7, #8]
  401088:	4b34      	ldr	r3, [pc, #208]	; (40115c <rtc_set_date+0x138>)
  40108a:	fba3 2301 	umull	r2, r3, r3, r1
  40108e:	08da      	lsrs	r2, r3, #3
  401090:	4613      	mov	r3, r2
  401092:	009b      	lsls	r3, r3, #2
  401094:	4413      	add	r3, r2
  401096:	005b      	lsls	r3, r3, #1
  401098:	1aca      	subs	r2, r1, r3
  40109a:	0213      	lsls	r3, r2, #8
			(RTC_CALR_YEAR_Pos + BCD_SHIFT)) |
  40109c:	4303      	orrs	r3, r0
	ul_date |= (((ul_year / BCD_FACTOR) % BCD_FACTOR) <<
  40109e:	697a      	ldr	r2, [r7, #20]
  4010a0:	4313      	orrs	r3, r2
  4010a2:	617b      	str	r3, [r7, #20]

	/* Month */
	ul_date |= ((ul_month / BCD_FACTOR) << (RTC_CALR_MONTH_Pos + BCD_SHIFT)) |
  4010a4:	687b      	ldr	r3, [r7, #4]
  4010a6:	4a2d      	ldr	r2, [pc, #180]	; (40115c <rtc_set_date+0x138>)
  4010a8:	fba2 2303 	umull	r2, r3, r2, r3
  4010ac:	08db      	lsrs	r3, r3, #3
  4010ae:	0518      	lsls	r0, r3, #20
			((ul_month % BCD_FACTOR) << RTC_CALR_MONTH_Pos);
  4010b0:	6879      	ldr	r1, [r7, #4]
  4010b2:	4b2a      	ldr	r3, [pc, #168]	; (40115c <rtc_set_date+0x138>)
  4010b4:	fba3 2301 	umull	r2, r3, r3, r1
  4010b8:	08da      	lsrs	r2, r3, #3
  4010ba:	4613      	mov	r3, r2
  4010bc:	009b      	lsls	r3, r3, #2
  4010be:	4413      	add	r3, r2
  4010c0:	005b      	lsls	r3, r3, #1
  4010c2:	1aca      	subs	r2, r1, r3
  4010c4:	0413      	lsls	r3, r2, #16
	ul_date |= ((ul_month / BCD_FACTOR) << (RTC_CALR_MONTH_Pos + BCD_SHIFT)) |
  4010c6:	4303      	orrs	r3, r0
  4010c8:	697a      	ldr	r2, [r7, #20]
  4010ca:	4313      	orrs	r3, r2
  4010cc:	617b      	str	r3, [r7, #20]

	/* Week */
	ul_date |= (ul_week << RTC_CALR_DAY_Pos);
  4010ce:	6a3b      	ldr	r3, [r7, #32]
  4010d0:	055b      	lsls	r3, r3, #21
  4010d2:	697a      	ldr	r2, [r7, #20]
  4010d4:	4313      	orrs	r3, r2
  4010d6:	617b      	str	r3, [r7, #20]

	/* Day */
	ul_date |= ((ul_day / BCD_FACTOR) << (RTC_CALR_DATE_Pos + BCD_SHIFT)) |
  4010d8:	683b      	ldr	r3, [r7, #0]
  4010da:	4a20      	ldr	r2, [pc, #128]	; (40115c <rtc_set_date+0x138>)
  4010dc:	fba2 2303 	umull	r2, r3, r2, r3
  4010e0:	08db      	lsrs	r3, r3, #3
  4010e2:	0718      	lsls	r0, r3, #28
			((ul_day % BCD_FACTOR) << RTC_CALR_DATE_Pos);
  4010e4:	6839      	ldr	r1, [r7, #0]
  4010e6:	4b1d      	ldr	r3, [pc, #116]	; (40115c <rtc_set_date+0x138>)
  4010e8:	fba3 2301 	umull	r2, r3, r3, r1
  4010ec:	08da      	lsrs	r2, r3, #3
  4010ee:	4613      	mov	r3, r2
  4010f0:	009b      	lsls	r3, r3, #2
  4010f2:	4413      	add	r3, r2
  4010f4:	005b      	lsls	r3, r3, #1
  4010f6:	1aca      	subs	r2, r1, r3
  4010f8:	0613      	lsls	r3, r2, #24
	ul_date |= ((ul_day / BCD_FACTOR) << (RTC_CALR_DATE_Pos + BCD_SHIFT)) |
  4010fa:	4303      	orrs	r3, r0
  4010fc:	697a      	ldr	r2, [r7, #20]
  4010fe:	4313      	orrs	r3, r2
  401100:	617b      	str	r3, [r7, #20]

	/* Update calendar register. Check the spec for the flow. */
	p_rtc->RTC_CR |= RTC_CR_UPDCAL;
  401102:	68fb      	ldr	r3, [r7, #12]
  401104:	681b      	ldr	r3, [r3, #0]
  401106:	f043 0202 	orr.w	r2, r3, #2
  40110a:	68fb      	ldr	r3, [r7, #12]
  40110c:	601a      	str	r2, [r3, #0]
	while ((p_rtc->RTC_SR & RTC_SR_ACKUPD) != RTC_SR_ACKUPD);
  40110e:	bf00      	nop
  401110:	68fb      	ldr	r3, [r7, #12]
  401112:	699b      	ldr	r3, [r3, #24]
  401114:	f003 0301 	and.w	r3, r3, #1
  401118:	2b01      	cmp	r3, #1
  40111a:	d1f9      	bne.n	401110 <rtc_set_date+0xec>

	p_rtc->RTC_SCCR = RTC_SCCR_ACKCLR;
  40111c:	68fb      	ldr	r3, [r7, #12]
  40111e:	2201      	movs	r2, #1
  401120:	61da      	str	r2, [r3, #28]
	p_rtc->RTC_CALR = ul_date;
  401122:	68fb      	ldr	r3, [r7, #12]
  401124:	697a      	ldr	r2, [r7, #20]
  401126:	60da      	str	r2, [r3, #12]
	p_rtc->RTC_CR &= (~RTC_CR_UPDCAL);
  401128:	68fb      	ldr	r3, [r7, #12]
  40112a:	681b      	ldr	r3, [r3, #0]
  40112c:	f023 0202 	bic.w	r2, r3, #2
  401130:	68fb      	ldr	r3, [r7, #12]
  401132:	601a      	str	r2, [r3, #0]
	/* Clear SECENV in SCCR */
	p_rtc->RTC_SCCR |= RTC_SCCR_SECCLR;
  401134:	68fb      	ldr	r3, [r7, #12]
  401136:	69db      	ldr	r3, [r3, #28]
  401138:	f043 0204 	orr.w	r2, r3, #4
  40113c:	68fb      	ldr	r3, [r7, #12]
  40113e:	61da      	str	r2, [r3, #28]

	return (p_rtc->RTC_VER & RTC_VER_NVCAL);
  401140:	68fb      	ldr	r3, [r7, #12]
  401142:	6adb      	ldr	r3, [r3, #44]	; 0x2c
  401144:	f003 0302 	and.w	r3, r3, #2
}
  401148:	4618      	mov	r0, r3
  40114a:	371c      	adds	r7, #28
  40114c:	46bd      	mov	sp, r7
  40114e:	f85d 7b04 	ldr.w	r7, [sp], #4
  401152:	4770      	bx	lr
  401154:	10624dd3 	.word	0x10624dd3
  401158:	51eb851f 	.word	0x51eb851f
  40115c:	cccccccd 	.word	0xcccccccd

00401160 <rtc_set_date_alarm>:
 * \return 0 for OK, else invalid setting.
 */
uint32_t rtc_set_date_alarm(Rtc *p_rtc,
		uint32_t ul_month_flag, uint32_t ul_month,
		uint32_t ul_day_flag, uint32_t ul_day)
{
  401160:	b480      	push	{r7}
  401162:	b087      	sub	sp, #28
  401164:	af00      	add	r7, sp, #0
  401166:	60f8      	str	r0, [r7, #12]
  401168:	60b9      	str	r1, [r7, #8]
  40116a:	607a      	str	r2, [r7, #4]
  40116c:	603b      	str	r3, [r7, #0]
	uint32_t ul_alarm = 0;
  40116e:	2300      	movs	r3, #0
  401170:	617b      	str	r3, [r7, #20]

	/* Month alarm setting */
	if (ul_month_flag) {
  401172:	68bb      	ldr	r3, [r7, #8]
  401174:	2b00      	cmp	r3, #0
  401176:	d014      	beq.n	4011a2 <rtc_set_date_alarm+0x42>
		ul_alarm |= ((ul_month / BCD_FACTOR) << (RTC_CALR_MONTH_Pos + BCD_SHIFT)) |
  401178:	687b      	ldr	r3, [r7, #4]
  40117a:	4a22      	ldr	r2, [pc, #136]	; (401204 <rtc_set_date_alarm+0xa4>)
  40117c:	fba2 2303 	umull	r2, r3, r2, r3
  401180:	08db      	lsrs	r3, r3, #3
  401182:	0518      	lsls	r0, r3, #20
				((ul_month % BCD_FACTOR) << RTC_CALR_MONTH_Pos);
  401184:	6879      	ldr	r1, [r7, #4]
  401186:	4b1f      	ldr	r3, [pc, #124]	; (401204 <rtc_set_date_alarm+0xa4>)
  401188:	fba3 2301 	umull	r2, r3, r3, r1
  40118c:	08da      	lsrs	r2, r3, #3
  40118e:	4613      	mov	r3, r2
  401190:	009b      	lsls	r3, r3, #2
  401192:	4413      	add	r3, r2
  401194:	005b      	lsls	r3, r3, #1
  401196:	1aca      	subs	r2, r1, r3
  401198:	0413      	lsls	r3, r2, #16
		ul_alarm |= ((ul_month / BCD_FACTOR) << (RTC_CALR_MONTH_Pos + BCD_SHIFT)) |
  40119a:	4303      	orrs	r3, r0
  40119c:	697a      	ldr	r2, [r7, #20]
  40119e:	4313      	orrs	r3, r2
  4011a0:	617b      	str	r3, [r7, #20]
	}

	/* Day alarm setting */
	if (ul_day_flag) {
  4011a2:	683b      	ldr	r3, [r7, #0]
  4011a4:	2b00      	cmp	r3, #0
  4011a6:	d014      	beq.n	4011d2 <rtc_set_date_alarm+0x72>
		ul_alarm |= ((ul_day / BCD_FACTOR) << (RTC_CALR_DATE_Pos + BCD_SHIFT)) |
  4011a8:	6a3b      	ldr	r3, [r7, #32]
  4011aa:	4a16      	ldr	r2, [pc, #88]	; (401204 <rtc_set_date_alarm+0xa4>)
  4011ac:	fba2 2303 	umull	r2, r3, r2, r3
  4011b0:	08db      	lsrs	r3, r3, #3
  4011b2:	0718      	lsls	r0, r3, #28
				((ul_day % BCD_FACTOR) << RTC_CALR_DATE_Pos);
  4011b4:	6a39      	ldr	r1, [r7, #32]
  4011b6:	4b13      	ldr	r3, [pc, #76]	; (401204 <rtc_set_date_alarm+0xa4>)
  4011b8:	fba3 2301 	umull	r2, r3, r3, r1
  4011bc:	08da      	lsrs	r2, r3, #3
  4011be:	4613      	mov	r3, r2
  4011c0:	009b      	lsls	r3, r3, #2
  4011c2:	4413      	add	r3, r2
  4011c4:	005b      	lsls	r3, r3, #1
  4011c6:	1aca      	subs	r2, r1, r3
  4011c8:	0613      	lsls	r3, r2, #24
		ul_alarm |= ((ul_day / BCD_FACTOR) << (RTC_CALR_DATE_Pos + BCD_SHIFT)) |
  4011ca:	4303      	orrs	r3, r0
  4011cc:	697a      	ldr	r2, [r7, #20]
  4011ce:	4313      	orrs	r3, r2
  4011d0:	617b      	str	r3, [r7, #20]
	}

	/* Set alarm */
	p_rtc->RTC_CALALR &= ~(RTC_CALALR_MTHEN | RTC_CALALR_DATEEN);
  4011d2:	68fb      	ldr	r3, [r7, #12]
  4011d4:	695a      	ldr	r2, [r3, #20]
  4011d6:	4b0c      	ldr	r3, [pc, #48]	; (401208 <rtc_set_date_alarm+0xa8>)
  4011d8:	4013      	ands	r3, r2
  4011da:	68fa      	ldr	r2, [r7, #12]
  4011dc:	6153      	str	r3, [r2, #20]
	p_rtc->RTC_CALALR = ul_alarm;
  4011de:	68fb      	ldr	r3, [r7, #12]
  4011e0:	697a      	ldr	r2, [r7, #20]
  4011e2:	615a      	str	r2, [r3, #20]
	p_rtc->RTC_CALALR |= (RTC_CALALR_MTHEN | RTC_CALALR_DATEEN);
  4011e4:	68fb      	ldr	r3, [r7, #12]
  4011e6:	695a      	ldr	r2, [r3, #20]
  4011e8:	4b08      	ldr	r3, [pc, #32]	; (40120c <rtc_set_date_alarm+0xac>)
  4011ea:	4313      	orrs	r3, r2
  4011ec:	68fa      	ldr	r2, [r7, #12]
  4011ee:	6153      	str	r3, [r2, #20]

	return (p_rtc->RTC_VER & RTC_VER_NVCALALR);
  4011f0:	68fb      	ldr	r3, [r7, #12]
  4011f2:	6adb      	ldr	r3, [r3, #44]	; 0x2c
  4011f4:	f003 0308 	and.w	r3, r3, #8
}
  4011f8:	4618      	mov	r0, r3
  4011fa:	371c      	adds	r7, #28
  4011fc:	46bd      	mov	sp, r7
  4011fe:	f85d 7b04 	ldr.w	r7, [sp], #4
  401202:	4770      	bx	lr
  401204:	cccccccd 	.word	0xcccccccd
  401208:	7f7fffff 	.word	0x7f7fffff
  40120c:	80800000 	.word	0x80800000

00401210 <rtc_get_status>:
 * \param p_rtc Pointer to an RTC instance.
 *
 * \return Status of the RTC.
 */
uint32_t rtc_get_status(Rtc *p_rtc)
{
  401210:	b480      	push	{r7}
  401212:	b083      	sub	sp, #12
  401214:	af00      	add	r7, sp, #0
  401216:	6078      	str	r0, [r7, #4]
	return (p_rtc->RTC_SR);
  401218:	687b      	ldr	r3, [r7, #4]
  40121a:	699b      	ldr	r3, [r3, #24]
}
  40121c:	4618      	mov	r0, r3
  40121e:	370c      	adds	r7, #12
  401220:	46bd      	mov	sp, r7
  401222:	f85d 7b04 	ldr.w	r7, [sp], #4
  401226:	4770      	bx	lr

00401228 <rtc_clear_status>:
 *
 * \param p_rtc Pointer to an RTC instance.
 * \param ul_clear Some flag bits which will be cleared.
 */
void rtc_clear_status(Rtc *p_rtc, uint32_t ul_clear)
{
  401228:	b480      	push	{r7}
  40122a:	b083      	sub	sp, #12
  40122c:	af00      	add	r7, sp, #0
  40122e:	6078      	str	r0, [r7, #4]
  401230:	6039      	str	r1, [r7, #0]
	p_rtc->RTC_SCCR = ul_clear;
  401232:	687b      	ldr	r3, [r7, #4]
  401234:	683a      	ldr	r2, [r7, #0]
  401236:	61da      	str	r2, [r3, #28]
}
  401238:	bf00      	nop
  40123a:	370c      	adds	r7, #12
  40123c:	46bd      	mov	sp, r7
  40123e:	f85d 7b04 	ldr.w	r7, [sp], #4
  401242:	4770      	bx	lr

00401244 <tc_init>:
 */
void tc_init(
		Tc *p_tc,
		uint32_t ul_channel,
		uint32_t ul_mode)
{
  401244:	b480      	push	{r7}
  401246:	b087      	sub	sp, #28
  401248:	af00      	add	r7, sp, #0
  40124a:	60f8      	str	r0, [r7, #12]
  40124c:	60b9      	str	r1, [r7, #8]
  40124e:	607a      	str	r2, [r7, #4]

	/* Validate inputs. */
	Assert(p_tc);
	Assert(ul_channel <
			(sizeof(p_tc->TC_CHANNEL) / sizeof(p_tc->TC_CHANNEL[0])));
	tc_channel = p_tc->TC_CHANNEL + ul_channel;
  401250:	68fa      	ldr	r2, [r7, #12]
  401252:	68bb      	ldr	r3, [r7, #8]
  401254:	019b      	lsls	r3, r3, #6
  401256:	4413      	add	r3, r2
  401258:	617b      	str	r3, [r7, #20]

	/*  Disable TC clock. */
	tc_channel->TC_CCR = TC_CCR_CLKDIS;
  40125a:	697b      	ldr	r3, [r7, #20]
  40125c:	2202      	movs	r2, #2
  40125e:	601a      	str	r2, [r3, #0]

	/*  Disable interrupts. */
	tc_channel->TC_IDR = 0xFFFFFFFF;
  401260:	697b      	ldr	r3, [r7, #20]
  401262:	f04f 32ff 	mov.w	r2, #4294967295
  401266:	629a      	str	r2, [r3, #40]	; 0x28

	/*  Clear status register. */
	tc_channel->TC_SR;
  401268:	697b      	ldr	r3, [r7, #20]
  40126a:	6a1b      	ldr	r3, [r3, #32]

	/*  Set mode. */
	tc_channel->TC_CMR = ul_mode;
  40126c:	697b      	ldr	r3, [r7, #20]
  40126e:	687a      	ldr	r2, [r7, #4]
  401270:	605a      	str	r2, [r3, #4]
}
  401272:	bf00      	nop
  401274:	371c      	adds	r7, #28
  401276:	46bd      	mov	sp, r7
  401278:	f85d 7b04 	ldr.w	r7, [sp], #4
  40127c:	4770      	bx	lr

0040127e <tc_start>:
 * \param[in] ul_channel Channel to configure
 */
void tc_start(
		Tc *p_tc,
		uint32_t ul_channel)
{
  40127e:	b480      	push	{r7}
  401280:	b083      	sub	sp, #12
  401282:	af00      	add	r7, sp, #0
  401284:	6078      	str	r0, [r7, #4]
  401286:	6039      	str	r1, [r7, #0]
	/* Validate inputs. */
	Assert(p_tc);
	Assert(ul_channel <
			(sizeof(p_tc->TC_CHANNEL) / sizeof(p_tc->TC_CHANNEL[0])));

	p_tc->TC_CHANNEL[ul_channel].TC_CCR = TC_CCR_CLKEN | TC_CCR_SWTRG;
  401288:	687a      	ldr	r2, [r7, #4]
  40128a:	683b      	ldr	r3, [r7, #0]
  40128c:	019b      	lsls	r3, r3, #6
  40128e:	4413      	add	r3, r2
  401290:	2205      	movs	r2, #5
  401292:	601a      	str	r2, [r3, #0]
}
  401294:	bf00      	nop
  401296:	370c      	adds	r7, #12
  401298:	46bd      	mov	sp, r7
  40129a:	f85d 7b04 	ldr.w	r7, [sp], #4
  40129e:	4770      	bx	lr

004012a0 <tc_write_rc>:
 */
void tc_write_rc(
		Tc *p_tc,
		uint32_t ul_channel,
		uint32_t ul_value)
{
  4012a0:	b480      	push	{r7}
  4012a2:	b085      	sub	sp, #20
  4012a4:	af00      	add	r7, sp, #0
  4012a6:	60f8      	str	r0, [r7, #12]
  4012a8:	60b9      	str	r1, [r7, #8]
  4012aa:	607a      	str	r2, [r7, #4]
	/* Validate inputs. */
	Assert(p_tc);
	Assert(ul_channel <
			(sizeof(p_tc->TC_CHANNEL) / sizeof(p_tc->TC_CHANNEL[0])));

	p_tc->TC_CHANNEL[ul_channel].TC_RC = ul_value;
  4012ac:	68fa      	ldr	r2, [r7, #12]
  4012ae:	68bb      	ldr	r3, [r7, #8]
  4012b0:	019b      	lsls	r3, r3, #6
  4012b2:	4413      	add	r3, r2
  4012b4:	331c      	adds	r3, #28
  4012b6:	687a      	ldr	r2, [r7, #4]
  4012b8:	601a      	str	r2, [r3, #0]
}
  4012ba:	bf00      	nop
  4012bc:	3714      	adds	r7, #20
  4012be:	46bd      	mov	sp, r7
  4012c0:	f85d 7b04 	ldr.w	r7, [sp], #4
  4012c4:	4770      	bx	lr

004012c6 <tc_enable_interrupt>:
 */
void tc_enable_interrupt(
		Tc *p_tc,
		uint32_t ul_channel,
		uint32_t ul_sources)
{
  4012c6:	b480      	push	{r7}
  4012c8:	b087      	sub	sp, #28
  4012ca:	af00      	add	r7, sp, #0
  4012cc:	60f8      	str	r0, [r7, #12]
  4012ce:	60b9      	str	r1, [r7, #8]
  4012d0:	607a      	str	r2, [r7, #4]

	/* Validate inputs. */
	Assert(p_tc);
	Assert(ul_channel <
			(sizeof(p_tc->TC_CHANNEL) / sizeof(p_tc->TC_CHANNEL[0])));
	tc_channel = p_tc->TC_CHANNEL + ul_channel;
  4012d2:	68fa      	ldr	r2, [r7, #12]
  4012d4:	68bb      	ldr	r3, [r7, #8]
  4012d6:	019b      	lsls	r3, r3, #6
  4012d8:	4413      	add	r3, r2
  4012da:	617b      	str	r3, [r7, #20]
	tc_channel->TC_IER = ul_sources;
  4012dc:	697b      	ldr	r3, [r7, #20]
  4012de:	687a      	ldr	r2, [r7, #4]
  4012e0:	625a      	str	r2, [r3, #36]	; 0x24
}
  4012e2:	bf00      	nop
  4012e4:	371c      	adds	r7, #28
  4012e6:	46bd      	mov	sp, r7
  4012e8:	f85d 7b04 	ldr.w	r7, [sp], #4
  4012ec:	4770      	bx	lr

004012ee <tc_get_status>:
 * \return The current TC status.
 */
uint32_t tc_get_status(
		Tc *p_tc,
		uint32_t ul_channel)
{
  4012ee:	b480      	push	{r7}
  4012f0:	b085      	sub	sp, #20
  4012f2:	af00      	add	r7, sp, #0
  4012f4:	6078      	str	r0, [r7, #4]
  4012f6:	6039      	str	r1, [r7, #0]
	/* Validate inputs. */
	Assert(p_tc);
	Assert(ul_channel <
			(sizeof(p_tc->TC_CHANNEL) / sizeof(p_tc->TC_CHANNEL[0])));
			
	tc_channel = p_tc->TC_CHANNEL + ul_channel;
  4012f8:	687a      	ldr	r2, [r7, #4]
  4012fa:	683b      	ldr	r3, [r7, #0]
  4012fc:	019b      	lsls	r3, r3, #6
  4012fe:	4413      	add	r3, r2
  401300:	60fb      	str	r3, [r7, #12]
	return tc_channel->TC_SR;
  401302:	68fb      	ldr	r3, [r7, #12]
  401304:	6a1b      	ldr	r3, [r3, #32]
}
  401306:	4618      	mov	r0, r3
  401308:	3714      	adds	r7, #20
  40130a:	46bd      	mov	sp, r7
  40130c:	f85d 7b04 	ldr.w	r7, [sp], #4
  401310:	4770      	bx	lr

00401312 <tc_find_mck_divisor>:
		uint32_t ul_freq,
		uint32_t ul_mck,
		uint32_t *p_uldiv,
		uint32_t *p_ultcclks,
		uint32_t ul_boardmck)
{
  401312:	b480      	push	{r7}
  401314:	b08d      	sub	sp, #52	; 0x34
  401316:	af00      	add	r7, sp, #0
  401318:	60f8      	str	r0, [r7, #12]
  40131a:	60b9      	str	r1, [r7, #8]
  40131c:	607a      	str	r2, [r7, #4]
  40131e:	603b      	str	r3, [r7, #0]
	const uint32_t divisors[5] = { 2, 8, 32, 128,
  401320:	2302      	movs	r3, #2
  401322:	613b      	str	r3, [r7, #16]
  401324:	2308      	movs	r3, #8
  401326:	617b      	str	r3, [r7, #20]
  401328:	2320      	movs	r3, #32
  40132a:	61bb      	str	r3, [r7, #24]
  40132c:	2380      	movs	r3, #128	; 0x80
  40132e:	61fb      	str	r3, [r7, #28]
			ul_boardmck / FREQ_SLOW_CLOCK_EXT };
  401330:	6bbb      	ldr	r3, [r7, #56]	; 0x38
  401332:	0bdb      	lsrs	r3, r3, #15
	const uint32_t divisors[5] = { 2, 8, 32, 128,
  401334:	623b      	str	r3, [r7, #32]
	uint32_t ul_index;
	uint32_t ul_high, ul_low;

	/*  Satisfy frequency bound. */
	for (ul_index = 0;
  401336:	2300      	movs	r3, #0
  401338:	62fb      	str	r3, [r7, #44]	; 0x2c
  40133a:	e01a      	b.n	401372 <tc_find_mck_divisor+0x60>
			ul_index < (sizeof(divisors) / sizeof(divisors[0]));
			ul_index++) {
		ul_high = ul_mck / divisors[ul_index];
  40133c:	6afb      	ldr	r3, [r7, #44]	; 0x2c
  40133e:	009b      	lsls	r3, r3, #2
  401340:	f107 0230 	add.w	r2, r7, #48	; 0x30
  401344:	4413      	add	r3, r2
  401346:	f853 3c20 	ldr.w	r3, [r3, #-32]
  40134a:	68ba      	ldr	r2, [r7, #8]
  40134c:	fbb2 f3f3 	udiv	r3, r2, r3
  401350:	62bb      	str	r3, [r7, #40]	; 0x28
		ul_low  = ul_high / TC_DIV_FACTOR;
  401352:	6abb      	ldr	r3, [r7, #40]	; 0x28
  401354:	0c1b      	lsrs	r3, r3, #16
  401356:	627b      	str	r3, [r7, #36]	; 0x24
		if (ul_freq > ul_high) {
  401358:	68fa      	ldr	r2, [r7, #12]
  40135a:	6abb      	ldr	r3, [r7, #40]	; 0x28
  40135c:	429a      	cmp	r2, r3
  40135e:	d901      	bls.n	401364 <tc_find_mck_divisor+0x52>
			return 0;
  401360:	2300      	movs	r3, #0
  401362:	e023      	b.n	4013ac <tc_find_mck_divisor+0x9a>
		} else if (ul_freq >= ul_low) {
  401364:	68fa      	ldr	r2, [r7, #12]
  401366:	6a7b      	ldr	r3, [r7, #36]	; 0x24
  401368:	429a      	cmp	r2, r3
  40136a:	d206      	bcs.n	40137a <tc_find_mck_divisor+0x68>
			ul_index++) {
  40136c:	6afb      	ldr	r3, [r7, #44]	; 0x2c
  40136e:	3301      	adds	r3, #1
  401370:	62fb      	str	r3, [r7, #44]	; 0x2c
	for (ul_index = 0;
  401372:	6afb      	ldr	r3, [r7, #44]	; 0x2c
  401374:	2b04      	cmp	r3, #4
  401376:	d9e1      	bls.n	40133c <tc_find_mck_divisor+0x2a>
  401378:	e000      	b.n	40137c <tc_find_mck_divisor+0x6a>
			break;
  40137a:	bf00      	nop
		}
	}
	if (ul_index >= (sizeof(divisors) / sizeof(divisors[0]))) {
  40137c:	6afb      	ldr	r3, [r7, #44]	; 0x2c
  40137e:	2b04      	cmp	r3, #4
  401380:	d901      	bls.n	401386 <tc_find_mck_divisor+0x74>
		return 0;
  401382:	2300      	movs	r3, #0
  401384:	e012      	b.n	4013ac <tc_find_mck_divisor+0x9a>
	}

	/*  Store results. */
	if (p_uldiv) {
  401386:	687b      	ldr	r3, [r7, #4]
  401388:	2b00      	cmp	r3, #0
  40138a:	d008      	beq.n	40139e <tc_find_mck_divisor+0x8c>
		*p_uldiv = divisors[ul_index];
  40138c:	6afb      	ldr	r3, [r7, #44]	; 0x2c
  40138e:	009b      	lsls	r3, r3, #2
  401390:	f107 0230 	add.w	r2, r7, #48	; 0x30
  401394:	4413      	add	r3, r2
  401396:	f853 2c20 	ldr.w	r2, [r3, #-32]
  40139a:	687b      	ldr	r3, [r7, #4]
  40139c:	601a      	str	r2, [r3, #0]
	}

	if (p_ultcclks) {
  40139e:	683b      	ldr	r3, [r7, #0]
  4013a0:	2b00      	cmp	r3, #0
  4013a2:	d002      	beq.n	4013aa <tc_find_mck_divisor+0x98>
		*p_ultcclks = ul_index;
  4013a4:	683b      	ldr	r3, [r7, #0]
  4013a6:	6afa      	ldr	r2, [r7, #44]	; 0x2c
  4013a8:	601a      	str	r2, [r3, #0]
	}

	return 1;
  4013aa:	2301      	movs	r3, #1
}
  4013ac:	4618      	mov	r0, r3
  4013ae:	3734      	adds	r7, #52	; 0x34
  4013b0:	46bd      	mov	sp, r7
  4013b2:	f85d 7b04 	ldr.w	r7, [sp], #4
  4013b6:	4770      	bx	lr

004013b8 <cpu_irq_save>:

static volatile uint32_t cpu_irq_critical_section_counter;
static volatile bool     cpu_irq_prev_interrupt_state;

static inline irqflags_t cpu_irq_save(void)
{
  4013b8:	b480      	push	{r7}
  4013ba:	b083      	sub	sp, #12
  4013bc:	af00      	add	r7, sp, #0
 */
__attribute__( ( always_inline ) ) __STATIC_INLINE uint32_t __get_PRIMASK(void)
{
  uint32_t result;

  __ASM volatile ("MRS %0, primask" : "=r" (result) );
  4013be:	f3ef 8310 	mrs	r3, PRIMASK
  4013c2:	607b      	str	r3, [r7, #4]
  return(result);
  4013c4:	687b      	ldr	r3, [r7, #4]
	volatile irqflags_t flags = cpu_irq_is_enabled();
  4013c6:	2b00      	cmp	r3, #0
  4013c8:	bf0c      	ite	eq
  4013ca:	2301      	moveq	r3, #1
  4013cc:	2300      	movne	r3, #0
  4013ce:	b2db      	uxtb	r3, r3
  4013d0:	603b      	str	r3, [r7, #0]
  __ASM volatile ("cpsid i" : : : "memory");
  4013d2:	b672      	cpsid	i
    This function ensures the apparent order of the explicit memory operations before
    and after the instruction, without ensuring their completion.
 */
__attribute__( ( always_inline ) ) __STATIC_INLINE void __DMB(void)
{
  __ASM volatile ("dmb");
  4013d4:	f3bf 8f5f 	dmb	sy
	cpu_irq_disable();
  4013d8:	4b04      	ldr	r3, [pc, #16]	; (4013ec <cpu_irq_save+0x34>)
  4013da:	2200      	movs	r2, #0
  4013dc:	701a      	strb	r2, [r3, #0]
	return flags;
  4013de:	683b      	ldr	r3, [r7, #0]
}
  4013e0:	4618      	mov	r0, r3
  4013e2:	370c      	adds	r7, #12
  4013e4:	46bd      	mov	sp, r7
  4013e6:	f85d 7b04 	ldr.w	r7, [sp], #4
  4013ea:	4770      	bx	lr
  4013ec:	20400000 	.word	0x20400000

004013f0 <cpu_irq_is_enabled_flags>:

static inline bool cpu_irq_is_enabled_flags(irqflags_t flags)
{
  4013f0:	b480      	push	{r7}
  4013f2:	b083      	sub	sp, #12
  4013f4:	af00      	add	r7, sp, #0
  4013f6:	6078      	str	r0, [r7, #4]
	return (flags);
  4013f8:	687b      	ldr	r3, [r7, #4]
  4013fa:	2b00      	cmp	r3, #0
  4013fc:	bf14      	ite	ne
  4013fe:	2301      	movne	r3, #1
  401400:	2300      	moveq	r3, #0
  401402:	b2db      	uxtb	r3, r3
}
  401404:	4618      	mov	r0, r3
  401406:	370c      	adds	r7, #12
  401408:	46bd      	mov	sp, r7
  40140a:	f85d 7b04 	ldr.w	r7, [sp], #4
  40140e:	4770      	bx	lr

00401410 <cpu_irq_restore>:

static inline void cpu_irq_restore(irqflags_t flags)
{
  401410:	b580      	push	{r7, lr}
  401412:	b082      	sub	sp, #8
  401414:	af00      	add	r7, sp, #0
  401416:	6078      	str	r0, [r7, #4]
	if (cpu_irq_is_enabled_flags(flags))
  401418:	6878      	ldr	r0, [r7, #4]
  40141a:	4b07      	ldr	r3, [pc, #28]	; (401438 <cpu_irq_restore+0x28>)
  40141c:	4798      	blx	r3
  40141e:	4603      	mov	r3, r0
  401420:	2b00      	cmp	r3, #0
  401422:	d005      	beq.n	401430 <cpu_irq_restore+0x20>
		cpu_irq_enable();
  401424:	4b05      	ldr	r3, [pc, #20]	; (40143c <cpu_irq_restore+0x2c>)
  401426:	2201      	movs	r2, #1
  401428:	701a      	strb	r2, [r3, #0]
  40142a:	f3bf 8f5f 	dmb	sy
  __ASM volatile ("cpsie i" : : : "memory");
  40142e:	b662      	cpsie	i
}
  401430:	bf00      	nop
  401432:	3708      	adds	r7, #8
  401434:	46bd      	mov	sp, r7
  401436:	bd80      	pop	{r7, pc}
  401438:	004013f1 	.word	0x004013f1
  40143c:	20400000 	.word	0x20400000

00401440 <Reset_Handler>:
/**
 * \brief This is the code that gets called on processor reset.
 * To initialize the device, and call the main() routine.
 */
void Reset_Handler(void)
{
  401440:	b580      	push	{r7, lr}
  401442:	b084      	sub	sp, #16
  401444:	af00      	add	r7, sp, #0
        uint32_t *pSrc, *pDest;

        /* Initialize the relocate segment */
        pSrc = &_etext;
  401446:	4b1e      	ldr	r3, [pc, #120]	; (4014c0 <Reset_Handler+0x80>)
  401448:	60fb      	str	r3, [r7, #12]
        pDest = &_srelocate;
  40144a:	4b1e      	ldr	r3, [pc, #120]	; (4014c4 <Reset_Handler+0x84>)
  40144c:	60bb      	str	r3, [r7, #8]

        if (pSrc != pDest) {
  40144e:	68fa      	ldr	r2, [r7, #12]
  401450:	68bb      	ldr	r3, [r7, #8]
  401452:	429a      	cmp	r2, r3
  401454:	d00c      	beq.n	401470 <Reset_Handler+0x30>
                for (; pDest < &_erelocate;) {
  401456:	e007      	b.n	401468 <Reset_Handler+0x28>
                        *pDest++ = *pSrc++;
  401458:	68bb      	ldr	r3, [r7, #8]
  40145a:	1d1a      	adds	r2, r3, #4
  40145c:	60ba      	str	r2, [r7, #8]
  40145e:	68fa      	ldr	r2, [r7, #12]
  401460:	1d11      	adds	r1, r2, #4
  401462:	60f9      	str	r1, [r7, #12]
  401464:	6812      	ldr	r2, [r2, #0]
  401466:	601a      	str	r2, [r3, #0]
                for (; pDest < &_erelocate;) {
  401468:	68bb      	ldr	r3, [r7, #8]
  40146a:	4a17      	ldr	r2, [pc, #92]	; (4014c8 <Reset_Handler+0x88>)
  40146c:	4293      	cmp	r3, r2
  40146e:	d3f3      	bcc.n	401458 <Reset_Handler+0x18>
                }
        }

        /* Clear the zero segment */
        for (pDest = &_szero; pDest < &_ezero;) {
  401470:	4b16      	ldr	r3, [pc, #88]	; (4014cc <Reset_Handler+0x8c>)
  401472:	60bb      	str	r3, [r7, #8]
  401474:	e004      	b.n	401480 <Reset_Handler+0x40>
                *pDest++ = 0;
  401476:	68bb      	ldr	r3, [r7, #8]
  401478:	1d1a      	adds	r2, r3, #4
  40147a:	60ba      	str	r2, [r7, #8]
  40147c:	2200      	movs	r2, #0
  40147e:	601a      	str	r2, [r3, #0]
        for (pDest = &_szero; pDest < &_ezero;) {
  401480:	68bb      	ldr	r3, [r7, #8]
  401482:	4a13      	ldr	r2, [pc, #76]	; (4014d0 <Reset_Handler+0x90>)
  401484:	4293      	cmp	r3, r2
  401486:	d3f6      	bcc.n	401476 <Reset_Handler+0x36>
        }

        /* Set the vector table base address */
        pSrc = (uint32_t *) & _sfixed;
  401488:	4b12      	ldr	r3, [pc, #72]	; (4014d4 <Reset_Handler+0x94>)
  40148a:	60fb      	str	r3, [r7, #12]
        SCB->VTOR = ((uint32_t) pSrc & SCB_VTOR_TBLOFF_Msk);
  40148c:	4a12      	ldr	r2, [pc, #72]	; (4014d8 <Reset_Handler+0x98>)
  40148e:	68fb      	ldr	r3, [r7, #12]
  401490:	f023 037f 	bic.w	r3, r3, #127	; 0x7f
  401494:	6093      	str	r3, [r2, #8]
 * \brief Enable FPU
 */
__always_inline static void fpu_enable(void)
{
	irqflags_t flags;
	flags = cpu_irq_save();
  401496:	4b11      	ldr	r3, [pc, #68]	; (4014dc <Reset_Handler+0x9c>)
  401498:	4798      	blx	r3
  40149a:	6078      	str	r0, [r7, #4]
	REG_CPACR |=  (0xFu << 20);
  40149c:	4a10      	ldr	r2, [pc, #64]	; (4014e0 <Reset_Handler+0xa0>)
  40149e:	4b10      	ldr	r3, [pc, #64]	; (4014e0 <Reset_Handler+0xa0>)
  4014a0:	681b      	ldr	r3, [r3, #0]
  4014a2:	f443 0370 	orr.w	r3, r3, #15728640	; 0xf00000
  4014a6:	6013      	str	r3, [r2, #0]
  __ASM volatile ("dsb");
  4014a8:	f3bf 8f4f 	dsb	sy
  __ASM volatile ("isb");
  4014ac:	f3bf 8f6f 	isb	sy
	__DSB();
	__ISB();
	cpu_irq_restore(flags);
  4014b0:	6878      	ldr	r0, [r7, #4]
  4014b2:	4b0c      	ldr	r3, [pc, #48]	; (4014e4 <Reset_Handler+0xa4>)
  4014b4:	4798      	blx	r3
#if __FPU_USED
	fpu_enable();
#endif

        /* Initialize the C library */
        __libc_init_array();
  4014b6:	4b0c      	ldr	r3, [pc, #48]	; (4014e8 <Reset_Handler+0xa8>)
  4014b8:	4798      	blx	r3

        /* Branch to main function */
        main();
  4014ba:	4b0c      	ldr	r3, [pc, #48]	; (4014ec <Reset_Handler+0xac>)
  4014bc:	4798      	blx	r3

        /* Infinite loop */
        while (1);
  4014be:	e7fe      	b.n	4014be <Reset_Handler+0x7e>
  4014c0:	00402228 	.word	0x00402228
  4014c4:	20400000 	.word	0x20400000
  4014c8:	2040043c 	.word	0x2040043c
  4014cc:	2040043c 	.word	0x2040043c
  4014d0:	204004f4 	.word	0x204004f4
  4014d4:	00400000 	.word	0x00400000
  4014d8:	e000ed00 	.word	0xe000ed00
  4014dc:	004013b9 	.word	0x004013b9
  4014e0:	e000ed88 	.word	0xe000ed88
  4014e4:	00401411 	.word	0x00401411
  4014e8:	00402091 	.word	0x00402091
  4014ec:	00401fb5 	.word	0x00401fb5

004014f0 <Dummy_Handler>:

/**
 * \brief Default interrupt handler for unused IRQs.
 */
void Dummy_Handler(void)
{
  4014f0:	b480      	push	{r7}
  4014f2:	af00      	add	r7, sp, #0
        while (1) {
  4014f4:	e7fe      	b.n	4014f4 <Dummy_Handler+0x4>
	...

004014f8 <SystemCoreClockUpdate>:

  SystemCoreClock = CHIP_FREQ_CPU_MAX;
}

void SystemCoreClockUpdate( void )
{
  4014f8:	b480      	push	{r7}
  4014fa:	af00      	add	r7, sp, #0
  /* Determine clock frequency according to clock register values */
  switch (PMC->PMC_MCKR & (uint32_t) PMC_MCKR_CSS_Msk)
  4014fc:	4b52      	ldr	r3, [pc, #328]	; (401648 <SystemCoreClockUpdate+0x150>)
  4014fe:	6b1b      	ldr	r3, [r3, #48]	; 0x30
  401500:	f003 0303 	and.w	r3, r3, #3
  401504:	2b01      	cmp	r3, #1
  401506:	d014      	beq.n	401532 <SystemCoreClockUpdate+0x3a>
  401508:	2b01      	cmp	r3, #1
  40150a:	d302      	bcc.n	401512 <SystemCoreClockUpdate+0x1a>
  40150c:	2b02      	cmp	r3, #2
  40150e:	d038      	beq.n	401582 <SystemCoreClockUpdate+0x8a>
        SystemCoreClock /= ((((PMC->CKGR_PLLAR) & CKGR_PLLAR_DIVA_Msk) >> CKGR_PLLAR_DIVA_Pos));
      }
    break;

    default:
    break;
  401510:	e07a      	b.n	401608 <SystemCoreClockUpdate+0x110>
      if ( SUPC->SUPC_SR & SUPC_SR_OSCSEL )
  401512:	4b4e      	ldr	r3, [pc, #312]	; (40164c <SystemCoreClockUpdate+0x154>)
  401514:	695b      	ldr	r3, [r3, #20]
  401516:	f003 0380 	and.w	r3, r3, #128	; 0x80
  40151a:	2b00      	cmp	r3, #0
  40151c:	d004      	beq.n	401528 <SystemCoreClockUpdate+0x30>
        SystemCoreClock = CHIP_FREQ_XTAL_32K;
  40151e:	4b4c      	ldr	r3, [pc, #304]	; (401650 <SystemCoreClockUpdate+0x158>)
  401520:	f44f 4200 	mov.w	r2, #32768	; 0x8000
  401524:	601a      	str	r2, [r3, #0]
    break;
  401526:	e06f      	b.n	401608 <SystemCoreClockUpdate+0x110>
        SystemCoreClock = CHIP_FREQ_SLCK_RC;
  401528:	4b49      	ldr	r3, [pc, #292]	; (401650 <SystemCoreClockUpdate+0x158>)
  40152a:	f44f 42fa 	mov.w	r2, #32000	; 0x7d00
  40152e:	601a      	str	r2, [r3, #0]
    break;
  401530:	e06a      	b.n	401608 <SystemCoreClockUpdate+0x110>
      if ( PMC->CKGR_MOR & CKGR_MOR_MOSCSEL )
  401532:	4b45      	ldr	r3, [pc, #276]	; (401648 <SystemCoreClockUpdate+0x150>)
  401534:	6a1b      	ldr	r3, [r3, #32]
  401536:	f003 7380 	and.w	r3, r3, #16777216	; 0x1000000
  40153a:	2b00      	cmp	r3, #0
  40153c:	d003      	beq.n	401546 <SystemCoreClockUpdate+0x4e>
        SystemCoreClock = CHIP_FREQ_XTAL_12M;
  40153e:	4b44      	ldr	r3, [pc, #272]	; (401650 <SystemCoreClockUpdate+0x158>)
  401540:	4a44      	ldr	r2, [pc, #272]	; (401654 <SystemCoreClockUpdate+0x15c>)
  401542:	601a      	str	r2, [r3, #0]
    break;
  401544:	e060      	b.n	401608 <SystemCoreClockUpdate+0x110>
        SystemCoreClock = CHIP_FREQ_MAINCK_RC_4MHZ;
  401546:	4b42      	ldr	r3, [pc, #264]	; (401650 <SystemCoreClockUpdate+0x158>)
  401548:	4a43      	ldr	r2, [pc, #268]	; (401658 <SystemCoreClockUpdate+0x160>)
  40154a:	601a      	str	r2, [r3, #0]
        switch ( PMC->CKGR_MOR & CKGR_MOR_MOSCRCF_Msk )
  40154c:	4b3e      	ldr	r3, [pc, #248]	; (401648 <SystemCoreClockUpdate+0x150>)
  40154e:	6a1b      	ldr	r3, [r3, #32]
  401550:	f003 0370 	and.w	r3, r3, #112	; 0x70
  401554:	2b10      	cmp	r3, #16
  401556:	d004      	beq.n	401562 <SystemCoreClockUpdate+0x6a>
  401558:	2b20      	cmp	r3, #32
  40155a:	d008      	beq.n	40156e <SystemCoreClockUpdate+0x76>
  40155c:	2b00      	cmp	r3, #0
  40155e:	d00e      	beq.n	40157e <SystemCoreClockUpdate+0x86>
          break;
  401560:	e00e      	b.n	401580 <SystemCoreClockUpdate+0x88>
            SystemCoreClock *= 2U;
  401562:	4b3b      	ldr	r3, [pc, #236]	; (401650 <SystemCoreClockUpdate+0x158>)
  401564:	681b      	ldr	r3, [r3, #0]
  401566:	005b      	lsls	r3, r3, #1
  401568:	4a39      	ldr	r2, [pc, #228]	; (401650 <SystemCoreClockUpdate+0x158>)
  40156a:	6013      	str	r3, [r2, #0]
          break;
  40156c:	e008      	b.n	401580 <SystemCoreClockUpdate+0x88>
            SystemCoreClock *= 3U;
  40156e:	4b38      	ldr	r3, [pc, #224]	; (401650 <SystemCoreClockUpdate+0x158>)
  401570:	681a      	ldr	r2, [r3, #0]
  401572:	4613      	mov	r3, r2
  401574:	005b      	lsls	r3, r3, #1
  401576:	4413      	add	r3, r2
  401578:	4a35      	ldr	r2, [pc, #212]	; (401650 <SystemCoreClockUpdate+0x158>)
  40157a:	6013      	str	r3, [r2, #0]
          break;
  40157c:	e000      	b.n	401580 <SystemCoreClockUpdate+0x88>
          break;
  40157e:	bf00      	nop
    break;
  401580:	e042      	b.n	401608 <SystemCoreClockUpdate+0x110>
      if ( PMC->CKGR_MOR & CKGR_MOR_MOSCSEL )
  401582:	4b31      	ldr	r3, [pc, #196]	; (401648 <SystemCoreClockUpdate+0x150>)
  401584:	6a1b      	ldr	r3, [r3, #32]
  401586:	f003 7380 	and.w	r3, r3, #16777216	; 0x1000000
  40158a:	2b00      	cmp	r3, #0
  40158c:	d003      	beq.n	401596 <SystemCoreClockUpdate+0x9e>
        SystemCoreClock = CHIP_FREQ_XTAL_12M ;
  40158e:	4b30      	ldr	r3, [pc, #192]	; (401650 <SystemCoreClockUpdate+0x158>)
  401590:	4a30      	ldr	r2, [pc, #192]	; (401654 <SystemCoreClockUpdate+0x15c>)
  401592:	601a      	str	r2, [r3, #0]
  401594:	e01c      	b.n	4015d0 <SystemCoreClockUpdate+0xd8>
        SystemCoreClock = CHIP_FREQ_MAINCK_RC_4MHZ;
  401596:	4b2e      	ldr	r3, [pc, #184]	; (401650 <SystemCoreClockUpdate+0x158>)
  401598:	4a2f      	ldr	r2, [pc, #188]	; (401658 <SystemCoreClockUpdate+0x160>)
  40159a:	601a      	str	r2, [r3, #0]
        switch ( PMC->CKGR_MOR & CKGR_MOR_MOSCRCF_Msk )
  40159c:	4b2a      	ldr	r3, [pc, #168]	; (401648 <SystemCoreClockUpdate+0x150>)
  40159e:	6a1b      	ldr	r3, [r3, #32]
  4015a0:	f003 0370 	and.w	r3, r3, #112	; 0x70
  4015a4:	2b10      	cmp	r3, #16
  4015a6:	d004      	beq.n	4015b2 <SystemCoreClockUpdate+0xba>
  4015a8:	2b20      	cmp	r3, #32
  4015aa:	d008      	beq.n	4015be <SystemCoreClockUpdate+0xc6>
  4015ac:	2b00      	cmp	r3, #0
  4015ae:	d00e      	beq.n	4015ce <SystemCoreClockUpdate+0xd6>
          break;
  4015b0:	e00e      	b.n	4015d0 <SystemCoreClockUpdate+0xd8>
            SystemCoreClock *= 2U;
  4015b2:	4b27      	ldr	r3, [pc, #156]	; (401650 <SystemCoreClockUpdate+0x158>)
  4015b4:	681b      	ldr	r3, [r3, #0]
  4015b6:	005b      	lsls	r3, r3, #1
  4015b8:	4a25      	ldr	r2, [pc, #148]	; (401650 <SystemCoreClockUpdate+0x158>)
  4015ba:	6013      	str	r3, [r2, #0]
          break;
  4015bc:	e008      	b.n	4015d0 <SystemCoreClockUpdate+0xd8>
            SystemCoreClock *= 3U;
  4015be:	4b24      	ldr	r3, [pc, #144]	; (401650 <SystemCoreClockUpdate+0x158>)
  4015c0:	681a      	ldr	r2, [r3, #0]
  4015c2:	4613      	mov	r3, r2
  4015c4:	005b      	lsls	r3, r3, #1
  4015c6:	4413      	add	r3, r2
  4015c8:	4a21      	ldr	r2, [pc, #132]	; (401650 <SystemCoreClockUpdate+0x158>)
  4015ca:	6013      	str	r3, [r2, #0]
          break;
  4015cc:	e000      	b.n	4015d0 <SystemCoreClockUpdate+0xd8>
          break;
  4015ce:	bf00      	nop
      if ( (uint32_t) (PMC->PMC_MCKR & (uint32_t) PMC_MCKR_CSS_Msk) == PMC_MCKR_CSS_PLLA_CLK )
  4015d0:	4b1d      	ldr	r3, [pc, #116]	; (401648 <SystemCoreClockUpdate+0x150>)
  4015d2:	6b1b      	ldr	r3, [r3, #48]	; 0x30
  4015d4:	f003 0303 	and.w	r3, r3, #3
  4015d8:	2b02      	cmp	r3, #2
  4015da:	d114      	bne.n	401606 <SystemCoreClockUpdate+0x10e>
        SystemCoreClock *= ((((PMC->CKGR_PLLAR) & CKGR_PLLAR_MULA_Msk) >> CKGR_PLLAR_MULA_Pos) + 1U);
  4015dc:	4b1a      	ldr	r3, [pc, #104]	; (401648 <SystemCoreClockUpdate+0x150>)
  4015de:	6a9b      	ldr	r3, [r3, #40]	; 0x28
  4015e0:	0c1b      	lsrs	r3, r3, #16
  4015e2:	f3c3 030a 	ubfx	r3, r3, #0, #11
  4015e6:	3301      	adds	r3, #1
  4015e8:	4a19      	ldr	r2, [pc, #100]	; (401650 <SystemCoreClockUpdate+0x158>)
  4015ea:	6812      	ldr	r2, [r2, #0]
  4015ec:	fb02 f303 	mul.w	r3, r2, r3
  4015f0:	4a17      	ldr	r2, [pc, #92]	; (401650 <SystemCoreClockUpdate+0x158>)
  4015f2:	6013      	str	r3, [r2, #0]
        SystemCoreClock /= ((((PMC->CKGR_PLLAR) & CKGR_PLLAR_DIVA_Msk) >> CKGR_PLLAR_DIVA_Pos));
  4015f4:	4b14      	ldr	r3, [pc, #80]	; (401648 <SystemCoreClockUpdate+0x150>)
  4015f6:	6a9b      	ldr	r3, [r3, #40]	; 0x28
  4015f8:	b2db      	uxtb	r3, r3
  4015fa:	4a15      	ldr	r2, [pc, #84]	; (401650 <SystemCoreClockUpdate+0x158>)
  4015fc:	6812      	ldr	r2, [r2, #0]
  4015fe:	fbb2 f3f3 	udiv	r3, r2, r3
  401602:	4a13      	ldr	r2, [pc, #76]	; (401650 <SystemCoreClockUpdate+0x158>)
  401604:	6013      	str	r3, [r2, #0]
    break;
  401606:	bf00      	nop
  }

  if ( (PMC->PMC_MCKR & PMC_MCKR_PRES_Msk) == PMC_MCKR_PRES_CLK_3 )
  401608:	4b0f      	ldr	r3, [pc, #60]	; (401648 <SystemCoreClockUpdate+0x150>)
  40160a:	6b1b      	ldr	r3, [r3, #48]	; 0x30
  40160c:	f003 0370 	and.w	r3, r3, #112	; 0x70
  401610:	2b70      	cmp	r3, #112	; 0x70
  401612:	d108      	bne.n	401626 <SystemCoreClockUpdate+0x12e>
  {
    SystemCoreClock /= 3U;
  401614:	4b0e      	ldr	r3, [pc, #56]	; (401650 <SystemCoreClockUpdate+0x158>)
  401616:	681b      	ldr	r3, [r3, #0]
  401618:	4a10      	ldr	r2, [pc, #64]	; (40165c <SystemCoreClockUpdate+0x164>)
  40161a:	fba2 2303 	umull	r2, r3, r2, r3
  40161e:	085b      	lsrs	r3, r3, #1
  401620:	4a0b      	ldr	r2, [pc, #44]	; (401650 <SystemCoreClockUpdate+0x158>)
  401622:	6013      	str	r3, [r2, #0]
  }
  else
  {
    SystemCoreClock >>= ((PMC->PMC_MCKR & PMC_MCKR_PRES_Msk) >> PMC_MCKR_PRES_Pos);
  }
}
  401624:	e00a      	b.n	40163c <SystemCoreClockUpdate+0x144>
    SystemCoreClock >>= ((PMC->PMC_MCKR & PMC_MCKR_PRES_Msk) >> PMC_MCKR_PRES_Pos);
  401626:	4b08      	ldr	r3, [pc, #32]	; (401648 <SystemCoreClockUpdate+0x150>)
  401628:	6b1b      	ldr	r3, [r3, #48]	; 0x30
  40162a:	091b      	lsrs	r3, r3, #4
  40162c:	f003 0307 	and.w	r3, r3, #7
  401630:	4a07      	ldr	r2, [pc, #28]	; (401650 <SystemCoreClockUpdate+0x158>)
  401632:	6812      	ldr	r2, [r2, #0]
  401634:	fa22 f303 	lsr.w	r3, r2, r3
  401638:	4a05      	ldr	r2, [pc, #20]	; (401650 <SystemCoreClockUpdate+0x158>)
  40163a:	6013      	str	r3, [r2, #0]
}
  40163c:	bf00      	nop
  40163e:	46bd      	mov	sp, r7
  401640:	f85d 7b04 	ldr.w	r7, [sp], #4
  401644:	4770      	bx	lr
  401646:	bf00      	nop
  401648:	400e0600 	.word	0x400e0600
  40164c:	400e1810 	.word	0x400e1810
  401650:	20400004 	.word	0x20400004
  401654:	00b71b00 	.word	0x00b71b00
  401658:	003d0900 	.word	0x003d0900
  40165c:	aaaaaaab 	.word	0xaaaaaaab

00401660 <system_init_flash>:
/**
 * Initialize flash.
 */
void system_init_flash( uint32_t ul_clk )
{
  401660:	b480      	push	{r7}
  401662:	b083      	sub	sp, #12
  401664:	af00      	add	r7, sp, #0
  401666:	6078      	str	r0, [r7, #4]
  /* Set FWS for embedded Flash access according to operating frequency */
  if ( ul_clk < CHIP_FREQ_FWS_0 )
  401668:	687b      	ldr	r3, [r7, #4]
  40166a:	4a19      	ldr	r2, [pc, #100]	; (4016d0 <system_init_flash+0x70>)
  40166c:	4293      	cmp	r3, r2
  40166e:	d804      	bhi.n	40167a <system_init_flash+0x1a>
  {
    EFC->EEFC_FMR = EEFC_FMR_FWS(0)|EEFC_FMR_CLOE;
  401670:	4b18      	ldr	r3, [pc, #96]	; (4016d4 <system_init_flash+0x74>)
  401672:	f04f 6280 	mov.w	r2, #67108864	; 0x4000000
  401676:	601a      	str	r2, [r3, #0]
          }
        }
      }
    }
  }
}
  401678:	e023      	b.n	4016c2 <system_init_flash+0x62>
    if (ul_clk < CHIP_FREQ_FWS_1)
  40167a:	687b      	ldr	r3, [r7, #4]
  40167c:	4a16      	ldr	r2, [pc, #88]	; (4016d8 <system_init_flash+0x78>)
  40167e:	4293      	cmp	r3, r2
  401680:	d803      	bhi.n	40168a <system_init_flash+0x2a>
      EFC->EEFC_FMR = EEFC_FMR_FWS(1)|EEFC_FMR_CLOE;
  401682:	4b14      	ldr	r3, [pc, #80]	; (4016d4 <system_init_flash+0x74>)
  401684:	4a15      	ldr	r2, [pc, #84]	; (4016dc <system_init_flash+0x7c>)
  401686:	601a      	str	r2, [r3, #0]
}
  401688:	e01b      	b.n	4016c2 <system_init_flash+0x62>
      if (ul_clk < CHIP_FREQ_FWS_2)
  40168a:	687b      	ldr	r3, [r7, #4]
  40168c:	4a14      	ldr	r2, [pc, #80]	; (4016e0 <system_init_flash+0x80>)
  40168e:	4293      	cmp	r3, r2
  401690:	d803      	bhi.n	40169a <system_init_flash+0x3a>
        EFC->EEFC_FMR = EEFC_FMR_FWS(2)|EEFC_FMR_CLOE;
  401692:	4b10      	ldr	r3, [pc, #64]	; (4016d4 <system_init_flash+0x74>)
  401694:	4a13      	ldr	r2, [pc, #76]	; (4016e4 <system_init_flash+0x84>)
  401696:	601a      	str	r2, [r3, #0]
}
  401698:	e013      	b.n	4016c2 <system_init_flash+0x62>
        if ( ul_clk < CHIP_FREQ_FWS_3 )
  40169a:	687b      	ldr	r3, [r7, #4]
  40169c:	4a12      	ldr	r2, [pc, #72]	; (4016e8 <system_init_flash+0x88>)
  40169e:	4293      	cmp	r3, r2
  4016a0:	d803      	bhi.n	4016aa <system_init_flash+0x4a>
          EFC->EEFC_FMR = EEFC_FMR_FWS(3)|EEFC_FMR_CLOE;
  4016a2:	4b0c      	ldr	r3, [pc, #48]	; (4016d4 <system_init_flash+0x74>)
  4016a4:	4a11      	ldr	r2, [pc, #68]	; (4016ec <system_init_flash+0x8c>)
  4016a6:	601a      	str	r2, [r3, #0]
}
  4016a8:	e00b      	b.n	4016c2 <system_init_flash+0x62>
          if ( ul_clk < CHIP_FREQ_FWS_4 )
  4016aa:	687b      	ldr	r3, [r7, #4]
  4016ac:	4a10      	ldr	r2, [pc, #64]	; (4016f0 <system_init_flash+0x90>)
  4016ae:	4293      	cmp	r3, r2
  4016b0:	d804      	bhi.n	4016bc <system_init_flash+0x5c>
            EFC->EEFC_FMR = EEFC_FMR_FWS(4)|EEFC_FMR_CLOE;
  4016b2:	4b08      	ldr	r3, [pc, #32]	; (4016d4 <system_init_flash+0x74>)
  4016b4:	f04f 2204 	mov.w	r2, #67109888	; 0x4000400
  4016b8:	601a      	str	r2, [r3, #0]
}
  4016ba:	e002      	b.n	4016c2 <system_init_flash+0x62>
            EFC->EEFC_FMR = EEFC_FMR_FWS(5)|EEFC_FMR_CLOE;
  4016bc:	4b05      	ldr	r3, [pc, #20]	; (4016d4 <system_init_flash+0x74>)
  4016be:	4a0d      	ldr	r2, [pc, #52]	; (4016f4 <system_init_flash+0x94>)
  4016c0:	601a      	str	r2, [r3, #0]
}
  4016c2:	bf00      	nop
  4016c4:	370c      	adds	r7, #12
  4016c6:	46bd      	mov	sp, r7
  4016c8:	f85d 7b04 	ldr.w	r7, [sp], #4
  4016cc:	4770      	bx	lr
  4016ce:	bf00      	nop
  4016d0:	01312cff 	.word	0x01312cff
  4016d4:	400e0c00 	.word	0x400e0c00
  4016d8:	026259ff 	.word	0x026259ff
  4016dc:	04000100 	.word	0x04000100
  4016e0:	039386ff 	.word	0x039386ff
  4016e4:	04000200 	.word	0x04000200
  4016e8:	04c4b3ff 	.word	0x04c4b3ff
  4016ec:	04000300 	.word	0x04000300
  4016f0:	05f5e0ff 	.word	0x05f5e0ff
  4016f4:	04000500 	.word	0x04000500

004016f8 <NVIC_EnableIRQ>:
    The function enables a device-specific interrupt in the NVIC interrupt controller.

    \param [in]      IRQn  External interrupt number. Value cannot be negative.
 */
__STATIC_INLINE void NVIC_EnableIRQ(IRQn_Type IRQn)
{
  4016f8:	b480      	push	{r7}
  4016fa:	b083      	sub	sp, #12
  4016fc:	af00      	add	r7, sp, #0
  4016fe:	4603      	mov	r3, r0
  401700:	71fb      	strb	r3, [r7, #7]
/*  NVIC->ISER[((uint32_t)(IRQn) >> 5)] = (1 << ((uint32_t)(IRQn) & 0x1F));  enable interrupt */
  NVIC->ISER[(uint32_t)((int32_t)IRQn) >> 5] = (uint32_t)(1 << ((uint32_t)((int32_t)IRQn) & (uint32_t)0x1F)); /* enable interrupt */
  401702:	4909      	ldr	r1, [pc, #36]	; (401728 <NVIC_EnableIRQ+0x30>)
  401704:	f997 3007 	ldrsb.w	r3, [r7, #7]
  401708:	095b      	lsrs	r3, r3, #5
  40170a:	79fa      	ldrb	r2, [r7, #7]
  40170c:	f002 021f 	and.w	r2, r2, #31
  401710:	2001      	movs	r0, #1
  401712:	fa00 f202 	lsl.w	r2, r0, r2
  401716:	f841 2023 	str.w	r2, [r1, r3, lsl #2]
}
  40171a:	bf00      	nop
  40171c:	370c      	adds	r7, #12
  40171e:	46bd      	mov	sp, r7
  401720:	f85d 7b04 	ldr.w	r7, [sp], #4
  401724:	4770      	bx	lr
  401726:	bf00      	nop
  401728:	e000e100 	.word	0xe000e100

0040172c <NVIC_DisableIRQ>:
    The function disables a device-specific interrupt in the NVIC interrupt controller.

    \param [in]      IRQn  External interrupt number. Value cannot be negative.
 */
__STATIC_INLINE void NVIC_DisableIRQ(IRQn_Type IRQn)
{
  40172c:	b480      	push	{r7}
  40172e:	b083      	sub	sp, #12
  401730:	af00      	add	r7, sp, #0
  401732:	4603      	mov	r3, r0
  401734:	71fb      	strb	r3, [r7, #7]
  NVIC->ICER[((uint32_t)(IRQn) >> 5)] = (1 << ((uint32_t)(IRQn) & 0x1F)); /* disable interrupt */
  401736:	4909      	ldr	r1, [pc, #36]	; (40175c <NVIC_DisableIRQ+0x30>)
  401738:	f997 3007 	ldrsb.w	r3, [r7, #7]
  40173c:	095b      	lsrs	r3, r3, #5
  40173e:	79fa      	ldrb	r2, [r7, #7]
  401740:	f002 021f 	and.w	r2, r2, #31
  401744:	2001      	movs	r0, #1
  401746:	fa00 f202 	lsl.w	r2, r0, r2
  40174a:	3320      	adds	r3, #32
  40174c:	f841 2023 	str.w	r2, [r1, r3, lsl #2]
}
  401750:	bf00      	nop
  401752:	370c      	adds	r7, #12
  401754:	46bd      	mov	sp, r7
  401756:	f85d 7b04 	ldr.w	r7, [sp], #4
  40175a:	4770      	bx	lr
  40175c:	e000e100 	.word	0xe000e100

00401760 <NVIC_ClearPendingIRQ>:
    The function clears the pending bit of an external interrupt.

    \param [in]      IRQn  External interrupt number. Value cannot be negative.
 */
__STATIC_INLINE void NVIC_ClearPendingIRQ(IRQn_Type IRQn)
{
  401760:	b480      	push	{r7}
  401762:	b083      	sub	sp, #12
  401764:	af00      	add	r7, sp, #0
  401766:	4603      	mov	r3, r0
  401768:	71fb      	strb	r3, [r7, #7]
  NVIC->ICPR[((uint32_t)(IRQn) >> 5)] = (1 << ((uint32_t)(IRQn) & 0x1F)); /* Clear pending interrupt */
  40176a:	4909      	ldr	r1, [pc, #36]	; (401790 <NVIC_ClearPendingIRQ+0x30>)
  40176c:	f997 3007 	ldrsb.w	r3, [r7, #7]
  401770:	095b      	lsrs	r3, r3, #5
  401772:	79fa      	ldrb	r2, [r7, #7]
  401774:	f002 021f 	and.w	r2, r2, #31
  401778:	2001      	movs	r0, #1
  40177a:	fa00 f202 	lsl.w	r2, r0, r2
  40177e:	3360      	adds	r3, #96	; 0x60
  401780:	f841 2023 	str.w	r2, [r1, r3, lsl #2]
}
  401784:	bf00      	nop
  401786:	370c      	adds	r7, #12
  401788:	46bd      	mov	sp, r7
  40178a:	f85d 7b04 	ldr.w	r7, [sp], #4
  40178e:	4770      	bx	lr
  401790:	e000e100 	.word	0xe000e100

00401794 <NVIC_SetPriority>:

    \param [in]      IRQn  Interrupt number.
    \param [in]  priority  Priority to set.
 */
__STATIC_INLINE void NVIC_SetPriority(IRQn_Type IRQn, uint32_t priority)
{
  401794:	b480      	push	{r7}
  401796:	b083      	sub	sp, #12
  401798:	af00      	add	r7, sp, #0
  40179a:	4603      	mov	r3, r0
  40179c:	6039      	str	r1, [r7, #0]
  40179e:	71fb      	strb	r3, [r7, #7]
  if(IRQn < 0) {
  4017a0:	f997 3007 	ldrsb.w	r3, [r7, #7]
  4017a4:	2b00      	cmp	r3, #0
  4017a6:	da0b      	bge.n	4017c0 <NVIC_SetPriority+0x2c>
    SCB->SHPR[((uint32_t)(IRQn) & 0xF)-4] = ((priority << (8 - __NVIC_PRIO_BITS)) & 0xff); } /* set Priority for Cortex-M  System Interrupts */
  4017a8:	490d      	ldr	r1, [pc, #52]	; (4017e0 <NVIC_SetPriority+0x4c>)
  4017aa:	79fb      	ldrb	r3, [r7, #7]
  4017ac:	f003 030f 	and.w	r3, r3, #15
  4017b0:	3b04      	subs	r3, #4
  4017b2:	683a      	ldr	r2, [r7, #0]
  4017b4:	b2d2      	uxtb	r2, r2
  4017b6:	0152      	lsls	r2, r2, #5
  4017b8:	b2d2      	uxtb	r2, r2
  4017ba:	440b      	add	r3, r1
  4017bc:	761a      	strb	r2, [r3, #24]
  else {
    NVIC->IP[(uint32_t)(IRQn)]            = ((priority << (8 - __NVIC_PRIO_BITS)) & 0xff); } /* set Priority for device specific Interrupts  */
}
  4017be:	e009      	b.n	4017d4 <NVIC_SetPriority+0x40>
    NVIC->IP[(uint32_t)(IRQn)]            = ((priority << (8 - __NVIC_PRIO_BITS)) & 0xff); } /* set Priority for device specific Interrupts  */
  4017c0:	4908      	ldr	r1, [pc, #32]	; (4017e4 <NVIC_SetPriority+0x50>)
  4017c2:	f997 3007 	ldrsb.w	r3, [r7, #7]
  4017c6:	683a      	ldr	r2, [r7, #0]
  4017c8:	b2d2      	uxtb	r2, r2
  4017ca:	0152      	lsls	r2, r2, #5
  4017cc:	b2d2      	uxtb	r2, r2
  4017ce:	440b      	add	r3, r1
  4017d0:	f883 2300 	strb.w	r2, [r3, #768]	; 0x300
}
  4017d4:	bf00      	nop
  4017d6:	370c      	adds	r7, #12
  4017d8:	46bd      	mov	sp, r7
  4017da:	f85d 7b04 	ldr.w	r7, [sp], #4
  4017de:	4770      	bx	lr
  4017e0:	e000ed00 	.word	0xe000ed00
  4017e4:	e000e100 	.word	0xe000e100

004017e8 <osc_get_rate>:
{
  4017e8:	b480      	push	{r7}
  4017ea:	b083      	sub	sp, #12
  4017ec:	af00      	add	r7, sp, #0
  4017ee:	6078      	str	r0, [r7, #4]
	switch (ul_id) {
  4017f0:	687b      	ldr	r3, [r7, #4]
  4017f2:	2b07      	cmp	r3, #7
  4017f4:	d825      	bhi.n	401842 <osc_get_rate+0x5a>
  4017f6:	a201      	add	r2, pc, #4	; (adr r2, 4017fc <osc_get_rate+0x14>)
  4017f8:	f852 f023 	ldr.w	pc, [r2, r3, lsl #2]
  4017fc:	0040181d 	.word	0x0040181d
  401800:	00401823 	.word	0x00401823
  401804:	00401829 	.word	0x00401829
  401808:	0040182f 	.word	0x0040182f
  40180c:	00401833 	.word	0x00401833
  401810:	00401837 	.word	0x00401837
  401814:	0040183b 	.word	0x0040183b
  401818:	0040183f 	.word	0x0040183f
		return OSC_SLCK_32K_RC_HZ;
  40181c:	f44f 43fa 	mov.w	r3, #32000	; 0x7d00
  401820:	e010      	b.n	401844 <osc_get_rate+0x5c>
		return BOARD_FREQ_SLCK_XTAL;
  401822:	f44f 4300 	mov.w	r3, #32768	; 0x8000
  401826:	e00d      	b.n	401844 <osc_get_rate+0x5c>
		return BOARD_FREQ_SLCK_BYPASS;
  401828:	f44f 4300 	mov.w	r3, #32768	; 0x8000
  40182c:	e00a      	b.n	401844 <osc_get_rate+0x5c>
		return OSC_MAINCK_4M_RC_HZ;
  40182e:	4b08      	ldr	r3, [pc, #32]	; (401850 <osc_get_rate+0x68>)
  401830:	e008      	b.n	401844 <osc_get_rate+0x5c>
		return OSC_MAINCK_8M_RC_HZ;
  401832:	4b08      	ldr	r3, [pc, #32]	; (401854 <osc_get_rate+0x6c>)
  401834:	e006      	b.n	401844 <osc_get_rate+0x5c>
		return OSC_MAINCK_12M_RC_HZ;
  401836:	4b08      	ldr	r3, [pc, #32]	; (401858 <osc_get_rate+0x70>)
  401838:	e004      	b.n	401844 <osc_get_rate+0x5c>
		return BOARD_FREQ_MAINCK_XTAL;
  40183a:	4b07      	ldr	r3, [pc, #28]	; (401858 <osc_get_rate+0x70>)
  40183c:	e002      	b.n	401844 <osc_get_rate+0x5c>
		return BOARD_FREQ_MAINCK_BYPASS;
  40183e:	4b06      	ldr	r3, [pc, #24]	; (401858 <osc_get_rate+0x70>)
  401840:	e000      	b.n	401844 <osc_get_rate+0x5c>
	return 0;
  401842:	2300      	movs	r3, #0
}
  401844:	4618      	mov	r0, r3
  401846:	370c      	adds	r7, #12
  401848:	46bd      	mov	sp, r7
  40184a:	f85d 7b04 	ldr.w	r7, [sp], #4
  40184e:	4770      	bx	lr
  401850:	003d0900 	.word	0x003d0900
  401854:	007a1200 	.word	0x007a1200
  401858:	00b71b00 	.word	0x00b71b00

0040185c <sysclk_get_main_hz>:
{
  40185c:	b580      	push	{r7, lr}
  40185e:	af00      	add	r7, sp, #0
		return pll_get_default_rate(0);
  401860:	2006      	movs	r0, #6
  401862:	4b05      	ldr	r3, [pc, #20]	; (401878 <sysclk_get_main_hz+0x1c>)
  401864:	4798      	blx	r3
  401866:	4602      	mov	r2, r0
  401868:	4613      	mov	r3, r2
  40186a:	009b      	lsls	r3, r3, #2
  40186c:	4413      	add	r3, r2
  40186e:	009a      	lsls	r2, r3, #2
  401870:	4413      	add	r3, r2
}
  401872:	4618      	mov	r0, r3
  401874:	bd80      	pop	{r7, pc}
  401876:	bf00      	nop
  401878:	004017e9 	.word	0x004017e9

0040187c <sysclk_get_cpu_hz>:
{
  40187c:	b580      	push	{r7, lr}
  40187e:	af00      	add	r7, sp, #0
	return sysclk_get_main_hz() /
  401880:	4b02      	ldr	r3, [pc, #8]	; (40188c <sysclk_get_cpu_hz+0x10>)
  401882:	4798      	blx	r3
  401884:	4603      	mov	r3, r0
}
  401886:	4618      	mov	r0, r3
  401888:	bd80      	pop	{r7, pc}
  40188a:	bf00      	nop
  40188c:	0040185d 	.word	0x0040185d

00401890 <Button0_Handler>:
/************************************************************************/

/**
*  Handle Interrupcao botao 1
*/
static void Button0_Handler(uint32_t id, uint32_t mask){
  401890:	b480      	push	{r7}
  401892:	b083      	sub	sp, #12
  401894:	af00      	add	r7, sp, #0
  401896:	6078      	str	r0, [r7, #4]
  401898:	6039      	str	r1, [r7, #0]
		flag_led0 =! flag_led0;
  40189a:	4b08      	ldr	r3, [pc, #32]	; (4018bc <Button0_Handler+0x2c>)
  40189c:	781b      	ldrb	r3, [r3, #0]
  40189e:	b2db      	uxtb	r3, r3
  4018a0:	2b00      	cmp	r3, #0
  4018a2:	bf0c      	ite	eq
  4018a4:	2301      	moveq	r3, #1
  4018a6:	2300      	movne	r3, #0
  4018a8:	b2db      	uxtb	r3, r3
  4018aa:	461a      	mov	r2, r3
  4018ac:	4b03      	ldr	r3, [pc, #12]	; (4018bc <Button0_Handler+0x2c>)
  4018ae:	701a      	strb	r2, [r3, #0]
}
  4018b0:	bf00      	nop
  4018b2:	370c      	adds	r7, #12
  4018b4:	46bd      	mov	sp, r7
  4018b6:	f85d 7b04 	ldr.w	r7, [sp], #4
  4018ba:	4770      	bx	lr
  4018bc:	204004cc 	.word	0x204004cc

004018c0 <Button_1_Handler>:
static void Button_1_Handler(uint32_t id, uint32_t mask){
  4018c0:	b480      	push	{r7}
  4018c2:	b083      	sub	sp, #12
  4018c4:	af00      	add	r7, sp, #0
  4018c6:	6078      	str	r0, [r7, #4]
  4018c8:	6039      	str	r1, [r7, #0]
		flag_led_1 =! flag_led_1;
  4018ca:	4b08      	ldr	r3, [pc, #32]	; (4018ec <Button_1_Handler+0x2c>)
  4018cc:	781b      	ldrb	r3, [r3, #0]
  4018ce:	b2db      	uxtb	r3, r3
  4018d0:	2b00      	cmp	r3, #0
  4018d2:	bf0c      	ite	eq
  4018d4:	2301      	moveq	r3, #1
  4018d6:	2300      	movne	r3, #0
  4018d8:	b2db      	uxtb	r3, r3
  4018da:	461a      	mov	r2, r3
  4018dc:	4b03      	ldr	r3, [pc, #12]	; (4018ec <Button_1_Handler+0x2c>)
  4018de:	701a      	strb	r2, [r3, #0]
}
  4018e0:	bf00      	nop
  4018e2:	370c      	adds	r7, #12
  4018e4:	46bd      	mov	sp, r7
  4018e6:	f85d 7b04 	ldr.w	r7, [sp], #4
  4018ea:	4770      	bx	lr
  4018ec:	204004cd 	.word	0x204004cd

004018f0 <Button_2_Handler>:
static void Button_2_Handler(uint32_t id, uint32_t mask){
  4018f0:	b480      	push	{r7}
  4018f2:	b083      	sub	sp, #12
  4018f4:	af00      	add	r7, sp, #0
  4018f6:	6078      	str	r0, [r7, #4]
  4018f8:	6039      	str	r1, [r7, #0]
		flag_led_2 =! flag_led_2;
  4018fa:	4b08      	ldr	r3, [pc, #32]	; (40191c <Button_2_Handler+0x2c>)
  4018fc:	781b      	ldrb	r3, [r3, #0]
  4018fe:	b2db      	uxtb	r3, r3
  401900:	2b00      	cmp	r3, #0
  401902:	bf0c      	ite	eq
  401904:	2301      	moveq	r3, #1
  401906:	2300      	movne	r3, #0
  401908:	b2db      	uxtb	r3, r3
  40190a:	461a      	mov	r2, r3
  40190c:	4b03      	ldr	r3, [pc, #12]	; (40191c <Button_2_Handler+0x2c>)
  40190e:	701a      	strb	r2, [r3, #0]
}
  401910:	bf00      	nop
  401912:	370c      	adds	r7, #12
  401914:	46bd      	mov	sp, r7
  401916:	f85d 7b04 	ldr.w	r7, [sp], #4
  40191a:	4770      	bx	lr
  40191c:	204004ce 	.word	0x204004ce

00401920 <Button_3_Handler>:
static void Button_3_Handler(uint32_t id, uint32_t mask){
  401920:	b480      	push	{r7}
  401922:	b083      	sub	sp, #12
  401924:	af00      	add	r7, sp, #0
  401926:	6078      	str	r0, [r7, #4]
  401928:	6039      	str	r1, [r7, #0]
		flag_led_3 =! flag_led_3;
  40192a:	4b08      	ldr	r3, [pc, #32]	; (40194c <Button_3_Handler+0x2c>)
  40192c:	781b      	ldrb	r3, [r3, #0]
  40192e:	b2db      	uxtb	r3, r3
  401930:	2b00      	cmp	r3, #0
  401932:	bf0c      	ite	eq
  401934:	2301      	moveq	r3, #1
  401936:	2300      	movne	r3, #0
  401938:	b2db      	uxtb	r3, r3
  40193a:	461a      	mov	r2, r3
  40193c:	4b03      	ldr	r3, [pc, #12]	; (40194c <Button_3_Handler+0x2c>)
  40193e:	701a      	strb	r2, [r3, #0]
}
  401940:	bf00      	nop
  401942:	370c      	adds	r7, #12
  401944:	46bd      	mov	sp, r7
  401946:	f85d 7b04 	ldr.w	r7, [sp], #4
  40194a:	4770      	bx	lr
  40194c:	20400008 	.word	0x20400008

00401950 <TC1_Handler>:

/**
*  Interrupt handler for TC1 interrupt.
*/
void TC1_Handler(void){
  401950:	b580      	push	{r7, lr}
  401952:	b082      	sub	sp, #8
  401954:	af00      	add	r7, sp, #0
	volatile uint32_t ul_dummy;

	/****************************************************************
	* Devemos indicar ao TC que a interrup??o foi satisfeita.
	******************************************************************/
	ul_dummy = tc_get_status(TC0, 1);
  401956:	2101      	movs	r1, #1
  401958:	4809      	ldr	r0, [pc, #36]	; (401980 <TC1_Handler+0x30>)
  40195a:	4b0a      	ldr	r3, [pc, #40]	; (401984 <TC1_Handler+0x34>)
  40195c:	4798      	blx	r3
  40195e:	4603      	mov	r3, r0
  401960:	607b      	str	r3, [r7, #4]

	/* Avoid compiler warning */
	UNUSED(ul_dummy);
  401962:	687b      	ldr	r3, [r7, #4]

	/** Muda o estado do LED */
	if(flag_led0)
  401964:	4b08      	ldr	r3, [pc, #32]	; (401988 <TC1_Handler+0x38>)
  401966:	781b      	ldrb	r3, [r3, #0]
  401968:	b2db      	uxtb	r3, r3
  40196a:	2b00      	cmp	r3, #0
  40196c:	d004      	beq.n	401978 <TC1_Handler+0x28>
		pin_toggle(LED_PIO, LED_PIN_MASK);
  40196e:	f44f 7180 	mov.w	r1, #256	; 0x100
  401972:	4806      	ldr	r0, [pc, #24]	; (40198c <TC1_Handler+0x3c>)
  401974:	4b06      	ldr	r3, [pc, #24]	; (401990 <TC1_Handler+0x40>)
  401976:	4798      	blx	r3
}
  401978:	bf00      	nop
  40197a:	3708      	adds	r7, #8
  40197c:	46bd      	mov	sp, r7
  40197e:	bd80      	pop	{r7, pc}
  401980:	4000c000 	.word	0x4000c000
  401984:	004012ef 	.word	0x004012ef
  401988:	204004cc 	.word	0x204004cc
  40198c:	400e1200 	.word	0x400e1200
  401990:	00401bc9 	.word	0x00401bc9

00401994 <TC0_Handler>:

void TC0_Handler(void){
  401994:	b580      	push	{r7, lr}
  401996:	b082      	sub	sp, #8
  401998:	af00      	add	r7, sp, #0
	volatile uint32_t ul_dummy;

	/****************************************************************
	* Devemos indicar ao TC que a interrup??o foi satisfeita.
	******************************************************************/
	ul_dummy = tc_get_status(TC0, 0);
  40199a:	2100      	movs	r1, #0
  40199c:	4809      	ldr	r0, [pc, #36]	; (4019c4 <TC0_Handler+0x30>)
  40199e:	4b0a      	ldr	r3, [pc, #40]	; (4019c8 <TC0_Handler+0x34>)
  4019a0:	4798      	blx	r3
  4019a2:	4603      	mov	r3, r0
  4019a4:	607b      	str	r3, [r7, #4]

	/* Avoid compiler warning */
	UNUSED(ul_dummy);
  4019a6:	687b      	ldr	r3, [r7, #4]

	/** Muda o estado do LED */
	if(flag_led_1)
  4019a8:	4b08      	ldr	r3, [pc, #32]	; (4019cc <TC0_Handler+0x38>)
  4019aa:	781b      	ldrb	r3, [r3, #0]
  4019ac:	b2db      	uxtb	r3, r3
  4019ae:	2b00      	cmp	r3, #0
  4019b0:	d003      	beq.n	4019ba <TC0_Handler+0x26>
		pin_toggle(LED_1_PIO, LED_1_PIN_MASK);
  4019b2:	2101      	movs	r1, #1
  4019b4:	4806      	ldr	r0, [pc, #24]	; (4019d0 <TC0_Handler+0x3c>)
  4019b6:	4b07      	ldr	r3, [pc, #28]	; (4019d4 <TC0_Handler+0x40>)
  4019b8:	4798      	blx	r3
}
  4019ba:	bf00      	nop
  4019bc:	3708      	adds	r7, #8
  4019be:	46bd      	mov	sp, r7
  4019c0:	bd80      	pop	{r7, pc}
  4019c2:	bf00      	nop
  4019c4:	4000c000 	.word	0x4000c000
  4019c8:	004012ef 	.word	0x004012ef
  4019cc:	204004cd 	.word	0x204004cd
  4019d0:	400e0e00 	.word	0x400e0e00
  4019d4:	00401bc9 	.word	0x00401bc9

004019d8 <TC2_Handler>:
void TC2_Handler(void){
  4019d8:	b580      	push	{r7, lr}
  4019da:	b082      	sub	sp, #8
  4019dc:	af00      	add	r7, sp, #0
	volatile uint32_t ul_dummy;

	/****************************************************************
	* Devemos indicar ao TC que a interrup??o foi satisfeita.
	******************************************************************/
	ul_dummy = tc_get_status(TC0, 2);
  4019de:	2102      	movs	r1, #2
  4019e0:	4809      	ldr	r0, [pc, #36]	; (401a08 <TC2_Handler+0x30>)
  4019e2:	4b0a      	ldr	r3, [pc, #40]	; (401a0c <TC2_Handler+0x34>)
  4019e4:	4798      	blx	r3
  4019e6:	4603      	mov	r3, r0
  4019e8:	607b      	str	r3, [r7, #4]

	/* Avoid compiler warning */
	UNUSED(ul_dummy);
  4019ea:	687b      	ldr	r3, [r7, #4]

	/** Muda o estado do LED */
	if(flag_led_2)
  4019ec:	4b08      	ldr	r3, [pc, #32]	; (401a10 <TC2_Handler+0x38>)
  4019ee:	781b      	ldrb	r3, [r3, #0]
  4019f0:	b2db      	uxtb	r3, r3
  4019f2:	2b00      	cmp	r3, #0
  4019f4:	d004      	beq.n	401a00 <TC2_Handler+0x28>
		pin_toggle(LED_2_PIO, LED_2_PIN_MASK);
  4019f6:	f04f 4180 	mov.w	r1, #1073741824	; 0x40000000
  4019fa:	4806      	ldr	r0, [pc, #24]	; (401a14 <TC2_Handler+0x3c>)
  4019fc:	4b06      	ldr	r3, [pc, #24]	; (401a18 <TC2_Handler+0x40>)
  4019fe:	4798      	blx	r3
}
  401a00:	bf00      	nop
  401a02:	3708      	adds	r7, #8
  401a04:	46bd      	mov	sp, r7
  401a06:	bd80      	pop	{r7, pc}
  401a08:	4000c000 	.word	0x4000c000
  401a0c:	004012ef 	.word	0x004012ef
  401a10:	204004ce 	.word	0x204004ce
  401a14:	400e1200 	.word	0x400e1200
  401a18:	00401bc9 	.word	0x00401bc9

00401a1c <TC3_Handler>:

void TC3_Handler(void){
  401a1c:	b580      	push	{r7, lr}
  401a1e:	b082      	sub	sp, #8
  401a20:	af00      	add	r7, sp, #0
	volatile uint32_t ul_dummy;

	/****************************************************************
	* Devemos indicar ao TC que a interrup??o foi satisfeita.
	******************************************************************/
	ul_dummy = tc_get_status(TC1, 0);
  401a22:	2100      	movs	r1, #0
  401a24:	4809      	ldr	r0, [pc, #36]	; (401a4c <TC3_Handler+0x30>)
  401a26:	4b0a      	ldr	r3, [pc, #40]	; (401a50 <TC3_Handler+0x34>)
  401a28:	4798      	blx	r3
  401a2a:	4603      	mov	r3, r0
  401a2c:	607b      	str	r3, [r7, #4]

	/* Avoid compiler warning */
	UNUSED(ul_dummy);
  401a2e:	687b      	ldr	r3, [r7, #4]

	/** Muda o estado do LED */
	if(flag_led_3)
  401a30:	4b08      	ldr	r3, [pc, #32]	; (401a54 <TC3_Handler+0x38>)
  401a32:	781b      	ldrb	r3, [r3, #0]
  401a34:	b2db      	uxtb	r3, r3
  401a36:	2b00      	cmp	r3, #0
  401a38:	d003      	beq.n	401a42 <TC3_Handler+0x26>
		pin_toggle(LED_3_PIO, LED_3_PIN_MASK);
  401a3a:	2104      	movs	r1, #4
  401a3c:	4806      	ldr	r0, [pc, #24]	; (401a58 <TC3_Handler+0x3c>)
  401a3e:	4b07      	ldr	r3, [pc, #28]	; (401a5c <TC3_Handler+0x40>)
  401a40:	4798      	blx	r3
}
  401a42:	bf00      	nop
  401a44:	3708      	adds	r7, #8
  401a46:	46bd      	mov	sp, r7
  401a48:	bd80      	pop	{r7, pc}
  401a4a:	bf00      	nop
  401a4c:	40010000 	.word	0x40010000
  401a50:	004012ef 	.word	0x004012ef
  401a54:	20400008 	.word	0x20400008
  401a58:	400e1000 	.word	0x400e1000
  401a5c:	00401bc9 	.word	0x00401bc9

00401a60 <RTC_Handler>:

/**
* \brief Interrupt handler for the RTC. Refresh the display.
*/
void RTC_Handler(void)
{
  401a60:	b590      	push	{r4, r7, lr}
  401a62:	b089      	sub	sp, #36	; 0x24
  401a64:	af04      	add	r7, sp, #16
	uint32_t ul_status = rtc_get_status(RTC);
  401a66:	484d      	ldr	r0, [pc, #308]	; (401b9c <RTC_Handler+0x13c>)
  401a68:	4b4d      	ldr	r3, [pc, #308]	; (401ba0 <RTC_Handler+0x140>)
  401a6a:	4798      	blx	r3
  401a6c:	60f8      	str	r0, [r7, #12]
	/*
	*  Verifica por qual motivo entrou
	*  na interrupcao, se foi por segundo
	*  ou Alarm
	*/
	if ((ul_status & RTC_SR_SEC) == RTC_SR_SEC) {
  401a6e:	68fb      	ldr	r3, [r7, #12]
  401a70:	f003 0304 	and.w	r3, r3, #4
  401a74:	2b00      	cmp	r3, #0
  401a76:	d003      	beq.n	401a80 <RTC_Handler+0x20>
		rtc_clear_status(RTC, RTC_SCCR_SECCLR);
  401a78:	2104      	movs	r1, #4
  401a7a:	4848      	ldr	r0, [pc, #288]	; (401b9c <RTC_Handler+0x13c>)
  401a7c:	4b49      	ldr	r3, [pc, #292]	; (401ba4 <RTC_Handler+0x144>)
  401a7e:	4798      	blx	r3
	}
	
	/* Time or date alarm */
	if ((ul_status & RTC_SR_ALARM) == RTC_SR_ALARM) {
  401a80:	68fb      	ldr	r3, [r7, #12]
  401a82:	f003 0302 	and.w	r3, r3, #2
  401a86:	2b00      	cmp	r3, #0
  401a88:	d074      	beq.n	401b74 <RTC_Handler+0x114>
			rtc_clear_status(RTC, RTC_SCCR_ALRCLR);
  401a8a:	2102      	movs	r1, #2
  401a8c:	4843      	ldr	r0, [pc, #268]	; (401b9c <RTC_Handler+0x13c>)
  401a8e:	4b45      	ldr	r3, [pc, #276]	; (401ba4 <RTC_Handler+0x144>)
  401a90:	4798      	blx	r3

			uint32_t h,m,s;
			rtc_get_time(RTC, &h, &m, &s);
  401a92:	463b      	mov	r3, r7
  401a94:	1d3a      	adds	r2, r7, #4
  401a96:	f107 0108 	add.w	r1, r7, #8
  401a9a:	4840      	ldr	r0, [pc, #256]	; (401b9c <RTC_Handler+0x13c>)
  401a9c:	4c42      	ldr	r4, [pc, #264]	; (401ba8 <RTC_Handler+0x148>)
  401a9e:	47a0      	blx	r4
			rtc_set_time_alarm(RTC, 1, h, 1, m+1, 1, s);
  401aa0:	68b9      	ldr	r1, [r7, #8]
  401aa2:	687b      	ldr	r3, [r7, #4]
  401aa4:	3301      	adds	r3, #1
  401aa6:	683a      	ldr	r2, [r7, #0]
  401aa8:	9202      	str	r2, [sp, #8]
  401aaa:	2201      	movs	r2, #1
  401aac:	9201      	str	r2, [sp, #4]
  401aae:	9300      	str	r3, [sp, #0]
  401ab0:	2301      	movs	r3, #1
  401ab2:	460a      	mov	r2, r1
  401ab4:	2101      	movs	r1, #1
  401ab6:	4839      	ldr	r0, [pc, #228]	; (401b9c <RTC_Handler+0x13c>)
  401ab8:	4c3c      	ldr	r4, [pc, #240]	; (401bac <RTC_Handler+0x14c>)
  401aba:	47a0      	blx	r4
			
			flag_led0 = !flag_led0;
  401abc:	4b3c      	ldr	r3, [pc, #240]	; (401bb0 <RTC_Handler+0x150>)
  401abe:	781b      	ldrb	r3, [r3, #0]
  401ac0:	b2db      	uxtb	r3, r3
  401ac2:	2b00      	cmp	r3, #0
  401ac4:	bf0c      	ite	eq
  401ac6:	2301      	moveq	r3, #1
  401ac8:	2300      	movne	r3, #0
  401aca:	b2db      	uxtb	r3, r3
  401acc:	461a      	mov	r2, r3
  401ace:	4b38      	ldr	r3, [pc, #224]	; (401bb0 <RTC_Handler+0x150>)
  401ad0:	701a      	strb	r2, [r3, #0]
			
			if (flag_led0){
  401ad2:	4b37      	ldr	r3, [pc, #220]	; (401bb0 <RTC_Handler+0x150>)
  401ad4:	781b      	ldrb	r3, [r3, #0]
  401ad6:	b2db      	uxtb	r3, r3
  401ad8:	2b00      	cmp	r3, #0
  401ada:	d003      	beq.n	401ae4 <RTC_Handler+0x84>
				pmc_enable_periph_clk(ID_TC1);
  401adc:	2018      	movs	r0, #24
  401ade:	4b35      	ldr	r3, [pc, #212]	; (401bb4 <RTC_Handler+0x154>)
  401ae0:	4798      	blx	r3
  401ae2:	e002      	b.n	401aea <RTC_Handler+0x8a>
			} else{
				pmc_disable_periph_clk(ID_TC1);
  401ae4:	2018      	movs	r0, #24
  401ae6:	4b34      	ldr	r3, [pc, #208]	; (401bb8 <RTC_Handler+0x158>)
  401ae8:	4798      	blx	r3
			}
			
			flag_led_1 = !flag_led_1;
  401aea:	4b34      	ldr	r3, [pc, #208]	; (401bbc <RTC_Handler+0x15c>)
  401aec:	781b      	ldrb	r3, [r3, #0]
  401aee:	b2db      	uxtb	r3, r3
  401af0:	2b00      	cmp	r3, #0
  401af2:	bf0c      	ite	eq
  401af4:	2301      	moveq	r3, #1
  401af6:	2300      	movne	r3, #0
  401af8:	b2db      	uxtb	r3, r3
  401afa:	461a      	mov	r2, r3
  401afc:	4b2f      	ldr	r3, [pc, #188]	; (401bbc <RTC_Handler+0x15c>)
  401afe:	701a      	strb	r2, [r3, #0]
			
			if (flag_led_1){
  401b00:	4b2e      	ldr	r3, [pc, #184]	; (401bbc <RTC_Handler+0x15c>)
  401b02:	781b      	ldrb	r3, [r3, #0]
  401b04:	b2db      	uxtb	r3, r3
  401b06:	2b00      	cmp	r3, #0
  401b08:	d003      	beq.n	401b12 <RTC_Handler+0xb2>
				pmc_enable_periph_clk(ID_TC0);
  401b0a:	2017      	movs	r0, #23
  401b0c:	4b29      	ldr	r3, [pc, #164]	; (401bb4 <RTC_Handler+0x154>)
  401b0e:	4798      	blx	r3
  401b10:	e002      	b.n	401b18 <RTC_Handler+0xb8>
			} else{
				pmc_disable_periph_clk(ID_TC0);
  401b12:	2017      	movs	r0, #23
  401b14:	4b28      	ldr	r3, [pc, #160]	; (401bb8 <RTC_Handler+0x158>)
  401b16:	4798      	blx	r3
			}
			
			flag_led_2 = !flag_led_2;
  401b18:	4b29      	ldr	r3, [pc, #164]	; (401bc0 <RTC_Handler+0x160>)
  401b1a:	781b      	ldrb	r3, [r3, #0]
  401b1c:	b2db      	uxtb	r3, r3
  401b1e:	2b00      	cmp	r3, #0
  401b20:	bf0c      	ite	eq
  401b22:	2301      	moveq	r3, #1
  401b24:	2300      	movne	r3, #0
  401b26:	b2db      	uxtb	r3, r3
  401b28:	461a      	mov	r2, r3
  401b2a:	4b25      	ldr	r3, [pc, #148]	; (401bc0 <RTC_Handler+0x160>)
  401b2c:	701a      	strb	r2, [r3, #0]
			
			if (flag_led_2){
  401b2e:	4b24      	ldr	r3, [pc, #144]	; (401bc0 <RTC_Handler+0x160>)
  401b30:	781b      	ldrb	r3, [r3, #0]
  401b32:	b2db      	uxtb	r3, r3
  401b34:	2b00      	cmp	r3, #0
  401b36:	d003      	beq.n	401b40 <RTC_Handler+0xe0>
				pmc_enable_periph_clk(ID_TC2);
  401b38:	2019      	movs	r0, #25
  401b3a:	4b1e      	ldr	r3, [pc, #120]	; (401bb4 <RTC_Handler+0x154>)
  401b3c:	4798      	blx	r3
  401b3e:	e002      	b.n	401b46 <RTC_Handler+0xe6>
			} else{
				pmc_disable_periph_clk(ID_TC2);
  401b40:	2019      	movs	r0, #25
  401b42:	4b1d      	ldr	r3, [pc, #116]	; (401bb8 <RTC_Handler+0x158>)
  401b44:	4798      	blx	r3
			}
			
			flag_led_3 = !flag_led_3;
  401b46:	4b1f      	ldr	r3, [pc, #124]	; (401bc4 <RTC_Handler+0x164>)
  401b48:	781b      	ldrb	r3, [r3, #0]
  401b4a:	b2db      	uxtb	r3, r3
  401b4c:	2b00      	cmp	r3, #0
  401b4e:	bf0c      	ite	eq
  401b50:	2301      	moveq	r3, #1
  401b52:	2300      	movne	r3, #0
  401b54:	b2db      	uxtb	r3, r3
  401b56:	461a      	mov	r2, r3
  401b58:	4b1a      	ldr	r3, [pc, #104]	; (401bc4 <RTC_Handler+0x164>)
  401b5a:	701a      	strb	r2, [r3, #0]
			
			if (flag_led_3){
  401b5c:	4b19      	ldr	r3, [pc, #100]	; (401bc4 <RTC_Handler+0x164>)
  401b5e:	781b      	ldrb	r3, [r3, #0]
  401b60:	b2db      	uxtb	r3, r3
  401b62:	2b00      	cmp	r3, #0
  401b64:	d003      	beq.n	401b6e <RTC_Handler+0x10e>
				pmc_enable_periph_clk(ID_TC3);
  401b66:	201a      	movs	r0, #26
  401b68:	4b12      	ldr	r3, [pc, #72]	; (401bb4 <RTC_Handler+0x154>)
  401b6a:	4798      	blx	r3
  401b6c:	e002      	b.n	401b74 <RTC_Handler+0x114>
			} else{
				pmc_disable_periph_clk(ID_TC3);
  401b6e:	201a      	movs	r0, #26
  401b70:	4b11      	ldr	r3, [pc, #68]	; (401bb8 <RTC_Handler+0x158>)
  401b72:	4798      	blx	r3
			}
	}
	rtc_clear_status(RTC, RTC_SCCR_ACKCLR);
  401b74:	2101      	movs	r1, #1
  401b76:	4809      	ldr	r0, [pc, #36]	; (401b9c <RTC_Handler+0x13c>)
  401b78:	4b0a      	ldr	r3, [pc, #40]	; (401ba4 <RTC_Handler+0x144>)
  401b7a:	4798      	blx	r3
	rtc_clear_status(RTC, RTC_SCCR_TIMCLR);
  401b7c:	2108      	movs	r1, #8
  401b7e:	4807      	ldr	r0, [pc, #28]	; (401b9c <RTC_Handler+0x13c>)
  401b80:	4b08      	ldr	r3, [pc, #32]	; (401ba4 <RTC_Handler+0x144>)
  401b82:	4798      	blx	r3
	rtc_clear_status(RTC, RTC_SCCR_CALCLR);
  401b84:	2110      	movs	r1, #16
  401b86:	4805      	ldr	r0, [pc, #20]	; (401b9c <RTC_Handler+0x13c>)
  401b88:	4b06      	ldr	r3, [pc, #24]	; (401ba4 <RTC_Handler+0x144>)
  401b8a:	4798      	blx	r3
	rtc_clear_status(RTC, RTC_SCCR_TDERRCLR);	
  401b8c:	2120      	movs	r1, #32
  401b8e:	4803      	ldr	r0, [pc, #12]	; (401b9c <RTC_Handler+0x13c>)
  401b90:	4b04      	ldr	r3, [pc, #16]	; (401ba4 <RTC_Handler+0x144>)
  401b92:	4798      	blx	r3
}
  401b94:	bf00      	nop
  401b96:	3714      	adds	r7, #20
  401b98:	46bd      	mov	sp, r7
  401b9a:	bd90      	pop	{r4, r7, pc}
  401b9c:	400e1860 	.word	0x400e1860
  401ba0:	00401211 	.word	0x00401211
  401ba4:	00401229 	.word	0x00401229
  401ba8:	00400d57 	.word	0x00400d57
  401bac:	00400f25 	.word	0x00400f25
  401bb0:	204004cc 	.word	0x204004cc
  401bb4:	00400bfd 	.word	0x00400bfd
  401bb8:	00400c81 	.word	0x00400c81
  401bbc:	204004cd 	.word	0x204004cd
  401bc0:	204004ce 	.word	0x204004ce
  401bc4:	20400008 	.word	0x20400008

00401bc8 <pin_toggle>:
/************************************************************************/

/**
*  Toggle pin controlado pelo PIO (out)
*/
void pin_toggle(Pio *pio, uint32_t mask){
  401bc8:	b580      	push	{r7, lr}
  401bca:	b082      	sub	sp, #8
  401bcc:	af00      	add	r7, sp, #0
  401bce:	6078      	str	r0, [r7, #4]
  401bd0:	6039      	str	r1, [r7, #0]
	if(pio_get_output_data_status(pio, mask))
  401bd2:	6839      	ldr	r1, [r7, #0]
  401bd4:	6878      	ldr	r0, [r7, #4]
  401bd6:	4b09      	ldr	r3, [pc, #36]	; (401bfc <pin_toggle+0x34>)
  401bd8:	4798      	blx	r3
  401bda:	4603      	mov	r3, r0
  401bdc:	2b00      	cmp	r3, #0
  401bde:	d004      	beq.n	401bea <pin_toggle+0x22>
	pio_clear(pio, mask);
  401be0:	6839      	ldr	r1, [r7, #0]
  401be2:	6878      	ldr	r0, [r7, #4]
  401be4:	4b06      	ldr	r3, [pc, #24]	; (401c00 <pin_toggle+0x38>)
  401be6:	4798      	blx	r3
	else
	pio_set(pio,mask);
}
  401be8:	e003      	b.n	401bf2 <pin_toggle+0x2a>
	pio_set(pio,mask);
  401bea:	6839      	ldr	r1, [r7, #0]
  401bec:	6878      	ldr	r0, [r7, #4]
  401bee:	4b05      	ldr	r3, [pc, #20]	; (401c04 <pin_toggle+0x3c>)
  401bf0:	4798      	blx	r3
}
  401bf2:	bf00      	nop
  401bf4:	3708      	adds	r7, #8
  401bf6:	46bd      	mov	sp, r7
  401bf8:	bd80      	pop	{r7, pc}
  401bfa:	bf00      	nop
  401bfc:	00400671 	.word	0x00400671
  401c00:	00400571 	.word	0x00400571
  401c04:	00400555 	.word	0x00400555

00401c08 <BUT_init>:

/**
* @Brief Inicializa o pino do BUT
*/
void BUT_init(void){
  401c08:	b590      	push	{r4, r7, lr}
  401c0a:	b083      	sub	sp, #12
  401c0c:	af02      	add	r7, sp, #8
	/* config. pino botao em modo de entrada */
	pmc_enable_periph_clk(BUT_PIO_ID);
  401c0e:	200a      	movs	r0, #10
  401c10:	4b10      	ldr	r3, [pc, #64]	; (401c54 <BUT_init+0x4c>)
  401c12:	4798      	blx	r3
	pio_set_input(BUT_PIO, BUT_PIN_MASK, PIO_PULLUP | PIO_DEBOUNCE);
  401c14:	2209      	movs	r2, #9
  401c16:	f44f 6100 	mov.w	r1, #2048	; 0x800
  401c1a:	480f      	ldr	r0, [pc, #60]	; (401c58 <BUT_init+0x50>)
  401c1c:	4b0f      	ldr	r3, [pc, #60]	; (401c5c <BUT_init+0x54>)
  401c1e:	4798      	blx	r3

	/* config. interrupcao em borda de descida no botao do kit */
	/* indica funcao (but_Handler) a ser chamada quando houver uma interrup??o */
	pio_enable_interrupt(BUT_PIO, BUT_PIN_MASK);
  401c20:	f44f 6100 	mov.w	r1, #2048	; 0x800
  401c24:	480c      	ldr	r0, [pc, #48]	; (401c58 <BUT_init+0x50>)
  401c26:	4b0e      	ldr	r3, [pc, #56]	; (401c60 <BUT_init+0x58>)
  401c28:	4798      	blx	r3
	pio_handler_set(BUT_PIO, BUT_PIO_ID, BUT_PIN_MASK, PIO_IT_FALL_EDGE, Button0_Handler);
  401c2a:	4b0e      	ldr	r3, [pc, #56]	; (401c64 <BUT_init+0x5c>)
  401c2c:	9300      	str	r3, [sp, #0]
  401c2e:	2350      	movs	r3, #80	; 0x50
  401c30:	f44f 6200 	mov.w	r2, #2048	; 0x800
  401c34:	210a      	movs	r1, #10
  401c36:	4808      	ldr	r0, [pc, #32]	; (401c58 <BUT_init+0x50>)
  401c38:	4c0b      	ldr	r4, [pc, #44]	; (401c68 <BUT_init+0x60>)
  401c3a:	47a0      	blx	r4

	/* habilita interrup?c?o do PIO que controla o botao */
	/* e configura sua prioridade                        */
	NVIC_EnableIRQ(BUT_PIO_ID);
  401c3c:	200a      	movs	r0, #10
  401c3e:	4b0b      	ldr	r3, [pc, #44]	; (401c6c <BUT_init+0x64>)
  401c40:	4798      	blx	r3
	NVIC_SetPriority(BUT_PIO_ID, 1);
  401c42:	2101      	movs	r1, #1
  401c44:	200a      	movs	r0, #10
  401c46:	4b0a      	ldr	r3, [pc, #40]	; (401c70 <BUT_init+0x68>)
  401c48:	4798      	blx	r3
};
  401c4a:	bf00      	nop
  401c4c:	3704      	adds	r7, #4
  401c4e:	46bd      	mov	sp, r7
  401c50:	bd90      	pop	{r4, r7, pc}
  401c52:	bf00      	nop
  401c54:	00400bfd 	.word	0x00400bfd
  401c58:	400e0e00 	.word	0x400e0e00
  401c5c:	0040058d 	.word	0x0040058d
  401c60:	00400705 	.word	0x00400705
  401c64:	00401891 	.word	0x00401891
  401c68:	00400821 	.word	0x00400821
  401c6c:	004016f9 	.word	0x004016f9
  401c70:	00401795 	.word	0x00401795

00401c74 <BUT_1_init>:

void BUT_1_init(void){
  401c74:	b590      	push	{r4, r7, lr}
  401c76:	b083      	sub	sp, #12
  401c78:	af02      	add	r7, sp, #8
	/* config. pino botao em modo de entrada */
	pmc_enable_periph_clk(BUT_1_PIO_ID);
  401c7a:	2010      	movs	r0, #16
  401c7c:	4b10      	ldr	r3, [pc, #64]	; (401cc0 <BUT_1_init+0x4c>)
  401c7e:	4798      	blx	r3
	pio_set_input(BUT_1_PIO, BUT_1_PIN_MASK, PIO_PULLUP | PIO_DEBOUNCE);
  401c80:	2209      	movs	r2, #9
  401c82:	f04f 5180 	mov.w	r1, #268435456	; 0x10000000
  401c86:	480f      	ldr	r0, [pc, #60]	; (401cc4 <BUT_1_init+0x50>)
  401c88:	4b0f      	ldr	r3, [pc, #60]	; (401cc8 <BUT_1_init+0x54>)
  401c8a:	4798      	blx	r3

	/* config. interrupcao em borda de descida no botao do kit */
	/* indica funcao (but_Handler) a ser chamada quando houver uma interrup??o */
	pio_enable_interrupt(BUT_1_PIO, BUT_1_PIN_MASK);
  401c8c:	f04f 5180 	mov.w	r1, #268435456	; 0x10000000
  401c90:	480c      	ldr	r0, [pc, #48]	; (401cc4 <BUT_1_init+0x50>)
  401c92:	4b0e      	ldr	r3, [pc, #56]	; (401ccc <BUT_1_init+0x58>)
  401c94:	4798      	blx	r3
	pio_handler_set(BUT_1_PIO, BUT_1_PIO_ID, BUT_1_PIN_MASK, PIO_IT_FALL_EDGE, Button_1_Handler);
  401c96:	4b0e      	ldr	r3, [pc, #56]	; (401cd0 <BUT_1_init+0x5c>)
  401c98:	9300      	str	r3, [sp, #0]
  401c9a:	2350      	movs	r3, #80	; 0x50
  401c9c:	f04f 5280 	mov.w	r2, #268435456	; 0x10000000
  401ca0:	2110      	movs	r1, #16
  401ca2:	4808      	ldr	r0, [pc, #32]	; (401cc4 <BUT_1_init+0x50>)
  401ca4:	4c0b      	ldr	r4, [pc, #44]	; (401cd4 <BUT_1_init+0x60>)
  401ca6:	47a0      	blx	r4

	/* habilita interrup?c?o do PIO que controla o botao */
	/* e configura sua prioridade                        */
	NVIC_EnableIRQ(BUT_1_PIO_ID);
  401ca8:	2010      	movs	r0, #16
  401caa:	4b0b      	ldr	r3, [pc, #44]	; (401cd8 <BUT_1_init+0x64>)
  401cac:	4798      	blx	r3
	NVIC_SetPriority(BUT_1_PIO_ID, 1);
  401cae:	2101      	movs	r1, #1
  401cb0:	2010      	movs	r0, #16
  401cb2:	4b0a      	ldr	r3, [pc, #40]	; (401cdc <BUT_1_init+0x68>)
  401cb4:	4798      	blx	r3
};
  401cb6:	bf00      	nop
  401cb8:	3704      	adds	r7, #4
  401cba:	46bd      	mov	sp, r7
  401cbc:	bd90      	pop	{r4, r7, pc}
  401cbe:	bf00      	nop
  401cc0:	00400bfd 	.word	0x00400bfd
  401cc4:	400e1400 	.word	0x400e1400
  401cc8:	0040058d 	.word	0x0040058d
  401ccc:	00400705 	.word	0x00400705
  401cd0:	004018c1 	.word	0x004018c1
  401cd4:	00400821 	.word	0x00400821
  401cd8:	004016f9 	.word	0x004016f9
  401cdc:	00401795 	.word	0x00401795

00401ce0 <BUT_2_init>:

void BUT_2_init(void){
  401ce0:	b590      	push	{r4, r7, lr}
  401ce2:	b083      	sub	sp, #12
  401ce4:	af02      	add	r7, sp, #8
	/* config. pino botao em modo de entrada */
	pmc_enable_periph_clk(BUT_2_PIO_ID);
  401ce6:	200c      	movs	r0, #12
  401ce8:	4b10      	ldr	r3, [pc, #64]	; (401d2c <BUT_2_init+0x4c>)
  401cea:	4798      	blx	r3
	pio_set_input(BUT_2_PIO, BUT_2_PIN_MASK, PIO_PULLUP | PIO_DEBOUNCE);
  401cec:	2209      	movs	r2, #9
  401cee:	f04f 4100 	mov.w	r1, #2147483648	; 0x80000000
  401cf2:	480f      	ldr	r0, [pc, #60]	; (401d30 <BUT_2_init+0x50>)
  401cf4:	4b0f      	ldr	r3, [pc, #60]	; (401d34 <BUT_2_init+0x54>)
  401cf6:	4798      	blx	r3

	/* config. interrupcao em borda de descida no botao do kit */
	/* indica funcao (but_Handler) a ser chamada quando houver uma interrup??o */
	pio_enable_interrupt(BUT_2_PIO, BUT_2_PIN_MASK);
  401cf8:	f04f 4100 	mov.w	r1, #2147483648	; 0x80000000
  401cfc:	480c      	ldr	r0, [pc, #48]	; (401d30 <BUT_2_init+0x50>)
  401cfe:	4b0e      	ldr	r3, [pc, #56]	; (401d38 <BUT_2_init+0x58>)
  401d00:	4798      	blx	r3
	pio_handler_set(BUT_2_PIO, BUT_2_PIO_ID, BUT_2_PIN_MASK, PIO_IT_FALL_EDGE, Button_2_Handler);
  401d02:	4b0e      	ldr	r3, [pc, #56]	; (401d3c <BUT_2_init+0x5c>)
  401d04:	9300      	str	r3, [sp, #0]
  401d06:	2350      	movs	r3, #80	; 0x50
  401d08:	f04f 4200 	mov.w	r2, #2147483648	; 0x80000000
  401d0c:	210c      	movs	r1, #12
  401d0e:	4808      	ldr	r0, [pc, #32]	; (401d30 <BUT_2_init+0x50>)
  401d10:	4c0b      	ldr	r4, [pc, #44]	; (401d40 <BUT_2_init+0x60>)
  401d12:	47a0      	blx	r4

	/* habilita interrup?c?o do PIO que controla o botao */
	/* e configura sua prioridade                        */
	NVIC_EnableIRQ(BUT_2_PIO_ID);
  401d14:	200c      	movs	r0, #12
  401d16:	4b0b      	ldr	r3, [pc, #44]	; (401d44 <BUT_2_init+0x64>)
  401d18:	4798      	blx	r3
	NVIC_SetPriority(BUT_2_PIO_ID, 1);
  401d1a:	2101      	movs	r1, #1
  401d1c:	200c      	movs	r0, #12
  401d1e:	4b0a      	ldr	r3, [pc, #40]	; (401d48 <BUT_2_init+0x68>)
  401d20:	4798      	blx	r3
};
  401d22:	bf00      	nop
  401d24:	3704      	adds	r7, #4
  401d26:	46bd      	mov	sp, r7
  401d28:	bd90      	pop	{r4, r7, pc}
  401d2a:	bf00      	nop
  401d2c:	00400bfd 	.word	0x00400bfd
  401d30:	400e1200 	.word	0x400e1200
  401d34:	0040058d 	.word	0x0040058d
  401d38:	00400705 	.word	0x00400705
  401d3c:	004018f1 	.word	0x004018f1
  401d40:	00400821 	.word	0x00400821
  401d44:	004016f9 	.word	0x004016f9
  401d48:	00401795 	.word	0x00401795

00401d4c <BUT_3_init>:

void BUT_3_init(void){
  401d4c:	b590      	push	{r4, r7, lr}
  401d4e:	b083      	sub	sp, #12
  401d50:	af02      	add	r7, sp, #8
	/* config. pino botao em modo de entrada */
	pmc_enable_periph_clk(BUT_3_PIO_ID);
  401d52:	200a      	movs	r0, #10
  401d54:	4b10      	ldr	r3, [pc, #64]	; (401d98 <BUT_3_init+0x4c>)
  401d56:	4798      	blx	r3
	pio_set_input(BUT_3_PIO, BUT_3_PIN_MASK, PIO_PULLUP | PIO_DEBOUNCE);
  401d58:	2209      	movs	r2, #9
  401d5a:	f44f 2100 	mov.w	r1, #524288	; 0x80000
  401d5e:	480f      	ldr	r0, [pc, #60]	; (401d9c <BUT_3_init+0x50>)
  401d60:	4b0f      	ldr	r3, [pc, #60]	; (401da0 <BUT_3_init+0x54>)
  401d62:	4798      	blx	r3

	/* config. interrupcao em borda de descida no botao do kit */
	/* indica funcao (but_Handler) a ser chamada quando houver uma interrup??o */
	pio_enable_interrupt(BUT_3_PIO, BUT_3_PIN_MASK);
  401d64:	f44f 2100 	mov.w	r1, #524288	; 0x80000
  401d68:	480c      	ldr	r0, [pc, #48]	; (401d9c <BUT_3_init+0x50>)
  401d6a:	4b0e      	ldr	r3, [pc, #56]	; (401da4 <BUT_3_init+0x58>)
  401d6c:	4798      	blx	r3
	pio_handler_set(BUT_3_PIO, BUT_3_PIO_ID, BUT_3_PIN_MASK, PIO_IT_FALL_EDGE, Button_3_Handler);
  401d6e:	4b0e      	ldr	r3, [pc, #56]	; (401da8 <BUT_3_init+0x5c>)
  401d70:	9300      	str	r3, [sp, #0]
  401d72:	2350      	movs	r3, #80	; 0x50
  401d74:	f44f 2200 	mov.w	r2, #524288	; 0x80000
  401d78:	210a      	movs	r1, #10
  401d7a:	4808      	ldr	r0, [pc, #32]	; (401d9c <BUT_3_init+0x50>)
  401d7c:	4c0b      	ldr	r4, [pc, #44]	; (401dac <BUT_3_init+0x60>)
  401d7e:	47a0      	blx	r4

	/* habilita interrup?c?o do PIO que controla o botao */
	/* e configura sua prioridade                        */
	NVIC_EnableIRQ(BUT_3_PIO_ID);
  401d80:	200a      	movs	r0, #10
  401d82:	4b0b      	ldr	r3, [pc, #44]	; (401db0 <BUT_3_init+0x64>)
  401d84:	4798      	blx	r3
	NVIC_SetPriority(BUT_3_PIO_ID, 1);
  401d86:	2101      	movs	r1, #1
  401d88:	200a      	movs	r0, #10
  401d8a:	4b0a      	ldr	r3, [pc, #40]	; (401db4 <BUT_3_init+0x68>)
  401d8c:	4798      	blx	r3
};
  401d8e:	bf00      	nop
  401d90:	3704      	adds	r7, #4
  401d92:	46bd      	mov	sp, r7
  401d94:	bd90      	pop	{r4, r7, pc}
  401d96:	bf00      	nop
  401d98:	00400bfd 	.word	0x00400bfd
  401d9c:	400e0e00 	.word	0x400e0e00
  401da0:	0040058d 	.word	0x0040058d
  401da4:	00400705 	.word	0x00400705
  401da8:	00401921 	.word	0x00401921
  401dac:	00400821 	.word	0x00400821
  401db0:	004016f9 	.word	0x004016f9
  401db4:	00401795 	.word	0x00401795

00401db8 <LED_init>:

/**
* @Brief Inicializa o pino do LED
*/
void LED_init(int estado){
  401db8:	b590      	push	{r4, r7, lr}
  401dba:	b085      	sub	sp, #20
  401dbc:	af02      	add	r7, sp, #8
  401dbe:	6078      	str	r0, [r7, #4]
	pmc_enable_periph_clk(LED_PIO_ID);
  401dc0:	200c      	movs	r0, #12
  401dc2:	4b07      	ldr	r3, [pc, #28]	; (401de0 <LED_init+0x28>)
  401dc4:	4798      	blx	r3
	pio_set_output(LED_PIO, LED_PIN_MASK, estado, 0, 0 );
  401dc6:	687a      	ldr	r2, [r7, #4]
  401dc8:	2300      	movs	r3, #0
  401dca:	9300      	str	r3, [sp, #0]
  401dcc:	2300      	movs	r3, #0
  401dce:	f44f 7180 	mov.w	r1, #256	; 0x100
  401dd2:	4804      	ldr	r0, [pc, #16]	; (401de4 <LED_init+0x2c>)
  401dd4:	4c04      	ldr	r4, [pc, #16]	; (401de8 <LED_init+0x30>)
  401dd6:	47a0      	blx	r4
};
  401dd8:	bf00      	nop
  401dda:	370c      	adds	r7, #12
  401ddc:	46bd      	mov	sp, r7
  401dde:	bd90      	pop	{r4, r7, pc}
  401de0:	00400bfd 	.word	0x00400bfd
  401de4:	400e1200 	.word	0x400e1200
  401de8:	0040060d 	.word	0x0040060d

00401dec <LED_1_init>:

void LED_1_init(int estado){
  401dec:	b590      	push	{r4, r7, lr}
  401dee:	b085      	sub	sp, #20
  401df0:	af02      	add	r7, sp, #8
  401df2:	6078      	str	r0, [r7, #4]
	pmc_enable_periph_clk(LED_1_PIO_ID);
  401df4:	200a      	movs	r0, #10
  401df6:	4b07      	ldr	r3, [pc, #28]	; (401e14 <LED_1_init+0x28>)
  401df8:	4798      	blx	r3
	pio_set_output(LED_1_PIO, LED_1_PIN_MASK, estado, 0, 0 );
  401dfa:	687a      	ldr	r2, [r7, #4]
  401dfc:	2300      	movs	r3, #0
  401dfe:	9300      	str	r3, [sp, #0]
  401e00:	2300      	movs	r3, #0
  401e02:	2101      	movs	r1, #1
  401e04:	4804      	ldr	r0, [pc, #16]	; (401e18 <LED_1_init+0x2c>)
  401e06:	4c05      	ldr	r4, [pc, #20]	; (401e1c <LED_1_init+0x30>)
  401e08:	47a0      	blx	r4
};
  401e0a:	bf00      	nop
  401e0c:	370c      	adds	r7, #12
  401e0e:	46bd      	mov	sp, r7
  401e10:	bd90      	pop	{r4, r7, pc}
  401e12:	bf00      	nop
  401e14:	00400bfd 	.word	0x00400bfd
  401e18:	400e0e00 	.word	0x400e0e00
  401e1c:	0040060d 	.word	0x0040060d

00401e20 <LED_2_init>:

void LED_2_init(int estado){
  401e20:	b590      	push	{r4, r7, lr}
  401e22:	b085      	sub	sp, #20
  401e24:	af02      	add	r7, sp, #8
  401e26:	6078      	str	r0, [r7, #4]
	pmc_enable_periph_clk(LED_2_PIO_ID);
  401e28:	200c      	movs	r0, #12
  401e2a:	4b07      	ldr	r3, [pc, #28]	; (401e48 <LED_2_init+0x28>)
  401e2c:	4798      	blx	r3
	pio_set_output(LED_2_PIO, LED_2_PIN_MASK, estado, 0, 0 );
  401e2e:	687a      	ldr	r2, [r7, #4]
  401e30:	2300      	movs	r3, #0
  401e32:	9300      	str	r3, [sp, #0]
  401e34:	2300      	movs	r3, #0
  401e36:	f04f 4180 	mov.w	r1, #1073741824	; 0x40000000
  401e3a:	4804      	ldr	r0, [pc, #16]	; (401e4c <LED_2_init+0x2c>)
  401e3c:	4c04      	ldr	r4, [pc, #16]	; (401e50 <LED_2_init+0x30>)
  401e3e:	47a0      	blx	r4
};
  401e40:	bf00      	nop
  401e42:	370c      	adds	r7, #12
  401e44:	46bd      	mov	sp, r7
  401e46:	bd90      	pop	{r4, r7, pc}
  401e48:	00400bfd 	.word	0x00400bfd
  401e4c:	400e1200 	.word	0x400e1200
  401e50:	0040060d 	.word	0x0040060d

00401e54 <LED_3_init>:

void LED_3_init(int estado){
  401e54:	b590      	push	{r4, r7, lr}
  401e56:	b085      	sub	sp, #20
  401e58:	af02      	add	r7, sp, #8
  401e5a:	6078      	str	r0, [r7, #4]
	pmc_enable_periph_clk(LED_3_PIO_ID);
  401e5c:	200b      	movs	r0, #11
  401e5e:	4b07      	ldr	r3, [pc, #28]	; (401e7c <LED_3_init+0x28>)
  401e60:	4798      	blx	r3
	pio_set_output(LED_3_PIO, LED_3_PIN_MASK, estado, 0, 0 );
  401e62:	687a      	ldr	r2, [r7, #4]
  401e64:	2300      	movs	r3, #0
  401e66:	9300      	str	r3, [sp, #0]
  401e68:	2300      	movs	r3, #0
  401e6a:	2104      	movs	r1, #4
  401e6c:	4804      	ldr	r0, [pc, #16]	; (401e80 <LED_3_init+0x2c>)
  401e6e:	4c05      	ldr	r4, [pc, #20]	; (401e84 <LED_3_init+0x30>)
  401e70:	47a0      	blx	r4
};
  401e72:	bf00      	nop
  401e74:	370c      	adds	r7, #12
  401e76:	46bd      	mov	sp, r7
  401e78:	bd90      	pop	{r4, r7, pc}
  401e7a:	bf00      	nop
  401e7c:	00400bfd 	.word	0x00400bfd
  401e80:	400e1000 	.word	0x400e1000
  401e84:	0040060d 	.word	0x0040060d

00401e88 <TC_init>:

void TC_init(Tc * TC, int ID_TC, int TC_CHANNEL, int freq){
  401e88:	b590      	push	{r4, r7, lr}
  401e8a:	b08b      	sub	sp, #44	; 0x2c
  401e8c:	af02      	add	r7, sp, #8
  401e8e:	60f8      	str	r0, [r7, #12]
  401e90:	60b9      	str	r1, [r7, #8]
  401e92:	607a      	str	r2, [r7, #4]
  401e94:	603b      	str	r3, [r7, #0]
	uint32_t ul_div;
	uint32_t ul_tcclks;
	uint32_t ul_sysclk = sysclk_get_cpu_hz();
  401e96:	4b1e      	ldr	r3, [pc, #120]	; (401f10 <TC_init+0x88>)
  401e98:	4798      	blx	r3
  401e9a:	61f8      	str	r0, [r7, #28]

	uint32_t channel = 1;
  401e9c:	2301      	movs	r3, #1
  401e9e:	61bb      	str	r3, [r7, #24]
	o uC possui 3 TCs, cada TC possui 3 canais
	TC0 : ID_TC0, ID_TC1, ID_TC2
	TC1 : ID_TC3, ID_TC4, ID_TC5
	TC2 : ID_TC6, ID_TC7, ID_TC8
	*/
	pmc_enable_periph_clk(ID_TC);
  401ea0:	68bb      	ldr	r3, [r7, #8]
  401ea2:	4618      	mov	r0, r3
  401ea4:	4b1b      	ldr	r3, [pc, #108]	; (401f14 <TC_init+0x8c>)
  401ea6:	4798      	blx	r3

	/** Configura o TC para operar em  4Mhz e interrup?c?o no RC compare */
	tc_find_mck_divisor(freq, ul_sysclk, &ul_div, &ul_tcclks, ul_sysclk);
  401ea8:	6838      	ldr	r0, [r7, #0]
  401eaa:	f107 0110 	add.w	r1, r7, #16
  401eae:	f107 0214 	add.w	r2, r7, #20
  401eb2:	69fb      	ldr	r3, [r7, #28]
  401eb4:	9300      	str	r3, [sp, #0]
  401eb6:	460b      	mov	r3, r1
  401eb8:	69f9      	ldr	r1, [r7, #28]
  401eba:	4c17      	ldr	r4, [pc, #92]	; (401f18 <TC_init+0x90>)
  401ebc:	47a0      	blx	r4
	tc_init(TC, TC_CHANNEL, ul_tcclks | TC_CMR_CPCTRG);
  401ebe:	6879      	ldr	r1, [r7, #4]
  401ec0:	693b      	ldr	r3, [r7, #16]
  401ec2:	f443 4380 	orr.w	r3, r3, #16384	; 0x4000
  401ec6:	461a      	mov	r2, r3
  401ec8:	68f8      	ldr	r0, [r7, #12]
  401eca:	4b14      	ldr	r3, [pc, #80]	; (401f1c <TC_init+0x94>)
  401ecc:	4798      	blx	r3
	tc_write_rc(TC, TC_CHANNEL, (ul_sysclk / ul_div) / freq);
  401ece:	6879      	ldr	r1, [r7, #4]
  401ed0:	697b      	ldr	r3, [r7, #20]
  401ed2:	69fa      	ldr	r2, [r7, #28]
  401ed4:	fbb2 f2f3 	udiv	r2, r2, r3
  401ed8:	683b      	ldr	r3, [r7, #0]
  401eda:	fbb2 f3f3 	udiv	r3, r2, r3
  401ede:	461a      	mov	r2, r3
  401ee0:	68f8      	ldr	r0, [r7, #12]
  401ee2:	4b0f      	ldr	r3, [pc, #60]	; (401f20 <TC_init+0x98>)
  401ee4:	4798      	blx	r3

	/* Configura e ativa interrup?c?o no TC canal 0 */
	/* Interrup??o no C */
	NVIC_EnableIRQ((IRQn_Type) ID_TC);
  401ee6:	68bb      	ldr	r3, [r7, #8]
  401ee8:	b25b      	sxtb	r3, r3
  401eea:	4618      	mov	r0, r3
  401eec:	4b0d      	ldr	r3, [pc, #52]	; (401f24 <TC_init+0x9c>)
  401eee:	4798      	blx	r3
	tc_enable_interrupt(TC, TC_CHANNEL, TC_IER_CPCS);
  401ef0:	687b      	ldr	r3, [r7, #4]
  401ef2:	2210      	movs	r2, #16
  401ef4:	4619      	mov	r1, r3
  401ef6:	68f8      	ldr	r0, [r7, #12]
  401ef8:	4b0b      	ldr	r3, [pc, #44]	; (401f28 <TC_init+0xa0>)
  401efa:	4798      	blx	r3

	/* Inicializa o canal 0 do TC */
	tc_start(TC, TC_CHANNEL);
  401efc:	687b      	ldr	r3, [r7, #4]
  401efe:	4619      	mov	r1, r3
  401f00:	68f8      	ldr	r0, [r7, #12]
  401f02:	4b0a      	ldr	r3, [pc, #40]	; (401f2c <TC_init+0xa4>)
  401f04:	4798      	blx	r3
}
  401f06:	bf00      	nop
  401f08:	3724      	adds	r7, #36	; 0x24
  401f0a:	46bd      	mov	sp, r7
  401f0c:	bd90      	pop	{r4, r7, pc}
  401f0e:	bf00      	nop
  401f10:	0040187d 	.word	0x0040187d
  401f14:	00400bfd 	.word	0x00400bfd
  401f18:	00401313 	.word	0x00401313
  401f1c:	00401245 	.word	0x00401245
  401f20:	004012a1 	.word	0x004012a1
  401f24:	004016f9 	.word	0x004016f9
  401f28:	004012c7 	.word	0x004012c7
  401f2c:	0040127f 	.word	0x0040127f

00401f30 <RTC_init>:

/**
* Configura o RTC para funcionar com interrupcao de alarme
*/
void RTC_init(){
  401f30:	b590      	push	{r4, r7, lr}
  401f32:	b083      	sub	sp, #12
  401f34:	af02      	add	r7, sp, #8
	/* Configura o PMC */
	pmc_enable_periph_clk(ID_RTC);
  401f36:	2002      	movs	r0, #2
  401f38:	4b14      	ldr	r3, [pc, #80]	; (401f8c <RTC_init+0x5c>)
  401f3a:	4798      	blx	r3

	/* Default RTC configuration, 24-hour mode */
	rtc_set_hour_mode(RTC, 0);
  401f3c:	2100      	movs	r1, #0
  401f3e:	4814      	ldr	r0, [pc, #80]	; (401f90 <RTC_init+0x60>)
  401f40:	4b14      	ldr	r3, [pc, #80]	; (401f94 <RTC_init+0x64>)
  401f42:	4798      	blx	r3

	/* Configura data e hora manualmente */
	rtc_set_date(RTC, YEAR, MOUNTH, DAY, WEEK);
  401f44:	230c      	movs	r3, #12
  401f46:	9300      	str	r3, [sp, #0]
  401f48:	2313      	movs	r3, #19
  401f4a:	2203      	movs	r2, #3
  401f4c:	f240 71e2 	movw	r1, #2018	; 0x7e2
  401f50:	480f      	ldr	r0, [pc, #60]	; (401f90 <RTC_init+0x60>)
  401f52:	4c11      	ldr	r4, [pc, #68]	; (401f98 <RTC_init+0x68>)
  401f54:	47a0      	blx	r4
	rtc_set_time(RTC, HOUR, MINUTE, SECOND);
  401f56:	2300      	movs	r3, #0
  401f58:	222d      	movs	r2, #45	; 0x2d
  401f5a:	210f      	movs	r1, #15
  401f5c:	480c      	ldr	r0, [pc, #48]	; (401f90 <RTC_init+0x60>)
  401f5e:	4c0f      	ldr	r4, [pc, #60]	; (401f9c <RTC_init+0x6c>)
  401f60:	47a0      	blx	r4

	/* Configure RTC interrupts */
	NVIC_DisableIRQ(RTC_IRQn);
  401f62:	2002      	movs	r0, #2
  401f64:	4b0e      	ldr	r3, [pc, #56]	; (401fa0 <RTC_init+0x70>)
  401f66:	4798      	blx	r3
	NVIC_ClearPendingIRQ(RTC_IRQn);
  401f68:	2002      	movs	r0, #2
  401f6a:	4b0e      	ldr	r3, [pc, #56]	; (401fa4 <RTC_init+0x74>)
  401f6c:	4798      	blx	r3
	NVIC_SetPriority(RTC_IRQn, 0);
  401f6e:	2100      	movs	r1, #0
  401f70:	2002      	movs	r0, #2
  401f72:	4b0d      	ldr	r3, [pc, #52]	; (401fa8 <RTC_init+0x78>)
  401f74:	4798      	blx	r3
	NVIC_EnableIRQ(RTC_IRQn);
  401f76:	2002      	movs	r0, #2
  401f78:	4b0c      	ldr	r3, [pc, #48]	; (401fac <RTC_init+0x7c>)
  401f7a:	4798      	blx	r3

	/* Ativa interrupcao via alarme */
	rtc_enable_interrupt(RTC,  RTC_IER_ALREN);
  401f7c:	2102      	movs	r1, #2
  401f7e:	4804      	ldr	r0, [pc, #16]	; (401f90 <RTC_init+0x60>)
  401f80:	4b0b      	ldr	r3, [pc, #44]	; (401fb0 <RTC_init+0x80>)
  401f82:	4798      	blx	r3

}
  401f84:	bf00      	nop
  401f86:	3704      	adds	r7, #4
  401f88:	46bd      	mov	sp, r7
  401f8a:	bd90      	pop	{r4, r7, pc}
  401f8c:	00400bfd 	.word	0x00400bfd
  401f90:	400e1860 	.word	0x400e1860
  401f94:	00400d05 	.word	0x00400d05
  401f98:	00401025 	.word	0x00401025
  401f9c:	00400e1d 	.word	0x00400e1d
  401fa0:	0040172d 	.word	0x0040172d
  401fa4:	00401761 	.word	0x00401761
  401fa8:	00401795 	.word	0x00401795
  401fac:	004016f9 	.word	0x004016f9
  401fb0:	00400d3b 	.word	0x00400d3b

00401fb4 <main>:

/************************************************************************/
/* Main Code	                                                        */
/************************************************************************/
int main(void){
  401fb4:	b590      	push	{r4, r7, lr}
  401fb6:	b085      	sub	sp, #20
  401fb8:	af04      	add	r7, sp, #16
	/* Initialize the SAM system */
	sysclk_init();
  401fba:	4b24      	ldr	r3, [pc, #144]	; (40204c <main+0x98>)
  401fbc:	4798      	blx	r3

	/* Disable the watchdog */
	WDT->WDT_MR = WDT_MR_WDDIS;
  401fbe:	4b24      	ldr	r3, [pc, #144]	; (402050 <main+0x9c>)
  401fc0:	f44f 4200 	mov.w	r2, #32768	; 0x8000
  401fc4:	605a      	str	r2, [r3, #4]

	/* Configura Leds */
	LED_init(0);
  401fc6:	2000      	movs	r0, #0
  401fc8:	4b22      	ldr	r3, [pc, #136]	; (402054 <main+0xa0>)
  401fca:	4798      	blx	r3
	LED_1_init(0);
  401fcc:	2000      	movs	r0, #0
  401fce:	4b22      	ldr	r3, [pc, #136]	; (402058 <main+0xa4>)
  401fd0:	4798      	blx	r3
	LED_2_init(0);
  401fd2:	2000      	movs	r0, #0
  401fd4:	4b21      	ldr	r3, [pc, #132]	; (40205c <main+0xa8>)
  401fd6:	4798      	blx	r3
	LED_3_init(0);
  401fd8:	2000      	movs	r0, #0
  401fda:	4b21      	ldr	r3, [pc, #132]	; (402060 <main+0xac>)
  401fdc:	4798      	blx	r3

	/* Configura os bot?es */
	BUT_init();
  401fde:	4b21      	ldr	r3, [pc, #132]	; (402064 <main+0xb0>)
  401fe0:	4798      	blx	r3
	BUT_1_init();
  401fe2:	4b21      	ldr	r3, [pc, #132]	; (402068 <main+0xb4>)
  401fe4:	4798      	blx	r3
	BUT_2_init();
  401fe6:	4b21      	ldr	r3, [pc, #132]	; (40206c <main+0xb8>)
  401fe8:	4798      	blx	r3
	BUT_3_init();
  401fea:	4b21      	ldr	r3, [pc, #132]	; (402070 <main+0xbc>)
  401fec:	4798      	blx	r3

	/** Configura RTC */
	RTC_init();
  401fee:	4b21      	ldr	r3, [pc, #132]	; (402074 <main+0xc0>)
  401ff0:	4798      	blx	r3

	/* configura alarme do RTC */
	rtc_set_date_alarm(RTC, 1, MOUNTH, 1, DAY);
  401ff2:	2313      	movs	r3, #19
  401ff4:	9300      	str	r3, [sp, #0]
  401ff6:	2301      	movs	r3, #1
  401ff8:	2203      	movs	r2, #3
  401ffa:	2101      	movs	r1, #1
  401ffc:	481e      	ldr	r0, [pc, #120]	; (402078 <main+0xc4>)
  401ffe:	4c1f      	ldr	r4, [pc, #124]	; (40207c <main+0xc8>)
  402000:	47a0      	blx	r4
	rtc_set_time_alarm(RTC, 1, HOUR, 1, MINUTE+1, 1, SECOND);
  402002:	2300      	movs	r3, #0
  402004:	9302      	str	r3, [sp, #8]
  402006:	2301      	movs	r3, #1
  402008:	9301      	str	r3, [sp, #4]
  40200a:	232e      	movs	r3, #46	; 0x2e
  40200c:	9300      	str	r3, [sp, #0]
  40200e:	2301      	movs	r3, #1
  402010:	220f      	movs	r2, #15
  402012:	2101      	movs	r1, #1
  402014:	4818      	ldr	r0, [pc, #96]	; (402078 <main+0xc4>)
  402016:	4c1a      	ldr	r4, [pc, #104]	; (402080 <main+0xcc>)
  402018:	47a0      	blx	r4
	
	/** Configura timer TC0, canal 1 */
	TC_init(TC0, ID_TC1, 1, 4);
  40201a:	2304      	movs	r3, #4
  40201c:	2201      	movs	r2, #1
  40201e:	2118      	movs	r1, #24
  402020:	4818      	ldr	r0, [pc, #96]	; (402084 <main+0xd0>)
  402022:	4c19      	ldr	r4, [pc, #100]	; (402088 <main+0xd4>)
  402024:	47a0      	blx	r4
	TC_init(TC0, ID_TC0, 0, 8);
  402026:	2308      	movs	r3, #8
  402028:	2200      	movs	r2, #0
  40202a:	2117      	movs	r1, #23
  40202c:	4815      	ldr	r0, [pc, #84]	; (402084 <main+0xd0>)
  40202e:	4c16      	ldr	r4, [pc, #88]	; (402088 <main+0xd4>)
  402030:	47a0      	blx	r4
	TC_init(TC0, ID_TC2, 2, 11);
  402032:	230b      	movs	r3, #11
  402034:	2202      	movs	r2, #2
  402036:	2119      	movs	r1, #25
  402038:	4812      	ldr	r0, [pc, #72]	; (402084 <main+0xd0>)
  40203a:	4c13      	ldr	r4, [pc, #76]	; (402088 <main+0xd4>)
  40203c:	47a0      	blx	r4
	TC_init(TC1, ID_TC3, 0, 17);
  40203e:	2311      	movs	r3, #17
  402040:	2200      	movs	r2, #0
  402042:	211a      	movs	r1, #26
  402044:	4811      	ldr	r0, [pc, #68]	; (40208c <main+0xd8>)
  402046:	4c10      	ldr	r4, [pc, #64]	; (402088 <main+0xd4>)
  402048:	47a0      	blx	r4


	while (1) {
  40204a:	e7fe      	b.n	40204a <main+0x96>
  40204c:	004004ad 	.word	0x004004ad
  402050:	400e1850 	.word	0x400e1850
  402054:	00401db9 	.word	0x00401db9
  402058:	00401ded 	.word	0x00401ded
  40205c:	00401e21 	.word	0x00401e21
  402060:	00401e55 	.word	0x00401e55
  402064:	00401c09 	.word	0x00401c09
  402068:	00401c75 	.word	0x00401c75
  40206c:	00401ce1 	.word	0x00401ce1
  402070:	00401d4d 	.word	0x00401d4d
  402074:	00401f31 	.word	0x00401f31
  402078:	400e1860 	.word	0x400e1860
  40207c:	00401161 	.word	0x00401161
  402080:	00400f25 	.word	0x00400f25
  402084:	4000c000 	.word	0x4000c000
  402088:	00401e89 	.word	0x00401e89
  40208c:	40010000 	.word	0x40010000

00402090 <__libc_init_array>:
  402090:	b570      	push	{r4, r5, r6, lr}
  402092:	4e0f      	ldr	r6, [pc, #60]	; (4020d0 <__libc_init_array+0x40>)
  402094:	4d0f      	ldr	r5, [pc, #60]	; (4020d4 <__libc_init_array+0x44>)
  402096:	1b76      	subs	r6, r6, r5
  402098:	10b6      	asrs	r6, r6, #2
  40209a:	bf18      	it	ne
  40209c:	2400      	movne	r4, #0
  40209e:	d005      	beq.n	4020ac <__libc_init_array+0x1c>
  4020a0:	3401      	adds	r4, #1
  4020a2:	f855 3b04 	ldr.w	r3, [r5], #4
  4020a6:	4798      	blx	r3
  4020a8:	42a6      	cmp	r6, r4
  4020aa:	d1f9      	bne.n	4020a0 <__libc_init_array+0x10>
  4020ac:	4e0a      	ldr	r6, [pc, #40]	; (4020d8 <__libc_init_array+0x48>)
  4020ae:	4d0b      	ldr	r5, [pc, #44]	; (4020dc <__libc_init_array+0x4c>)
  4020b0:	1b76      	subs	r6, r6, r5
  4020b2:	f000 f8a7 	bl	402204 <_init>
  4020b6:	10b6      	asrs	r6, r6, #2
  4020b8:	bf18      	it	ne
  4020ba:	2400      	movne	r4, #0
  4020bc:	d006      	beq.n	4020cc <__libc_init_array+0x3c>
  4020be:	3401      	adds	r4, #1
  4020c0:	f855 3b04 	ldr.w	r3, [r5], #4
  4020c4:	4798      	blx	r3
  4020c6:	42a6      	cmp	r6, r4
  4020c8:	d1f9      	bne.n	4020be <__libc_init_array+0x2e>
  4020ca:	bd70      	pop	{r4, r5, r6, pc}
  4020cc:	bd70      	pop	{r4, r5, r6, pc}
  4020ce:	bf00      	nop
  4020d0:	00402210 	.word	0x00402210
  4020d4:	00402210 	.word	0x00402210
  4020d8:	00402218 	.word	0x00402218
  4020dc:	00402210 	.word	0x00402210

004020e0 <register_fini>:
  4020e0:	4b02      	ldr	r3, [pc, #8]	; (4020ec <register_fini+0xc>)
  4020e2:	b113      	cbz	r3, 4020ea <register_fini+0xa>
  4020e4:	4802      	ldr	r0, [pc, #8]	; (4020f0 <register_fini+0x10>)
  4020e6:	f000 b805 	b.w	4020f4 <atexit>
  4020ea:	4770      	bx	lr
  4020ec:	00000000 	.word	0x00000000
  4020f0:	00402101 	.word	0x00402101

004020f4 <atexit>:
  4020f4:	2300      	movs	r3, #0
  4020f6:	4601      	mov	r1, r0
  4020f8:	461a      	mov	r2, r3
  4020fa:	4618      	mov	r0, r3
  4020fc:	f000 b81e 	b.w	40213c <__register_exitproc>

00402100 <__libc_fini_array>:
  402100:	b538      	push	{r3, r4, r5, lr}
  402102:	4c0a      	ldr	r4, [pc, #40]	; (40212c <__libc_fini_array+0x2c>)
  402104:	4d0a      	ldr	r5, [pc, #40]	; (402130 <__libc_fini_array+0x30>)
  402106:	1b64      	subs	r4, r4, r5
  402108:	10a4      	asrs	r4, r4, #2
  40210a:	d00a      	beq.n	402122 <__libc_fini_array+0x22>
  40210c:	f104 4380 	add.w	r3, r4, #1073741824	; 0x40000000
  402110:	3b01      	subs	r3, #1
  402112:	eb05 0583 	add.w	r5, r5, r3, lsl #2
  402116:	3c01      	subs	r4, #1
  402118:	f855 3904 	ldr.w	r3, [r5], #-4
  40211c:	4798      	blx	r3
  40211e:	2c00      	cmp	r4, #0
  402120:	d1f9      	bne.n	402116 <__libc_fini_array+0x16>
  402122:	e8bd 4038 	ldmia.w	sp!, {r3, r4, r5, lr}
  402126:	f000 b877 	b.w	402218 <_fini>
  40212a:	bf00      	nop
  40212c:	00402228 	.word	0x00402228
  402130:	00402224 	.word	0x00402224

00402134 <__retarget_lock_acquire_recursive>:
  402134:	4770      	bx	lr
  402136:	bf00      	nop

00402138 <__retarget_lock_release_recursive>:
  402138:	4770      	bx	lr
  40213a:	bf00      	nop

0040213c <__register_exitproc>:
  40213c:	e92d 43f8 	stmdb	sp!, {r3, r4, r5, r6, r7, r8, r9, lr}
  402140:	4d2c      	ldr	r5, [pc, #176]	; (4021f4 <__register_exitproc+0xb8>)
  402142:	4606      	mov	r6, r0
  402144:	6828      	ldr	r0, [r5, #0]
  402146:	4698      	mov	r8, r3
  402148:	460f      	mov	r7, r1
  40214a:	4691      	mov	r9, r2
  40214c:	f7ff fff2 	bl	402134 <__retarget_lock_acquire_recursive>
  402150:	4b29      	ldr	r3, [pc, #164]	; (4021f8 <__register_exitproc+0xbc>)
  402152:	681c      	ldr	r4, [r3, #0]
  402154:	f8d4 3148 	ldr.w	r3, [r4, #328]	; 0x148
  402158:	2b00      	cmp	r3, #0
  40215a:	d03e      	beq.n	4021da <__register_exitproc+0x9e>
  40215c:	685a      	ldr	r2, [r3, #4]
  40215e:	2a1f      	cmp	r2, #31
  402160:	dc1c      	bgt.n	40219c <__register_exitproc+0x60>
  402162:	f102 0e01 	add.w	lr, r2, #1
  402166:	b176      	cbz	r6, 402186 <__register_exitproc+0x4a>
  402168:	eb03 0182 	add.w	r1, r3, r2, lsl #2
  40216c:	2401      	movs	r4, #1
  40216e:	f8c1 9088 	str.w	r9, [r1, #136]	; 0x88
  402172:	f8d3 0188 	ldr.w	r0, [r3, #392]	; 0x188
  402176:	4094      	lsls	r4, r2
  402178:	4320      	orrs	r0, r4
  40217a:	2e02      	cmp	r6, #2
  40217c:	f8c3 0188 	str.w	r0, [r3, #392]	; 0x188
  402180:	f8c1 8108 	str.w	r8, [r1, #264]	; 0x108
  402184:	d023      	beq.n	4021ce <__register_exitproc+0x92>
  402186:	3202      	adds	r2, #2
  402188:	f8c3 e004 	str.w	lr, [r3, #4]
  40218c:	6828      	ldr	r0, [r5, #0]
  40218e:	f843 7022 	str.w	r7, [r3, r2, lsl #2]
  402192:	f7ff ffd1 	bl	402138 <__retarget_lock_release_recursive>
  402196:	2000      	movs	r0, #0
  402198:	e8bd 83f8 	ldmia.w	sp!, {r3, r4, r5, r6, r7, r8, r9, pc}
  40219c:	4b17      	ldr	r3, [pc, #92]	; (4021fc <__register_exitproc+0xc0>)
  40219e:	b30b      	cbz	r3, 4021e4 <__register_exitproc+0xa8>
  4021a0:	f44f 70c8 	mov.w	r0, #400	; 0x190
  4021a4:	f3af 8000 	nop.w
  4021a8:	4603      	mov	r3, r0
  4021aa:	b1d8      	cbz	r0, 4021e4 <__register_exitproc+0xa8>
  4021ac:	f8d4 2148 	ldr.w	r2, [r4, #328]	; 0x148
  4021b0:	6002      	str	r2, [r0, #0]
  4021b2:	2100      	movs	r1, #0
  4021b4:	6041      	str	r1, [r0, #4]
  4021b6:	460a      	mov	r2, r1
  4021b8:	f8c4 0148 	str.w	r0, [r4, #328]	; 0x148
  4021bc:	f04f 0e01 	mov.w	lr, #1
  4021c0:	f8c0 1188 	str.w	r1, [r0, #392]	; 0x188
  4021c4:	f8c0 118c 	str.w	r1, [r0, #396]	; 0x18c
  4021c8:	2e00      	cmp	r6, #0
  4021ca:	d0dc      	beq.n	402186 <__register_exitproc+0x4a>
  4021cc:	e7cc      	b.n	402168 <__register_exitproc+0x2c>
  4021ce:	f8d3 118c 	ldr.w	r1, [r3, #396]	; 0x18c
  4021d2:	430c      	orrs	r4, r1
  4021d4:	f8c3 418c 	str.w	r4, [r3, #396]	; 0x18c
  4021d8:	e7d5      	b.n	402186 <__register_exitproc+0x4a>
  4021da:	f504 73a6 	add.w	r3, r4, #332	; 0x14c
  4021de:	f8c4 3148 	str.w	r3, [r4, #328]	; 0x148
  4021e2:	e7bb      	b.n	40215c <__register_exitproc+0x20>
  4021e4:	6828      	ldr	r0, [r5, #0]
  4021e6:	f7ff ffa7 	bl	402138 <__retarget_lock_release_recursive>
  4021ea:	f04f 30ff 	mov.w	r0, #4294967295
  4021ee:	e8bd 83f8 	ldmia.w	sp!, {r3, r4, r5, r6, r7, r8, r9, pc}
  4021f2:	bf00      	nop
  4021f4:	20400438 	.word	0x20400438
  4021f8:	00402200 	.word	0x00402200
  4021fc:	00000000 	.word	0x00000000

00402200 <_global_impure_ptr>:
  402200:	20400010                                ..@ 

00402204 <_init>:
  402204:	b5f8      	push	{r3, r4, r5, r6, r7, lr}
  402206:	bf00      	nop
  402208:	bcf8      	pop	{r3, r4, r5, r6, r7}
  40220a:	bc08      	pop	{r3}
  40220c:	469e      	mov	lr, r3
  40220e:	4770      	bx	lr

00402210 <__init_array_start>:
