
SAME70-LCD-EXT2.elf:     file format elf32-littlearm

Sections:
Idx Name          Size      VMA       LMA       File off  Algn
  0 .text         00027044  00400000  00400000  00010000  2**6
                  CONTENTS, ALLOC, LOAD, READONLY, CODE
  1 .ARM.exidx    00000008  00427044  00427044  00037044  2**2
                  CONTENTS, ALLOC, LOAD, READONLY, DATA
  2 .relocate     000009c0  20400000  0042704c  00040000  2**3
                  CONTENTS, ALLOC, LOAD, CODE
  3 .bss          000004d8  204009c0  00427a0c  000409c0  2**2
                  ALLOC
  4 .stack        00002000  20400e98  00427ee4  000409c0  2**0
                  ALLOC
  5 .heap         00000200  20402e98  00429ee4  000409c0  2**0
                  ALLOC
  6 .ARM.attributes 0000002e  00000000  00000000  000409c0  2**0
                  CONTENTS, READONLY
  7 .comment      00000059  00000000  00000000  000409ee  2**0
                  CONTENTS, READONLY
  8 .debug_info   0001904f  00000000  00000000  00040a47  2**0
                  CONTENTS, READONLY, DEBUGGING
  9 .debug_abbrev 00003539  00000000  00000000  00059a96  2**0
                  CONTENTS, READONLY, DEBUGGING
 10 .debug_loc    00006a1c  00000000  00000000  0005cfcf  2**0
                  CONTENTS, READONLY, DEBUGGING
 11 .debug_aranges 00000be0  00000000  00000000  000639eb  2**0
                  CONTENTS, READONLY, DEBUGGING
 12 .debug_ranges 00000c60  00000000  00000000  000645cb  2**0
                  CONTENTS, READONLY, DEBUGGING
 13 .debug_macro  00007611  00000000  00000000  0006522b  2**0
                  CONTENTS, READONLY, DEBUGGING
 14 .debug_line   0000d5db  00000000  00000000  0006c83c  2**0
                  CONTENTS, READONLY, DEBUGGING
 15 .debug_str    0008d785  00000000  00000000  00079e17  2**0
                  CONTENTS, READONLY, DEBUGGING
 16 .debug_frame  00002eb0  00000000  00000000  0010759c  2**2
                  CONTENTS, READONLY, DEBUGGING

Disassembly of section .text:

00400000 <exception_table>:
  400000:	98 2e 40 20 05 16 40 00 03 16 40 00 03 16 40 00     ..@ ..@...@...@.
  400010:	03 16 40 00 03 16 40 00 03 16 40 00 00 00 00 00     ..@...@...@.....
	...
  40002c:	03 16 40 00 03 16 40 00 00 00 00 00 03 16 40 00     ..@...@.......@.
  40003c:	03 16 40 00 03 16 40 00 03 16 40 00 03 16 40 00     ..@...@...@...@.
  40004c:	03 16 40 00 03 16 40 00 03 16 40 00 03 16 40 00     ..@...@...@...@.
  40005c:	03 16 40 00 03 16 40 00 00 00 00 00 79 11 40 00     ..@...@.....y.@.
  40006c:	8d 11 40 00 a1 11 40 00 03 16 40 00 03 16 40 00     ..@...@...@...@.
  40007c:	03 16 40 00 b5 11 40 00 c9 11 40 00 03 16 40 00     ..@...@...@...@.
  40008c:	03 16 40 00 03 16 40 00 03 16 40 00 03 16 40 00     ..@...@...@...@.
  40009c:	03 16 40 00 03 16 40 00 03 16 40 00 03 16 40 00     ..@...@...@...@.
  4000ac:	03 16 40 00 03 16 40 00 03 16 40 00 03 16 40 00     ..@...@...@...@.
  4000bc:	03 16 40 00 03 16 40 00 03 16 40 00 03 16 40 00     ..@...@...@...@.
  4000cc:	03 16 40 00 00 00 00 00 03 16 40 00 00 00 00 00     ..@.......@.....
  4000dc:	03 16 40 00 03 16 40 00 03 16 40 00 03 16 40 00     ..@...@...@...@.
  4000ec:	03 16 40 00 03 16 40 00 03 16 40 00 03 16 40 00     ..@...@...@...@.
  4000fc:	03 16 40 00 03 16 40 00 03 16 40 00 03 16 40 00     ..@...@...@...@.
  40010c:	03 16 40 00 03 16 40 00 00 00 00 00 00 00 00 00     ..@...@.........
  40011c:	00 00 00 00 03 16 40 00 03 16 40 00 03 16 40 00     ......@...@...@.
  40012c:	03 16 40 00 03 16 40 00 00 00 00 00 03 16 40 00     ..@...@.......@.
  40013c:	03 16 40 00                                         ..@.

00400140 <__do_global_dtors_aux>:
  400140:	b510      	push	{r4, lr}
  400142:	4c05      	ldr	r4, [pc, #20]	; (400158 <__do_global_dtors_aux+0x18>)
  400144:	7823      	ldrb	r3, [r4, #0]
  400146:	b933      	cbnz	r3, 400156 <__do_global_dtors_aux+0x16>
  400148:	4b04      	ldr	r3, [pc, #16]	; (40015c <__do_global_dtors_aux+0x1c>)
  40014a:	b113      	cbz	r3, 400152 <__do_global_dtors_aux+0x12>
  40014c:	4804      	ldr	r0, [pc, #16]	; (400160 <__do_global_dtors_aux+0x20>)
  40014e:	f3af 8000 	nop.w
  400152:	2301      	movs	r3, #1
  400154:	7023      	strb	r3, [r4, #0]
  400156:	bd10      	pop	{r4, pc}
  400158:	204009c0 	.word	0x204009c0
  40015c:	00000000 	.word	0x00000000
  400160:	0042704c 	.word	0x0042704c

00400164 <frame_dummy>:
  400164:	4b0c      	ldr	r3, [pc, #48]	; (400198 <frame_dummy+0x34>)
  400166:	b143      	cbz	r3, 40017a <frame_dummy+0x16>
  400168:	480c      	ldr	r0, [pc, #48]	; (40019c <frame_dummy+0x38>)
  40016a:	490d      	ldr	r1, [pc, #52]	; (4001a0 <frame_dummy+0x3c>)
  40016c:	b510      	push	{r4, lr}
  40016e:	f3af 8000 	nop.w
  400172:	480c      	ldr	r0, [pc, #48]	; (4001a4 <frame_dummy+0x40>)
  400174:	6803      	ldr	r3, [r0, #0]
  400176:	b923      	cbnz	r3, 400182 <frame_dummy+0x1e>
  400178:	bd10      	pop	{r4, pc}
  40017a:	480a      	ldr	r0, [pc, #40]	; (4001a4 <frame_dummy+0x40>)
  40017c:	6803      	ldr	r3, [r0, #0]
  40017e:	b933      	cbnz	r3, 40018e <frame_dummy+0x2a>
  400180:	4770      	bx	lr
  400182:	4b09      	ldr	r3, [pc, #36]	; (4001a8 <frame_dummy+0x44>)
  400184:	2b00      	cmp	r3, #0
  400186:	d0f7      	beq.n	400178 <frame_dummy+0x14>
  400188:	e8bd 4010 	ldmia.w	sp!, {r4, lr}
  40018c:	4718      	bx	r3
  40018e:	4b06      	ldr	r3, [pc, #24]	; (4001a8 <frame_dummy+0x44>)
  400190:	2b00      	cmp	r3, #0
  400192:	d0f5      	beq.n	400180 <frame_dummy+0x1c>
  400194:	4718      	bx	r3
  400196:	bf00      	nop
  400198:	00000000 	.word	0x00000000
  40019c:	0042704c 	.word	0x0042704c
  4001a0:	204009c4 	.word	0x204009c4
  4001a4:	0042704c 	.word	0x0042704c
  4001a8:	00000000 	.word	0x00000000

004001ac <sysclk_init>:
	pmc_disable_udpck();
}
#endif // CONFIG_USBCLK_SOURCE

void sysclk_init(void)
{
  4001ac:	b510      	push	{r4, lr}
	struct pll_config pllcfg;

	/* Set flash wait state to max in case the below clock switching. */
	system_init_flash(CHIP_FREQ_CPU_MAX);
  4001ae:	4810      	ldr	r0, [pc, #64]	; (4001f0 <sysclk_init+0x44>)
  4001b0:	4b10      	ldr	r3, [pc, #64]	; (4001f4 <sysclk_init+0x48>)
  4001b2:	4798      	blx	r3
		pmc_switch_mainck_to_fastrc(CKGR_MOR_MOSCRCF_12_MHz);
		break;


	case OSC_MAINCK_XTAL:
		pmc_switch_mainck_to_xtal(PMC_OSC_XTAL,
  4001b4:	213e      	movs	r1, #62	; 0x3e
  4001b6:	2000      	movs	r0, #0
  4001b8:	4b0f      	ldr	r3, [pc, #60]	; (4001f8 <sysclk_init+0x4c>)
  4001ba:	4798      	blx	r3
	case OSC_MAINCK_4M_RC:
	case OSC_MAINCK_8M_RC:
	case OSC_MAINCK_12M_RC:
	case OSC_MAINCK_XTAL:
	case OSC_MAINCK_BYPASS:
		return pmc_osc_is_ready_mainck();
  4001bc:	4c0f      	ldr	r4, [pc, #60]	; (4001fc <sysclk_init+0x50>)
  4001be:	47a0      	blx	r4
 *
 * \param id A number identifying the oscillator to wait for.
 */
static inline void osc_wait_ready(uint8_t id)
{
	while (!osc_is_ready(id)) {
  4001c0:	2800      	cmp	r0, #0
  4001c2:	d0fc      	beq.n	4001be <sysclk_init+0x12>
static inline void pll_enable(const struct pll_config *p_cfg, uint32_t ul_pll_id)
{
	Assert(ul_pll_id < NR_PLLS);

	if (ul_pll_id == PLLA_ID) {
		pmc_disable_pllack(); // Always stop PLL first!
  4001c4:	4b0e      	ldr	r3, [pc, #56]	; (400200 <sysclk_init+0x54>)
  4001c6:	4798      	blx	r3
		PMC->CKGR_PLLAR = CKGR_PLLAR_ONE | p_cfg->ctrl;
  4001c8:	4a0e      	ldr	r2, [pc, #56]	; (400204 <sysclk_init+0x58>)
  4001ca:	4b0f      	ldr	r3, [pc, #60]	; (400208 <sysclk_init+0x5c>)
  4001cc:	629a      	str	r2, [r3, #40]	; 0x28
static inline uint32_t pll_is_locked(uint32_t ul_pll_id)
{
	Assert(ul_pll_id < NR_PLLS);

	if (ul_pll_id == PLLA_ID) {
	return pmc_is_locked_pllack();
  4001ce:	4c0f      	ldr	r4, [pc, #60]	; (40020c <sysclk_init+0x60>)
  4001d0:	47a0      	blx	r4
 */
static inline int pll_wait_for_lock(unsigned int pll_id)
{
	Assert(pll_id < NR_PLLS);

	while (!pll_is_locked(pll_id)) {
  4001d2:	2800      	cmp	r0, #0
  4001d4:	d0fc      	beq.n	4001d0 <sysclk_init+0x24>
	else if (CONFIG_SYSCLK_SOURCE == SYSCLK_SRC_PLLACK) {
		pll_enable_source(CONFIG_PLL0_SOURCE);
		pll_config_defaults(&pllcfg, 0);
		pll_enable(&pllcfg, 0);
		pll_wait_for_lock(0);
		pmc_mck_set_division(CONFIG_SYSCLK_DIV);
  4001d6:	2002      	movs	r0, #2
  4001d8:	4b0d      	ldr	r3, [pc, #52]	; (400210 <sysclk_init+0x64>)
  4001da:	4798      	blx	r3
		pmc_switch_mck_to_pllack(CONFIG_SYSCLK_PRES);
  4001dc:	2000      	movs	r0, #0
  4001de:	4b0d      	ldr	r3, [pc, #52]	; (400214 <sysclk_init+0x68>)
  4001e0:	4798      	blx	r3
		pll_wait_for_lock(1);
		pmc_mck_set_division(CONFIG_SYSCLK_DIV);
		pmc_switch_mck_to_upllck(CONFIG_SYSCLK_PRES);
	}
	/* Update the SystemFrequency variable */
	SystemCoreClockUpdate();
  4001e2:	4b0d      	ldr	r3, [pc, #52]	; (400218 <sysclk_init+0x6c>)
  4001e4:	4798      	blx	r3

	/* Set a flash wait state depending on the new cpu frequency */
	system_init_flash(sysclk_get_cpu_hz());
  4001e6:	4802      	ldr	r0, [pc, #8]	; (4001f0 <sysclk_init+0x44>)
  4001e8:	4b02      	ldr	r3, [pc, #8]	; (4001f4 <sysclk_init+0x48>)
  4001ea:	4798      	blx	r3
  4001ec:	bd10      	pop	{r4, pc}
  4001ee:	bf00      	nop
  4001f0:	11e1a300 	.word	0x11e1a300
  4001f4:	004017d9 	.word	0x004017d9
  4001f8:	00401279 	.word	0x00401279
  4001fc:	004012cd 	.word	0x004012cd
  400200:	004012dd 	.word	0x004012dd
  400204:	20183f01 	.word	0x20183f01
  400208:	400e0600 	.word	0x400e0600
  40020c:	004012ed 	.word	0x004012ed
  400210:	004011dd 	.word	0x004011dd
  400214:	00401215 	.word	0x00401215
  400218:	004016cd 	.word	0x004016cd

0040021c <spi_master_init>:
 *
 * \param p_spi  Base address of the SPI instance.
 *
 */
void spi_master_init(Spi *p_spi)
{
  40021c:	b510      	push	{r4, lr}
  40021e:	4604      	mov	r4, r0
#if SAMG55
	flexcom_enable(BOARD_FLEXCOM_SPI);
	flexcom_set_opmode(BOARD_FLEXCOM_SPI, FLEXCOM_SPI);
#else
	spi_enable_clock(p_spi);
  400220:	4b10      	ldr	r3, [pc, #64]	; (400264 <spi_master_init+0x48>)
  400222:	4798      	blx	r3
 *
 * \param p_spi Pointer to an SPI instance.
 */
static inline void spi_reset(Spi *p_spi)
{
	p_spi->SPI_CR = SPI_CR_SWRST;
  400224:	2380      	movs	r3, #128	; 0x80
  400226:	6023      	str	r3, [r4, #0]
 *
 * \param p_spi Pointer to an SPI instance.
 */
static inline void spi_set_master_mode(Spi *p_spi)
{
	p_spi->SPI_MR |= SPI_MR_MSTR;
  400228:	6863      	ldr	r3, [r4, #4]
  40022a:	f043 0301 	orr.w	r3, r3, #1
  40022e:	6063      	str	r3, [r4, #4]
 *
 * \param p_spi Pointer to an SPI instance.
 */
static inline void spi_disable_mode_fault_detect(Spi *p_spi)
{
	p_spi->SPI_MR |= SPI_MR_MODFDIS;
  400230:	6863      	ldr	r3, [r4, #4]
  400232:	f043 0310 	orr.w	r3, r3, #16
  400236:	6063      	str	r3, [r4, #4]
 *
 * \param p_spi Pointer to an SPI instance.
 */
static inline void spi_disable_loopback(Spi *p_spi)
{
	p_spi->SPI_MR &= (~SPI_MR_LLB);
  400238:	6863      	ldr	r3, [r4, #4]
  40023a:	f023 0380 	bic.w	r3, r3, #128	; 0x80
  40023e:	6063      	str	r3, [r4, #4]
#endif
	spi_reset(p_spi);
	spi_set_master_mode(p_spi);
	spi_disable_mode_fault_detect(p_spi);
	spi_disable_loopback(p_spi);
	spi_set_peripheral_chip_select_value(p_spi, DEFAULT_CHIP_ID);
  400240:	2100      	movs	r1, #0
  400242:	4620      	mov	r0, r4
  400244:	4b08      	ldr	r3, [pc, #32]	; (400268 <spi_master_init+0x4c>)
  400246:	4798      	blx	r3
	p_spi->SPI_MR &= (~SPI_MR_PS);
  400248:	6863      	ldr	r3, [r4, #4]
  40024a:	f023 0302 	bic.w	r3, r3, #2
  40024e:	6063      	str	r3, [r4, #4]
	p_spi->SPI_MR &= (~SPI_MR_PCSDEC);
  400250:	6863      	ldr	r3, [r4, #4]
  400252:	f023 0304 	bic.w	r3, r3, #4
  400256:	6063      	str	r3, [r4, #4]
	spi_set_fixed_peripheral_select(p_spi);
	spi_disable_peripheral_select_decode(p_spi);
	spi_set_delay_between_chip_select(p_spi, CONFIG_SPI_MASTER_DELAY_BCS);
  400258:	2100      	movs	r1, #0
  40025a:	4620      	mov	r0, r4
  40025c:	4b03      	ldr	r3, [pc, #12]	; (40026c <spi_master_init+0x50>)
  40025e:	4798      	blx	r3
  400260:	bd10      	pop	{r4, pc}
  400262:	bf00      	nop
  400264:	00401351 	.word	0x00401351
  400268:	0040137d 	.word	0x0040137d
  40026c:	00401393 	.word	0x00401393

00400270 <spi_master_setup_device>:
 * \param baud_rate Baud rate for communication with slave device in Hz.
 * \param sel_id    Board specific select id.
 */
void spi_master_setup_device(Spi *p_spi, struct spi_device *device,
		spi_flags_t flags, uint32_t baud_rate, board_spi_select_id_t sel_id)
{
  400270:	e92d 41f0 	stmdb	sp!, {r4, r5, r6, r7, r8, lr}
  400274:	4604      	mov	r4, r0
  400276:	460d      	mov	r5, r1
  400278:	4616      	mov	r6, r2
#if (SAM4L)
    int16_t baud_div = spi_calc_baudrate_div(baud_rate, sysclk_get_pba_hz());
#else
	int16_t baud_div = spi_calc_baudrate_div(baud_rate, sysclk_get_peripheral_hz());
  40027a:	4915      	ldr	r1, [pc, #84]	; (4002d0 <spi_master_setup_device+0x60>)
  40027c:	4618      	mov	r0, r3
  40027e:	4b15      	ldr	r3, [pc, #84]	; (4002d4 <spi_master_setup_device+0x64>)
  400280:	4798      	blx	r3
  400282:	4607      	mov	r7, r0
	/* avoid Cppcheck Warning */
	UNUSED(sel_id);
	if (-1 == baud_div) {
		Assert(0 == "Failed to find baudrate divider");
	}
	spi_set_transfer_delay(p_spi, device->id, CONFIG_SPI_MASTER_DELAY_BS,
  400284:	2301      	movs	r3, #1
  400286:	461a      	mov	r2, r3
  400288:	6829      	ldr	r1, [r5, #0]
  40028a:	4620      	mov	r0, r4
  40028c:	f8df 805c 	ldr.w	r8, [pc, #92]	; 4002ec <spi_master_setup_device+0x7c>
  400290:	47c0      	blx	r8
			CONFIG_SPI_MASTER_DELAY_BCT);
	spi_set_bits_per_transfer(p_spi, device->id,
  400292:	2200      	movs	r2, #0
  400294:	6829      	ldr	r1, [r5, #0]
  400296:	4620      	mov	r0, r4
  400298:	4b0f      	ldr	r3, [pc, #60]	; (4002d8 <spi_master_setup_device+0x68>)
  40029a:	4798      	blx	r3
			CONFIG_SPI_MASTER_BITS_PER_TRANSFER);
	spi_set_baudrate_div(p_spi, device->id, baud_div);
  40029c:	b2fa      	uxtb	r2, r7
  40029e:	6829      	ldr	r1, [r5, #0]
  4002a0:	4620      	mov	r0, r4
  4002a2:	4b0e      	ldr	r3, [pc, #56]	; (4002dc <spi_master_setup_device+0x6c>)
  4002a4:	4798      	blx	r3
	spi_configure_cs_behavior(p_spi, device->id, SPI_CS_KEEP_LOW);
  4002a6:	2208      	movs	r2, #8
  4002a8:	6829      	ldr	r1, [r5, #0]
  4002aa:	4620      	mov	r0, r4
  4002ac:	4b0c      	ldr	r3, [pc, #48]	; (4002e0 <spi_master_setup_device+0x70>)
  4002ae:	4798      	blx	r3
	spi_set_clock_polarity(p_spi, device->id, flags >> 1);
  4002b0:	0872      	lsrs	r2, r6, #1
  4002b2:	6829      	ldr	r1, [r5, #0]
  4002b4:	4620      	mov	r0, r4
  4002b6:	4b0b      	ldr	r3, [pc, #44]	; (4002e4 <spi_master_setup_device+0x74>)
  4002b8:	4798      	blx	r3
	spi_set_clock_phase(p_spi, device->id, ((flags & 0x1) ^ 0x1));
  4002ba:	f086 0201 	eor.w	r2, r6, #1
  4002be:	f002 0201 	and.w	r2, r2, #1
  4002c2:	6829      	ldr	r1, [r5, #0]
  4002c4:	4620      	mov	r0, r4
  4002c6:	4b08      	ldr	r3, [pc, #32]	; (4002e8 <spi_master_setup_device+0x78>)
  4002c8:	4798      	blx	r3
  4002ca:	e8bd 81f0 	ldmia.w	sp!, {r4, r5, r6, r7, r8, pc}
  4002ce:	bf00      	nop
  4002d0:	08f0d180 	.word	0x08f0d180
  4002d4:	0040146f 	.word	0x0040146f
  4002d8:	0040145b 	.word	0x0040145b
  4002dc:	00401485 	.word	0x00401485
  4002e0:	00401415 	.word	0x00401415
  4002e4:	004013d9 	.word	0x004013d9
  4002e8:	004013f7 	.word	0x004013f7
  4002ec:	004014ad 	.word	0x004014ad

004002f0 <spi_select_device>:
 * \param p_spi   Base address of the SPI instance.
 * \param device  SPI device.
 *
 */
void spi_select_device(Spi *p_spi, struct spi_device *device)
{
  4002f0:	b508      	push	{r3, lr}
	if (p_spi->SPI_MR & SPI_MR_PCSDEC) {
  4002f2:	6843      	ldr	r3, [r0, #4]
	if (spi_get_peripheral_select_decode_setting(p_spi)) {
  4002f4:	f013 0f04 	tst.w	r3, #4
  4002f8:	d006      	beq.n	400308 <spi_select_device+0x18>
		if (device->id < MAX_NUM_WITH_DECODER) {
  4002fa:	6809      	ldr	r1, [r1, #0]
  4002fc:	290f      	cmp	r1, #15
  4002fe:	d900      	bls.n	400302 <spi_select_device+0x12>
  400300:	bd08      	pop	{r3, pc}
			spi_set_peripheral_chip_select_value(p_spi, device->id);
  400302:	4b06      	ldr	r3, [pc, #24]	; (40031c <spi_select_device+0x2c>)
  400304:	4798      	blx	r3
  400306:	bd08      	pop	{r3, pc}
		}
	} else {
		if (device->id < MAX_NUM_WITHOUT_DECODER) {
  400308:	6809      	ldr	r1, [r1, #0]
  40030a:	2903      	cmp	r1, #3
  40030c:	d8f8      	bhi.n	400300 <spi_select_device+0x10>
			spi_set_peripheral_chip_select_value(p_spi, (~(1 << device->id)));
  40030e:	2301      	movs	r3, #1
  400310:	fa03 f101 	lsl.w	r1, r3, r1
  400314:	43c9      	mvns	r1, r1
  400316:	4b01      	ldr	r3, [pc, #4]	; (40031c <spi_select_device+0x2c>)
  400318:	4798      	blx	r3
		}
	}
}
  40031a:	e7f1      	b.n	400300 <spi_select_device+0x10>
  40031c:	0040137d 	.word	0x0040137d

00400320 <spi_write_packet>:
{
	uint32_t timeout = SPI_TIMEOUT;
	uint32_t i = 0;
	uint8_t val;

	while (len) {
  400320:	b11a      	cbz	r2, 40032a <spi_write_packet+0xa>
{
  400322:	b410      	push	{r4}
  400324:	460c      	mov	r4, r1
  400326:	4411      	add	r1, r2
  400328:	e006      	b.n	400338 <spi_write_packet+0x18>
		spi_write_single(p_spi, val);
		i++;
		len--;
	}

	return STATUS_OK;
  40032a:	2000      	movs	r0, #0
  40032c:	4770      	bx	lr
		val = data[i];
  40032e:	f814 3b01 	ldrb.w	r3, [r4], #1
 * \param data The data byte to be loaded
 *
 */
static inline void spi_put(Spi *p_spi, uint16_t data)
{
	p_spi->SPI_TDR = SPI_TDR_TD(data);
  400332:	60c3      	str	r3, [r0, #12]
	while (len) {
  400334:	42a1      	cmp	r1, r4
  400336:	d00c      	beq.n	400352 <spi_write_packet+0x32>
{
  400338:	f643 2399 	movw	r3, #15001	; 0x3a99
 * \retval 1 if transmissions are complete.
 * \retval 0 if transmissions are not complete.
 */
static inline uint32_t spi_is_tx_ready(Spi *p_spi)
{
	if (p_spi->SPI_SR & SPI_SR_TDRE) {
  40033c:	6902      	ldr	r2, [r0, #16]
		while (!spi_is_tx_ready(p_spi)) {
  40033e:	f012 0f02 	tst.w	r2, #2
  400342:	d1f4      	bne.n	40032e <spi_write_packet+0xe>
			if (!timeout--) {
  400344:	3b01      	subs	r3, #1
  400346:	d1f9      	bne.n	40033c <spi_write_packet+0x1c>
				return ERR_TIMEOUT;
  400348:	f06f 0002 	mvn.w	r0, #2
}
  40034c:	f85d 4b04 	ldr.w	r4, [sp], #4
  400350:	4770      	bx	lr
	return STATUS_OK;
  400352:	2000      	movs	r0, #0
  400354:	e7fa      	b.n	40034c <spi_write_packet+0x2c>

00400356 <spi_read_packet>:
{
	uint32_t timeout = SPI_TIMEOUT;
	uint8_t val;
	uint32_t i = 0;

	while (len) {
  400356:	b13a      	cbz	r2, 400368 <spi_read_packet+0x12>
{
  400358:	b470      	push	{r4, r5, r6}
  40035a:	4615      	mov	r5, r2
  40035c:	460c      	mov	r4, r1
  40035e:	440d      	add	r5, r1
	p_spi->SPI_TDR = SPI_TDR_TD(data);
  400360:	26ff      	movs	r6, #255	; 0xff
 *
 * \return 1 if the SPI Receiver is ready, otherwise 0.
 */
static inline uint32_t spi_is_rx_ready(Spi *p_spi)
{
	if ((p_spi->SPI_SR & (SPI_SR_RDRF | SPI_SR_TXEMPTY))
  400362:	f240 2101 	movw	r1, #513	; 0x201
  400366:	e012      	b.n	40038e <spi_read_packet+0x38>
		data[i] = val;
		i++;
		len--;
	}

	return STATUS_OK;
  400368:	2000      	movs	r0, #0
  40036a:	4770      	bx	lr
	p_spi->SPI_TDR = SPI_TDR_TD(data);
  40036c:	60c6      	str	r6, [r0, #12]
		while (!spi_is_rx_ready(p_spi)) {
  40036e:	f643 2399 	movw	r3, #15001	; 0x3a99
	if ((p_spi->SPI_SR & (SPI_SR_RDRF | SPI_SR_TXEMPTY))
  400372:	6902      	ldr	r2, [r0, #16]
  400374:	ea31 0202 	bics.w	r2, r1, r2
  400378:	d004      	beq.n	400384 <spi_read_packet+0x2e>
			if (!timeout--) {
  40037a:	3b01      	subs	r3, #1
  40037c:	d1f9      	bne.n	400372 <spi_read_packet+0x1c>
				return ERR_TIMEOUT;
  40037e:	f06f 0002 	mvn.w	r0, #2
  400382:	e00e      	b.n	4003a2 <spi_read_packet+0x4c>
	return (p_spi->SPI_RDR & SPI_RDR_RD_Msk);
  400384:	6883      	ldr	r3, [r0, #8]
 * \param data      Data to read.
 *
 */
static inline void spi_read_single(Spi *p_spi, uint8_t *data)
{
	*data = (uint8_t)spi_get(p_spi);
  400386:	f804 3b01 	strb.w	r3, [r4], #1
	while (len) {
  40038a:	42a5      	cmp	r5, r4
  40038c:	d00b      	beq.n	4003a6 <spi_read_packet+0x50>
{
  40038e:	f643 2399 	movw	r3, #15001	; 0x3a99
	if (p_spi->SPI_SR & SPI_SR_TDRE) {
  400392:	6902      	ldr	r2, [r0, #16]
		while (!spi_is_tx_ready(p_spi)) {
  400394:	f012 0f02 	tst.w	r2, #2
  400398:	d1e8      	bne.n	40036c <spi_read_packet+0x16>
			if (!timeout--) {
  40039a:	3b01      	subs	r3, #1
  40039c:	d1f9      	bne.n	400392 <spi_read_packet+0x3c>
				return ERR_TIMEOUT;
  40039e:	f06f 0002 	mvn.w	r0, #2
}
  4003a2:	bc70      	pop	{r4, r5, r6}
  4003a4:	4770      	bx	lr
	return STATUS_OK;
  4003a6:	2000      	movs	r0, #0
  4003a8:	e7fb      	b.n	4003a2 <spi_read_packet+0x4c>
	...

004003ac <_read>:
int __attribute__((weak))
_read (int file, char * ptr, int len); // Remove GCC compiler warning

int __attribute__((weak))
_read (int file, char * ptr, int len)
{
  4003ac:	e92d 41f0 	stmdb	sp!, {r4, r5, r6, r7, r8, lr}
	int nChars = 0;

	if (file != 0) {
  4003b0:	b980      	cbnz	r0, 4003d4 <_read+0x28>
  4003b2:	460c      	mov	r4, r1
  4003b4:	4690      	mov	r8, r2
		return -1;
	}

	for (; len > 0; --len) {
  4003b6:	2a00      	cmp	r2, #0
  4003b8:	dd0f      	ble.n	4003da <_read+0x2e>
  4003ba:	188f      	adds	r7, r1, r2
		ptr_get(stdio_base, ptr);
  4003bc:	4e08      	ldr	r6, [pc, #32]	; (4003e0 <_read+0x34>)
  4003be:	4d09      	ldr	r5, [pc, #36]	; (4003e4 <_read+0x38>)
  4003c0:	6830      	ldr	r0, [r6, #0]
  4003c2:	4621      	mov	r1, r4
  4003c4:	682b      	ldr	r3, [r5, #0]
  4003c6:	4798      	blx	r3
		ptr++;
  4003c8:	3401      	adds	r4, #1
	for (; len > 0; --len) {
  4003ca:	42bc      	cmp	r4, r7
  4003cc:	d1f8      	bne.n	4003c0 <_read+0x14>
		nChars++;
	}
	return nChars;
}
  4003ce:	4640      	mov	r0, r8
  4003d0:	e8bd 81f0 	ldmia.w	sp!, {r4, r5, r6, r7, r8, pc}
		return -1;
  4003d4:	f04f 38ff 	mov.w	r8, #4294967295
  4003d8:	e7f9      	b.n	4003ce <_read+0x22>
	for (; len > 0; --len) {
  4003da:	4680      	mov	r8, r0
  4003dc:	e7f7      	b.n	4003ce <_read+0x22>
  4003de:	bf00      	nop
  4003e0:	20400e5c 	.word	0x20400e5c
  4003e4:	20400e54 	.word	0x20400e54

004003e8 <_write>:
int __attribute__((weak))
_write (int file, const char *ptr, int len)
{
	int nChars = 0;

	if ((file != 1) && (file != 2) && (file!=3)) {
  4003e8:	3801      	subs	r0, #1
  4003ea:	2802      	cmp	r0, #2
  4003ec:	d815      	bhi.n	40041a <_write+0x32>
{
  4003ee:	e92d 41f0 	stmdb	sp!, {r4, r5, r6, r7, r8, lr}
  4003f2:	460e      	mov	r6, r1
  4003f4:	4614      	mov	r4, r2
		return -1;
	}

	for (; len != 0; --len) {
  4003f6:	b19a      	cbz	r2, 400420 <_write+0x38>
  4003f8:	460d      	mov	r5, r1
		if (ptr_put(stdio_base, *ptr++) < 0) {
  4003fa:	f8df 8038 	ldr.w	r8, [pc, #56]	; 400434 <_write+0x4c>
  4003fe:	4f0c      	ldr	r7, [pc, #48]	; (400430 <_write+0x48>)
  400400:	f8d8 0000 	ldr.w	r0, [r8]
  400404:	f815 1b01 	ldrb.w	r1, [r5], #1
  400408:	683b      	ldr	r3, [r7, #0]
  40040a:	4798      	blx	r3
  40040c:	2800      	cmp	r0, #0
  40040e:	db0a      	blt.n	400426 <_write+0x3e>
  400410:	1ba8      	subs	r0, r5, r6
	for (; len != 0; --len) {
  400412:	3c01      	subs	r4, #1
  400414:	d1f4      	bne.n	400400 <_write+0x18>
  400416:	e8bd 81f0 	ldmia.w	sp!, {r4, r5, r6, r7, r8, pc}
		return -1;
  40041a:	f04f 30ff 	mov.w	r0, #4294967295
  40041e:	4770      	bx	lr
	for (; len != 0; --len) {
  400420:	4610      	mov	r0, r2
  400422:	e8bd 81f0 	ldmia.w	sp!, {r4, r5, r6, r7, r8, pc}
			return -1;
  400426:	f04f 30ff 	mov.w	r0, #4294967295
		}
		++nChars;
	}
	return nChars;
}
  40042a:	e8bd 81f0 	ldmia.w	sp!, {r4, r5, r6, r7, r8, pc}
  40042e:	bf00      	nop
  400430:	20400e58 	.word	0x20400e58
  400434:	20400e5c 	.word	0x20400e5c

00400438 <board_init>:
	__ISB();
}
#endif

void board_init(void)
{
  400438:	e92d 41f0 	stmdb	sp!, {r4, r5, r6, r7, r8, lr}
#ifndef CONF_BOARD_KEEP_WATCHDOG_AT_INIT
	/* Disable the watchdog */
	WDT->WDT_MR = WDT_MR_WDDIS;
  40043c:	f44f 4200 	mov.w	r2, #32768	; 0x8000
  400440:	4b9e      	ldr	r3, [pc, #632]	; (4006bc <board_init+0x284>)
  400442:	605a      	str	r2, [r3, #4]
    This function acts as a special kind of Data Memory Barrier.
    It completes when all explicit memory accesses before this instruction complete.
 */
__attribute__( ( always_inline ) ) __STATIC_INLINE void __DSB(void)
{
  __ASM volatile ("dsb");
  400444:	f3bf 8f4f 	dsb	sy
  __ASM volatile ("isb");
  400448:	f3bf 8f6f 	isb	sy
__STATIC_INLINE void SCB_EnableICache(void)
{
  #if (__ICACHE_PRESENT == 1)
    __DSB();
    __ISB();
    SCB->ICIALLU = 0;                       // invalidate I-Cache
  40044c:	4b9c      	ldr	r3, [pc, #624]	; (4006c0 <board_init+0x288>)
  40044e:	2200      	movs	r2, #0
  400450:	f8c3 2250 	str.w	r2, [r3, #592]	; 0x250
    SCB->CCR |=  SCB_CCR_IC_Msk;            // enable I-Cache
  400454:	695a      	ldr	r2, [r3, #20]
  400456:	f442 3200 	orr.w	r2, r2, #131072	; 0x20000
  40045a:	615a      	str	r2, [r3, #20]
  __ASM volatile ("dsb");
  40045c:	f3bf 8f4f 	dsb	sy
  __ASM volatile ("isb");
  400460:	f3bf 8f6f 	isb	sy
{
  #if (__DCACHE_PRESENT == 1)
    uint32_t ccsidr, sshift, wshift, sw;
    uint32_t sets, ways;

    ccsidr  = SCB->CCSIDR;
  400464:	f8d3 7080 	ldr.w	r7, [r3, #128]	; 0x80
    sets    = CCSIDR_SETS(ccsidr);
  400468:	f3c7 364e 	ubfx	r6, r7, #13, #15
    sshift  = CCSIDR_LSSHIFT(ccsidr) + 4;
  40046c:	f007 0007 	and.w	r0, r7, #7
  400470:	3004      	adds	r0, #4
    ways    = CCSIDR_WAYS(ccsidr);
  400472:	f3c7 07c9 	ubfx	r7, r7, #3, #10
 */
__attribute__( ( always_inline ) ) __STATIC_INLINE uint8_t __CLZ(uint32_t value)
{
  uint32_t result;

  __ASM volatile ("clz %0, %1" : "=r" (result) : "r" (value) );
  400476:	fab7 fe87 	clz	lr, r7
    wshift  = __CLZ(ways) & 0x1f;
  40047a:	f00e 0e1f 	and.w	lr, lr, #31
  __ASM volatile ("dsb");
  40047e:	f3bf 8f4f 	dsb	sy
  400482:	f04f 34ff 	mov.w	r4, #4294967295
  400486:	fa04 fc00 	lsl.w	ip, r4, r0
  40048a:	fa06 f000 	lsl.w	r0, r6, r0
  40048e:	fa04 f40e 	lsl.w	r4, r4, lr
  400492:	fa07 fe0e 	lsl.w	lr, r7, lr

    do {                                    // invalidate D-Cache
         int32_t tmpways = ways;
         do {
              sw = ((tmpways << wshift) | (sets << sshift));
              SCB->DCISW = sw;
  400496:	461d      	mov	r5, r3
         int32_t tmpways = ways;
  400498:	463a      	mov	r2, r7
  40049a:	4673      	mov	r3, lr
              sw = ((tmpways << wshift) | (sets << sshift));
  40049c:	ea40 0103 	orr.w	r1, r0, r3
              SCB->DCISW = sw;
  4004a0:	f8c5 1260 	str.w	r1, [r5, #608]	; 0x260
            } while(tmpways--);
  4004a4:	3a01      	subs	r2, #1
  4004a6:	4423      	add	r3, r4
  4004a8:	f1b2 3fff 	cmp.w	r2, #4294967295
  4004ac:	d1f6      	bne.n	40049c <board_init+0x64>
        } while(sets--);
  4004ae:	3e01      	subs	r6, #1
  4004b0:	4460      	add	r0, ip
  4004b2:	f1b6 3fff 	cmp.w	r6, #4294967295
  4004b6:	d1ef      	bne.n	400498 <board_init+0x60>
  4004b8:	f3bf 8f4f 	dsb	sy
    __DSB();

    SCB->CCR |=  SCB_CCR_DC_Msk;            // enable D-Cache
  4004bc:	4b80      	ldr	r3, [pc, #512]	; (4006c0 <board_init+0x288>)
  4004be:	695a      	ldr	r2, [r3, #20]
  4004c0:	f442 3280 	orr.w	r2, r2, #65536	; 0x10000
  4004c4:	615a      	str	r2, [r3, #20]
  4004c6:	f3bf 8f4f 	dsb	sy
  __ASM volatile ("isb");
  4004ca:	f3bf 8f6f 	isb	sy
		*dst++ = *src++;
	}
#endif
#else
	/* TCM Configuration */
	EFC->EEFC_FCR = (EEFC_FCR_FKEY_PASSWD | EEFC_FCR_FCMD_CGPB 
  4004ce:	4a7d      	ldr	r2, [pc, #500]	; (4006c4 <board_init+0x28c>)
  4004d0:	497d      	ldr	r1, [pc, #500]	; (4006c8 <board_init+0x290>)
  4004d2:	6051      	str	r1, [r2, #4]
					| EEFC_FCR_FARG(8));
	EFC->EEFC_FCR = (EEFC_FCR_FKEY_PASSWD | EEFC_FCR_FCMD_CGPB 
  4004d4:	f5a1 7180 	sub.w	r1, r1, #256	; 0x100
  4004d8:	6051      	str	r1, [r2, #4]
  __ASM volatile ("dsb");
  4004da:	f3bf 8f4f 	dsb	sy
  __ASM volatile ("isb");
  4004de:	f3bf 8f6f 	isb	sy
	SCB->ITCMCR &= ~(uint32_t)(1UL);
  4004e2:	f8d3 2290 	ldr.w	r2, [r3, #656]	; 0x290
  4004e6:	f022 0201 	bic.w	r2, r2, #1
  4004ea:	f8c3 2290 	str.w	r2, [r3, #656]	; 0x290
	SCB->DTCMCR &= ~(uint32_t)SCB_DTCMCR_EN_Msk;
  4004ee:	f8d3 2294 	ldr.w	r2, [r3, #660]	; 0x294
  4004f2:	f022 0201 	bic.w	r2, r2, #1
  4004f6:	f8c3 2294 	str.w	r2, [r3, #660]	; 0x294
  __ASM volatile ("dsb");
  4004fa:	f3bf 8f4f 	dsb	sy
  __ASM volatile ("isb");
  4004fe:	f3bf 8f6f 	isb	sy
 *
 * \param ul_id Id (number) of the peripheral clock.
 */
static inline void sysclk_enable_peripheral_clock(uint32_t ul_id)
{
	pmc_enable_periph_clk(ul_id);
  400502:	200a      	movs	r0, #10
  400504:	4c71      	ldr	r4, [pc, #452]	; (4006cc <board_init+0x294>)
  400506:	47a0      	blx	r4
  400508:	200b      	movs	r0, #11
  40050a:	47a0      	blx	r4
  40050c:	200c      	movs	r0, #12
  40050e:	47a0      	blx	r4
  400510:	2010      	movs	r0, #16
  400512:	47a0      	blx	r4
  400514:	2011      	movs	r0, #17
  400516:	47a0      	blx	r4
		enum ioport_direction dir)
{
	Pio *base = arch_ioport_pin_to_base(pin);

	if (dir == IOPORT_DIR_OUTPUT) {
		base->PIO_OER = arch_ioport_pin_to_mask(pin);
  400518:	4e6d      	ldr	r6, [pc, #436]	; (4006d0 <board_init+0x298>)
  40051a:	f44f 7880 	mov.w	r8, #256	; 0x100
  40051e:	f8c6 8010 	str.w	r8, [r6, #16]
	} else if (dir == IOPORT_DIR_INPUT) {
		base->PIO_ODR = arch_ioport_pin_to_mask(pin);
	}

	base->PIO_OWER = arch_ioport_pin_to_mask(pin);
  400522:	f8c6 80a0 	str.w	r8, [r6, #160]	; 0xa0
		bool level)
{
	Pio *base = arch_ioport_pin_to_base(pin);

	if (level) {
		base->PIO_SODR = arch_ioport_pin_to_mask(pin);
  400526:	f8c6 8030 	str.w	r8, [r6, #48]	; 0x30
		base->PIO_ODR = arch_ioport_pin_to_mask(pin);
  40052a:	4c6a      	ldr	r4, [pc, #424]	; (4006d4 <board_init+0x29c>)
  40052c:	f44f 6500 	mov.w	r5, #2048	; 0x800
  400530:	6165      	str	r5, [r4, #20]
	base->PIO_OWER = arch_ioport_pin_to_mask(pin);
  400532:	f8c4 50a0 	str.w	r5, [r4, #160]	; 0xa0
		base->PIO_PUER = mask;
  400536:	6665      	str	r5, [r4, #100]	; 0x64
		base->PIO_PPDDR = mask;
  400538:	f8c4 5090 	str.w	r5, [r4, #144]	; 0x90
		base->PIO_MDDR = mask;
  40053c:	6565      	str	r5, [r4, #84]	; 0x54
		base->PIO_IFER = mask;
  40053e:	6225      	str	r5, [r4, #32]
		base->PIO_IFSCER = mask;
  400540:	f8c4 5084 	str.w	r5, [r4, #132]	; 0x84
		base->PIO_ABCDSR[0] &= ~mask;
  400544:	6f23      	ldr	r3, [r4, #112]	; 0x70
  400546:	f423 6300 	bic.w	r3, r3, #2048	; 0x800
  40054a:	6723      	str	r3, [r4, #112]	; 0x70
		base->PIO_ABCDSR[1] &= ~mask;
  40054c:	6f63      	ldr	r3, [r4, #116]	; 0x74
  40054e:	f423 6300 	bic.w	r3, r3, #2048	; 0x800
  400552:	6763      	str	r3, [r4, #116]	; 0x74
	case IOPORT_SENSE_FALLING:
		base->PIO_ESR = mask;
		base->PIO_FELLSR = mask;
		break;
	case IOPORT_SENSE_RISING:
		base->PIO_ESR = mask;
  400554:	f8c4 50c0 	str.w	r5, [r4, #192]	; 0xc0
		base->PIO_REHLSR = mask;
  400558:	f8c4 50d4 	str.w	r5, [r4, #212]	; 0xd4
		break;
	default:
		base->PIO_AIMDR = mask;
		return;
	}
	base->PIO_AIMER = mask;
  40055c:	f8c4 50b0 	str.w	r5, [r4, #176]	; 0xb0
		base->PIO_PUDR = mask;
  400560:	f44f 1300 	mov.w	r3, #2097152	; 0x200000
  400564:	6623      	str	r3, [r4, #96]	; 0x60
		base->PIO_PPDDR = mask;
  400566:	f8c4 3090 	str.w	r3, [r4, #144]	; 0x90
		base->PIO_MDDR = mask;
  40056a:	6563      	str	r3, [r4, #84]	; 0x54
		base->PIO_IFDR = mask;
  40056c:	6263      	str	r3, [r4, #36]	; 0x24
		base->PIO_IFSCDR = mask;
  40056e:	f8c4 3080 	str.w	r3, [r4, #128]	; 0x80
		base->PIO_ABCDSR[0] &= ~mask;
  400572:	6f22      	ldr	r2, [r4, #112]	; 0x70
  400574:	f422 1200 	bic.w	r2, r2, #2097152	; 0x200000
  400578:	6722      	str	r2, [r4, #112]	; 0x70
		base->PIO_ABCDSR[1] &= ~mask;
  40057a:	6f62      	ldr	r2, [r4, #116]	; 0x74
  40057c:	f422 1200 	bic.w	r2, r2, #2097152	; 0x200000
  400580:	6762      	str	r2, [r4, #116]	; 0x74
	arch_ioport_port_to_base(port)->PIO_PDR = mask;
  400582:	6063      	str	r3, [r4, #4]
			GPIO_PUSH_BUTTON_1_SENSE);

#ifdef CONF_BOARD_UART_CONSOLE
	/* Configure UART pins */
	ioport_set_pin_peripheral_mode(USART1_RXD_GPIO, USART1_RXD_FLAGS);
	MATRIX->CCFG_SYSIO |= CCFG_SYSIO_SYSIO4;
  400584:	4a54      	ldr	r2, [pc, #336]	; (4006d8 <board_init+0x2a0>)
  400586:	f8d2 3114 	ldr.w	r3, [r2, #276]	; 0x114
  40058a:	f043 0310 	orr.w	r3, r3, #16
  40058e:	f8c2 3114 	str.w	r3, [r2, #276]	; 0x114
		base->PIO_PUDR = mask;
  400592:	f502 22b2 	add.w	r2, r2, #364544	; 0x59000
  400596:	2310      	movs	r3, #16
  400598:	6613      	str	r3, [r2, #96]	; 0x60
		base->PIO_PPDDR = mask;
  40059a:	f8c2 3090 	str.w	r3, [r2, #144]	; 0x90
		base->PIO_MDDR = mask;
  40059e:	6553      	str	r3, [r2, #84]	; 0x54
		base->PIO_IFDR = mask;
  4005a0:	6253      	str	r3, [r2, #36]	; 0x24
		base->PIO_IFSCDR = mask;
  4005a2:	f8c2 3080 	str.w	r3, [r2, #128]	; 0x80
		base->PIO_ABCDSR[0] |= mask;
  4005a6:	6f11      	ldr	r1, [r2, #112]	; 0x70
  4005a8:	4319      	orrs	r1, r3
  4005aa:	6711      	str	r1, [r2, #112]	; 0x70
		base->PIO_ABCDSR[1] |= mask;
  4005ac:	6f51      	ldr	r1, [r2, #116]	; 0x74
  4005ae:	4319      	orrs	r1, r3
  4005b0:	6751      	str	r1, [r2, #116]	; 0x74
	arch_ioport_port_to_base(port)->PIO_PDR = mask;
  4005b2:	6053      	str	r3, [r2, #4]
		base->PIO_PUDR = mask;
  4005b4:	2208      	movs	r2, #8
  4005b6:	6622      	str	r2, [r4, #96]	; 0x60
		base->PIO_PPDDR = mask;
  4005b8:	f8c4 2090 	str.w	r2, [r4, #144]	; 0x90
		base->PIO_MDDR = mask;
  4005bc:	6562      	str	r2, [r4, #84]	; 0x54
		base->PIO_IFDR = mask;
  4005be:	6262      	str	r2, [r4, #36]	; 0x24
		base->PIO_IFSCDR = mask;
  4005c0:	f8c4 2080 	str.w	r2, [r4, #128]	; 0x80
		base->PIO_ABCDSR[0] &= ~mask;
  4005c4:	6f21      	ldr	r1, [r4, #112]	; 0x70
  4005c6:	f021 0108 	bic.w	r1, r1, #8
  4005ca:	6721      	str	r1, [r4, #112]	; 0x70
		base->PIO_ABCDSR[1] &= ~mask;
  4005cc:	6f61      	ldr	r1, [r4, #116]	; 0x74
  4005ce:	f021 0108 	bic.w	r1, r1, #8
  4005d2:	6761      	str	r1, [r4, #116]	; 0x74
	arch_ioport_port_to_base(port)->PIO_PDR = mask;
  4005d4:	6062      	str	r2, [r4, #4]
		base->PIO_PUDR = mask;
  4005d6:	6623      	str	r3, [r4, #96]	; 0x60
		base->PIO_PPDDR = mask;
  4005d8:	f8c4 3090 	str.w	r3, [r4, #144]	; 0x90
		base->PIO_MDDR = mask;
  4005dc:	6563      	str	r3, [r4, #84]	; 0x54
		base->PIO_IFDR = mask;
  4005de:	6263      	str	r3, [r4, #36]	; 0x24
		base->PIO_IFSCDR = mask;
  4005e0:	f8c4 3080 	str.w	r3, [r4, #128]	; 0x80
		base->PIO_ABCDSR[0] &= ~mask;
  4005e4:	6f22      	ldr	r2, [r4, #112]	; 0x70
  4005e6:	f022 0210 	bic.w	r2, r2, #16
  4005ea:	6722      	str	r2, [r4, #112]	; 0x70
		base->PIO_ABCDSR[1] &= ~mask;
  4005ec:	6f62      	ldr	r2, [r4, #116]	; 0x74
  4005ee:	f022 0210 	bic.w	r2, r2, #16
  4005f2:	6762      	str	r2, [r4, #116]	; 0x74
	arch_ioport_port_to_base(port)->PIO_PDR = mask;
  4005f4:	6063      	str	r3, [r4, #4]
	ioport_set_pin_mode(SD_MMC_0_CD_GPIO, SD_MMC_0_CD_FLAGS);
#endif

#ifdef CONF_BOARD_ILI9488
	/**LCD pin configure on EBI*/
	pio_configure(PIN_EBI_RESET_PIO, PIN_EBI_RESET_TYPE, PIN_EBI_RESET_MASK, PIN_EBI_RESET_ATTRI);
  4005f6:	2300      	movs	r3, #0
  4005f8:	f44f 5200 	mov.w	r2, #8192	; 0x2000
  4005fc:	f04f 5160 	mov.w	r1, #939524096	; 0x38000000
  400600:	4630      	mov	r0, r6
  400602:	4f36      	ldr	r7, [pc, #216]	; (4006dc <board_init+0x2a4>)
  400604:	47b8      	blx	r7
	pio_configure(PIN_EBI_CDS_PIO, PIN_EBI_CDS_TYPE, PIN_EBI_CDS_MASK, PIN_EBI_CDS_ATTRI);
  400606:	2300      	movs	r3, #0
  400608:	f04f 4280 	mov.w	r2, #1073741824	; 0x40000000
  40060c:	f04f 5160 	mov.w	r1, #939524096	; 0x38000000
  400610:	4630      	mov	r0, r6
  400612:	47b8      	blx	r7
	pio_configure(PIN_EBI_DATAL_PIO, PIN_EBI_DATAL_TYPE, PIN_EBI_DATAL_MASK, PIN_EBI_DATAL_ATTRI);
  400614:	2301      	movs	r3, #1
  400616:	22ff      	movs	r2, #255	; 0xff
  400618:	f04f 6100 	mov.w	r1, #134217728	; 0x8000000
  40061c:	4630      	mov	r0, r6
  40061e:	47b8      	blx	r7
	pio_configure(PIN_EBI_DATAH_0_PIO, PIN_EBI_DATAH_0_TYPE, PIN_EBI_DATAH_0_MASK, PIN_EBI_DATAH_0_ATTRI);
  400620:	2301      	movs	r3, #1
  400622:	223f      	movs	r2, #63	; 0x3f
  400624:	f04f 6100 	mov.w	r1, #134217728	; 0x8000000
  400628:	482d      	ldr	r0, [pc, #180]	; (4006e0 <board_init+0x2a8>)
  40062a:	47b8      	blx	r7
	pio_configure(PIN_EBI_DATAH_1_PIO, PIN_EBI_DATAH_1_TYPE, PIN_EBI_DATAH_1_MASK, PIN_EBI_DATAH_1_ATTRI);
  40062c:	2301      	movs	r3, #1
  40062e:	f44f 32c0 	mov.w	r2, #98304	; 0x18000
  400632:	f04f 6100 	mov.w	r1, #134217728	; 0x8000000
  400636:	4620      	mov	r0, r4
  400638:	47b8      	blx	r7
	pio_configure(PIN_EBI_NWE_PIO, PIN_EBI_NWE_TYPE, PIN_EBI_NWE_MASK, PIN_EBI_NWE_ATTRI);
  40063a:	2301      	movs	r3, #1
  40063c:	4642      	mov	r2, r8
  40063e:	f04f 6100 	mov.w	r1, #134217728	; 0x8000000
  400642:	4630      	mov	r0, r6
  400644:	47b8      	blx	r7
	pio_configure(PIN_EBI_NRD_PIO, PIN_EBI_NRD_TYPE, PIN_EBI_NRD_MASK, PIN_EBI_NRD_ATTRI);
  400646:	2301      	movs	r3, #1
  400648:	462a      	mov	r2, r5
  40064a:	f04f 6100 	mov.w	r1, #134217728	; 0x8000000
  40064e:	4630      	mov	r0, r6
  400650:	47b8      	blx	r7
	pio_configure(PIN_EBI_CS_PIO, PIN_EBI_CS_TYPE, PIN_EBI_CS_MASK, PIN_EBI_CS_ATTRI);
  400652:	2301      	movs	r3, #1
  400654:	f44f 2200 	mov.w	r2, #524288	; 0x80000
  400658:	f04f 6100 	mov.w	r1, #134217728	; 0x8000000
  40065c:	4821      	ldr	r0, [pc, #132]	; (4006e4 <board_init+0x2ac>)
  40065e:	47b8      	blx	r7
	pio_configure(PIN_EBI_BACKLIGHT_PIO, PIN_EBI_BACKLIGHT_TYPE, PIN_EBI_BACKLIGHT_MASK, PIN_EBI_BACKLIGHT_ATTRI);
  400660:	2300      	movs	r3, #0
  400662:	f44f 7200 	mov.w	r2, #512	; 0x200
  400666:	f04f 5180 	mov.w	r1, #268435456	; 0x10000000
  40066a:	4630      	mov	r0, r6
  40066c:	47b8      	blx	r7
	pio_set(PIN_EBI_BACKLIGHT_PIO, PIN_EBI_BACKLIGHT_MASK);
  40066e:	f44f 7100 	mov.w	r1, #512	; 0x200
  400672:	4630      	mov	r0, r6
  400674:	4b1c      	ldr	r3, [pc, #112]	; (4006e8 <board_init+0x2b0>)
  400676:	4798      	blx	r3
	MATRIX->CCFG_SMCNFCS = CCFG_SMCNFCS_SDRAMEN;
#endif

#ifdef CONF_BOARD_ILI9488
	/**LCD pin configure on SPI*/
	pio_configure_pin(LCD_SPI_MISO_PIO, LCD_SPI_MISO_FLAGS);
  400678:	f04f 5180 	mov.w	r1, #268435456	; 0x10000000
  40067c:	2074      	movs	r0, #116	; 0x74
  40067e:	4c1b      	ldr	r4, [pc, #108]	; (4006ec <board_init+0x2b4>)
  400680:	47a0      	blx	r4
	pio_configure_pin(LCD_SPI_MOSI_PIO, LCD_SPI_MOSI_FLAGS);
  400682:	f04f 5180 	mov.w	r1, #268435456	; 0x10000000
  400686:	2075      	movs	r0, #117	; 0x75
  400688:	47a0      	blx	r4
	pio_configure_pin(LCD_SPI_SPCK_PIO, LCD_SPI_SPCK_FLAGS);
  40068a:	f04f 5180 	mov.w	r1, #268435456	; 0x10000000
  40068e:	2076      	movs	r0, #118	; 0x76
  400690:	47a0      	blx	r4
	pio_configure_pin(LCD_SPI_NPCS_PIO, LCD_SPI_NPCS_FLAGS);
  400692:	f04f 5180 	mov.w	r1, #268435456	; 0x10000000
  400696:	207b      	movs	r0, #123	; 0x7b
  400698:	47a0      	blx	r4
	pio_configure_pin(LCD_SPI_RESET_PIO, LCD_SPI_RESET_FLAGS);
  40069a:	f04f 5160 	mov.w	r1, #939524096	; 0x38000000
  40069e:	2018      	movs	r0, #24
  4006a0:	47a0      	blx	r4
	pio_configure_pin(LCD_SPI_CDS_PIO, LCD_SPI_CDS_FLAGS);
  4006a2:	f04f 5160 	mov.w	r1, #939524096	; 0x38000000
  4006a6:	2006      	movs	r0, #6
  4006a8:	47a0      	blx	r4
	pio_configure_pin(LCD_SPI_BACKLIGHT_PIO, LCD_SPI_BACKLIGHT_FLAGS);
  4006aa:	f04f 5160 	mov.w	r1, #939524096	; 0x38000000
  4006ae:	2053      	movs	r0, #83	; 0x53
  4006b0:	47a0      	blx	r4
	pio_set_pin_high(LCD_SPI_BACKLIGHT_PIO);
  4006b2:	2053      	movs	r0, #83	; 0x53
  4006b4:	4b0e      	ldr	r3, [pc, #56]	; (4006f0 <board_init+0x2b8>)
  4006b6:	4798      	blx	r3
  4006b8:	e8bd 81f0 	ldmia.w	sp!, {r4, r5, r6, r7, r8, pc}
  4006bc:	400e1850 	.word	0x400e1850
  4006c0:	e000ed00 	.word	0xe000ed00
  4006c4:	400e0c00 	.word	0x400e0c00
  4006c8:	5a00080c 	.word	0x5a00080c
  4006cc:	004012fd 	.word	0x004012fd
  4006d0:	400e1200 	.word	0x400e1200
  4006d4:	400e0e00 	.word	0x400e0e00
  4006d8:	40088000 	.word	0x40088000
  4006dc:	00400e81 	.word	0x00400e81
  4006e0:	400e1600 	.word	0x400e1600
  4006e4:	400e1400 	.word	0x400e1400
  4006e8:	00400d89 	.word	0x00400d89
  4006ec:	00400f89 	.word	0x00400f89
  4006f0:	00400f51 	.word	0x00400f51

004006f4 <ili9488_check_box_coordinates>:
 * \param p_ul_x2 X coordinate of lower-right corner on LCD.
 * \param p_ul_y2 Y coordinate of lower-right corner on LCD.
 */
static void ili9488_check_box_coordinates(uint32_t *p_ul_x1, uint32_t *p_ul_y1,
		uint32_t *p_ul_x2, uint32_t *p_ul_y2)
{
  4006f4:	b430      	push	{r4, r5}
	uint32_t dw;

	if (*p_ul_x1 >= ILI9488_LCD_WIDTH) {
  4006f6:	6804      	ldr	r4, [r0, #0]
  4006f8:	f5b4 7fa0 	cmp.w	r4, #320	; 0x140
  4006fc:	d302      	bcc.n	400704 <ili9488_check_box_coordinates+0x10>
		*p_ul_x1 = ILI9488_LCD_WIDTH - 1;
  4006fe:	f240 143f 	movw	r4, #319	; 0x13f
  400702:	6004      	str	r4, [r0, #0]
	}

	if (*p_ul_x2 >= ILI9488_LCD_WIDTH) {
  400704:	6814      	ldr	r4, [r2, #0]
  400706:	f5b4 7fa0 	cmp.w	r4, #320	; 0x140
  40070a:	d302      	bcc.n	400712 <ili9488_check_box_coordinates+0x1e>
		*p_ul_x2 = ILI9488_LCD_WIDTH - 1;
  40070c:	f240 143f 	movw	r4, #319	; 0x13f
  400710:	6014      	str	r4, [r2, #0]
	}

	if (*p_ul_y1 >= ILI9488_LCD_HEIGHT) {
  400712:	680c      	ldr	r4, [r1, #0]
  400714:	f5b4 7ff0 	cmp.w	r4, #480	; 0x1e0
  400718:	d302      	bcc.n	400720 <ili9488_check_box_coordinates+0x2c>
		*p_ul_y1 = ILI9488_LCD_HEIGHT - 1;
  40071a:	f240 14df 	movw	r4, #479	; 0x1df
  40071e:	600c      	str	r4, [r1, #0]
	}

	if (*p_ul_y2 >= ILI9488_LCD_HEIGHT) {
  400720:	681c      	ldr	r4, [r3, #0]
  400722:	f5b4 7ff0 	cmp.w	r4, #480	; 0x1e0
  400726:	d302      	bcc.n	40072e <ili9488_check_box_coordinates+0x3a>
		*p_ul_y2 = ILI9488_LCD_HEIGHT - 1;
  400728:	f240 14df 	movw	r4, #479	; 0x1df
  40072c:	601c      	str	r4, [r3, #0]
	}

	if (*p_ul_x1 > *p_ul_x2) {
  40072e:	6804      	ldr	r4, [r0, #0]
  400730:	6815      	ldr	r5, [r2, #0]
  400732:	42ac      	cmp	r4, r5
  400734:	d901      	bls.n	40073a <ili9488_check_box_coordinates+0x46>
		dw = *p_ul_x1;
		*p_ul_x1 = *p_ul_x2;
  400736:	6005      	str	r5, [r0, #0]
		*p_ul_x2 = dw;
  400738:	6014      	str	r4, [r2, #0]
	}

	if (*p_ul_y1 > *p_ul_y2) {
  40073a:	680a      	ldr	r2, [r1, #0]
  40073c:	6818      	ldr	r0, [r3, #0]
  40073e:	4282      	cmp	r2, r0
  400740:	d901      	bls.n	400746 <ili9488_check_box_coordinates+0x52>
		dw = *p_ul_y1;
		*p_ul_y1 = *p_ul_y2;
  400742:	6008      	str	r0, [r1, #0]
		*p_ul_y2 = dw;
  400744:	601a      	str	r2, [r3, #0]
	}
}
  400746:	bc30      	pop	{r4, r5}
  400748:	4770      	bx	lr
	...

0040074c <ili9488_write_ram_prepare>:
{
  40074c:	b510      	push	{r4, lr}
  40074e:	b082      	sub	sp, #8
	pio_set_pin_low(LCD_SPI_CDS_PIO);
  400750:	2006      	movs	r0, #6
  400752:	4b0a      	ldr	r3, [pc, #40]	; (40077c <ili9488_write_ram_prepare+0x30>)
  400754:	4798      	blx	r3
	spi_write(BOARD_ILI9488_SPI, ILI9488_CMD_MEMORY_WRITE, BOARD_ILI9488_SPI_NPCS, 0);
  400756:	2300      	movs	r3, #0
  400758:	2203      	movs	r2, #3
  40075a:	212c      	movs	r1, #44	; 0x2c
  40075c:	4808      	ldr	r0, [pc, #32]	; (400780 <ili9488_write_ram_prepare+0x34>)
  40075e:	4c09      	ldr	r4, [pc, #36]	; (400784 <ili9488_write_ram_prepare+0x38>)
  400760:	47a0      	blx	r4
	for(i = 0; i < 0xFF; i++);
  400762:	2300      	movs	r3, #0
  400764:	9301      	str	r3, [sp, #4]
  400766:	9b01      	ldr	r3, [sp, #4]
  400768:	2bfe      	cmp	r3, #254	; 0xfe
  40076a:	d805      	bhi.n	400778 <ili9488_write_ram_prepare+0x2c>
  40076c:	9b01      	ldr	r3, [sp, #4]
  40076e:	3301      	adds	r3, #1
  400770:	9301      	str	r3, [sp, #4]
  400772:	9b01      	ldr	r3, [sp, #4]
  400774:	2bfe      	cmp	r3, #254	; 0xfe
  400776:	d9f9      	bls.n	40076c <ili9488_write_ram_prepare+0x20>
}
  400778:	b002      	add	sp, #8
  40077a:	bd10      	pop	{r4, pc}
  40077c:	00400f6d 	.word	0x00400f6d
  400780:	40008000 	.word	0x40008000
  400784:	004013a5 	.word	0x004013a5

00400788 <ili9488_write_register>:
{
  400788:	b570      	push	{r4, r5, r6, lr}
  40078a:	b082      	sub	sp, #8
  40078c:	4605      	mov	r5, r0
  40078e:	460e      	mov	r6, r1
  400790:	4614      	mov	r4, r2
	pio_set_pin_low(LCD_SPI_CDS_PIO);
  400792:	2006      	movs	r0, #6
  400794:	4b14      	ldr	r3, [pc, #80]	; (4007e8 <ili9488_write_register+0x60>)
  400796:	4798      	blx	r3
	spi_write(BOARD_ILI9488_SPI, uc_reg, BOARD_ILI9488_SPI_NPCS, 0);
  400798:	2300      	movs	r3, #0
  40079a:	2203      	movs	r2, #3
  40079c:	4629      	mov	r1, r5
  40079e:	4813      	ldr	r0, [pc, #76]	; (4007ec <ili9488_write_register+0x64>)
  4007a0:	4d13      	ldr	r5, [pc, #76]	; (4007f0 <ili9488_write_register+0x68>)
  4007a2:	47a8      	blx	r5
	for(i = 0; i < 0xFF; i++);
  4007a4:	2300      	movs	r3, #0
  4007a6:	9301      	str	r3, [sp, #4]
  4007a8:	9b01      	ldr	r3, [sp, #4]
  4007aa:	2bfe      	cmp	r3, #254	; 0xfe
  4007ac:	d805      	bhi.n	4007ba <ili9488_write_register+0x32>
  4007ae:	9b01      	ldr	r3, [sp, #4]
  4007b0:	3301      	adds	r3, #1
  4007b2:	9301      	str	r3, [sp, #4]
  4007b4:	9b01      	ldr	r3, [sp, #4]
  4007b6:	2bfe      	cmp	r3, #254	; 0xfe
  4007b8:	d9f9      	bls.n	4007ae <ili9488_write_register+0x26>
	if(size > 0) {
  4007ba:	b90c      	cbnz	r4, 4007c0 <ili9488_write_register+0x38>
}
  4007bc:	b002      	add	sp, #8
  4007be:	bd70      	pop	{r4, r5, r6, pc}
		pio_set_pin_high(LCD_SPI_CDS_PIO);
  4007c0:	2006      	movs	r0, #6
  4007c2:	4b0c      	ldr	r3, [pc, #48]	; (4007f4 <ili9488_write_register+0x6c>)
  4007c4:	4798      	blx	r3
		spi_write_packet(BOARD_ILI9488_SPI, us_data, size);
  4007c6:	4622      	mov	r2, r4
  4007c8:	4631      	mov	r1, r6
  4007ca:	4808      	ldr	r0, [pc, #32]	; (4007ec <ili9488_write_register+0x64>)
  4007cc:	4b0a      	ldr	r3, [pc, #40]	; (4007f8 <ili9488_write_register+0x70>)
  4007ce:	4798      	blx	r3
		for(i = 0; i < 0x5F; i++);
  4007d0:	2300      	movs	r3, #0
  4007d2:	9301      	str	r3, [sp, #4]
  4007d4:	9b01      	ldr	r3, [sp, #4]
  4007d6:	2b5e      	cmp	r3, #94	; 0x5e
  4007d8:	d8f0      	bhi.n	4007bc <ili9488_write_register+0x34>
  4007da:	9b01      	ldr	r3, [sp, #4]
  4007dc:	3301      	adds	r3, #1
  4007de:	9301      	str	r3, [sp, #4]
  4007e0:	9b01      	ldr	r3, [sp, #4]
  4007e2:	2b5e      	cmp	r3, #94	; 0x5e
  4007e4:	d9f9      	bls.n	4007da <ili9488_write_register+0x52>
  4007e6:	e7e9      	b.n	4007bc <ili9488_write_register+0x34>
  4007e8:	00400f6d 	.word	0x00400f6d
  4007ec:	40008000 	.word	0x40008000
  4007f0:	004013a5 	.word	0x004013a5
  4007f4:	00400f51 	.word	0x00400f51
  4007f8:	00400321 	.word	0x00400321

004007fc <ili9488_write_ram_buffer>:
{
  4007fc:	b530      	push	{r4, r5, lr}
  4007fe:	b083      	sub	sp, #12
  400800:	4604      	mov	r4, r0
  400802:	460d      	mov	r5, r1
	pio_set_pin_high(LCD_SPI_CDS_PIO);
  400804:	2006      	movs	r0, #6
  400806:	4b0a      	ldr	r3, [pc, #40]	; (400830 <ili9488_write_ram_buffer+0x34>)
  400808:	4798      	blx	r3
	spi_write_packet(BOARD_ILI9488_SPI, p_ul_buf, ul_size);
  40080a:	462a      	mov	r2, r5
  40080c:	4621      	mov	r1, r4
  40080e:	4809      	ldr	r0, [pc, #36]	; (400834 <ili9488_write_ram_buffer+0x38>)
  400810:	4b09      	ldr	r3, [pc, #36]	; (400838 <ili9488_write_ram_buffer+0x3c>)
  400812:	4798      	blx	r3
	for(i = 0; i < 0xFF; i++);
  400814:	2300      	movs	r3, #0
  400816:	9301      	str	r3, [sp, #4]
  400818:	9b01      	ldr	r3, [sp, #4]
  40081a:	2bfe      	cmp	r3, #254	; 0xfe
  40081c:	d805      	bhi.n	40082a <ili9488_write_ram_buffer+0x2e>
  40081e:	9b01      	ldr	r3, [sp, #4]
  400820:	3301      	adds	r3, #1
  400822:	9301      	str	r3, [sp, #4]
  400824:	9b01      	ldr	r3, [sp, #4]
  400826:	2bfe      	cmp	r3, #254	; 0xfe
  400828:	d9f9      	bls.n	40081e <ili9488_write_ram_buffer+0x22>
}
  40082a:	b003      	add	sp, #12
  40082c:	bd30      	pop	{r4, r5, pc}
  40082e:	bf00      	nop
  400830:	00400f51 	.word	0x00400f51
  400834:	40008000 	.word	0x40008000
  400838:	00400321 	.word	0x00400321

0040083c <ili9488_delay>:
	for(i = 0; i < ul_ms; i++) {
  40083c:	4601      	mov	r1, r0
  40083e:	b130      	cbz	r0, 40084e <ili9488_delay+0x12>
  400840:	4a03      	ldr	r2, [pc, #12]	; (400850 <ili9488_delay+0x14>)
{
  400842:	4b04      	ldr	r3, [pc, #16]	; (400854 <ili9488_delay+0x18>)
		for(i = 0; i < 100000; i++) {
  400844:	3b01      	subs	r3, #1
  400846:	d1fd      	bne.n	400844 <ili9488_delay+0x8>
	for(i = 0; i < ul_ms; i++) {
  400848:	4291      	cmp	r1, r2
  40084a:	d8fa      	bhi.n	400842 <ili9488_delay+0x6>
  40084c:	4770      	bx	lr
  40084e:	4770      	bx	lr
  400850:	000186a1 	.word	0x000186a1
  400854:	000186a0 	.word	0x000186a0

00400858 <ili9488_set_display_direction>:
 * \brief ILI9488 configure landscape.
 *
 * \Param LandscaprMode Landscape Mode.
 */
void ili9488_set_display_direction(enum ili9488_display_direction direction )
{
  400858:	b500      	push	{lr}
  40085a:	b083      	sub	sp, #12
	ili9488_color_t value;
	if(direction) {
  40085c:	b958      	cbnz	r0, 400876 <ili9488_set_display_direction+0x1e>
		value = 0xE8;
	} else {
		value = 0x48;
  40085e:	2348      	movs	r3, #72	; 0x48
  400860:	f88d 3007 	strb.w	r3, [sp, #7]
	}
	ili9488_write_register(ILI9488_CMD_MEMORY_ACCESS_CONTROL, &value, 1);
  400864:	2201      	movs	r2, #1
  400866:	f10d 0107 	add.w	r1, sp, #7
  40086a:	2036      	movs	r0, #54	; 0x36
  40086c:	4b04      	ldr	r3, [pc, #16]	; (400880 <ili9488_set_display_direction+0x28>)
  40086e:	4798      	blx	r3
}
  400870:	b003      	add	sp, #12
  400872:	f85d fb04 	ldr.w	pc, [sp], #4
		value = 0xE8;
  400876:	23e8      	movs	r3, #232	; 0xe8
  400878:	f88d 3007 	strb.w	r3, [sp, #7]
  40087c:	e7f2      	b.n	400864 <ili9488_set_display_direction+0xc>
  40087e:	bf00      	nop
  400880:	00400789 	.word	0x00400789

00400884 <ili9488_set_window>:
 * \Param y start position.
 * \Param width  Width of window.
 * \Param height Height of window.
 */
void ili9488_set_window(uint16_t x, uint16_t y, uint16_t width, uint16_t height )
{
  400884:	b510      	push	{r4, lr}
  400886:	b084      	sub	sp, #16
	uint32_t cnt = 0;
	ili9488_color_t buf[4];

	cnt = sizeof(buf)/sizeof(ili9488_color_t);

	col_start  =  x ;
  400888:	f8ad 000e 	strh.w	r0, [sp, #14]
	col_end    =  width + x - 1;
  40088c:	3a01      	subs	r2, #1
  40088e:	4402      	add	r2, r0
  400890:	f8ad 200c 	strh.w	r2, [sp, #12]

	row_start = y ;
  400894:	f8ad 100a 	strh.w	r1, [sp, #10]
	row_end   = height + y - 1;
  400898:	3b01      	subs	r3, #1
  40089a:	4419      	add	r1, r3
  40089c:	f8ad 1008 	strh.w	r1, [sp, #8]

	buf[0] = get_8b_to_16b(col_start);
  4008a0:	0a03      	lsrs	r3, r0, #8
  4008a2:	f88d 3004 	strb.w	r3, [sp, #4]
	buf[1] = get_0b_to_8b(col_start);
  4008a6:	f88d 0005 	strb.w	r0, [sp, #5]
	buf[2] = get_8b_to_16b(col_end);
  4008aa:	f3c2 2307 	ubfx	r3, r2, #8, #8
  4008ae:	f88d 3006 	strb.w	r3, [sp, #6]
	buf[3] = get_0b_to_8b(col_end);
  4008b2:	f88d 2007 	strb.w	r2, [sp, #7]
	ili9488_write_register(ILI9488_CMD_COLUMN_ADDRESS_SET, buf, cnt);
  4008b6:	2204      	movs	r2, #4
  4008b8:	eb0d 0102 	add.w	r1, sp, r2
  4008bc:	202a      	movs	r0, #42	; 0x2a
  4008be:	4c10      	ldr	r4, [pc, #64]	; (400900 <ili9488_set_window+0x7c>)
  4008c0:	47a0      	blx	r4
	ili9488_write_register(ILI9488_CMD_NOP, 0, 0);
  4008c2:	2200      	movs	r2, #0
  4008c4:	4611      	mov	r1, r2
  4008c6:	4610      	mov	r0, r2
  4008c8:	47a0      	blx	r4

	/* Set Horizontal Address End Position */
	buf[0] = get_8b_to_16b(row_start);
  4008ca:	f89d 300b 	ldrb.w	r3, [sp, #11]
  4008ce:	f88d 3004 	strb.w	r3, [sp, #4]
	buf[1] = get_0b_to_8b(row_start);
  4008d2:	f89d 300a 	ldrb.w	r3, [sp, #10]
  4008d6:	f88d 3005 	strb.w	r3, [sp, #5]
	buf[2] = get_8b_to_16b(row_end);
  4008da:	f89d 3009 	ldrb.w	r3, [sp, #9]
  4008de:	f88d 3006 	strb.w	r3, [sp, #6]
	buf[3] = get_0b_to_8b(row_end);
  4008e2:	f89d 3008 	ldrb.w	r3, [sp, #8]
  4008e6:	f88d 3007 	strb.w	r3, [sp, #7]
	ili9488_write_register(ILI9488_CMD_PAGE_ADDRESS_SET, buf, cnt);
  4008ea:	2204      	movs	r2, #4
  4008ec:	eb0d 0102 	add.w	r1, sp, r2
  4008f0:	202b      	movs	r0, #43	; 0x2b
  4008f2:	47a0      	blx	r4
	ili9488_write_register(ILI9488_CMD_NOP, 0, 0);
  4008f4:	2200      	movs	r2, #0
  4008f6:	4611      	mov	r1, r2
  4008f8:	4610      	mov	r0, r2
  4008fa:	47a0      	blx	r4
}
  4008fc:	b004      	add	sp, #16
  4008fe:	bd10      	pop	{r4, pc}
  400900:	00400789 	.word	0x00400789

00400904 <ili9488_display_on>:

/**
 * \brief Turn on the LCD.
 */
void ili9488_display_on(void)
{
  400904:	b508      	push	{r3, lr}
	ili9488_write_register(ILI9488_CMD_DISPLAY_ON, 0, 0);
  400906:	2200      	movs	r2, #0
  400908:	4611      	mov	r1, r2
  40090a:	2029      	movs	r0, #41	; 0x29
  40090c:	4b01      	ldr	r3, [pc, #4]	; (400914 <ili9488_display_on+0x10>)
  40090e:	4798      	blx	r3
  400910:	bd08      	pop	{r3, pc}
  400912:	bf00      	nop
  400914:	00400789 	.word	0x00400789

00400918 <ili9488_set_foreground_color>:
 * \brief Set foreground color.
 *
 * \param ul_color foreground color.
 */
void ili9488_set_foreground_color(uint32_t ul_color)
{
  400918:	b410      	push	{r4}
		g_ul_pixel_cache[i] = ul_color;
	}
#endif
#ifdef ILI9488_SPIMODE
	for (i = 0; i < LCD_DATA_CACHE_SIZE * LCD_DATA_COLOR_UNIT; ) {
		g_ul_pixel_cache[i++] = ul_color>>16;
  40091a:	f3c0 4407 	ubfx	r4, r0, #16, #8
		g_ul_pixel_cache[i++] = ul_color>>8;
  40091e:	f3c0 2107 	ubfx	r1, r0, #8, #8
  400922:	4b06      	ldr	r3, [pc, #24]	; (40093c <ili9488_set_foreground_color+0x24>)
  400924:	f503 7270 	add.w	r2, r3, #960	; 0x3c0
		g_ul_pixel_cache[i++] = ul_color>>16;
  400928:	701c      	strb	r4, [r3, #0]
		g_ul_pixel_cache[i++] = ul_color>>8;
  40092a:	7059      	strb	r1, [r3, #1]
		g_ul_pixel_cache[i++] = ul_color&0xFF;
  40092c:	7098      	strb	r0, [r3, #2]
  40092e:	3303      	adds	r3, #3
	for (i = 0; i < LCD_DATA_CACHE_SIZE * LCD_DATA_COLOR_UNIT; ) {
  400930:	4293      	cmp	r3, r2
  400932:	d1f9      	bne.n	400928 <ili9488_set_foreground_color+0x10>
	}
#endif
}
  400934:	f85d 4b04 	ldr.w	r4, [sp], #4
  400938:	4770      	bx	lr
  40093a:	bf00      	nop
  40093c:	204009dc 	.word	0x204009dc

00400940 <ili9488_set_cursor_position>:
 *
 * \param x X coordinate of upper-left corner on LCD.
 * \param y Y coordinate of upper-left corner on LCD.
 */
void ili9488_set_cursor_position(uint16_t x, uint16_t y)
{
  400940:	b510      	push	{r4, lr}
  400942:	b084      	sub	sp, #16
  400944:	f8ad 0006 	strh.w	r0, [sp, #6]
  400948:	f8ad 1004 	strh.w	r1, [sp, #4]
	uint32_t cnt = 0;

	ili9488_color_t buf[4];
	cnt = sizeof(buf)/sizeof(ili9488_color_t);

	buf[0] = get_8b_to_16b(x);
  40094c:	0a03      	lsrs	r3, r0, #8
  40094e:	f88d 300c 	strb.w	r3, [sp, #12]
	buf[1] = get_0b_to_8b(x);
  400952:	b2c0      	uxtb	r0, r0
  400954:	f88d 000d 	strb.w	r0, [sp, #13]
	buf[2] = get_8b_to_16b(x);
  400958:	f88d 300e 	strb.w	r3, [sp, #14]
	buf[3] = get_0b_to_8b(x);
  40095c:	f88d 000f 	strb.w	r0, [sp, #15]
	ili9488_write_register(ILI9488_CMD_COLUMN_ADDRESS_SET, buf, cnt);
  400960:	2204      	movs	r2, #4
  400962:	a903      	add	r1, sp, #12
  400964:	202a      	movs	r0, #42	; 0x2a
  400966:	4c0e      	ldr	r4, [pc, #56]	; (4009a0 <ili9488_set_cursor_position+0x60>)
  400968:	47a0      	blx	r4
	ili9488_write_register(ILI9488_CMD_NOP, 0, 0);
  40096a:	2200      	movs	r2, #0
  40096c:	4611      	mov	r1, r2
  40096e:	4610      	mov	r0, r2
  400970:	47a0      	blx	r4


	/* Set Horizontal Address End Position */
	buf[0] = get_8b_to_16b(y);
  400972:	f89d 2005 	ldrb.w	r2, [sp, #5]
  400976:	f88d 200c 	strb.w	r2, [sp, #12]
	buf[1] = get_0b_to_8b(y);
  40097a:	f89d 3004 	ldrb.w	r3, [sp, #4]
  40097e:	f88d 300d 	strb.w	r3, [sp, #13]
	buf[2] = get_8b_to_16b(y);
  400982:	f88d 200e 	strb.w	r2, [sp, #14]
	buf[3] = get_0b_to_8b(y);
  400986:	f88d 300f 	strb.w	r3, [sp, #15]
	ili9488_write_register(ILI9488_CMD_PAGE_ADDRESS_SET, buf, cnt);
  40098a:	2204      	movs	r2, #4
  40098c:	a903      	add	r1, sp, #12
  40098e:	202b      	movs	r0, #43	; 0x2b
  400990:	47a0      	blx	r4
	ili9488_write_register(ILI9488_CMD_NOP, 0, 0);
  400992:	2200      	movs	r2, #0
  400994:	4611      	mov	r1, r2
  400996:	4610      	mov	r0, r2
  400998:	47a0      	blx	r4
}
  40099a:	b004      	add	sp, #16
  40099c:	bd10      	pop	{r4, pc}
  40099e:	bf00      	nop
  4009a0:	00400789 	.word	0x00400789

004009a4 <ili9488_init>:
{
  4009a4:	e92d 43f0 	stmdb	sp!, {r4, r5, r6, r7, r8, r9, lr}
  4009a8:	b087      	sub	sp, #28
  4009aa:	4681      	mov	r9, r0
	struct spi_device ILI9488_SPI_DEVICE = {
  4009ac:	2703      	movs	r7, #3
  4009ae:	ae06      	add	r6, sp, #24
  4009b0:	f846 7d08 	str.w	r7, [r6, #-8]!
	spi_master_init(BOARD_ILI9488_SPI);
  4009b4:	4d5d      	ldr	r5, [pc, #372]	; (400b2c <ili9488_init+0x188>)
  4009b6:	4628      	mov	r0, r5
  4009b8:	4b5d      	ldr	r3, [pc, #372]	; (400b30 <ili9488_init+0x18c>)
  4009ba:	4798      	blx	r3
	spi_master_setup_device(BOARD_ILI9488_SPI, &ILI9488_SPI_DEVICE, SPI_MODE_3, ILI9488_SPI_BAUDRATE, 0);
  4009bc:	2400      	movs	r4, #0
  4009be:	9400      	str	r4, [sp, #0]
  4009c0:	4b5c      	ldr	r3, [pc, #368]	; (400b34 <ili9488_init+0x190>)
  4009c2:	463a      	mov	r2, r7
  4009c4:	4631      	mov	r1, r6
  4009c6:	4628      	mov	r0, r5
  4009c8:	f8df 8198 	ldr.w	r8, [pc, #408]	; 400b64 <ili9488_init+0x1c0>
  4009cc:	47c0      	blx	r8
	spi_configure_cs_behavior(BOARD_ILI9488_SPI, BOARD_ILI9488_SPI_NPCS, SPI_CS_RISE_NO_TX);
  4009ce:	4622      	mov	r2, r4
  4009d0:	4639      	mov	r1, r7
  4009d2:	4628      	mov	r0, r5
  4009d4:	4b58      	ldr	r3, [pc, #352]	; (400b38 <ili9488_init+0x194>)
  4009d6:	4798      	blx	r3
	spi_select_device(BOARD_ILI9488_SPI, &ILI9488_SPI_DEVICE);
  4009d8:	4631      	mov	r1, r6
  4009da:	4628      	mov	r0, r5
  4009dc:	4b57      	ldr	r3, [pc, #348]	; (400b3c <ili9488_init+0x198>)
  4009de:	4798      	blx	r3
	p_spi->SPI_CR = SPI_CR_SPIEN;
  4009e0:	2001      	movs	r0, #1
  4009e2:	6028      	str	r0, [r5, #0]
 * \param p_spi Pointer to an SPI instance.
 * \param ul_sources Interrupts to be enabled.
 */
static inline void spi_enable_interrupt(Spi *p_spi, uint32_t ul_sources)
{
	p_spi->SPI_IER = ul_sources;
  4009e4:	6168      	str	r0, [r5, #20]
	ili9488_write_register(ILI9488_CMD_SOFTWARE_RESET, 0x0000, 0);
  4009e6:	4622      	mov	r2, r4
  4009e8:	4621      	mov	r1, r4
  4009ea:	4e55      	ldr	r6, [pc, #340]	; (400b40 <ili9488_init+0x19c>)
  4009ec:	47b0      	blx	r6
	ili9488_delay(200);
  4009ee:	20c8      	movs	r0, #200	; 0xc8
  4009f0:	4d54      	ldr	r5, [pc, #336]	; (400b44 <ili9488_init+0x1a0>)
  4009f2:	47a8      	blx	r5
	ili9488_write_register(ILI9488_CMD_SLEEP_OUT, 0x0000, 0);
  4009f4:	4622      	mov	r2, r4
  4009f6:	4621      	mov	r1, r4
  4009f8:	2011      	movs	r0, #17
  4009fa:	47b0      	blx	r6
	ili9488_delay(200);
  4009fc:	20c8      	movs	r0, #200	; 0xc8
  4009fe:	47a8      	blx	r5
	reg = 0x81;
  400a00:	2381      	movs	r3, #129	; 0x81
  400a02:	f88d 300a 	strb.w	r3, [sp, #10]
	param = 0x0;
  400a06:	f88d 400b 	strb.w	r4, [sp, #11]
  400a0a:	2610      	movs	r6, #16
		ili9488_write_register(ILI9488_CMD_SPI_READ_SETTINGS, &reg, 1);
  400a0c:	f04f 0801 	mov.w	r8, #1
  400a10:	4f4b      	ldr	r7, [pc, #300]	; (400b40 <ili9488_init+0x19c>)
		for(j = 0; j < 0xFF; j++);
  400a12:	4625      	mov	r5, r4
		ili9488_write_register(ILI9488_CMD_SPI_READ_SETTINGS, &reg, 1);
  400a14:	4642      	mov	r2, r8
  400a16:	f10d 010a 	add.w	r1, sp, #10
  400a1a:	20fb      	movs	r0, #251	; 0xfb
  400a1c:	47b8      	blx	r7
		reg++;
  400a1e:	f89d 300a 	ldrb.w	r3, [sp, #10]
  400a22:	3301      	adds	r3, #1
  400a24:	f88d 300a 	strb.w	r3, [sp, #10]
		for(j = 0; j < 0xFF; j++);
  400a28:	9503      	str	r5, [sp, #12]
  400a2a:	9b03      	ldr	r3, [sp, #12]
  400a2c:	2bfe      	cmp	r3, #254	; 0xfe
  400a2e:	d805      	bhi.n	400a3c <ili9488_init+0x98>
  400a30:	9b03      	ldr	r3, [sp, #12]
  400a32:	3301      	adds	r3, #1
  400a34:	9303      	str	r3, [sp, #12]
  400a36:	9b03      	ldr	r3, [sp, #12]
  400a38:	2bfe      	cmp	r3, #254	; 0xfe
  400a3a:	d9f9      	bls.n	400a30 <ili9488_init+0x8c>
		ili9488_write_register(ILI9488_CMD_READ_ID4, 0, 0);
  400a3c:	462a      	mov	r2, r5
  400a3e:	4629      	mov	r1, r5
  400a40:	20d3      	movs	r0, #211	; 0xd3
  400a42:	47b8      	blx	r7
			pio_set_pin_high(LCD_SPI_CDS_PIO);
  400a44:	2006      	movs	r0, #6
  400a46:	4b40      	ldr	r3, [pc, #256]	; (400b48 <ili9488_init+0x1a4>)
  400a48:	4798      	blx	r3
			spi_read_packet(BOARD_ILI9488_SPI, &chipidBuf, 1);
  400a4a:	4642      	mov	r2, r8
  400a4c:	f10d 0109 	add.w	r1, sp, #9
  400a50:	4836      	ldr	r0, [pc, #216]	; (400b2c <ili9488_init+0x188>)
  400a52:	4b3e      	ldr	r3, [pc, #248]	; (400b4c <ili9488_init+0x1a8>)
  400a54:	4798      	blx	r3
			for(j = 0; j < 0xFF; j++);
  400a56:	9503      	str	r5, [sp, #12]
  400a58:	9b03      	ldr	r3, [sp, #12]
  400a5a:	2bfe      	cmp	r3, #254	; 0xfe
  400a5c:	d805      	bhi.n	400a6a <ili9488_init+0xc6>
  400a5e:	9b03      	ldr	r3, [sp, #12]
  400a60:	3301      	adds	r3, #1
  400a62:	9303      	str	r3, [sp, #12]
  400a64:	9b03      	ldr	r3, [sp, #12]
  400a66:	2bfe      	cmp	r3, #254	; 0xfe
  400a68:	d9f9      	bls.n	400a5e <ili9488_init+0xba>
		chipid |= (chipidBuf & 0xFF) << ((i - 1) << 3);
  400a6a:	f89d 3009 	ldrb.w	r3, [sp, #9]
  400a6e:	40b3      	lsls	r3, r6
  400a70:	431c      	orrs	r4, r3
		ili9488_write_register(ILI9488_CMD_SPI_READ_SETTINGS, &param, 1);
  400a72:	4642      	mov	r2, r8
  400a74:	f10d 010b 	add.w	r1, sp, #11
  400a78:	20fb      	movs	r0, #251	; 0xfb
  400a7a:	47b8      	blx	r7
		for(j = 0; j < 0xFFF; j++);
  400a7c:	9503      	str	r5, [sp, #12]
  400a7e:	9a03      	ldr	r2, [sp, #12]
  400a80:	f640 73fe 	movw	r3, #4094	; 0xffe
  400a84:	429a      	cmp	r2, r3
  400a86:	d806      	bhi.n	400a96 <ili9488_init+0xf2>
  400a88:	461a      	mov	r2, r3
  400a8a:	9b03      	ldr	r3, [sp, #12]
  400a8c:	3301      	adds	r3, #1
  400a8e:	9303      	str	r3, [sp, #12]
  400a90:	9b03      	ldr	r3, [sp, #12]
  400a92:	4293      	cmp	r3, r2
  400a94:	d9f9      	bls.n	400a8a <ili9488_init+0xe6>
  400a96:	3e08      	subs	r6, #8
	for (i = 3; i > 0; i--) {
  400a98:	f116 0f08 	cmn.w	r6, #8
  400a9c:	d1ba      	bne.n	400a14 <ili9488_init+0x70>
	if (chipid != ILI9488_DEVICE_CODE) {
  400a9e:	f249 4388 	movw	r3, #38024	; 0x9488
  400aa2:	429c      	cmp	r4, r3
  400aa4:	d003      	beq.n	400aae <ili9488_init+0x10a>
		return 1;
  400aa6:	2001      	movs	r0, #1
}
  400aa8:	b007      	add	sp, #28
  400aaa:	e8bd 83f0 	ldmia.w	sp!, {r4, r5, r6, r7, r8, r9, pc}
	param = 0x48;
  400aae:	ad06      	add	r5, sp, #24
  400ab0:	2348      	movs	r3, #72	; 0x48
  400ab2:	f805 3d01 	strb.w	r3, [r5, #-1]!
	ili9488_write_register(ILI9488_CMD_MEMORY_ACCESS_CONTROL, &param, 1);
  400ab6:	2201      	movs	r2, #1
  400ab8:	4629      	mov	r1, r5
  400aba:	2036      	movs	r0, #54	; 0x36
  400abc:	4e20      	ldr	r6, [pc, #128]	; (400b40 <ili9488_init+0x19c>)
  400abe:	47b0      	blx	r6
	ili9488_delay(100);
  400ac0:	2064      	movs	r0, #100	; 0x64
  400ac2:	4c20      	ldr	r4, [pc, #128]	; (400b44 <ili9488_init+0x1a0>)
  400ac4:	47a0      	blx	r4
	param = 0x04;
  400ac6:	2304      	movs	r3, #4
  400ac8:	f88d 3017 	strb.w	r3, [sp, #23]
	ili9488_write_register(ILI9488_CMD_CABC_CONTROL_9, &param, 1);
  400acc:	2201      	movs	r2, #1
  400ace:	4629      	mov	r1, r5
  400ad0:	20cf      	movs	r0, #207	; 0xcf
  400ad2:	47b0      	blx	r6
	ili9488_delay(100);
  400ad4:	2064      	movs	r0, #100	; 0x64
  400ad6:	47a0      	blx	r4
	param = 0x06;
  400ad8:	2306      	movs	r3, #6
  400ada:	f88d 3017 	strb.w	r3, [sp, #23]
	ili9488_write_register(ILI9488_CMD_COLMOD_PIXEL_FORMAT_SET, &param, 1);
  400ade:	2201      	movs	r2, #1
  400ae0:	4629      	mov	r1, r5
  400ae2:	203a      	movs	r0, #58	; 0x3a
  400ae4:	47b0      	blx	r6
	ili9488_delay(100);
  400ae6:	2064      	movs	r0, #100	; 0x64
  400ae8:	47a0      	blx	r4
	ili9488_write_register(ILI9488_CMD_NORMAL_DISP_MODE_ON, 0, 0);
  400aea:	2200      	movs	r2, #0
  400aec:	4611      	mov	r1, r2
  400aee:	2013      	movs	r0, #19
  400af0:	47b0      	blx	r6
	ili9488_delay(100);
  400af2:	2064      	movs	r0, #100	; 0x64
  400af4:	47a0      	blx	r4
	ili9488_display_on();
  400af6:	4b16      	ldr	r3, [pc, #88]	; (400b50 <ili9488_init+0x1ac>)
  400af8:	4798      	blx	r3
	ili9488_delay(100);
  400afa:	2064      	movs	r0, #100	; 0x64
  400afc:	47a0      	blx	r4
	ili9488_set_display_direction(LANDSCAPE);
  400afe:	2000      	movs	r0, #0
  400b00:	4b14      	ldr	r3, [pc, #80]	; (400b54 <ili9488_init+0x1b0>)
  400b02:	4798      	blx	r3
	ili9488_delay(100);
  400b04:	2064      	movs	r0, #100	; 0x64
  400b06:	47a0      	blx	r4
	ili9488_set_window(0, 0,p_opt->ul_width,p_opt->ul_height);
  400b08:	f8b9 3004 	ldrh.w	r3, [r9, #4]
  400b0c:	f8b9 2000 	ldrh.w	r2, [r9]
  400b10:	2100      	movs	r1, #0
  400b12:	4608      	mov	r0, r1
  400b14:	4c10      	ldr	r4, [pc, #64]	; (400b58 <ili9488_init+0x1b4>)
  400b16:	47a0      	blx	r4
	ili9488_set_foreground_color(p_opt->foreground_color);
  400b18:	f8d9 0008 	ldr.w	r0, [r9, #8]
  400b1c:	4b0f      	ldr	r3, [pc, #60]	; (400b5c <ili9488_init+0x1b8>)
  400b1e:	4798      	blx	r3
	ili9488_set_cursor_position(0, 0);
  400b20:	2100      	movs	r1, #0
  400b22:	4608      	mov	r0, r1
  400b24:	4b0e      	ldr	r3, [pc, #56]	; (400b60 <ili9488_init+0x1bc>)
  400b26:	4798      	blx	r3
	return 0;
  400b28:	2000      	movs	r0, #0
  400b2a:	e7bd      	b.n	400aa8 <ili9488_init+0x104>
  400b2c:	40008000 	.word	0x40008000
  400b30:	0040021d 	.word	0x0040021d
  400b34:	01312d00 	.word	0x01312d00
  400b38:	00401415 	.word	0x00401415
  400b3c:	004002f1 	.word	0x004002f1
  400b40:	00400789 	.word	0x00400789
  400b44:	0040083d 	.word	0x0040083d
  400b48:	00400f51 	.word	0x00400f51
  400b4c:	00400357 	.word	0x00400357
  400b50:	00400905 	.word	0x00400905
  400b54:	00400859 	.word	0x00400859
  400b58:	00400885 	.word	0x00400885
  400b5c:	00400919 	.word	0x00400919
  400b60:	00400941 	.word	0x00400941
  400b64:	00400271 	.word	0x00400271

00400b68 <ili9488_draw_pixel>:
 *
 * \return 0 if succeeds, otherwise fails.
 */
uint32_t ili9488_draw_pixel(uint32_t ul_x, uint32_t ul_y)
{
	if ((ul_x >= ILI9488_LCD_WIDTH) || (ul_y >= ILI9488_LCD_HEIGHT)) {
  400b68:	f5b0 7fa0 	cmp.w	r0, #320	; 0x140
  400b6c:	d20f      	bcs.n	400b8e <ili9488_draw_pixel+0x26>
  400b6e:	f5b1 7ff0 	cmp.w	r1, #480	; 0x1e0
  400b72:	d20c      	bcs.n	400b8e <ili9488_draw_pixel+0x26>
{
  400b74:	b508      	push	{r3, lr}
		return 1;
	}

	/* Set cursor */
	ili9488_set_cursor_position(ul_x, ul_y);
  400b76:	b289      	uxth	r1, r1
  400b78:	b280      	uxth	r0, r0
  400b7a:	4b06      	ldr	r3, [pc, #24]	; (400b94 <ili9488_draw_pixel+0x2c>)
  400b7c:	4798      	blx	r3

	/* Prepare to write in GRAM */
	ili9488_write_ram_prepare();
  400b7e:	4b06      	ldr	r3, [pc, #24]	; (400b98 <ili9488_draw_pixel+0x30>)
  400b80:	4798      	blx	r3
	ili9488_write_ram_buffer(g_ul_pixel_cache, LCD_DATA_COLOR_UNIT);
  400b82:	2103      	movs	r1, #3
  400b84:	4805      	ldr	r0, [pc, #20]	; (400b9c <ili9488_draw_pixel+0x34>)
  400b86:	4b06      	ldr	r3, [pc, #24]	; (400ba0 <ili9488_draw_pixel+0x38>)
  400b88:	4798      	blx	r3
	return 0;
  400b8a:	2000      	movs	r0, #0
  400b8c:	bd08      	pop	{r3, pc}
		return 1;
  400b8e:	2001      	movs	r0, #1
  400b90:	4770      	bx	lr
  400b92:	bf00      	nop
  400b94:	00400941 	.word	0x00400941
  400b98:	0040074d 	.word	0x0040074d
  400b9c:	204009dc 	.word	0x204009dc
  400ba0:	004007fd 	.word	0x004007fd

00400ba4 <ili9488_draw_filled_rectangle>:
 * \param ul_x2 X coordinate of lower-right corner on LCD.
 * \param ul_y2 Y coordinate of lower-right corner on LCD.
 */
void ili9488_draw_filled_rectangle(uint32_t ul_x1, uint32_t ul_y1,
		uint32_t ul_x2, uint32_t ul_y2)
{
  400ba4:	e92d 41f0 	stmdb	sp!, {r4, r5, r6, r7, r8, lr}
  400ba8:	b084      	sub	sp, #16
  400baa:	9003      	str	r0, [sp, #12]
  400bac:	9102      	str	r1, [sp, #8]
  400bae:	9201      	str	r2, [sp, #4]
  400bb0:	aa04      	add	r2, sp, #16
  400bb2:	f842 3d10 	str.w	r3, [r2, #-16]!
	uint32_t size, blocks;

	/* Swap coordinates if necessary */
	ili9488_check_box_coordinates(&ul_x1, &ul_y1, &ul_x2, &ul_y2);
  400bb6:	4613      	mov	r3, r2
  400bb8:	aa01      	add	r2, sp, #4
  400bba:	a902      	add	r1, sp, #8
  400bbc:	a803      	add	r0, sp, #12
  400bbe:	4c22      	ldr	r4, [pc, #136]	; (400c48 <ili9488_draw_filled_rectangle+0xa4>)
  400bc0:	47a0      	blx	r4

	/* Determine the refresh window area */
	ili9488_set_window(ul_x1, ul_y1, (ul_x2 - ul_x1) + 1, (ul_y2 - ul_y1) + 1);
  400bc2:	f8bd 000c 	ldrh.w	r0, [sp, #12]
  400bc6:	f8bd 1008 	ldrh.w	r1, [sp, #8]
  400bca:	9b00      	ldr	r3, [sp, #0]
  400bcc:	3301      	adds	r3, #1
  400bce:	1a5b      	subs	r3, r3, r1
  400bd0:	9a01      	ldr	r2, [sp, #4]
  400bd2:	3201      	adds	r2, #1
  400bd4:	1a12      	subs	r2, r2, r0
  400bd6:	b29b      	uxth	r3, r3
  400bd8:	b292      	uxth	r2, r2
  400bda:	4c1c      	ldr	r4, [pc, #112]	; (400c4c <ili9488_draw_filled_rectangle+0xa8>)
  400bdc:	47a0      	blx	r4

	/* Prepare to write in GRAM */
	ili9488_write_ram_prepare();
  400bde:	4b1c      	ldr	r3, [pc, #112]	; (400c50 <ili9488_draw_filled_rectangle+0xac>)
  400be0:	4798      	blx	r3

	size = (ul_x2 - ul_x1 + 1) * (ul_y2 - ul_y1 + 1);
  400be2:	9903      	ldr	r1, [sp, #12]
  400be4:	9d01      	ldr	r5, [sp, #4]
  400be6:	1a69      	subs	r1, r5, r1
  400be8:	9d00      	ldr	r5, [sp, #0]
  400bea:	3501      	adds	r5, #1
  400bec:	9b02      	ldr	r3, [sp, #8]
  400bee:	1aed      	subs	r5, r5, r3
  400bf0:	fb01 5505 	mla	r5, r1, r5, r5
	/* Send pixels blocks => one SPI IT / block */
	blocks = size / LCD_DATA_CACHE_SIZE;
  400bf4:	4b17      	ldr	r3, [pc, #92]	; (400c54 <ili9488_draw_filled_rectangle+0xb0>)
  400bf6:	fba3 2305 	umull	r2, r3, r3, r5
  400bfa:	0a1b      	lsrs	r3, r3, #8
	while (blocks--) {
  400bfc:	b163      	cbz	r3, 400c18 <ili9488_draw_filled_rectangle+0x74>
  400bfe:	1e5c      	subs	r4, r3, #1
		ili9488_write_ram_buffer(g_ul_pixel_cache, LCD_DATA_CACHE_SIZE * LCD_DATA_COLOR_UNIT);
  400c00:	f8df 8058 	ldr.w	r8, [pc, #88]	; 400c5c <ili9488_draw_filled_rectangle+0xb8>
  400c04:	f44f 7770 	mov.w	r7, #960	; 0x3c0
  400c08:	4e13      	ldr	r6, [pc, #76]	; (400c58 <ili9488_draw_filled_rectangle+0xb4>)
  400c0a:	4639      	mov	r1, r7
  400c0c:	4640      	mov	r0, r8
  400c0e:	47b0      	blx	r6
	while (blocks--) {
  400c10:	3c01      	subs	r4, #1
  400c12:	f1b4 3fff 	cmp.w	r4, #4294967295
  400c16:	d1f8      	bne.n	400c0a <ili9488_draw_filled_rectangle+0x66>
	}

	/* Send remaining pixels */
	ili9488_write_ram_buffer(g_ul_pixel_cache, (size % LCD_DATA_CACHE_SIZE) * LCD_DATA_COLOR_UNIT);
  400c18:	490e      	ldr	r1, [pc, #56]	; (400c54 <ili9488_draw_filled_rectangle+0xb0>)
  400c1a:	fba1 3105 	umull	r3, r1, r1, r5
  400c1e:	0a09      	lsrs	r1, r1, #8
  400c20:	eb01 0181 	add.w	r1, r1, r1, lsl #2
  400c24:	eba5 1181 	sub.w	r1, r5, r1, lsl #6
  400c28:	eb01 0141 	add.w	r1, r1, r1, lsl #1
  400c2c:	480b      	ldr	r0, [pc, #44]	; (400c5c <ili9488_draw_filled_rectangle+0xb8>)
  400c2e:	4b0a      	ldr	r3, [pc, #40]	; (400c58 <ili9488_draw_filled_rectangle+0xb4>)
  400c30:	4798      	blx	r3

	/* Reset the refresh window area */
	ili9488_set_window(0, 0, ILI9488_LCD_WIDTH, ILI9488_LCD_HEIGHT);
  400c32:	f44f 73f0 	mov.w	r3, #480	; 0x1e0
  400c36:	f44f 72a0 	mov.w	r2, #320	; 0x140
  400c3a:	2100      	movs	r1, #0
  400c3c:	4608      	mov	r0, r1
  400c3e:	4c03      	ldr	r4, [pc, #12]	; (400c4c <ili9488_draw_filled_rectangle+0xa8>)
  400c40:	47a0      	blx	r4

}
  400c42:	b004      	add	sp, #16
  400c44:	e8bd 81f0 	ldmia.w	sp!, {r4, r5, r6, r7, r8, pc}
  400c48:	004006f5 	.word	0x004006f5
  400c4c:	00400885 	.word	0x00400885
  400c50:	0040074d 	.word	0x0040074d
  400c54:	cccccccd 	.word	0xcccccccd
  400c58:	004007fd 	.word	0x004007fd
  400c5c:	204009dc 	.word	0x204009dc

00400c60 <ili9488_draw_string>:
 * \param ul_x X coordinate of string top-left corner.
 * \param ul_y Y coordinate of string top-left corner.
 * \param p_str String to display.
 */
void ili9488_draw_string(uint32_t ul_x, uint32_t ul_y, const uint8_t *p_str)
{
  400c60:	e92d 4ff0 	stmdb	sp!, {r4, r5, r6, r7, r8, r9, sl, fp, lr}
  400c64:	b085      	sub	sp, #20
  400c66:	9003      	str	r0, [sp, #12]
  400c68:	9202      	str	r2, [sp, #8]
	uint32_t xorg = ul_x;

	while (*p_str != 0) {
  400c6a:	7813      	ldrb	r3, [r2, #0]
  400c6c:	2b00      	cmp	r3, #0
  400c6e:	d048      	beq.n	400d02 <ili9488_draw_string+0xa2>
  400c70:	468b      	mov	fp, r1
  400c72:	9001      	str	r0, [sp, #4]
				ili9488_draw_pixel(ul_x + col, ul_y + row);
  400c74:	f8df 8094 	ldr.w	r8, [pc, #148]	; 400d0c <ili9488_draw_string+0xac>
  400c78:	e033      	b.n	400ce2 <ili9488_draw_string+0x82>
		/* If newline, jump to the next line (font height + 2) */
		if (*p_str == '\n') {
			ul_y += gfont.height + 2;
  400c7a:	f10b 0b10 	add.w	fp, fp, #16
			ul_x = xorg;
  400c7e:	9b03      	ldr	r3, [sp, #12]
  400c80:	9301      	str	r3, [sp, #4]
  400c82:	e029      	b.n	400cd8 <ili9488_draw_string+0x78>
  400c84:	3c01      	subs	r4, #1
		for (row = 0; row < 8; row++) {
  400c86:	f1b4 3fff 	cmp.w	r4, #4294967295
  400c8a:	d009      	beq.n	400ca0 <ili9488_draw_string+0x40>
			if ((p_uc_charset10x14[offset0] >> (7 - row)) & 0x1) {
  400c8c:	782b      	ldrb	r3, [r5, #0]
  400c8e:	4123      	asrs	r3, r4
  400c90:	f013 0f01 	tst.w	r3, #1
  400c94:	d0f6      	beq.n	400c84 <ili9488_draw_string+0x24>
				ili9488_draw_pixel(ul_x + col, ul_y + row);
  400c96:	ebaa 0104 	sub.w	r1, sl, r4
  400c9a:	4630      	mov	r0, r6
  400c9c:	47c0      	blx	r8
  400c9e:	e7f1      	b.n	400c84 <ili9488_draw_string+0x24>
		for (row = 0; row < 8; row++) {
  400ca0:	2407      	movs	r4, #7
				ili9488_draw_pixel(ul_x + col, ul_y + row + 8);
  400ca2:	f10b 090f 	add.w	r9, fp, #15
  400ca6:	e002      	b.n	400cae <ili9488_draw_string+0x4e>
  400ca8:	3c01      	subs	r4, #1
		for (row = 0; row < 6; row++) {
  400caa:	2c01      	cmp	r4, #1
  400cac:	d009      	beq.n	400cc2 <ili9488_draw_string+0x62>
			if ((p_uc_charset10x14[offset1] >> (7 - row)) & 0x1) {
  400cae:	787b      	ldrb	r3, [r7, #1]
  400cb0:	4123      	asrs	r3, r4
  400cb2:	f013 0f01 	tst.w	r3, #1
  400cb6:	d0f7      	beq.n	400ca8 <ili9488_draw_string+0x48>
				ili9488_draw_pixel(ul_x + col, ul_y + row + 8);
  400cb8:	eba9 0104 	sub.w	r1, r9, r4
  400cbc:	4630      	mov	r0, r6
  400cbe:	47c0      	blx	r8
  400cc0:	e7f2      	b.n	400ca8 <ili9488_draw_string+0x48>
  400cc2:	3502      	adds	r5, #2
  400cc4:	3601      	adds	r6, #1
	for (col = 0; col < 10; col++) {
  400cc6:	9b00      	ldr	r3, [sp, #0]
  400cc8:	42b3      	cmp	r3, r6
  400cca:	d002      	beq.n	400cd2 <ili9488_draw_string+0x72>
	offset = ((uint32_t)uc_c - 0x20) * 20;
  400ccc:	2407      	movs	r4, #7
  400cce:	462f      	mov	r7, r5
  400cd0:	e7dc      	b.n	400c8c <ili9488_draw_string+0x2c>
		} else {
			/* Draw the character and place cursor right after (font width + 2) */
			ili9488_draw_char(ul_x, ul_y, *p_str);
			ul_x += gfont.width + 2;
  400cd2:	9b01      	ldr	r3, [sp, #4]
  400cd4:	330c      	adds	r3, #12
  400cd6:	9301      	str	r3, [sp, #4]
	while (*p_str != 0) {
  400cd8:	9a02      	ldr	r2, [sp, #8]
  400cda:	f812 3f01 	ldrb.w	r3, [r2, #1]!
  400cde:	9202      	str	r2, [sp, #8]
  400ce0:	b17b      	cbz	r3, 400d02 <ili9488_draw_string+0xa2>
		if (*p_str == '\n') {
  400ce2:	2b0a      	cmp	r3, #10
  400ce4:	d0c9      	beq.n	400c7a <ili9488_draw_string+0x1a>
	offset = ((uint32_t)uc_c - 0x20) * 20;
  400ce6:	eb03 0383 	add.w	r3, r3, r3, lsl #2
  400cea:	4d07      	ldr	r5, [pc, #28]	; (400d08 <ili9488_draw_string+0xa8>)
  400cec:	eb05 0383 	add.w	r3, r5, r3, lsl #2
  400cf0:	f5a3 7520 	sub.w	r5, r3, #640	; 0x280
  400cf4:	9e01      	ldr	r6, [sp, #4]
  400cf6:	4633      	mov	r3, r6
  400cf8:	330a      	adds	r3, #10
  400cfa:	9300      	str	r3, [sp, #0]
				ili9488_draw_pixel(ul_x + col, ul_y + row);
  400cfc:	f10b 0a07 	add.w	sl, fp, #7
  400d00:	e7e4      	b.n	400ccc <ili9488_draw_string+0x6c>
		}
		p_str++;
	}
}
  400d02:	b005      	add	sp, #20
  400d04:	e8bd 8ff0 	ldmia.w	sp!, {r4, r5, r6, r7, r8, r9, sl, fp, pc}
  400d08:	00408320 	.word	0x00408320
  400d0c:	00400b69 	.word	0x00400b69

00400d10 <ili9488_draw_pixmap>:
 * \param ul_height height of the picture.
 * \param p_ul_pixmap pixmap of the image.
 */
void ili9488_draw_pixmap(uint32_t ul_x, uint32_t ul_y, uint32_t ul_width,
		uint32_t ul_height, const ili9488_color_t *p_ul_pixmap)
{
  400d10:	b510      	push	{r4, lr}
  400d12:	b084      	sub	sp, #16
	uint32_t size;
	uint32_t dwX1, dwY1, dwX2, dwY2;
	dwX1 = ul_x;
  400d14:	9003      	str	r0, [sp, #12]
	dwY1 = ul_y;
  400d16:	9102      	str	r1, [sp, #8]
	dwX2 = ul_x + ul_width - 1;
  400d18:	3a01      	subs	r2, #1
  400d1a:	4410      	add	r0, r2
  400d1c:	9001      	str	r0, [sp, #4]
	dwY2 = ul_y + ul_height - 1;
  400d1e:	3b01      	subs	r3, #1
  400d20:	4419      	add	r1, r3
  400d22:	ab04      	add	r3, sp, #16
  400d24:	f843 1d10 	str.w	r1, [r3, #-16]!

	/* Swap coordinates if necessary */
	ili9488_check_box_coordinates(&dwX1, &dwY1, &dwX2, &dwY2);
  400d28:	aa01      	add	r2, sp, #4
  400d2a:	a902      	add	r1, sp, #8
  400d2c:	a803      	add	r0, sp, #12
  400d2e:	4c13      	ldr	r4, [pc, #76]	; (400d7c <ili9488_draw_pixmap+0x6c>)
  400d30:	47a0      	blx	r4

	/* Determine the refresh window area */
	ili9488_set_window(dwX1, dwY1, (dwX2 - dwX1 + 1), (dwY2 - dwY1 + 1));
  400d32:	f8bd 000c 	ldrh.w	r0, [sp, #12]
  400d36:	f8bd 1008 	ldrh.w	r1, [sp, #8]
  400d3a:	9b00      	ldr	r3, [sp, #0]
  400d3c:	3301      	adds	r3, #1
  400d3e:	1a5b      	subs	r3, r3, r1
  400d40:	9a01      	ldr	r2, [sp, #4]
  400d42:	3201      	adds	r2, #1
  400d44:	1a12      	subs	r2, r2, r0
  400d46:	b29b      	uxth	r3, r3
  400d48:	b292      	uxth	r2, r2
  400d4a:	4c0d      	ldr	r4, [pc, #52]	; (400d80 <ili9488_draw_pixmap+0x70>)
  400d4c:	47a0      	blx	r4

	size = (dwX2 - dwX1) * (dwY2 - dwY1);
  400d4e:	9903      	ldr	r1, [sp, #12]
  400d50:	9a01      	ldr	r2, [sp, #4]
  400d52:	1a51      	subs	r1, r2, r1
  400d54:	9a02      	ldr	r2, [sp, #8]
  400d56:	9b00      	ldr	r3, [sp, #0]
  400d58:	1a9a      	subs	r2, r3, r2
  400d5a:	fb02 f201 	mul.w	r2, r2, r1

	ili9488_write_register(ILI9488_CMD_MEMORY_WRITE, p_ul_pixmap, size * LCD_DATA_COLOR_UNIT);
  400d5e:	eb02 0242 	add.w	r2, r2, r2, lsl #1
  400d62:	9906      	ldr	r1, [sp, #24]
  400d64:	202c      	movs	r0, #44	; 0x2c
  400d66:	4b07      	ldr	r3, [pc, #28]	; (400d84 <ili9488_draw_pixmap+0x74>)
  400d68:	4798      	blx	r3

	/* Reset the refresh window area */
	ili9488_set_window(0, 0, ILI9488_LCD_WIDTH, ILI9488_LCD_HEIGHT);
  400d6a:	f44f 73f0 	mov.w	r3, #480	; 0x1e0
  400d6e:	f44f 72a0 	mov.w	r2, #320	; 0x140
  400d72:	2100      	movs	r1, #0
  400d74:	4608      	mov	r0, r1
  400d76:	47a0      	blx	r4
}
  400d78:	b004      	add	sp, #16
  400d7a:	bd10      	pop	{r4, pc}
  400d7c:	004006f5 	.word	0x004006f5
  400d80:	00400885 	.word	0x00400885
  400d84:	00400789 	.word	0x00400789

00400d88 <pio_set>:
 * \param p_pio Pointer to a PIO instance.
 * \param ul_mask Bitmask of one or more pin(s) to configure.
 */
void pio_set(Pio *p_pio, const uint32_t ul_mask)
{
	p_pio->PIO_SODR = ul_mask;
  400d88:	6301      	str	r1, [r0, #48]	; 0x30
  400d8a:	4770      	bx	lr

00400d8c <pio_clear>:
 * \param p_pio Pointer to a PIO instance.
 * \param ul_mask Bitmask of one or more pin(s) to configure.
 */
void pio_clear(Pio *p_pio, const uint32_t ul_mask)
{
	p_pio->PIO_CODR = ul_mask;
  400d8c:	6341      	str	r1, [r0, #52]	; 0x34
  400d8e:	4770      	bx	lr

00400d90 <pio_set_peripheral>:
		const uint32_t ul_mask)
{
	uint32_t ul_sr;

	/* Disable interrupts on the pin(s) */
	p_pio->PIO_IDR = ul_mask;
  400d90:	6442      	str	r2, [r0, #68]	; 0x44

#if (SAM3S || SAM3N || SAM4S || SAM4E || SAM4N || SAM4C || SAMG || SAM4CP || SAM4CM || SAMV71 || SAMV70 || SAME70 || SAMS70)
	switch (ul_type) {
  400d92:	f1b1 5fc0 	cmp.w	r1, #402653184	; 0x18000000
  400d96:	d03a      	beq.n	400e0e <pio_set_peripheral+0x7e>
  400d98:	d813      	bhi.n	400dc2 <pio_set_peripheral+0x32>
  400d9a:	f1b1 6f00 	cmp.w	r1, #134217728	; 0x8000000
  400d9e:	d025      	beq.n	400dec <pio_set_peripheral+0x5c>
  400da0:	f1b1 5f80 	cmp.w	r1, #268435456	; 0x10000000
  400da4:	d10a      	bne.n	400dbc <pio_set_peripheral+0x2c>

		ul_sr = p_pio->PIO_ABCDSR[1];
		p_pio->PIO_ABCDSR[1] &= (~ul_mask & ul_sr);
		break;
	case PIO_PERIPH_B:
		ul_sr = p_pio->PIO_ABCDSR[0];
  400da6:	6f03      	ldr	r3, [r0, #112]	; 0x70
		p_pio->PIO_ABCDSR[0] = (ul_mask | ul_sr);
  400da8:	4313      	orrs	r3, r2
  400daa:	6703      	str	r3, [r0, #112]	; 0x70

		ul_sr = p_pio->PIO_ABCDSR[1];
  400dac:	6f43      	ldr	r3, [r0, #116]	; 0x74
		p_pio->PIO_ABCDSR[1] &= (~ul_mask & ul_sr);
  400dae:	6f41      	ldr	r1, [r0, #116]	; 0x74
  400db0:	400b      	ands	r3, r1
  400db2:	ea23 0302 	bic.w	r3, r3, r2
  400db6:	6743      	str	r3, [r0, #116]	; 0x74
#else
#error "Unsupported device"
#endif

	/* Remove the pins from under the control of PIO */
	p_pio->PIO_PDR = ul_mask;
  400db8:	6042      	str	r2, [r0, #4]
  400dba:	4770      	bx	lr
	switch (ul_type) {
  400dbc:	2900      	cmp	r1, #0
  400dbe:	d1fb      	bne.n	400db8 <pio_set_peripheral+0x28>
  400dc0:	4770      	bx	lr
  400dc2:	f1b1 5f20 	cmp.w	r1, #671088640	; 0x28000000
  400dc6:	d021      	beq.n	400e0c <pio_set_peripheral+0x7c>
  400dc8:	d809      	bhi.n	400dde <pio_set_peripheral+0x4e>
  400dca:	f1b1 5f00 	cmp.w	r1, #536870912	; 0x20000000
  400dce:	d1f3      	bne.n	400db8 <pio_set_peripheral+0x28>
		ul_sr = p_pio->PIO_ABCDSR[0];
  400dd0:	6f03      	ldr	r3, [r0, #112]	; 0x70
		p_pio->PIO_ABCDSR[0] = (ul_mask | ul_sr);
  400dd2:	4313      	orrs	r3, r2
  400dd4:	6703      	str	r3, [r0, #112]	; 0x70
		ul_sr = p_pio->PIO_ABCDSR[1];
  400dd6:	6f43      	ldr	r3, [r0, #116]	; 0x74
		p_pio->PIO_ABCDSR[1] = (ul_mask | ul_sr);
  400dd8:	4313      	orrs	r3, r2
  400dda:	6743      	str	r3, [r0, #116]	; 0x74
		break;
  400ddc:	e7ec      	b.n	400db8 <pio_set_peripheral+0x28>
	switch (ul_type) {
  400dde:	f1b1 5f40 	cmp.w	r1, #805306368	; 0x30000000
  400de2:	d013      	beq.n	400e0c <pio_set_peripheral+0x7c>
  400de4:	f1b1 5f60 	cmp.w	r1, #939524096	; 0x38000000
  400de8:	d010      	beq.n	400e0c <pio_set_peripheral+0x7c>
  400dea:	e7e5      	b.n	400db8 <pio_set_peripheral+0x28>
{
  400dec:	b410      	push	{r4}
		ul_sr = p_pio->PIO_ABCDSR[0];
  400dee:	6f01      	ldr	r1, [r0, #112]	; 0x70
		p_pio->PIO_ABCDSR[0] &= (~ul_mask & ul_sr);
  400df0:	6f04      	ldr	r4, [r0, #112]	; 0x70
  400df2:	43d3      	mvns	r3, r2
  400df4:	4021      	ands	r1, r4
  400df6:	461c      	mov	r4, r3
  400df8:	4019      	ands	r1, r3
  400dfa:	6701      	str	r1, [r0, #112]	; 0x70
		ul_sr = p_pio->PIO_ABCDSR[1];
  400dfc:	6f43      	ldr	r3, [r0, #116]	; 0x74
		p_pio->PIO_ABCDSR[1] &= (~ul_mask & ul_sr);
  400dfe:	6f41      	ldr	r1, [r0, #116]	; 0x74
  400e00:	400b      	ands	r3, r1
  400e02:	4023      	ands	r3, r4
  400e04:	6743      	str	r3, [r0, #116]	; 0x74
	p_pio->PIO_PDR = ul_mask;
  400e06:	6042      	str	r2, [r0, #4]
}
  400e08:	f85d 4b04 	ldr.w	r4, [sp], #4
  400e0c:	4770      	bx	lr
		ul_sr = p_pio->PIO_ABCDSR[0];
  400e0e:	6f03      	ldr	r3, [r0, #112]	; 0x70
		p_pio->PIO_ABCDSR[0] &= (~ul_mask & ul_sr);
  400e10:	6f01      	ldr	r1, [r0, #112]	; 0x70
  400e12:	400b      	ands	r3, r1
  400e14:	ea23 0302 	bic.w	r3, r3, r2
  400e18:	6703      	str	r3, [r0, #112]	; 0x70
		ul_sr = p_pio->PIO_ABCDSR[1];
  400e1a:	6f43      	ldr	r3, [r0, #116]	; 0x74
		p_pio->PIO_ABCDSR[1] = (ul_mask | ul_sr);
  400e1c:	4313      	orrs	r3, r2
  400e1e:	6743      	str	r3, [r0, #116]	; 0x74
		break;
  400e20:	e7ca      	b.n	400db8 <pio_set_peripheral+0x28>

00400e22 <pio_set_input>:
 * \param p_pio Pointer to a PIO instance.
 * \param ul_mask Interrupt sources bit map.
 */
void pio_disable_interrupt(Pio *p_pio, const uint32_t ul_mask)
{
	p_pio->PIO_IDR = ul_mask;
  400e22:	6441      	str	r1, [r0, #68]	; 0x44
	if (ul_pull_up_enable) {
  400e24:	f012 0f01 	tst.w	r2, #1
  400e28:	d10d      	bne.n	400e46 <pio_set_input+0x24>
		p_pio->PIO_PUDR = ul_mask;
  400e2a:	6601      	str	r1, [r0, #96]	; 0x60
	if (ul_attribute & (PIO_DEGLITCH | PIO_DEBOUNCE)) {
  400e2c:	f012 0f0a 	tst.w	r2, #10
  400e30:	d00b      	beq.n	400e4a <pio_set_input+0x28>
		p_pio->PIO_IFER = ul_mask;
  400e32:	6201      	str	r1, [r0, #32]
	if (ul_attribute & PIO_DEGLITCH) {
  400e34:	f012 0f02 	tst.w	r2, #2
  400e38:	d109      	bne.n	400e4e <pio_set_input+0x2c>
		if (ul_attribute & PIO_DEBOUNCE) {
  400e3a:	f012 0f08 	tst.w	r2, #8
  400e3e:	d008      	beq.n	400e52 <pio_set_input+0x30>
			p_pio->PIO_IFSCER = ul_mask;
  400e40:	f8c0 1084 	str.w	r1, [r0, #132]	; 0x84
  400e44:	e005      	b.n	400e52 <pio_set_input+0x30>
		p_pio->PIO_PUER = ul_mask;
  400e46:	6641      	str	r1, [r0, #100]	; 0x64
  400e48:	e7f0      	b.n	400e2c <pio_set_input+0xa>
		p_pio->PIO_IFDR = ul_mask;
  400e4a:	6241      	str	r1, [r0, #36]	; 0x24
  400e4c:	e7f2      	b.n	400e34 <pio_set_input+0x12>
		p_pio->PIO_IFSCDR = ul_mask;
  400e4e:	f8c0 1080 	str.w	r1, [r0, #128]	; 0x80
	p_pio->PIO_ODR = ul_mask;
  400e52:	6141      	str	r1, [r0, #20]
	p_pio->PIO_PER = ul_mask;
  400e54:	6001      	str	r1, [r0, #0]
  400e56:	4770      	bx	lr

00400e58 <pio_set_output>:
{
  400e58:	b410      	push	{r4}
  400e5a:	9c01      	ldr	r4, [sp, #4]
	p_pio->PIO_IDR = ul_mask;
  400e5c:	6441      	str	r1, [r0, #68]	; 0x44
	if (ul_pull_up_enable) {
  400e5e:	b94c      	cbnz	r4, 400e74 <pio_set_output+0x1c>
		p_pio->PIO_PUDR = ul_mask;
  400e60:	6601      	str	r1, [r0, #96]	; 0x60
	if (ul_multidrive_enable) {
  400e62:	b14b      	cbz	r3, 400e78 <pio_set_output+0x20>
		p_pio->PIO_MDER = ul_mask;
  400e64:	6501      	str	r1, [r0, #80]	; 0x50
	if (ul_default_level) {
  400e66:	b94a      	cbnz	r2, 400e7c <pio_set_output+0x24>
		p_pio->PIO_CODR = ul_mask;
  400e68:	6341      	str	r1, [r0, #52]	; 0x34
	p_pio->PIO_OER = ul_mask;
  400e6a:	6101      	str	r1, [r0, #16]
	p_pio->PIO_PER = ul_mask;
  400e6c:	6001      	str	r1, [r0, #0]
}
  400e6e:	f85d 4b04 	ldr.w	r4, [sp], #4
  400e72:	4770      	bx	lr
		p_pio->PIO_PUER = ul_mask;
  400e74:	6641      	str	r1, [r0, #100]	; 0x64
  400e76:	e7f4      	b.n	400e62 <pio_set_output+0xa>
		p_pio->PIO_MDDR = ul_mask;
  400e78:	6541      	str	r1, [r0, #84]	; 0x54
  400e7a:	e7f4      	b.n	400e66 <pio_set_output+0xe>
		p_pio->PIO_SODR = ul_mask;
  400e7c:	6301      	str	r1, [r0, #48]	; 0x30
  400e7e:	e7f4      	b.n	400e6a <pio_set_output+0x12>

00400e80 <pio_configure>:
{
  400e80:	b570      	push	{r4, r5, r6, lr}
  400e82:	b082      	sub	sp, #8
  400e84:	4605      	mov	r5, r0
  400e86:	4616      	mov	r6, r2
  400e88:	461c      	mov	r4, r3
	switch (ul_type) {
  400e8a:	f1b1 5f00 	cmp.w	r1, #536870912	; 0x20000000
  400e8e:	d014      	beq.n	400eba <pio_configure+0x3a>
  400e90:	d90a      	bls.n	400ea8 <pio_configure+0x28>
  400e92:	f1b1 5f40 	cmp.w	r1, #805306368	; 0x30000000
  400e96:	d024      	beq.n	400ee2 <pio_configure+0x62>
  400e98:	f1b1 5f60 	cmp.w	r1, #939524096	; 0x38000000
  400e9c:	d021      	beq.n	400ee2 <pio_configure+0x62>
  400e9e:	f1b1 5f20 	cmp.w	r1, #671088640	; 0x28000000
  400ea2:	d017      	beq.n	400ed4 <pio_configure+0x54>
		return 0;
  400ea4:	2000      	movs	r0, #0
  400ea6:	e01a      	b.n	400ede <pio_configure+0x5e>
	switch (ul_type) {
  400ea8:	f1b1 5f80 	cmp.w	r1, #268435456	; 0x10000000
  400eac:	d005      	beq.n	400eba <pio_configure+0x3a>
  400eae:	f1b1 5fc0 	cmp.w	r1, #402653184	; 0x18000000
  400eb2:	d002      	beq.n	400eba <pio_configure+0x3a>
  400eb4:	f1b1 6f00 	cmp.w	r1, #134217728	; 0x8000000
  400eb8:	d1f4      	bne.n	400ea4 <pio_configure+0x24>
		pio_set_peripheral(p_pio, ul_type, ul_mask);
  400eba:	4632      	mov	r2, r6
  400ebc:	4628      	mov	r0, r5
  400ebe:	4b11      	ldr	r3, [pc, #68]	; (400f04 <pio_configure+0x84>)
  400ec0:	4798      	blx	r3
	if (ul_pull_up_enable) {
  400ec2:	f014 0f01 	tst.w	r4, #1
  400ec6:	d102      	bne.n	400ece <pio_configure+0x4e>
		p_pio->PIO_PUDR = ul_mask;
  400ec8:	662e      	str	r6, [r5, #96]	; 0x60
	return 1;
  400eca:	2001      	movs	r0, #1
  400ecc:	e007      	b.n	400ede <pio_configure+0x5e>
		p_pio->PIO_PUER = ul_mask;
  400ece:	666e      	str	r6, [r5, #100]	; 0x64
	return 1;
  400ed0:	2001      	movs	r0, #1
  400ed2:	e004      	b.n	400ede <pio_configure+0x5e>
		pio_set_input(p_pio, ul_mask, ul_attribute);
  400ed4:	461a      	mov	r2, r3
  400ed6:	4631      	mov	r1, r6
  400ed8:	4b0b      	ldr	r3, [pc, #44]	; (400f08 <pio_configure+0x88>)
  400eda:	4798      	blx	r3
	return 1;
  400edc:	2001      	movs	r0, #1
}
  400ede:	b002      	add	sp, #8
  400ee0:	bd70      	pop	{r4, r5, r6, pc}
		pio_set_output(p_pio, ul_mask, (ul_type == PIO_OUTPUT_1),
  400ee2:	f004 0301 	and.w	r3, r4, #1
  400ee6:	9300      	str	r3, [sp, #0]
  400ee8:	f3c4 0380 	ubfx	r3, r4, #2, #1
  400eec:	f1b1 5f60 	cmp.w	r1, #939524096	; 0x38000000
  400ef0:	bf14      	ite	ne
  400ef2:	2200      	movne	r2, #0
  400ef4:	2201      	moveq	r2, #1
  400ef6:	4631      	mov	r1, r6
  400ef8:	4628      	mov	r0, r5
  400efa:	4c04      	ldr	r4, [pc, #16]	; (400f0c <pio_configure+0x8c>)
  400efc:	47a0      	blx	r4
	return 1;
  400efe:	2001      	movs	r0, #1
		break;
  400f00:	e7ed      	b.n	400ede <pio_configure+0x5e>
  400f02:	bf00      	nop
  400f04:	00400d91 	.word	0x00400d91
  400f08:	00400e23 	.word	0x00400e23
  400f0c:	00400e59 	.word	0x00400e59

00400f10 <pio_configure_interrupt>:
	if (ul_attr & PIO_IT_AIME) {
  400f10:	f012 0f10 	tst.w	r2, #16
  400f14:	d012      	beq.n	400f3c <pio_configure_interrupt+0x2c>
		p_pio->PIO_AIMER = ul_mask;
  400f16:	f8c0 10b0 	str.w	r1, [r0, #176]	; 0xb0
		if (ul_attr & PIO_IT_RE_OR_HL) {
  400f1a:	f012 0f20 	tst.w	r2, #32
  400f1e:	d007      	beq.n	400f30 <pio_configure_interrupt+0x20>
			p_pio->PIO_REHLSR = ul_mask;
  400f20:	f8c0 10d4 	str.w	r1, [r0, #212]	; 0xd4
		if (ul_attr & PIO_IT_EDGE) {
  400f24:	f012 0f40 	tst.w	r2, #64	; 0x40
  400f28:	d005      	beq.n	400f36 <pio_configure_interrupt+0x26>
			p_pio->PIO_ESR = ul_mask;
  400f2a:	f8c0 10c0 	str.w	r1, [r0, #192]	; 0xc0
  400f2e:	4770      	bx	lr
			p_pio->PIO_FELLSR = ul_mask;
  400f30:	f8c0 10d0 	str.w	r1, [r0, #208]	; 0xd0
  400f34:	e7f6      	b.n	400f24 <pio_configure_interrupt+0x14>
			p_pio->PIO_LSR = ul_mask;
  400f36:	f8c0 10c4 	str.w	r1, [r0, #196]	; 0xc4
  400f3a:	4770      	bx	lr
		p_pio->PIO_AIMDR = ul_mask;
  400f3c:	f8c0 10b4 	str.w	r1, [r0, #180]	; 0xb4
  400f40:	4770      	bx	lr

00400f42 <pio_enable_interrupt>:
	p_pio->PIO_IER = ul_mask;
  400f42:	6401      	str	r1, [r0, #64]	; 0x40
  400f44:	4770      	bx	lr

00400f46 <pio_get_interrupt_status>:
 *
 * \return The interrupt status value.
 */
uint32_t pio_get_interrupt_status(const Pio *p_pio)
{
	return p_pio->PIO_ISR;
  400f46:	6cc0      	ldr	r0, [r0, #76]	; 0x4c
}
  400f48:	4770      	bx	lr

00400f4a <pio_get_interrupt_mask>:
 *
 * \return The interrupt mask value.
 */
uint32_t pio_get_interrupt_mask(const Pio *p_pio)
{
	return p_pio->PIO_IMR;
  400f4a:	6c80      	ldr	r0, [r0, #72]	; 0x48
}
  400f4c:	4770      	bx	lr
	...

00400f50 <pio_set_pin_high>:
		p_pio = PIOC;
	} else {
		p_pio = (Pio *)((uint32_t)PIOA + (PIO_DELTA * (ul_pin >> 5)));
	}
#else
	p_pio = (Pio *)((uint32_t)PIOA + (PIO_DELTA * (ul_pin >> 5)));
  400f50:	4b05      	ldr	r3, [pc, #20]	; (400f68 <pio_set_pin_high+0x18>)
  400f52:	eb03 1350 	add.w	r3, r3, r0, lsr #5
  400f56:	025b      	lsls	r3, r3, #9
	p_pio->PIO_SODR = 1 << (ul_pin & 0x1F);
  400f58:	f000 001f 	and.w	r0, r0, #31
  400f5c:	2201      	movs	r2, #1
  400f5e:	fa02 f000 	lsl.w	r0, r2, r0
  400f62:	6318      	str	r0, [r3, #48]	; 0x30
  400f64:	4770      	bx	lr
  400f66:	bf00      	nop
  400f68:	00200707 	.word	0x00200707

00400f6c <pio_set_pin_low>:
	p_pio = (Pio *)((uint32_t)PIOA + (PIO_DELTA * (ul_pin >> 5)));
  400f6c:	4b05      	ldr	r3, [pc, #20]	; (400f84 <pio_set_pin_low+0x18>)
  400f6e:	eb03 1350 	add.w	r3, r3, r0, lsr #5
  400f72:	025b      	lsls	r3, r3, #9
	p_pio->PIO_CODR = 1 << (ul_pin & 0x1F);
  400f74:	f000 001f 	and.w	r0, r0, #31
  400f78:	2201      	movs	r2, #1
  400f7a:	fa02 f000 	lsl.w	r0, r2, r0
  400f7e:	6358      	str	r0, [r3, #52]	; 0x34
  400f80:	4770      	bx	lr
  400f82:	bf00      	nop
  400f84:	00200707 	.word	0x00200707

00400f88 <pio_configure_pin>:
{
  400f88:	b570      	push	{r4, r5, r6, lr}
  400f8a:	b082      	sub	sp, #8
  400f8c:	460d      	mov	r5, r1
	p_pio = (Pio *)((uint32_t)PIOA + (PIO_DELTA * (ul_pin >> 5)));
  400f8e:	4c46      	ldr	r4, [pc, #280]	; (4010a8 <pio_configure_pin+0x120>)
  400f90:	eb04 1450 	add.w	r4, r4, r0, lsr #5
  400f94:	0264      	lsls	r4, r4, #9
	switch (ul_flags & PIO_TYPE_Msk) {
  400f96:	f001 43f0 	and.w	r3, r1, #2013265920	; 0x78000000
  400f9a:	f1b3 5f00 	cmp.w	r3, #536870912	; 0x20000000
  400f9e:	d059      	beq.n	401054 <pio_configure_pin+0xcc>
  400fa0:	d80a      	bhi.n	400fb8 <pio_configure_pin+0x30>
  400fa2:	f1b3 5f80 	cmp.w	r3, #268435456	; 0x10000000
  400fa6:	d02f      	beq.n	401008 <pio_configure_pin+0x80>
  400fa8:	f1b3 5fc0 	cmp.w	r3, #402653184	; 0x18000000
  400fac:	d03f      	beq.n	40102e <pio_configure_pin+0xa6>
  400fae:	f1b3 6f00 	cmp.w	r3, #134217728	; 0x8000000
  400fb2:	d016      	beq.n	400fe2 <pio_configure_pin+0x5a>
		return 0;
  400fb4:	2000      	movs	r0, #0
  400fb6:	e012      	b.n	400fde <pio_configure_pin+0x56>
	switch (ul_flags & PIO_TYPE_Msk) {
  400fb8:	f1b3 5f40 	cmp.w	r3, #805306368	; 0x30000000
  400fbc:	d05d      	beq.n	40107a <pio_configure_pin+0xf2>
  400fbe:	f1b3 5f60 	cmp.w	r3, #939524096	; 0x38000000
  400fc2:	d05a      	beq.n	40107a <pio_configure_pin+0xf2>
  400fc4:	f1b3 5f20 	cmp.w	r3, #671088640	; 0x28000000
  400fc8:	d1f4      	bne.n	400fb4 <pio_configure_pin+0x2c>
		pio_set_input(p_pio, (1 << (ul_pin & 0x1F)), ul_flags);
  400fca:	f000 011f 	and.w	r1, r0, #31
  400fce:	2601      	movs	r6, #1
  400fd0:	462a      	mov	r2, r5
  400fd2:	fa06 f101 	lsl.w	r1, r6, r1
  400fd6:	4620      	mov	r0, r4
  400fd8:	4b34      	ldr	r3, [pc, #208]	; (4010ac <pio_configure_pin+0x124>)
  400fda:	4798      	blx	r3
	return 1;
  400fdc:	4630      	mov	r0, r6
}
  400fde:	b002      	add	sp, #8
  400fe0:	bd70      	pop	{r4, r5, r6, pc}
		pio_set_peripheral(p_pio, PIO_PERIPH_A, (1 << (ul_pin & 0x1F)));
  400fe2:	f000 001f 	and.w	r0, r0, #31
  400fe6:	2601      	movs	r6, #1
  400fe8:	4086      	lsls	r6, r0
  400fea:	4632      	mov	r2, r6
  400fec:	f04f 6100 	mov.w	r1, #134217728	; 0x8000000
  400ff0:	4620      	mov	r0, r4
  400ff2:	4b2f      	ldr	r3, [pc, #188]	; (4010b0 <pio_configure_pin+0x128>)
  400ff4:	4798      	blx	r3
	if (ul_pull_up_enable) {
  400ff6:	f015 0f01 	tst.w	r5, #1
  400ffa:	d102      	bne.n	401002 <pio_configure_pin+0x7a>
		p_pio->PIO_PUDR = ul_mask;
  400ffc:	6626      	str	r6, [r4, #96]	; 0x60
	return 1;
  400ffe:	2001      	movs	r0, #1
  401000:	e7ed      	b.n	400fde <pio_configure_pin+0x56>
		p_pio->PIO_PUER = ul_mask;
  401002:	6666      	str	r6, [r4, #100]	; 0x64
	return 1;
  401004:	2001      	movs	r0, #1
  401006:	e7ea      	b.n	400fde <pio_configure_pin+0x56>
		pio_set_peripheral(p_pio, PIO_PERIPH_B, (1 << (ul_pin & 0x1F)));
  401008:	f000 001f 	and.w	r0, r0, #31
  40100c:	2601      	movs	r6, #1
  40100e:	4086      	lsls	r6, r0
  401010:	4632      	mov	r2, r6
  401012:	f04f 5180 	mov.w	r1, #268435456	; 0x10000000
  401016:	4620      	mov	r0, r4
  401018:	4b25      	ldr	r3, [pc, #148]	; (4010b0 <pio_configure_pin+0x128>)
  40101a:	4798      	blx	r3
	if (ul_pull_up_enable) {
  40101c:	f015 0f01 	tst.w	r5, #1
  401020:	d102      	bne.n	401028 <pio_configure_pin+0xa0>
		p_pio->PIO_PUDR = ul_mask;
  401022:	6626      	str	r6, [r4, #96]	; 0x60
	return 1;
  401024:	2001      	movs	r0, #1
  401026:	e7da      	b.n	400fde <pio_configure_pin+0x56>
		p_pio->PIO_PUER = ul_mask;
  401028:	6666      	str	r6, [r4, #100]	; 0x64
	return 1;
  40102a:	2001      	movs	r0, #1
  40102c:	e7d7      	b.n	400fde <pio_configure_pin+0x56>
		pio_set_peripheral(p_pio, PIO_PERIPH_C, (1 << (ul_pin & 0x1F)));
  40102e:	f000 001f 	and.w	r0, r0, #31
  401032:	2601      	movs	r6, #1
  401034:	4086      	lsls	r6, r0
  401036:	4632      	mov	r2, r6
  401038:	f04f 51c0 	mov.w	r1, #402653184	; 0x18000000
  40103c:	4620      	mov	r0, r4
  40103e:	4b1c      	ldr	r3, [pc, #112]	; (4010b0 <pio_configure_pin+0x128>)
  401040:	4798      	blx	r3
	if (ul_pull_up_enable) {
  401042:	f015 0f01 	tst.w	r5, #1
  401046:	d102      	bne.n	40104e <pio_configure_pin+0xc6>
		p_pio->PIO_PUDR = ul_mask;
  401048:	6626      	str	r6, [r4, #96]	; 0x60
	return 1;
  40104a:	2001      	movs	r0, #1
  40104c:	e7c7      	b.n	400fde <pio_configure_pin+0x56>
		p_pio->PIO_PUER = ul_mask;
  40104e:	6666      	str	r6, [r4, #100]	; 0x64
	return 1;
  401050:	2001      	movs	r0, #1
  401052:	e7c4      	b.n	400fde <pio_configure_pin+0x56>
		pio_set_peripheral(p_pio, PIO_PERIPH_D, (1 << (ul_pin & 0x1F)));
  401054:	f000 001f 	and.w	r0, r0, #31
  401058:	2601      	movs	r6, #1
  40105a:	4086      	lsls	r6, r0
  40105c:	4632      	mov	r2, r6
  40105e:	f04f 5100 	mov.w	r1, #536870912	; 0x20000000
  401062:	4620      	mov	r0, r4
  401064:	4b12      	ldr	r3, [pc, #72]	; (4010b0 <pio_configure_pin+0x128>)
  401066:	4798      	blx	r3
	if (ul_pull_up_enable) {
  401068:	f015 0f01 	tst.w	r5, #1
  40106c:	d102      	bne.n	401074 <pio_configure_pin+0xec>
		p_pio->PIO_PUDR = ul_mask;
  40106e:	6626      	str	r6, [r4, #96]	; 0x60
	return 1;
  401070:	2001      	movs	r0, #1
  401072:	e7b4      	b.n	400fde <pio_configure_pin+0x56>
		p_pio->PIO_PUER = ul_mask;
  401074:	6666      	str	r6, [r4, #100]	; 0x64
	return 1;
  401076:	2001      	movs	r0, #1
  401078:	e7b1      	b.n	400fde <pio_configure_pin+0x56>
				((ul_flags & PIO_TYPE_PIO_OUTPUT_1)
  40107a:	f005 5260 	and.w	r2, r5, #939524096	; 0x38000000
		pio_set_output(p_pio, (1 << (ul_pin & 0x1F)),
  40107e:	f000 011f 	and.w	r1, r0, #31
  401082:	2601      	movs	r6, #1
  401084:	ea05 0306 	and.w	r3, r5, r6
  401088:	9300      	str	r3, [sp, #0]
  40108a:	f3c5 0380 	ubfx	r3, r5, #2, #1
  40108e:	f1b2 5f60 	cmp.w	r2, #939524096	; 0x38000000
  401092:	bf14      	ite	ne
  401094:	2200      	movne	r2, #0
  401096:	2201      	moveq	r2, #1
  401098:	fa06 f101 	lsl.w	r1, r6, r1
  40109c:	4620      	mov	r0, r4
  40109e:	4c05      	ldr	r4, [pc, #20]	; (4010b4 <pio_configure_pin+0x12c>)
  4010a0:	47a0      	blx	r4
	return 1;
  4010a2:	4630      	mov	r0, r6
		break;
  4010a4:	e79b      	b.n	400fde <pio_configure_pin+0x56>
  4010a6:	bf00      	nop
  4010a8:	00200707 	.word	0x00200707
  4010ac:	00400e23 	.word	0x00400e23
  4010b0:	00400d91 	.word	0x00400d91
  4010b4:	00400e59 	.word	0x00400e59

004010b8 <pio_handler_process>:
 *
 * \param p_pio PIO controller base address.
 * \param ul_id PIO controller ID.
 */
void pio_handler_process(Pio *p_pio, uint32_t ul_id)
{
  4010b8:	e92d 41f0 	stmdb	sp!, {r4, r5, r6, r7, r8, lr}
  4010bc:	4604      	mov	r4, r0
  4010be:	4688      	mov	r8, r1
	uint32_t status;
	uint32_t i;

	/* Read PIO controller status */
	status = pio_get_interrupt_status(p_pio);
  4010c0:	4b0e      	ldr	r3, [pc, #56]	; (4010fc <pio_handler_process+0x44>)
  4010c2:	4798      	blx	r3
  4010c4:	4605      	mov	r5, r0
	status &= pio_get_interrupt_mask(p_pio);
  4010c6:	4620      	mov	r0, r4
  4010c8:	4b0d      	ldr	r3, [pc, #52]	; (401100 <pio_handler_process+0x48>)
  4010ca:	4798      	blx	r3

	/* Check pending events */
	if (status != 0) {
  4010cc:	4005      	ands	r5, r0
  4010ce:	d013      	beq.n	4010f8 <pio_handler_process+0x40>
  4010d0:	4c0c      	ldr	r4, [pc, #48]	; (401104 <pio_handler_process+0x4c>)
  4010d2:	f104 0660 	add.w	r6, r4, #96	; 0x60
  4010d6:	e003      	b.n	4010e0 <pio_handler_process+0x28>
							gs_interrupt_sources[i].mask);
					status &= ~(gs_interrupt_sources[i].mask);
				}
			}
			i++;
			if (i >= MAX_INTERRUPT_SOURCES) {
  4010d8:	42b4      	cmp	r4, r6
  4010da:	d00d      	beq.n	4010f8 <pio_handler_process+0x40>
  4010dc:	3410      	adds	r4, #16
		while (status != 0) {
  4010de:	b15d      	cbz	r5, 4010f8 <pio_handler_process+0x40>
			if (gs_interrupt_sources[i].id == ul_id) {
  4010e0:	6820      	ldr	r0, [r4, #0]
  4010e2:	4540      	cmp	r0, r8
  4010e4:	d1f8      	bne.n	4010d8 <pio_handler_process+0x20>
				if ((status & gs_interrupt_sources[i].mask) != 0) {
  4010e6:	6861      	ldr	r1, [r4, #4]
  4010e8:	4229      	tst	r1, r5
  4010ea:	d0f5      	beq.n	4010d8 <pio_handler_process+0x20>
					gs_interrupt_sources[i].handler(gs_interrupt_sources[i].id,
  4010ec:	68e3      	ldr	r3, [r4, #12]
  4010ee:	4798      	blx	r3
					status &= ~(gs_interrupt_sources[i].mask);
  4010f0:	6863      	ldr	r3, [r4, #4]
  4010f2:	ea25 0503 	bic.w	r5, r5, r3
  4010f6:	e7ef      	b.n	4010d8 <pio_handler_process+0x20>
  4010f8:	e8bd 81f0 	ldmia.w	sp!, {r4, r5, r6, r7, r8, pc}
  4010fc:	00400f47 	.word	0x00400f47
  401100:	00400f4b 	.word	0x00400f4b
  401104:	20400d9c 	.word	0x20400d9c

00401108 <pio_handler_set>:
 *
 * \return 0 if successful, 1 if the maximum number of sources has been defined.
 */
uint32_t pio_handler_set(Pio *p_pio, uint32_t ul_id, uint32_t ul_mask,
		uint32_t ul_attr, void (*p_handler) (uint32_t, uint32_t))
{
  401108:	b5f8      	push	{r3, r4, r5, r6, r7, lr}
    uint8_t i;
	struct s_interrupt_source *pSource;

	if (gs_ul_nb_sources >= MAX_INTERRUPT_SOURCES)
  40110a:	4c18      	ldr	r4, [pc, #96]	; (40116c <pio_handler_set+0x64>)
  40110c:	6826      	ldr	r6, [r4, #0]
  40110e:	2e06      	cmp	r6, #6
  401110:	d82a      	bhi.n	401168 <pio_handler_set+0x60>
  401112:	f04f 0c00 	mov.w	ip, #0
  401116:	4664      	mov	r4, ip
		return 1;

    /* Check interrupt for this pin, if already defined, redefine it. */
	for (i = 0; i <= gs_ul_nb_sources; i++) {
		pSource = &(gs_interrupt_sources[i]);
		if (pSource->id == ul_id && pSource->mask == ul_mask) {
  401118:	4f15      	ldr	r7, [pc, #84]	; (401170 <pio_handler_set+0x68>)
  40111a:	e004      	b.n	401126 <pio_handler_set+0x1e>
	for (i = 0; i <= gs_ul_nb_sources; i++) {
  40111c:	3401      	adds	r4, #1
  40111e:	b2e4      	uxtb	r4, r4
  401120:	46a4      	mov	ip, r4
  401122:	42a6      	cmp	r6, r4
  401124:	d309      	bcc.n	40113a <pio_handler_set+0x32>
		pSource = &(gs_interrupt_sources[i]);
  401126:	46a6      	mov	lr, r4
		if (pSource->id == ul_id && pSource->mask == ul_mask) {
  401128:	0125      	lsls	r5, r4, #4
  40112a:	597d      	ldr	r5, [r7, r5]
  40112c:	428d      	cmp	r5, r1
  40112e:	d1f5      	bne.n	40111c <pio_handler_set+0x14>
  401130:	eb07 1504 	add.w	r5, r7, r4, lsl #4
  401134:	686d      	ldr	r5, [r5, #4]
  401136:	4295      	cmp	r5, r2
  401138:	d1f0      	bne.n	40111c <pio_handler_set+0x14>
			break;
		}
	}

	/* Define new source */
	pSource->id = ul_id;
  40113a:	4d0d      	ldr	r5, [pc, #52]	; (401170 <pio_handler_set+0x68>)
  40113c:	ea4f 1e0e 	mov.w	lr, lr, lsl #4
  401140:	eb05 040e 	add.w	r4, r5, lr
  401144:	f845 100e 	str.w	r1, [r5, lr]
	pSource->mask = ul_mask;
  401148:	6062      	str	r2, [r4, #4]
	pSource->attr = ul_attr;
  40114a:	60a3      	str	r3, [r4, #8]
	pSource->handler = p_handler;
  40114c:	9906      	ldr	r1, [sp, #24]
  40114e:	60e1      	str	r1, [r4, #12]
	if (i == gs_ul_nb_sources + 1) {
  401150:	3601      	adds	r6, #1
  401152:	4566      	cmp	r6, ip
  401154:	d005      	beq.n	401162 <pio_handler_set+0x5a>
  401156:	4611      	mov	r1, r2
		gs_ul_nb_sources++;
	}

	/* Configure interrupt mode */
	pio_configure_interrupt(p_pio, ul_mask, ul_attr);
  401158:	461a      	mov	r2, r3
  40115a:	4b06      	ldr	r3, [pc, #24]	; (401174 <pio_handler_set+0x6c>)
  40115c:	4798      	blx	r3

	return 0;
  40115e:	2000      	movs	r0, #0
  401160:	bdf8      	pop	{r3, r4, r5, r6, r7, pc}
		gs_ul_nb_sources++;
  401162:	4902      	ldr	r1, [pc, #8]	; (40116c <pio_handler_set+0x64>)
  401164:	600e      	str	r6, [r1, #0]
  401166:	e7f6      	b.n	401156 <pio_handler_set+0x4e>
		return 1;
  401168:	2001      	movs	r0, #1
}
  40116a:	bdf8      	pop	{r3, r4, r5, r6, r7, pc}
  40116c:	20400e0c 	.word	0x20400e0c
  401170:	20400d9c 	.word	0x20400d9c
  401174:	00400f11 	.word	0x00400f11

00401178 <PIOA_Handler>:
/**
 * \brief Parallel IO Controller A interrupt handler.
 * Redefined PIOA interrupt handler for NVIC interrupt table.
 */
void PIOA_Handler(void)
{
  401178:	b508      	push	{r3, lr}
	pio_handler_process(PIOA, ID_PIOA);
  40117a:	210a      	movs	r1, #10
  40117c:	4801      	ldr	r0, [pc, #4]	; (401184 <PIOA_Handler+0xc>)
  40117e:	4b02      	ldr	r3, [pc, #8]	; (401188 <PIOA_Handler+0x10>)
  401180:	4798      	blx	r3
  401182:	bd08      	pop	{r3, pc}
  401184:	400e0e00 	.word	0x400e0e00
  401188:	004010b9 	.word	0x004010b9

0040118c <PIOB_Handler>:
/**
 * \brief Parallel IO Controller B interrupt handler
 * Redefined PIOB interrupt handler for NVIC interrupt table.
 */
void PIOB_Handler(void)
{
  40118c:	b508      	push	{r3, lr}
    pio_handler_process(PIOB, ID_PIOB);
  40118e:	210b      	movs	r1, #11
  401190:	4801      	ldr	r0, [pc, #4]	; (401198 <PIOB_Handler+0xc>)
  401192:	4b02      	ldr	r3, [pc, #8]	; (40119c <PIOB_Handler+0x10>)
  401194:	4798      	blx	r3
  401196:	bd08      	pop	{r3, pc}
  401198:	400e1000 	.word	0x400e1000
  40119c:	004010b9 	.word	0x004010b9

004011a0 <PIOC_Handler>:
/**
 * \brief Parallel IO Controller C interrupt handler.
 * Redefined PIOC interrupt handler for NVIC interrupt table.
 */
void PIOC_Handler(void)
{
  4011a0:	b508      	push	{r3, lr}
	pio_handler_process(PIOC, ID_PIOC);
  4011a2:	210c      	movs	r1, #12
  4011a4:	4801      	ldr	r0, [pc, #4]	; (4011ac <PIOC_Handler+0xc>)
  4011a6:	4b02      	ldr	r3, [pc, #8]	; (4011b0 <PIOC_Handler+0x10>)
  4011a8:	4798      	blx	r3
  4011aa:	bd08      	pop	{r3, pc}
  4011ac:	400e1200 	.word	0x400e1200
  4011b0:	004010b9 	.word	0x004010b9

004011b4 <PIOD_Handler>:
/**
 * \brief Parallel IO Controller D interrupt handler.
 * Redefined PIOD interrupt handler for NVIC interrupt table.
 */
void PIOD_Handler(void)
{
  4011b4:	b508      	push	{r3, lr}
	pio_handler_process(PIOD, ID_PIOD);
  4011b6:	2110      	movs	r1, #16
  4011b8:	4801      	ldr	r0, [pc, #4]	; (4011c0 <PIOD_Handler+0xc>)
  4011ba:	4b02      	ldr	r3, [pc, #8]	; (4011c4 <PIOD_Handler+0x10>)
  4011bc:	4798      	blx	r3
  4011be:	bd08      	pop	{r3, pc}
  4011c0:	400e1400 	.word	0x400e1400
  4011c4:	004010b9 	.word	0x004010b9

004011c8 <PIOE_Handler>:
/**
 * \brief Parallel IO Controller E interrupt handler.
 * Redefined PIOE interrupt handler for NVIC interrupt table.
 */
void PIOE_Handler(void)
{
  4011c8:	b508      	push	{r3, lr}
	pio_handler_process(PIOE, ID_PIOE);
  4011ca:	2111      	movs	r1, #17
  4011cc:	4801      	ldr	r0, [pc, #4]	; (4011d4 <PIOE_Handler+0xc>)
  4011ce:	4b02      	ldr	r3, [pc, #8]	; (4011d8 <PIOE_Handler+0x10>)
  4011d0:	4798      	blx	r3
  4011d2:	bd08      	pop	{r3, pc}
  4011d4:	400e1600 	.word	0x400e1600
  4011d8:	004010b9 	.word	0x004010b9

004011dc <pmc_mck_set_division>:
 *
 * \param ul_div Division value.
 */
void pmc_mck_set_division(uint32_t ul_div)
{
	switch (ul_div) {
  4011dc:	2803      	cmp	r0, #3
  4011de:	d011      	beq.n	401204 <pmc_mck_set_division+0x28>
  4011e0:	2804      	cmp	r0, #4
  4011e2:	d012      	beq.n	40120a <pmc_mck_set_division+0x2e>
		case 1:
			ul_div = PMC_MCKR_MDIV_EQ_PCK;
  4011e4:	2802      	cmp	r0, #2
  4011e6:	bf0c      	ite	eq
  4011e8:	f44f 7180 	moveq.w	r1, #256	; 0x100
  4011ec:	2100      	movne	r1, #0
		default:
			ul_div = PMC_MCKR_MDIV_EQ_PCK;
			break;
	}
	PMC->PMC_MCKR =
			(PMC->PMC_MCKR & (~PMC_MCKR_MDIV_Msk)) | ul_div;
  4011ee:	4a08      	ldr	r2, [pc, #32]	; (401210 <pmc_mck_set_division+0x34>)
  4011f0:	6b13      	ldr	r3, [r2, #48]	; 0x30
  4011f2:	f423 7340 	bic.w	r3, r3, #768	; 0x300
  4011f6:	430b      	orrs	r3, r1
	PMC->PMC_MCKR =
  4011f8:	6313      	str	r3, [r2, #48]	; 0x30
	while (!(PMC->PMC_SR & PMC_SR_MCKRDY));
  4011fa:	6e93      	ldr	r3, [r2, #104]	; 0x68
  4011fc:	f013 0f08 	tst.w	r3, #8
  401200:	d0fb      	beq.n	4011fa <pmc_mck_set_division+0x1e>
}
  401202:	4770      	bx	lr
			ul_div = PMC_MCKR_MDIV_PCK_DIV3;
  401204:	f44f 7140 	mov.w	r1, #768	; 0x300
			break;
  401208:	e7f1      	b.n	4011ee <pmc_mck_set_division+0x12>
			ul_div = PMC_MCKR_MDIV_PCK_DIV4;
  40120a:	f44f 7100 	mov.w	r1, #512	; 0x200
			break;
  40120e:	e7ee      	b.n	4011ee <pmc_mck_set_division+0x12>
  401210:	400e0600 	.word	0x400e0600

00401214 <pmc_switch_mck_to_pllack>:
 */
uint32_t pmc_switch_mck_to_pllack(uint32_t ul_pres)
{
	uint32_t ul_timeout;

	PMC->PMC_MCKR = (PMC->PMC_MCKR & (~PMC_MCKR_PRES_Msk)) | ul_pres;
  401214:	4a17      	ldr	r2, [pc, #92]	; (401274 <pmc_switch_mck_to_pllack+0x60>)
  401216:	6b13      	ldr	r3, [r2, #48]	; 0x30
  401218:	f023 0370 	bic.w	r3, r3, #112	; 0x70
  40121c:	4318      	orrs	r0, r3
  40121e:	6310      	str	r0, [r2, #48]	; 0x30
	for (ul_timeout = PMC_TIMEOUT; !(PMC->PMC_SR & PMC_SR_MCKRDY);
  401220:	6e93      	ldr	r3, [r2, #104]	; 0x68
  401222:	f013 0f08 	tst.w	r3, #8
  401226:	d10a      	bne.n	40123e <pmc_switch_mck_to_pllack+0x2a>
  401228:	f44f 5380 	mov.w	r3, #4096	; 0x1000
  40122c:	4911      	ldr	r1, [pc, #68]	; (401274 <pmc_switch_mck_to_pllack+0x60>)
  40122e:	6e8a      	ldr	r2, [r1, #104]	; 0x68
  401230:	f012 0f08 	tst.w	r2, #8
  401234:	d103      	bne.n	40123e <pmc_switch_mck_to_pllack+0x2a>
			--ul_timeout) {
		if (ul_timeout == 0) {
  401236:	3b01      	subs	r3, #1
  401238:	d1f9      	bne.n	40122e <pmc_switch_mck_to_pllack+0x1a>
			return 1;
  40123a:	2001      	movs	r0, #1
  40123c:	4770      	bx	lr
		}
	}

	PMC->PMC_MCKR = (PMC->PMC_MCKR & (~PMC_MCKR_CSS_Msk)) |
  40123e:	4a0d      	ldr	r2, [pc, #52]	; (401274 <pmc_switch_mck_to_pllack+0x60>)
  401240:	6b13      	ldr	r3, [r2, #48]	; 0x30
  401242:	f023 0303 	bic.w	r3, r3, #3
  401246:	f043 0302 	orr.w	r3, r3, #2
  40124a:	6313      	str	r3, [r2, #48]	; 0x30
			PMC_MCKR_CSS_PLLA_CLK;

	for (ul_timeout = PMC_TIMEOUT; !(PMC->PMC_SR & PMC_SR_MCKRDY);
  40124c:	6e93      	ldr	r3, [r2, #104]	; 0x68
  40124e:	f013 0f08 	tst.w	r3, #8
  401252:	d10a      	bne.n	40126a <pmc_switch_mck_to_pllack+0x56>
  401254:	f44f 5380 	mov.w	r3, #4096	; 0x1000
  401258:	4906      	ldr	r1, [pc, #24]	; (401274 <pmc_switch_mck_to_pllack+0x60>)
  40125a:	6e8a      	ldr	r2, [r1, #104]	; 0x68
  40125c:	f012 0f08 	tst.w	r2, #8
  401260:	d105      	bne.n	40126e <pmc_switch_mck_to_pllack+0x5a>
			--ul_timeout) {
		if (ul_timeout == 0) {
  401262:	3b01      	subs	r3, #1
  401264:	d1f9      	bne.n	40125a <pmc_switch_mck_to_pllack+0x46>
			return 1;
  401266:	2001      	movs	r0, #1
		}
	}

	return 0;
}
  401268:	4770      	bx	lr
	return 0;
  40126a:	2000      	movs	r0, #0
  40126c:	4770      	bx	lr
  40126e:	2000      	movs	r0, #0
  401270:	4770      	bx	lr
  401272:	bf00      	nop
  401274:	400e0600 	.word	0x400e0600

00401278 <pmc_switch_mainck_to_xtal>:
 */
void pmc_switch_mainck_to_xtal(uint32_t ul_bypass,
		uint32_t ul_xtal_startup_time)
{
	/* Enable Main Xtal oscillator */
	if (ul_bypass) {
  401278:	b9a0      	cbnz	r0, 4012a4 <pmc_switch_mainck_to_xtal+0x2c>
		PMC->CKGR_MOR = (PMC->CKGR_MOR & ~CKGR_MOR_MOSCXTEN) |
				CKGR_MOR_KEY_PASSWD | CKGR_MOR_MOSCXTBY |
				CKGR_MOR_MOSCSEL;
	} else {
		PMC->CKGR_MOR = (PMC->CKGR_MOR & ~CKGR_MOR_MOSCXTBY) |
  40127a:	480e      	ldr	r0, [pc, #56]	; (4012b4 <pmc_switch_mainck_to_xtal+0x3c>)
  40127c:	6a03      	ldr	r3, [r0, #32]
				CKGR_MOR_KEY_PASSWD | CKGR_MOR_MOSCXTEN |
				CKGR_MOR_MOSCXTST(ul_xtal_startup_time);
  40127e:	0209      	lsls	r1, r1, #8
  401280:	b289      	uxth	r1, r1
				CKGR_MOR_KEY_PASSWD | CKGR_MOR_MOSCXTEN |
  401282:	4a0d      	ldr	r2, [pc, #52]	; (4012b8 <pmc_switch_mainck_to_xtal+0x40>)
  401284:	401a      	ands	r2, r3
  401286:	4b0d      	ldr	r3, [pc, #52]	; (4012bc <pmc_switch_mainck_to_xtal+0x44>)
  401288:	4313      	orrs	r3, r2
  40128a:	4319      	orrs	r1, r3
		PMC->CKGR_MOR = (PMC->CKGR_MOR & ~CKGR_MOR_MOSCXTBY) |
  40128c:	6201      	str	r1, [r0, #32]
		/* Wait the Xtal to stabilize */
		while (!(PMC->PMC_SR & PMC_SR_MOSCXTS));
  40128e:	4602      	mov	r2, r0
  401290:	6e93      	ldr	r3, [r2, #104]	; 0x68
  401292:	f013 0f01 	tst.w	r3, #1
  401296:	d0fb      	beq.n	401290 <pmc_switch_mainck_to_xtal+0x18>

		PMC->CKGR_MOR |= CKGR_MOR_KEY_PASSWD | CKGR_MOR_MOSCSEL;
  401298:	4a06      	ldr	r2, [pc, #24]	; (4012b4 <pmc_switch_mainck_to_xtal+0x3c>)
  40129a:	6a11      	ldr	r1, [r2, #32]
  40129c:	4b08      	ldr	r3, [pc, #32]	; (4012c0 <pmc_switch_mainck_to_xtal+0x48>)
  40129e:	430b      	orrs	r3, r1
  4012a0:	6213      	str	r3, [r2, #32]
  4012a2:	4770      	bx	lr
		PMC->CKGR_MOR = (PMC->CKGR_MOR & ~CKGR_MOR_MOSCXTEN) |
  4012a4:	4903      	ldr	r1, [pc, #12]	; (4012b4 <pmc_switch_mainck_to_xtal+0x3c>)
  4012a6:	6a0b      	ldr	r3, [r1, #32]
				CKGR_MOR_KEY_PASSWD | CKGR_MOR_MOSCXTBY |
  4012a8:	4a06      	ldr	r2, [pc, #24]	; (4012c4 <pmc_switch_mainck_to_xtal+0x4c>)
  4012aa:	401a      	ands	r2, r3
  4012ac:	4b06      	ldr	r3, [pc, #24]	; (4012c8 <pmc_switch_mainck_to_xtal+0x50>)
  4012ae:	4313      	orrs	r3, r2
		PMC->CKGR_MOR = (PMC->CKGR_MOR & ~CKGR_MOR_MOSCXTEN) |
  4012b0:	620b      	str	r3, [r1, #32]
  4012b2:	4770      	bx	lr
  4012b4:	400e0600 	.word	0x400e0600
  4012b8:	ffc8fffc 	.word	0xffc8fffc
  4012bc:	00370001 	.word	0x00370001
  4012c0:	01370000 	.word	0x01370000
  4012c4:	fec8fffc 	.word	0xfec8fffc
  4012c8:	01370002 	.word	0x01370002

004012cc <pmc_osc_is_ready_mainck>:
 * \retval 1 Xtal is ready.
 * \retval 0 Xtal is not ready.
 */
uint32_t pmc_osc_is_ready_mainck(void)
{
	return PMC->PMC_SR & PMC_SR_MOSCSELS;
  4012cc:	4b02      	ldr	r3, [pc, #8]	; (4012d8 <pmc_osc_is_ready_mainck+0xc>)
  4012ce:	6e98      	ldr	r0, [r3, #104]	; 0x68
}
  4012d0:	f400 3080 	and.w	r0, r0, #65536	; 0x10000
  4012d4:	4770      	bx	lr
  4012d6:	bf00      	nop
  4012d8:	400e0600 	.word	0x400e0600

004012dc <pmc_disable_pllack>:
void pmc_disable_pllack(void)
{
#if (SAM4C || SAM4CM || SAM4CP || SAMG)
	PMC->CKGR_PLLAR = CKGR_PLLAR_MULA(0);
#else
	PMC->CKGR_PLLAR = CKGR_PLLAR_ONE | CKGR_PLLAR_MULA(0);
  4012dc:	f04f 5200 	mov.w	r2, #536870912	; 0x20000000
  4012e0:	4b01      	ldr	r3, [pc, #4]	; (4012e8 <pmc_disable_pllack+0xc>)
  4012e2:	629a      	str	r2, [r3, #40]	; 0x28
  4012e4:	4770      	bx	lr
  4012e6:	bf00      	nop
  4012e8:	400e0600 	.word	0x400e0600

004012ec <pmc_is_locked_pllack>:
 * \retval 0 Not locked.
 * \retval 1 Locked.
 */
uint32_t pmc_is_locked_pllack(void)
{
	return (PMC->PMC_SR & PMC_SR_LOCKA);
  4012ec:	4b02      	ldr	r3, [pc, #8]	; (4012f8 <pmc_is_locked_pllack+0xc>)
  4012ee:	6e98      	ldr	r0, [r3, #104]	; 0x68
}
  4012f0:	f000 0002 	and.w	r0, r0, #2
  4012f4:	4770      	bx	lr
  4012f6:	bf00      	nop
  4012f8:	400e0600 	.word	0x400e0600

004012fc <pmc_enable_periph_clk>:
 * \retval 0 Success.
 * \retval 1 Invalid parameter.
 */
uint32_t pmc_enable_periph_clk(uint32_t ul_id)
{
	if (ul_id > MAX_PERIPH_ID) {
  4012fc:	283f      	cmp	r0, #63	; 0x3f
  4012fe:	d81e      	bhi.n	40133e <pmc_enable_periph_clk+0x42>
		return 1;
	}

	if (ul_id < 32) {
  401300:	281f      	cmp	r0, #31
  401302:	d80c      	bhi.n	40131e <pmc_enable_periph_clk+0x22>
		if ((PMC->PMC_PCSR0 & (1u << ul_id)) != (1u << ul_id)) {
  401304:	4b11      	ldr	r3, [pc, #68]	; (40134c <pmc_enable_periph_clk+0x50>)
  401306:	699a      	ldr	r2, [r3, #24]
  401308:	2301      	movs	r3, #1
  40130a:	4083      	lsls	r3, r0
  40130c:	4393      	bics	r3, r2
  40130e:	d018      	beq.n	401342 <pmc_enable_periph_clk+0x46>
			PMC->PMC_PCER0 = 1 << ul_id;
  401310:	2301      	movs	r3, #1
  401312:	fa03 f000 	lsl.w	r0, r3, r0
  401316:	4b0d      	ldr	r3, [pc, #52]	; (40134c <pmc_enable_periph_clk+0x50>)
  401318:	6118      	str	r0, [r3, #16]
			PMC->PMC_PCER1 = 1 << ul_id;
		}
#endif
	}

	return 0;
  40131a:	2000      	movs	r0, #0
  40131c:	4770      	bx	lr
		ul_id -= 32;
  40131e:	3820      	subs	r0, #32
		if ((PMC->PMC_PCSR1 & (1u << ul_id)) != (1u << ul_id)) {
  401320:	4b0a      	ldr	r3, [pc, #40]	; (40134c <pmc_enable_periph_clk+0x50>)
  401322:	f8d3 2108 	ldr.w	r2, [r3, #264]	; 0x108
  401326:	2301      	movs	r3, #1
  401328:	4083      	lsls	r3, r0
  40132a:	4393      	bics	r3, r2
  40132c:	d00b      	beq.n	401346 <pmc_enable_periph_clk+0x4a>
			PMC->PMC_PCER1 = 1 << ul_id;
  40132e:	2301      	movs	r3, #1
  401330:	fa03 f000 	lsl.w	r0, r3, r0
  401334:	4b05      	ldr	r3, [pc, #20]	; (40134c <pmc_enable_periph_clk+0x50>)
  401336:	f8c3 0100 	str.w	r0, [r3, #256]	; 0x100
	return 0;
  40133a:	2000      	movs	r0, #0
  40133c:	4770      	bx	lr
		return 1;
  40133e:	2001      	movs	r0, #1
  401340:	4770      	bx	lr
	return 0;
  401342:	2000      	movs	r0, #0
  401344:	4770      	bx	lr
  401346:	2000      	movs	r0, #0
}
  401348:	4770      	bx	lr
  40134a:	bf00      	nop
  40134c:	400e0600 	.word	0x400e0600

00401350 <spi_enable_clock>:
 * \brief Enable SPI clock.
 *
 * \param p_spi Pointer to an SPI instance.
 */
void spi_enable_clock(Spi *p_spi)
{
  401350:	b508      	push	{r3, lr}
#if (SAM4S || SAM3S || SAM3N || SAM3U || SAM4E || SAM4N || SAMG51|| SAMG53|| SAMG54)
	UNUSED(p_spi);
	sysclk_enable_peripheral_clock(ID_SPI);
#elif (SAM3XA || SAM4C || SAM4CP || SAM4CM || SAMV71 || SAMV70 || SAME70 || SAMS70)
	if (p_spi == SPI0) {
  401352:	4b07      	ldr	r3, [pc, #28]	; (401370 <spi_enable_clock+0x20>)
  401354:	4298      	cmp	r0, r3
  401356:	d003      	beq.n	401360 <spi_enable_clock+0x10>
		sysclk_enable_peripheral_clock(ID_SPI0);
	}
	#ifdef SPI1
	else if (p_spi == SPI1) {
  401358:	4b06      	ldr	r3, [pc, #24]	; (401374 <spi_enable_clock+0x24>)
  40135a:	4298      	cmp	r0, r3
  40135c:	d004      	beq.n	401368 <spi_enable_clock+0x18>
  40135e:	bd08      	pop	{r3, pc}
  401360:	2015      	movs	r0, #21
  401362:	4b05      	ldr	r3, [pc, #20]	; (401378 <spi_enable_clock+0x28>)
  401364:	4798      	blx	r3
  401366:	bd08      	pop	{r3, pc}
  401368:	202a      	movs	r0, #42	; 0x2a
  40136a:	4b03      	ldr	r3, [pc, #12]	; (401378 <spi_enable_clock+0x28>)
  40136c:	4798      	blx	r3
	}
	#endif
#elif SAM4L
	sysclk_enable_peripheral_clock(p_spi);
#endif
}
  40136e:	e7f6      	b.n	40135e <spi_enable_clock+0xe>
  401370:	40008000 	.word	0x40008000
  401374:	40058000 	.word	0x40058000
  401378:	004012fd 	.word	0x004012fd

0040137c <spi_set_peripheral_chip_select_value>:
 *                 \ref spi_enable_peripheral_select_decode,
 *                 \ref spi_disable_peripheral_select_decode.
 */
void spi_set_peripheral_chip_select_value(Spi *p_spi, uint32_t ul_value)
{
	p_spi->SPI_MR &= (~SPI_MR_PCS_Msk);
  40137c:	6843      	ldr	r3, [r0, #4]
  40137e:	f423 2370 	bic.w	r3, r3, #983040	; 0xf0000
  401382:	6043      	str	r3, [r0, #4]
	p_spi->SPI_MR |= SPI_MR_PCS(ul_value);
  401384:	6843      	ldr	r3, [r0, #4]
  401386:	0409      	lsls	r1, r1, #16
  401388:	f401 2170 	and.w	r1, r1, #983040	; 0xf0000
  40138c:	4319      	orrs	r1, r3
  40138e:	6041      	str	r1, [r0, #4]
  401390:	4770      	bx	lr

00401392 <spi_set_delay_between_chip_select>:
 * \param p_spi Pointer to an SPI instance.
 * \param ul_delay Delay between chip selects (in number of MCK clocks).
 */
void spi_set_delay_between_chip_select(Spi *p_spi, uint32_t ul_delay)
{
	p_spi->SPI_MR &= (~SPI_MR_DLYBCS_Msk);
  401392:	6843      	ldr	r3, [r0, #4]
  401394:	f023 437f 	bic.w	r3, r3, #4278190080	; 0xff000000
  401398:	6043      	str	r3, [r0, #4]
	p_spi->SPI_MR |= SPI_MR_DLYBCS(ul_delay);
  40139a:	6843      	ldr	r3, [r0, #4]
  40139c:	ea43 6101 	orr.w	r1, r3, r1, lsl #24
  4013a0:	6041      	str	r1, [r0, #4]
  4013a2:	4770      	bx	lr

004013a4 <spi_write>:
 * \retval SPI_OK on Success.
 * \retval SPI_ERROR_TIMEOUT on Time-out.
 */
spi_status_t spi_write(Spi *p_spi, uint16_t us_data,
		uint8_t uc_pcs, uint8_t uc_last)
{
  4013a4:	b430      	push	{r4, r5}
	uint32_t timeout = SPI_TIMEOUT;
	uint32_t value;

	while (!(p_spi->SPI_SR & SPI_SR_TDRE)) {
  4013a6:	f643 2499 	movw	r4, #15001	; 0x3a99
  4013aa:	6905      	ldr	r5, [r0, #16]
  4013ac:	f015 0f02 	tst.w	r5, #2
  4013b0:	d103      	bne.n	4013ba <spi_write+0x16>
		if (!timeout--) {
  4013b2:	3c01      	subs	r4, #1
  4013b4:	d1f9      	bne.n	4013aa <spi_write+0x6>
			return SPI_ERROR_TIMEOUT;
  4013b6:	2001      	movs	r0, #1
  4013b8:	e00c      	b.n	4013d4 <spi_write+0x30>
	if (p_spi->SPI_MR & SPI_MR_PS) {
  4013ba:	6844      	ldr	r4, [r0, #4]
		}
	}

	if (spi_get_peripheral_select_mode(p_spi)) {
  4013bc:	f014 0f02 	tst.w	r4, #2
  4013c0:	d006      	beq.n	4013d0 <spi_write+0x2c>
		value = SPI_TDR_TD(us_data) | SPI_TDR_PCS(uc_pcs);
  4013c2:	0412      	lsls	r2, r2, #16
  4013c4:	f402 2270 	and.w	r2, r2, #983040	; 0xf0000
  4013c8:	4311      	orrs	r1, r2
		if (uc_last) {
  4013ca:	b10b      	cbz	r3, 4013d0 <spi_write+0x2c>
			value |= SPI_TDR_LASTXFER;
  4013cc:	f041 7180 	orr.w	r1, r1, #16777216	; 0x1000000
		}
	} else {
		value = SPI_TDR_TD(us_data);
	}

	p_spi->SPI_TDR = value;
  4013d0:	60c1      	str	r1, [r0, #12]

	return SPI_OK;
  4013d2:	2000      	movs	r0, #0
}
  4013d4:	bc30      	pop	{r4, r5}
  4013d6:	4770      	bx	lr

004013d8 <spi_set_clock_polarity>:
 * \param ul_polarity Default clock state is logical one(high)/zero(low).
 */
void spi_set_clock_polarity(Spi *p_spi, uint32_t ul_pcs_ch,
		uint32_t ul_polarity)
{
	if (ul_polarity) {
  4013d8:	b932      	cbnz	r2, 4013e8 <spi_set_clock_polarity+0x10>
  4013da:	eb00 0081 	add.w	r0, r0, r1, lsl #2
		p_spi->SPI_CSR[ul_pcs_ch] |= SPI_CSR_CPOL;
	} else {
		p_spi->SPI_CSR[ul_pcs_ch] &= (~SPI_CSR_CPOL);
  4013de:	6b03      	ldr	r3, [r0, #48]	; 0x30
  4013e0:	f023 0301 	bic.w	r3, r3, #1
  4013e4:	6303      	str	r3, [r0, #48]	; 0x30
  4013e6:	4770      	bx	lr
  4013e8:	eb00 0081 	add.w	r0, r0, r1, lsl #2
		p_spi->SPI_CSR[ul_pcs_ch] |= SPI_CSR_CPOL;
  4013ec:	6b03      	ldr	r3, [r0, #48]	; 0x30
  4013ee:	f043 0301 	orr.w	r3, r3, #1
  4013f2:	6303      	str	r3, [r0, #48]	; 0x30
  4013f4:	4770      	bx	lr

004013f6 <spi_set_clock_phase>:
 *  \param ul_pcs_ch Peripheral Chip Select channel (0~3).
 *  \param ul_phase Data capture on the rising/falling edge of clock.
 */
void spi_set_clock_phase(Spi *p_spi, uint32_t ul_pcs_ch, uint32_t ul_phase)
{
	if (ul_phase) {
  4013f6:	b932      	cbnz	r2, 401406 <spi_set_clock_phase+0x10>
  4013f8:	eb00 0081 	add.w	r0, r0, r1, lsl #2
		p_spi->SPI_CSR[ul_pcs_ch] |= SPI_CSR_NCPHA;
	} else {
		p_spi->SPI_CSR[ul_pcs_ch] &= (~SPI_CSR_NCPHA);
  4013fc:	6b03      	ldr	r3, [r0, #48]	; 0x30
  4013fe:	f023 0302 	bic.w	r3, r3, #2
  401402:	6303      	str	r3, [r0, #48]	; 0x30
  401404:	4770      	bx	lr
  401406:	eb00 0081 	add.w	r0, r0, r1, lsl #2
		p_spi->SPI_CSR[ul_pcs_ch] |= SPI_CSR_NCPHA;
  40140a:	6b03      	ldr	r3, [r0, #48]	; 0x30
  40140c:	f043 0302 	orr.w	r3, r3, #2
  401410:	6303      	str	r3, [r0, #48]	; 0x30
  401412:	4770      	bx	lr

00401414 <spi_configure_cs_behavior>:
 * \param ul_cs_behavior Behavior of the Chip Select after transfer.
 */
void spi_configure_cs_behavior(Spi *p_spi, uint32_t ul_pcs_ch,
		uint32_t ul_cs_behavior)
{
	if (ul_cs_behavior == SPI_CS_RISE_FORCED) {
  401414:	2a04      	cmp	r2, #4
  401416:	d003      	beq.n	401420 <spi_configure_cs_behavior+0xc>
		p_spi->SPI_CSR[ul_pcs_ch] &= (~SPI_CSR_CSAAT);
		p_spi->SPI_CSR[ul_pcs_ch] |= SPI_CSR_CSNAAT;
	} else if (ul_cs_behavior == SPI_CS_RISE_NO_TX) {
  401418:	b16a      	cbz	r2, 401436 <spi_configure_cs_behavior+0x22>
		p_spi->SPI_CSR[ul_pcs_ch] &= (~SPI_CSR_CSAAT);
		p_spi->SPI_CSR[ul_pcs_ch] &= (~SPI_CSR_CSNAAT);
	} else if (ul_cs_behavior == SPI_CS_KEEP_LOW) {
  40141a:	2a08      	cmp	r2, #8
  40141c:	d016      	beq.n	40144c <spi_configure_cs_behavior+0x38>
  40141e:	4770      	bx	lr
  401420:	eb00 0081 	add.w	r0, r0, r1, lsl #2
		p_spi->SPI_CSR[ul_pcs_ch] &= (~SPI_CSR_CSAAT);
  401424:	6b03      	ldr	r3, [r0, #48]	; 0x30
  401426:	f023 0308 	bic.w	r3, r3, #8
  40142a:	6303      	str	r3, [r0, #48]	; 0x30
		p_spi->SPI_CSR[ul_pcs_ch] |= SPI_CSR_CSNAAT;
  40142c:	6b03      	ldr	r3, [r0, #48]	; 0x30
  40142e:	f043 0304 	orr.w	r3, r3, #4
  401432:	6303      	str	r3, [r0, #48]	; 0x30
  401434:	4770      	bx	lr
  401436:	eb00 0081 	add.w	r0, r0, r1, lsl #2
		p_spi->SPI_CSR[ul_pcs_ch] &= (~SPI_CSR_CSAAT);
  40143a:	6b03      	ldr	r3, [r0, #48]	; 0x30
  40143c:	f023 0308 	bic.w	r3, r3, #8
  401440:	6303      	str	r3, [r0, #48]	; 0x30
		p_spi->SPI_CSR[ul_pcs_ch] &= (~SPI_CSR_CSNAAT);
  401442:	6b03      	ldr	r3, [r0, #48]	; 0x30
  401444:	f023 0304 	bic.w	r3, r3, #4
  401448:	6303      	str	r3, [r0, #48]	; 0x30
  40144a:	4770      	bx	lr
  40144c:	eb00 0081 	add.w	r0, r0, r1, lsl #2
		p_spi->SPI_CSR[ul_pcs_ch] |= SPI_CSR_CSAAT;
  401450:	6b03      	ldr	r3, [r0, #48]	; 0x30
  401452:	f043 0308 	orr.w	r3, r3, #8
  401456:	6303      	str	r3, [r0, #48]	; 0x30
	}
}
  401458:	e7e1      	b.n	40141e <spi_configure_cs_behavior+0xa>

0040145a <spi_set_bits_per_transfer>:
 * \param ul_bits Number of bits (8~16), use the pattern defined
 *        in the device header file.
 */
void spi_set_bits_per_transfer(Spi *p_spi, uint32_t ul_pcs_ch,
		uint32_t ul_bits)
{
  40145a:	eb00 0181 	add.w	r1, r0, r1, lsl #2
	p_spi->SPI_CSR[ul_pcs_ch] &= (~SPI_CSR_BITS_Msk);
  40145e:	6b0b      	ldr	r3, [r1, #48]	; 0x30
  401460:	f023 03f0 	bic.w	r3, r3, #240	; 0xf0
  401464:	630b      	str	r3, [r1, #48]	; 0x30
	p_spi->SPI_CSR[ul_pcs_ch] |= ul_bits;
  401466:	6b0b      	ldr	r3, [r1, #48]	; 0x30
  401468:	431a      	orrs	r2, r3
  40146a:	630a      	str	r2, [r1, #48]	; 0x30
  40146c:	4770      	bx	lr

0040146e <spi_calc_baudrate_div>:
 *   \retval > 0  Success.
 *   \retval < 0  Error.
 */
int16_t spi_calc_baudrate_div(const uint32_t baudrate, uint32_t mck)
{
	int baud_div = div_ceil(mck, baudrate);
  40146e:	1e43      	subs	r3, r0, #1
  401470:	4419      	add	r1, r3
  401472:	fbb1 f0f0 	udiv	r0, r1, r0

	/* The value of baud_div is from 1 to 255 in the SCBR field. */
	if (baud_div <= 0 || baud_div > 255) {
  401476:	1e43      	subs	r3, r0, #1
  401478:	2bfe      	cmp	r3, #254	; 0xfe
		return -1;
	}

	return baud_div;
  40147a:	bf94      	ite	ls
  40147c:	b200      	sxthls	r0, r0
		return -1;
  40147e:	f04f 30ff 	movhi.w	r0, #4294967295
}
  401482:	4770      	bx	lr

00401484 <spi_set_baudrate_div>:
 */
int16_t spi_set_baudrate_div(Spi *p_spi, uint32_t ul_pcs_ch,
		uint8_t uc_baudrate_divider)
{
    /* Programming the SCBR field to 0 is forbidden */
    if (!uc_baudrate_divider)
  401484:	b17a      	cbz	r2, 4014a6 <spi_set_baudrate_div+0x22>
{
  401486:	b410      	push	{r4}
  401488:	4614      	mov	r4, r2
  40148a:	eb00 0181 	add.w	r1, r0, r1, lsl #2
        return -1;

	p_spi->SPI_CSR[ul_pcs_ch] &= (~SPI_CSR_SCBR_Msk);
  40148e:	6b0b      	ldr	r3, [r1, #48]	; 0x30
  401490:	f423 437f 	bic.w	r3, r3, #65280	; 0xff00
  401494:	630b      	str	r3, [r1, #48]	; 0x30
	p_spi->SPI_CSR[ul_pcs_ch] |= SPI_CSR_SCBR(uc_baudrate_divider);
  401496:	6b0a      	ldr	r2, [r1, #48]	; 0x30
  401498:	ea42 2204 	orr.w	r2, r2, r4, lsl #8
  40149c:	630a      	str	r2, [r1, #48]	; 0x30
    return 0;
  40149e:	2000      	movs	r0, #0
}
  4014a0:	f85d 4b04 	ldr.w	r4, [sp], #4
  4014a4:	4770      	bx	lr
        return -1;
  4014a6:	f04f 30ff 	mov.w	r0, #4294967295
  4014aa:	4770      	bx	lr

004014ac <spi_set_transfer_delay>:
 * \param uc_dlybs Delay before SPCK (in number of MCK clocks).
 * \param uc_dlybct Delay between consecutive transfers (in number of MCK clocks).
 */
void spi_set_transfer_delay(Spi *p_spi, uint32_t ul_pcs_ch,
		uint8_t uc_dlybs, uint8_t uc_dlybct)
{
  4014ac:	b410      	push	{r4}
  4014ae:	eb00 0181 	add.w	r1, r0, r1, lsl #2
	p_spi->SPI_CSR[ul_pcs_ch] &= ~(SPI_CSR_DLYBS_Msk | SPI_CSR_DLYBCT_Msk);
  4014b2:	6b08      	ldr	r0, [r1, #48]	; 0x30
  4014b4:	b280      	uxth	r0, r0
  4014b6:	6308      	str	r0, [r1, #48]	; 0x30
	p_spi->SPI_CSR[ul_pcs_ch] |= SPI_CSR_DLYBS(uc_dlybs)
  4014b8:	6b0c      	ldr	r4, [r1, #48]	; 0x30
  4014ba:	ea44 6303 	orr.w	r3, r4, r3, lsl #24
  4014be:	ea43 4302 	orr.w	r3, r3, r2, lsl #16
  4014c2:	630b      	str	r3, [r1, #48]	; 0x30
			| SPI_CSR_DLYBCT(uc_dlybct);
}
  4014c4:	f85d 4b04 	ldr.w	r4, [sp], #4
  4014c8:	4770      	bx	lr

004014ca <uart_write>:
 * \retval 1 I/O Failure, UART is not ready.
 */
uint32_t uart_write(Uart *p_uart, const uint8_t uc_data)
{
	/* Check if the transmitter is ready */
	if (!(p_uart->UART_SR & UART_SR_TXRDY))
  4014ca:	6943      	ldr	r3, [r0, #20]
  4014cc:	f013 0f02 	tst.w	r3, #2
  4014d0:	d002      	beq.n	4014d8 <uart_write+0xe>
		return 1;

	/* Send character */
	p_uart->UART_THR = uc_data;
  4014d2:	61c1      	str	r1, [r0, #28]
	return 0;
  4014d4:	2000      	movs	r0, #0
  4014d6:	4770      	bx	lr
		return 1;
  4014d8:	2001      	movs	r0, #1
}
  4014da:	4770      	bx	lr

004014dc <uart_read>:
 * \retval 1 I/O Failure, UART is not ready.
 */
uint32_t uart_read(Uart *p_uart, uint8_t *puc_data)
{
	/* Check if the receiver is ready */
	if ((p_uart->UART_SR & UART_SR_RXRDY) == 0)
  4014dc:	6943      	ldr	r3, [r0, #20]
  4014de:	f013 0f01 	tst.w	r3, #1
  4014e2:	d003      	beq.n	4014ec <uart_read+0x10>
		return 1;

	/* Read character */
	*puc_data = (uint8_t) p_uart->UART_RHR;
  4014e4:	6983      	ldr	r3, [r0, #24]
  4014e6:	700b      	strb	r3, [r1, #0]
	return 0;
  4014e8:	2000      	movs	r0, #0
  4014ea:	4770      	bx	lr
		return 1;
  4014ec:	2001      	movs	r0, #1
}
  4014ee:	4770      	bx	lr

004014f0 <usart_set_async_baudrate>:
 * \retval 1 Baud rate set point is out of range for the given input clock
 * frequency.
 */
uint32_t usart_set_async_baudrate(Usart *p_usart,
		uint32_t baudrate, uint32_t ul_mck)
{
  4014f0:	b410      	push	{r4}
	uint32_t cd_fp;
	uint32_t cd;
	uint32_t fp;

	/* Calculate the receiver sampling divide of baudrate clock. */
	if (ul_mck >= HIGH_FRQ_SAMPLE_DIV * baudrate) {
  4014f2:	010b      	lsls	r3, r1, #4
  4014f4:	4293      	cmp	r3, r2
  4014f6:	d914      	bls.n	401522 <usart_set_async_baudrate+0x32>
	} else {
		over = LOW_FRQ_SAMPLE_DIV;
	}

	/* Calculate clock divider according to the fraction calculated formula. */
	cd_fp = (8 * ul_mck + (over * baudrate) / 2) / (over * baudrate);
  4014f8:	00c9      	lsls	r1, r1, #3
  4014fa:	084b      	lsrs	r3, r1, #1
  4014fc:	eb03 02c2 	add.w	r2, r3, r2, lsl #3
  401500:	fbb2 f2f1 	udiv	r2, r2, r1
	cd = cd_fp >> 3;
  401504:	08d3      	lsrs	r3, r2, #3
	fp = cd_fp & 0x07;
	if (cd < MIN_CD_VALUE || cd > MAX_CD_VALUE) {
  401506:	1e5c      	subs	r4, r3, #1
  401508:	f64f 71fe 	movw	r1, #65534	; 0xfffe
  40150c:	428c      	cmp	r4, r1
  40150e:	d901      	bls.n	401514 <usart_set_async_baudrate+0x24>
		return 1;
  401510:	2001      	movs	r0, #1
  401512:	e017      	b.n	401544 <usart_set_async_baudrate+0x54>
	}

	/* Configure the OVER bit in MR register. */
	if (over == 8) {
		p_usart->US_MR |= US_MR_OVER;
  401514:	6841      	ldr	r1, [r0, #4]
  401516:	f441 2100 	orr.w	r1, r1, #524288	; 0x80000
  40151a:	6041      	str	r1, [r0, #4]
  40151c:	e00c      	b.n	401538 <usart_set_async_baudrate+0x48>
		return 1;
  40151e:	2001      	movs	r0, #1
  401520:	e010      	b.n	401544 <usart_set_async_baudrate+0x54>
	cd_fp = (8 * ul_mck + (over * baudrate) / 2) / (over * baudrate);
  401522:	0859      	lsrs	r1, r3, #1
  401524:	eb01 02c2 	add.w	r2, r1, r2, lsl #3
  401528:	fbb2 f2f3 	udiv	r2, r2, r3
	cd = cd_fp >> 3;
  40152c:	08d3      	lsrs	r3, r2, #3
	if (cd < MIN_CD_VALUE || cd > MAX_CD_VALUE) {
  40152e:	1e5c      	subs	r4, r3, #1
  401530:	f64f 71fe 	movw	r1, #65534	; 0xfffe
  401534:	428c      	cmp	r4, r1
  401536:	d8f2      	bhi.n	40151e <usart_set_async_baudrate+0x2e>
	}

	/* Configure the baudrate generate register. */
	p_usart->US_BRGR = (cd << US_BRGR_CD_Pos) | (fp << US_BRGR_FP_Pos);
  401538:	0412      	lsls	r2, r2, #16
  40153a:	f402 22e0 	and.w	r2, r2, #458752	; 0x70000
  40153e:	431a      	orrs	r2, r3
  401540:	6202      	str	r2, [r0, #32]

	return 0;
  401542:	2000      	movs	r0, #0
}
  401544:	f85d 4b04 	ldr.w	r4, [sp], #4
  401548:	4770      	bx	lr
	...

0040154c <usart_reset>:
 *
 * \param p_usart Pointer to a USART instance.
 */
void usart_disable_writeprotect(Usart *p_usart)
{
	p_usart->US_WPMR = US_WPMR_WPKEY_PASSWD;
  40154c:	4b08      	ldr	r3, [pc, #32]	; (401570 <usart_reset+0x24>)
  40154e:	f8c0 30e4 	str.w	r3, [r0, #228]	; 0xe4
	p_usart->US_MR = 0;
  401552:	2300      	movs	r3, #0
  401554:	6043      	str	r3, [r0, #4]
	p_usart->US_RTOR = 0;
  401556:	6243      	str	r3, [r0, #36]	; 0x24
	p_usart->US_TTGR = 0;
  401558:	6283      	str	r3, [r0, #40]	; 0x28
	p_usart->US_CR = US_CR_RSTTX | US_CR_TXDIS;
  40155a:	2388      	movs	r3, #136	; 0x88
  40155c:	6003      	str	r3, [r0, #0]
	p_usart->US_CR = US_CR_RSTRX | US_CR_RXDIS;
  40155e:	2324      	movs	r3, #36	; 0x24
  401560:	6003      	str	r3, [r0, #0]
	p_usart->US_CR = US_CR_RSTSTA;
  401562:	f44f 7380 	mov.w	r3, #256	; 0x100
  401566:	6003      	str	r3, [r0, #0]
	p_usart->US_CR = US_CR_RTSDIS;
  401568:	f44f 2300 	mov.w	r3, #524288	; 0x80000
  40156c:	6003      	str	r3, [r0, #0]
  40156e:	4770      	bx	lr
  401570:	55534100 	.word	0x55534100

00401574 <usart_init_rs232>:
{
  401574:	b570      	push	{r4, r5, r6, lr}
  401576:	4605      	mov	r5, r0
  401578:	460c      	mov	r4, r1
  40157a:	4616      	mov	r6, r2
	usart_reset(p_usart);
  40157c:	4b0f      	ldr	r3, [pc, #60]	; (4015bc <usart_init_rs232+0x48>)
  40157e:	4798      	blx	r3
	ul_reg_val = 0;
  401580:	2200      	movs	r2, #0
  401582:	4b0f      	ldr	r3, [pc, #60]	; (4015c0 <usart_init_rs232+0x4c>)
  401584:	601a      	str	r2, [r3, #0]
	if (!p_usart_opt || usart_set_async_baudrate(p_usart,
  401586:	b1a4      	cbz	r4, 4015b2 <usart_init_rs232+0x3e>
  401588:	4632      	mov	r2, r6
  40158a:	6821      	ldr	r1, [r4, #0]
  40158c:	4628      	mov	r0, r5
  40158e:	4b0d      	ldr	r3, [pc, #52]	; (4015c4 <usart_init_rs232+0x50>)
  401590:	4798      	blx	r3
  401592:	4602      	mov	r2, r0
  401594:	b978      	cbnz	r0, 4015b6 <usart_init_rs232+0x42>
	ul_reg_val |= p_usart_opt->char_length | p_usart_opt->parity_type |
  401596:	6863      	ldr	r3, [r4, #4]
  401598:	68a1      	ldr	r1, [r4, #8]
  40159a:	430b      	orrs	r3, r1
  40159c:	6921      	ldr	r1, [r4, #16]
  40159e:	430b      	orrs	r3, r1
			p_usart_opt->channel_mode | p_usart_opt->stop_bits;
  4015a0:	68e1      	ldr	r1, [r4, #12]
  4015a2:	430b      	orrs	r3, r1
	ul_reg_val |= p_usart_opt->char_length | p_usart_opt->parity_type |
  4015a4:	4906      	ldr	r1, [pc, #24]	; (4015c0 <usart_init_rs232+0x4c>)
  4015a6:	600b      	str	r3, [r1, #0]
	p_usart->US_MR |= ul_reg_val;
  4015a8:	6869      	ldr	r1, [r5, #4]
  4015aa:	430b      	orrs	r3, r1
  4015ac:	606b      	str	r3, [r5, #4]
}
  4015ae:	4610      	mov	r0, r2
  4015b0:	bd70      	pop	{r4, r5, r6, pc}
		return 1;
  4015b2:	2201      	movs	r2, #1
  4015b4:	e7fb      	b.n	4015ae <usart_init_rs232+0x3a>
  4015b6:	2201      	movs	r2, #1
  4015b8:	e7f9      	b.n	4015ae <usart_init_rs232+0x3a>
  4015ba:	bf00      	nop
  4015bc:	0040154d 	.word	0x0040154d
  4015c0:	20400e10 	.word	0x20400e10
  4015c4:	004014f1 	.word	0x004014f1

004015c8 <usart_enable_tx>:
	p_usart->US_CR = US_CR_TXEN;
  4015c8:	2340      	movs	r3, #64	; 0x40
  4015ca:	6003      	str	r3, [r0, #0]
  4015cc:	4770      	bx	lr

004015ce <usart_enable_rx>:
	p_usart->US_CR = US_CR_RXEN;
  4015ce:	2310      	movs	r3, #16
  4015d0:	6003      	str	r3, [r0, #0]
  4015d2:	4770      	bx	lr

004015d4 <usart_write>:
	if (!(p_usart->US_CSR & US_CSR_TXRDY)) {
  4015d4:	6943      	ldr	r3, [r0, #20]
  4015d6:	f013 0f02 	tst.w	r3, #2
  4015da:	d004      	beq.n	4015e6 <usart_write+0x12>
	p_usart->US_THR = US_THR_TXCHR(c);
  4015dc:	f3c1 0108 	ubfx	r1, r1, #0, #9
  4015e0:	61c1      	str	r1, [r0, #28]
	return 0;
  4015e2:	2000      	movs	r0, #0
  4015e4:	4770      	bx	lr
		return 1;
  4015e6:	2001      	movs	r0, #1
}
  4015e8:	4770      	bx	lr

004015ea <usart_read>:
	if (!(p_usart->US_CSR & US_CSR_RXRDY)) {
  4015ea:	6943      	ldr	r3, [r0, #20]
  4015ec:	f013 0f01 	tst.w	r3, #1
  4015f0:	d005      	beq.n	4015fe <usart_read+0x14>
	*c = p_usart->US_RHR & US_RHR_RXCHR_Msk;
  4015f2:	6983      	ldr	r3, [r0, #24]
  4015f4:	f3c3 0308 	ubfx	r3, r3, #0, #9
  4015f8:	600b      	str	r3, [r1, #0]
	return 0;
  4015fa:	2000      	movs	r0, #0
  4015fc:	4770      	bx	lr
		return 1;
  4015fe:	2001      	movs	r0, #1
}
  401600:	4770      	bx	lr

00401602 <Dummy_Handler>:

/**
 * \brief Default interrupt handler for unused IRQs.
 */
void Dummy_Handler(void)
{
  401602:	e7fe      	b.n	401602 <Dummy_Handler>

00401604 <Reset_Handler>:
{
  401604:	b500      	push	{lr}
  401606:	b083      	sub	sp, #12
        if (pSrc != pDest) {
  401608:	4b25      	ldr	r3, [pc, #148]	; (4016a0 <Reset_Handler+0x9c>)
  40160a:	4a26      	ldr	r2, [pc, #152]	; (4016a4 <Reset_Handler+0xa0>)
  40160c:	429a      	cmp	r2, r3
  40160e:	d010      	beq.n	401632 <Reset_Handler+0x2e>
                for (; pDest < &_erelocate;) {
  401610:	4b25      	ldr	r3, [pc, #148]	; (4016a8 <Reset_Handler+0xa4>)
  401612:	4a23      	ldr	r2, [pc, #140]	; (4016a0 <Reset_Handler+0x9c>)
  401614:	429a      	cmp	r2, r3
  401616:	d20c      	bcs.n	401632 <Reset_Handler+0x2e>
  401618:	3b01      	subs	r3, #1
  40161a:	1a9b      	subs	r3, r3, r2
  40161c:	f023 0303 	bic.w	r3, r3, #3
  401620:	3304      	adds	r3, #4
  401622:	4413      	add	r3, r2
  401624:	491f      	ldr	r1, [pc, #124]	; (4016a4 <Reset_Handler+0xa0>)
                        *pDest++ = *pSrc++;
  401626:	f851 0b04 	ldr.w	r0, [r1], #4
  40162a:	f842 0b04 	str.w	r0, [r2], #4
                for (; pDest < &_erelocate;) {
  40162e:	429a      	cmp	r2, r3
  401630:	d1f9      	bne.n	401626 <Reset_Handler+0x22>
        for (pDest = &_szero; pDest < &_ezero;) {
  401632:	4b1e      	ldr	r3, [pc, #120]	; (4016ac <Reset_Handler+0xa8>)
  401634:	4a1e      	ldr	r2, [pc, #120]	; (4016b0 <Reset_Handler+0xac>)
  401636:	429a      	cmp	r2, r3
  401638:	d20a      	bcs.n	401650 <Reset_Handler+0x4c>
  40163a:	3b01      	subs	r3, #1
  40163c:	1a9b      	subs	r3, r3, r2
  40163e:	f023 0303 	bic.w	r3, r3, #3
  401642:	3304      	adds	r3, #4
  401644:	4413      	add	r3, r2
                *pDest++ = 0;
  401646:	2100      	movs	r1, #0
  401648:	f842 1b04 	str.w	r1, [r2], #4
        for (pDest = &_szero; pDest < &_ezero;) {
  40164c:	4293      	cmp	r3, r2
  40164e:	d1fb      	bne.n	401648 <Reset_Handler+0x44>
        SCB->VTOR = ((uint32_t) pSrc & SCB_VTOR_TBLOFF_Msk);
  401650:	4a18      	ldr	r2, [pc, #96]	; (4016b4 <Reset_Handler+0xb0>)
  401652:	4b19      	ldr	r3, [pc, #100]	; (4016b8 <Reset_Handler+0xb4>)
  401654:	f023 037f 	bic.w	r3, r3, #127	; 0x7f
  401658:	6093      	str	r3, [r2, #8]
 */
__attribute__( ( always_inline ) ) __STATIC_INLINE uint32_t __get_PRIMASK(void)
{
  uint32_t result;

  __ASM volatile ("MRS %0, primask" : "=r" (result) );
  40165a:	f3ef 8310 	mrs	r3, PRIMASK
static volatile uint32_t cpu_irq_critical_section_counter;
static volatile bool     cpu_irq_prev_interrupt_state;

static inline irqflags_t cpu_irq_save(void)
{
	volatile irqflags_t flags = cpu_irq_is_enabled();
  40165e:	fab3 f383 	clz	r3, r3
  401662:	095b      	lsrs	r3, r3, #5
  401664:	9301      	str	r3, [sp, #4]
  __ASM volatile ("cpsid i" : : : "memory");
  401666:	b672      	cpsid	i
  __ASM volatile ("dmb");
  401668:	f3bf 8f5f 	dmb	sy
	cpu_irq_disable();
  40166c:	2200      	movs	r2, #0
  40166e:	4b13      	ldr	r3, [pc, #76]	; (4016bc <Reset_Handler+0xb8>)
  401670:	701a      	strb	r2, [r3, #0]
	return flags;
  401672:	9901      	ldr	r1, [sp, #4]
 */
__always_inline static void fpu_enable(void)
{
	irqflags_t flags;
	flags = cpu_irq_save();
	REG_CPACR |=  (0xFu << 20);
  401674:	4a12      	ldr	r2, [pc, #72]	; (4016c0 <Reset_Handler+0xbc>)
  401676:	6813      	ldr	r3, [r2, #0]
  401678:	f443 0370 	orr.w	r3, r3, #15728640	; 0xf00000
  40167c:	6013      	str	r3, [r2, #0]
  __ASM volatile ("dsb");
  40167e:	f3bf 8f4f 	dsb	sy
  __ASM volatile ("isb");
  401682:	f3bf 8f6f 	isb	sy
	return (flags);
}

static inline void cpu_irq_restore(irqflags_t flags)
{
	if (cpu_irq_is_enabled_flags(flags))
  401686:	b129      	cbz	r1, 401694 <Reset_Handler+0x90>
		cpu_irq_enable();
  401688:	2201      	movs	r2, #1
  40168a:	4b0c      	ldr	r3, [pc, #48]	; (4016bc <Reset_Handler+0xb8>)
  40168c:	701a      	strb	r2, [r3, #0]
  __ASM volatile ("dmb");
  40168e:	f3bf 8f5f 	dmb	sy
  __ASM volatile ("cpsie i" : : : "memory");
  401692:	b662      	cpsie	i
        __libc_init_array();
  401694:	4b0b      	ldr	r3, [pc, #44]	; (4016c4 <Reset_Handler+0xc0>)
  401696:	4798      	blx	r3
        main();
  401698:	4b0b      	ldr	r3, [pc, #44]	; (4016c8 <Reset_Handler+0xc4>)
  40169a:	4798      	blx	r3
  40169c:	e7fe      	b.n	40169c <Reset_Handler+0x98>
  40169e:	bf00      	nop
  4016a0:	20400000 	.word	0x20400000
  4016a4:	0042704c 	.word	0x0042704c
  4016a8:	204009c0 	.word	0x204009c0
  4016ac:	20400e98 	.word	0x20400e98
  4016b0:	204009c0 	.word	0x204009c0
  4016b4:	e000ed00 	.word	0xe000ed00
  4016b8:	00400000 	.word	0x00400000
  4016bc:	2040000a 	.word	0x2040000a
  4016c0:	e000ed88 	.word	0xe000ed88
  4016c4:	00402999 	.word	0x00402999
  4016c8:	00401bc5 	.word	0x00401bc5

004016cc <SystemCoreClockUpdate>:
}

void SystemCoreClockUpdate( void )
{
  /* Determine clock frequency according to clock register values */
  switch (PMC->PMC_MCKR & (uint32_t) PMC_MCKR_CSS_Msk)
  4016cc:	4b3b      	ldr	r3, [pc, #236]	; (4017bc <SystemCoreClockUpdate+0xf0>)
  4016ce:	6b1b      	ldr	r3, [r3, #48]	; 0x30
  4016d0:	f003 0303 	and.w	r3, r3, #3
  4016d4:	2b01      	cmp	r3, #1
  4016d6:	d01d      	beq.n	401714 <SystemCoreClockUpdate+0x48>
  4016d8:	b183      	cbz	r3, 4016fc <SystemCoreClockUpdate+0x30>
  4016da:	2b02      	cmp	r3, #2
  4016dc:	d036      	beq.n	40174c <SystemCoreClockUpdate+0x80>

    default:
    break;
  }

  if ( (PMC->PMC_MCKR & PMC_MCKR_PRES_Msk) == PMC_MCKR_PRES_CLK_3 )
  4016de:	4b37      	ldr	r3, [pc, #220]	; (4017bc <SystemCoreClockUpdate+0xf0>)
  4016e0:	6b1b      	ldr	r3, [r3, #48]	; 0x30
  4016e2:	f003 0370 	and.w	r3, r3, #112	; 0x70
  4016e6:	2b70      	cmp	r3, #112	; 0x70
  4016e8:	d05f      	beq.n	4017aa <SystemCoreClockUpdate+0xde>
  {
    SystemCoreClock /= 3U;
  }
  else
  {
    SystemCoreClock >>= ((PMC->PMC_MCKR & PMC_MCKR_PRES_Msk) >> PMC_MCKR_PRES_Pos);
  4016ea:	4b34      	ldr	r3, [pc, #208]	; (4017bc <SystemCoreClockUpdate+0xf0>)
  4016ec:	6b1a      	ldr	r2, [r3, #48]	; 0x30
  4016ee:	4934      	ldr	r1, [pc, #208]	; (4017c0 <SystemCoreClockUpdate+0xf4>)
  4016f0:	f3c2 1202 	ubfx	r2, r2, #4, #3
  4016f4:	680b      	ldr	r3, [r1, #0]
  4016f6:	40d3      	lsrs	r3, r2
  4016f8:	600b      	str	r3, [r1, #0]
  4016fa:	4770      	bx	lr
      if ( SUPC->SUPC_SR & SUPC_SR_OSCSEL )
  4016fc:	4b31      	ldr	r3, [pc, #196]	; (4017c4 <SystemCoreClockUpdate+0xf8>)
  4016fe:	695b      	ldr	r3, [r3, #20]
  401700:	f013 0f80 	tst.w	r3, #128	; 0x80
        SystemCoreClock = CHIP_FREQ_XTAL_32K;
  401704:	bf14      	ite	ne
  401706:	f44f 4200 	movne.w	r2, #32768	; 0x8000
        SystemCoreClock = CHIP_FREQ_SLCK_RC;
  40170a:	f44f 42fa 	moveq.w	r2, #32000	; 0x7d00
  40170e:	4b2c      	ldr	r3, [pc, #176]	; (4017c0 <SystemCoreClockUpdate+0xf4>)
  401710:	601a      	str	r2, [r3, #0]
  401712:	e7e4      	b.n	4016de <SystemCoreClockUpdate+0x12>
      if ( PMC->CKGR_MOR & CKGR_MOR_MOSCSEL )
  401714:	4b29      	ldr	r3, [pc, #164]	; (4017bc <SystemCoreClockUpdate+0xf0>)
  401716:	6a1b      	ldr	r3, [r3, #32]
  401718:	f013 7f80 	tst.w	r3, #16777216	; 0x1000000
  40171c:	d003      	beq.n	401726 <SystemCoreClockUpdate+0x5a>
        SystemCoreClock = CHIP_FREQ_XTAL_12M;
  40171e:	4a2a      	ldr	r2, [pc, #168]	; (4017c8 <SystemCoreClockUpdate+0xfc>)
  401720:	4b27      	ldr	r3, [pc, #156]	; (4017c0 <SystemCoreClockUpdate+0xf4>)
  401722:	601a      	str	r2, [r3, #0]
  401724:	e7db      	b.n	4016de <SystemCoreClockUpdate+0x12>
        SystemCoreClock = CHIP_FREQ_MAINCK_RC_4MHZ;
  401726:	4a29      	ldr	r2, [pc, #164]	; (4017cc <SystemCoreClockUpdate+0x100>)
  401728:	4b25      	ldr	r3, [pc, #148]	; (4017c0 <SystemCoreClockUpdate+0xf4>)
  40172a:	601a      	str	r2, [r3, #0]
        switch ( PMC->CKGR_MOR & CKGR_MOR_MOSCRCF_Msk )
  40172c:	4b23      	ldr	r3, [pc, #140]	; (4017bc <SystemCoreClockUpdate+0xf0>)
  40172e:	6a1b      	ldr	r3, [r3, #32]
  401730:	f003 0370 	and.w	r3, r3, #112	; 0x70
  401734:	2b10      	cmp	r3, #16
  401736:	d005      	beq.n	401744 <SystemCoreClockUpdate+0x78>
  401738:	2b20      	cmp	r3, #32
  40173a:	d1d0      	bne.n	4016de <SystemCoreClockUpdate+0x12>
            SystemCoreClock *= 3U;
  40173c:	4a22      	ldr	r2, [pc, #136]	; (4017c8 <SystemCoreClockUpdate+0xfc>)
  40173e:	4b20      	ldr	r3, [pc, #128]	; (4017c0 <SystemCoreClockUpdate+0xf4>)
  401740:	601a      	str	r2, [r3, #0]
          break;
  401742:	e7cc      	b.n	4016de <SystemCoreClockUpdate+0x12>
            SystemCoreClock *= 2U;
  401744:	4a22      	ldr	r2, [pc, #136]	; (4017d0 <SystemCoreClockUpdate+0x104>)
  401746:	4b1e      	ldr	r3, [pc, #120]	; (4017c0 <SystemCoreClockUpdate+0xf4>)
  401748:	601a      	str	r2, [r3, #0]
          break;
  40174a:	e7c8      	b.n	4016de <SystemCoreClockUpdate+0x12>
      if ( PMC->CKGR_MOR & CKGR_MOR_MOSCSEL )
  40174c:	4b1b      	ldr	r3, [pc, #108]	; (4017bc <SystemCoreClockUpdate+0xf0>)
  40174e:	6a1b      	ldr	r3, [r3, #32]
  401750:	f013 7f80 	tst.w	r3, #16777216	; 0x1000000
  401754:	d016      	beq.n	401784 <SystemCoreClockUpdate+0xb8>
        SystemCoreClock = CHIP_FREQ_XTAL_12M ;
  401756:	4a1c      	ldr	r2, [pc, #112]	; (4017c8 <SystemCoreClockUpdate+0xfc>)
  401758:	4b19      	ldr	r3, [pc, #100]	; (4017c0 <SystemCoreClockUpdate+0xf4>)
  40175a:	601a      	str	r2, [r3, #0]
      if ( (uint32_t) (PMC->PMC_MCKR & (uint32_t) PMC_MCKR_CSS_Msk) == PMC_MCKR_CSS_PLLA_CLK )
  40175c:	4b17      	ldr	r3, [pc, #92]	; (4017bc <SystemCoreClockUpdate+0xf0>)
  40175e:	6b1b      	ldr	r3, [r3, #48]	; 0x30
  401760:	f003 0303 	and.w	r3, r3, #3
  401764:	2b02      	cmp	r3, #2
  401766:	d1ba      	bne.n	4016de <SystemCoreClockUpdate+0x12>
        SystemCoreClock *= ((((PMC->CKGR_PLLAR) & CKGR_PLLAR_MULA_Msk) >> CKGR_PLLAR_MULA_Pos) + 1U);
  401768:	4a14      	ldr	r2, [pc, #80]	; (4017bc <SystemCoreClockUpdate+0xf0>)
  40176a:	6a91      	ldr	r1, [r2, #40]	; 0x28
        SystemCoreClock /= ((((PMC->CKGR_PLLAR) & CKGR_PLLAR_DIVA_Msk) >> CKGR_PLLAR_DIVA_Pos));
  40176c:	6a92      	ldr	r2, [r2, #40]	; 0x28
  40176e:	4814      	ldr	r0, [pc, #80]	; (4017c0 <SystemCoreClockUpdate+0xf4>)
        SystemCoreClock *= ((((PMC->CKGR_PLLAR) & CKGR_PLLAR_MULA_Msk) >> CKGR_PLLAR_MULA_Pos) + 1U);
  401770:	f3c1 410a 	ubfx	r1, r1, #16, #11
  401774:	6803      	ldr	r3, [r0, #0]
  401776:	fb01 3303 	mla	r3, r1, r3, r3
        SystemCoreClock /= ((((PMC->CKGR_PLLAR) & CKGR_PLLAR_DIVA_Msk) >> CKGR_PLLAR_DIVA_Pos));
  40177a:	b2d2      	uxtb	r2, r2
  40177c:	fbb3 f3f2 	udiv	r3, r3, r2
  401780:	6003      	str	r3, [r0, #0]
  401782:	e7ac      	b.n	4016de <SystemCoreClockUpdate+0x12>
        SystemCoreClock = CHIP_FREQ_MAINCK_RC_4MHZ;
  401784:	4a11      	ldr	r2, [pc, #68]	; (4017cc <SystemCoreClockUpdate+0x100>)
  401786:	4b0e      	ldr	r3, [pc, #56]	; (4017c0 <SystemCoreClockUpdate+0xf4>)
  401788:	601a      	str	r2, [r3, #0]
        switch ( PMC->CKGR_MOR & CKGR_MOR_MOSCRCF_Msk )
  40178a:	4b0c      	ldr	r3, [pc, #48]	; (4017bc <SystemCoreClockUpdate+0xf0>)
  40178c:	6a1b      	ldr	r3, [r3, #32]
  40178e:	f003 0370 	and.w	r3, r3, #112	; 0x70
  401792:	2b10      	cmp	r3, #16
  401794:	d005      	beq.n	4017a2 <SystemCoreClockUpdate+0xd6>
  401796:	2b20      	cmp	r3, #32
  401798:	d1e0      	bne.n	40175c <SystemCoreClockUpdate+0x90>
            SystemCoreClock *= 3U;
  40179a:	4a0b      	ldr	r2, [pc, #44]	; (4017c8 <SystemCoreClockUpdate+0xfc>)
  40179c:	4b08      	ldr	r3, [pc, #32]	; (4017c0 <SystemCoreClockUpdate+0xf4>)
  40179e:	601a      	str	r2, [r3, #0]
          break;
  4017a0:	e7dc      	b.n	40175c <SystemCoreClockUpdate+0x90>
            SystemCoreClock *= 2U;
  4017a2:	4a0b      	ldr	r2, [pc, #44]	; (4017d0 <SystemCoreClockUpdate+0x104>)
  4017a4:	4b06      	ldr	r3, [pc, #24]	; (4017c0 <SystemCoreClockUpdate+0xf4>)
  4017a6:	601a      	str	r2, [r3, #0]
          break;
  4017a8:	e7d8      	b.n	40175c <SystemCoreClockUpdate+0x90>
    SystemCoreClock /= 3U;
  4017aa:	4a05      	ldr	r2, [pc, #20]	; (4017c0 <SystemCoreClockUpdate+0xf4>)
  4017ac:	6813      	ldr	r3, [r2, #0]
  4017ae:	4909      	ldr	r1, [pc, #36]	; (4017d4 <SystemCoreClockUpdate+0x108>)
  4017b0:	fba1 1303 	umull	r1, r3, r1, r3
  4017b4:	085b      	lsrs	r3, r3, #1
  4017b6:	6013      	str	r3, [r2, #0]
  4017b8:	4770      	bx	lr
  4017ba:	bf00      	nop
  4017bc:	400e0600 	.word	0x400e0600
  4017c0:	2040000c 	.word	0x2040000c
  4017c4:	400e1810 	.word	0x400e1810
  4017c8:	00b71b00 	.word	0x00b71b00
  4017cc:	003d0900 	.word	0x003d0900
  4017d0:	007a1200 	.word	0x007a1200
  4017d4:	aaaaaaab 	.word	0xaaaaaaab

004017d8 <system_init_flash>:
 * Initialize flash.
 */
void system_init_flash( uint32_t ul_clk )
{
  /* Set FWS for embedded Flash access according to operating frequency */
  if ( ul_clk < CHIP_FREQ_FWS_0 )
  4017d8:	4b12      	ldr	r3, [pc, #72]	; (401824 <system_init_flash+0x4c>)
  4017da:	4298      	cmp	r0, r3
  4017dc:	d911      	bls.n	401802 <system_init_flash+0x2a>
  {
    EFC->EEFC_FMR = EEFC_FMR_FWS(0)|EEFC_FMR_CLOE;
  }
  else
  {
    if (ul_clk < CHIP_FREQ_FWS_1)
  4017de:	4b12      	ldr	r3, [pc, #72]	; (401828 <system_init_flash+0x50>)
  4017e0:	4298      	cmp	r0, r3
  4017e2:	d913      	bls.n	40180c <system_init_flash+0x34>
    {
      EFC->EEFC_FMR = EEFC_FMR_FWS(1)|EEFC_FMR_CLOE;
    }
    else
    {
      if (ul_clk < CHIP_FREQ_FWS_2)
  4017e4:	4b11      	ldr	r3, [pc, #68]	; (40182c <system_init_flash+0x54>)
  4017e6:	4298      	cmp	r0, r3
  4017e8:	d914      	bls.n	401814 <system_init_flash+0x3c>
      {
        EFC->EEFC_FMR = EEFC_FMR_FWS(2)|EEFC_FMR_CLOE;
      }
      else
      {
        if ( ul_clk < CHIP_FREQ_FWS_3 )
  4017ea:	4b11      	ldr	r3, [pc, #68]	; (401830 <system_init_flash+0x58>)
  4017ec:	4298      	cmp	r0, r3
  4017ee:	d915      	bls.n	40181c <system_init_flash+0x44>
        {
          EFC->EEFC_FMR = EEFC_FMR_FWS(3)|EEFC_FMR_CLOE;
        }
        else
        {
          if ( ul_clk < CHIP_FREQ_FWS_4 )
  4017f0:	4b10      	ldr	r3, [pc, #64]	; (401834 <system_init_flash+0x5c>)
  4017f2:	4298      	cmp	r0, r3
          {
            EFC->EEFC_FMR = EEFC_FMR_FWS(4)|EEFC_FMR_CLOE;
  4017f4:	bf94      	ite	ls
  4017f6:	f04f 2204 	movls.w	r2, #67109888	; 0x4000400
          }
          else
          {
            EFC->EEFC_FMR = EEFC_FMR_FWS(5)|EEFC_FMR_CLOE;
  4017fa:	4a0f      	ldrhi	r2, [pc, #60]	; (401838 <system_init_flash+0x60>)
  4017fc:	4b0f      	ldr	r3, [pc, #60]	; (40183c <system_init_flash+0x64>)
  4017fe:	601a      	str	r2, [r3, #0]
  401800:	4770      	bx	lr
    EFC->EEFC_FMR = EEFC_FMR_FWS(0)|EEFC_FMR_CLOE;
  401802:	f04f 6280 	mov.w	r2, #67108864	; 0x4000000
  401806:	4b0d      	ldr	r3, [pc, #52]	; (40183c <system_init_flash+0x64>)
  401808:	601a      	str	r2, [r3, #0]
  40180a:	4770      	bx	lr
      EFC->EEFC_FMR = EEFC_FMR_FWS(1)|EEFC_FMR_CLOE;
  40180c:	4a0c      	ldr	r2, [pc, #48]	; (401840 <system_init_flash+0x68>)
  40180e:	4b0b      	ldr	r3, [pc, #44]	; (40183c <system_init_flash+0x64>)
  401810:	601a      	str	r2, [r3, #0]
  401812:	4770      	bx	lr
        EFC->EEFC_FMR = EEFC_FMR_FWS(2)|EEFC_FMR_CLOE;
  401814:	4a0b      	ldr	r2, [pc, #44]	; (401844 <system_init_flash+0x6c>)
  401816:	4b09      	ldr	r3, [pc, #36]	; (40183c <system_init_flash+0x64>)
  401818:	601a      	str	r2, [r3, #0]
  40181a:	4770      	bx	lr
          EFC->EEFC_FMR = EEFC_FMR_FWS(3)|EEFC_FMR_CLOE;
  40181c:	4a0a      	ldr	r2, [pc, #40]	; (401848 <system_init_flash+0x70>)
  40181e:	4b07      	ldr	r3, [pc, #28]	; (40183c <system_init_flash+0x64>)
  401820:	601a      	str	r2, [r3, #0]
  401822:	4770      	bx	lr
  401824:	01312cff 	.word	0x01312cff
  401828:	026259ff 	.word	0x026259ff
  40182c:	039386ff 	.word	0x039386ff
  401830:	04c4b3ff 	.word	0x04c4b3ff
  401834:	05f5e0ff 	.word	0x05f5e0ff
  401838:	04000500 	.word	0x04000500
  40183c:	400e0c00 	.word	0x400e0c00
  401840:	04000100 	.word	0x04000100
  401844:	04000200 	.word	0x04000200
  401848:	04000300 	.word	0x04000300

0040184c <_sbrk>:
{
	static unsigned char *heap = NULL;
	unsigned char *prev_heap;
	int ramend = (int)&__ram_end__;

	if (heap == NULL) {
  40184c:	4b0a      	ldr	r3, [pc, #40]	; (401878 <_sbrk+0x2c>)
  40184e:	681b      	ldr	r3, [r3, #0]
  401850:	b153      	cbz	r3, 401868 <_sbrk+0x1c>
		heap = (unsigned char *)&_end;
	}
	prev_heap = heap;
  401852:	4b09      	ldr	r3, [pc, #36]	; (401878 <_sbrk+0x2c>)
  401854:	681b      	ldr	r3, [r3, #0]

	if (((int)prev_heap + incr) > ramend) {
  401856:	181a      	adds	r2, r3, r0
  401858:	4908      	ldr	r1, [pc, #32]	; (40187c <_sbrk+0x30>)
  40185a:	4291      	cmp	r1, r2
  40185c:	db08      	blt.n	401870 <_sbrk+0x24>
		return (caddr_t) -1;	
	}

	heap += incr;
  40185e:	4610      	mov	r0, r2
  401860:	4a05      	ldr	r2, [pc, #20]	; (401878 <_sbrk+0x2c>)
  401862:	6010      	str	r0, [r2, #0]

	return (caddr_t) prev_heap;
  401864:	4618      	mov	r0, r3
  401866:	4770      	bx	lr
		heap = (unsigned char *)&_end;
  401868:	4a05      	ldr	r2, [pc, #20]	; (401880 <_sbrk+0x34>)
  40186a:	4b03      	ldr	r3, [pc, #12]	; (401878 <_sbrk+0x2c>)
  40186c:	601a      	str	r2, [r3, #0]
  40186e:	e7f0      	b.n	401852 <_sbrk+0x6>
		return (caddr_t) -1;	
  401870:	f04f 30ff 	mov.w	r0, #4294967295
}
  401874:	4770      	bx	lr
  401876:	bf00      	nop
  401878:	20400e14 	.word	0x20400e14
  40187c:	2045fffc 	.word	0x2045fffc
  401880:	20403098 	.word	0x20403098

00401884 <_close>:
}

extern int _close(int file)
{
	return -1;
}
  401884:	f04f 30ff 	mov.w	r0, #4294967295
  401888:	4770      	bx	lr

0040188a <_fstat>:

extern int _fstat(int file, struct stat *st)
{
	st->st_mode = S_IFCHR;
  40188a:	f44f 5300 	mov.w	r3, #8192	; 0x2000
  40188e:	604b      	str	r3, [r1, #4]

	return 0;
}
  401890:	2000      	movs	r0, #0
  401892:	4770      	bx	lr

00401894 <_isatty>:

extern int _isatty(int file)
{
	return 1;
}
  401894:	2001      	movs	r0, #1
  401896:	4770      	bx	lr

00401898 <_lseek>:

extern int _lseek(int file, int ptr, int dir)
{
	return 0;
}
  401898:	2000      	movs	r0, #0
  40189a:	4770      	bx	lr

0040189c <but_callBack>:
 */
volatile but_flag = false;
volatile but_2_flag = false;

void but_callBack(void){
	but_flag = true;
  40189c:	2201      	movs	r2, #1
  40189e:	4b01      	ldr	r3, [pc, #4]	; (4018a4 <but_callBack+0x8>)
  4018a0:	601a      	str	r2, [r3, #0]
  4018a2:	4770      	bx	lr
  4018a4:	20400e1c 	.word	0x20400e1c

004018a8 <but_2_callBack>:
}

void but_2_callBack(void){
	but_2_flag = true;
  4018a8:	2201      	movs	r2, #1
  4018aa:	4b01      	ldr	r3, [pc, #4]	; (4018b0 <but_2_callBack+0x8>)
  4018ac:	601a      	str	r2, [r3, #0]
  4018ae:	4770      	bx	lr
  4018b0:	20400e18 	.word	0x20400e18

004018b4 <usart_serial_getchar>:
 * \param p_usart   Base address of the USART instance.
 * \param data   Data to read
 *
 */
static inline void usart_serial_getchar(usart_if p_usart, uint8_t *data)
{
  4018b4:	b5f0      	push	{r4, r5, r6, r7, lr}
  4018b6:	b083      	sub	sp, #12
  4018b8:	4605      	mov	r5, r0
  4018ba:	460c      	mov	r4, r1
	uint32_t val = 0;
  4018bc:	2300      	movs	r3, #0
  4018be:	9301      	str	r3, [sp, #4]
	if (UART == (Uart*)p_usart) {
		while (uart_read((Uart*)p_usart, data));
	}
#else
# ifdef UART0
	if (UART0 == (Uart*)p_usart) {
  4018c0:	4b2a      	ldr	r3, [pc, #168]	; (40196c <usart_serial_getchar+0xb8>)
  4018c2:	4298      	cmp	r0, r3
  4018c4:	d013      	beq.n	4018ee <usart_serial_getchar+0x3a>
		while (uart_read((Uart*)p_usart, data));
	}
# endif
# ifdef UART1
	if (UART1 == (Uart*)p_usart) {
  4018c6:	4b2a      	ldr	r3, [pc, #168]	; (401970 <usart_serial_getchar+0xbc>)
  4018c8:	4298      	cmp	r0, r3
  4018ca:	d018      	beq.n	4018fe <usart_serial_getchar+0x4a>
		while (uart_read((Uart*)p_usart, data));
	}
# endif
# ifdef UART2
	if (UART2 == (Uart*)p_usart) {
  4018cc:	4b29      	ldr	r3, [pc, #164]	; (401974 <usart_serial_getchar+0xc0>)
  4018ce:	4298      	cmp	r0, r3
  4018d0:	d01d      	beq.n	40190e <usart_serial_getchar+0x5a>
		while (uart_read((Uart*)p_usart, data));
	}
# endif
# ifdef UART3
	if (UART3 == (Uart*)p_usart) {
  4018d2:	4b29      	ldr	r3, [pc, #164]	; (401978 <usart_serial_getchar+0xc4>)
  4018d4:	429d      	cmp	r5, r3
  4018d6:	d022      	beq.n	40191e <usart_serial_getchar+0x6a>
		while (usart_read(p_usart, &val));
		*data = (uint8_t)(val & 0xFF);
	}
#else
# ifdef USART0
	if (USART0 == p_usart) {
  4018d8:	4b28      	ldr	r3, [pc, #160]	; (40197c <usart_serial_getchar+0xc8>)
  4018da:	429d      	cmp	r5, r3
  4018dc:	d027      	beq.n	40192e <usart_serial_getchar+0x7a>
		while (usart_read(p_usart, &val));
		*data = (uint8_t)(val & 0xFF);
	}
# endif
# ifdef USART1
	if (USART1 == p_usart) {
  4018de:	4b28      	ldr	r3, [pc, #160]	; (401980 <usart_serial_getchar+0xcc>)
  4018e0:	429d      	cmp	r5, r3
  4018e2:	d02e      	beq.n	401942 <usart_serial_getchar+0x8e>
		while (usart_read(p_usart, &val));
		*data = (uint8_t)(val & 0xFF);
	}
# endif
# ifdef USART2
	if (USART2 == p_usart) {
  4018e4:	4b27      	ldr	r3, [pc, #156]	; (401984 <usart_serial_getchar+0xd0>)
  4018e6:	429d      	cmp	r5, r3
  4018e8:	d035      	beq.n	401956 <usart_serial_getchar+0xa2>
		*data = (uint8_t)(val & 0xFF);
	}
# endif
#endif /* ifdef USART */

}
  4018ea:	b003      	add	sp, #12
  4018ec:	bdf0      	pop	{r4, r5, r6, r7, pc}
		while (uart_read((Uart*)p_usart, data));
  4018ee:	461f      	mov	r7, r3
  4018f0:	4e25      	ldr	r6, [pc, #148]	; (401988 <usart_serial_getchar+0xd4>)
  4018f2:	4621      	mov	r1, r4
  4018f4:	4638      	mov	r0, r7
  4018f6:	47b0      	blx	r6
  4018f8:	2800      	cmp	r0, #0
  4018fa:	d1fa      	bne.n	4018f2 <usart_serial_getchar+0x3e>
  4018fc:	e7e9      	b.n	4018d2 <usart_serial_getchar+0x1e>
		while (uart_read((Uart*)p_usart, data));
  4018fe:	461f      	mov	r7, r3
  401900:	4e21      	ldr	r6, [pc, #132]	; (401988 <usart_serial_getchar+0xd4>)
  401902:	4621      	mov	r1, r4
  401904:	4638      	mov	r0, r7
  401906:	47b0      	blx	r6
  401908:	2800      	cmp	r0, #0
  40190a:	d1fa      	bne.n	401902 <usart_serial_getchar+0x4e>
  40190c:	e7e4      	b.n	4018d8 <usart_serial_getchar+0x24>
		while (uart_read((Uart*)p_usart, data));
  40190e:	461f      	mov	r7, r3
  401910:	4e1d      	ldr	r6, [pc, #116]	; (401988 <usart_serial_getchar+0xd4>)
  401912:	4621      	mov	r1, r4
  401914:	4638      	mov	r0, r7
  401916:	47b0      	blx	r6
  401918:	2800      	cmp	r0, #0
  40191a:	d1fa      	bne.n	401912 <usart_serial_getchar+0x5e>
  40191c:	e7df      	b.n	4018de <usart_serial_getchar+0x2a>
		while (uart_read((Uart*)p_usart, data));
  40191e:	461f      	mov	r7, r3
  401920:	4e19      	ldr	r6, [pc, #100]	; (401988 <usart_serial_getchar+0xd4>)
  401922:	4621      	mov	r1, r4
  401924:	4638      	mov	r0, r7
  401926:	47b0      	blx	r6
  401928:	2800      	cmp	r0, #0
  40192a:	d1fa      	bne.n	401922 <usart_serial_getchar+0x6e>
  40192c:	e7da      	b.n	4018e4 <usart_serial_getchar+0x30>
		while (usart_read(p_usart, &val));
  40192e:	461e      	mov	r6, r3
  401930:	4d16      	ldr	r5, [pc, #88]	; (40198c <usart_serial_getchar+0xd8>)
  401932:	a901      	add	r1, sp, #4
  401934:	4630      	mov	r0, r6
  401936:	47a8      	blx	r5
  401938:	2800      	cmp	r0, #0
  40193a:	d1fa      	bne.n	401932 <usart_serial_getchar+0x7e>
		*data = (uint8_t)(val & 0xFF);
  40193c:	9b01      	ldr	r3, [sp, #4]
  40193e:	7023      	strb	r3, [r4, #0]
  401940:	e7d3      	b.n	4018ea <usart_serial_getchar+0x36>
		while (usart_read(p_usart, &val));
  401942:	461e      	mov	r6, r3
  401944:	4d11      	ldr	r5, [pc, #68]	; (40198c <usart_serial_getchar+0xd8>)
  401946:	a901      	add	r1, sp, #4
  401948:	4630      	mov	r0, r6
  40194a:	47a8      	blx	r5
  40194c:	2800      	cmp	r0, #0
  40194e:	d1fa      	bne.n	401946 <usart_serial_getchar+0x92>
		*data = (uint8_t)(val & 0xFF);
  401950:	9b01      	ldr	r3, [sp, #4]
  401952:	7023      	strb	r3, [r4, #0]
  401954:	e7c9      	b.n	4018ea <usart_serial_getchar+0x36>
		while (usart_read(p_usart, &val));
  401956:	461e      	mov	r6, r3
  401958:	4d0c      	ldr	r5, [pc, #48]	; (40198c <usart_serial_getchar+0xd8>)
  40195a:	a901      	add	r1, sp, #4
  40195c:	4630      	mov	r0, r6
  40195e:	47a8      	blx	r5
  401960:	2800      	cmp	r0, #0
  401962:	d1fa      	bne.n	40195a <usart_serial_getchar+0xa6>
		*data = (uint8_t)(val & 0xFF);
  401964:	9b01      	ldr	r3, [sp, #4]
  401966:	7023      	strb	r3, [r4, #0]
}
  401968:	e7bf      	b.n	4018ea <usart_serial_getchar+0x36>
  40196a:	bf00      	nop
  40196c:	400e0800 	.word	0x400e0800
  401970:	400e0a00 	.word	0x400e0a00
  401974:	400e1a00 	.word	0x400e1a00
  401978:	400e1c00 	.word	0x400e1c00
  40197c:	40024000 	.word	0x40024000
  401980:	40028000 	.word	0x40028000
  401984:	4002c000 	.word	0x4002c000
  401988:	004014dd 	.word	0x004014dd
  40198c:	004015eb 	.word	0x004015eb

00401990 <usart_serial_putchar>:
{
  401990:	b570      	push	{r4, r5, r6, lr}
  401992:	460c      	mov	r4, r1
	if (UART0 == (Uart*)p_usart) {
  401994:	4b2a      	ldr	r3, [pc, #168]	; (401a40 <usart_serial_putchar+0xb0>)
  401996:	4298      	cmp	r0, r3
  401998:	d013      	beq.n	4019c2 <usart_serial_putchar+0x32>
	if (UART1 == (Uart*)p_usart) {
  40199a:	4b2a      	ldr	r3, [pc, #168]	; (401a44 <usart_serial_putchar+0xb4>)
  40199c:	4298      	cmp	r0, r3
  40199e:	d019      	beq.n	4019d4 <usart_serial_putchar+0x44>
	if (UART2 == (Uart*)p_usart) {
  4019a0:	4b29      	ldr	r3, [pc, #164]	; (401a48 <usart_serial_putchar+0xb8>)
  4019a2:	4298      	cmp	r0, r3
  4019a4:	d01f      	beq.n	4019e6 <usart_serial_putchar+0x56>
	if (UART3 == (Uart*)p_usart) {
  4019a6:	4b29      	ldr	r3, [pc, #164]	; (401a4c <usart_serial_putchar+0xbc>)
  4019a8:	4298      	cmp	r0, r3
  4019aa:	d025      	beq.n	4019f8 <usart_serial_putchar+0x68>
	if (USART0 == p_usart) {
  4019ac:	4b28      	ldr	r3, [pc, #160]	; (401a50 <usart_serial_putchar+0xc0>)
  4019ae:	4298      	cmp	r0, r3
  4019b0:	d02b      	beq.n	401a0a <usart_serial_putchar+0x7a>
	if (USART1 == p_usart) {
  4019b2:	4b28      	ldr	r3, [pc, #160]	; (401a54 <usart_serial_putchar+0xc4>)
  4019b4:	4298      	cmp	r0, r3
  4019b6:	d031      	beq.n	401a1c <usart_serial_putchar+0x8c>
	if (USART2 == p_usart) {
  4019b8:	4b27      	ldr	r3, [pc, #156]	; (401a58 <usart_serial_putchar+0xc8>)
  4019ba:	4298      	cmp	r0, r3
  4019bc:	d037      	beq.n	401a2e <usart_serial_putchar+0x9e>
	return 0;
  4019be:	2000      	movs	r0, #0
}
  4019c0:	bd70      	pop	{r4, r5, r6, pc}
		while (uart_write((Uart*)p_usart, c)!=0);
  4019c2:	461e      	mov	r6, r3
  4019c4:	4d25      	ldr	r5, [pc, #148]	; (401a5c <usart_serial_putchar+0xcc>)
  4019c6:	4621      	mov	r1, r4
  4019c8:	4630      	mov	r0, r6
  4019ca:	47a8      	blx	r5
  4019cc:	2800      	cmp	r0, #0
  4019ce:	d1fa      	bne.n	4019c6 <usart_serial_putchar+0x36>
		return 1;
  4019d0:	2001      	movs	r0, #1
  4019d2:	bd70      	pop	{r4, r5, r6, pc}
		while (uart_write((Uart*)p_usart, c)!=0);
  4019d4:	461e      	mov	r6, r3
  4019d6:	4d21      	ldr	r5, [pc, #132]	; (401a5c <usart_serial_putchar+0xcc>)
  4019d8:	4621      	mov	r1, r4
  4019da:	4630      	mov	r0, r6
  4019dc:	47a8      	blx	r5
  4019de:	2800      	cmp	r0, #0
  4019e0:	d1fa      	bne.n	4019d8 <usart_serial_putchar+0x48>
		return 1;
  4019e2:	2001      	movs	r0, #1
  4019e4:	bd70      	pop	{r4, r5, r6, pc}
		while (uart_write((Uart*)p_usart, c)!=0);
  4019e6:	461e      	mov	r6, r3
  4019e8:	4d1c      	ldr	r5, [pc, #112]	; (401a5c <usart_serial_putchar+0xcc>)
  4019ea:	4621      	mov	r1, r4
  4019ec:	4630      	mov	r0, r6
  4019ee:	47a8      	blx	r5
  4019f0:	2800      	cmp	r0, #0
  4019f2:	d1fa      	bne.n	4019ea <usart_serial_putchar+0x5a>
		return 1;
  4019f4:	2001      	movs	r0, #1
  4019f6:	bd70      	pop	{r4, r5, r6, pc}
		while (uart_write((Uart*)p_usart, c)!=0);
  4019f8:	461e      	mov	r6, r3
  4019fa:	4d18      	ldr	r5, [pc, #96]	; (401a5c <usart_serial_putchar+0xcc>)
  4019fc:	4621      	mov	r1, r4
  4019fe:	4630      	mov	r0, r6
  401a00:	47a8      	blx	r5
  401a02:	2800      	cmp	r0, #0
  401a04:	d1fa      	bne.n	4019fc <usart_serial_putchar+0x6c>
		return 1;
  401a06:	2001      	movs	r0, #1
  401a08:	bd70      	pop	{r4, r5, r6, pc}
		while (usart_write(p_usart, c)!=0);
  401a0a:	461e      	mov	r6, r3
  401a0c:	4d14      	ldr	r5, [pc, #80]	; (401a60 <usart_serial_putchar+0xd0>)
  401a0e:	4621      	mov	r1, r4
  401a10:	4630      	mov	r0, r6
  401a12:	47a8      	blx	r5
  401a14:	2800      	cmp	r0, #0
  401a16:	d1fa      	bne.n	401a0e <usart_serial_putchar+0x7e>
		return 1;
  401a18:	2001      	movs	r0, #1
  401a1a:	bd70      	pop	{r4, r5, r6, pc}
		while (usart_write(p_usart, c)!=0);
  401a1c:	461e      	mov	r6, r3
  401a1e:	4d10      	ldr	r5, [pc, #64]	; (401a60 <usart_serial_putchar+0xd0>)
  401a20:	4621      	mov	r1, r4
  401a22:	4630      	mov	r0, r6
  401a24:	47a8      	blx	r5
  401a26:	2800      	cmp	r0, #0
  401a28:	d1fa      	bne.n	401a20 <usart_serial_putchar+0x90>
		return 1;
  401a2a:	2001      	movs	r0, #1
  401a2c:	bd70      	pop	{r4, r5, r6, pc}
		while (usart_write(p_usart, c)!=0);
  401a2e:	461e      	mov	r6, r3
  401a30:	4d0b      	ldr	r5, [pc, #44]	; (401a60 <usart_serial_putchar+0xd0>)
  401a32:	4621      	mov	r1, r4
  401a34:	4630      	mov	r0, r6
  401a36:	47a8      	blx	r5
  401a38:	2800      	cmp	r0, #0
  401a3a:	d1fa      	bne.n	401a32 <usart_serial_putchar+0xa2>
		return 1;
  401a3c:	2001      	movs	r0, #1
  401a3e:	bd70      	pop	{r4, r5, r6, pc}
  401a40:	400e0800 	.word	0x400e0800
  401a44:	400e0a00 	.word	0x400e0a00
  401a48:	400e1a00 	.word	0x400e1a00
  401a4c:	400e1c00 	.word	0x400e1c00
  401a50:	40024000 	.word	0x40024000
  401a54:	40028000 	.word	0x40028000
  401a58:	4002c000 	.word	0x4002c000
  401a5c:	004014cb 	.word	0x004014cb
  401a60:	004015d5 	.word	0x004015d5

00401a64 <pisca_led>:
}

void pisca_led(int delay){
  401a64:	e92d 43f8 	stmdb	sp!, {r3, r4, r5, r6, r7, r8, r9, lr}
  401a68:	4607      	mov	r7, r0
	
	for (int i = 0; i < 10; i++){
		
		pio_set(PIOC, LED_PIO_PIN_MASK);
		
		delay_ms(delay);
  401a6a:	17c5      	asrs	r5, r0, #31
  401a6c:	4b1b      	ldr	r3, [pc, #108]	; (401adc <pisca_led+0x78>)
  401a6e:	fba0 0103 	umull	r0, r1, r0, r3
  401a72:	fb03 1105 	mla	r1, r3, r5, r1
  401a76:	f241 722c 	movw	r2, #5932	; 0x172c
  401a7a:	2300      	movs	r3, #0
  401a7c:	f241 742b 	movw	r4, #5931	; 0x172b
  401a80:	2500      	movs	r5, #0
  401a82:	1900      	adds	r0, r0, r4
  401a84:	4169      	adcs	r1, r5
  401a86:	4c16      	ldr	r4, [pc, #88]	; (401ae0 <pisca_led+0x7c>)
  401a88:	47a0      	blx	r4
  401a8a:	4681      	mov	r9, r0
  401a8c:	240a      	movs	r4, #10
		pio_set(PIOC, LED_PIO_PIN_MASK);
  401a8e:	4d15      	ldr	r5, [pc, #84]	; (401ae4 <pisca_led+0x80>)
  401a90:	f8df 805c 	ldr.w	r8, [pc, #92]	; 401af0 <pisca_led+0x8c>
		delay_ms(delay);
  401a94:	4e14      	ldr	r6, [pc, #80]	; (401ae8 <pisca_led+0x84>)
  401a96:	e00a      	b.n	401aae <pisca_led+0x4a>
  401a98:	2033      	movs	r0, #51	; 0x33
  401a9a:	47b0      	blx	r6

		pio_clear(PIOC, LED_PIO_PIN_MASK);
  401a9c:	f44f 7180 	mov.w	r1, #256	; 0x100
  401aa0:	4628      	mov	r0, r5
  401aa2:	4b12      	ldr	r3, [pc, #72]	; (401aec <pisca_led+0x88>)
  401aa4:	4798      	blx	r3
		delay_ms(delay);
  401aa6:	2033      	movs	r0, #51	; 0x33
  401aa8:	47b0      	blx	r6
	for (int i = 0; i < 10; i++){
  401aaa:	3c01      	subs	r4, #1
  401aac:	d00f      	beq.n	401ace <pisca_led+0x6a>
		pio_set(PIOC, LED_PIO_PIN_MASK);
  401aae:	f44f 7180 	mov.w	r1, #256	; 0x100
  401ab2:	4628      	mov	r0, r5
  401ab4:	47c0      	blx	r8
		delay_ms(delay);
  401ab6:	2f00      	cmp	r7, #0
  401ab8:	d0ee      	beq.n	401a98 <pisca_led+0x34>
  401aba:	4648      	mov	r0, r9
  401abc:	47b0      	blx	r6
		pio_clear(PIOC, LED_PIO_PIN_MASK);
  401abe:	f44f 7180 	mov.w	r1, #256	; 0x100
  401ac2:	4628      	mov	r0, r5
  401ac4:	4b09      	ldr	r3, [pc, #36]	; (401aec <pisca_led+0x88>)
  401ac6:	4798      	blx	r3
		delay_ms(delay);
  401ac8:	4648      	mov	r0, r9
  401aca:	47b0      	blx	r6
  401acc:	e7ed      	b.n	401aaa <pisca_led+0x46>
	}
	pio_set(PIOC, LED_PIO_PIN_MASK);
  401ace:	f44f 7180 	mov.w	r1, #256	; 0x100
  401ad2:	4804      	ldr	r0, [pc, #16]	; (401ae4 <pisca_led+0x80>)
  401ad4:	4b06      	ldr	r3, [pc, #24]	; (401af0 <pisca_led+0x8c>)
  401ad6:	4798      	blx	r3
  401ad8:	e8bd 83f8 	ldmia.w	sp!, {r3, r4, r5, r6, r7, r8, r9, pc}
  401adc:	11e1a300 	.word	0x11e1a300
  401ae0:	00402689 	.word	0x00402689
  401ae4:	400e1200 	.word	0x400e1200
  401ae8:	20400001 	.word	0x20400001
  401aec:	00400d8d 	.word	0x00400d8d
  401af0:	00400d89 	.word	0x00400d89
  401af4:	00000000 	.word	0x00000000

00401af8 <print>:
}

void print(t){
  401af8:	b5f0      	push	{r4, r5, r6, r7, lr}
  401afa:	b0c1      	sub	sp, #260	; 0x104
  401afc:	4606      	mov	r6, r0
	
	uint8_t stingLCD[256];
	
	float frequency = 1.0/(t*0.001);
	
	ili9488_set_foreground_color(COLOR_CONVERT(COLOR_WHITE));
  401afe:	4f24      	ldr	r7, [pc, #144]	; (401b90 <print+0x98>)
  401b00:	4638      	mov	r0, r7
  401b02:	4c24      	ldr	r4, [pc, #144]	; (401b94 <print+0x9c>)
  401b04:	47a0      	blx	r4
	
	ili9488_draw_filled_rectangle(0, 300, ILI9488_LCD_WIDTH-1, 315);
  401b06:	f240 133b 	movw	r3, #315	; 0x13b
  401b0a:	f240 123f 	movw	r2, #319	; 0x13f
  401b0e:	f44f 7196 	mov.w	r1, #300	; 0x12c
  401b12:	2000      	movs	r0, #0
  401b14:	4d20      	ldr	r5, [pc, #128]	; (401b98 <print+0xa0>)
  401b16:	47a8      	blx	r5
	
	ili9488_set_foreground_color(COLOR_CONVERT(COLOR_BLACK));
  401b18:	2000      	movs	r0, #0
  401b1a:	47a0      	blx	r4
	
	ili9488_set_foreground_color(COLOR_CONVERT(COLOR_WHITE));
  401b1c:	4638      	mov	r0, r7
  401b1e:	47a0      	blx	r4
	
	ili9488_draw_filled_rectangle(0, 280, ILI9488_LCD_WIDTH-1, 315);
  401b20:	f240 133b 	movw	r3, #315	; 0x13b
  401b24:	f240 123f 	movw	r2, #319	; 0x13f
  401b28:	f44f 718c 	mov.w	r1, #280	; 0x118
  401b2c:	2000      	movs	r0, #0
  401b2e:	47a8      	blx	r5
	
	ili9488_set_foreground_color(COLOR_CONVERT(COLOR_BLACK));
  401b30:	2000      	movs	r0, #0
  401b32:	47a0      	blx	r4
	float frequency = 1.0/(t*0.001);
  401b34:	4630      	mov	r0, r6
  401b36:	4b19      	ldr	r3, [pc, #100]	; (401b9c <print+0xa4>)
  401b38:	4798      	blx	r3
  401b3a:	a313      	add	r3, pc, #76	; (adr r3, 401b88 <print+0x90>)
  401b3c:	e9d3 2300 	ldrd	r2, r3, [r3]
  401b40:	4c17      	ldr	r4, [pc, #92]	; (401ba0 <print+0xa8>)
  401b42:	47a0      	blx	r4
  401b44:	4602      	mov	r2, r0
  401b46:	460b      	mov	r3, r1
  401b48:	2000      	movs	r0, #0
  401b4a:	4916      	ldr	r1, [pc, #88]	; (401ba4 <print+0xac>)
  401b4c:	4c16      	ldr	r4, [pc, #88]	; (401ba8 <print+0xb0>)
  401b4e:	47a0      	blx	r4
  401b50:	4b16      	ldr	r3, [pc, #88]	; (401bac <print+0xb4>)
  401b52:	4798      	blx	r3
	
	
	sprintf(stingLCD, "Frequency: %.3f Hz", frequency);
  401b54:	4b16      	ldr	r3, [pc, #88]	; (401bb0 <print+0xb8>)
  401b56:	4798      	blx	r3
  401b58:	4602      	mov	r2, r0
  401b5a:	460b      	mov	r3, r1
  401b5c:	4915      	ldr	r1, [pc, #84]	; (401bb4 <print+0xbc>)
  401b5e:	4668      	mov	r0, sp
  401b60:	4d15      	ldr	r5, [pc, #84]	; (401bb8 <print+0xc0>)
  401b62:	47a8      	blx	r5
	ili9488_draw_string(10, 300, stingLCD);
  401b64:	466a      	mov	r2, sp
  401b66:	f44f 7196 	mov.w	r1, #300	; 0x12c
  401b6a:	200a      	movs	r0, #10
  401b6c:	4c13      	ldr	r4, [pc, #76]	; (401bbc <print+0xc4>)
  401b6e:	47a0      	blx	r4
	
	sprintf(stingLCD, "Period: %d ms", t);
  401b70:	4632      	mov	r2, r6
  401b72:	4913      	ldr	r1, [pc, #76]	; (401bc0 <print+0xc8>)
  401b74:	4668      	mov	r0, sp
  401b76:	47a8      	blx	r5
	ili9488_draw_string(10, 280, stingLCD);
  401b78:	466a      	mov	r2, sp
  401b7a:	f44f 718c 	mov.w	r1, #280	; 0x118
  401b7e:	200a      	movs	r0, #10
  401b80:	47a0      	blx	r4
	
}
  401b82:	b041      	add	sp, #260	; 0x104
  401b84:	bdf0      	pop	{r4, r5, r6, r7, pc}
  401b86:	bf00      	nop
  401b88:	d2f1a9fc 	.word	0xd2f1a9fc
  401b8c:	3f50624d 	.word	0x3f50624d
  401b90:	00fcfcfc 	.word	0x00fcfcfc
  401b94:	00400919 	.word	0x00400919
  401b98:	00400ba5 	.word	0x00400ba5
  401b9c:	004020f9 	.word	0x004020f9
  401ba0:	004021c5 	.word	0x004021c5
  401ba4:	3ff00000 	.word	0x3ff00000
  401ba8:	00402419 	.word	0x00402419
  401bac:	004025e9 	.word	0x004025e9
  401bb0:	0040211d 	.word	0x0040211d
  401bb4:	00426d50 	.word	0x00426d50
  401bb8:	00402d81 	.word	0x00402d81
  401bbc:	00400c61 	.word	0x00400c61
  401bc0:	00426d64 	.word	0x00426d64

00401bc4 <main>:


int main(void)
{
  401bc4:	e92d 47f0 	stmdb	sp!, {r4, r5, r6, r7, r8, r9, sl, lr}
  401bc8:	b0c8      	sub	sp, #288	; 0x120

	uint8_t stingLCD[256];
	sysclk_init();
  401bca:	4b79      	ldr	r3, [pc, #484]	; (401db0 <main+0x1ec>)
  401bcc:	4798      	blx	r3
	board_init();
  401bce:	4b79      	ldr	r3, [pc, #484]	; (401db4 <main+0x1f0>)
  401bd0:	4798      	blx	r3
  401bd2:	200a      	movs	r0, #10
  401bd4:	4d78      	ldr	r5, [pc, #480]	; (401db8 <main+0x1f4>)
  401bd6:	47a8      	blx	r5
  401bd8:	200b      	movs	r0, #11
  401bda:	47a8      	blx	r5
  401bdc:	200c      	movs	r0, #12
  401bde:	47a8      	blx	r5
  401be0:	2010      	movs	r0, #16
  401be2:	47a8      	blx	r5
  401be4:	2011      	movs	r0, #17
  401be6:	47a8      	blx	r5
	ioport_init();
	
	// Disativa WatchDog
	WDT->WDT_MR = WDT_MR_WDDIS;
  401be8:	f44f 4200 	mov.w	r2, #32768	; 0x8000
  401bec:	4b73      	ldr	r3, [pc, #460]	; (401dbc <main+0x1f8>)
  401bee:	605a      	str	r2, [r3, #4]
  401bf0:	200e      	movs	r0, #14
  401bf2:	47a8      	blx	r5
 * \param opt         Options needed to set up RS232 communication (see \ref usart_options_t).
 *
 */
static inline void stdio_serial_init(volatile void *usart, const usart_serial_options_t *opt)
{
	stdio_base = (void *)usart;
  401bf4:	4e72      	ldr	r6, [pc, #456]	; (401dc0 <main+0x1fc>)
  401bf6:	4b73      	ldr	r3, [pc, #460]	; (401dc4 <main+0x200>)
  401bf8:	601e      	str	r6, [r3, #0]
	ptr_put = (int (*)(void volatile*,char))&usart_serial_putchar;
  401bfa:	4a73      	ldr	r2, [pc, #460]	; (401dc8 <main+0x204>)
  401bfc:	4b73      	ldr	r3, [pc, #460]	; (401dcc <main+0x208>)
  401bfe:	601a      	str	r2, [r3, #0]
	ptr_get = (void (*)(void volatile*,char*))&usart_serial_getchar;
  401c00:	4a73      	ldr	r2, [pc, #460]	; (401dd0 <main+0x20c>)
  401c02:	4b74      	ldr	r3, [pc, #464]	; (401dd4 <main+0x210>)
  401c04:	601a      	str	r2, [r3, #0]
	usart_settings.baudrate = opt->baudrate;
  401c06:	f44f 33e1 	mov.w	r3, #115200	; 0x1c200
  401c0a:	9302      	str	r3, [sp, #8]
	usart_settings.char_length = opt->charlength;
  401c0c:	23c0      	movs	r3, #192	; 0xc0
  401c0e:	9303      	str	r3, [sp, #12]
	usart_settings.parity_type = opt->paritytype;
  401c10:	f44f 6300 	mov.w	r3, #2048	; 0x800
  401c14:	9304      	str	r3, [sp, #16]
	usart_settings.stop_bits= opt->stopbits;
  401c16:	2400      	movs	r4, #0
  401c18:	9405      	str	r4, [sp, #20]
	usart_settings.channel_mode= US_MR_CHMODE_NORMAL;
  401c1a:	9406      	str	r4, [sp, #24]
  401c1c:	200e      	movs	r0, #14
  401c1e:	47a8      	blx	r5
		usart_init_rs232(p_usart, &usart_settings,
  401c20:	4a6d      	ldr	r2, [pc, #436]	; (401dd8 <main+0x214>)
  401c22:	a902      	add	r1, sp, #8
  401c24:	4630      	mov	r0, r6
  401c26:	4b6d      	ldr	r3, [pc, #436]	; (401ddc <main+0x218>)
  401c28:	4798      	blx	r3
		usart_enable_tx(p_usart);
  401c2a:	4630      	mov	r0, r6
  401c2c:	4b6c      	ldr	r3, [pc, #432]	; (401de0 <main+0x21c>)
  401c2e:	4798      	blx	r3
		usart_enable_rx(p_usart);
  401c30:	4630      	mov	r0, r6
  401c32:	4b6c      	ldr	r3, [pc, #432]	; (401de4 <main+0x220>)
  401c34:	4798      	blx	r3
	fdevopen((int (*)(char, FILE*))(_write),(int (*)(FILE*))(_read));
#  endif
#  if UC3 || SAM
	// For AVR32 and SAM GCC
	// Specify that stdout and stdin should not be buffered.
	setbuf(stdout, NULL);
  401c36:	4f6c      	ldr	r7, [pc, #432]	; (401de8 <main+0x224>)
  401c38:	683b      	ldr	r3, [r7, #0]
  401c3a:	4621      	mov	r1, r4
  401c3c:	6898      	ldr	r0, [r3, #8]
  401c3e:	4e6b      	ldr	r6, [pc, #428]	; (401dec <main+0x228>)
  401c40:	47b0      	blx	r6
	setbuf(stdin, NULL);
  401c42:	683b      	ldr	r3, [r7, #0]
  401c44:	4621      	mov	r1, r4
  401c46:	6858      	ldr	r0, [r3, #4]
  401c48:	47b0      	blx	r6
	
	/* Initialize the UART console. */
	configure_console();
	printf(STRING_HEADER);
  401c4a:	4869      	ldr	r0, [pc, #420]	; (401df0 <main+0x22c>)
  401c4c:	4b69      	ldr	r3, [pc, #420]	; (401df4 <main+0x230>)
  401c4e:	4798      	blx	r3
	g_ili9488_display_opt.ul_width = ILI9488_LCD_WIDTH;
  401c50:	4869      	ldr	r0, [pc, #420]	; (401df8 <main+0x234>)
  401c52:	f44f 73a0 	mov.w	r3, #320	; 0x140
  401c56:	6003      	str	r3, [r0, #0]
	g_ili9488_display_opt.ul_height = ILI9488_LCD_HEIGHT;
  401c58:	f44f 73f0 	mov.w	r3, #480	; 0x1e0
  401c5c:	6043      	str	r3, [r0, #4]
	g_ili9488_display_opt.foreground_color = COLOR_CONVERT(COLOR_WHITE);
  401c5e:	f8df 81dc 	ldr.w	r8, [pc, #476]	; 401e3c <main+0x278>
  401c62:	f8c0 8008 	str.w	r8, [r0, #8]
	g_ili9488_display_opt.background_color = COLOR_CONVERT(COLOR_WHITE);
  401c66:	f8c0 800c 	str.w	r8, [r0, #12]
	ili9488_init(&g_ili9488_display_opt);
  401c6a:	4b64      	ldr	r3, [pc, #400]	; (401dfc <main+0x238>)
  401c6c:	4798      	blx	r3
	ili9488_draw_filled_rectangle(0, 0, ILI9488_LCD_WIDTH-1, ILI9488_LCD_HEIGHT-1);
  401c6e:	f240 13df 	movw	r3, #479	; 0x1df
  401c72:	f240 123f 	movw	r2, #319	; 0x13f
  401c76:	4621      	mov	r1, r4
  401c78:	4620      	mov	r0, r4
  401c7a:	4e61      	ldr	r6, [pc, #388]	; (401e00 <main+0x23c>)
  401c7c:	47b0      	blx	r6
	ili9488_set_foreground_color(COLOR_CONVERT(COLOR_TOMATO));
  401c7e:	4861      	ldr	r0, [pc, #388]	; (401e04 <main+0x240>)
  401c80:	4f61      	ldr	r7, [pc, #388]	; (401e08 <main+0x244>)
  401c82:	47b8      	blx	r7
	ili9488_draw_filled_rectangle(0, 0, ILI9488_LCD_WIDTH-1, 120-1);
  401c84:	2377      	movs	r3, #119	; 0x77
  401c86:	f240 123f 	movw	r2, #319	; 0x13f
  401c8a:	4621      	mov	r1, r4
  401c8c:	4620      	mov	r0, r4
  401c8e:	47b0      	blx	r6
	ili9488_draw_filled_rectangle(0, 360, ILI9488_LCD_WIDTH-1, 480-1);
  401c90:	f240 13df 	movw	r3, #479	; 0x1df
  401c94:	f240 123f 	movw	r2, #319	; 0x13f
  401c98:	f44f 71b4 	mov.w	r1, #360	; 0x168
  401c9c:	4620      	mov	r0, r4
  401c9e:	47b0      	blx	r6
	ili9488_draw_pixmap(0, 50, 319, 129, logoImage);	
  401ca0:	4b5a      	ldr	r3, [pc, #360]	; (401e0c <main+0x248>)
  401ca2:	9300      	str	r3, [sp, #0]
  401ca4:	2381      	movs	r3, #129	; 0x81
  401ca6:	f240 123f 	movw	r2, #319	; 0x13f
  401caa:	2132      	movs	r1, #50	; 0x32
  401cac:	4620      	mov	r0, r4
  401cae:	f8df 9190 	ldr.w	r9, [pc, #400]	; 401e40 <main+0x27c>
  401cb2:	47c8      	blx	r9

    /* Inicializa e configura o LCD */
	configure_lcd();
	pmc_enable_periph_clk(LED_PIO_ID);
  401cb4:	200c      	movs	r0, #12
  401cb6:	47a8      	blx	r5
	pmc_enable_periph_clk(BUT_PIO_ID);
  401cb8:	200a      	movs	r0, #10
  401cba:	47a8      	blx	r5
	pmc_enable_periph_clk(BUT_2_PIO_ID);
  401cbc:	200c      	movs	r0, #12
  401cbe:	47a8      	blx	r5
	pio_configure(PIOC, PIO_OUTPUT_0, LED_PIO_PIN_MASK, PIO_DEFAULT);
  401cc0:	4d53      	ldr	r5, [pc, #332]	; (401e10 <main+0x24c>)
  401cc2:	4623      	mov	r3, r4
  401cc4:	f44f 7280 	mov.w	r2, #256	; 0x100
  401cc8:	f04f 5140 	mov.w	r1, #805306368	; 0x30000000
  401ccc:	4628      	mov	r0, r5
  401cce:	f8df a174 	ldr.w	sl, [pc, #372]	; 401e44 <main+0x280>
  401cd2:	47d0      	blx	sl
	pio_configure(BUT_PIO, PIO_INPUT, BUT_PIO_PIN_MASK, PIO_PULLUP);
  401cd4:	f8df 9170 	ldr.w	r9, [pc, #368]	; 401e48 <main+0x284>
  401cd8:	2301      	movs	r3, #1
  401cda:	f44f 2200 	mov.w	r2, #524288	; 0x80000
  401cde:	f04f 5120 	mov.w	r1, #671088640	; 0x28000000
  401ce2:	4648      	mov	r0, r9
  401ce4:	47d0      	blx	sl
	pio_configure(BUT_2_PIO, PIO_INPUT, BUT_2_PIO_PIN_MASK, PIO_PULLUP);
  401ce6:	2301      	movs	r3, #1
  401ce8:	f04f 4200 	mov.w	r2, #2147483648	; 0x80000000
  401cec:	f04f 5120 	mov.w	r1, #671088640	; 0x28000000
  401cf0:	4628      	mov	r0, r5
  401cf2:	47d0      	blx	sl
	
	
	pio_enable_interrupt(BUT_PIO, BUT_PIO_PIN_MASK);
  401cf4:	f44f 2100 	mov.w	r1, #524288	; 0x80000
  401cf8:	4648      	mov	r0, r9
  401cfa:	f8df a150 	ldr.w	sl, [pc, #336]	; 401e4c <main+0x288>
  401cfe:	47d0      	blx	sl
	pio_enable_interrupt(BUT_2_PIO, BUT_2_PIO_PIN_MASK);
  401d00:	f04f 4100 	mov.w	r1, #2147483648	; 0x80000000
  401d04:	4628      	mov	r0, r5
  401d06:	47d0      	blx	sl
	
	pio_handler_set(BUT_PIO, BUT_PIO_ID, BUT_PIO_PIN_MASK, PIO_IT_FALL_EDGE, but_callBack);
  401d08:	4b42      	ldr	r3, [pc, #264]	; (401e14 <main+0x250>)
  401d0a:	9300      	str	r3, [sp, #0]
  401d0c:	2350      	movs	r3, #80	; 0x50
  401d0e:	f44f 2200 	mov.w	r2, #524288	; 0x80000
  401d12:	210a      	movs	r1, #10
  401d14:	4648      	mov	r0, r9
  401d16:	f8df 9138 	ldr.w	r9, [pc, #312]	; 401e50 <main+0x28c>
  401d1a:	47c8      	blx	r9
					
	pio_handler_set(BUT_2_PIO, BUT_2_PIO_ID, BUT_2_PIO_PIN_MASK, PIO_IT_FALL_EDGE, but_2_callBack);
  401d1c:	4b3e      	ldr	r3, [pc, #248]	; (401e18 <main+0x254>)
  401d1e:	9300      	str	r3, [sp, #0]
  401d20:	2350      	movs	r3, #80	; 0x50
  401d22:	f04f 4200 	mov.w	r2, #2147483648	; 0x80000000
  401d26:	210c      	movs	r1, #12
  401d28:	4628      	mov	r0, r5
  401d2a:	47c8      	blx	r9
  NVIC->ISER[(uint32_t)((int32_t)IRQn) >> 5] = (uint32_t)(1 << ((uint32_t)((int32_t)IRQn) & (uint32_t)0x1F)); /* enable interrupt */
  401d2c:	4b3b      	ldr	r3, [pc, #236]	; (401e1c <main+0x258>)
  401d2e:	f44f 6280 	mov.w	r2, #1024	; 0x400
  401d32:	601a      	str	r2, [r3, #0]
    NVIC->IP[(uint32_t)(IRQn)]            = ((priority << (8 - __NVIC_PRIO_BITS)) & 0xff); } /* set Priority for device specific Interrupts  */
  401d34:	2220      	movs	r2, #32
  401d36:	f883 230a 	strb.w	r2, [r3, #778]	; 0x30a
  NVIC->ISER[(uint32_t)((int32_t)IRQn) >> 5] = (uint32_t)(1 << ((uint32_t)((int32_t)IRQn) & (uint32_t)0x1F)); /* enable interrupt */
  401d3a:	f44f 5280 	mov.w	r2, #4096	; 0x1000
  401d3e:	601a      	str	r2, [r3, #0]
    NVIC->IP[(uint32_t)(IRQn)]            = ((priority << (8 - __NVIC_PRIO_BITS)) & 0xff); } /* set Priority for device specific Interrupts  */
  401d40:	f883 430c 	strb.w	r4, [r3, #780]	; 0x30c
	NVIC_SetPriority(BUT_PIO_ID, 1);
	
	NVIC_EnableIRQ(BUT_2_PIO_ID);
	NVIC_SetPriority(BUT_2_PIO_ID, 0);
	
	pio_set(PIOC, LED_PIO_PIN_MASK);
  401d44:	f44f 7180 	mov.w	r1, #256	; 0x100
  401d48:	4628      	mov	r0, r5
  401d4a:	4b35      	ldr	r3, [pc, #212]	; (401e20 <main+0x25c>)
  401d4c:	4798      	blx	r3
	

    /* Escreve na tela Computacao Embarcada 2018 */
	ili9488_set_foreground_color(COLOR_CONVERT(COLOR_WHITE));
  401d4e:	4640      	mov	r0, r8
  401d50:	47b8      	blx	r7
	ili9488_draw_filled_rectangle(0, 240, ILI9488_LCD_WIDTH-1, 315);
  401d52:	f240 133b 	movw	r3, #315	; 0x13b
  401d56:	f240 123f 	movw	r2, #319	; 0x13f
  401d5a:	21f0      	movs	r1, #240	; 0xf0
  401d5c:	4620      	mov	r0, r4
  401d5e:	47b0      	blx	r6
	ili9488_set_foreground_color(COLOR_CONVERT(COLOR_BLACK));
  401d60:	4620      	mov	r0, r4
  401d62:	47b8      	blx	r7
	
	sprintf(stingLCD, "Computacao Embarcada 2018");
  401d64:	ac08      	add	r4, sp, #32
  401d66:	4d2f      	ldr	r5, [pc, #188]	; (401e24 <main+0x260>)
  401d68:	cd0f      	ldmia	r5!, {r0, r1, r2, r3}
  401d6a:	c40f      	stmia	r4!, {r0, r1, r2, r3}
  401d6c:	e895 0007 	ldmia.w	r5, {r0, r1, r2}
  401d70:	c403      	stmia	r4!, {r0, r1}
  401d72:	8022      	strh	r2, [r4, #0]
	ili9488_draw_string(10, 240, stingLCD);
  401d74:	aa08      	add	r2, sp, #32
  401d76:	21f0      	movs	r1, #240	; 0xf0
  401d78:	200a      	movs	r0, #10
  401d7a:	4b2b      	ldr	r3, [pc, #172]	; (401e28 <main+0x264>)
  401d7c:	4798      	blx	r3
	
	int period = 140;
  401d7e:	248c      	movs	r4, #140	; 0x8c
	while (1) {
		//pmc_sleep(SAM_PM_SMODE_SLEEP_WFI);
		
		
		
		if(but_flag){
  401d80:	4d2a      	ldr	r5, [pc, #168]	; (401e2c <main+0x268>)
			print(period);
			
			but_flag = false;
		}
		
		else if(but_2_flag){
  401d82:	4e2b      	ldr	r6, [pc, #172]	; (401e30 <main+0x26c>)
			
			period -= 30;
			
			print(period);
  401d84:	4f2b      	ldr	r7, [pc, #172]	; (401e34 <main+0x270>)
  401d86:	e007      	b.n	401d98 <main+0x1d4>
			period += 30;
  401d88:	341e      	adds	r4, #30
			print(period);
  401d8a:	4620      	mov	r0, r4
  401d8c:	47b8      	blx	r7
			but_flag = false;
  401d8e:	2300      	movs	r3, #0
  401d90:	602b      	str	r3, [r5, #0]
			
			but_2_flag = false;
		}
	
	pisca_led(period);
  401d92:	4620      	mov	r0, r4
  401d94:	4b28      	ldr	r3, [pc, #160]	; (401e38 <main+0x274>)
  401d96:	4798      	blx	r3
		if(but_flag){
  401d98:	682b      	ldr	r3, [r5, #0]
  401d9a:	2b00      	cmp	r3, #0
  401d9c:	d1f4      	bne.n	401d88 <main+0x1c4>
		else if(but_2_flag){
  401d9e:	6833      	ldr	r3, [r6, #0]
  401da0:	2b00      	cmp	r3, #0
  401da2:	d0f6      	beq.n	401d92 <main+0x1ce>
			period -= 30;
  401da4:	3c1e      	subs	r4, #30
			print(period);
  401da6:	4620      	mov	r0, r4
  401da8:	47b8      	blx	r7
			but_2_flag = false;
  401daa:	2300      	movs	r3, #0
  401dac:	6033      	str	r3, [r6, #0]
  401dae:	e7f0      	b.n	401d92 <main+0x1ce>
  401db0:	004001ad 	.word	0x004001ad
  401db4:	00400439 	.word	0x00400439
  401db8:	004012fd 	.word	0x004012fd
  401dbc:	400e1850 	.word	0x400e1850
  401dc0:	40028000 	.word	0x40028000
  401dc4:	20400e5c 	.word	0x20400e5c
  401dc8:	00401991 	.word	0x00401991
  401dcc:	20400e58 	.word	0x20400e58
  401dd0:	004018b5 	.word	0x004018b5
  401dd4:	20400e54 	.word	0x20400e54
  401dd8:	08f0d180 	.word	0x08f0d180
  401ddc:	00401575 	.word	0x00401575
  401de0:	004015c9 	.word	0x004015c9
  401de4:	004015cf 	.word	0x004015cf
  401de8:	20400010 	.word	0x20400010
  401dec:	00402be1 	.word	0x00402be1
  401df0:	00426ce0 	.word	0x00426ce0
  401df4:	004029e9 	.word	0x004029e9
  401df8:	20400e60 	.word	0x20400e60
  401dfc:	004009a5 	.word	0x004009a5
  401e00:	00400ba5 	.word	0x00400ba5
  401e04:	00fc6044 	.word	0x00fc6044
  401e08:	00400919 	.word	0x00400919
  401e0c:	00408aa0 	.word	0x00408aa0
  401e10:	400e1200 	.word	0x400e1200
  401e14:	0040189d 	.word	0x0040189d
  401e18:	004018a9 	.word	0x004018a9
  401e1c:	e000e100 	.word	0xe000e100
  401e20:	00400d89 	.word	0x00400d89
  401e24:	00426d34 	.word	0x00426d34
  401e28:	00400c61 	.word	0x00400c61
  401e2c:	20400e1c 	.word	0x20400e1c
  401e30:	20400e18 	.word	0x20400e18
  401e34:	00401af9 	.word	0x00401af9
  401e38:	00401a65 	.word	0x00401a65
  401e3c:	00fcfcfc 	.word	0x00fcfcfc
  401e40:	00400d11 	.word	0x00400d11
  401e44:	00400e81 	.word	0x00400e81
  401e48:	400e0e00 	.word	0x400e0e00
  401e4c:	00400f43 	.word	0x00400f43
  401e50:	00401109 	.word	0x00401109

00401e54 <__aeabi_drsub>:
  401e54:	f081 4100 	eor.w	r1, r1, #2147483648	; 0x80000000
  401e58:	e002      	b.n	401e60 <__adddf3>
  401e5a:	bf00      	nop

00401e5c <__aeabi_dsub>:
  401e5c:	f083 4300 	eor.w	r3, r3, #2147483648	; 0x80000000

00401e60 <__adddf3>:
  401e60:	b530      	push	{r4, r5, lr}
  401e62:	ea4f 0441 	mov.w	r4, r1, lsl #1
  401e66:	ea4f 0543 	mov.w	r5, r3, lsl #1
  401e6a:	ea94 0f05 	teq	r4, r5
  401e6e:	bf08      	it	eq
  401e70:	ea90 0f02 	teqeq	r0, r2
  401e74:	bf1f      	itttt	ne
  401e76:	ea54 0c00 	orrsne.w	ip, r4, r0
  401e7a:	ea55 0c02 	orrsne.w	ip, r5, r2
  401e7e:	ea7f 5c64 	mvnsne.w	ip, r4, asr #21
  401e82:	ea7f 5c65 	mvnsne.w	ip, r5, asr #21
  401e86:	f000 80e2 	beq.w	40204e <__adddf3+0x1ee>
  401e8a:	ea4f 5454 	mov.w	r4, r4, lsr #21
  401e8e:	ebd4 5555 	rsbs	r5, r4, r5, lsr #21
  401e92:	bfb8      	it	lt
  401e94:	426d      	neglt	r5, r5
  401e96:	dd0c      	ble.n	401eb2 <__adddf3+0x52>
  401e98:	442c      	add	r4, r5
  401e9a:	ea80 0202 	eor.w	r2, r0, r2
  401e9e:	ea81 0303 	eor.w	r3, r1, r3
  401ea2:	ea82 0000 	eor.w	r0, r2, r0
  401ea6:	ea83 0101 	eor.w	r1, r3, r1
  401eaa:	ea80 0202 	eor.w	r2, r0, r2
  401eae:	ea81 0303 	eor.w	r3, r1, r3
  401eb2:	2d36      	cmp	r5, #54	; 0x36
  401eb4:	bf88      	it	hi
  401eb6:	bd30      	pophi	{r4, r5, pc}
  401eb8:	f011 4f00 	tst.w	r1, #2147483648	; 0x80000000
  401ebc:	ea4f 3101 	mov.w	r1, r1, lsl #12
  401ec0:	f44f 1c80 	mov.w	ip, #1048576	; 0x100000
  401ec4:	ea4c 3111 	orr.w	r1, ip, r1, lsr #12
  401ec8:	d002      	beq.n	401ed0 <__adddf3+0x70>
  401eca:	4240      	negs	r0, r0
  401ecc:	eb61 0141 	sbc.w	r1, r1, r1, lsl #1
  401ed0:	f013 4f00 	tst.w	r3, #2147483648	; 0x80000000
  401ed4:	ea4f 3303 	mov.w	r3, r3, lsl #12
  401ed8:	ea4c 3313 	orr.w	r3, ip, r3, lsr #12
  401edc:	d002      	beq.n	401ee4 <__adddf3+0x84>
  401ede:	4252      	negs	r2, r2
  401ee0:	eb63 0343 	sbc.w	r3, r3, r3, lsl #1
  401ee4:	ea94 0f05 	teq	r4, r5
  401ee8:	f000 80a7 	beq.w	40203a <__adddf3+0x1da>
  401eec:	f1a4 0401 	sub.w	r4, r4, #1
  401ef0:	f1d5 0e20 	rsbs	lr, r5, #32
  401ef4:	db0d      	blt.n	401f12 <__adddf3+0xb2>
  401ef6:	fa02 fc0e 	lsl.w	ip, r2, lr
  401efa:	fa22 f205 	lsr.w	r2, r2, r5
  401efe:	1880      	adds	r0, r0, r2
  401f00:	f141 0100 	adc.w	r1, r1, #0
  401f04:	fa03 f20e 	lsl.w	r2, r3, lr
  401f08:	1880      	adds	r0, r0, r2
  401f0a:	fa43 f305 	asr.w	r3, r3, r5
  401f0e:	4159      	adcs	r1, r3
  401f10:	e00e      	b.n	401f30 <__adddf3+0xd0>
  401f12:	f1a5 0520 	sub.w	r5, r5, #32
  401f16:	f10e 0e20 	add.w	lr, lr, #32
  401f1a:	2a01      	cmp	r2, #1
  401f1c:	fa03 fc0e 	lsl.w	ip, r3, lr
  401f20:	bf28      	it	cs
  401f22:	f04c 0c02 	orrcs.w	ip, ip, #2
  401f26:	fa43 f305 	asr.w	r3, r3, r5
  401f2a:	18c0      	adds	r0, r0, r3
  401f2c:	eb51 71e3 	adcs.w	r1, r1, r3, asr #31
  401f30:	f001 4500 	and.w	r5, r1, #2147483648	; 0x80000000
  401f34:	d507      	bpl.n	401f46 <__adddf3+0xe6>
  401f36:	f04f 0e00 	mov.w	lr, #0
  401f3a:	f1dc 0c00 	rsbs	ip, ip, #0
  401f3e:	eb7e 0000 	sbcs.w	r0, lr, r0
  401f42:	eb6e 0101 	sbc.w	r1, lr, r1
  401f46:	f5b1 1f80 	cmp.w	r1, #1048576	; 0x100000
  401f4a:	d31b      	bcc.n	401f84 <__adddf3+0x124>
  401f4c:	f5b1 1f00 	cmp.w	r1, #2097152	; 0x200000
  401f50:	d30c      	bcc.n	401f6c <__adddf3+0x10c>
  401f52:	0849      	lsrs	r1, r1, #1
  401f54:	ea5f 0030 	movs.w	r0, r0, rrx
  401f58:	ea4f 0c3c 	mov.w	ip, ip, rrx
  401f5c:	f104 0401 	add.w	r4, r4, #1
  401f60:	ea4f 5244 	mov.w	r2, r4, lsl #21
  401f64:	f512 0f80 	cmn.w	r2, #4194304	; 0x400000
  401f68:	f080 809a 	bcs.w	4020a0 <__adddf3+0x240>
  401f6c:	f1bc 4f00 	cmp.w	ip, #2147483648	; 0x80000000
  401f70:	bf08      	it	eq
  401f72:	ea5f 0c50 	movseq.w	ip, r0, lsr #1
  401f76:	f150 0000 	adcs.w	r0, r0, #0
  401f7a:	eb41 5104 	adc.w	r1, r1, r4, lsl #20
  401f7e:	ea41 0105 	orr.w	r1, r1, r5
  401f82:	bd30      	pop	{r4, r5, pc}
  401f84:	ea5f 0c4c 	movs.w	ip, ip, lsl #1
  401f88:	4140      	adcs	r0, r0
  401f8a:	eb41 0101 	adc.w	r1, r1, r1
  401f8e:	f411 1f80 	tst.w	r1, #1048576	; 0x100000
  401f92:	f1a4 0401 	sub.w	r4, r4, #1
  401f96:	d1e9      	bne.n	401f6c <__adddf3+0x10c>
  401f98:	f091 0f00 	teq	r1, #0
  401f9c:	bf04      	itt	eq
  401f9e:	4601      	moveq	r1, r0
  401fa0:	2000      	moveq	r0, #0
  401fa2:	fab1 f381 	clz	r3, r1
  401fa6:	bf08      	it	eq
  401fa8:	3320      	addeq	r3, #32
  401faa:	f1a3 030b 	sub.w	r3, r3, #11
  401fae:	f1b3 0220 	subs.w	r2, r3, #32
  401fb2:	da0c      	bge.n	401fce <__adddf3+0x16e>
  401fb4:	320c      	adds	r2, #12
  401fb6:	dd08      	ble.n	401fca <__adddf3+0x16a>
  401fb8:	f102 0c14 	add.w	ip, r2, #20
  401fbc:	f1c2 020c 	rsb	r2, r2, #12
  401fc0:	fa01 f00c 	lsl.w	r0, r1, ip
  401fc4:	fa21 f102 	lsr.w	r1, r1, r2
  401fc8:	e00c      	b.n	401fe4 <__adddf3+0x184>
  401fca:	f102 0214 	add.w	r2, r2, #20
  401fce:	bfd8      	it	le
  401fd0:	f1c2 0c20 	rsble	ip, r2, #32
  401fd4:	fa01 f102 	lsl.w	r1, r1, r2
  401fd8:	fa20 fc0c 	lsr.w	ip, r0, ip
  401fdc:	bfdc      	itt	le
  401fde:	ea41 010c 	orrle.w	r1, r1, ip
  401fe2:	4090      	lslle	r0, r2
  401fe4:	1ae4      	subs	r4, r4, r3
  401fe6:	bfa2      	ittt	ge
  401fe8:	eb01 5104 	addge.w	r1, r1, r4, lsl #20
  401fec:	4329      	orrge	r1, r5
  401fee:	bd30      	popge	{r4, r5, pc}
  401ff0:	ea6f 0404 	mvn.w	r4, r4
  401ff4:	3c1f      	subs	r4, #31
  401ff6:	da1c      	bge.n	402032 <__adddf3+0x1d2>
  401ff8:	340c      	adds	r4, #12
  401ffa:	dc0e      	bgt.n	40201a <__adddf3+0x1ba>
  401ffc:	f104 0414 	add.w	r4, r4, #20
  402000:	f1c4 0220 	rsb	r2, r4, #32
  402004:	fa20 f004 	lsr.w	r0, r0, r4
  402008:	fa01 f302 	lsl.w	r3, r1, r2
  40200c:	ea40 0003 	orr.w	r0, r0, r3
  402010:	fa21 f304 	lsr.w	r3, r1, r4
  402014:	ea45 0103 	orr.w	r1, r5, r3
  402018:	bd30      	pop	{r4, r5, pc}
  40201a:	f1c4 040c 	rsb	r4, r4, #12
  40201e:	f1c4 0220 	rsb	r2, r4, #32
  402022:	fa20 f002 	lsr.w	r0, r0, r2
  402026:	fa01 f304 	lsl.w	r3, r1, r4
  40202a:	ea40 0003 	orr.w	r0, r0, r3
  40202e:	4629      	mov	r1, r5
  402030:	bd30      	pop	{r4, r5, pc}
  402032:	fa21 f004 	lsr.w	r0, r1, r4
  402036:	4629      	mov	r1, r5
  402038:	bd30      	pop	{r4, r5, pc}
  40203a:	f094 0f00 	teq	r4, #0
  40203e:	f483 1380 	eor.w	r3, r3, #1048576	; 0x100000
  402042:	bf06      	itte	eq
  402044:	f481 1180 	eoreq.w	r1, r1, #1048576	; 0x100000
  402048:	3401      	addeq	r4, #1
  40204a:	3d01      	subne	r5, #1
  40204c:	e74e      	b.n	401eec <__adddf3+0x8c>
  40204e:	ea7f 5c64 	mvns.w	ip, r4, asr #21
  402052:	bf18      	it	ne
  402054:	ea7f 5c65 	mvnsne.w	ip, r5, asr #21
  402058:	d029      	beq.n	4020ae <__adddf3+0x24e>
  40205a:	ea94 0f05 	teq	r4, r5
  40205e:	bf08      	it	eq
  402060:	ea90 0f02 	teqeq	r0, r2
  402064:	d005      	beq.n	402072 <__adddf3+0x212>
  402066:	ea54 0c00 	orrs.w	ip, r4, r0
  40206a:	bf04      	itt	eq
  40206c:	4619      	moveq	r1, r3
  40206e:	4610      	moveq	r0, r2
  402070:	bd30      	pop	{r4, r5, pc}
  402072:	ea91 0f03 	teq	r1, r3
  402076:	bf1e      	ittt	ne
  402078:	2100      	movne	r1, #0
  40207a:	2000      	movne	r0, #0
  40207c:	bd30      	popne	{r4, r5, pc}
  40207e:	ea5f 5c54 	movs.w	ip, r4, lsr #21
  402082:	d105      	bne.n	402090 <__adddf3+0x230>
  402084:	0040      	lsls	r0, r0, #1
  402086:	4149      	adcs	r1, r1
  402088:	bf28      	it	cs
  40208a:	f041 4100 	orrcs.w	r1, r1, #2147483648	; 0x80000000
  40208e:	bd30      	pop	{r4, r5, pc}
  402090:	f514 0480 	adds.w	r4, r4, #4194304	; 0x400000
  402094:	bf3c      	itt	cc
  402096:	f501 1180 	addcc.w	r1, r1, #1048576	; 0x100000
  40209a:	bd30      	popcc	{r4, r5, pc}
  40209c:	f001 4500 	and.w	r5, r1, #2147483648	; 0x80000000
  4020a0:	f045 41fe 	orr.w	r1, r5, #2130706432	; 0x7f000000
  4020a4:	f441 0170 	orr.w	r1, r1, #15728640	; 0xf00000
  4020a8:	f04f 0000 	mov.w	r0, #0
  4020ac:	bd30      	pop	{r4, r5, pc}
  4020ae:	ea7f 5c64 	mvns.w	ip, r4, asr #21
  4020b2:	bf1a      	itte	ne
  4020b4:	4619      	movne	r1, r3
  4020b6:	4610      	movne	r0, r2
  4020b8:	ea7f 5c65 	mvnseq.w	ip, r5, asr #21
  4020bc:	bf1c      	itt	ne
  4020be:	460b      	movne	r3, r1
  4020c0:	4602      	movne	r2, r0
  4020c2:	ea50 3401 	orrs.w	r4, r0, r1, lsl #12
  4020c6:	bf06      	itte	eq
  4020c8:	ea52 3503 	orrseq.w	r5, r2, r3, lsl #12
  4020cc:	ea91 0f03 	teqeq	r1, r3
  4020d0:	f441 2100 	orrne.w	r1, r1, #524288	; 0x80000
  4020d4:	bd30      	pop	{r4, r5, pc}
  4020d6:	bf00      	nop

004020d8 <__aeabi_ui2d>:
  4020d8:	f090 0f00 	teq	r0, #0
  4020dc:	bf04      	itt	eq
  4020de:	2100      	moveq	r1, #0
  4020e0:	4770      	bxeq	lr
  4020e2:	b530      	push	{r4, r5, lr}
  4020e4:	f44f 6480 	mov.w	r4, #1024	; 0x400
  4020e8:	f104 0432 	add.w	r4, r4, #50	; 0x32
  4020ec:	f04f 0500 	mov.w	r5, #0
  4020f0:	f04f 0100 	mov.w	r1, #0
  4020f4:	e750      	b.n	401f98 <__adddf3+0x138>
  4020f6:	bf00      	nop

004020f8 <__aeabi_i2d>:
  4020f8:	f090 0f00 	teq	r0, #0
  4020fc:	bf04      	itt	eq
  4020fe:	2100      	moveq	r1, #0
  402100:	4770      	bxeq	lr
  402102:	b530      	push	{r4, r5, lr}
  402104:	f44f 6480 	mov.w	r4, #1024	; 0x400
  402108:	f104 0432 	add.w	r4, r4, #50	; 0x32
  40210c:	f010 4500 	ands.w	r5, r0, #2147483648	; 0x80000000
  402110:	bf48      	it	mi
  402112:	4240      	negmi	r0, r0
  402114:	f04f 0100 	mov.w	r1, #0
  402118:	e73e      	b.n	401f98 <__adddf3+0x138>
  40211a:	bf00      	nop

0040211c <__aeabi_f2d>:
  40211c:	0042      	lsls	r2, r0, #1
  40211e:	ea4f 01e2 	mov.w	r1, r2, asr #3
  402122:	ea4f 0131 	mov.w	r1, r1, rrx
  402126:	ea4f 7002 	mov.w	r0, r2, lsl #28
  40212a:	bf1f      	itttt	ne
  40212c:	f012 437f 	andsne.w	r3, r2, #4278190080	; 0xff000000
  402130:	f093 4f7f 	teqne	r3, #4278190080	; 0xff000000
  402134:	f081 5160 	eorne.w	r1, r1, #939524096	; 0x38000000
  402138:	4770      	bxne	lr
  40213a:	f092 0f00 	teq	r2, #0
  40213e:	bf14      	ite	ne
  402140:	f093 4f7f 	teqne	r3, #4278190080	; 0xff000000
  402144:	4770      	bxeq	lr
  402146:	b530      	push	{r4, r5, lr}
  402148:	f44f 7460 	mov.w	r4, #896	; 0x380
  40214c:	f001 4500 	and.w	r5, r1, #2147483648	; 0x80000000
  402150:	f021 4100 	bic.w	r1, r1, #2147483648	; 0x80000000
  402154:	e720      	b.n	401f98 <__adddf3+0x138>
  402156:	bf00      	nop

00402158 <__aeabi_ul2d>:
  402158:	ea50 0201 	orrs.w	r2, r0, r1
  40215c:	bf08      	it	eq
  40215e:	4770      	bxeq	lr
  402160:	b530      	push	{r4, r5, lr}
  402162:	f04f 0500 	mov.w	r5, #0
  402166:	e00a      	b.n	40217e <__aeabi_l2d+0x16>

00402168 <__aeabi_l2d>:
  402168:	ea50 0201 	orrs.w	r2, r0, r1
  40216c:	bf08      	it	eq
  40216e:	4770      	bxeq	lr
  402170:	b530      	push	{r4, r5, lr}
  402172:	f011 4500 	ands.w	r5, r1, #2147483648	; 0x80000000
  402176:	d502      	bpl.n	40217e <__aeabi_l2d+0x16>
  402178:	4240      	negs	r0, r0
  40217a:	eb61 0141 	sbc.w	r1, r1, r1, lsl #1
  40217e:	f44f 6480 	mov.w	r4, #1024	; 0x400
  402182:	f104 0432 	add.w	r4, r4, #50	; 0x32
  402186:	ea5f 5c91 	movs.w	ip, r1, lsr #22
  40218a:	f43f aedc 	beq.w	401f46 <__adddf3+0xe6>
  40218e:	f04f 0203 	mov.w	r2, #3
  402192:	ea5f 0cdc 	movs.w	ip, ip, lsr #3
  402196:	bf18      	it	ne
  402198:	3203      	addne	r2, #3
  40219a:	ea5f 0cdc 	movs.w	ip, ip, lsr #3
  40219e:	bf18      	it	ne
  4021a0:	3203      	addne	r2, #3
  4021a2:	eb02 02dc 	add.w	r2, r2, ip, lsr #3
  4021a6:	f1c2 0320 	rsb	r3, r2, #32
  4021aa:	fa00 fc03 	lsl.w	ip, r0, r3
  4021ae:	fa20 f002 	lsr.w	r0, r0, r2
  4021b2:	fa01 fe03 	lsl.w	lr, r1, r3
  4021b6:	ea40 000e 	orr.w	r0, r0, lr
  4021ba:	fa21 f102 	lsr.w	r1, r1, r2
  4021be:	4414      	add	r4, r2
  4021c0:	e6c1      	b.n	401f46 <__adddf3+0xe6>
  4021c2:	bf00      	nop

004021c4 <__aeabi_dmul>:
  4021c4:	b570      	push	{r4, r5, r6, lr}
  4021c6:	f04f 0cff 	mov.w	ip, #255	; 0xff
  4021ca:	f44c 6ce0 	orr.w	ip, ip, #1792	; 0x700
  4021ce:	ea1c 5411 	ands.w	r4, ip, r1, lsr #20
  4021d2:	bf1d      	ittte	ne
  4021d4:	ea1c 5513 	andsne.w	r5, ip, r3, lsr #20
  4021d8:	ea94 0f0c 	teqne	r4, ip
  4021dc:	ea95 0f0c 	teqne	r5, ip
  4021e0:	f000 f8de 	bleq	4023a0 <__aeabi_dmul+0x1dc>
  4021e4:	442c      	add	r4, r5
  4021e6:	ea81 0603 	eor.w	r6, r1, r3
  4021ea:	ea21 514c 	bic.w	r1, r1, ip, lsl #21
  4021ee:	ea23 534c 	bic.w	r3, r3, ip, lsl #21
  4021f2:	ea50 3501 	orrs.w	r5, r0, r1, lsl #12
  4021f6:	bf18      	it	ne
  4021f8:	ea52 3503 	orrsne.w	r5, r2, r3, lsl #12
  4021fc:	f441 1180 	orr.w	r1, r1, #1048576	; 0x100000
  402200:	f443 1380 	orr.w	r3, r3, #1048576	; 0x100000
  402204:	d038      	beq.n	402278 <__aeabi_dmul+0xb4>
  402206:	fba0 ce02 	umull	ip, lr, r0, r2
  40220a:	f04f 0500 	mov.w	r5, #0
  40220e:	fbe1 e502 	umlal	lr, r5, r1, r2
  402212:	f006 4200 	and.w	r2, r6, #2147483648	; 0x80000000
  402216:	fbe0 e503 	umlal	lr, r5, r0, r3
  40221a:	f04f 0600 	mov.w	r6, #0
  40221e:	fbe1 5603 	umlal	r5, r6, r1, r3
  402222:	f09c 0f00 	teq	ip, #0
  402226:	bf18      	it	ne
  402228:	f04e 0e01 	orrne.w	lr, lr, #1
  40222c:	f1a4 04ff 	sub.w	r4, r4, #255	; 0xff
  402230:	f5b6 7f00 	cmp.w	r6, #512	; 0x200
  402234:	f564 7440 	sbc.w	r4, r4, #768	; 0x300
  402238:	d204      	bcs.n	402244 <__aeabi_dmul+0x80>
  40223a:	ea5f 0e4e 	movs.w	lr, lr, lsl #1
  40223e:	416d      	adcs	r5, r5
  402240:	eb46 0606 	adc.w	r6, r6, r6
  402244:	ea42 21c6 	orr.w	r1, r2, r6, lsl #11
  402248:	ea41 5155 	orr.w	r1, r1, r5, lsr #21
  40224c:	ea4f 20c5 	mov.w	r0, r5, lsl #11
  402250:	ea40 505e 	orr.w	r0, r0, lr, lsr #21
  402254:	ea4f 2ece 	mov.w	lr, lr, lsl #11
  402258:	f1b4 0cfd 	subs.w	ip, r4, #253	; 0xfd
  40225c:	bf88      	it	hi
  40225e:	f5bc 6fe0 	cmphi.w	ip, #1792	; 0x700
  402262:	d81e      	bhi.n	4022a2 <__aeabi_dmul+0xde>
  402264:	f1be 4f00 	cmp.w	lr, #2147483648	; 0x80000000
  402268:	bf08      	it	eq
  40226a:	ea5f 0e50 	movseq.w	lr, r0, lsr #1
  40226e:	f150 0000 	adcs.w	r0, r0, #0
  402272:	eb41 5104 	adc.w	r1, r1, r4, lsl #20
  402276:	bd70      	pop	{r4, r5, r6, pc}
  402278:	f006 4600 	and.w	r6, r6, #2147483648	; 0x80000000
  40227c:	ea46 0101 	orr.w	r1, r6, r1
  402280:	ea40 0002 	orr.w	r0, r0, r2
  402284:	ea81 0103 	eor.w	r1, r1, r3
  402288:	ebb4 045c 	subs.w	r4, r4, ip, lsr #1
  40228c:	bfc2      	ittt	gt
  40228e:	ebd4 050c 	rsbsgt	r5, r4, ip
  402292:	ea41 5104 	orrgt.w	r1, r1, r4, lsl #20
  402296:	bd70      	popgt	{r4, r5, r6, pc}
  402298:	f441 1180 	orr.w	r1, r1, #1048576	; 0x100000
  40229c:	f04f 0e00 	mov.w	lr, #0
  4022a0:	3c01      	subs	r4, #1
  4022a2:	f300 80ab 	bgt.w	4023fc <__aeabi_dmul+0x238>
  4022a6:	f114 0f36 	cmn.w	r4, #54	; 0x36
  4022aa:	bfde      	ittt	le
  4022ac:	2000      	movle	r0, #0
  4022ae:	f001 4100 	andle.w	r1, r1, #2147483648	; 0x80000000
  4022b2:	bd70      	pople	{r4, r5, r6, pc}
  4022b4:	f1c4 0400 	rsb	r4, r4, #0
  4022b8:	3c20      	subs	r4, #32
  4022ba:	da35      	bge.n	402328 <__aeabi_dmul+0x164>
  4022bc:	340c      	adds	r4, #12
  4022be:	dc1b      	bgt.n	4022f8 <__aeabi_dmul+0x134>
  4022c0:	f104 0414 	add.w	r4, r4, #20
  4022c4:	f1c4 0520 	rsb	r5, r4, #32
  4022c8:	fa00 f305 	lsl.w	r3, r0, r5
  4022cc:	fa20 f004 	lsr.w	r0, r0, r4
  4022d0:	fa01 f205 	lsl.w	r2, r1, r5
  4022d4:	ea40 0002 	orr.w	r0, r0, r2
