:020000040040BA
:10000000582C4020F9094000F7094000F70940004A
:10001000F7094000F7094000F70940000000000020
:10002000000000000000000000000000D10D4000B2
:10003000F709400000000000710E4000D90E40009A
:10004000F7094000F7094000F7094000F7094000B0
:10005000F7094000F7094000F7094000F7094000A0
:10006000F709400000000000E1064000F5064000EE
:1000700009074000F7094000F92D4000F70940004A
:100080001D07400031074000F7094000F709400014
:10009000F7094000F7094000F7094000F709400060
:1000A000F7094000F7094000F7094000F709400050
:1000B000F7094000F7094000F7094000F709400040
:1000C000F7094000F7094000F7094000F709400030
:1000D00000000000F709400000000000F7094000A0
:1000E000F7094000F7094000F7094000F709400010
:1000F000F7094000F7094000F7094000F709400000
:10010000F7094000F7094000F7094000F7094000EF
:10011000F70940000000000000000000000000009F
:10012000F7094000F7094000F7094000F7094000CF
:10013000F709400000000000F7094000F7094000FF
:1001400010B5054C237833B9044B13B10448AFF311
:1001500000800123237010BDC00940200000000072
:10016000A86240000C4B43B10C480D4910B5AFF3E9
:1001700000800C48036823B910BD0A48036833B9EE
:100180007047094B002BF7D0BDE810401847064BCD
:10019000002BF5D0184700BF00000000A862400007
:1001A000C4094020A86240000000000010B51048BB
:1001B000104B98473E2100200F4B98470F4CA0470B
:1001C0000028FCD00E4B98470E4A0F4B9A620F4CFA
:1001D000A0470028FCD002200D4B984700200D4B73
:1001E00098470D4B98470248024B984710BD00BFF7
:1001F00000A3E111CD0B4000E107400035084000AD
:1002000045084000013F182000060E4055084000F8
:10021000450740007D074000C10A40002DE9F0413C
:1002200080B90C469046002A0FDD8F18084E094D04
:10023000306821462B6898470134BC42F8D14046CB
:10024000BDE8F0814FF0FF38F9E78046F7E700BFDF
:10025000D40B4020CC0B40200138022815D82DE9C2
:10026000F0410E4614469AB10D46DFF838800C4F27
:10027000D8F8000015F8011B3B68984700280ADBF6
:10028000A81B013CF4D1BDE8F0814FF0FF3070476E
:100290001046BDE8F0814FF0FF30BDE8F08100BFAF
:1002A000D00B4020D40B4020F8B54FF400425C4BFB
:1002B0005A60BFF34F8FBFF36F8F5A4B0022C3F8C2
:1002C00050225A6942F400325A61BFF34F8FBFF394
:1002D0006F8FD3F88070C7F34E3607F007000430F5
:1002E000C7F3C907B7FA87FE0EF01F0EBFF34F8F93
:1002F0004FF0FF3404FA00FC06FA00F004FA0EF4A2
:1003000007FA0EFE1D463A46734640EA0301C5F859
:100310006012013A2344B2F1FF3FF6D1013E60443E
:10032000B6F1FF3FEFD1BFF34F8F3E4B5A6942F416
:1003300080325A61BFF34F8FBFF36F8F3A4A3B4908
:100340005160A1F580715160BFF34F8FBFF36F8F84
:10035000D3F8902222F00102C3F89022D3F894221D
:1003600022F00102C3F89422BFF34F8FBFF36F8FC7
:100370000A202F4CA0470B20A0470C20A04710209C
:10038000A0471120A0472B4B4FF480721A61C3F88D
:10039000A0201A63A3F580634FF400625A61C3F88A
:1003A000A0205A66C3F890205A651A62C3F88420C8
:1003B000196F21F400611967596F21F400615967C1
:1003C000C3F8C020C3F8D420C3F8B0204FF4001203
:1003D0001A66C3F890205A655A62C3F88020196FD4
:1003E00021F400111967596F21F4001159675A60FF
:1003F000114AD2F8143143F01003C2F814310F4BF4
:1004000010221A66C3F890205A655A62C3F88020F9
:10041000196F11431967596F114359675A60F8BD35
:1004200050180E4000ED00E0000C0E400C08005A81
:100430006508400000120E400080084000100E4089
:10044000C0F8841053004FF40042B2FBF3F2013ABB
:10045000C2F30D02C0F88C207047016370474264FC
:10046000B1F1C05F3AD013D8B1F1006F25D0B1F12E
:10047000805F0AD1036F13430367436F416F0B40E3
:1004800023EA02034367426070470029FBD17047AB
:10049000B1F1205F21D009D8B1F1005FF3D1036F32
:1004A00013430367436F13434367ECE7B1F1405FC6
:1004B00013D0B1F1605F10D0E5E710B4016F046FA5
:1004C000D34321401C4619400167436F416F0B40E5
:1004D0002340436742605DF8044B7047036F016F30
:1004E0000B4023EA02030367436F13434367CAE7E2
:1004F000416412F0010F0DD1016612F00A0F0BD00A
:10050000016212F0020F09D112F0080F08D0C0F8F2
:10051000841005E04166F0E74162F2E7C0F8801020
:1005200041610160704710B4019C41644CB901669F
:100530004BB101654AB94163016101605DF8044B4B
:1005400070474166F4E74165F4E70163F4E70000B2
:1005500070B582B0054616461C46B1F1005F14D056
:100560000AD9B1F1405F24D0B1F1605F21D0B1F17F
:10057000205F17D000201AE0B1F1805F05D0B1F103
:10058000C05F02D0B1F1006FF4D132462846114B62
:10059000984714F0010F02D12E66012007E06E6625
:1005A000012004E01A4631460B4B9847012002B067
:1005B00070BD04F001030093C4F38003B1F1605FE8
:1005C00014BF0022012231462846044CA0470120D6
:1005D000EDE700BF5F044000F10440002705400044
:1005E00012F0100F12D0C0F8B01012F0200F07D088
:1005F000C0F8D41012F0400F05D0C0F8C0107047FA
:10060000C0F8D010F6E7C0F8C4107047C0F8B410B6
:10061000704701647047C06C7047806C7047000081
:100620002DE9F041044688460E4B98470546204682
:100630000D4B9847054013D00C4C04F1600603E0C5
:10064000B4420DD010345DB120684045F8D16168E6
:100650002942F5D0E3689847636825EA0305EFE788
:10066000BDE8F081170640001B064000DC09402071
:10067000F8B5184C2668062E2AD84FF0000C6446B0
:10068000154F04E00134E4B2A446A64209D3A646BD
:1006900025017D598D42F5D107EB04156D68954212
:1006A000F0D10D4D4FEA0E1E05EB0E0445F80E106D
:1006B0006260A3600699E1600136664505D0114687
:1006C0001A46064B98470020F8BD02490E60F6E72F
:1006D0000120F8BD4C0A4020DC094020E105400023
:1006E00008B50A210148024B984708BD000E0E408C
:1006F0002106400008B50B210148024B984708BD70
:1007000000100E402106400008B50C210148024BA4
:10071000984708BD00120E402106400008B5102180
:100720000148024B984708BD00140E4021064000C6
:1007300008B511210148024B984708BD00160E402C
:1007400021064000032811D0042812D002280CBF33
:100750004FF480710021084A136B23F440730B435C
:100760001363936E13F0080FFBD070474FF4407182
:10077000F1E74FF40071EEE700060E40174A136BE5
:1007800023F0700318431063936E13F0080F0AD11F
:100790004FF4805311498A6E12F0080F03D1013BC8
:1007A000F9D1012070470D4A136B23F0030343F086
:1007B00002031363936E13F0080F0AD14FF48053B2
:1007C00006498A6E12F0080F05D1013BF9D10120CC
:1007D0007047002070470020704700BF00060E40A1
:1007E000A0B90E48036A090289B20D4A1A400D4B9E
:1007F0001343194301620246936E13F0010FFBD0BD
:10080000064A116A084B0B431362704703490B6A8F
:10081000064A1A40064B13430B62704700060E400F
:10082000FCFFC8FF0100370000003701FCFFC8FED5
:1008300002003701024B986E00F48030704700BF11
:1008400000060E404FF00052014B9A62704700BF05
:1008500000060E40024B986E00F00200704700BF89
:1008600000060E403F281ED81F280CD8114B9A694D
:1008700001238340934318D0012303FA00F00D4B6A
:1008800018610020704720380A4BD3F80821012353
:10089000834093430BD0012303FA00F0054BC3F8C8
:1008A00000010020704701207047002070470020A1
:1008B000704700BF00060E40436913F0020F02D0DC
:1008C000C1610020704701207047436913F0010F98
:1008D00003D083690B70002070470120704710B46B
:1008E0000B01934214D9C9004B0803EBC202B2FBBF
:1008F000F1F2D3085C1E4FF6FE718C4201D9012043
:1009000017E0416841F4002141600CE0012010E053
:10091000590801EBC202B2FBF3F2D3085C1E4FF69A
:10092000FE718C42F2D8120402F4E0221A430262F1
:1009300000205DF8044B7047084BC0F8E4300023FA
:1009400043604362836288230360242303604FF47F
:10095000807303604FF400230360704700415355D8
:1009600070B505460C4616460F4B984700220F4BB4
:100970001A60A4B13246216828460D4B98470246BA
:1009800078B96368A1680B4321690B43E1680B43A5
:1009900006490B6069680B436B60104670BD01220D
:1009A000FBE70122F9E700BF39094000500A402067
:1009B000DF08400040230360704710230360704746
:1009C0008160704740697047436913F0020F04D09B
:1009D000C1F30801C16100207047012070474369DD
:1009E00013F0010F05D08369C3F308030B600020E7
:1009F000704701207047FEE700B583B0254B264ABB
:100A00009A4210D0254B234A9A420CD2013B9B1AA2
:100A100023F00303043313441F4951F8040B42F835
:100A2000040B9A42F9D11E4B1E4A9A420AD2013B4C
:100A30009B1A23F0030304331344002142F8041BE0
:100A40009342FBD1184A194B23F07F039360EFF3D5
:100A50001083B3FA83F35B09019372B6BFF35F8F20
:100A60000022134B1A700199124A136843F4700361
:100A70001360BFF34F8FBFF36F8F29B101220C4B6F
:100A80001A70BFF35F8F62B60B4B98470B4B9847BA
:100A9000FEE700BF00004020A8624000C0094020DF
:100AA000540C4020C009402000ED00E00000400050
:100AB0000A00402088ED00E099304000552E4000AB
:100AC0003B4B1B6B03F00303012B1DD083B1022BA7
:100AD00036D0374B1B6B03F07003702B5FD0344B59
:100AE0001A6B3449C2F302120B68D3400B60704793
:100AF000314B5B6913F0800F14BF4FF400424FF489
:100B0000FA422C4B1A60E4E7294B1B6A13F0807FF2
:100B100003D02A4A274B1A60DBE7294A254B1A6083
:100B2000234B1B6A03F07003102B05D0202BD0D170
:100B3000224A204B1A60CCE7224A1E4B1A60C8E7B3
:100B40001B4B1B6A13F0807F16D01C4A194B1A608E
:100B5000174B1B6B03F00303022BBAD1144A916AA3
:100B6000926A1448C1F30A41036801FB0333D2B20D
:100B7000B3FBF2F30360ACE7114A0E4B1A600C4B67
:100B80001B6A03F07003102B05D0202BE0D10B4A19
:100B9000084B1A60DCE70B4A064B1A60D8E7054A97
:100BA00013680949A1FB03135B081360704700BF7A
:100BB00000060E400C00402010180E40001BB7002D
:100BC00000093D0000127A00ABAAAAAA164B98426F
:100BD00013D9164B984215D9154B984216D9154B77
:100BE000984217D9144B984218D9144B984294BF85
:100BF000134A144A144B1A6070474FF08062124B2C
:100C00001A607047114A104B1A607047104A0E4B19
:100C10001A6070470F4A0C4B1A6070474FF004225D
:100C2000094B1A60704700BFBFF35E017FE7BD024A
:100C30003FDB1C04FFCE7B05BFC2DA067FB6390856
:100C40000005000400060004000C0E400001000432
:100C500000020004000300040A4B1B6853B1094B57
:100C60001B681A180849914208DB1046054A1060B3
:100C700018467047054A034B1A60F0E74FF0FF3003
:100C8000704700BF540A4020FCFF4520582E4020EA
:100C90004FF0FF3070474FF400534B600020704717
:100CA000012070470020704700F1080343604FF0B7
:100CB000FF328260C360036100230360704700233A
:100CC0000361704743684B609A688A609A68516014
:100CD00099600861036801330360704730B40D68A0
:100CE000B5F1FF3F02D000F1080202E0026904E022
:100CF0001A4653681C68A542FAD253684B60996043
:100D00008A605160086103680133036030BC70473A
:100D100003694268816891608268416851605A68DD
:100D2000904205D0002202611868013818607047AF
:100D300082685A60F6E700000D4B1B68B3F1FF3F75
:100D40000AD04FF0800372B683F31188BFF36F8F20
:100D5000BFF34F8F62B6FEE74FF0800372B683F3A6
:100D60001188BFF36F8FBFF34F8F62B6FEE700BFEE
:100D70001000402006480068006880F3088862B6CA
:100D800061B6BFF34F8FBFF36F8F00DF00BF00006E
:100D900008ED00E0DFF80C00016841F4700101602B
:100DA0007047000088ED00E04FF0807340F8043C8D
:100DB00040F8081C054B40F80C3C40F8202C6FF024
:100DC000020340F8243C4438704700BF390D40000E
:100DD000064B19680868B0E8F04F80F30988BFF344
:100DE0006F8F4FF0000080F311887047600A402039
:100DF000704700BF4FF0800372B683F31188BFF3D2
:100E00006F8FBFF34F8F62B60B4A136801331360C5
:100E1000012B0FD1094B1B6813F0FF0F0AD04FF0C5
:100E2000800372B683F31188BFF36F8FBFF34F8FC8
:100E300062B6FEE7704700BF1000402004ED00E0FE
:100E40000A4B1B6853B94FF0800372B683F31188C5
:100E5000BFF36F8FBFF34F8F62B6FEE7013B034ACC
:100E600013600BB983F31188704700BF1000402056
:100E7000EFF30980BFF36F8F154B1A681EF0100F48
:100E800008BF20ED108A20E9F04F10604DF8043DB6
:100E90004FF0800072B680F31188BFF34F8FBFF31D
:100EA0006F8F62B601F0FEF84FF0000080F31188FA
:100EB00008BC19680868B0E8F04F1EF0100F08BFB2
:100EC000B0EC108A80F30988BFF36F8F704700BFC2
:100ED000600A4020704700BF08B5EFF311834FF060
:100EE000800272B682F31188BFF36F8FBFF34F8F0A
:100EF00062B6054B984718B14FF08052034B1A6009
:100F0000002383F3118808BD111D400004ED00E0AB
:100F1000034A044B1A600722043B1A60704700BF63
:100F2000BF27090014E000E000B583B0254B1A7814
:100F3000D2B20192FF221A701B78DBB28DF8033017
:100F40009DF8033003F080031F4A137007221F4BE4
:100F50001A609DF8033013F0800F10D0062200E0D5
:100F60000A469DF803305B00DBB28DF803309DF834
:100F70000330511E13F0800FF2D1144B1A60134A44
:100F800013681B0203F4E0631360019BDBB20D4A9C
:100F900013700F4B1A6842F460021A601A6842F02C
:100FA00060421A600B4B984700220B4B1A600B4BA8
:100FB00098470B4A136843F040431360094B984726
:100FC000094B984700E400E0580A40205C0A4020A2
:100FD00020ED00E0110F400010004020950D400072
:100FE00034EF00E0750D4000390D4000EFF305834C
:100FF0000F2B11D9124A9B5CDBB2124A12789A422B
:101000000AD94FF0800372B683F31188BFF36F8F54
:10101000BFF34F8F62B6FEE70B4B1B6803F4E06330
:101020000A4A126893420AD94FF0800372B683F3DA
:101030001188BFF36F8FBFF34F8F62B6FEE7704723
:10104000F0E300E0580A40200CED00E05C0A40208C
:1010500010B50446064B98472046064B9847044671
:10106000054B98470CB1204610BD044B9847FAE752
:10107000F51C4000113140005D1E4000E32D400092
:1010800048B110B50446044B98472046034B984797
:10109000034B984710BD7047F51C400021314000BC
:1010A0005D1E400038B504461546026C5AB9036807
:1010B000002B2ED140681B4B984700236360A36B25
:1010C0000133A36338BD6DB98068174B9847A36897
:1010D000226C1344A360626893421CD32368A3600C
:1010E0000020ECE7C068104B9847236C5B42E26835
:1010F0001A44E26021688A4202D262681344E360C3
:10110000022D0AD1A36B53B1A36B013BA363002053
:10111000D5E70020D3E70020D1E70020CFE700206B
:10112000CDE700BFA52440009136400030B583B024
:101130000190446D74B1A26BE36B9A4215D34FF0EA
:10114000800372B683F31188BFF36F8FBFF34F8FA5
:1011500062B6FEE74FF0800372B683F31188BFF3E7
:101160006F8FBFF34F8F62B6FEE7A26B934203D837
:101170000025284603B030BD0A4601A920460B4B86
:1011800098470546A36CB3F1FF3F0AD1636A002B71
:10119000EFD004F12400064B9847002818BF012522
:1011A000E7E7A36C0133A364E3E700BFA5104000A9
:1011B00079224000026C72B110B50346C468144431
:1011C000C4604068844201D31868D8600846D96872
:1011D000014B984710BD704791364000F8B5044662
:1011E000224B9847A36C002B1BDD214D214F224E33
:1011F0000BE0636AABB104F12400B04778B9A36C8B
:10120000013BA364A36C002B0BDD636D002BF0D0BE
:1012100000212046A8470128F1D1B847EFE7B84799
:10122000EDE74FF0FF33A364144B98470F4B9847FB
:10123000636C002B14DD236993B104F110060E4D8D
:101240000C4F07E0636C013B6364636C002B07DDAC
:1012500023692BB13046A8470028F3D0B847F1E7FF
:101260004FF0FF336364054B9847F8BDF50D400020
:101270002D114000D523400079224000410E40004E
:1012800038B508B304460D461D4B98472268216CBB
:10129000E36B03FB01F3D01860600020A063A26041
:1012A0005B1A1344E3604FF0FF336364A364FDB93A
:1012B00023692BB104F11000124B984701280ED07E
:1012C000114B9847012038BD4FF0800372B683F36D
:1012D0001188BFF36F8FBFF34F8F62B6FEE74FF0F9
:1012E00080520A4B1A60BFF34F8FBFF36F8FE7E74F
:1012F00004F11000064DA84704F12400A847DFE7D9
:10130000F50D400079224000410E400004ED00E060
:10131000A90C4000F8B550B94FF0800372B683F3C2
:101320001188BFF36F8FBFF34F8F62B6FEE706469B
:1013300017460D4689B101FB00F05930124B984712
:101340000446E8B94FF0800372B683F31188BFF307
:101350006F8FBFF34F8F62B6FEE758200A4B984756
:1013600004460028EED02060E66325640121204673
:10137000064B984784F85070002363652046F8BDFB
:1013800000F158030360EFE7511040008112400064
:101390002DE9F04F85B00192B8B1044601B3022B9C
:1013A0002CD01D468846664B9847002834D1019BB7
:1013B000002B38D04FF0800372B683F31188BFF34F
:1013C0006F8FBFF34F8F62B6FEE74FF0800372B6A8
:1013D00083F31188BFF36F8FBFF34F8F62B6FEE7C1
:1013E000026C002ADBD04FF0800372B683F31188C1
:1013F000BFF36F8FBFF34F8F62B6FEE7E26B012A38
:10140000CFD04FF0800372B683F31188BFF36F8F94
:10141000BFF34F8F62B6FEE700274A4EDFF850A1B8
:10142000DFF82C9142E00027F7E72A4641462046A4
:10143000454B9847636D9BB129462046434B9847DF
:10144000012807D14FF08052414B1A60BFF34F8FF4
:10145000BFF36F8F3F4B9847012005B0BDE8F08F79
:10146000636A73B104F124003B4B98470128F1D122
:101470004FF08052364B1A60BFF34F8FBFF36F8F20
:10148000E8E70028E6D04FF08052314B1A60BFF3F6
:101490004F8FBFF36F8FDDE72E4B98470020DCE7BF
:1014A00020462E4B98472E4B98470127B047A26BFA
:1014B000E36B9A42B9D3022DB7D0019B002BEBD03E
:1014C0000FB902A8D047234B9847264B9847B047FF
:1014D000636CB3F1FF3F01D100236364A36CB3F1EC
:1014E000FF3F01D10023A3641A4B984701A902A82A
:1014F0001D4B9847E0B9B047D4F838B0E76B154BAF
:101500009847BB45CCD1019904F11000174B98477F
:101510002046124B9847124B98470028C5D14FF0F0
:101520008053C9F80030BFF34F8FBFF36F8FBCE714
:1015300020460A4B98470A4B984700208DE700BF8A
:10154000E1234000F50D4000A51040002D114000A2
:1015500004ED00E0410E400079224000DD11400022
:101560005D1E4000F51C40004123400075214000F5
:1015700011234000002836D02DE9F041044600290F
:101580003CD0022B48D01E4615468846354B98471E
:10159000EFF311874FF0800372B683F31188BFF326
:1015A0006F8FBFF34F8F62B6A26BE36B9A4201D38A
:1015B000022E4FD13246414620462B4B9847A36C12
:1015C000B3F1FF3F41D1636D002B33D0314620464C
:1015D000264B9847002D3FD001283DD1286087F346
:1015E0001188BDE8F0814FF0800372B683F3118853
:1015F000BFF36F8FBFF34F8F62B6FEE7006C00281A
:10160000BFD04FF0800372B683F31188BFF36F8FA2
:10161000BFF34F8F62B6FEE7E06B0128B3D04FF007
:10162000800372B683F31188BFF36F8FBFF34F8FC0
:1016300062B6FEE7636A8BB104F124000C4B984755
:1016400075B168B101202860C9E7A36C0133A364B8
:101650000120C4E70020C2E70120C0E70120BEE767
:101660000120BCE7ED0F4000A51040002D11400007
:101670007922400070B170B50446036CABB14FF0F5
:10168000800372B683F31188BFF36F8FBFF34F8F60
:1016900062B6FEE74FF0800372B683F31188BFF3A2
:1016A0006F8FBFF34F8F62B6FEE7036833B30D460B
:1016B000254B9847EFF311864FF0800372B683F302
:1016C0001188BFF36F8FBFF34F8F62B6A26BE36BCE
:1016D0009A4231D2A36B0133A363A36CB3F1FF3FF2
:1016E00025D1636DC3B100212046184B98472DB317
:1016F000012823D1286086F3118870BD4368002B30
:10170000D5D04FF0800372B683F31188BFF36F8F8B
:10171000BFF34F8F62B6FEE7636A8BB104F124001A
:101720000B4B984775B168B101202860E3E7A36CC3
:101730000133A3640120DEE70020DCE70120DAE7C3
:101740000120D8E70120D6E7ED0F40002D11400021
:10175000792240002DE9F04784B0019298B1044607
:10176000E1B198460F46614B984728BB019B53B3A4
:101770004FF0800372B683F31188BFF36F8FBFF30E
:101780004F8F62B6FEE74FF0800372B683F3118885
:10179000BFF36F8FBFF34F8F62B6FEE7026C002A74
:1017A000DFD04FF0800372B683F31188BFF36F8FE1
:1017B000BFF34F8F62B6FEE700264D4DDFF860A104
:1017C000DFF83C914BE00026F7E7E5683946204614
:1017D000484B9847B8F1000F1DD1A36B013BA363A1
:1017E000236813B9444B9847606023696BB104F1D7
:1017F0001000424B9847012807D14FF08052404BD0
:101800001A60BFF34F8FBFF36F8F3E4B9847012095
:1018100004B0BDE8F087E560636A002BF5D004F101
:101820002400364B98470028EFD04FF08052344BBD
:101830001A60BFF34F8FBFF36F8FE6E7314B9847C6
:101840000020E5E7A84760682F4B98472D4B984745
:1018500030E020462D4B98472D4B98470126A8474E
:10186000A36B002BB1D1019B002BE7D00EB902A8CE
:10187000D047244B9847274B9847A847636CB3F150
:10188000FF3F01D100236364A36CB3F1FF3F01D19B
:101890000023A3641B4B984701A902A81E4B98473D
:1018A000E8B9A847A66B174B9847002ED1D12368FB
:1018B000002BC7D0019904F12400184B984720460B
:1018C000124B9847124B98470028C7D14FF08053CE
:1018D000C9F80030BFF34F8FBFF36F8FBEE72046CC
:1018E0000A4B98470A4B9847002091E7E1234000B4
:1018F000F50D4000B51140006125400079224000FF
:1019000004ED00E0410E400001244000DD114000E4
:101910005D1E4000F51C4000412340007521400041
:101920001123400010B40B4B1B6853B10123094C29
:1019300054F8332032B10133082BF9D15DF8044B50
:1019400070470023034A42F8331002EBC303586088
:10195000F4E700BFD80B402070B504460D4616468C
:101960000F4B9847636CB3F1FF3F0BD0A36CB3F1FF
:10197000FF3F0AD00B4B9847A36B4BB120460A4B55
:10198000984770BD00236364F0E70023A364F1E788
:101990003246294604F12400044B9847EEE700BF85
:1019A000F50D4000410E4000DD114000F9214000DE
:1019B000084B1B681B683BB1064B1B68DB68DB6888
:1019C0005A68054B1A6070474FF0FF32024B1A609D
:1019D000704700BF640A4020100B402010B50F4B29
:1019E0001B6858600E4B1B6898420ED304460D4B83
:1019F00018680A4B196804310B4B98470B4B1B684E
:101A00009C4201D2094B1C6010BD094B1868034B66
:101A100019680431044B984710BD00BF600A40208C
:101A2000580B4020640A4020DD0C4000100B402081
:101A3000680A40202DE9F04F83B00C9DDDF834A0FA
:101A40000E9E60B1042D15D94FF0800372B683F35A
:101A50001188BFF36F8FBFF34F8F62B6FEE74FF071
:101A6000800372B683F31188BFF36F8FBFF34F8F7C
:101A700062B6FEE70190984691460F4636B990004F
:101A8000624B98470646002800F09E8058205F4B26
:101A900098470446002800F0948006634FEA8902C4
:101AA000A52130465A4B98476FF040464E44236B71
:101AB00003EB860323F007063B7884F834303B7849
:101AC000002B40F08480002784F83D70E562A56417
:101AD000E76404F104094846DFF884B1D84704F10B
:101AE0001800D8472461C5F10503A3616462276526
:101AF00084F85470424601993046464B984720601E
:101B0000BAF1000F01D0CAF80040434B9847434A4E
:101B1000136801331360424B1B68002B66D1404BA6
:101B20001C601368012B21D13E4F38463E4EB04712
:101B300007F11400B04707F12800B04707F13C0057
:101B4000B04707F15000B047DFF818814046B04772
:101B5000364F3846B0473648B0473648B047364823
:101B6000B047364BC3F80080354B1F60354A1368C9
:101B7000013313602364E06A334A11680123834010
:101B80000B43136000EB80004946264B03EB8000BB
:101B90002E4B98472E4B98472E4B1B68002B31D06D
:101BA0001F4B1B68DB6A9D422ED94FF080522A4B97
:101BB0001A60BFF34F8FBFF36F8F012003B0BDE8F2
:101BC000F08F3046254B98474FF0FF30F6E73B4605
:101BD00004F134020937597802F8011F13F8011F84
:101BE00000293FF470AFBB42F5D16CE7194B1B687D
:101BF000002BBBD10A4B1B68DB6A9D42B6D3084B56
:101C00001C60B3E70120D9E70120D7E7511040005D
:101C1000C5374000A90D4000F50D4000D00A402016
:101C2000600A40206C0A4020A90C4000FC0A4020B9
:101C3000180B4020440B4020300B4020640A402009
:101C4000680A4020DC0A4020E40A4020C50C40001D
:101C5000410E40002C0B402004ED00E081104000BC
:101C6000BF0C4000E80A402010B584B00023039365
:101C7000029301930093822216491748174CA047FC
:101C800001280BD020BB4FF0800372B683F311887C
:101C9000BFF36F8FBFF34F8F62B6FEE7104B9847CD
:101CA0000128EFD14FF0800372B683F31188BFF3A0
:101CB0006F8FBFF34F8F62B64FF0FF32094B1A6040
:101CC0000122094B1A600022084B1A60084B984702
:101CD00004B010BD186040000D204000351A4000CF
:101CE0004D264000100B40202C0B4020580B40206C
:101CF000290F4000024A136801331360704700BF88
:101D0000D80A4020014B1868704700BF580B40208C
:101D10002DE9F047424B1B68002B78D1414B1A68E4
:101D200001321A601E68D6B93F4B1B681B6853B15D
:101D30004FF0800372B683F31188BFF36F8FBFF348
:101D40004F8F62B6FEE7384A1168384B186810604A
:101D50001960374A136801331360364B9847364B86
:101D60001B689E4218D20024344B1B68DB6A03EBCD
:101D70008303334A52F82330022B28BF0124314B0E
:101D80001B680BB9304B9847304B1B68002B0CBFBE
:101D900020460120BDE8F0870024DFF88C90DFF8B2
:101DA000B8802B4F1FE04FF0FF32234B1A60DBE768
:101DB000214A1360D8E705F11800C047E86A3A687D
:101DC0000123834013433B6000EB800051461C4BD2
:101DD00003EB80001F4B9847184B1B68EA6ADB6ACD
:101DE0009A4228BF0124D9F800301B68002BDAD0B2
:101DF000D9F80030DB68DD686B689E42D8D305F106
:101E0000040A5046C047AB6A002BD4D1D6E70D4A2E
:101E10001368013313600C4B98470024B4E700BFEC
:101E2000D80A4020580B4020640A4020680A40200D
:101E3000140B4020B1194000100B4020600A4020D4
:101E40006C0A4020D40A4020E12D40005C0B402069
:101E5000E40A4020C50C4000110D40002DE9F84374
:101E6000384B1B6853B94FF0800372B683F3118867
:101E7000BFF36F8FBFF34F8F62B6FEE7324B9847C9
:101E8000304B1A68013A1A601B68002B55D12F4B52
:101E90001B68002B32D100242D4B98472046BDE80B
:101EA000F883FB68DC6804F11800B04704F104080B
:101EB0004046B047E06A2A680123834013432B6001
:101EC00000EB8000414609EB8000224B9847224BF3
:101ED0001B68E26ADB6A9A420CD23B68002BE0D1B5
:101EE0001E4B1B68DBB11D4B1B68C3B11C4E1D4D47
:101EF0001A4C0EE001221B4B1A60EEE71A4F1B4EE4
:101F00001B4DDFF87490E8E72368013B23602368EA
:101F10002BB1B0470028F7D001232B60F4E7114B19
:101F20001B68012B0BD14FF08052124B1A60BFF38C
:101F30004F8FBFF36F8F0124AEE70024ACE700247E
:101F4000AAE700BFD80A4020F50D4000D00A402083
:101F5000410E4000C50C4000600A4020D40A4020D9
:101F6000111D40005C0B4020180B4020110D40005B
:101F7000E40A402004ED00E06C0A402010B500287F
:101F800029D00446184B1B6853B14FF0800372B63A
:101F900083F31188BFF36F8FBFF34F8F62B6FEE7F5
:101FA000124B9847124B1B681C44124B18680430A4
:101FB000114B984748B90F4B1A6810490B68D06A03
:101FC0000122824023EA02030B6020460C4B984713
:101FD0000C4B984738B94FF080520B4B1A60BFF347
:101FE0004F8FBFF36F8F10BDD80A4020F51C400003
:101FF000580B4020600A4020110D4000E40A4020A8
:10200000DD1940005D1E400004ED00E080B5DFF802
:102010008880194EDFF884902AE0184B1B68012B4A
:102020001ED82B68002BF8D0C0473468B847002C66
:10203000F7D0134B9847F368DC68201D114B984785
:10204000114A1368013B13602B68013B2B600F4B57
:102050009847206BDFF848A0D0472046D047E0E7FC
:102060004FF08053C9F80030BFF34F8FBFF36F8F2D
:10207000074D084FD5E700BF440B40206C0A4020B5
:10208000F50D4000110D4000D00A4020410E4000E7
:10209000E00A40205D1E4000F51C400004ED00E019
:1020A000811040002D4B1B68002B2CD110B5002255
:1020B0002B4B1A602B4B1B681B6B1A68B2F1A53FA8
:1020C00003D15A68B2F1A53F21D0264B1868196890
:1020D0003431254B9847254B1B68B3FA83F3DBB2A9
:1020E000C3F11F0303EB8301214A52F82120BAB93F
:1020F0004FF0800372B683F31188BFF36F8FBFF385
:102100004F8F62B6FEE70122154B1A6070479A683E
:10211000B2F1A53FD9D1DB68B3F1A53FD5D1DAE75C
:10212000134A9900C81802EB800044686468446050
:10213000194402460832944209D003EB83030C4A47
:1021400002EB83035B68DA68064B1A6010BD6068B7
:10215000074A02EB81025060EFE700BFD80A402037
:102160005C0B4020600A4020C92D4000E40A40205A
:102170006C0A402038B5E0B10C46174D296818317B
:10218000164B984728680430154B984740B92A6881
:1021900014490B68D06A0122824023EA02030B60D3
:1021A000B4F1FF3F10D0104B186820440F4B9847F4
:1021B00038BD4FF0800372B683F31188BFF36F8F81
:1021C000BFF34F8F62B6FEE7034B1968043108482E
:1021D000084B984738BD00BF600A4020DD0C400026
:1021E000110D4000E40A4020580B4020DD1940004A
:1021F000300B4020C50C4000E8B170B515460C46C8
:10220000164E31681831164B984730680430154B1C
:10221000984740B9326814490B68D06A012282405D
:1022200023EA02030B60012D10D0104B18682044E4
:102230000F4B984770BD4FF0800372B683F311883F
:10224000BFF36F8FBFF34F8F62B6FEE7034B196882
:1022500004310848024B984770BD00BF600A402017
:10226000C50C4000110D4000E40A4020580B4020EE
:10227000DD194000300B402038B5C368DC6824B35A
:1022800004F1180528461A4B98471A4B1B683BBBAC
:10229000251D2846164B9847E06A174A1168012306
:1022A00083400B43136000EB80002946134B03EB84
:1022B0008000134B9847134B1B68E26ADB6A9A4213
:1022C00013D90120104B186038BD4FF0800372B64F
:1022D00083F31188BFF36F8FBFF34F8F62B6FEE7B2
:1022E00029460A48064B9847E5E7002038BD00BF5D
:1022F000110D4000D80A4020E40A40206C0A40201A
:10230000C50C4000600A40205C0B4020180B4020A8
:1023100030B1094A12680260084A12684260704788
:102320004FF0800372B683F31188BFF36F8FBFF352
:102330004F8F62B6FEE700BF140B4020580B4020C1
:1023400038B5C0B1044609B30D461D4B98471D4B27
:102350001A682B68B3F1FF3F2ED01B49096820682B
:10236000884202D061688A4228D26168501A83424A
:1023700017D801241CE04FF0800372B683F3118854
:10238000BFF36F8FBFF34F8F62B6FEE74FF080034E
:1023900072B683F31188BFF36F8FBFF34F8F62B6AE
:1023A000FEE79B1A0B442B602046084B98470024FD
:1023B000074B9847204638BD0024F9E70124F7E78A
:1023C000F50D4000580B4020140B40201123400015
:1023D000410E40000122014B1A6070475C0B402007
:1023E000054B1B6833B1054B1B68002B0CBF02204B
:1023F00000207047012070472C0B4020D80A402055
:10240000002844D038B50446C26A21490968C96A1F
:102410008A4214D28169002905DB1D490968C96A0D
:10242000C1F10501816102EB82021A4901EB8202CE
:102430006169914204D0164A1268D26AE26238BDDC
:10244000251D2846144B984770B9E36A03EB8301B6
:10245000104A52F821203AB910480268012101FAC5
:1024600003F322EA03030360094B1B68D86AE062A6
:102470000A4A1168012383400B43136000EB80007C
:102480002946044B03EB8000054B984738BD704745
:10249000600A40206C0A4020110D4000E40A4020F0
:1024A000C50C400000284DD038B50446274A1268B4
:1024B00090420AD04FF0800372B683F31188BFF3C5
:1024C0006F8FBFF34F8F62B6FEE7C26C52B94FF009
:1024D000800372B683F31188BFF36F8FBFF34F8F02
:1024E00062B6FEE7013AC264C06AA16C88422BD092
:1024F00052BB251D2846164B984768B9E16A01EB87
:102500008102144B53F8223033B913480368012277
:102510008A4023EA02030360A06CE062C0F1050375
:10252000A3610D4A1168012404FA00F30B43136000
:1025300000EB80002946074B03EB8000074B9847D0
:10254000204638BD00207047002038BD600A40207A
:10255000110D40006C0A4020E40A4020C50C4000E8
:10256000054B1B6823B1044B1A68D36C0133D36449
:10257000014B1868704700BF600A402008B54160F1
:10258000006191420CD8D21A83699A4201D301208A
:1025900008BD011D094B1868094B9847002008BD6C
:1025A0009A4203D2994201D3012008BD011D054B77
:1025B0001868034B9847002008BD00BF640B4020FB
:1025C000DD0C4000600B402070B5154B9847154B53
:1025D0001B6813B1144B984770BD144D2846144E18
:1025E000B047144C2046B047134B1D60134B1C6082
:1025F000002210210520124B98470A4B186018B191
:102600001049114B9847E5E74FF0800372B683F30A
:102610001188BFF36F8FBFF34F8F62B6FEE700BF25
:10262000F50D4000940B4020410E4000680B402007
:10263000A90C40007C0B4020600B4020640B402024
:1026400015134000206040002519400010B584B0EB
:102650000F4B98470F4B1B6873B1002303930293F2
:102660000193042200924FF482720B490B480C4CE8
:10267000A04708B104B010BD4FF0800372B683F3D9
:102680001188BFF36F8FBFF34F8F62B6FEE700BFB5
:10269000C9254000940B402028604000CD27400011
:1026A000351A4000D8B130B585B015460446154AF4
:1026B000106820B31A46009101950294052919DC8F
:1026C000114B984702284FF000030CBF089A1A4696
:1026D00069460C4800680D4CA04705B030BD4FF06E
:1026E000800372B683F31188BFF36F8FBFF34F8FF0
:1026F00062B6FEE700236946054CA047EDE70020DF
:10270000EBE700BF940B4020E12340009113400011
:10271000751540002DE9F04782B08046244B98475C
:102720000746244B1B6898421BD30023C8F800308F
:10273000204B1F60384602B0BDE8F08700210091B1
:102740000B46524620461C4CA04760B94FF0800310
:1027500072B683F31188BFF36F8FBFF34F8F62B6EA
:10276000FEE7164D164E2B681A68C2B1DB68D3F827
:1027700000A0DC6804F104094846B047636A2046BB
:102780009847E369012BEED1A36953449A45D5D20A
:1027900063602461494628680A4B9847E3E70A4A80
:1027A00010680649086013600123C8F80030BFE7CD
:1027B000051D4000900B4020A5264000600B4020E6
:1027C000110D4000DD0C4000640B40202DE9F04766
:1027D00088B0754E754FDFF8FC91DFF8FC813368E7
:1027E0001A68002A00F0CE80DB681C68B84704A88D
:1027F0006F4B98470546049B002B44D1A04212D250
:102800000022611B6B4B18686B4B98476B4B9847CA
:1028100000283AD14FF08053C9F80030BFF34F8FF2
:10282000BFF36F8F31E0654B98473368DB68D3F8AF
:102830000CA00AF10400C047DAF81C30012B04D0C8
:10284000DAF82430504698471FE0DAF8181023468B
:102850002A46214450465A4DA8470128F0D100216C
:1028600000910B4622465046564CA0470028E7D11F
:102870004FF0800372B683F31188BFF36F8FBFF3FD
:102880004F8F62B6FEE74D4B98474A4D4E4C06E0DF
:1028900007990698059B9847049B002B09DA0023AB
:1028A0001A4604A92868A047002898D0049B002B4A
:1028B000EEDBDDF818A0DAF8143013B10AF10400E9
:1028C000C04703A83A4B9847049B092BE7D801A2BD
:1028D00052F823F0FD284000FD284000FD2840006C
:1028E0009F284000512940007D294000FD284000DC
:1028F000FD2840009F28400051294000059CDAF83F
:10290000181023460246214450462D4CA04701286A
:10291000BCD1DAF8243050469847DAF81C30012B45
:10292000B4D1DAF81820002100910B460598024432
:102930005046244CA0470028A8D14FF0800372B61F
:1029400083F31188BFF36F8FBFF34F8F62B6FEE73B
:102950000599CAF8181031B10346024601445046A1
:10296000174CA04792E74FF0800372B683F31188AB
:10297000BFF36F8FBFF34F8F62B6FEE75046134B26
:10298000984783E7B84704A8094B98470546049B36
:10299000002B7FF478AF0E4B1B681A68B2FA82F2F4
:1029A000520900242DE700BF600B4020F51C4000B9
:1029B00015274000940B4020591940005D1E40002F
:1029C0007D254000A526400055174000811040009D
:1029D000640B402004ED00E0110D4000F0B583B021
:1029E00005460C46002301932A4B984213D02A4BEC
:1029F000984218D0294B98421DD0294B9D4222D095
:102A0000284B9D4227D0284B9D422ED0274B9D42DC
:102A100035D003B0F0BD1F46254E21463846B0479D
:102A20000028FAD1E9E71F46214E21463846B04733
:102A30000028FAD1E4E71F461D4E21463846B0472C
:102A40000028FAD1DFE71F46194E21463846B04725
:102A50000028FAD1DAE71E46164D01A93046A847EC
:102A60000028FAD1019B2370D3E71E46114D01A91E
:102A70003046A8470028FAD1019B2370C9E71E46BB
:102A80000C4D01A93046A8470028FAD1019B2370BC
:102A9000BFE700BF00080E40000A0E40001A0E40BB
:102AA000001C0E40004002400080024000C0024076
:102AB000CB084000DF09400000B583B002A9012324
:102AC00041F8043D034B1868034B984703B05DF889
:102AD00004FB00BF180C402075164000F0B593B001
:102AE0000022012120202B4B98472B4B18600026F9
:102AF00001961D46294C2A4F0DE012AB1E440023BF
:102B000006F8403C02A93846264B98479DF8083005
:102B10006F2B13D00026002364220DF103012868D7
:102B2000A0470128F7D19DF803300A2BE5D0721C8D
:102B300012A90E4406F8403CD6B2ECE79DF80930E5
:102B40006E2B05D09DF80930662B10D00026E2E7E9
:102B5000002312A941F8443D0A2213480068134E8D
:102B6000B0479DF808306F2BECD00026D3E79DF8D6
:102B70000A30662B01D00026CDE712A9012341F8C7
:102B8000443D00230A2208480068084EB04700264A
:102B9000C1E700BF15134000240C4020551740002A
:102BA000CC604000E9304000280C402091134000E8
:102BB00080B582B0032200210120144B9847144BAA
:102BC000186010B91348144B98474FF46173019380
:102BD0000F4E124D124F00242346224621463068E4
:102BE000A8470028F8D0019B643B02A941F8043DA6
:102BF00023460A223868DFF82C80C047019B642BEB
:102C0000EAD14FF461730193E5E700BF151340006B
:102C1000180C4020B0604000E930400055174000DB
:102C20001C0C4020911340002DE9F04182B000229D
:102C300004212020254DA847254C20600022042196
:102C40002020A847234B1860236863B1214B1B68E1
:102C50006BB100240DF1080848F8044D4FF461777A
:102C60001D4D1E4E13E01E481E4B9847EEE71C48B4
:102C70001C4B9847EDE7019F39461B48194B984775
:102C80000DE04FF4807333633846184B98470023A8
:102C90001A4641460E480068A8470028EBD1002399
:102CA0001A4641460B480068A84700B1019C3CB950
:102CB000F36B13F4807FE4D04FF480737363E3E726
:102CC0004FF4807130460A4B9847DDE715134000FA
:102CD0001C0C4020280C40205517400000120E40CC
:102CE000D0604000E9304000EC6040007D1F4000B3
:102CF0005B04400070B50C462A4B984213D02A4B17
:102D0000984219D0294B98421FD0294B984225D080
:102D1000284B98422BD0284B984231D0274B9842D1
:102D200037D0002070BD1E46254D21463046A847AD
:102D30000028FAD1012070BD1E46214D21463046A3
:102D4000A8470028FAD1012070BD1E461C4D21461F
:102D50003046A8470028FAD1012070BD1E46184D04
:102D600021463046A8470028FAD1012070BD1E46F2
:102D7000144D21463046A8470028FAD1012070BDE5
:102D80001E46104D21463046A8470028FAD10120A2
:102D900070BD1E460B4D21463046A8470028FAD18B
:102DA000012070BD00080E40000A0E40001A0E40BF
:102DB000001C0E40004002400080024000C0024063
:102DC000B9084000C909400008B50A460146024852
:102DD000024B9847FEE700BFFC604000E93040002E
:102DE00070474FF0800372B683F31188BFF36F8F83
:102DF000BFF34F8F62B6FEE770B584B01048114B39
:102E000098470123039310F0010F01D104B070BD66
:102E100004AC002344F80C3D094E0B4D21463046CE
:102E2000A8470028FAD1019B8DF80B30002303AA94
:102E30000DF10B0105480068054CA047E6E700BF0F
:102E400000800240C5094000DF094000240C4020FA
:102E5000751540002DE980488BB0674B9847674B4C
:102E60009847674B674A1A60DFF814A2664BCAF8A6
:102E70000030664D664B2B604FF4E1330493C02362
:102E800005934FF4006606960024079408940E20DC
:102E9000604FB847604A04A95A48604B9847594860
:102EA0005F4B98475748DFF8DCB1D847DFF8D89137
:102EB000D9F8003021469868DFF8D081C047D9F8AA
:102EC000003021465868C047D9F80030214698683C
:102ED000C0470B20B8470A20B84710224FF00051D6
:102EE0005048DFF8AC81C047DFF8A8914FF40012DA
:102EF0004FF000614846C0474B4AD2F8143143F0C6
:102F00001003C2F814310794089409944FF4E13384
:102F10000493C023059306960E20B8473E4A04A9A1
:102F200038483E4B984737483D4B98473548D84737
:102F3000354BCAF80030364B2B60012131483B4BF2
:102F400098473B4B4FF480421A60A02283F80E232F
:102F50004FF480621A60802283F80A2309233246E4
:102F60004FF020514846334DA8473C223146484651
:102F7000314B984731464846304B9847304B009389
:102F8000502332460A2148462E4DA8472E482F4B43
:102F90009847039402940194009423464FF480725E
:102FA0002B492C482C4CA047012802D02B482C4BF5
:102FB0009847002303930293019300934FF4007208
:102FC00028492948244CA047012802D02748244BEF
:102FD0009847002303930293019300934FF40072E8
:102FE000234924481C4CA047012802D022481C4BEE
:102FF0009847224B9847FEE7AD014000A9024000E8
:10300000D40B402000800240F52C4000CC0B402027
:10301000DD2940006508400080D1F00861094000CA
:10302000B509400000100E4000800840C109400072
:1030300000E100E05105400041044000130640005B
:10304000B92A400071064000252B4D0001004020A8
:1030500030604000292C4000351A400034604000A8
:10306000E930400058604000B12B400060604000F3
:1030700080604000DD2A40008C604000691C4000F8
:10308000D00B4020BB094000140040209D38400078
:103090005F044000000E0E4070B50F4E0F4D761BC2
:1030A000B61018BF002405D0013455F8043B9847EA
:1030B000A642F9D10A4E0B4D761B03F0DFF8B6108D
:1030C00018BF002406D0013455F8043B9847A642A7
:1030D000F9D170BD70BD00BF8862400088624000B9
:1030E00090624000886240000FB400B5074983B089
:1030F00004AB086853F8042B8168019300F04EFD7F
:1031000003B05DF804EB04B0704700BF140040202A
:10311000024B0146186800F00BB800BF14004020B5
:10312000024B0146186801F055BE00BF1400402054
:103130002DE9F04F01F10B06162E83B0054640F243
:103140009E8036F0070600F1BD80B14200F2BA80E1
:1031500000F086FBB6F5FC7FC0F09382730A00F0A6
:10316000B880042B00F27981B30903F1390003F12F
:10317000380EC300BF4F3B44A3F108015C68A14275
:1031800006D10CE0002A80F2AA80E468A14206D0B1
:10319000636823F003039A1B0F2AF3DD70463C6932
:1031A000DFF8E4E2744500F0AB81636823F00303C9
:1031B0009A1B0F2A00F39081002AC7F814E0C7F881
:1031C00010E080F29D80B3F5007F80F06181DB0824
:1031D00003F1010C99107A6857F83C80C4F8088014
:1031E00001238B4007EBCC0113430839E1607B607E
:1031F00047F83C40C8F80C408210012494409C429F
:1032000000F28B801C4206D120F0030064001C42B7
:1032100000F10400FAD007EBC009CC468046DCF888
:103220000C309C4507D16DE1002A80F27B81DB6880
:103230009C4500F06781596821F003018A1B0F2A21
:10324000F2DDD3F80CC0D3F8088000939C1928460F
:1032500046F0010642F001055E60C8F80CC0CCF8EB
:1032600008807C613C61C4F80CE0C4F808E065604B
:103270005A5000F0FBFA009B03F108041EE01029ED
:1032800020D800F0EDFA102618230220794F3B4495
:10329000A3F108025C68944200F03D816368E16834
:1032A000A66823F00303234428465A68F16042F0DD
:1032B00001028E605A6000F0D9FA0834204603B04B
:1032C000BDE8F08F00240C2320462B6003B0BDE83E
:1032D000F08F40204FF400734FF03F0E4AE7234435
:1032E000E1685A68A66842F00102F16028468E60E3
:1032F0005A6000F0BBFA0834204603B0BDE8F08FF6
:10330000234428465A6842F001025A6000F0AEFA9F
:103310000834204603B0BDE8F08FBC68636823F032
:103320000308B04504D3A8EB06030F2B00F38580F8
:10333000DFF85891504BD9F800201B680132334414
:1033400004EB080A00F0558103F580530F3323F492
:103350007F6B2BF00F0B5946284600F08DFA411C6D
:10336000024600F0FC80824500F2F780434B19686A
:103370005944196000F04D81D9F8000001301BBF9D
:10338000A2EB0A0A5144C9F80020196012F00701A3
:1033900000F01581C1F10800C1F5805102440831E7
:1033A00002EB0B09C9F30B09A1EB090949462846B1
:1033B0000193009200F060FA431C9DE80C0000F0BD
:1033C0004381801A484440F001001968BA604944BA
:1033D000BC425060196017D0B8F10F0F40F2FB806B
:1033E0006068A8F10C0222F0070204EB020E00F064
:1033F00001004FF0050C10430F2A6060CEF804C0A6
:10340000CEF808C000F217811D4BBC681A689142C3
:1034100088BF19601B4B1A689142626888BF1960A7
:1034200022F003029642A2EB060301D80F2B04DC24
:10343000284600F01BFA002440E7A21943F00103DC
:1034400046F0010666602846BA60536000F00EFA46
:103450000834204603B0BDE8F08F142B71D9542BEB
:1034600000F2A380330B03F16F0003F16E0EC30073
:1034700080E600BF40044020C80B4020980B40204D
:10348000C00B4020C40B4020480440204808402086
:103490005A0A042A5BD9142A00F2AE8002F15C01B8
:1034A000C9005B3207EB010C7958ACF1080C8C4574
:1034B00000F088804A6822F00302934273D2896840
:1034C0008C45F7D1DCF80C207B68E260C4F808C0BA
:1034D0009460CCF80C408FE6A11946F0010C42F044
:1034E0000106C4F804C0284679613961C1F80CE0CE
:1034F000C1F808E04E60E25000F0B8F90834DDE6AB
:103500007B6879E608F1010818F0030F0CF1080C4C
:103510007FF485AE2DE0DC68A34208BF02303FF4A3
:103520003EAEBBE619441C464A68DB6854F8086F97
:1035300042F001024A602846F3609E6000F096F96E
:10354000BCE603F15C0003F15B0EC30012E69A09CE
:1035500002F13901C9003832A4E7BC4254D0BC683A
:10356000626822F003025DE759F80839994540F096
:10357000868010F0030F00F1FF30F5D17B6823EA5D
:1035800004037B6064009C423FF6C7AE002C3FF40E
:10359000C4AE1C4240467FF43EAE64001C4200F1C3
:1035A0000400FAD037E68C468CE7B3F5AA7F15D82D
:1035B000F30B03F1780003F1770EC300DAE54FF463
:1035C0008051EDE67B689210012101FA02F213436B
:1035D0007B60624679E70123536029E740F2545249
:1035E000934222D8B30C03F17D0003F17C0EC3009B
:1035F000C0E503F1100BAEE6542A29D81A0B02F1EC
:103600006F01C9006E324DE7204B196859441960AB
:10361000B2E6CAF30B0000287FF4AEAE08EB0B0352
:10362000BA6843F001035360EEE67F204FF47E73E7
:103630004FF07E0E9EE504F108012846009301F04C
:10364000C9FB009B1968DFE601204FF00009BCE6CA
:10365000B2F5AA7F05D8DA0B02F17801C9007732FA
:1036600020E740F254518A4205D89A0C02F17D01BC
:10367000C9007C3216E74FF47E717E2212E77B6828
:1036800080E7F00806F1080300E600BF980B402031
:10369000844641EA000313F003036DD1403A41D35D
:1036A00051F8043B40F8043B51F8043B40F8043B1C
:1036B00051F8043B40F8043B51F8043B40F8043B0C
:1036C00051F8043B40F8043B51F8043B40F8043BFC
:1036D00051F8043B40F8043B51F8043B40F8043BEC
:1036E00051F8043B40F8043B51F8043B40F8043BDC
:1036F00051F8043B40F8043B51F8043B40F8043BCC
:1037000051F8043B40F8043B51F8043B40F8043BBB
:1037100051F8043B40F8043B51F8043B40F8043BAB
:10372000403ABDD2303211D351F8043B40F8043B4B
:1037300051F8043B40F8043B51F8043B40F8043B8B
:1037400051F8043B40F8043B103AEDD20C3205D35B
:1037500051F8043B40F8043B043AF9D2043208D053
:10376000D2071CBF11F8013B00F8013B01D30B88C5
:1037700003806046704700BF082A13D38B078DD0A3
:1037800010F003038AD0C3F10403D21ADB071CBF75
:1037900011F8013B00F8013B80D331F8023B20F8DF
:1037A000023B7BE7043AD9D3013A11F8013B00F818
:1037B000013BF9D20B7803704B7843708B788370A0
:1037C0006046704770B4860746D0541E002A41D028
:1037D000CAB2034602E014F1FF343BD303F8012BD5
:1037E0009D07F8D1032C2ED9CDB245EA05250F2C23
:1037F00045EA054519D903F110022646103E0F2E61
:1038000042F8105C42F80C5C42F8085C42F8045C38
:1038100002F11002F2D8A4F1100222F00F0204F01B
:103820000F041032032C13440DD91E462246043ACD
:10383000032A46F8045BFAD8221F22F0030204325E
:10384000134404F003042CB1C9B21C4403F8011B57
:103850009C42FBD170BC704714460346C2E700BFD0
:10386000014801F051BD00BF3C0C4020014801F06F
:103870004DBD00BF3C0C402038B5074C0023054629
:1038800008462360FDF7E8F9431C00D038BD2368E3
:10389000002BFBD02B6038BD500C402000290CBF02
:1038A000022200224FF4806300F000B82DE9F043BB
:1038B000614C256883B004460F4690461E4615B1FC
:1038C000AB6B002B64D0B8F1020F06D0B8F1010F3A
:1038D00000F29F80002EC0F29C80636ED80734D522
:1038E0002146284601F0F8F8216B41B104F140036C
:1038F000994202D0284601F06DFA00232363B4F9FF
:103900000C300022A26162601A063AD423F44A63A2
:1039100023F00303B8F1020FA3811DD001AB6A4667
:103920002146284601F0F4FCA3891843A081002E0B
:1039300032D1009E3046FFF7EBFB074600286BD0E4
:10394000A38943F08003A38128E0A3899905C7D404
:10395000A06D01F0D9FCC3E70025616E002604F1DB
:10396000430243F002030120A660CE07A381226038
:103970002261606101D498053ED5284603B0BDE8B8
:10398000F0832169284601F025FAB4F90C30BDE72F
:10399000284601F0F9F896E7002FCBD0AB6B002B4F
:1039A00033D0009BB4F90C2027609E421CBF42F428
:1039B0000062A281B8F1010F04BF42F00102A281AE
:1039C00092B212F00803276166610ED0D1071AD5B2
:1039D000656E7642002315F00105A661A36009D04B
:1039E0000025284603B0BDE8F083A360656E15F09E
:1039F0000105F5D19305C0D4A06D01F087FC2846E0
:103A000003B0BDE8F083A660F0E7284601F0BCF8FB
:103A1000C7E74FF0FF35B0E7DDF80090B14504D0BF
:103A20004846FFF775FB074620B9B4F90C304FF054
:103A3000FF3592E74E4683E7140040200000000067
:103A400090F800F06DE9024520F007016FF0000CDE
:103A500010F0070491F820F040F049804FF0000486
:103A60006FF00700D1E9002391F840F000F1080061
:103A700082FA4CF2A4FA8CF283FA4CF3A2FA8CF399
:103A80004BBBD1E9022382FA4CF200F10800A4FA00
:103A90008CF283FA4CF3A2FA8CF3E3B9D1E9042354
:103AA00082FA4CF200F10800A4FA8CF283FA4CF38B
:103AB000A2FA8CF37BB9D1E9062301F1200182FA45
:103AC0004CF200F10800A4FA8CF283FA4CF3A2FA4B
:103AD0008CF3002BC6D0002A04BF04301A4612BA59
:103AE000B2FA82F2FDE8024500EBD2007047D1E95C
:103AF000002304F00305C4F100004FEAC50514F0EB
:103B0000040F91F840F00CFA05F562EA05021CBFBB
:103B100063EA050362464FF00004A9E72DE9F84F78
:103B20004B6E9C0493462FD59368126853B30E4690
:103B3000074602F1080919E920045FEA9A0817D03C
:103B4000043D002401E0A04510D0324655F8041F82
:103B5000384601F0BBF8431C04F10104F3D1002303
:103B6000CBF80830CBF80430BDE8F88FDBF808302C
:103B70002AF0030AA3EB0A03CBF8083009F108097D
:103B8000002BD8D10020EAE701F00AFA0023CBF895
:103B90000830CBF80430BDE8F88F00BF2DE9F04FB6
:103BA000ADB01D468B4690460793069018B1836BC7
:103BB000002B00F0F380DBF86430BBF90C00DF076A
:103BC00081B202D48E0540F1FC808C040AD4DBF86B
:103BD000643040F4005123F40053ABF80C10CBF8E0
:103BE000643089B2080740F1B380DBF81030002B55
:103BF00000F0AE8001F01A030A2B00F0B58000231C
:103C00000DF170090B93119310930393CDF83C9031
:103C1000CA46CDF810B098F800304446FBB1252BC9
:103C200002D11CE0252B03D014F8013F002BF9D161
:103C3000A4EB08059DB1109B119ACAF800800133CE
:103C40002A44072BCAF80450119210937ADD002AF7
:103C500040F0B084039B10922B44CA460393237810
:103C6000002B00F0E08300204FF000038DF8373088
:103C700004F1010862780546064603464FF0FF341A
:103C800008F10108A2F12001582900F2DE82DFE8E4
:103C900011F02102DC02DC022902DC02DC02DC027F
:103CA000DC02DC02DC0289029502DC02A200BD0219
:103CB000DC029F01A401A401A401A401A401A401A8
:103CC000A401A401A401DC02DC02DC02DC02DC02AF
:103CD000DC02DC02DC02DC02DC02B201DC02DC021F
:103CE000DC02DC02DC02DC02DC02DC02DC02DC02E4
:103CF0009701DC02DC02DC02DC02DC029B01DC025C
:103D0000DC025302DC02DC02DC02DC02DC02DC024C
:103D1000DC02DC02DC02DC025A021B02DC02DC02F6
:103D2000DC026E021B02DC02DC027302DC02F50123
:103D300082010902D702DC029A02DC02A700DC023F
:103D4000DC022E020AF1080A039B2B44039386E748
:103D50005946069800F0ACFD18BBBBF80C1001F0FA
:103D60001A030A2B7FF44BAFBBF90E30002BFFF682
:103D700046AFDBF86430DB0705D48F0503D4DBF8EE
:103D8000580001F0C3FA2B4642465946069800F007
:103D90004DFD039003982DB0BDE8F08F00F0F4FEC8
:103DA00009E7DBF86430D90704D4BBF80C309A0576
:103DB00040F1AA844FF0FF33039303982DB0BDE880
:103DC000F08FDBF8580001F09FFABBF90C0081B2CC
:103DD000FBE67642079243F0040398F800204FE791
:103DE00008969E0600F150840799DD060A4600F108
:103DF000EF83580640F1EC830E880431002701223E
:103E000007914FF000018DF837100025611C00F07C
:103E1000168123F08001029156EA070140F01481D7
:103E2000002C40F05C83002A40F0B78313F00103BC
:103E3000059300F057840DF1B00B30230BF8413D92
:103E4000059BA342B8BF234601930DB101330193F3
:103E5000029B13F00203099302D0019B02330193EA
:103E6000029B13F084030A9340F01782089B019A87
:103E70009D1A002D40F31182102D40F39084109B69
:103E8000119AC44ED6461027A2461946069C07E052
:103E900001F1020C0EF1080E0146103D102D11DD4E
:103EA000481C1032072811928EE8C0001090EFDDF8
:103EB000002A40F0E481103D102D11464FF0010C16
:103EC000CE46EDDC54466146F2462A44072911925B
:103ED000CAF80060CAF80450109100F3EC829DF813
:103EE00037500AF1080A481C002D40F0DE81099B7A
:103EF000002B00F0F88102320EA90223072811924C
:103F000010908AE80A0040F3EA81002A40F08C838E
:103F10000A9B802B4FF001001146CA4640F0E78112
:103F2000089B019D5E1B002E40F3E181102E9A4DEF
:103F300040F35084D4461027A246069C07E001F1C6
:103F4000020E0CF1080C0146103E102E11DD481C2B
:103F50001032072811928CE8A0001090EFDD002AA3
:103F600040F09D82103E102E4FF0010E1146CC46BF
:103F7000EDDC5446E2463244BEF1070F11928AE866
:103F80006000CDF840E000F369830AF1080A0EF101
:103F900001007146ABE1089613F0200240F08C83DB
:103FA00013F0100140F01A8313F0400200F0168362
:103FB00007980A460146043106880791002720E742
:103FC000089643F01003E7E7089643F0100308E76C
:103FD00043F0800398F8002052E6A2F13001002659
:103FE00018F8012B06EB860601EB4606A2F130011C
:103FF0000929F5D946E60896002840F0088443F0E0
:1040000010039E0600F14C83DD0600F1F382580692
:1040100040F1F082079DB5F900602A46F717043297
:10402000304639460792002871F10002C0F25D83E4
:10403000611C9DF837504FF001027FF4EAAE56EA5A
:10404000070100F04D820293012A00F08C82022ABF
:1040500040F05C820B98CB46330906F00F0143EA2F
:1040600007733A091E461746435C0BF8013D56EAB2
:104070000703F1D1A9EB0B030593E1E6002840F01B
:10408000C083990600F16783DA0600F1F1805B06D0
:1040900040F1EE80079A136804320792BDF80C20B5
:1040A0001A80B8E507983D4A08960B920668782270
:1040B000302104308DF8392043F0020307900027A7
:1040C0008DF8381002229CE60896002899D08DF8C9
:1040D000375096E798F80020002D7FF4D1AD0120ED
:1040E0002025CDE543F0010398F80020C8E50896A7
:1040F000002840F0938329490B919F0600F1E88244
:104100000798DE06014600F170825D0640F16D827F
:104110000431068807910027D80740F1228256EA29
:10412000070100F01E8230218DF8392043F0020390
:104130008DF83810022264E60896002840F06B8360
:1041400017490B91D9E7079908960A688DF8482016
:104150004FF000000A468DF837000432012001902C
:10416000079205900DF1480B0293002470E643F08E
:10417000400398F8002083E598F800206C2A03BFDC
:1041800098F8012043F0200308F1010843F01003E0
:1041900076E500BF48614000586140002C61400056
:1041A0001861400007990E680A46002E02F10402C9
:1041B000FFF60FAE079298F8002061E598F800200E
:1041C00001202B255CE507990896D1F800B04FF047
:1041D00000028DF837200E1DBBF1000F00F0E582C4
:1041E000671C00F0C482224600215846019301F06A
:1041F0001FF9019B002800F0E582A0EB0B0205925D
:10420000079602939DF83750002419E698F800208D
:104210002A2A08F1010700F0E982A2F130010929F8
:10422000B8464FF000043FF62DAD18F8012B04EB13
:10423000840401EB4404A2F130010929F5D921E5F8
:1042400043F0200398F800201AE50896002840F073
:10425000DB82002A00F0E78001218DF848204FF032
:10426000000201918DF8372005910DF1480B7BE795
:10427000079A136804320792039A1A60CBE40FAAD4
:1042800004992046FFF74AFC002840F03981109934
:10429000119A01F1010CCE46FFE51099119A481CC4
:1042A0009DF83750002D3FF422AE01320DF1370555
:1042B0000121072811921090CAF80050CAF8041082
:1042C00040F30881002A40F0BC81099B002B3FF499
:1042D0001FAE0EAB022208461C931D92CA46014631
:1042E0000AF1080A01300A9B802B3FF419AE059BA6
:1042F000E41A002C2EDD102CB34D1EDDD646102600
:10430000069FDDF810A006E0881C0EF1080E194685
:10431000103C102C10DD4B1C1032072B11928EE834
:1043200060001093F0DD002A65D1103C102C4FF096
:1043300001001146CE46EEDCF246224407281192D7
:10434000CAF80050CAF80440109000F385800AF1C2
:10435000080A01300599CAF800B00A4407281192EA
:10436000CAF80410109040F38280002A40F01881AF
:10437000029B1092580735D5089B01995C1A002CB6
:1043800040F3E780CA46102C40F3188210998F4EF4
:10439000069FDDF810B0102506E0881C0AF1080A17
:1043A0001946103C102C11DD4B1C1032072B1192BA
:1043B000CAF80060CAF804501093EEDD42BB103C0E
:1043C000102C4FF001001146CA46EDDC22440728AC
:1043D0001192CAF80060CAF80440109051DD002A1A
:1043E00040F09B81039B089A01998A42ACBF9B18BD
:1043F0005B1803934EE00FAA51463846FFF78EFB39
:10440000002840F03F811099119A481CCE467FE762
:104410000FAA59463846FFF781FB60B91099119AE7
:10442000481CCA46BDE7119BDDF810B0002B40F0D8
:10443000D48100231093DBF8643013F0010FBBF834
:104440000C3002D19A0540F1DE805B063FF5B2AC3C
:1044500003982DB0BDE8F08F002A40F00681059A40
:104460001D9201231192CDF870B01093CA460AF143
:10447000080A029B590704D5089B01995C1A002C75
:1044800081DC039B089901988142ACBF5B181B1823
:10449000039372BB00231093CA46FFF7BCBB0FAA5D
:1044A00004992046FFF73AFB50BB1099119A01F18D
:1044B000010ECC4648E5002A40F040819DF83710B7
:1044C000002900F01B8101220DF1370110461D92D9
:1044D0001C91CA4601460AF1080A013007E5029B11
:1044E000012A00F09880022A0DD1029300260027AD
:1044F000B0E50FAA04990698FFF710FB0028C9D071
:10450000DDF810B097E7029300260027494600E047
:104510005946F20842EA4772F80806F007030746D0
:104520001646303356EA070201F8013C01F1FF3B21
:10453000EED1029AD6077FF59DAD302B3FF49AADB0
:10454000023930230BF8013CA9EB010305938B469C
:1045500076E4039B089A8A42ACBF9B185B180393CE
:1045600098E702224DE4002F08BF0A2E52D3CB4613
:10457000304639460A22002301F0C6FB30320BF8E0
:10458000012D3046394600230A2201F0BDFB0646C4
:104590000F4656EA0703EBD16CE50594CB464FE492
:1045A0000FAA04990698FFF7B9FA0028A8D1119A22
:1045B000CA465EE70FAA04990698FFF7AFFA0028EB
:1045C0009ED1CA46FFF7C0BB586140004861400019
:1045D0000431166807910122002712E4079801466A
:1045E00004310668079100270BE40E680431079137
:1045F000002791E507990E680A46F71704320792DB
:10460000304639460FE5DBF8580000F07FFEBBF876
:104610000C301AE7029B02930DF1B00B30360123E8
:104620000BF8416D05930BE40FAA04990698FFF768
:1046300075FA00287FF464AF1099119A481CCA4695
:1046400051E60FAA04990698FFF768FA00287FF44C
:1046500057AF1099119A481CCA4648E4002A40F006
:10466000918001201146CA4641E60FAA0499069896
:10467000FFF754FA00287FF443AF1098119A0130E5
:10468000CA4667E6D346D6E6079E073626F00702F7
:1046900002F10801D2E9006707910122FFF7B1BBDF
:1046A000079E073626F00706D6E9000106F1080244
:1046B000079206460F46B6E4079E073626F0070225
:1046C00002F10801D2E9006707910022FFF799BBC8
:1046D000079E073626F0070101F108000790D1E98F
:1046E000006719E5CB46FFF7ABBB2D25764267EB9C
:1046F00047078DF837500122FFF788BB099BB3B9F4
:1047000011460120CA46F2E5DBF8580000F0FEFD34
:104710004FF0FF330393FFF750BB0FAA049906989D
:10472000FFF7FCF900287FF4EBAE119AA9E60EAB77
:1047300002221C931D920120CA46D0E50FAA0499BB
:104740000698FFF7EBF900287FF4DAAE1099119A7A
:10475000481CCA46A4E5079A03991368CD17084672
:10476000043229460792C3E90001FFF754BA5846BC
:1047700007960293FFF764F9002405909DF83750DF
:10478000FFF75EBB0FAA04990698FFF7C7F9002848
:104790007FF4B6AE1099119A481CCA46A7E5109945
:1047A000119A204E0131FFF790BB062C28BF06243A
:1047B000059407960194DFF870B0D5E41098194E6F
:1047C000013003E605949DF837500796029304469E
:1047D000FFF736BB8646FFF7CEBB06980FAA5946B1
:1047E000FFF79CF900283FF424AE24E6079998F8D7
:1047F00001200C68043144EAE474B8460791FFF7DD
:104800003FBA8DF837503CE48DF8375021E58DF8EC
:104810003750FFF7F4BB8DF8375091E48DF83750DF
:1048200069E400BF48614000406140002DE9F0416B
:104830000C46ADF58D6D8989666EE589199621F076
:1048400002010646E069ADF80C1017464FF480618E
:10485000626AADF80E5098461AAD0023079016A86C
:1048600009920693009504950291059100F048FD88
:1048700043463A4669463046FFF790F9051E07DB86
:104880003046694600F028F9002818BF4FF0FF3580
:10489000BDF80C305B0603D5A38943F04003A38128
:1048A000169800F02FFD28460DF58D6DBDE8F081BE
:1048B00038B5304B1B6805460C4613B19A6B002A7D
:1048C00038D0B4F90C2093B218070CD52069A8B1E0
:1048D00013F001021ED0636900225B42A361A26053
:1048E000F0B1002038BDD9063CD5580726D4206940
:1048F00042F00803A3819BB20028E9D103F420729F
:10490000B2F5007FE4D02846214600F02FFDA389B0
:104910002069DDE7990758BF6269A2600028E0D1ED
:10492000B4F90C301A06DDD543F04003A3814FF0F3
:10493000FF3038BD184600F027F9C2E7216B51B1AE
:1049400004F14003994204D0284600F043FAB4F938
:104950000C200023236300232069636022F02402DB
:104960002060C5E742F0400209232B604FF0FF3082
:10497000A28138BD14004020024B13B1024800F060
:1049800005B8704700000000F94B400000230146C5
:104990001A46184601F090B8B1F90C309AB22DE9D8
:1049A000F0410D46110780463AD46A6843F400632B
:1049B000002AAB816FDDAC6A002C49D000229BB28B
:1049C000D8F80060C8F8002013F4805267D02A6D30
:1049D0005F0705D569682B6B521A0BB1EB6BD21AC6
:1049E0000023E9694046A047441C3CD0B5F90C308F
:1049F0002A692A6023F400630022AB81DB046A6029
:104A000047D4296BC8F8006011B305F140039942FF
:104A100002D0404600F0DEF900202863BDE8F081B6
:104A20002E69AEB12C682E6091070CBF6B69002314
:104A3000A41BAB600AE0234632466F6AE969404630
:104A4000B8470028A4EB0004064404DD002CF2DC87
:104A50000020BDE8F081AB8943F04003AB814FF00B
:104A6000FF30BDE8F081D8F800401D2CF3D8194B79
:104A7000E340DB4313F00103EDD1B5F90C206B608B
:104A800022F400632969AB81DA042960B9D5002CCE
:104A9000B7D12865B5E7EA6B002A8CDCD8E701239B
:104AA000E9694046A047431C024602D0AB89AC6A84
:104AB0008EE7D8F80030002BF8D01D2B01D0162B34
:104AC00002D1C8F80060C3E7AB8943F04003AB8173
:104AD000BDE8F0810100402038B50D46044608B11C
:104AE000836BBBB1B5F90C0088B16B6EDB0701D4E9
:104AF000810517D520462946FFF74EFF6B6EDA0772
:104B0000044602D4AB899B0507D5204638BD044630
:104B1000204638BD00F038F8E4E7A86D00F0F6FB59
:104B2000204638BDA86D00F0EFFBE3E7014900F037
:104B3000AFBB00BFA15B400010B5002304468181DC
:104B4000C2810360436083604366036143618361A4
:104B5000194608225C30FEF735FE07480749084A27
:104B6000084B2062E4616162A262E36204F15800D2
:104B7000BDE8104000F0C4BBE558400009594000B2
:104B8000455940006559400010B50446124800F0F0
:104B9000BBFBA26BD2B904F53B731048C4F8E832F2
:104BA0000321C4F8E022E063C4F8E4126068042141
:104BB000FFF7C2FF01220921A068FFF7BDFF022213
:104BC0001221E068FFF7B8FF0123A3630248BDE8A4
:104BD000104000F09BBB00BF380C40202D4B400024
:104BE000014800F091BB00BF4C0C4020014800F090
:104BF0008DBB00BF4C0C402038B50A4C0A4D641BDD
:104C0000A4100AD004F18043013B05EB8305013C6D
:104C100055F804399847002CF9D1BDE8384001F027
:104C200037BB00BFA06240009C6240002DE9F04706
:104C300082B080468946144600F054FB012836D0E5
:104C40004A4604F15C0301A9404600F0E7FE421C1D
:104C5000064625D0A8B39DF804E000250DF1040A0E
:104C600009E023685A1C226083F800E00135B54250
:104C700027D215F80AE0A368013B002BA360F0DA05
:104C8000A769BB4271462246404602DBBEF10A0FCD
:104C9000E7D100F06BFE431CE8D102B0BDE8F0871D
:104CA000A38943F04003A38102B0BDE8F08709F176
:104CB000FF33FE2BC4D85FFA89FE06468DF804E068
:104CC000CBE7484602B0BDE8F08700BF30B5536E71
:104CD00013F0010FB2F90C30144683B005469AB2B6
:104CE00001D190051CD5900406D4626E43F40053A4
:104CF00042F40052A381626628462246FFF796FFDF
:104D0000636EDA07054602D4A3899B0502D52846BF
:104D100003B030BDA06D00F0F9FA284603B030BDF5
:104D2000A06D019100F0F0FAB4F90C3001999AB23B
:104D3000D9E700BFF8B5244F0C460646FEF790FDB4
:104D4000BB685D68C4F57E610F3125F00305294419
:104D500021F47F6121F00F01A1F58054B4F5805F4B
:104D600007DB00213046FEF787FDBB682B449842E5
:104D700004D03046FEF77AFD0020F8BD614230468F
:104D8000FEF77AFD01300DD0104BBA6819682D1B63
:104D900045F001053046091B55601960FEF766FDB8
:104DA0000120F8BD00213046FEF766FDBA68831A7F
:104DB0000F2BDEDD064C0549246843F00103001B80
:104DC00053600860D5E700BF40044020980B4020A6
:104DD00048084020002944D02DE9F0410D46804686
:104DE000FEF73EFD55F8047C694927F00103A5F163
:104DF0000804E2188E685068B24220F003005ED0CA
:104E0000FE0750600BD455F8087CE41B01F1080E36
:104E1000A56875453B446DD0E768EF60BD60151827
:104E20006D68ED073ED543F001026260E350B3F5D3
:104E3000007F17D2DB08581C9A104D6851F830706B
:104E4000A7600123934001EBC0022B43083AE260C4
:104E50004B6041F83040FC604046BDE8F041FEF751
:104E600005BD70475A0A042A52D89A0902F1390737
:104E7000FF0002F13805C819CA59083890424FD0CE
:104E8000516821F003018B4232D292689042F7D1EF
:104E9000C368A060E3609C60C4604046BDE8F04128
:104EA000FEF7E4BC95683B4FBD42034440D0D06858
:104EB000E86043F0010285606260E350B7E7FF07F6
:104EC000034407D455F8082CA41A1344A068E268D8
:104ED000C2609060304A126843F001009342606003
:104EE0008C60B9D32D4B40461968FFF723FFB3E719
:104EF0001046CDE711184968C90744D49168D268B3
:104F0000CA60034443F0010091606060E350A3E78E
:104F1000142A16D802F15C07FF0002F15B05AAE72C
:104F2000AA1001234D6893402B434B600346B0E722
:104F300043F001024C610C61E560A5606260E350E2
:104F40008AE7542A06D81A0B02F16F07FF0002F114
:104F50006E0590E7B2F5AA7F06D8DA0B02F1780762
:104F6000FF0002F1770586E740F25450824206D8EE
:104F70009A0C02F17D07FF0002F17C057BE74FF4FC
:104F80007E777E2577E743F001016160136063E778
:104F900040044020480440204C084020C80B4020DA
:104FA0009368002B73D02DE9F04F8B8983B00C46AA
:104FB00019070090164626D5226922B313F0020085
:104FC00035682CD04FF00009B04FC846B246B845FE
:104FD00043464A4628BF3B460098B8F1000F50D0E0
:104FE000E169666AB047002858DDDAF808301B1A14
:104FF0008144A8EB0008CAF80830002BE7D1002054
:1050000003B0BDE8F08F21460098FFF751FC00285F
:1050100040F03381A389356813F00200D2D113F038
:10502000010945D14F46019637B39A05D4F8088057
:1050300040F183804745C346C0F0AB8013F4906FC6
:1050400040F0AC802068BA465A46494600F040FA23
:10505000A2682368A2EB08025B44A2602360019A65
:105060009368A3EB0A03D144A7EB0A079360002BD4
:10507000C5D0A389002FD8D1D5F800906F68083526
:10508000D2E7D5F80090D5F8048008359FE70020D6
:10509000704721460098FFF71FFD70B3B4F90C303C
:1050A00043F040034FF0FF30A38103B0BDE8F08F21
:1050B000814633464E46A8469A464D464EB380B387
:1050C000206823696269B145CB4628BFB346984240
:1050D0005F4604D9A36813449B4500F3A68093451B
:1050E0004BDB1346676AE16900982A46B847071EFA
:1050F000D4DDB9EB0709CCD00120DAF80830DB1B8E
:105100003D44F61BCAF80830002B3FF478AF002E60
:10511000D5D108F1080313E9600098460833002E42
:10512000F9D032460A21284600F082F9002800F022
:10513000A1800130A0EB0509C2E7206823699842ED
:1051400002D863699F425DD2B84528BFB84642463F
:10515000494600F0BDF9A3682268A3EB0803424466
:10516000A36022600BB1C24679E721460098FFF7A1
:10517000B3FC002892D1C24671E75A46294600F096
:10518000A7F9A2682368A2EB0B025B44A26023602C
:10519000AFE72068B846BA46BB4655E76269206863
:1051A000216902EB4208A0EB010A08EBD8780AF16A
:1051B00001004FEA680838444045424684BF8046B3
:1051C00042465B0544D511460098FDF7B1FF834682
:1051D000002855D052462169FEF75AFAA38923F4D4
:1051E000906343F08003A3810BEB0A00A8EB0A0352
:1051F000C4F810B0C4F814802060A360B846BA4662
:10520000BB4621E76FF00041B94228BF39464A4604
:1052100091FBF3F10098666A03FB01F3E169B04783
:10522000B0F1000A3FF71BAF38E71A462946019351
:1052300000F04EF92268019B00981A442260214632
:10524000FFF74AFC019B00287FF428AF1F4650E778
:10525000009800F0A1F983460028C5D1009D21697E
:105260002846FFF7B7FDB4F90C300C2223F0800379
:105270002A6015E706F1010922E74FF0FF30BFE68B
:10528000009A0C231360B4F90C3009E700FCFF7F8F
:105290002DE9F84310F538771FD0884606464FF0C1
:1052A00000097D68BC68013D11D4A389012B05F17B
:1052B000FF3508D9B4F90E3001332146304602D00B
:1052C000C04749EA00096B1C04F16804EDD13F684E
:1052D000002FE6D14846BDE8F883B9464846BDE808
:1052E000F88300BF044B054A1B685B6B002B08BFAB
:1052F000134693F8280170471400402054084020BA
:10530000704700BF704700BF704700BF704700BFC5
:1053100070B50C46B1F90E10002990B015461E4626
:1053200014DB01AA00F09EFC00280FDB029A02F4B5
:105330007042A2F50052B2FA82F252094FF4806331
:105340004FF4006032602B6010B070BDA289002362
:1053500012F08000336004D0402218462A6010B05A
:1053600070BD4FF480632B6010B070BD8A899207C6
:105370000B4606D501F1430201211A601A615961F9
:105380007047F0B583B001AB6A460C460646FFF79E
:10539000BFFF009905463046FDF7CAFEB4F90C3050
:1053A000D8B1019A154F0099F76343F08003A381A8
:1053B0002060206161611AB92B43A38103B0F0BD65
:1053C0003046B4F90E1000F061FCA0B1A38923F0BF
:1053D000030343F001031BB2EEE79A05EED423F07A
:1053E000030304F1430243F002030121A38122607D
:1053F00022616161E2E7B4F90C30DDE72D4B40003A
:1054000082B049B15AB16BB113780B601278101C9D
:1054100018BF012002B0704701A9002AF3D110463D
:1054200002B070476FF00100F4E700BF0000000019
:1054300001F0FF01102A2BDB10F0070F08D010F845
:10544000013B013A8B422DD010F0070F42B3F6D149
:10545000F0B441EA012141EA014122F007047FF062
:1054600000070023F0E80256083C85EA010586EAB9
:10547000010685FA47F5A3FA87F586FA47F6A5FAF5
:1054800087F68EB9EED1F0BC01F0FF0102F0070201
:1054900032B110F8013B013A83EA010313B1F8D1AC
:1054A0000020704701387047002D06BF354603388D
:1054B000073815F0010F07D1013015F4807F02BFC6
:1054C000013015F4C03F0130F0BC0138704700BF17
:1054D0008842F0B50DD98B1898420AD28418002A58
:1054E00051D0224613F8014D02F8014D9942F9D1ED
:1054F000F0BD0F2A48D941EA00039B0746D100F1CD
:10550000100401F11003154653F8106C44F8106CA8
:1055100053F80C6C44F80C6C53F8086C44F8086CA5
:10552000103D53F8046C44F8046C0F2D03F1100384
:1055300004F11004E8D8A2F1100323F00F0302F0E5
:105540000F0E1033BEF1030F1944034421D91E1F5F
:105550000D467446043C55F8047B46F8047F032C42
:10556000F8D8AEF1040424F00304043421442344A5
:1055700002F0030262B1013B0A4411F8014B03F847
:10558000014F8A42F9D1F0BD0346F3E70346F2E743
:10559000F0BD7246EEE700BF002900F095802DE9CE
:1055A000F04F0D46164683B0804606F10B07FEF716
:1055B00057F955F804EC162F2EF00304A5F108094D
:1055C0003CD810221746BE423DD8944243DAC44B21
:1055D000996809EB0400884200F0B480436823F026
:1055E000010101444968C9074CD51EF0010F00F0C4
:1055F0009B8031464046FDF79BFD064600283AD089
:1056000055F8043C23F001034B44A0F108029A42F0
:1056100000F02181221F242A00F20781132A00F2C0
:10562000DB8003462A461168196051685960926808
:105630009A6029464046FFF7CDFB1CE027F007079C
:10564000002F3A46BFDA00260C233046C8F8003057
:1056500003B0BDE8F08F2E46E31B0F2B1ED8D9F800
:10566000043003F0010323434C44C9F80430636859
:1056700043F0010363604046FEF7F8F8304603B09C
:10568000BDE8F08F23F00303E11891421FDBC368EC
:1056900082682E46D3600C469A60DDE7D9F8042074
:1056A00009EB070102F001024C4443F001031743E8
:1056B000C9F804704B60636843F00103083163600C
:1056C0004046FFF787FBD6E71146FDF731BD1EF0D8
:1056D000010F8ED155F8081CA9EB010ADAF8041065
:1056E00021F003010B442344934225DBC268816807
:1056F0005646CA609160DAF80C1056F8080F221F5F
:10570000242AC160886000F29480132A6FD9296826
:10571000CAF808106968CAF80C101B2A00F2A280A7
:1057200008350AF1100263E055F8083CA9EB030ABA
:10573000DAF8041021F0030163189342FFF659AF21
:105740005646D8E7416821F0030BA34407F1100047
:10575000834556DA1EF0010F7FF44BAF55F8081C55
:10576000A9EB010ADAF8041021F003018B44584533
:10577000E2DC5646DAF80C1056F8080F221F242AED
:10578000C160886000F28F80132A40F28A80296805
:10579000CAF808106968CAF80C101B2A00F28A803F
:1057A00008350AF110022968116069685160A9681A
:1057B00091600AEB0701ABEB070242F0010299602E
:1057C0004A60DAF8043003F001031F434046CAF888
:1057D0000470FEF74BF851E72B6803606B68436079
:1057E0001B2A2DD800F1080305F108021BE73246F9
:1057F0002968116069685160A96891601C46D146AA
:105800002AE709EB0701ABEB070B4BF001029960AC
:105810004A6055F8043C03F001031F43404645F835
:10582000047CFEF723F82E4628E72946FFF750FEB2
:10583000FFE6294630461C46D146FFF749FE0BE7F6
:10584000AB688360EB68C360242A17D000F11003B3
:1058500005F11002E7E650F8043C23F003031C4472
:105860002E46F9E6A968CAF81010E968CAF81410BB
:10587000242A0CD010350AF11802B9E72B6903610C
:105880006B69436105F1180200F11803CBE62A6940
:10589000CAF818206A69CAF81C2018350AF12002D3
:1058A000A6E732467FE7294630460193FFF710FE10
:1058B000019B7EE7A968CAF81010E968CAF81410BD
:1058C000242A03D010350AF118026CE72A69CAF8B5
:1058D00018206A69CAF81C2018350AF1200262E70C
:1058E0004004402010B50C46B1F90E1000F0F6F956
:1058F000002803DB236D0344236510BDA38923F433
:105900008053A38110BD00BF2DE9F0411646B1F9C7
:105910000C201F46D3050C46054607D5002202235E
:10592000B1F90E1000F0C4F9B4F90C20B4F90E105E
:1059300022F48052A2813B4632462846BDE8F0411F
:1059400000F0A4B810B50C46B1F90E1000F0B0F993
:10595000A389421C0EBF23F4805343F48053206577
:10596000A38110BDB1F90E1000F008B9F8B50D46CD
:105970001446064610B1836B002B4BD0B4F90C20B3
:10598000A369A36091B2080739D52369002B36D0EB
:10599000EDB289042F4615D522686169D31A8B426E
:1059A0001CDA0133A168501C0139A1602060157018
:1059B00062699A421AD0A389DB0701D50A2D15D056
:1059C0003846F8BD616E42F4005221F40051A281C4
:1059D000226861666169D31A8B42E2DB2146304658
:1059E000FFF77AF840B922680123DBE72146304609
:1059F000FFF772F80028E3D04FF0FF37E0E72146C9
:105A00003046FEF755FF0028F6D1B4F90C20236983
:105A100091B2BDE7FFF7B8F8B0E700BFF0B50646B2
:105A200085B01F4689B1104C104D2468646B002C62
:105A300008BF2C46D4F8E040A047431C03D1002205
:105A40008A233A60336005B0F0BD0C460649074A28
:105A50000968496B002908BF11462246D1F8E04089
:105A600001A9A047E9E700BF1400402054084020E6
:105A700021B1FF2A04D80A700120704708467047F8
:105A80008A2303604FF0FF30704700BF70B50D46AA
:105A9000084C114606461A46284600232360FAF7AA
:105AA000DBFB431C00D070BD2368002BFBD03360B0
:105AB00070BD00BF500C40202DE9F8432C4D064628
:105AC000286898460F469146FFF71EFC294B1C6834
:105AD000D4F84831002B3ED05A681F2A1CDC02F152
:105AE000010E76B103EB82010124C1F88890D3F84E
:105AF000880194402043022EC3F88801C1F8088130
:105B000023D00232C3F804E0286843F82270FFF77C
:105B1000FDFB0020BDE8F883174B0BB34FF4C870B2
:105B2000FDF7F6FA0346D8B1D4F848210260002107
:105B300041600A46C4F848014FF0010EC0F88811D0
:105B4000C0F88C11002EDCD0CCE7D3F88C110C43BC
:105B5000C3F88C41D5E704F5A673C4F84831BBE718
:105B60002868FFF7D3FB4FF0FF30BDE8F88300BF94
:105B700050084020146140001131400038B5074CF6
:105B80000023054608462360FBF782F8431C00D03B
:105B900038BD2368002BFBD02B6038BD500C402053
:105BA00070B559B105460C4610B1836B002B3CD043
:105BB000636ED80705D5B4F90C302BB900263046F2
:105BC00070BDA38999053CD521462846FEF7E4FE21
:105BD000E36A064633B1E169284698470028B8BF12
:105BE0004FF0FF36A3891A0622D4216B41B104F18C
:105BF0004003994202D02846FFF7ECF800232363C4
:105C0000616C21B12846FFF7E5F800236364FEF7D5
:105C1000E7FF636E0022DB07A2810ED5A06DFFF7C0
:105C200071FBFEF7E3FF304670BDFEF7ADFFBFE747
:105C300021692846FFF7CEF8D7E7A06DFFF766FB8E
:105C4000ECE7A06DFFF760FBB4F90C30002BBBD183
:105C5000666E16F00106B1D1A06DFFF757FB304616
:105C600070BD00BF38B50B46074C054611461846B7
:105C700000232360FBF70FF8431C00D038BD2368D6
:105C8000002BFBD02B6038BD500C402038B5074CA2
:105C90000023054608462360FBF702F8431C00D0AA
:105CA00038BD2368002BFBD02B6038BD500C402042
:105CB00070B50D46084C114606461A462846002384
:105CC0002360FAF7EFFF431C00D070BD2368002B60
:105CD000FBD0336070BD00BF500C402070B50D4646
:105CE000084C114606461A46284600232360FAF758
:105CF00095FA431C00D070BD2368002BFBD03360A5
:105D000070BD00BF500C402053B94AB9002908BFEC
:105D100000281CBF4FF0FF314FF0FF3000F07AB980
:105D2000ADF1080C6DE904CE00F006F8DDF804E0F2
:105D3000DDE9022304B070472DE9F0478C460D469B
:105D40000446089E002B51D18A4217466DD9B2FAFB
:105D500082FEBEF1000F0BD0CEF1200C01FA0EF541
:105D600020FA0CFC02FA0EF74CEA050C00FA0EF4CD
:105D70004FEA174A250CBCFBFAF81FFA87F90AFB11
:105D800018CC45EA0C4508FB09F3AB420AD9ED19DA
:105D900008F1FF3280F02381AB4240F22081A8F16C
:105DA00002083D44ED1AA4B2B5FBFAF00AFB105507
:105DB00044EA054400FB09F9A14509D9E41900F1B9
:105DC000FF3380F00A81A14540F2078102383C444C
:105DD000A4EB090440EA08400021002E61D024FA17
:105DE0000EF4002334607360BDE8F0878B4207D95E
:105DF000002E54D0002186E821000846BDE8F08737
:105E0000B3FA83F1002940F08E80AB4202D3824284
:105E100000F2FA80841A65EB03050120AC46002EDF
:105E20003FD086E81010BDE8F08712B90127B7FB14
:105E3000F2F7B7FA87FEBEF1000F34D1EB1B3A0C34
:105E40001FFA87FC0121B3FBF2F8250C02FB183383
:105E500045EA03450CFB08F3AB4207D9ED1908F1FD
:105E6000FF3002D2AB4200F2D1808046ED1AA3B2DD
:105E7000B5FBF2F002FB105543EA05440CFB00FCB5
:105E8000A44507D9E41900F1FF3302D2A44500F27A
:105E9000B8801846A4EB0C0440EA08409DE7314660
:105EA0003046BDE8F087CEF1200405FA0EF307FA7C
:105EB0000EF720FA04F83A0C25FA04F448EA03082D
:105EC000B4FBF2F14FEA184502FB11441FFA87FCBC
:105ED00045EA044501FB0CF3AB4200FA0EF409D984
:105EE000ED1901F1FF3080F08A80AB4240F28780EB
:105EF00002393D44EB1A1FFA88F5B3FBF2F002FBBE
:105F0000103345EA034500FB0CF3AB4207D9ED190A
:105F100000F1FF386FD2AB426DD902383D44EB1A25
:105F200040EA01418FE7C1F1200722FA07F88B40D0
:105F300005FA01F448EA030320FA07FE4FEA134C7E
:105F4000FD404EEA040EB5FBFCF94FEA1E440CFB83
:105F500019551FFA83F844EA054509FB08F4AC42D9
:105F600002FA01F200FA01FA08D9ED1809F1FF303E
:105F700043D2AC4241D9A9F102091D442D1B1FFA9D
:105F80008EFEB5FBFCF00CFB10554EEA054400FB01
:105F900008F8A04507D9E41800F1FF3529D2A0453B
:105FA00027D902381C4440EA0940A4EB0804A0FBAE
:105FB00002894C45C6464D4615D312D056B1BAEBB0
:105FC0000E0364EB050404FA07F7CB401F43CC40F3
:105FD000376074600021BDE8F0871846F8E6904607
:105FE000E0E6C245EAD2B8EB020E69EB03050138E0
:105FF000E4E72846D7E7404691E78146BEE70146F9
:1060000078E702383C4445E7084608E7A8F102086B
:106010003D442BE7704700BF49444C450000000059
:10602000546D725100000000546D7220537663006D
:106030004C6564004661696C656420746F2063720E
:10604000656174652074657374206C656420746187
:10605000736B0D0A000000005561727454780000E3
:106060004661696C656420746F2063726561746554
:1060700020556172745478207461736B0D0A0000AE
:106080004765744368617273000000004661696C83
:10609000656420746F206372656174652047657460
:1060A0004368617273207461736B0D0A0000000015
:1060B00066616C686120656D206372696172206F32
:1060C0002073656D61666F726F200A0025730A0088
:1060D00066616C686120656D206372696172206120
:1060E000207175657565200A0000000064656C61AB
:1060F00079203D202564200A00000000737461634C
:106100006B206F766572666C6F772025782025731B
:106110000D0A000018004020303132333435363754
:1061200038394142434445460000000030313233A3
:1061300034353637383961626364656600000000C3
:10614000286E756C6C290000202020202020202043
:1061500020202020202020203030303030303030BF
:10616000303030303030303043000000504F534931
:10617000580000002E0000000020202020202020B9
:1061800020202828282828202020202020202020E7
:1061900020202020202020202088101010101010F7
:1061A0001010101010101010100404040404040443
:1061B00004040410101010101010414141414141DD
:1061C00001010101010101010101010101010101BF
:1061D00001010101101010101010424242424242CF
:1061E000020202020202020202020202020202028F
:1061F0000202020210101010200000000000000037
:10620000000000000000000000000000000000008E
:10621000000000000000000000000000000000007E
:10622000000000000000000000000000000000006E
:10623000000000000000000000000000000000005E
:10624000000000000000000000000000000000004E
:10625000000000000000000000000000000000003E
:10626000000000000000000000000000000000002E
:10627000000000000000000000000000F8B500BFB2
:10628000F8BC08BC9E467047794940006501400053
:10629000F8B500BFF8BC08BC9E46704741014000FD
:0862A00098FAFF7F01000000E5
:1062A800BFF35F8F0138FBD17047010000093D0043
:1062B800AAAAAAAA1800402000000000040340204F
:1062C8006C034020D40340200000000000000000C0
:1062D80000000000000000000000000000000000B6
:1062E80000000000000000000000000000000000A6
:1062F8000000000000000000000000000000000096
:106308000000000000000000000000000000000085
:106318000000000000000000000000000000000075
:106328000000000000000000000000000000000065
:106338000000000000000000000000000000000055
:106348000000000000000000000000000000000045
:106358000000000000000000000000000000000035
:1063680001000000000000000E33CDAB34126DE6D2
:10637800ECDE05000B00000000000000000000003B
:106388000000000000000000000000000000000005
:1063980000000000000000000000000000000000F5
:1063A80000000000000000000000000000000000E5
:1063B80000000000000000000000000000000000D5
:1066E800000000000000000040044020400440205A
:1066F80048044020480440205004402050044020D2
:106708005804402058044020600440206004402081
:106718006804402068044020700440207004402031
:1067280078044020780440208004402080044020E1
:106738008804402088044020900440209004402091
:106748009804402098044020A0044020A004402041
:10675800A8044020A8044020B0044020B0044020F1
:10676800B8044020B8044020C0044020C0044020A1
:10677800C8044020C8044020D0044020D004402051
:10678800D8044020D8044020E0044020E004402001
:10679800E8044020E8044020F0044020F0044020B1
:1067A800F8044020F804402000054020000540205F
:1067B800080540200805402010054020100540200D
:1067C80018054020180540202005402020054020BD
:1067D800280540202805402030054020300540206D
:1067E800380540203805402040054020400540201D
:1067F80048054020480540205005402050054020CD
:10680800580540205805402060054020600540207C
:10681800680540206805402070054020700540202C
:1068280078054020780540208005402080054020DC
:10683800880540208805402090054020900540208C
:106848009805402098054020A0054020A00540203C
:10685800A8054020A8054020B0054020B0054020EC
:10686800B8054020B8054020C0054020C00540209C
:10687800C8054020C8054020D0054020D00540204C
:10688800D8054020D8054020E0054020E0054020FC
:10689800E8054020E8054020F0054020F0054020AC
:1068A800F8054020F805402000064020000640205A
:1068B8000806402008064020100640201006402008
:1068C80018064020180640202006402020064020B8
:1068D8002806402028064020300640203006402068
:1068E8003806402038064020400640204006402018
:1068F80048064020480640205006402050064020C8
:106908005806402058064020600640206006402077
:106918006806402068064020700640207006402027
:1069280078064020780640208006402080064020D7
:106938008806402088064020900640209006402087
:106948009806402098064020A0064020A006402037
:10695800A8064020A8064020B0064020B0064020E7
:10696800B8064020B8064020C0064020C006402097
:10697800C8064020C8064020D0064020D006402047
:10698800D8064020D8064020E0064020E0064020F7
:10699800E8064020E8064020F0064020F0064020A7
:1069A800F8064020F8064020000740200007402055
:1069B8000807402008074020100740201007402003
:1069C80018074020180740202007402020074020B3
:1069D8002807402028074020300740203007402063
:1069E8003807402038074020400740204007402013
:1069F80048074020480740205007402050074020C3
:106A08005807402058074020600740206007402072
:106A18006807402068074020700740207007402022
:106A280078074020780740208007402080074020D2
:106A38008807402088074020900740209007402082
:106A48009807402098074020A0074020A007402032
:106A5800A8074020A8074020B0074020B0074020E2
:106A6800B8074020B8074020C0074020C007402092
:106A7800C8074020C8074020D0074020D007402042
:106A8800D8074020D8074020E0074020E0074020F2
:106A9800E8074020E8074020F0074020F0074020A2
:106AA800F8074020F8074020000840200008402050
:106AB80008084020080840201008402010084020FE
:106AC80018084020180840202008402020084020AE
:106AD800280840202808402030084020300840205E
:106AE8003808402038084020FFFFFFFF0000020060
:106AF8002C0C4020430000000000000000000000B3
:106B0800000000000000000000000000000000007D
:106B1800000000004300000000000000000000002A
:106B2800000000000000000000000000000000005D
:106B3800000000004300000000000000000000000A
:106B4800000000000000000000000000000000003D
:106B580000000000430000000000000000000000EA
:106B6800000000000000000000000000000000001D
:106B780000000000430000000000000000000000CA
:106B880000000000000000000000000000000000FD
:106B980000000000430000000000000000000000AA
:106BA80000000000000000000000000000000000DD
:106BB800000000004300000000000000000000008A
:106BC80000000000000000000000000000000000BD
:106BD80000000000715A400001544000000000000D
:106BE8007861400074614000546040005460400087
:106BF80054604000546040005460400054604000BD
:106C0800546040005460400054604000FFFFFFFFA4
:106C1800FFFFFFFFFFFFFFFFFFFF000001004153E1
:106C28004349490000000000000000000000000087
:106C380000000000000000000000000000004153B8
:106C48004349490000000000000000000000000067
:106C5800000000000000000000000000000000002C
:04000005004009F9B5
:00000001FF
